:020000040000FA
:020000000528D1
:0800080016288312073099004D
:10001000850183169F01EC30850004309500403047
:10002000810083122220200885007A2048202A207F
:10003000A001251C2014241CA014211C20164330D0
:1000400051201328A501A401A301A201A10113308D
:10005000A0000800A50A0A3025020319A50103190A
:10006000A40A0A3024020319A4010319A30A0A30BE
:1000700023020319A3010319A20A0A302202031959
:10008000A2010319A10A0A3021020319A1010800E3
:1000900005081B39133A031D0800222090308B00FD
:1000A0005028F13EA60026185528A6185728A6184D
:1000B0005928FC3E031859280800FF3EA7005E306F
:1000C000512060305120A70B61280800FF3EA80096
:1000D00063305D205D30512063305D205F30512002
:1000E000A80B6C28080077207820782077207820CB
:0800F0007B2000000000080065
:02400E00D33F9E
:00000001FF
