:1000000029C100000C94140F0C94E90E0C94BE0E40
:100010000C94930E0C94680E0C943D0E0C94120EDE
:100020000C94E70D0C94720D0C94030D0C948D0C34
:1000300042C1000040C100003EC100003CC10000C0
:100040003AC1000038C1000036C1000034C10000D0
:1000500032C1000030C100002EC100000C94430CDE
:100060002AC100000C940D0C0C94E30B24C1000079
:1000700022C1000020C100001EC100001CC1000000
:100080001AC1000018C1000016C1000014C1000010
:1000900012C1000010C100000EC100000CC1000020
:1000A0000AC1000008C1000006C1000004C1000030
:1000B00002C1000000C10000FEC00000FCC0000042
:1000C000FAC00000F8C00000F6C00000F4C0000054
:1000D000F2C00000F0C00000EEC00000ECC0000064
:1000E000EAC0000000010405050303040506040539
:1000F00006070100010003020100000102030405DC
:1001000006070706050403020100070201000706AF
:1001100005040302010003020100000102030405BB
:10012000060700010203040506070203040506068C
:100130000700002200250028002B002E003100348B
:100140000002010000050108010B0100002000234E
:1001500000260029002C002F0032000001000003BF
:10016000010601090100000A0B02090C0D0E080727
:100170000304010000000000000000000000000077
:10018000000000000000000000000000000000006F
:10019000001211100000000000000000000000002C
:1001A000000000000000000000000000002100240A
:1001B0000027002A002D0030003300010100000458
:1001C0000107010A01010210202008081020401038
:1001D000204080020102010804020101020408100B
:1001E0002040808040201008040201800402018029
:1001F0004020100804020108040201010204081052
:1002000020408001020408102040800505050507F4
:100210000508080808020202020A0A080804040481
:1002200004010101010101010103030303030303AD
:1002300003040707070C0C0C0C0C0C0C0C0202023C
:100240000206060606060606060B0B0B0B0B0B0B2F
:100250000B003F0F11241FBECFEFD1E2DEBFCDBF99
:1002600000E00CBF10E1A0E0B2E0EEE4F7E600E051
:100270000BBF02C007900D92A435B107D9F723E157
:10028000A4E5B0E101C01D92AF39B207E1F711E07A
:10029000CAE2D1E000E006C021970109802FFE01EB
:1002A0000E946B2FC932D10780E00807A9F70E948E
:1002B000E90F0C94A533A4CE20918011222361F084
:1002C0002FB7F89430918011313049F43DB3309319
:1002D0007F113DB33DBB2FBF8CBD9DBD08952093C5
:1002E0007F11FACF2091D5103091D6104091D710C0
:1002F0005091D8106091D9107091DA108091DB1074
:100300009091DC10A1E00E949C302093D510309396
:10031000D6104093D7105093D8106093D910709393
:10032000DA108093DB109093DC1008957091D51053
:100330006091D6105091D7104091D8103091D910BB
:100340002091DA109091DB108091DC10EEE1F2E167
:1003500073876487558746873787208B918B828B7D
:1003600008957091D5106091D6105091D71040919A
:10037000D8103091D9102091DA109091DB10809133
:10038000DC10E7EAF2E170836183528343833483B4
:100390002583968387830895AF92BF92CF92DF9291
:1003A000EF92FF920F931F93CF93DF936C017B012A
:1003B0008B01040F151FEB015E01AE18BF08C017BB
:1003C000D10759F06991D601ED91FC910190F0812E
:1003D000E02DC6011995892B79F7C501DF91CF91E1
:1003E0001F910F91FF90EF90DF90CF90BF90AF9053
:1003F0000895FC01538D448D252F30E0842F90E02B
:10040000821B930B541710F0CF960895019708950F
:10041000FC01918D828D981761F0A28DAE0FBF2FD8
:10042000B11D5D968C91928D9F5F9F73928F90E02E
:1004300008958FEF9FEF0895FC01918D828D98179D
:1004400031F0828DE80FF11D858D90E008958FEFDA
:100450009FEF0895FC01918D228D892F90E0805CA3
:100460009F4F821B91098F739927089581E891E12D
:10047000F1DF21E0892B09F420E0822F0895FC01AF
:10048000A48DA80FB92FB11DA35ABF4F2C91848DF5
:1004900090E001968F739927848FA689B7892C9352
:1004A000A089B1898C91837080648C93938D848DA5
:1004B000981306C00288F389E02D80818F7D8083A8
:1004C0000895EF92FF920F931F93CF93DF93EC0168
:1004D00081E0888F9B8D8C8D98131AC0E889F989EB
:1004E000808185FF15C09FB7F894EE89FF896083EE
:1004F000E889F98980818370806480839FBF81E06F
:1005000090E0DF91CF911F910F91FF90EF900895B0
:10051000F62E0B8D10E00F5F1F4F0F731127E02E8B
:100520008C8D8E110BC00FB607FCFACFE889F989C4
:10053000808185FFF5CFCE01A2DFF2CFEB8DEC0FEE
:10054000FD2FF11DE35AFF4FF0829FB7F8940B8FF8
:10055000EA89FB8980818062D0CF682F81E891E1B0
:10056000B0CFCF93DF93EC01888D8823B1F0AA89B7
:10057000BB89E889F9898C9185FD03C0808186FD5E
:100580000CC00FB607FCF7CF8C9185FFF2CF8081AE
:1005900085FFEDCFCE0173DFEACFDF91CF910895D4
:1005A00080E090E0892B21F061DF81110E94000042
:1005B00080E090E0892B49F080E090E0892B29F0E1
:1005C0000E94000081110E94000080E090E0892BD1
:1005D00049F080E090E0892B29F00E940000811111
:1005E0000E94000080E090E0892B49F080E090E0DC
:1005F000892B29F00E94000081110C9400000895BD
:100600008150823108F05AC0E82FF0E08827E45F7B
:10061000FC4F8F4F0C946B2F2C0330031E032403CD
:1006200028035E03330339033D03430347034B03AE
:10063000510355035E0359035F03630380918000F8
:100640008F77809380000895809180008F7DF9CF0F
:1006500080918000877FF5CF84B58F7784BD089522
:1006600084B58F7DFBCF8091B0008F778093B000F1
:1006700008958091B0008F7DF9CF809190008F77A1
:10068000809390000895809190008F7DF9CF8091A4
:100690009000877FF5CF8091A0008F778093A00096
:1006A00008958091A0008F7DF9CF8091A000877F71
:1006B000F5CF809120018F7780932001089580915C
:1006C00020018F7DF9CF80912001877FF5CFCF93D7
:1006D000DF93282F30E0F901EB59FE4F8491F901A7
:1006E000EB53FE4FD491F901E55FFD4FC491CC234C
:1006F00099F0811185DFEC2FF0E0EE0FFF1FE55B35
:10070000FE4FA591B491EC91ED2381E090E009F4C6
:1007100080E0DF91CF91089580E090E0FACF1F93C1
:10072000CF93DF93282F30E0F901EB59FE4F8491EE
:10073000F901EB53FE4FD491F901E55FFD4FC491F0
:10074000CC23A1F0162F81115BDFEC2FF0E0EE0F30
:10075000FF1FEF5CFE4FA591B4918FB7F894EC9119
:10076000111108C0D095DE23DC938FBFDF91CF91AC
:100770001F910895DE2BF8CFCF93DF9390E0FC011B
:10078000EB53FE4F2491855F9D4FFC01849188239C
:10079000D1F090E0880F991FFC01E555FE4FA5911F
:1007A000B491FC01EF5CFE4FC591D49161110EC074
:1007B0009FB7F8948C91E22FE0958E238C9328813B
:1007C000E223E8839FBFDF91CF9108958FB7F8941C
:1007D000EC91E22BEC938FBFF6CF90917B00977F4B
:1007E00090937B008653806480937C0080917A0094
:1007F000806480937A0080917A0086FDFCCF80919E
:1008000078009091790008953FB7F8948091A310F3
:100810009091A410A091A510B091A61026B5A89B08
:1008200005C02F3F19F00196A11DB11D3FBFBA2F82
:10083000A92F982F8827BC01CD01620F711D811D42
:10084000911D42E0660F771F881F991F4A95D1F7C7
:1008500008958F929F92AF92BF92CF92DF92EF92C4
:10086000FF924B015C01D0DF6B017C01CDDF6C1985
:100870007D098E099F09683E734081059105B0F39B
:1008800021E0821A9108A108B10888EEC80E83E021
:10089000D81EE11CF11C81149104A104B10431F7AC
:1008A000FF90EF90DF90CF90BF90AF909F908F9090
:1008B00008959FB7F8942091801180917F11213085
:1008C00019F48DBB9FBF08958FBF08950F931F9399
:1008D000CF93DF938C01C62FD42F80E591E0ECDC21
:1008E00060E0F80187811BDFC064CD27DC27CD27BE
:1008F0000CB405FC19C0DEBD00000DB407FEFDCF31
:100900008EB5CEBD00000DB407FEFDCF8EB561E003
:10091000F801878104DF80918011882389F0DF91BD
:10092000CF911F910F91C5CFCEBD00000DB407FE32
:10093000FDCF8EB5DEBD00000DB407FEFDCFE6CFC6
:10094000DF91CF911F910F9108958EBD00000DB4DE
:1009500007FEFDCF8EB508950F931F93CF93DF93BE
:100960008C01C62F80E591E0A7DC60E0F80187816B
:10097000D6DE8C2FEADF80E0E8DF80E0E6DFC82FFC
:1009800080E0E3DF6C2F70E0762F6627EB01C80F65
:10099000D11D61E0F8018781C2DE80918011811153
:1009A00088DF8FE090E00197F1F7BE0190E080E0F2
:1009B000DF91CF911F910F910895CF9381E891E13D
:1009C00049DD892BD9F381E891E122DDC82FC5DD0E
:1009D0008C2FCF9108951F93CF93DF9310927C11AA
:1009E00010927B111DE0E9DFC0917B11D0917C1149
:1009F000CE37D10524F48A3011F08D3099F4CE0130
:100A0000019690937C1180937B11C550DF4E188323
:100A1000FC01E550FF4E108202972CF3DF91CF913D
:100A20001F910895883069F480E297DD88E095DDB4
:100A30001C161D06C4F62197D0937C11C0937B1120
:100A4000D2CF9E012F5F3F4F30937C1120937B11BB
:100A5000C550DF4E8883C7CF9EEF980F923008F4C1
:100A6000A5C09EEE980F943008F4A0C090E0FC0161
:100A7000EB53FE4F2491FC01E55FFD4F3491433071
:100A800009F038C0323031F540917710422B409355
:100A900077108C519F4FFC01A491323009F043C074
:100AA000B0E0AA0FBB1FAA59BF4E6D937C93EFE431
:100AB000F1E0A591B4918C91809378108BE690E051
:100AC00090935510809354108091680081608093BA
:100AD00068004AC03A3031F440918910422B40936B
:100AE0008910D7CF3B30A9F640919C10422B409300
:100AF0009C10CFCF323031F440917610422B40938E
:100B00007610C7CF3A3031F440918810422B409391
:100B10008810BFCF3B3009F0BCCF40919B10422BD7
:100B200040939B10B6CF3A3039F5B0E0AA0FBB1F07
:100B3000A758BF4E6D937C93EFE5F1E0A591B4917A
:100B40008C9180938A108CE690E09093551080935E
:100B500054108091680082608093680080918710B3
:100B6000822B80938710220FA0915410B0915510C2
:100B7000EC912E2B2C9308953B30B1F7B0E0AA0FE7
:100B8000BB1FA557BF4E6D937C93E1E6F1E0A591A5
:100B9000B4918C9180939D108DE690E090935510C8
:100BA0008093541080916800846091CF9FB7F8942F
:100BB000833069F18231A1F0823039F570935F1092
:100BC00060935E10EC9880916A008C7F80936A003D
:100BD00080916A00482B40936A00E49AEC9A15C011
:100BE00070935D1060935C10EB98809169008F7337
:100BF0008093690080916900F0E44F9FA001112467
:100C0000482B40936900E39AEB9A9FBF0895709335
:100C1000611060936010ED9880916A00837F8093EB
:100C20006A0080916A0024E0429FA0011124482BB1
:100C300040936A00E59AED9AE8CFFC01019000200C
:100C4000E9F73197AF01481B590BBC0181E891E1ED
:100C5000A3CB84E392E0F1CFCF93DF937EDCEC0172
:100C6000F8DF8C0F9D1FDF91CF9108958F929F9297
:100C7000AF92BF920F931F93CF93DF93CDB7DEB7A1
:100C8000A1970FB6F894DEBF0FBECDBF19A24230B8
:100C900008F44AE08E010F5D1F4F842E912CB12C79
:100CA000A12CA50194010E940E2FE62FB901CA01C3
:100CB000EA30ECF4E05DD801EE938D01232B242B78
:100CC000252B79F790E080E0109711F0CD01B5DF8A
:100CD000A1960FB6F894DEBF0FBECDBFDF91CF91C6
:100CE0001F910F91BF90AF909F908F900895E95CF6
:100CF000E2CFCF93DF93D0E0C0E0009711F09DDF0B
:100D0000EC01A7DF8C0F9D1FDF91CF91089595CF48
:100D1000CF92DF92EF92FF92CF93DF9397FF17C0AE
:100D20006B017C018DE219DCEC0166277727CB0192
:100D30006C197D098E099F094AE098DF8C0F9D1F71
:100D4000DF91CF91FF90EF90DF90CF9008954AE030
:100D5000DF91CF91FF90EF90DF90CF9087CFBC01D4
:100D6000990F880B990BD4CFCF93DF93D1DFEC0190
:100D700070DF8C0F9D1FDF91CF9108950F931F930C
:100D8000CF93DF93C0917D11D0917E1180917B1123
:100D900090917C11C817D90794F48E0105501F4E0D
:100DA000F8018081DADB2196D0937E11C0937D110A
:100DB000F8018081DF91CF911F910F910895DF910C
:100DC000CF911F910F91F9CD2F923F924F925F9249
:100DD0006F927F928F929F92AF92BF92CF92DF924B
:100DE000EF92FF920F931F93CF93DF93CDB7DEB7B0
:100DF0002E970FB6F894DEBF0FBECDBF9A838983BE
:100E00001092F3101092F4101092F5101092F61048
:100E10001092F7101092F8101092F9101092FA1028
:100E20001092EB101092EC101092ED101092EE1048
:100E30001092EF101092F0101092F1101092F21028
:100E40001092E3101092E4101092E5101092E61048
:100E50001092E7101092E8101092E9101092EA1028
:100E600081E080930002109201021092020210921F
:100E700003021092040210920502109206021092D0
:100E800007021092E2101092E11078DF182F082E5E
:100E9000000C990B0E94B42E3C01892BB1F71B3238
:100EA00029F46CDF182F1C861B8608C01D32D9F769
:100EB00065DF182F81E090E09C878B87103349F421
:100EC0005DDF182FE1E0F0E0F093E210E093E11035
:100ED000F5CF812F012E000C990BC09788248394A5
:100EE000912C0A9788F01E3209F456C01E861D8682
:100EF0001F7D153409F0D4C041DF8B3209F0B1C039
:100F00003DDF10E000E0B3C0812F012E000C990BF3
:100F1000C0979E878D870A9708F04CC09092E21088
:100F20008092E1105AE0A52EB12CC12CD12CE12CDD
:100F3000F12C00E010E02091F3103091F41040917A
:100F4000F5105091F6106091F7107091F8108091A3
:100F5000F9109091FA100E94732F1E85110F110B3A
:100F6000AD84BE84C12ED12EE12EF12E012F0E9420
:100F700093302093F3103093F4104093F510509376
:100F8000F6106093F7107093F8108093F910909317
:100F9000FA10F4DE182FB8CFF1DE182F1E861D864A
:100FA000103351F4ED85FE853197FE87ED87E6DE3F
:100FB000182FF6CF1E861D861E3211F4DFDE182F85
:100FC00044244394512C812E012E000C9908F0E307
:100FD0008F1A91088AE08816910408F089CF509200
:100FE000E2104092E1103AE0A32EB12CC12CD12C9A
:100FF000E12CF12C00E010E02091F3103091F4107E
:101000004091F5105091F6106091F7107091F81022
:101010008091F9109091FA100E94732F192D110FE1
:10102000110B5401C12ED12EE12EF12E012F0E9461
:1010300093302093F3103093F4104093F5105093B5
:10104000F6106093F7107093F8108093F910909356
:10105000FA10ED85FE853197FE87ED878FDE182F1C
:10106000B2CF8D3209F04DCF89DE01E010E0803340
:1010700011F484DEFCCF912C812C2AE0522E082E14
:10108000000C990BC0978A30910508F431C1012BEF
:1010900009F038C18D859E85880D991D9E878D87A5
:1010A0008091E1109091E210892B09F408C14090E1
:1010B000F3105090F4108090F5109090F6109091ED
:1010C000F7109B83E091F810EC832090F91030909A
:1010D000FA104092EB105092EC108092ED1090922A
:1010E000EE109093EF10E093F0102092F1103092F8
:1010F000F2108D859E8597FF09C1909100029D8316
:10110000E0910102EE83F0910202FF8380910302DD
:101110008887909104029987E0910502EA87709090
:101120000602609007029AE0A92EB12CC12CD12CA6
:10113000E12CF12C00E010E02D813E814F8158859B
:1011400069857A85872D962D0E94732F2D833E8386
:101150004F83588769877A87782E692E8D859E857B
:1011600001969E878D87892BF1F62093000230939C
:101170000102E42F40930202F52F50930302862FC1
:1011800060930402972F709305027092060260929A
:10119000070259016F017C01072D162D9201A40150
:1011A0006B817C81C1010E94C32F2093E310309397
:1011B000E4104093E5105093E6106093E7107093AD
:1011C000E8108093E9109093EA109201A4016B81DA
:1011D0007C81C1010E94C52F2093EB103093EC104D
:1011E0004093ED105093EE106093EF107093F01059
:1011F0008093F1109093F2108B859C85892B09F4D4
:1012000044C02091EB103091EC104091ED105091C2
:10121000EE106091EF107091F0108091F1109091AC
:10122000F2100E944C302093EB103093EC1040935E
:10123000ED105093EE106093EF107093F0108093C8
:10124000F1109093F2102091E3103091E41040914E
:10125000E5105091E6106091E7107091E8108091D0
:10126000E9109091EA100E944C302093E3103093E3
:10127000E4104093E5105093E6106093E7107093EC
:10128000E8108093E9109093EA108091EB10E981C7
:10129000FA8180838091EC1081838091ED108283AC
:1012A0008091EE1083838091EF1084838091F01001
:1012B00085838091F11086838091F21087832E962A
:1012C0000FB6F894DEBF0FBECDBFDF91CF911F9157
:1012D0000F91FF90EF90DF90CF90BF90AF909F90D5
:1012E0008F907F906F905F904F903F902F900895D8
:1012F000589C9001599C300D11244C01820E931E74
:101300003DDDBDCE919481949108C4CEED85FE85DE
:10131000EF2B09F471CF8AE0A82EB12CC12CD12C6F
:10132000E12CF12C00E010E09201A4016B817C81A2
:10133000C1010E94732F29014A016B837C831C0128
:10134000FFEF6F1A7F0A8D859E858615970519F721
:101350004092EB105092EC108092ED109092EE10B3
:101360006093EF107093F0102092F1103092F21011
:1013700043CF2F923F924F925F926F927F928F92C4
:101380009F92AF92BF92CF92DF92EF92FF920F9314
:101390001F93CF93DF93CDB7DEB7C054D1090FB6FB
:1013A000F894DEBF0FBECDBF29A73AA74BA75CA715
:1013B0006DA77EA78FA798ABA12C2F3FEFE03E072C
:1013C000E5EA4E07E4ED5E07E8EE6E07710581057C
:1013D000910509F00CF401C110E1B12E05EAC02E0F
:1013E000E4EDDE2EF8EEEF2EF12C00E010E00E948E
:1013F000C52F29AB3AAB4BAB5CAB6DAB7EAB8FABC8
:1014000098AFA12C40E1B42E55EAC52E64EDD62E3E
:1014100078EEE72EF12C00E010E029A93AA94BA9BB
:101420005CA96DA97EA98FA998AD0E94732F59015F
:101430006A017B018C0129A53AA54BA55CA56DA588
:101440007EA58FA598A90E94A83029013A014B01D9
:101450001C01A0E00E94BA3034F40E944C302901F3
:101460003A014B011C0190E4A92E22E4B22E3FE088
:10147000C32ED12CE12CF12C00E010E09201A3014D
:10148000B401C1010E94C52F29AF3AAF4BAF5CAF89
:101490006DAF7EAF8FAF21969FAF21979201A301D1
:1014A000B401C1010E94C32F522E432E342E252E8B
:1014B000F62EE72ED82EC92E29A53AA54BA55CA558
:1014C0006DA57EA58FA598A9A0E00E94BA301CF456
:1014D00087E392E01CDC88AD8F939FA99F93EEA9D0
:1014E000EF938DA98F939CA99F93EBA9EF938AA962
:1014F0008F9399A99F9389E392E09F938F938E0195
:101500000F5F1F4F1F930F930E94DD30C801FFDB59
:101510002196EFAD2197EF938FAD8F939EAD9F9363
:10152000EDADEF938CAD8F939BAD9F93EAADEF93B1
:1015300089AD8F938EE3682E82E0782E7F926F9232
:101540004E0191E2890E911C9F928F920E94DD3094
:10155000CF92DF92EF92FF922F923F924F925F9243
:101560007F926F927E01E9E1EE0EF11CFF92EF9205
:101570000E94DD300FB6F894DEBF0FBECDBFFF92E4
:10158000EF929F928F9284E492E09F938F931F93A8
:101590000F930E94DD301C86C801B9DB0FB6F894AA
:1015A000DEBF0FBECDBFC05CDF4F0FB6F894DEBF0D
:1015B0000FBECDBFDF91CF911F910F91FF90EF90A4
:1015C000DF90CF90BF90AF909F908F907F906F9063
:1015D0005F904F903F902F900895E0EFBE2EFAE578
:1015E000CF2EABE2DA2EB7E1EB2EFF24FA940FEF09
:1015F0001FEF29A53AA54BA55CA56DA57EA58FA5D6
:1016000098A9F5CE2F923F924F925F926F927F9260
:101610008F929F92AF92BF92CF92DF92EF92FF9202
:101620000F931F93CF93DF93CDB7DEB7C258D10985
:101630000FB6F894DEBF0FBECDBF19012A013B01E2
:10164000CF57DF4F8883C158D040CE57DF4F9883A4
:10165000C258D04020E4A22E32E4B32E4FE0C42E74
:10166000D12CE12CF12C00E010E09101A2010E94AC
:10167000C52F5F934F933F932F9389E392E09F93FE
:101680008F93CE0101964C019F938F930E94DD3082
:10169000C4013DDB9101A201B301CF57DF4F888127
:1016A000C158D040CE57DF4F9881C258D0400E94D9
:1016B000C32F5F934F933F932F938EE392E09F93BB
:1016C0008F939F928F920E94DD30C40120DB0FB672
:1016D000F894DEBF0FBECDBFCE57DF4F0FB6F894E4
:1016E000DEBF0FBECDBFDF91CF911F910F91FF9055
:1016F000EF90DF90CF90BF90AF909F908F907F90B2
:101700006F905F904F903F902F900895EF92FF92CF
:101710000F931F93CF93DF937C018B01D0E0C0E048
:10172000F80161918F01C7018C0F9D1F0E94F12E5E
:101730002196C430D105A1F784E090E0DF91CF91EC
:101740001F910F91FF90EF900895EF92FF920F93EA
:101750001F93CF93DF937C018B01D0E0C0E0F801B1
:1017600061918F01C7018C0F9D1F0E94F12E219660
:10177000C138D105A1F781E890E0DF91CF911F91A9
:101780000F91FF90EF900895EF92FF920F931F93A8
:10179000CF93DF938B010C5F1F4FEB017C01E61AA7
:1017A000F70AC7018C0F9D1F0E94E92E8993C0176D
:1017B000D107B9F784E090E0DF91CF911F910F91AD
:1017C000FF90EF9008951F920F920FB60F92112481
:1017D0000BB60F922F933F934F935F936F937F932B
:1017E0008F939F93AF93BF93EF93FF9381E891E122
:1017F0000E943F02FF91EF91BF91AF919F918F9116
:101800007F916F915F914F913F912F910F900BBE00
:101810000F900FBE0F901F9018951F920F920FB64A
:101820000F9211240BB60F922F938F939F93EF93E8
:10183000FF93E0919111F09192118081E0919711C5
:10184000F091981182FD1DC0908180919A118F5F57
:101850008F7320919B11821741F0E0919A11F0E073
:10186000EF57FE4E958F80939A11FF91EF919F91C4
:101870008F912F910F900BBE0F900FBE0F901F9066
:1018800018958081F2CF1F920F920FB60F921124FC
:101890002F933F938F939F93AF93BF9380919F100C
:1018A0009091A010A091A110B091A21030919E1023
:1018B00023E0230F2D3758F50196A11DB11D20936C
:1018C0009E1080939F109093A010A093A110B093AE
:1018D000A2108091A3109091A410A091A510B09196
:1018E000A6100196A11DB11D8093A3109093A41082
:1018F000A093A510B093A610BF91AF919F918F9127
:101900003F912F910F900FBE0F901F90189526E8D2
:10191000230F0296A11DB11DD2CF1F920F920FB6B9
:101920000F9211240BB60F922F933F934F935F9317
:101930006F937F938F939F93AF93BF93CF93EF93C7
:10194000FF9390910601C0919D1080919C10309161
:101950009B10292F209523238923822B20916D0012
:10196000C927C223C82390939D10CC23C1F1C0FF87
:1019700005C0E0918B10F0918C101995C1FF05C046
:10198000E0918D10F0918E101995C2FF05C0E09185
:101990008F10F09190101995C3FF05C0E091911040
:1019A000F09192101995C4FF05C0E0919310F09149
:1019B00094101995C5FF05C0E0919510F09196100F
:1019C0001995C6FF05C0E0919710F09198101995F0
:1019D000C7FF05C0E0919910F0919A101995FF91F9
:1019E000EF91CF91BF91AF919F918F917F916F9127
:1019F0005F914F913F912F910F900BBE0F900FBEB3
:101A00000F901F9018951F920F920FB60F921124EE
:101A10000BB60F922F933F934F935F936F937F93E8
:101A20008F939F93AF93BF93CF93EF93FF93909137
:101A30000301C0918A108091891030918810292F5C
:101A4000209523238923822B20918710C927C22325
:101A5000C82390938A10CC2389F1C0FF05C0E09180
:101A60007910F0917A101995C1FF05C0E0917B10B3
:101A7000F0917C101995C2FF05C0E0917D10F091A6
:101A80007E101995C3FF05C0E0917F10F091801082
:101A90001995C4FF05C0E0918110F091821019954D
:101AA000C5FF05C0E0918310F09184101995C6FF21
:101AB00005C0E0918510F09186101995FF91EF9186
:101AC000CF91BF91AF919F918F917F916F915F91D6
:101AD0004F913F912F910F900BBE0F900FBE0F9023
:101AE0001F9018951F920F920FB60F9211240BB6EC
:101AF0000F922F933F934F935F936F937F938F93A7
:101B00009F93AF93BF93CF93EF93FF9393B1C09104
:101B100078108091771030917610292F209523230B
:101B20008923822B20916B00C927C223C82390935D
:101B30007810CC23C1F1C0FF05C0E0916610F09190
:101B400067101995C1FF05C0E0916810F091691008
:101B50001995C2FF05C0E0916A10F0916B101995BC
:101B6000C3FF05C0E0916C10F0916D101995C4FF92
:101B700005C0E0916E10F0916F101995C5FF05C07A
:101B8000E0917010F09171101995C6FF05C0E091B9
:101B90007210F09173101995C7FF05C0E091741091
:101BA000F09175101995FF91EF91CF91BF91AF9181
:101BB0009F918F917F916F915F914F913F912F9165
:101BC0000F900BBE0F900FBE0F901F9018951F9295
:101BD0000F920FB60F9211240BB60F922F933F93D3
:101BE0004F935F936F937F938F939F93AF93BF9325
:101BF000EF93FF93E0916410F09165101995FF91B8
:101C0000EF91BF91AF919F918F917F916F915F9174
:101C10004F913F912F910F900BBE0F900FBE0F90E1
:101C20001F9018951F920F920FB60F9211240BB6AA
:101C30000F922F933F934F935F936F937F938F9365
:101C40009F93AF93BF93EF93FF93E0916210F09156
:101C500063101995FF91EF91BF91AF919F918F9173
:101C60007F916F915F914F913F912F910F900BBE9C
:101C70000F900FBE0F901F9018951F920F920FB6E6
:101C80000F9211240BB60F922F933F934F935F93B4
:101C90006F937F938F939F93AF93BF93EF93FF9334
:101CA000E0916010F09161101995FF91EF91BF9153
:101CB000AF919F918F917F916F915F914F913F91E4
:101CC0002F910F900BBE0F900FBE0F901F90189585
:101CD0001F920F920FB60F9211240BB60F922F93F3
:101CE0003F934F935F936F937F938F939F93AF93A4
:101CF000BF93EF93FF93E0915E10F0915F10199501
:101D0000FF91EF91BF91AF919F918F917F916F91D3
:101D10005F914F913F912F910F900BBE0F900FBE8F
:101D20000F901F9018951F920F920FB60F921124CB
:101D30000BB60F922F933F934F935F936F937F93C5
:101D40008F939F93AF93BF93EF93FF93E0915C10BA
:101D5000F0915D101995FF91EF91BF91AF919F9117
:101D60008F917F916F915F914F913F912F910F9044
:101D70000BBE0F900FBE0F901F9018951F920F92E1
:101D80000FB60F9211240BB60F922F933F934F93E0
:101D90005F936F937F938F939F93AF93BF93EF93D3
:101DA000FF93E0915A10F0915B101995FF91EF911C
:101DB000BF91AF919F918F917F916F915F914F9163
:101DC0003F912F910F900BBE0F900FBE0F901F9061
:101DD00018951F920F920FB60F9211240BB60F9207
:101DE0002F933F934F935F936F937F938F939F9323
:101DF000AF93BF93EF93FF93E0915810F091591078
:101E00001995FF91EF91BF91AF919F918F917F9124
:101E10006F915F914F913F912F910F900BBE0F905B
:101E20000FBE0F901F9018951F920F920FB60F9232
:101E300011240BB60F922F933F934F935F936F93A1
:101E40007F938F939F93AF93BF93EF93FF93E09113
:101E50005610F09157101995FF91EF91BF91AF91E6
:101E60009F918F917F916F915F914F913F912F91B2
:101E70000F900BBE0F900FBE0F901F901895CF9232
:101E8000DF92EF92FF920F931F93CF93DF93E1E8DE
:101E9000F1E11382128288EE93E0A0E0B0E0848347
:101EA0009583A683B78386E292E09183808385EC55
:101EB00090E09587848784EC90E09787868780EC14
:101EC00090E0918B808B81EC90E0938B828B82EC05
:101ED00090E0958B848B86EC90E0978B868B118EAF
:101EE000128E138E148E8AE080931A13CEE1D2E103
:101EF00084E090E09983888380E38A8382E090E0A5
:101F00009C838B838AE090E09E838D8386E090E0C3
:101F100098878F8384E490E09A87898761E084E0E2
:101F20000E94BC0360E08D810E94BC0361E08F8150
:101F30000E94BC0360E08B810E94BC0361E0898544
:101F40000E94BC0385E090E090939D1280939C12C8
:101F500081E380939E120FE912E183E090E0F801A3
:101F60009183808381EAC82E82E1D82E8BE090E0B5
:101F7000F6019183808393EAE92E92E1F92E87E0BE
:101F800090E0F70191838083C5EAD2E185E490E097
:101F90009983888361E085E00E94BC0360E0F601DC
:101FA00080810E94BC0361E0F70180810E94BC0334
:101FB00060E0F80180810E94BC0361E08881DF91CC
:101FC000CF911F910F91FF90EF90DF90CF900C94E5
:101FD000BC03CF93DF93CDB7DEB7CD5ED1400FB654
:101FE000F894DEBF0FBECDBF789484B5826084BD07
:101FF00084B5816084BD85B5826085BD85B581600D
:1020000085BD80916E00816080936E00109281008A
:102010008091810082608093810080918100816045
:102020008093810080918000816080938000809106
:10203000B10084608093B1008091B0008160809392
:10204000B000809191008260809391008091910016
:1020500081608093910080919000816080939000D6
:102060008091A10082608093A1008091A100816095
:102070008093A1008091A00081608093A000809156
:1020800021018260809321018091210181608093F0
:1020900021018091200181608093200180917A004C
:1020A000846080937A0080917A00826080937A00C5
:1020B00080917A00816080937A0080917A008068B4
:1020C00080937A001092C1002E010DEF401A0EEF9E
:1020D000500A92012F5F3F4FC451DE4F398328834E
:1020E000CC5ED14042E850E04C0F5D1F4D5E5F4F2B
:1020F000C152DE4F59834883CF5DD14060E082E119
:102100000E94BC0361E08CE00E94BC0361E08DE0B2
:102110000E94BC0361E082E40E94BC0361E083E4AE
:102120000E94BC0361E081E40E94BC03809108012D
:102130008064809308018091080180618093080188
:102140008091080180688093080180910801806275
:102150008093080181E891E10E94B102E09193111E
:10216000F091941180818F7E8083E0919311F091A2
:1021700094118081877F8083E0919311F091941175
:1021800080818F778083E0919311F0919411808109
:102190008F7D808380919B1180939A11E0919111A2
:1021A000F091921182E08083E0918D11F0918E1177
:1021B0001082E0918F11F091901180E18083109254
:1021C0009911E0919511F091961186E08083E0914C
:1021D0009311F0919411808180618083E09193113B
:1021E000F0919411808188608083E0919311F09147
:1021F0009411808180688083E0919311F091941113
:1022000080818F7D80839FB7F8948091A710882369
:1022100019F081508093A7108091A710811105C0FB
:102220008CB58F7B8CBD109280119FBF1FB7F89427
:102230008091A710811127C0E0E4F2E08491EAEFD9
:10224000F1E09491E82FF0E0EE0FFF1FE555FE4F0F
:10225000A591B491EC91E92321F461E085E30E941A
:102260008F0361E085E30E94BC038CB580618CBD67
:102270008CB580648CBD61E084E30E94BC0361E0A6
:1022800083E30E94BC038091A7108F5F8093A71007
:102290001FBFBE016C577E4F80EF9FE075DAB20121
:1022A00084EF9FE071DACC57DE4F88819981AA8153
:1022B000BB81C458D1408F3F5FEF9507A507B50795
:1022C00009F092C0F20180819181A281B3818F3F98
:1022D0009F4FAF4FBF4F09F095C089E492E00E9435
:1022E000790686E30E94ED03BC01990F880B990BD8
:1022F000611571058105910511F00E94802D0E94E4
:10230000342D2FEF3FEF40E050E00E94302FCC57AC
:10231000DE4F688379838A839B83C458D14089E3E5
:102320000E94ED03BC01990F880B990B6115710593
:102330008105910511F00E94802D0E94342D2FEF10
:102340003FEF40E050E00E94302FD2016D937D932B
:102350008D939C931397BE016C577E4F80EF9FE047
:10236000D5D9B20184EF9FE0D1D9F20183818F9357
:1023700082818F9381818F9380818F93C957DE4FA4
:102380008881C758D1408F93CA57DE4F8881C6587D
:10239000D1408F93CB57DE4F8881C558D1408F9362
:1023A000CC57DE4F8881C458D1408F938EE692E09F
:1023B0009F938F9388EA90E19F938F930E94DD30E3
:1023C00087EC93E00E94870688EA90E10E947906F4
:1023D0006CE47DE180E090E00E9429040FB6F8945F
:1023E000DEBF0FBECDBF0EC0892B8A2B8B2B51F4C5
:1023F000F20180819181A281B381892B8A2B8B2B61
:1024000009F46BCFD20113968C9113978F93129688
:102410008C9112978F9311968C9111978F938C9129
:102420008F93C957DE4F8881C758D1408F93CA57C1
:10243000DE4F8881C658D1408F93CB57DE4F8881BD
:10244000C558D1408F93CC57DE4F8881C458D140B6
:102450008F938EE692E09F938F9388EA90E19F930B
:102460008F930E94DD3090E080E00E94E92E0FB64D
:10247000F894DEBF0FBECDBF8A3009F4C6C189E72C
:1024800092E00E9479068AE0D2018C9341E150E00B
:102490006CE072E0C451DE4F88819981CC5ED140FE
:1024A0000E94CE3084E4F201828B41E150E068EA80
:1024B00070E1C20143960E94CE30D20194961C92E4
:1024C000949795961C92959780E896968C939697FC
:1024D00086E997968C93979788E998968C93989726
:1024E00099961C9299979A961C929A979B961C92F1
:1024F0009B979C961C929C979D961C929D979E964E
:102500001C929E9781EE9F968C939F9785EFD09615
:102510008C93D09785E0D1968C93D197D2961C92CC
:10252000D297D3961C92D397D4961C92D497D596D3
:102530001C92D59784E190E0D7969C938E93D69782
:1025400085E090E0D9969C938E93D897DB961C9269
:102550001E92DA978DE4DC968C93DC9781E4DF960B
:102560008C93DF9782E4CD5BDE4F8883C354D140E8
:10257000CC5BDE4F1882C454D140CB5BDE4F188257
:10258000C554D140CA5BDE4F1882C654D140C95BE6
:10259000DE4F1882C754D140C85BDE4F1882C85442
:1025A000D140C75BDE4F1882C954D140C65BDE4FB5
:1025B0001882CA54D140C55BDE4F1882CB54D1403B
:1025C000C45BDE4F1882CC54D140C35BDE4F18820F
:1025D000CD54D140C25BDE4F1882CE54D140C15B96
:1025E000DE4F1882CF54D140C05BDE4F1882C055F9
:1025F000D140CF5ADE4F1882C155D140CE5ADE4F5E
:102600001882C255D140CD5ADE4F1882C355D140F1
:1026100082E5DD968C93DD97DE968C9394ECCC5A14
:10262000DE4F9883C455D14089E0CB5ADE4F888372
:10263000C555D140CA5ADE4F1882C655D140C95A35
:10264000DE4F1882C755D140C85ADE4F1882C85590
:10265000D140C75ADE4F1882C955D140C65ADE4F05
:102660001882CA55D140C55ADE4F1882CB55D14089
:10267000C45ADE4F9883CC55D140C35ADE4F88836D
:10268000CD55D140C25ADE4F1882CE55D140C15AE5
:10269000DE4F1882CF55D140C05ADE4F1882C05647
:1026A000D140CF59DE4F1882C156D140CE59DE4FAE
:1026B0001882C256D140CD59DE4F1882C356D14040
:1026C000CC59DE4F1882C456D140CB59DE4F188208
:1026D000C556D140CA59DE4F1882C656D140C95995
:1026E000DE4F1882C756D140C859DE4F1882C856EF
:1026F000D140C759DE4F1882C956D140C659DE4F66
:102700001882CA56D140C559DE4F1882CB56D140E7
:10271000C459DE4F1882CC56D140C359DE4F1882BF
:10272000CD56D140C259DE4F1882CE56D140C15944
:10273000DE4F1882CF56D140C059DE4F1882C057A5
:10274000D140CF58DE4F1882C157D140CE58DE4F0E
:102750001882C257D140CD58DE4F1882C357D1409E
:10276000CC58DE4F1882C457D140CB58DE4F188268
:10277000C557D140CA58DE4F1882C657D140C958F4
:10278000DE4F1882C757D140C858DE4F1882C8574D
:10279000D140C758DE4F1882C957D140C658DE4FC6
:1027A0001882CA57D140C558DE4F1882CB57D14046
:1027B000C458DE4F1882CC57D140C358DE4F188220
:1027C000CD57D140C258DE4F1882CE57D140C158A4
:1027D000DE4F1882CF57D140C058DE4F1882C05804
:1027E000D140CF57DE4F1882C158D140CE57DE4F6F
:1027F0001882C258D140CD57DE4F1882C358D140FD
:10280000B20190E080E00E94A50B3AE1E32E33E1B3
:10281000F32E10E000E0C8010E94E92EF701819339
:102820007F010F5F1F4F01381105A9F70E9429068C
:102830008EE992E00E9479068FEB92E00E94790681
:102840000E9429068FEE92E00E94790685E093E0CF
:102850000E94790681E8EAE1F3E1DE01AE57BF4F5D
:1028600001900D928A95E1F78CE193E00E94870632
:10287000CA55DF4F8881C65AD040823009F403C25E
:1028800008F0F4C1882309F4F9C1813009F4FEC1CC
:102890008DE693E00E948706C955DF4F8881C75AAD
:1028A000D040882309F4FAC10E942C0685E893E001
:1028B0000E94870690E080E00E94E92E682F70E079
:1028C00090E080E04AE00E94360688E993E00E94AA
:1028D0008706CC56DF4F8881C459D0400E942C0611
:1028E0008AEA93E00E9487068CE092E00E947906D3
:1028F0008FEB93E00E948706C152DE4F8881998159
:10290000CF5DD1400E94790687ED93E00E94870653
:10291000C855DF4F2881C85AD040C755DF4F38818E
:10292000C95AD040C655DF4F4881CA5AD040C55514
:10293000DF4F5881CB5AD040C455DF4F6881CC5A05
:10294000D040C355DF4F7881CD5AD040C255DF4FBC
:102950008881CE5AD040C155DF4F9881CF5AD040A0
:102960000E94020B87EE93E00E9479068CEE93E0C2
:102970000E948706C055DF4F2881C05BD040CF54EE
:10298000DF4F3881C15BD040CE54DF4F4881C25BFE
:10299000D040CD54DF4F5881C35BD040CC54DF4F83
:1029A0006881C45BD040CB54DF4F7881C55BD04099
:1029B000CA54DF4F8881C65BD040C954DF4F98812D
:1029C000C75BD0400E94020B8CEF93E00E94790617
:1029D00082E094E00E948706C854DF4F8881998185
:1029E000C85BD0400E94AF060E94290682E194E0B5
:1029F0000E948706C454DF4F88819981CC5BD04008
:102A00000E94AF0686E392E00E94790686E294E097
:102A10000E948706C254DF4F8881CE5BD0400E945F
:102A20002C0683E394E00E948706CF53DF4F888112
:102A3000C15CD0400E94AD0280E494E00E94870611
:102A4000CE53DF4F8881C25CD0400E942C0682E4C6
:102A500094E00E948706CD53DF4F688179818A8197
:102A60009B81C35CD0400E94880680E594E00E9470
:102A70008706C553DF4F688179818A819B81CB5C52
:102A8000D0400E94880689E594E00E94790680E69D
:102A900094E00E948706C554DF4F8881CB5BD0400D
:102AA0008F93C654DF4F8881CA5BD0408F938CE6EA
:102AB00094E09F938F935F924F920E94DD30C2010A
:102AC0000E94790683E794E00E948706C154DF4F95
:102AD0008881CF5BD0400E94AD0280E594E00E94E7
:102AE0008706C054DF4F8881C05CD0400E94AD0291
:102AF00089E594E00E94790684E894E00E948706C4
:102B0000CD52DF4F688179818A819B81C35DD0403E
:102B10000E94880680E594E00E948706C552DF4F38
:102B2000688179818A819B81CB5DD0400E94880633
:102B300089E594E00E94790686E994E00E94870680
:102B4000CD51DF4F688179818A819B81C35ED040FE
:102B50000E94880680E594E00E948706C551DF4FF9
:102B6000688179818A819B81CB5ED0400E948806F2
:102B700089E594E00E94790686EA94E00E9487063F
:102B8000CD50DF4F688179818A819B81C35FD040BE
:102B90000E94880680E594E00E948706C550DF4FBA
:102BA000688179818A819B81CB5FD0400E948806B1
:102BB00089E594E00E9479068FEE92E00E94790602
:102BC0000E94290681EB94E00E94790686ED94E04C
:102BD0000E9487060F900F900F900F900F900F900C
:102BE00007E010E06AEF70E080E090E00E942904C6
:102BF0008EE20E94AD0281E891E10E942A02892BB7
:102C000009F051C06AEF70E080E090E00E94290472
:102C10008EE20E94AD0281E891E10E942A02892B96
:102C200009F041C06AEF70E080E090E00E94290462
:102C30008EE20E94AD0281E891E10E942A02892B76
:102C400091F56AEF70E080E090E00E9429048EE246
:102C50000E94AD0281E891E10E942A02892B19F5B8
:102C60000150110909F0BECF10E01EC0833089F079
:102C7000843009F00DCE87E693E002C081E393E053
:102C80000E94790605CE8BE393E0FACF82E493E0CD
:102C9000F7CF85E593E00E947906EDCF80E893E0D9
:102CA0000E94790603CE11E081E891E10E942A0298
:102CB000CF52DE4F99838883C15DD140892B29F0A3
:102CC00081E891E10E940802EFCF112311F40C94E6
:102CD000BD1E8E0104561E4FCC54DE4F198308834F
:102CE000C45BD1400E9429060E94290689ED94E028
:102CF0000E948706E0913E138FE3E53020F4F0E078
:102D0000E35EFD4F80810E942C068AE095E00E94E0
:102D1000870680913F13882309F455C10E942C0631
:102D20008BE395E00E948706209140133091411378
:102D30004091421350914313609144137091451395
:102D400080914613909147130E94020B0E9429061E
:102D50008CE695E00E948706209148133091491334
:102D600040914A1350914B1360914C1370914D1345
:102D700080914E1390914F130E94020B0E942906DE
:102D80008DE995E00E948706609150137091511370
:102D9000072E000C880B990B0E94B4068EEC95E070
:102DA0000E9487068091521390915313092E000CB4
:102DB000AA0BBB0BBF93AF939F938F938FEF95E0BD
:102DC0009F938F93CB54DE4F1881C55BD1401F93E7
:102DD000CC54DE4F2881C45BD1402F930E94DD305C
:102DE000CE0184569E4F0E94790686E096E00E94AE
:102DF000870680915413909155130E94AF060E944C
:102E0000290687E396E00E948706809156130E9468
:102E1000AD020E94290688E696E00E94870680910E
:102E200059130E94AD028FE20E94AD0280915A13A5
:102E30000E942C0689E996E00E94870660915B1348
:102E400070915C1380915D1390915E130E948806CF
:102E500080E20E94AD0260916313709164138091CF
:102E60006513909166130E94B4068AEC96E00E9466
:102E70008706809157130E94AD0280E20E94AD0246
:102E8000809158130E942C068BEF96E00E948706D3
:102E900060916B1370916C1380916D1390916E1310
:102EA0000E94880680E20E94AD02609173137091C7
:102EB000741380917513909176130E94B4068CE27E
:102EC00097E00E94870660917B1370917C1380913C
:102ED0007D1390917E130E94880680E20E94AD02CD
:102EE0006091831370918413809185139091861360
:102EF0000E94B4068DE597E00E94870660918B13CF
:102F000070918C1380918D1390918E130E9488067E
:102F100080E20E94AD0260919313709194138091AE
:102F20009513909196130E94B4060E9429068EE88C
:102F300097E00E9479068EEA97E00E94790680EC7D
:102F400097E00E94790683EE97E00E9479060E943E
:102F5000DD04082E000C990B0E94C630182F0E9429
:102F600029060FB6F894DEBF0FBECDBFEFECE10F20
:102F7000EE3110F00C9483200E2E000CFF0B8827EE
:102F8000EB53F84E8F4F0C946B2F991DAF1EBD1E47
:102F90006C20832083208320832083208320832030
:102FA00083208320832083208320E8173A185A182F
:102FB00063195F1AB81A2D1B6F1B8A1BBA1B201CC2
:102FC000671CCD1C331D81E299E00E947906A8CED2
:102FD00080EF97E00E9479060E9429068DE198E033
:102FE0000E94790685E398E00E9479068AE498E0D9
:102FF0000E9479068BE698E00E9479068AE898E0BC
:103000000E9479068EE998E00E9479060E942906BE
:1030100088EB98E00E9487060E94DD04082E000CD1
:10302000990B0E94C6308C34910501F15CF4843414
:103030009105F1F089349105B9F085EC98E00E9492
:103040007906EACF8035910559F08435910529F04C
:103050008E34910591F785E004C010923E1342CE64
:1030600082E080933E133ECE81E0FBCF83E0F9CF38
:1030700084E0F7CF83EE98E00E94870680913F13AB
:10308000882399F00E94AD0283EF98E00E947906B0
:103090000E94DD04082E000C990B0E94C63080327D
:1030A00009F480E080933F131DCE81E299E00E94F5
:1030B0008706EACF87E299E00E94870620914013B5
:1030C0003091411340914213509143136091441346
:1030D0007091451380914613909147130E94020B03
:1030E00084E399E00E94790688E599E00E947906D8
:1030F0000E94EB0410927E1110927D11C2010E9479
:10310000E406D201BC91C854DE4FB883C85BD140FD
:10311000F201F181C654DE4FF883CA5BD140D2017F
:1031200012962C90129713963C90139714966C90CD
:10313000149715967C90159716968C90169717965F
:103140009C90C854DE4F2881C85BD1403F2FA1011D
:10315000B301C401AFEF0E949C30AFE00E94BA30CF
:1031600011F008F0BFCDB0E4AB2E12E4B12E0FE0A9
:10317000C02ED12CE12CF12C00E010E02091E310C6
:103180003091E4104091E5105091E6106091E71005
:103190007091E8108091E9109091EA100E94732FCD
:1031A000A0900002B0900102C0900202D0900302F1
:1031B000E0900402F09005020091060210910702CF
:1031C0000E94C52FCE53DE4F2883C25CD140C85326
:1031D000DE4F3883C85CD140C753DE4F4883C95C9B
:1031E000D140C653DE4F5883CA5CD140C553DE4F31
:1031F0006883CB5CD140C453DE4F7883CC5CD14034
:10320000CA53DE4F8883C65CD140C953DE4F9883D2
:10321000C75CD14080E4A82E92E4B92E2FE0C22EE4
:10322000D12CE12CF12C00E010E0C854DE4F2881B5
:10323000C85BD140C654DE4F3881CA5BD140A10182
:10324000B301C4010E94732F59016A017B018C01F3
:10325000CE53DE4F2881C25CD140C853DE4F388147
:10326000C85CD140C753DE4F4881C95CD140C653CA
:10327000DE4F5881CA5CD140C553DE4F6881CB5CBC
:10328000D140C453DE4F7881CC5CD140CA53DE4F6D
:103290008881C65CD140C953DE4F9881C75CD1405C
:1032A0000E94933020934013309341134093421374
:1032B00050934313609344137093451380934613C4
:1032C000909347130FCD8FE999E00E9487062091D4
:1032D00048133091491340914A1350914B13609118
:1032E0004C1370914D1380914E1390914F130E9487
:1032F000020B82EB99E00E94790687EC99E00E942C
:1033000079060E94EB0410927E1110927D11C20189
:103310000E94E406F201F081C854DE4FF883C85BD6
:10332000D140D2011196BC91C654DE4FB883CA5B1E
:10333000D140F2012280338064807580868097803E
:10334000C854DE4F2881C85BD1403B2FA101B30197
:10335000C401A0E00E94BA3009F00CF4C3CC50E4E0
:10336000A52E62E4B62E7FE0C72ED12CE12CF12CE5
:1033700000E010E02091E3103091E4104091E5105E
:103380005091E6106091E7107091E8108091E9107B
:103390009091EA100E94732FA0900002B090010259
:1033A000C0900202D0900302E0900402F090050267
:1033B00000910602109107020E94C52FCE53DE4FE6
:1033C0002883C25CD140C853DE4F3883C85CD140EB
:1033D000C753DE4F4883C95CD140C653DE4F588384
:1033E000CA5CD140C553DE4F6883CB5CD140C45327
:1033F000DE4F7883CC5CD140CA53DE4F8883C65CF5
:10340000D140C953DE4F9883C75CD140E0E4AE2E73
:10341000F2E4BF2EAFE0CA2ED12CE12CF12C00E05B
:1034200010E0C854DE4F2881C85BD140C654DE4F3F
:103430003881CA5BD140A101B301C4010E94732F3E
:1034400059016A017B018C01CE53DE4F2881C25C99
:10345000D140C853DE4F3881C85CD140C753DE4FDE
:103460004881C95CD140C653DE4F5881CA5CD14007
:10347000C553DE4F6881CB5CD140C453DE4F7881A9
:10348000CC5CD140CA53DE4F8881C65CD140C95361
:10349000DE4F9881C75CD1400E949330209348133F
:1034A0003093491340934A1350934B1360934C133A
:1034B00070934D1380934E1390934F1313CC8DE064
:1034C0009AE00E9487066091501370915113072E65
:1034D000000C880B990B0E94880682E29AE00E94F9
:1034E00079068FE49AE00E9479060E94EB0410921C
:1034F0007E1110927D11C2010E94E4068091E110BC
:103500009091E210892B09F4EDCBD201FC91119638
:10351000EC9111971296DC9012971396EC901397FA
:103520001496FC90149715960C91159716961C916D
:1035300016971796CC902F2F277F3E2F4D2D5E2D5F
:103540006F2D702F812F9C2DA2E00E94BA3051F078
:103550002F2FA4E10E94BA3029F0A8E20E94BA30CD
:1035600009F0C0CBCF0190935013E0935113BACB25
:103570008091521390915313092E000CAA0BBB0B90
:10358000BF93AF939F938F938FEF95E09F938F930C
:103590005F924F920E94DD308DE89AE00E9487068C
:1035A000C2010E94870686E99AE00E9479068FE4AC
:1035B0009AE00E9479060E94EB0410927E1110920C
:1035C0007D11CE018C579E4F0E94E4060FB6F894F1
:1035D000DEBF0FBECDBF8091E1109091E210892B2C
:1035E00009F480CBCC57DE4FF881C458D140CB577B
:1035F000DE4FE881C558D140CA57DE4F4881C658D2
:10360000D140C957DE4F5881C758D140C857DE4F07
:103610006881C858D140C757DE4F7881C958D1401A
:103620002F2F3E2FC657DE4F8881CA58D140C5572D
:10363000DE4F9881CB58D1402F3F310541055105D0
:10364000610571058105910511F008F04BCBCF01A3
:10365000909352138093531345CB88EC9AE00E94C9
:10366000870680915413909155130E94AF068DEDFB
:103670009AE00E94790681EF9AE00E9479060E9402
:10368000EB0410927E1110927D11C2010E94E4069B
:10369000D201FC911196EC91119712964C911297D0
:1036A00013965C91139714966C91149715967C91D0
:1036B00015972F2F3E2F16968C91169717969C9143
:1036C000A0E00E94BA3029F41092551310925413BE
:1036D00009CBCF01909354138093551303CB83E60A
:1036E0009BE00E948706809156130E94AD0285E7F9
:1036F0009BE00E9479060E94DD04082E000C990BC5
:103700000E94C6308D3419F0833409F0EBCA8093DF
:103710005613E8CA80E290E0F2019183808385E944
:103720009BE00E948706809159130E94AD0280E4BD
:1037300094E00E94870680915A130E942C0684EA26
:103740009BE00E9479060E94EB04B2018BEF90E1AE
:103750000E94BC2E8C01B20190E080E00E94BC2E41
:10376000D80111962C9120935913FC0180818093EC
:103770005A13B8CA80E290E0D2018D939C938BEFEC
:103780009BE00E94870660915B1370915C138091AF
:103790005D1390915E130E94880680E494E00E947D
:1037A0008706609163137091641380916513909103
:1037B00066130E94B40683E19CE00E9479060E9491
:1037C000EB04B2018BEF90E10E94BC2E7C01B201B0
:1037D00090E080E00E94BC2E8C014AE050E070E056
:1037E00060E0C7010E94892D4B015C014AE050E076
:1037F00070E060E0C8010E94892D80925B13909276
:103800005C13A0925D13B0925E1310925F1310923E
:10381000601310926113109262138B019C016093EC
:10382000631310936413809365133093661310929F
:103830006713109268131092691310926A1352CA98
:1038400080E290E0F2019183808382E89CE00E9414
:103850008706809157130E94AD0280E494E00E9495
:103860008706809158130E942C0680E99CE00E94F4
:1038700079060E94EB04B2018BEF90E10E94BC2E0E
:10388000DC0111968C91082E000C990B0E94C63019
:103890008C01B20190E080E00E94BC2EFC0180818E
:1038A000082E000C990B0E94C6300235110519F044
:1038B0000634110511F4009357138235910521F058
:1038C0008634910509F00ECA809358130BCA80E222
:1038D00090E0D2018D939C938CEF9CE00E94870630
:1038E00060916B1370916C1380916D1390916E13B6
:1038F0000E94880680E494E00E948706609173131A
:103900007091741380917513909176130E94B40690
:103910008BE09DE00E9479060E94EB04B2018BEFE0
:1039200090E10E94BC2E7C01B20190E080E00E94F8
:10393000BC2E8C014AE050E070E060E0C7010E94BC
:10394000892D4B015C014AE050E070E060E0C80165
:103950000E94892D80926B1390926C13A0926D132C
:10396000B0926E1310926F13109270131092711325
:10397000109272138B019C01609373131093741354
:1039800080937513309376131092771310927813F7
:103990001092791310927A13A5C980E290E0F20197
:1039A0009183808381E89DE00E94870660917B136C
:1039B00070917C1380917D1390917E130E948806F4
:1039C00080E494E00E9487066091831370918413D1
:1039D00080918513909186130E94B4068DE89DE036
:1039E0000E9479060E94EB04B2018BEF90E10E94E5
:1039F000BC2E7C01B20190E080E00E94BC2E8C01C4
:103A00004AE050E070E060E0C7010E94892D4B0160
:103A10005C014AE050E070E060E0C8010E94892D3E
:103A200080927B1390927C13A0927D13B0927E13B0
:103A300010927F13109280131092811310928213B0
:103A40008B019C01609383131093841380938513DF
:103A50003093861310928713109288131092891353
:103A600010928A133FC980E290E0D2018D939C931B
:103A70008EEF9DE00E94870660918B1370918C13EE
:103A800080918D1390918E130E94880680E494E0BB
:103A90000E948706609193137091941380919513FF
:103AA000909196130E94B40686E09EE00E947906EB
:103AB0000E94EB04B2018BEF90E10E94BC2E7C01CE
:103AC000B20190E080E00E94BC2E8C014AE050E000
:103AD00070E060E0C7010E94892D4B015C014AE063
:103AE00050E070E060E0C8010E94892D80928B1345
:103AF00090928C13A0928D13B0928E1310928F130C
:103B00001092901310929113109292138B019C01BA
:103B1000609393131093941380939513309396139B
:103B200010929713109298131092991310929A135F
:103B3000D9C88AE0898341E150E06CE072E0CE01AF
:103B400002960E94CE3084E48B8B41E150E068EA1B
:103B500070E1CE0144960E94CE301DA21EA280E8E4
:103B60008FA386E988A788E989A71AA61BA61CA6A1
:103B70001DA61EA61FA681EE88AB85EF89AB85E04A
:103B80008AAB1BAA1CAA1DAA1EAA84E190E098AFCA
:103B90008FAB85E090E09AAF89AF1CAE1BAE8DE491
:103BA0008DAF81E421968FAF219782E422968FAF6B
:103BB000229723961FAE239724961FAE249725960F
:103BC0001FAE259726961FAE269727961FAE2797DE
:103BD00028961FAE289729961FAE29972A961FAEC2
:103BE0002A972B961FAE2B972C961FAE2C972D96AF
:103BF0001FAE2D972E961FAE2E972F961FAE2F9786
:103C000060961FAE609761961FAE619762961FAE79
:103C1000629782E58EAF8FAF94EC63969FAF639708
:103C200089E064968FAF649765961FAE6597669638
:103C30001FAE669767961FAE679768961FAE689728
:103C400069961FAE69976A961FAE6A976B969FAF8B
:103C50006B976C968FAF6C976D961FAE6D976E9647
:103C60001FAE6E976F961FAE6F97A0961FAEA09770
:103C7000A1961FAEA197A2961FAEA297A3961FAEC4
:103C8000A397A4961FAEA497A5961FAEA597A69638
:103C90001FAEA697A7961FAEA797A8961FAEA89788
:103CA000A9961FAEA997AA961FAEAA97AB961FAE6C
:103CB000AB97AC961FAEAC97AD961FAEAD97AE96D8
:103CC0001FAEAE97AF961FAEAF97E0961FAEE097D0
:103CD000E1961FAEE197E2961FAEE297E3961FAE24
:103CE000E397E4961FAEE497E5961FAEE597E69658
:103CF0001FAEE697E7961FAEE797E8961FAEE897E8
:103D0000E9961FAEE997EA961FAEEA97EB961FAECB
:103D1000EB97EC961FAEEC97ED961FAEED97EE96F7
:103D20001FAEEE97EF961FAEEF97C158DF4F188288
:103D3000CF57D040C058DF4F1882C058D040CF571F
:103D4000DF4F1882C158D04081E8FE013196AAE1C8
:103D5000B3E101900D928A95E1F70C94721683E716
:103D60009EE00E9479066AE173E190E080E00E94A3
:103D7000A50B80E99EE00E947906A0904013B090C8
:103D80004113C0904213D0904313E0904413F0903D
:103D90004513009146131091471320E030E145EAA6
:103DA00054ED68EE70E080E090E00E94C52F209313
:103DB000BB103093BC104093BD105093BE10609365
:103DC000BF107093C0108093C1109093C210809167
:103DD00048138093C510809149138093C610809139
:103DE0004A138093C71080914B138093C810809121
:103DF0004C138093C91080914D138093CA10809109
:103E00004E138093CB1080914F138093CC10E09190
:103E10005013F0915113C854DE4FF983E883C85B07
:103E2000D140F093BA10E093B9108091541390915F
:103E300055139093C4108093C31009E513E1C65441
:103E4000DE4F19830883CA5BD1402BE5622E23E144
:103E5000722E31E7832E32E1932E4EE1242E42E181
:103E6000342ED4011C9211961C92119712961C921A
:103E7000129713961C92139714961C9214971596EA
:103E80001C92159716961C92169717961C929EE7F1
:103E9000A92ECF52DE4FE881F981C15DD140AE9E9F
:103EA000D001AF9EB00D1124A25EBD4EFD013B9628
:103EB0001B961C9211821282138214821582168222
:103EC0001782D1019B961C929B979C961C929C9763
:103ED0009D961C929D979E961C929E979F961C92D3
:103EE0009F97D0961C92D097D1961C92D197D2963C
:103EF0001C92D297DB961C92F101FB9611821282E2
:103F000013821482158216821782C654DE4FE8810E
:103F1000F981CA5BD1408191C654DE4FF983E883B1
:103F2000CA5BD140D40198968C939897F301208175
:103F30003181428153816481758186819781F8E066
:103F40006F0E711C18962C93189719963C9319971D
:103F50001A964C931A971B965C931B971C966C931E
:103F60001C971D967C931D971E968C931E971F96EB
:103F70009C93D3011896EC91D4015096EC93D30105
:103F80001996EC91D4015196EC93D3011A96EC91C9
:103F9000D4015296EC93D3011B96EC91D401539625
:103FA000EC93D3011C96EC91D4015496EC93D3017D
:103FB0001D96EC91D4015596EC93D3011E96EC918D
:103FC000D4015696EC93D3011F96EC91D4015796E9
:103FD000EC93D3015896EC91D4015896EC93D3010D
:103FE0005996EC91D4015996EC93D3015A96EC91E1
:103FF000D4015A96EC93D3015B96EC91D4015B9675
:10400000EC93D3015C96EC91D4015C96EC93D301D4
:104010005D96EC91D4015D96EC93D3015E96EC91A4
:10402000D4015E96EC93D3015F96EC91D4015F9638
:10403000EC935F97F301A0A4B1A4C2A4D3A4E4A419
:10404000F5A406A517A50E94933090962C939097FF
:1040500091963C93919792964C93929793965C93FA
:10406000939794966C93949795967C939597969640
:104070008C93969797969C9360E0D1018C910E94C7
:104080008F0365E070E080E090E00E94290461E029
:10409000F10180810E948F0365E070E080E090E094
:1040A0000E942904C854DE4F08811981C85BD140A1
:1040B0000A30110509F449C0ACF50230110509F4C4
:1040C00052C0C952DE4F8881C75DD1408160D401A2
:1040D0009A968C9311E050C086E392E00E94790694
:1040E0008BEA9EE00E94790610E000E06FEFC801C5
:1040F0000E94F12E0F5F1F4F0115B0E11B07B1F7B2
:104100008AED9EE038CE84EE9EE00E9479060C9403
:10411000721621E030E0CF52DE4F39832883C15D33
:10412000D1409FCEC854DE4F28813981C85BD14031
:104130002431310589F02832310519F650ECC95285
:10414000DE4F5883C75DD140BCCF30E4C952DE4F4B
:104150003883C75DD140B5CF40E8C952DE4F4883B0
:10416000C75DD140AECFC952DE4F1882C75DD14086
:10417000A8CF112339F010E082E10E946703892B58
:10418000C1F3A8CFF40142A561E0C1010E94660419
:1041900044E063E0C1010E9466044091521366E06E
:1041A000C1010E94660440E067E0C1010E9466040C
:1041B000D10112968C91803309F062C0809157131F
:1041C00048E0863409F040E04368F40141A760E02C
:1041D000C1010E946604FEE72F0E311C0EE7800E1F
:1041E000911CCF52DE4F28813981C15DD1402130F1
:1041F000310509F08ECF809156138D3409F02BC60E
:1042000060ED77E080E090E00E94290461E08EE3B9
:104210000E94BC0360E08EE30E948F0368EE73E0AF
:1042200080E090E00E94290482E10E94670321E07F
:10423000892B09F420E002E010E0E22EF12C8FE05F
:10424000C82ED12C82E10E9467038E159F05F1F4E0
:10425000C6010197F1F703331105A4F70F5F1F4F54
:104260000233110579F786E392E00E94790686E32E
:1042700092E00E94790688EE9EE00E947906E2CFE5
:10428000813309F0A0CF809158139ACF61E08EE37B
:104290000E948F038EE30E946703892BD9F310924B
:1042A000D5101092D6101092D7101092D8101092EC
:1042B000D9101092DA101092DB101092DC1042E04C
:1042C00062E771E082E10E942C0543E066E971E05B
:1042D00082E00E942C0543E061EB71E083E00E94E4
:1042E0002C0560E08EE30E948F0360E08EE30E9465
:1042F000BC0386E392E00E94790686E392E00E9486
:10430000790680913E13823009F4CAC508F0B0C521
:10431000882309F4B5C5813009F4BFC5809108012F
:104320008F7B80930801809108018F7E8093080124
:10433000809108018F7780930801809108018F7D1B
:104340008093080180910801877F80930801AE0166
:104350004C575E4FCC54DE4F59834883C45BD140E9
:10436000BE0164567E4FCA54DE4F79836883C65BB4
:10437000D14081E891E10E940802839711F40C94E6
:10438000D22C0E9404040091DD101091DE102091C7
:10439000DF103091E010601B710B820B930B6B3FB1
:1043A00071058105910508F453C00E9404046093CF
:1043B000DD107093DE108093DF109093E010209159
:1043C000D5103091D6104091D7105091D8106091EF
:1043D000D9107091DA108091DB109091DC10A090D0
:1043E000CD10B090CE10C090CF10D090D010E090F3
:1043F000D110F090D2100091D3101091D4100E94DF
:10440000B13009F453C58091080188608093080198
:104410007091D5106091D6105091D7104091D8105E
:104420003091D9102091DA109091DB108091DC103E
:104430007093CD106093CE105093CF104093D01056
:104440003093D1102093D2109093D3108093D41036
:1044500019E6812E12E1912E0EE1202E02E1302E7E
:10446000CF52DE4F19821882C15DD140D10115961D
:104470008C910E946703892B09F0D4C4CF52DE4F80
:10448000E881F981C15DD14080910801EF2B09F0ED
:1044900013C5806480930801809108018061809336
:1044A0000801D1019B968C919B97D3968C93D397BF
:1044B0009C968C919C97D4968C93D4979D968C9136
:1044C0009D97D5968C93D5979E968C919E97D696D0
:1044D0008C93D6979F968C919F97D7968C93D797CE
:1044E000D0968C91D097D8968C93D897D1968C9162
:1044F000D197D9968C93D997D2968C91D297DA96F8
:104500008C933101BBE36B0E711CF10173ADD301D0
:1045100011966C91119712965C91129713964C918B
:10452000139714963C91149715962C9115971696FF
:104530009C91169717968C91ED5BFF4FC854DE4FF8
:10454000F983E883C85BD1407083618352834383DE
:10455000348325839683878360E1C1010E94AC0484
:10456000D10153966D937D938D939C93569762E101
:10457000C1010E94AC04F101678B708F818F928F13
:1045800061E1C1010E94AC04D1015F966D937D93FE
:104590008D939C9392976BE1C1010E94AC04F10151
:1045A00063A374A385A396A36CE1C1010E94AC042C
:1045B000CE53DE4F688379838A839B83C25CD1406C
:1045C000D10197966D937D938D939C939A97B0911B
:1045D000BB10C853DE4FB883C85CD140E091BC101B
:1045E000C753DE4FE883C95CD140F091BD10C6537C
:1045F000DE4FF883CA5CD140A090BE10C553DE4F99
:10460000A882CB5CD140B090BF10C453DE4FB882BB
:10461000CC5CD140C090C010CA53DE4FC882C65C8B
:10462000D140D090C110C953DE4FD882C75CD14071
:10463000E090C210C353DE4FE882CD5CD140F1015F
:10464000878D90A1A1A1B2A15C016D01E12CF12C9B
:104650008701C654DE4F8883CA5BD140C554DE4F04
:10466000B882CB5BD140C454DE4FA883CC5BD14031
:10467000C354DE4FD882CD5BD140C254DE4FE882B6
:10468000CE5BD140C154DE4FF882CF5BD140C054E5
:10469000DE4F0883C05CD140CF53DE4F1883C15C2E
:1046A000D140C853DE4FA880C85CD140C753DE4F0D
:1046B000B880C95CD140C653DE4FC880CA5CD140C7
:1046C000C553DE4FD880CB5CD140C453DE4FE88069
:1046D000CC5CD140CA53DE4FF880C65CD140C95390
:1046E000DE4F0881C75CD140C353DE4F1881CD5CDB
:1046F000D140C654DE4F2881CA5BD140C554DE4F3D
:104700003881CB5BD140C454DE4F4881CC5BD14073
:10471000C354DE4F5881CD5BD14060E070E080E053
:1047200090E00E94732FD4019896AC909897999638
:10473000BC9099979A96CC909A979B96DC909B9771
:104740009C96EC909C979D96FC909D979E960C91C4
:104750009E979F961C919F970E94A830C253DE4F50
:104760002883CE5CD140C153DE4F3883CF5CD1402B
:10477000C053DE4F4883C05DD140CD52DE4F5883D9
:10478000C35DD140C852DE4F6883C85DD140C75277
:10479000DE4F7883C95DD140C652DE4F8883CA5D43
:1047A000D140C552DE4F9883CB5DD14020E432E446
:1047B0004FE050E060E070E080E090E05896AC9010
:1047C00058975996BC9059975A96CC905A975B96A1
:1047D000DC905B975C96EC905C975D96FC905D97A7
:1047E0005E960C915E975F961C910E94A830D10155
:1047F0009396AD90BD90CD90DC909697CE53DE4FC2
:10480000E880F9800A811B81C25CD140EA18FB086C
:104810000C091D09670156016801E12CF12C870183
:10482000C654DE4FA882CA5BD140C554DE4FB88261
:10483000CB5BD140C454DE4FC882CC5BD140C35463
:10484000DE4FD882CD5BD140C254DE4FE882CE5BD2
:10485000D140C154DE4FF882CF5BD140C054DE4F0F
:104860000883C05CD140CF53DE4F1883C15CD14078
:10487000E12CF12C00E010E00E94732FE091B910C0
:10488000F091BA1031971F2F110F110B5F01C12E3C
:10489000D12EE12EF12E012F0E94C52FCE53DE4FD7
:1048A0002883C25CD140C452DE4F3883CC5DD140F6
:1048B000C352DE4F4883CD5DD140C252DE4F588394
:1048C000CE5DD140CF51DE4F6883C15ED140CE5125
:1048D000DE4F7883C25ED140CD51DE4F8883C35E08
:1048E000D140CC51DE4F9883C45ED140D401909624
:1048F0001C9190979196BC91F40102A1F3A064A140
:1049000075A1212F3B2F402F5F2D86A197A1A0E0FD
:104910000E94BA3069F02B2FD10157961C935797FC
:1049200058962C93589759960C9359975A96FC92EF
:10493000F10183899489A589B6895C016D01278974
:10494000308D418D528DBA01AB0160E070E0CB013A
:10495000C654DE4F2883CA5BD140C554DE4F38832E
:10496000CB5BD140C454DE4F4883CC5BD140C354B1
:10497000DE4F5883CD5BD140C254DE4F6883CE5B9F
:10498000D140C154DE4F7883CF5BD140C054DE4F5D
:104990008883C05CD140CF53DE4F9883C15CD14047
:1049A0009501A60160E070E080E090E0C654DE4F23
:1049B000A880CA5BD140C554DE4FB880CB5BD140E4
:1049C000C454DE4FC880CC5BD140C354DE4FD88086
:1049D000CD5BD140E12CF12C00E010E00E94A8302A
:1049E000C654DE4F2883CA5BD140CB51DE4F38839B
:1049F000C55ED140CA51DE4F4883C65ED140C95121
:104A0000DE4F5883C75ED140C851DE4F6883C85E11
:104A1000D140C751DE4F7883C95ED140C651DE4FC9
:104A20008883CA5ED140C551DE4F9883CB5ED140AA
:104A3000A12C80E1B82E95EAC92E24EDD22E38EEB5
:104A4000E32EC853DE4F2881C85CD140C753DE4FE8
:104A50003881C95CD140C653DE4F4881CA5CD14021
:104A6000C553DE4F5881CB5CD140C453DE4F6881C3
:104A7000CC5CD140CA53DE4F7881C65CD140C9536B
:104A8000DE4F8881C75CD140C353DE4F9881CD5C37
:104A9000D1400E94732FCE53DE4FA880C25CD1401C
:104AA000C452DE4FB880CC5DD140C352DE4FC880C7
:104AB000CD5DD140C252DE4FD880CE5DD140CF51C6
:104AC000DE4FE880C15ED140CE51DE4FF880C25E3D
:104AD000D140CD51DE4F0881C35ED140CC51DE4F75
:104AE0001881C45ED1400E94C52F59016A017B0123
:104AF0008C01C654DE4F2881CA5BD140CB51DE4FBA
:104B00003881C55ED140CA51DE4F4881C65ED14072
:104B1000C951DE4F5881C75ED140C851DE4F688110
:104B2000C85ED140C751DE4F7881C95ED140C651C1
:104B3000DE4F8881CA5ED140C551DE4F9881CB5E81
:104B4000D1400E94732FE0E4AE2EF2E4BF2EAFE01E
:104B5000CA2ED12CE12CF12C00E010E00E94C52FD0
:104B6000C253DE4FA880CE5CD140C153DE4FB88027
:104B7000CF5CD140C053DE4FC880C05DD140CD5224
:104B8000DE4FD880C35DD140C852DE4FE880C85D9B
:104B9000D140C752DE4FF880C95DD140C652DE4FCA
:104BA0000881CA5DD140C552DE4F1881CB5DD1402E
:104BB0000E949330C654DE4F2883CA5BD140CE5347
:104BC000DE4F3883C25CD140C853DE4F4883C85C97
:104BD000D140C753DE4F5883C95CD140C653DE4F26
:104BE0006883CA5CD140C553DE4F7883CB5CD1402B
:104BF000C453DE4F8883CC5CD140CA53DE4F9883C8
:104C0000C65CD140D1019B962C939B979C963C937C
:104C10009C979D964C939D979E965C939E979F968E
:104C20006C939F97D0967C93D097D1968C93D19785
:104C3000D2969C93BEE7AB2ECF52DE4FE881F9812E
:104C4000C15DD140AE9ED001AF9EB00D1124A25ED9
:104C5000BD4EFD013B961B962C91318142815381C3
:104C60006481758186819781A090C510B090C6102F
:104C7000C090C710D090C810E090C910F090CA1032
:104C80000091CB101091CC100E94732FC654DE4FB0
:104C9000A880CA5BD140CE53DE4FB880C25CD14001
:104CA000C853DE4FC880C85CD140C753DE4FD880A0
:104CB000C95CD140C653DE4FE880CA5CD140C553C1
:104CC000DE4FF880CB5CD140C453DE4F0881CC5C12
:104CD000D140CA53DE4F1881C65CD1400E94A83033
:104CE000D4015096AC9050975196BC9051975296E3
:104CF000CC9052975396DC9053975496EC905497DF
:104D00005596FC90559756960C91569757961C9130
:104D10000E94A830F301208331834283538364834C
:104D2000758386839783C854DE4FA881B981C85B99
:104D3000D140AC901196BC9011971296CC901297DE
:104D40001396DC9013971496EC9014971596FC909C
:104D5000159716960C91169717961C910E94A830DD
:104D6000F401208331834283538364837583868374
:104D70009783208531854285538564857585868531
:104D80009785A1E00E949C30208731874287538716
:104D9000648775878687978741A960E0C1010E9473
:104DA0006604D40118962C91189719963C9119977E
:104DB0001A964C911A971B965C911B971C966C91B6
:104DC0001C971D967C911D971E968C911E971F9681
:104DD0009C91A2E00E94BA3091F08CF080913F1338
:104DE00081110AC180913E13823009F4D9C408F0C0
:104DF0006AC0882309F416C1813009F459C4CF521E
:104E0000DE4FA880B980C15DD14080910801AB28F8
:104E100009F0DAC58F7B80930801809108018F7EAD
:104E2000809308010EE7200E311C1EE7810E911CB5
:104E3000CF52DE4F28813981C15DD140213031050B
:104E400009F497CA41E050E0CF52DE4F59834883BE
:104E5000C15DD1400BCB86E392E00E94790686E3E8
:104E600092E00E94790682E19FE00E94790612CAD0
:104E70008330C9F0843009F051CA88ED9FE00AC040
:104E80008BE39FE00E9487068BE090E00E94AF06D4
:104E900086E59FE00E94790641CA87E69FE0F2CF4F
:104EA0008BE89FE0EFCF83EA9FE0ECCF8091080191
:104EB000877F80930801CCCA806880930801809125
:104EC00008018062ECCA843009F489C408F097CFE5
:104ED000D0905912E0905A12F0905B1200915C123F
:104EE00010915D12B0915E12F0915F12E09160122C
:104EF0002D2D3E2D4F2D502F612F7B2F8F2F9E2F2D
:104F0000A1E00E94BA3009F00CF479CF2091D712B9
:104F10003091D8124091D9125091DA126091DB127F
:104F20007091DC128091DD129091DE120E94BA30F5
:104F300009F00CF464CF2D2D3E2D4F2D502F612FF5
:104F40007B2F8F2F9E2F0E94B9098CE897E00E943B
:104F50008706809199120E942C062091D7123091D9
:104F6000D8124091D9125091DA126091DB127091EF
:104F7000DC128091DD129091DE120E94B9098CE85A
:104F800097E00E948706809117130E942C06A12C9F
:104F900090E1B92E25EAC22E34EDD32E48EEE42E50
:104FA000F12C00E010E02091EF123091F0124091CE
:104FB000F1125091F2126091F3127091F4128091FB
:104FC000F5129091F6128FD7AAE00E949C300E94B1
:104FD000B90984E290E10E948706809117130E942C
:104FE000AD0287E392E00E948706809199120E94A9
:104FF000AD028EE594E0B1C381E891E10E942A02FE
:10500000181619060CF0FBCE81E891E10E94080207
:1050100020913F13022E000C330B8217930709F0E7
:10502000EECEE0CE8091C3109091C4105C01990F38
:10503000CC08DD08CD52DE4FA882B982CA82DB825D
:10504000C35DD140D301BC91C854DE4FB883C85B67
:10505000D140F301F181C654DE4FF883CA5BD140E1
:10506000D3011296BC91CE53DE4FB883C25CD140BF
:10507000F301F381C853DE4FF883C85CD140D301FC
:105080001496BC91C753DE4FB883C95CD140F3017D
:10509000F581C653DE4FF883CA5CD140D301169622
:1050A000BC91C553DE4FB883CB5CD140F301F7818F
:1050B000C453DE4FF883CC5CD140C854DE4F288106
:1050C000C85BD140C654DE4F3881CA5BD140CE5355
:1050D000DE4F4881C25CD140C853DE4F5881C85C66
:1050E000D140C753DE4F6881C95CD140C653DE4F03
:1050F0007881CA5CD1408B2F9F2FA12C2F3F0FE0CE
:10510000300705EA400704ED500708EE6007710517
:105110008105910509F00CF446C2E0E1BE2EF5EAE6
:10512000CF2EA4EDDA2EB8EEEB2EF12C00E010E03D
:105130002CD7CA53DE4F2883C65CD140C953DE4FFB
:105140003883C75CD1403A01C353DE4F6883CD5CDE
:10515000D140C253DE4F7883CE5CD140C153DE4F85
:105160008883CF5CD140C053DE4F9883C05DD1406F
:10517000CD52DE4F288139814A815B81C35DD140A8
:10518000232B242B252B09F043C2C053DE4F38813B
:10519000C05DD1403F93C153DE4F4881CF5CD140C9
:1051A0004F93C253DE4F5881CE5CD1405F93C353BF
:1051B000DE4F6881CD5CD1406F937F926F92C9536F
:1051C000DE4F7881C75CD1407F93CA53DE4F888120
:1051D000C65CD1408F93A9E3B2E0BF93AF93C954AB
:1051E000DE4FF881C75BD140FF93CA54DE4FA880E1
:1051F000C65BD140AF92E1D7CE0184569E4F0E944C
:1052000087060FB6F894DEBF0FBECDBFA12CE0E13C
:10521000BE2EF5EACF2EA4EDDA2EB8EEEB2EF12C51
:1052200000E010E0CA53DE4F2881C65CD140C9536C
:10523000DE4F3881C75CD140A301C353DE4F688184
:10524000CD5CD140C253DE4F7881CE5CD140C1539A
:10525000DE4F8881CF5CD140C053DE4F9881C05D66
:10526000D14041D659016A017B018C01C854DE4FFF
:105270002881C85BD140C654DE4F3881CA5BD1401B
:10528000CE53DE4F4881C25CD140C853DE4F5881B7
:10529000C85CD140C753DE4F6881C95CD140C6535A
:1052A000DE4F7881CA5CD140C553DE4F8881CB5C2C
:1052B000D140C453DE4F9881CC5CD14049D7CA530A
:1052C000DE4F2883C65CD140C953DE4F3883C75CAC
:1052D000D1403A01C353DE4F6883CD5CD140C25305
:1052E000DE4F7883CE5CD140C153DE4F8883CF5CE4
:1052F000D140C053DE4F9883C05DD140A0E03AD783
:1053000004F5CAD6CA53DE4F2883C65CD140C953C0
:10531000DE4F3883C75CD1403A01C353DE4F688308
:10532000CD5CD140C253DE4F7883CE5CD140C153B7
:10533000DE4F8883CF5CD140C053DE4F9883C05D81
:10534000D14050E4A52E62E4B62E7FE0C72ED12CCA
:10535000E12CF12C00E010E0CA53DE4F2881C65C3E
:10536000D140C953DE4F3881C75CD140A301C3533C
:10537000DE4F6881CD5CD140C253DE4F7881CE5C78
:10538000D140C153DE4F8881CF5CD140C053DE4F46
:105390009881C05DD140F9D5CD52DE4F2883C35DE1
:1053A000D140C852DE4F3883C85DD140C752DE4F6E
:1053B0004883C95DD140C652DE4F5883CA5DD14093
:1053C000C552DE4F6883CB5DD140C452DE4F788337
:1053D000CC5DD140C352DE4F8883CD5DD140C252F7
:1053E000DE4F9883CE5DD140CA53DE4F2881C65C24
:1053F000D140C953DE4F3881C75CD140A301C353AC
:10540000DE4F6881CD5CD140C253DE4F7881CE5CE7
:10541000D140C153DE4F8881CF5CD140C053DE4FB5
:105420009881C05DD140AFD5122F032FF42EE52E09
:10543000D62EC72EB82EA92EC854DE4F2881C85BA1
:10544000D140C654DE4F3881CA5BD140CE53DE4FC7
:105450004881C25CD140C853DE4F5881C85CD140FE
:10546000C753DE4F6881C95CD140C653DE4F788197
:10547000CA5CD140C553DE4F8881CB5CD140C45358
:10548000DE4F9881CC5CD140A0E074D624F487E351
:1054900092E00E948706C252DE4F2881CE5DD14045
:1054A0002F93C352DE4F3881CD5DD1403F93C4521C
:1054B000DE4F4881CC5DD1404F93C552DE4F5881BD
:1054C000CB5DD1405F93C652DE4F6881CA5DD1404B
:1054D0006F93C752DE4F7881C95DD1407F93C85228
:1054E000DE4F8881C85DD1408F93CD52DE4F9881C9
:1054F000C35DD1409F93AEE3B2E0BF93AF93CB5473
:10550000DE4FF881C55BD140FF93CC54DE4F28813C
:10551000C45BD1402F9351D6AF92BF92CF92DF920E
:10552000EF92FF920F931F934EE352E05F934F93DE
:105530005F924F9242D65F924F92CB54DE4F78816A
:10554000C55BD1407F93CC54DE4F8881C45BD14092
:105550008F93A4E4B2E0BF93AF93C954DE4FF881B8
:10556000C75BD140FF93CA54DE4FA880C65BD140D1
:10557000AF9223D6C955DE4F1882C75AD1400FB615
:10558000F894DEBF0FBECDBFCE0184569E4F0E9461
:10559000870686E190E10E948706D401D0968C911F
:1055A0000E942C062CCC00EFB02E8AE5C82E9BE280
:1055B000D92E27E1E22EFF24FA940FEF1FEFC854F3
:1055C000DE4F2881C85BD140C654DE4F3881CA5BAC
:1055D000D140CE53DE4F4881C25CD140C853DE4F2C
:1055E0005881C85CD140C753DE4F6881C95CD14047
:1055F000C653DE4F7881CA5CD140C553DE4F8881E7
:10560000CB5CD140C453DE4F9881CC5CD14090CD6F
:10561000C053DE4F1881C05DD1401F93C153DE4F90
:105620002881CF5CD1402F93C253DE4F3881CE5CAE
:10563000D1403F93C353DE4F4881CD5CD1404F935F
:105640007F926F92C953DE4F5881C75CD1405F9300
:10565000CA53DE4F6881C65CD1406F938DE090E104
:105660009F938F93C954DE4FB881C75BD140BF93DE
:10567000CA54DE4FE881C65BD140EF939ED58AE0E5
:1056800090E0A0E0B0E0CD52DE4FA880B980CA80A3
:10569000DB80C35DD1408A199B09AC09BD091CE9B7
:1056A000C12EDD24D394CC0EDD1E8C0D9D1DA7CD07
:1056B000A0905912B0905A12C0905B12D0905C1218
:1056C000E0905D12F0905E1200915F1210916012F6
:1056D0009501A601B701C801A1E04CD509F00CF471
:1056E0008ECBB091D712C854DE4FB883C85BD1407F
:1056F0006090D8127090D912E091DA12C654DE4F41
:10570000E883CA5BD140F091DB12CE53DE4FF883C1
:10571000C25CD140B091DC12F091DD12E091DE125A
:10572000C854DE4F2881C85BD140362D472DC65462
:10573000DE4F5881CA5BD140CE53DE4F6881C25CD8
:10574000D1407B2F8F2F9E2F15D509F00CF457CB0E
:10575000FFD40E94B9098AE190E10E947906109273
:10576000591210925A1210925B1210925C121092FF
:105770005D1210925E1210925F12109260121092DF
:10578000D7121092D8121092D9121092DA121092E7
:10579000DB121092DC121092DD121092DE122FCB6F
:1057A000D4012C9111963C91119712964C9112971D
:1057B00013965C91139714966C91149715967C919F
:1057C000159716968C91169717969C910E94B90979
:1057D00086E190E10E948706F40180A9E1CED10123
:1057E00056968C9156978F9355968C9155978F938B
:1057F00054968C9154978F9353968C918F93EAE2A1
:10580000F0E1FF93EF935F924F92D7D4C2010E94D1
:105810008706D1015A968C915A978F9359968C91FD
:1058200059978F9358968C9158978F9357968C9140
:105830008F93EAE2F0E1FF93EF935F924F92BDD432
:10584000C2010E948706D10192968C9192978F9304
:1058500091968C9191978F9390968C9190978F932E
:105860005F968C918F93EAE2F0E1FF93EF935F9262
:105870004F92A3D4C2010E948706D10196968C91C3
:1058800096978F9395968C9195978F9394968C91EC
:1058900094978F9393968C918F93EAE2F0E1FF9324
:1058A000EF935F924F9289D40FB6F894DEBF0FBE8C
:1058B000CDBFC2010E948706D1019A968C919A971A
:1058C0008F9399968C9199978F9398968C9198979E
:1058D0008F9397968C918F93EAE2F0E1FF93EF9389
:1058E0005F924F926AD4C2010E9487068EE7E82E2B
:1058F000CF52DE4FC880D980C15DD140EC9CD00131
:10590000ED9CB00D1124A25EBD4EFD013B961B9691
:105910005C91418132812381848185818681878167
:10592000652F742F832F922F0E9488068CE897E0B2
:105930000E948706D1019B962C919B979C963C9147
:105940009C979D964C919D979E965C919E979F9655
:105950006C919F97D0967C91D097D1968C91D1974E
:10596000D2969C910E94B9098CE897E00E94870624
:10597000F301208131814281538164817581868167
:1059800097810E94B90986E190E10E948706D401BF
:10599000D0968C910E942C060FB6F894DEBF0FBEF5
:1059A000CDBF2DCA0E94290680E390E10E947906AE
:1059B0000E94290664E670E080E090E00E942904DD
:1059C0000E94D0020C947E108F7780930801809102
:1059D00008018F7D25CA8F929F92AF92BF92CF927E
:1059E000DF92EF92FF92CF93DF93EC016881798190
:1059F0008A819B81611571058105910521F464E21D
:105A000079ED8BE597E02DE133EF41E050E028D2CE
:105A100049015A019B01AC01A7EAB1E43DD26B01F7
:105A20007C01ACEEB4EFA501940142D2C60ED71EA4
:105A3000E81EF91EF7FE06C081E0C81AD108E10889
:105A400080E8F80AC882D982EA82FB82C701B601DF
:105A50009F77DF91CF91FF90EF90DF90CF90BF9035
:105A6000AF909F908F9008958F929F92AF92BF9228
:105A7000CF92DF92EF92FF9260910802709109023B
:105A800080910A0290910B026115710581059105C3
:105A900021F464E279ED8BE597E02DE133EF41E00D
:105AA00050E0DED149015A019B01AC01A7EAB1E403
:105AB000F3D16B017C01ACEEB4EFA5019401F8D1F8
:105AC000C60ED71EE81EF91EF7FE06C081E0C81AF2
:105AD000D108E10880E8F80AC0920802D0920902D1
