:1000000053C100000C94940C0C94690C0C943E0C9D
:100010000C94130C0C94E80B0C94BD0B0C94920BE9
:100020000C94670B0C94F20A0C94830A0C940D0A3E
:100030006CC100006AC1000068C1000066C1000018
:1000400064C1000062C1000060C100005EC1000028
:100050005CC100005AC1000058C10000C7C40000C4
:1000600054C100007EC3000053C300004EC1000015
:100070004CC100004AC1000048C1000046C1000058
:1000800044C1000042C1000040C100003EC1000068
:100090003CC100003AC1000038C1000036C1000078
:1000A00034C1000032C1000030C100002EC1000088
:1000B0002CC100002AC1000028C1000026C1000098
:1000C00024C1000022C1000020C100001EC10000A8
:1000D0001CC100001AC1000018C1000016C10000B8
:1000E00014C10000A71A271DE01C791DCC1D27197B
:1000F000321F321F321F321FD618321F321FF71B1A
:10010000321F3D1E4519501C321F321F0E1F191F72
:10011000C51C371FC302C602B502B902BF02FD02E9
:10012000CA02CE02D402D802DC02E202E602EA02ED
:10013000FD02F002F402F802000021002400270072
:100140002A002D00300033000101000004010701E6
:100150000A010102102020080810204010204080D1
:10016000020102010804020101020408102040807B
:100170008040201008040201800402018040201009
:100180000804020108040201010204081020408052
:100190000102040810204080050505050705080830
:1001A0000808020202020A0A080804040404010101
:1001B0000101010101010303030303030303040716
:1001C00007070C0C0C0C0C0C0C0C020202020606AD
:1001D0000606060606060B0B0B0B0B0B0B0B0001A2
:1001E00004050503030405060405060701000100D4
:1001F00003020100000102030405060707060504C7
:1002000003020100070201000706050403020100C2
:1002100003020100000102030405060700010203B6
:100220000405060702030405060607000022002550
:100230000028002B002E00310034000201000005D0
:100240000108010B01000020002300260029002CDA
:10025000002F003200000100000301060109010027
:10026000000A0B02090C0D0E080703040100000030
:10027000000000000000000000000000000000007E
:10028000000000000000000000000012111000003B
:10029000000000000000000000000000000000005E
:1002A000000000000000D32911241FBECFEFD1E2CF
:1002B000DEBFCDBF00E00CBF20E1AAEABDE001C077
:1002C0001D92A33DB207E1F71DE0A0E0B2E0E6E534
:1002D000FFE500E00BBF02C007900D92AA3AB107FC
:1002E000D9F711E0C4E5D1E000E006C0219701098B
:1002F000802FFE010E947D2AC335D10780E00807C8
:10030000A9F70E9408120C94A92F7ACECF92DF92FF
:10031000EF92FF920F931F93CF93DF936C017A01BB
:100320008B01C0E0D0E0CE15DF0589F0D8016D91DA
:100330008D01D601ED91FC910190F081E02DC60177
:100340001995892B11F47E0102C02196ECCFC701CB
:10035000DF91CF911F910F91FF90EF90DF90CF90A1
:100360000895FC01918D828D981761F0828DDF01D7
:10037000A80FB11D5D968C91928D9F5F9F73928F98
:1003800090E008958FEF9FEF0895FC01918D828D8D
:10039000981731F0828DE80FF11D858D90E008955A
:1003A0008FEF9FEF0895FC01918D228D892F90E0B2
:1003B000805C9F4F821B91098F73992708958FEC62
:1003C0009EE0F1DF21E0892B09F420E0822F0895DF
:1003D000FC01848DDF01A80FB11DA35ABF4F2C91E2
:1003E000848D90E001968F739927848FA689B789B1
:1003F0002C93A089B1898C9180648C93938D848D8A
:10040000981306C00288F389E02D80818F7D808358
:100410000895EF92FF920F931F93CF93DF93EC0118
:1004200081E0888F9B8D8C8D981305C0E889F989B0
:10043000808185FD23C0F62E0B8D10E00F5F1F4FCE
:100440000F731127E02E8C8DE8120BC00FB607FC3E
:10045000FACFE889F989808185FFF5CFCE01B8DF31
:10046000F2CF8B8DFE01E80FF11DE35AFF4FF082B2
:100470000B8FEA89FB898081806207C0EE89FF8942
:100480006083E889F98980818064808381E090E0DD
:10049000DF91CF911F910F91FF90EF900895CF932F
:1004A000DF93EC01888D8823C1F0EA89FB89808184
:1004B00085FD05C0A889B9898C9186FD0EC00FB64F
:1004C00007FCF5CF808185FFF2CFA889B9898C918F
:1004D00085FFEDCFCE017CDFE8CFDF91CF9108958E
:1004E00080E090E0892B19F06ADF811125C080E05F
:1004F00090E0892B41F080E090E0892B21F00E9470
:10050000000081111CC080E090E0892B41F080E068
:1005100090E0892B21F00E940000811113C080E03F
:1005200090E0892BA1F080E090E0892B81F00E947F
:10053000000081110AC008950E940000D8CF0E94D7
:100540000000E1CF0E940000EACF0C940000089563
:1005500090E0FC013197E231F10508F04EC08827A8
:10056000E657FF4F8F4F0C947D2A809180008F7744
:1005700003C0809180008F7D8093800008958091DA
:100580008000877FF9CF84B58F7702C084B58F7DD7
:1005900084BD08958091B0008F7703C08091B00032
:1005A0008F7D8093B0000895809190008F7707C071
:1005B000809190008F7D03C080919000877F809311
:1005C000900008958091A0008F7707C08091A000CF
:1005D0008F7D03C08091A000877F8093A000089545
:1005E000809120018F7707C0809120018F7D03C00B
:1005F00080912001877F8093200108958091AA0D2A
:10060000882361F09FB7F8942091AA0D8091370E4E
:10061000213019F48DBB9FBF08958FBF08958EBD03
:1006200000000DB407FEFDCF8EB508952091AA0DF0
:10063000222379F02FB7F8943091AA0D313039F494
:100640003DB33093370E3DB33DBB2FBF02C0209367
:10065000370E8CBD9DBD08957091AB0D6091AC0DB2
:100660005091AD0D4091AE0D3091AF0D2091B00D78
:100670009091B10D8091B20DECEEFFE0708361833B
:1006800052834383348325839683878308957091AF
:10069000AB0D6091AC0D5091AD0D4091AE0D309110
:1006A000AF0D2091B00D9091B10D8091B20DECE69F
:1006B000FFE073876487558746873787208B918B48
:1006C000828B08952091AB0D3091AC0D4091AD0D12
:1006D0005091AE0D6091AF0D7091B00D8091B10D44
:1006E0009091B20DA1E00E94C82B2093AB0D3093E6
:1006F000AC0D4093AD0D5093AE0D6093AF0D709364
:10070000B00D8093B10D9093B20D08950E94F22B1D
:100710001F920F920FB60F9211240BB60F922F93C8
:100720003F934F935F936F937F938F939F93AF9379
:10073000BF93EF93FF938FEC9EE04ADEFF91EF9122
:10074000BF91AF919F918F917F916F915F914F91E9
:100750003F912F910F900BBE0F900FBE0F901F90E7
:1007600018951F920F920FB60F9211240BB60F928D
:100770002F938F939F93EF93FF93E091DF0EF09170
:10078000E00E8081E091E50EF091E60E82FD12C050
:1007900090818091E80E8F5F8F732091E90E821710
:1007A00051F0E091E80EF0E0E153F14F958F809326
:1007B000E80E01C08081FF91EF919F918F912F9161
:1007C0000F900BBE0F900FBE0F901F901895CF93F8
:1007D000DF93282F30E0F901E15AFD4F8491F901B0
:1007E000EE5AFE4FD491F901E856FE4FC491CC2346
:1007F00089F08111ADDEEC2FF0E0EE0FFF1FEB5B17
:10080000FD4FA591B491EC91ED2381E090E021F4AE
:1008100080E002C080E090E0DF91CF9108951F93C7
:10082000CF93DF93282F30E0F901E15AFD4F8491F7
:10083000F901EE5AFE4FD491F901E856FE4FC491EA
:10084000CC23C1F0162F811183DEEC2FF0E0EE0FE8
:10085000FF1FE55DFD4FA591B4918FB7F89411117D
:1008600005C09C91ED2FE095E92302C0EC91ED2BA2
:10087000EC938FBFDF91CF911F910895CF93DF93BA
:1008800090E0FC01EE5AFE4F2491FC01E856FE4F29
:100890008491882361F190E0880F991FFC01E85C46
:1008A000FE4FC591D491FC01E55DFD4FA591B4913A
:1008B000611109C09FB7F8948881209582238883AD
:1008C000EC912E230BC0623061F49FB7F89438810D
:1008D000822F809583238883EC912E2B2C939FBFAE
:1008E00006C08FB7F894E8812E2B28838FBFDF9145
:1008F000CF910895863308F0865390917B00282F7E
:100900002870977F922B90937B00877080648093F0
:100910007C0080917A00806480937A0080917A00D4
:1009200086FDFCCF809178002091790090E0922B99
:1009300008953FB7F89480913D0E90913E0EA0919E
:100940003F0EB091400E26B5A89B05C02F3F19F071
:100950000196A11DB11D3FBFBA2FA92F982F88273F
:10096000820F911DA11DB11DBC01CD0142E0660F9A
:10097000771F881F991F4A95D1F708958F929F92EC
:10098000AF92BF92CF92DF92EF92FF926B017C0108
:10099000D0DF4B015C01C114D104E104F104E9F0A2
:1009A000C8DFDC01CB0188199909AA09BB09883E77
:1009B0009340A105B10578F321E0C21AD108E108FE
:1009C000F10888EE880E83E0981EA11CB11CC114AA
:1009D000D104E104F10421F7DECFFF90EF90DF9026
:1009E000CF90BF90AF909F908F9008951F920F92DD
:1009F0000FB60F9211242F933F938F939F93AF9332
:100A0000BF938091390E90913A0EA0913B0EB09118
:100A10003C0E3091380E23E0230F2D3720F4019641
:100A2000A11DB11D05C026E8230F0296A11DB11D11
:100A30002093380E8093390E90933A0EA0933B0E7C
:100A4000B0933C0E80913D0E90913E0EA0913F0ED2
:100A5000B091400E0196A11DB11D80933D0E909363
:100A60003E0EA0933F0EB093400EBF91AF919F9169
:100A70008F913F912F910F900FBE0F901F9018955F
:100A8000FF920F931F93CF93DF931F92CDB7DEB7E3
:100A90008C01F62E80E591E04983C8DD60E0F80125
:100AA0008781BDDE8F2D8064498150E0582B0CB4C6
:100AB00005FC0CC05EBD00000DB407FEFDCF8EB579
:100AC0004EBD00000DB407FEFDCF0BC04EBD0000B3
:100AD0000DB407FEFDCF8EB55EBD00000DB407FE60
:100AE000FDCF8EB561E0F801878199DE0F90DF912F
:100AF000CF911F910F91FF9081CD0F931F93CF93B3
:100B0000DF938C01C62F80E591E090DD60E0F80175
:100B1000878185DE8C2F8F7182DD80E080DD80E033
:100B20007EDDC82F80E07BDD6C2F70E0762F66279E
:100B3000EB01C80FD11D61E0F801878170DE5EDD39
:100B40008FE090E00197F1F7BE0180E090E0DF9147
:100B5000CF911F910F9108952F923F924F925F92E4
:100B60006F927F928F929F92AF92BF92CF92DF92BD
:100B7000EF92FF920F931F93CF93DF93CDB7DEB722
:100B8000C859D1090FB6F894DEBF0FBECDBFCF57FD
:100B9000DF4F2883C158D040CE57DF4F3883C2582B
:100BA000D040CD57DF4F4883C358D040CC57DF4F9C
:100BB0005883C458D040CB57DF4F6883C558D040C6
:100BC000CA57DF4F7883C658D040C957DF4F888354
:100BD000C758D040C857DF4F9883C858D040A12C81
:100BE0002F3FEFE03E07E5EA4E07E4ED5E07E8EE53
:100BF0006E0771058105910569F064F010E1B12E71
:100C000005EAC02EE4EDDE2EF8EEEF2EF12C00E02A
:100C100010E034C0E0EFBE2EFAE5CF2EABE2DA2EC4
:100C2000B7E1EB2EFF24FA940FEF1FEFCF57DF4F02
:100C30002881C158D040CE57DF4F3881C258D040AC
:100C4000CD57DF4F4881C358D040CC57DF4F588134
:100C5000C458D040CB57DF4F6881C558D040CA57E1
:100C6000DF4F7881C658D040C957DF4F8881C758B9
:100C7000D040C857DF4F9881C858D0400E94D82A2A
:100C8000CF56DF4F2883C159D040CE56DF4F38832F
:100C9000C259D040CD56DF4F4883C359D040CC56BF
:100CA000DF4F5883C459D040CB56DF4F6883C559B6
:100CB000D040CA56DF4F7883C659D040C956DF4F5F
:100CC0008883C759D040C856DF4F9883C859D04051
:100CD000A12C40E1B42E55EAC52E64EDD62E78EE57
:100CE000E72EF12C00E010E0CF56DF4F2881C159EC
:100CF000D040CE56DF4F3881C259D040CD56DF4F5D
:100D00004881C359D040CC56DF4F5881C459D04098
:100D1000CB56DF4F6881C559D040CA56DF4F788126
:100D2000C659D040C956DF4F8881C759D040C856F0
:100D3000DF4F9881C859D0400E94852A59016A0125
:100D40007B018C01CF57DF4F2881C158D040CE574F
:100D5000DF4F3881C258D040CD57DF4F4881C3584C
:100D6000D040CC57DF4F5881C458D040CB57DF4FCD
:100D70006881C558D040CA57DF4F7881C658D040E7
:100D8000C957DF4F8881C758D040C857DF4F988177
:100D9000C858D0400E94D42B29013A014B011C01B4
:100DA000A0E00E94E62B34F40E945F2B29013A0157
:100DB0004B011C0190E4A92E22E4B22E3FE0C32E89
:100DC000D12CE12CF12C00E010E09201A301B40140
:100DD000C1010E94D82AC757DF4F2883C958D04085
:100DE000C657DF4F3883CA58D040C557DF4F4883B6
:100DF000CB58D040C457DF4F5883CC58D040C3574E
:100E0000DF4F6883CD58D040C257DF4F7883CE582C
:100E1000D040C157DF4F8883CF58D040C057DF4FF5
:100E20009883C059D04005E00E94A62BC757DF4FDA
:100E3000A880C958D040C657DF4FB880CA58D040A4
:100E4000C557DF4FC880CB58D040C457DF4FD8803C
:100E5000CC58D040C357DF4FE880CD58D040C25760
:100E6000DF4FF880CE58D040C157DF4F0881CF58B0
:100E7000D040C057DF4F1881C059D0400E94D42BBA
:100E800059016A017B01E82F192F06E00E94A62B69
:100E90000E2F0E94D42B03E00E94A62BC757DF4FD2
:100EA000A880C958D040C657DF4FB880CA58D04034
:100EB000C557DF4FC880CB58D040C457DF4FD880CC
:100EC000CC58D040C357DF4FE880CD58D040C257F0
:100ED000DF4FF880CE58D040C157DF4F0881CF5840
:100EE000D040C057DF4F1881C059D0400E94BF2B5F
:100EF00006E00E94A62B59016A017B018C01920138
:100F0000A301B401C1010E94D42B722E632E542E72
:100F1000452E362E272EF82EE92ECF57DF4F28816B
:100F2000C158D040CE57DF4F3881C258D040CD573E
:100F3000DF4F4881C358D040CC57DF4F5881C45849
:100F4000D040CB57DF4F6881C558D040CA57DF4FDC
:100F50007881C658D040C957DF4F8881C758D040E4
:100F6000C857DF4F9881C858D040A0E00E94E62BB8
:100F700024F48AE99DE00E94FD11C856DF4F888164
:100F8000C859D0408F93C956DF4F9881C759D04078
:100F90009F93CA56DF4FE881C659D040EF93CB5696
:100FA000DF4F8881C559D0408F93CC56DF4F988151
:100FB000C459D0409F93CD56DF4FE881C359D040EC
:100FC000EF93CE56DF4F8881C259D0408F93CF56D2
:100FD000DF4F9881C159D0409F938CE99DE09F934A
:100FE0008F938E010F5F1F4F1F930F930E94152C3D
:100FF000C8010E94FD11C057DF4FE881C059D040A1
:10100000EF93C157DF4F8881CF58D0408F93C2579D
:10101000DF4F9881CE58D0409F93C357DF4FE88170
:10102000CD58D040EF93C457DF4F8881CC58D04083
:101030008F93C557DF4F9881CB58D0409F93C657A9
:10104000DF4FE881CA58D040EF93C757DF4F888100
:10105000C958D0408F9381EA882E8DE0982E9F92B8
:101060008F921F930F930E94152CC8010E94FD11AF
:10107000EF92FF922F923F924F925F926F927F92E8
:101080009F928F921F930F930E94152C0FB6F89486
:10109000DEBF0FBECDBFC8010E94FD11C856DF4F95
:1010A0000FB6F894DEBF0FBECDBFDF91CF911F9179
:1010B0000F91FF90EF90DF90CF90BF90AF909F90F7
:1010C0008F907F906F905F904F903F902F900895FA
:1010D000EF92FF920F931F93CF93DF937C018B01CD
:1010E000C0E0D0E0F80161918F01CE018E0D9F1D0F
:1010F0000E943E2F2196C430D105A1F784E090E0F4
:10110000DF91CF911F910F91FF90EF900895EF9293
:10111000FF920F931F93CF93DF938B010C5F1F4FB1
:10112000EB017C01E61AF70AC7018C0F9D1F0E9494
:10113000362F8993C017D107B9F784E090E0DF918B
:10114000CF911F910F91FF90EF900895EF92FF9232
:101150000F931F93CF93DF937C018B01C0E0D0E00E
:10116000F80161918F01CE018E0D9F1D0E943E2FCF
:101170002196CD36D105A1F78DE690E0DF91CF9194
:101180001F910F91FF90EF9008952F923F924F92F1
:101190005F926F927F928F929F92AF92BF92CF9207
:1011A000DF92EF92FF920F931F93CF93DF93CDB710
:1011B000DEB7C958D1090FB6F894DEBF0FBECDBF58
:1011C00019012A01CF57DF4F6883C158D040CE574D
:1011D000DF4F7883C258D040CD57DF4F8883C35844
:1011E000D040CC57DF4F9883C458D04020E4A22E83
:1011F00032E4B32E4FE0C42ED12CE12CF12C00E0D0
:1012000010E09101A2010E94D82AB22FE32FF42FFF
:10121000A52F3B014C0105E00E94A62BAB2EBE2E54
:10122000CF2EDA2E730184010E94D42B59016A015A
:101230007B01CB57DF4F8883C558D040192F06E07C
:101240000E94A62BCB57DF4F0881C558D0400E9483
:10125000D42B03E00E94A62BAB2EBE2ECF2EDA2E6F
:10126000730184010E94BF2B06E00E94A62B590146
:101270006A017B018C019101A201CF57DF4F688188
:10128000C158D040CE57DF4F7881C258D040CD579B
:10129000DF4F8881C358D040CC57DF4F9881C45866
:1012A000D0400E94D42BAF93FF93EF93BF938CE970
:1012B0009DE09F938F938E010F5F1F4F1F930F939E
:1012C000CA57DF4F2883C658D040C957DF4F3883ED
:1012D000C758D040C857DF4F4883C858D040C75779
:1012E000DF4F5883C958D0400E94152CC8010E9476
:1012F000FD11C757DF4F5881C958D0405F93C85779
:10130000DF4F4881C858D0404F93C957DF4F3881CD
:10131000C758D0403F93CA57DF4F2881C658D040A6
:101320002F9381EA9DE09F938F931F930F930E94C9
:10133000152CC8010E94FD110FB6F894DEBF0FBE38
:10134000CDBFC757DF4F0FB6F894DEBF0FBECDBF7E
:10135000DF91CF911F910F91FF90EF90DF90CF9091
:10136000BF90AF909F908F907F906F905F904F90C5
:101370003F902F900895CF938FEC9EE014D8892B47
:10138000D9F38FEC9EE00E94B101C82F9BD48C2F23
:10139000CF910895CF931092CC0E1092CB0ECDE04A
:1013A000EADF2091CB0E3091CC0E2E37310524F49C
:1013B0008A3011F08D3091F4C90101969093CC0ED2
:1013C0008093CB0EF901E55BF14FC083FC01E55B37
:1013D000F14F1082029724F3CF910895883089F459
:1013E00080E270D488E06ED48091CB0E9091CC0EC8
:1013F00018161906ACF601979093CC0E8093CB0E7D
:10140000CFCFA9014F5F5F4F5093CC0E4093CB0ECF
:10141000F901E55BF14F8083C3CF1F920F920FB6A6
:101420000F9211240BB60F922F933F934F935F931C
:101430006F937F938F939F93AF93BF93CF93EF93CC
:10144000FF9320910601C091360E9091350E809148
:10145000340E322F309583239223892B90916D0087
:10146000C227C923C8232093360ECC23C1F1C0FF65
:1014700005C0E091240EF091250E1995C1FF05C01D
:10148000E091260EF091270E1995C2FF05C0E0915C
:10149000280EF091290E1995C3FF05C0E0912A0E80
:1014A000F0912B0E1995C4FF05C0E0912C0EF09120
:1014B0002D0E1995C5FF05C0E0912E0EF0912F0E4F
:1014C0001995C6FF05C0E091300EF091310E1995C7
:1014D000C7FF05C0E091320EF091330E1995FF91D0
:1014E000EF91CF91BF91AF919F918F917F916F912C
:1014F0005F914F913F912F910F900BBE0F900FBEB8
:101500000F901F9018951F920F920FB60F921124F3
:101510000BB60F922F933F934F935F936F937F93ED
:101520008F939F93AF93BF93CF93EF93FF932091AC
:101530000301C091230E9091220E8091210E322F33
:10154000309583239223892B9091200EC227C923A3
:10155000C8232093230ECC2389F1C0FF05C0E0915E
:10156000120EF091130E1995C1FF05C0E091140EF3
:10157000F091150E1995C2FF05C0E091160EF0917D
:10158000170E1995C3FF05C0E091180EF091190EC2
:101590001995C4FF05C0E0911A0EF0911B0E199524
:1015A000C5FF05C0E0911C0EF0911D0E1995C6FFF8
:1015B00005C0E0911E0EF0911F0E1995FF91EF915D
:1015C000CF91BF91AF919F918F917F916F915F91DB
:1015D0004F913F912F910F900BBE0F900FBE0F9028
:1015E0001F9018951F920F920FB60F9211240BB6F1
:1015F0000F922F933F934F935F936F937F938F93AC
:101600009F93AF93BF93CF93EF93FF9323B1C09179
:10161000110E9091100E80910F0E322F3095832372
:101620009223892B90916B00C227C923C823209352
:10163000110ECC23C1F1C0FF05C0E091FF0DF09168
:10164000000E1995C1FF05C0E091010EF091020E48
:101650001995C2FF05C0E091030EF091040E199593
:10166000C3FF05C0E091050EF091060E1995C4FF69
:1016700005C0E091070EF091080E1995C5FF05C051
:10168000E091090EF0910A0E1995C6FF05C0E09190
:101690000B0EF0910C0E1995C7FF05C0E0910D0ED1
:1016A000F0910E0E1995FF91EF91CF91BF91AF91EF
:1016B0009F918F917F916F915F914F913F912F916A
:1016C0000F900BBE0F900FBE0F901F9018951F929A
:1016D0000F920FB60F9211240BB60F922F933F93D8
:1016E0004F935F936F937F938F939F93AF93BF932A
:1016F000EF93FF93E091FD0DF091FE0D1995FF9191
:10170000EF91BF91AF919F918F917F916F915F9179
:101710004F913F912F910F900BBE0F900FBE0F90E6
:101720001F9018951F920F920FB60F9211240BB6AF
:101730000F922F933F934F935F936F937F938F936A
:101740009F93AF93BF93EF93FF93E091FB0DF091C5
:10175000FC0D1995FF91EF91BF91AF919F918F91E2
:101760007F916F915F914F913F912F910F900BBEA1
:101770000F900FBE0F901F9018951F920F920FB6EB
:101780000F9211240BB60F922F933F934F935F93B9
:101790006F937F938F939F93AF93BF93EF93FF9339
:1017A000E091F90DF091FA0D1995FF91EF91BF912C
:1017B000AF919F918F917F916F915F914F913F91E9
:1017C0002F910F900BBE0F900FBE0F901F9018958A
:1017D0001F920F920FB60F9211240BB60F922F93F8
:1017E0003F934F935F936F937F938F939F93AF93A9
:1017F000BF93EF93FF93E091F70DF091F80D1995DA
:10180000FF91EF91BF91AF919F918F917F916F91D8
:101810005F914F913F912F910F900BBE0F900FBE94
:101820000F901F9018951F920F920FB60F921124D0
:101830000BB60F922F933F934F935F936F937F93CA
:101840008F939F93AF93BF93EF93FF93E091F50D29
:10185000F091F60D1995FF91EF91BF91AF919F9186
:101860008F917F916F915F914F913F912F910F9049
:101870000BBE0F900FBE0F901F9018951F920F92E6
:101880000FB60F9211240BB60F922F933F934F93E5
:101890005F936F937F938F939F93AF93BF93EF93D8
:1018A000FF93E091F30DF091F40D1995FF91EF91F5
:1018B000BF91AF919F918F917F916F915F914F9168
:1018C0003F912F910F900BBE0F900FBE0F901F9066
:1018D00018951F920F920FB60F9211240BB60F920C
:1018E0002F933F934F935F936F937F938F939F9328
:1018F000AF93BF93EF93FF93E091F10DF091F20D51
:101900001995FF91EF91BF91AF919F918F917F9129
:101910006F915F914F913F912F910F900BBE0F9060
:101920000FBE0F901F9018951F920F920FB60F9237
:1019300011240BB60F922F933F934F935F936F93A6
:101940007F938F939F93AF93BF93EF93FF93E09118
:10195000EF0DF091F00D1995FF91EF91BF91AF91BF
:101960009F918F917F916F915F914F913F912F91B7
:101970000F900BBE0F900FBE0F901F901895542F15
:101980008F779EEF980F923008F4B6C095EB980FC2
:10199000923008F4B1C09EEE980F943008F4ACC0B9
:1019A000282F30E0F901863438F0E45BFE4F849153
:1019B000433009F063C115C0EE5AFE4F8491F9011E
:1019C000E856FE4F9491433011F04130B9F4923013
:1019D00031F44091100E482B4093100E0FC09A30F6
:1019E00031F49091220E982B9093220E4AC19B3095
:1019F00029F44091350E482B4093350E4FEF450F9B
:101A00004230B8F4923031F440910F0E482B40939D
:101A10000F0E0FC09A3031F44091210E482B4093A5
:101A2000210E07C09B3029F44091340E482B40937F
:101A3000340EF901E252FE4FA4919230C1F4B0E0AD
:101A4000AA0FBB1FA150B24F6D937C93E9E4F2E063
:101A5000A591B4919C919093110E2BE630E03093B8
:101A6000EE0D2093ED0D9091680091603BC09A308F
:101A700001F5B0E0AA0FBB1FAE5EB14F6D937C9332
:101A8000E9E5F2E0A591B4919C919093230E2CE6A8
:101A900030E03093EE0D2093ED0D90916800926050
:101AA000909368009091200E982B9093200E880FB1
:101AB0001BC09B30C9F4B0E0AA0FBB1FAC5DB14F97
:101AC0006D937C93EBE5F2E0A591B4919C9190939A
:101AD000360E2DE630E03093EE0D2093ED0D909113
:101AE0006800946090936800A091ED0DB091EE0DA8
:101AF000EC918E2B8C9308959FB7F894833109F461
:101B000064C0E0F4833009F48CC0823109F473C0FE
:101B1000823009F0B1C07093F80D6093F70DEC9826
:101B200080916A008C7F80936A0080916A00452FC3
:101B3000482B40936A00E49AEC9A9EC08531E9F004
:101B400070F18B3409F483C08C3409F095C0709324
:101B5000FE0D6093FD0DEF9880916A008F73809366
:101B60006A0080916A0020E4529FA0011124482B52
:101B700040936A00E79AEF9A7FC07093F00D6093EC
:101B8000EF0DE898809169008C7F80936900409107
:101B90006900452B40936900E09AE89A6DC0709304
:101BA000F20D6093F10DE99880916900837F809335
:101BB00069008091690024E0529FA0011124482B04
:101BC00040936900E19AE99A57C07093F40D6093CD
:101BD000F30DEA98809169008F7C80936900809171
:101BE000690020E1529FA0011124482B4093690015
:101BF000E29AEA9A41C07093F60D6093F50DEB9866
:101C0000809169008F73809369008091690020E45E
:101C1000529FA0011124482B40936900E39AEB9A4C
:101C20002BC07093FA0D6093F90DED9880916A00C6
:101C3000837F80936A0080916A0024E0529FA00114
:101C40001124482B40936A00E59AED9A15C07093D1
:101C5000FC0D6093FB0DEE9880916A008F7C809361
:101C60006A0080916A0020E1529FA0011124482B54
:101C700040936A00E69AEE9A9FBF0895413009F4B6
:101C8000B0CE9AE0BBCE009769F0FC010190002035
:101C9000E9F73197AF01481B590BBC018FEC9EE06F
:101CA0000C94860180E090E0089587EA9DE0EBCFF8
:101CB000CF93DF93E8DFEC01F8DF8C0F9D1FDF91FE
:101CC000CF910895E091CF0EF091D00E0190F08168
:101CD000E02D682F8FEC9EE019948091CD0E9091AD
:101CE000CE0E2091CB0E3091CC0E82179307ACF420
:101CF000FC01E55BF14F8081E5DF8091CD0E909195
:101D0000CE0E9C012F5F3F4F3093CE0E2093CD0E11
:101D1000FC01E55BF14F808108952DCB2F923F921E
:101D20004F925F926F927F928F929F92AF92BF92EB
:101D3000CF92DF92EF92FF920F931F93CF93DF9397
:101D4000CDB7DEB72E970FB6F894DEBF0FBECDBF6E
:101D50009A8389831092CB101092CC101092CD10E0
:101D60001092CE101092CF101092D0101092D1106D
:101D70001092D2101092C3101092C4101092C5107D
:101D80001092C6101092C7101092C8101092C9106D
:101D90001092CA101092430E1092440E1092450EEB
:101DA0001092460E1092470E1092480E1092490E55
:101DB00010924A0E81E0809300021092010210926C
:101DC0000202109203021092040210920502109275
:101DD0000602109207021092420E1092410E7DDF11
:101DE000182F082E000C990B0E94F62B892BB9F79F
:101DF0001B3219F472DF182F09C01D3239F46DDF60
:101E0000182F81E090E09C878B8702C01C861B8680
:101E1000EE24E394F12C103339F45FDF182FF092A5
:101E2000420EE092410EF7CF812F012E000C990B4C
:101E3000C0970A9708F057C022242394312CE12F31
:101E4000012E000CFF0BF097EA30F10508F048C0B6
:101E50003092420E2092410E2091CB103091CC1046
:101E60004091CD105091CE106091CF107091D01054
:101E70008091D1109091D21001E00E94A62B2901EF
:101E80003A014B01B82FA92F02E00E94A62B59015D
:101E90006A017B018C019201A301B4018B2F9A2F5F
:101EA0000E94BF2B1F2F110F110B5F01C12ED12ECE
:101EB000E12EF12E012F0E94BF2B2093CB103093E7
:101EC000CC104093CD105093CE106093CF107093F0
:101ED000D0108093D1109093D210FFDE182FAFCF87
:101EE0001E861D8610C01E3299F4F7DE182F1E863E
:101EF0001D86103341F4AD85BE851197BE87AD8731
:101F0000ECDE182FF6CF1E3229F4E7DE182F02C0C0
:101F10001E861D8688248394912CE12F012E000CAF
:101F2000FF0BF097EA30F10508F04DC09092420E99
:101F30008092410E2091CB103091CC104091CD1069
:101F40005091CE106091CF107091D0108091D1102F
:101F50009091D21001E00E94A62B19012A013B01A9
:101F6000B82FA92F02E00E94A62B59016A017B011C
:101F70008C019101A201B3018B2F9A2F0E94BF2BDC
:101F80001F2F110F110B5F01C12ED12EE12EF12E4B
:101F9000012F0E94BF2B2093CB103093CC10409385
:101FA000CD105093CE106093CF107093D0108093CB
:101FB000D1109093D210ED85FE853197FE87ED8785
:101FC0008CDE182FAACF1F7D153489F586DE8B3263
:101FD00011F483DE06C08D3221F47FDE01E010E0D3
:101FE00002C000E010E0803311F477DEFCCFE12C7A
:101FF000F12C9AE0D92E082E000C990BC0978A304C
:10200000910550F4DE9C9001DF9C300D1124790184
:10201000E80EF91E62DEEFCF012B19F0F194E19486
:10202000F1088D859E858E0D9F1D9E878D878091E1
:10203000410E9091420E892B09F455C18090CB102E
:102040009090CC109091CD109B83A091CE10AC833A
:10205000B091CF10BD83E091D010EE836090D1108D
:102060007090D2108092C3109092C4109093C510BB
:10207000A093C610B093C710E093C8106092C91027
:102080007092CA108D859E8597FF8CC0309000029B
:1020900020900102909102029F83A0910302A887E1
:1020A000B0910402B987E0910502EA8750900602D8
:1020B00040900702232D322D4F81588569857A85FE
:1020C000852D942D01E00E94A62B19012A01B62F1F
:1020D000A72FF82FE92F02E00E94A62B59016A01D1
:1020E0007B018C019101A2016B2F7A2F8F2F9E2FE4
:1020F0000E94BF2B322E232E4F83588769877A8701
:10210000582E492E8D859E8501969E878D87892B19
:1021100089F630920002209201024093020250930D
:1021200003026093040270930502509206024092EB
:102130000702A32CB22CC42ED52EE62EF72E052D89
:10214000142D94014B815C816D817E81C3010E94BD
:10215000D62A2093430E3093440E4093450E50935D
:10216000460E6093470E7093480E8093490E9093ED
:102170004A0E94014B815C816D817E81C3010E9476
:10218000D82A2093C3103093C4104093C5105093A5
:10219000C6106093C7107093C8108093C9109093B5
:1021A000CA103EC08D859E85892BD1F1E0E0F0E01C
:1021B00094014B815C816D817E81C30101E00E94AD
:1021C000A62B29013A014B01B82FA92F02E00E944A
:1021D000A62B59016A017B018C019201A301B40174
:1021E0008B2F9A2F0E94BF2B49014B835C836D83F9
:1021F0007E833C013196AD85BE85EA17FB07C1F6AB
:102200002093C3109092C4104093C5105093C610F1
:102210006093C7107093C8106092C9107092CA1072
:10222000AB85BC85AB2B09F444C02091C310309121
:10223000C4104091C5105091C6106091C7107091A4
:10224000C8108091C9109091CA100E945F2B2093F2
:10225000C3103093C4104093C5105093C6106093C0
:10226000C7107093C8108093C9109093CA10209122
:10227000430E3091440E4091450E5091460E6091B0
:10228000470E7091480E8091490E90914A0E0E941F
:102290005F2B2093430E3093440E4093450E509392
:1022A000460E6093470E7093480E8093490E9093AC
:1022B0004A0E8091C310E981FA8180838091C41015
:1022C00081838091C51082838091C6108383809121
:1022D000C71084838091C81085838091C91086833C
:1022E0008091CA1087832E960FB6F894DEBF0FBE7A
:1022F000CDBFDF91CF911F910F91FF90EF90DF90B5
:10230000CF90BF90AF909F908F907F906F905F9095
:102310004F903F902F9008958F929F92AF92BF92CF
:102320000F931F93CF93DF93CDB7DEB7A1970FB66F
:10233000F894DEBF0FBECDBF19A2423008F44AE0C8
:102340008E010F5D1F4F842E912CA12CB12CA50165
:1023500094010E94782FE62FB901CA01015011099A
:10236000EA3014F4E05D01C0E95CD801EC93232B62
:10237000242B252B61F7C80186DCA1960FB6F894B3
:10238000DEBF0FBECDBFDF91CF911F910F91BF90E8
:10239000AF909F908F900895CF92DF92EF92FF922F
:1023A000CF93DF9397FF17C06B017C018DE28ADC2E
:1023B000EC0166277727CB016C197D098E099F09EF
:1023C0004AE0AADF8C0F9D1FDF91CF91FF90EF9025
:1023D000DF90CF9008954AE0DF91CF91FF90EF908A
:1023E000DF90CF9099CFCF93DF93D6DFEC015DDC08
:1023F0008C0F9D1FDF91CF91089545CCCF93DF9334
:1024000061DCEC0152DC8C0F9D1FDF91CF910895B0
:10241000CF93DF93CDB7DEB7C658D1400FB6F8944F
:10242000DEBF0FBECDBF789484B5826084BD84B515
:10243000816084BD85B5826085BD85B5816085BDBF
:1024400080916E00816080936E0010928100809177
:1024500081008260809381008091810081608093FF
:102460008100809180008160809380008091B10024
:1024700084608093B1008091B00081608093B0004F
:1024800080919100826080939100809191008160A1
:102490008093910080919000816080939000809162
:1024A000A10082608093A1008091A100816080934F
:1024B000A1008091A00081608093A0008091210103
:1024C00082608093210180912101816080932101AC
:1024D0008091200181608093200180917A00846046
:1024E00080937A0080917A00826080937A00809154
:1024F0007A00816080937A0080917A00806880936E
:102500007A001092C1002E010BED400E511C920179
:102510002F5F3F4FCE57DE4F39832883C258D140BB
:102520004EE650E04C0F5D1F4D5E5F4FCC57DE4FC7
:1025300059834883C458D140BE01605B7E4FC85A5E
:10254000DE4F79836883C855D14060E082E10E9404
:102550003E0461E082E00E943E0461E083E00E946C
:102560003E0461E082E40E943E0461E083E40E9454
:102570003E048091080180648093080180910801E5
:102580008061809308018091080180688093080130
:102590008091080180628093080180910801886021
:1025A000809308018FEC9EE00E944F02E091E10EC3
:1025B000F091E20E80818F7E8083E091E10EF091B8
:1025C000E20E8081877F8083E091E10EF091E20E40
:1025D00080818F778083E091E10EF091E20E80811F
:1025E0008F7D80838091E90E8093E80EE091DF0E6D
:1025F000F091E00E82E08083E091DB0EF091DC0E42
:102600001082E091DD0EF091DE0E80E18083109269
:10261000E70EE091E30EF091E40E86E08083E09116
:10262000E10EF091E20E808180618083E091E10E05
:10263000F091E20E808188608083E091E10EF0915C
:10264000E20E808180688083E091E10EF091E20EDD
:1026500080818F7D80839FB7F8948091B30D88230C
:1026600019F081508093B30D8091B30D811105C095
:102670008CB58F7B8CBD1092AA0D9FBF1FB7F894AD
:102680008091B30D811127C0EDECF1E08491E7E872
:10269000F1E09491E82FF0E0EE0FFF1FE85CFE4FB1
:1026A000A591B491EC91E92321F461E085E30E94C6
:1026B0000F0461E085E30E943E048CB580618CBD0F
:1026C0008CB580648CBD61E084E30E943E0461E0CF
:1026D00083E30E943E048091B30D8F5F8093B30D1E
:1026E0001FBFBE01685B7E4F80EF9FE00E9487089E
:1026F000B20184EF9FE00E948708C85BDE4F8881AB
:102700009981AA81BB81C854D1408F3F7FEF970741
:10271000A707B70761F4F20180819181A281B3819B
:102720008F3F9F4FAF4FBF4F09F095C00FC0892B10
:102730008A2B8B2B09F08FC0F20180819181A281BD
:10274000B381892B8A2B8B2B09F085C082E392E021
:10275000AFDA86E30E947A04BC01990F880B990BCB
:10276000611571058105910511F00E942D2F0E94C0
:102770002A2F2FEF3FEF40E050E00E944C2FC85B24
:10278000DE4F688379838A839B83C854D14089E371
:102790000E947A04BC01990F880B990B6115710591
:1027A0008105910511F00E942D2F0E942A2F2FEFF5
:1027B0003FEF40E050E00E944C2FD2016D937D939B
:1027C0008D939C931397BE01685B7E4F80EF9FE0D3
:1027D0000E946808B20184EF9FE00E946808F2013D
:1027E00083818F9382818F9381818F9380818F9357
:1027F000C55BDE4F8881CB54D1408F93C65BDE4FE3
:102800008881CA54D1408F93C75BDE4F8881C954F9
:10281000D1408F93C85BDE4F8881C854D1408F93DD
:1028200087E592E09F938F9384EB9DE09F938F9336
:102830000E94152C80EB93E0E0DD84EB9DE038DA1C
:102840006CE47DE180E090E00E94BE040FB6F89455
:10285000DEBF0FBECDBFD20113968C9113978F931D
:1028600012968C9112978F9311968C9111978F934A
:102870008C918F93C55BDE4F8881CB54D1408F9371
:10288000C65BDE4F8881CA54D1408F93C75BDE4F51
:102890008881C954D1408F93C85BDE4F8881C8546A
:1028A000D1408F9387E592E09F938F9384EB9DE0D7
:1028B0009F938F930E94152C80E090E00E94362F0A
:1028C0000FB6F894DEBF0FBECDBF883009F449C102
:1028D00082E692E0EDD988E0D2018C9341E150E0AC
:1028E0006CE072E0CE57DE4F88819981C258D140AA
:1028F0000E94062C83E4F201828B41E150E064EBFC
:102900007DE0C20143960E94062CD20194961C924F
:10291000949795961C92959780E896968C939697A7
:1029200086E997968C93979788E998968C939897D1
:1029300099961C9299979A961C929A979B961C929C
:102940009B979C961C929C979D961C929D979E96F9
:102950001C929E9781EE9F968C939F9785EFD096C1
:102960008C93D09785E0D1968C93D197D2961C9278
:10297000D297D3961C92D397D4961C92D497D5967F
:102980001C92D59784E190E0D7969C938E93D6972E
:1029900085E090E0D9969C938E93D8978DE4DA9653
:1029A0008C93DA9782E5DB968C93DB97DC968C939D
:1029B00094ECF201FD96908389E081831282138268
:1029C0001482158216821782C05EDE4F9883C05231
:1029D000D140CF5DDE4F8883C152D140CE5DDE4F06
:1029E0001882C252D140CD5DDE4F1882C352D14011
:1029F000CC5DDE4F1882C452D140CB5DDE4F1882D1
:102A0000C552D140CA5DDE4F1882C652D140C95D61
:102A1000DE4F1882C752D140C85DDE4F1882C852BF
:102A2000D140C75DDE4F1882C952D140C65DDE4F2E
:102A30001882CA52D140C55DDE4F1882CB52D140B8
:102A4000C45DDE4F1882CC52D140C35DDE4F188288
:102A5000CD52D140C25DDE4F1882CE52D140C15D11
:102A6000DE4F1882CF52D140C05DDE4F1882C05376
:102A7000D140CF5CDE4F1882C153D140CE5CDE4FD7
:102A80001882C253D140CD5CDE4F1882C353D1406F
:102A9000CC5CDE4F1882C453D140CB5CDE4F188231
:102AA000C553D140CA5CDE4F1882C653D140C95CC1
:102AB000DE4F1882C753D140C85CDE4F1882C8531E
:102AC000D140C75CDE4F1882C953D140C65CDE4F8F
:102AD0001882CA53D140C55CDE4F1882CB53D14017
:102AE000C45CDE4F1882CC53D140C35CDE4F1882E9
:102AF000CD53D140C25CDE4F1882CE53D140C15C71
:102B0000DE4F1882CF53D140C05CDE4F1882C054D4
:102B1000D140CF5BDE4F1882C154D140CE5BDE4F37
:102B20001882C254D140CD5BDE4F1882C354D140CD
:102B3000CC5BDE4F1882C454D140CB5BDE4F188291
:102B4000C554D140CA5BDE4F1882C654D140C95B20
:102B5000DE4F1882C754D140B20180E090E00E945D
:102B6000A60876E5272E70E1372E710100E010E00F
:102B7000C8010E94362FF70181937F010F5F1F4F1D
:102B80000D361105A9F780917A108093CE0D8DD85E
:102B900087E892E08DD888EA92E08AD886D888EDD6
:102BA00092E086D88EEE92E083D88DE6E6E5F0E1FD
:102BB000DE01A259BF4F01900D928A95E1F785E0A1
:102BC00093E01BDCCE56DF4F8881C259D040823063
:102BD00081F038F4882351F08130A1F48BE293E046
:102BE00010C0833049F0843051F00CC08AE193E08A
:102BF00008C084E293E005C08EE393E059D880E5F5
:102C000093E056D886E593E0F8DBCD56DF4F888118
:102C1000C359D040882311F0F1DB03C089E693E06B
:102C200047D88EE693E0E9DB80E090E00E94362F03
:102C3000682F70E080E090E04AE06EDB81E893E08E
:102C4000DCDBC058DF4F8881C058D040D7DB83E938
:102C500093E0D3DB8CE092E02BD888EA93E0CDDBE5
:102C6000CC57DE4F88819981C458D14021D880EC5F
:102C700093E0C3DBCC56DF4F2881C459D040CB56FC
:102C8000DF4F3881C559D040CA56DF4F4881C659F9
:102C9000D040C956DF4F5881C759D040C856DF4F82
:102CA0006881C859D040C756DF4F7881C959D04094
:102CB000C656DF4F8881CA59D040C556DF4F98812C
:102CC000CB59D0400E94C50880ED93E00E94580E79
:102CD00085ED93E092DBC456DF4F2881CC59D0407C
:102CE000C356DF4F3881CD59D040C256DF4F48819F
:102CF000CE59D040C156DF4F5881CF59D040C05631
:102D0000DF4F6881C05AD040CF55DF4F7881C15A1C
:102D1000D040CE55DF4F8881C25AD040CD55DF4FCD
:102D20009881C35AD0400E94C50885EE93E00E9466
:102D3000580E8BEE93E061DBCC55DF4F68817981D3
:102D4000C45AD040072E000C880B990B25DB0E943B
:102D5000550E8BEF93E051DBC855DF4F8881C85A81
:102D6000D0404CDB88E094E048DBC955DF4F8881D8
:102D7000C75AD0408F93CA55DF4F8881C65AD0407A
:102D80008F9384E194E09F938F935F924F920E9480
:102D9000152CC2010E94580E8BE194E02EDBC75522
:102DA000DF4F8881C95AD0400E94620E8CE294E0C5
:102DB00024DBC655DF4F8881CA5AD0400E94620E7C
:102DC00085E394E00E94580E8CE394E016DBEEE677
:102DD000F0E0EC0FFD1FFD9660817181828193818F
:102DE000DBDA8CE294E009DBCD54DF4F6881798136
:102DF0008A819B81C35BD040CFDA85E394E00E9457
:102E0000580E8EE494E0F9DAC554DF4F6881798179
:102E10008A819B81CB5BD040BFDA8CE294E0EDDA13
:102E2000CD53DF4F688179818A819B81C35CD0401B
:102E3000B3DA85E394E00E94580E8EE594E0DDDA83
:102E4000C553DF4F688179818A819B81CB5CD040FB
:102E5000A3DA8CE294E0D1DACD52DF4F6881798138
:102E60008A819B81C35DD04097DA85E394E00E941C
:102E7000580E88ED92E00E94580E89E694E00E9478
:102E8000580E8EE894E0B9DA0F900F900F900F90E3
:102E90000F900F9007E010E06AEF70E080E090E0A4
:102EA0000E94BE048EE20E94620E8FEC9EE00E94A1
:102EB000D301892B11F011E032C06AEF70E080E09D
:102EC00090E00E94BE048EE20E94620E8FEC9EE0B3
:102ED0000E94D301892B79F76AEF70E080E090E0DF
:102EE0000E94BE048EE20E94620E8FEC9EE00E9461
:102EF000D301892B01F76AEF70E080E090E00E9437
:102F0000BE048EE20E94620E8FEC9EE00E94D3010E
:102F1000892B89F60150110909F0BECF10E08FEC22
:102F20009EE00E94D301892B29F08FEC9EE00E9445
:102F3000B101F5CF112309F49AC70E94550E0E94E2
:102F4000550E81E994E059DAE0917A10E53028F4E1
:102F5000F0E0E35EFD4F808101C08FE30E94620ECE
:102F60008EEA94E00E94580E87EC94E046DA809155
:102F70007B10882329F00E94620E84EE94E005C045
:102F80008FE598E03ADA88EE94E00E94580E81E0EE
:102F900095E033DA20917C1030917D1040917E10C5
:102FA00050917F10609180107091811080918210FB
:102FB000909183100E94C5088EE195E00E94580E02
:102FC00080E395E01ADA20918410309185104091C9
:102FD00086105091871060918810709189108091AF
:102FE0008A1090918B100E94C5088DE495E00E9494
:102FF000580E8FE595E001DA60918C1070918D107C
:10300000072E000C880B990BC7D98CE795E00E941E
:10301000580E85E995E0F1D980918E1090918F102E
:10302000092E000CAA0BBB0BBF93AF939F938F93FA
:10303000A2EBB5E0BF93AF93C75ADE4FF881C955F5
:10304000D140FF93C85ADE4F0881C855D1400F9335
:103050000E94152CCE01805B9E4FCFD989EB95E065
:103060000E94580E82ED95E0C8D9809190100E9480
:10307000620E8FEE95E00E94580E88E096E0BDD972
:10308000809191100E94620E80E20E94620E8091F7
:1030900092100E94620E85E296E00E94580E8CE328
:1030A00096E0ABD960919310709194108091951037
:1030B0009091961071D980E20E94620E60919B10EF
:1030C00070919C1080919D1090919E1065D989E51A
:1030D00096E00E94580E8DE696E08FD96091A3107D
:1030E0007091A4108091A5109091A61055D980E2FE
:1030F0000E94620E6091AB107091AC108091AD1087
:103100009091AE1049D98AE896E00E94580E81EA63
:1031100096E073D96091B3107091B4108091B5109E
:103120009091B61039D980E20E94620E6091BB1076
:103130007091BC108091BD109091BE102DD98AE87D
:1031400096E00E94580E0E94550E8EEB96E00E946B
:10315000580E8EED96E00E94580E8CEF96E00E947D
:10316000580E8FE197E00E94580E0E94BB09082E6E
:10317000000C990B0E94FE2B182F0E94550E0FB6C3
:10318000F894DEBF0FBECDBF812F110F990BAA0B94
:10319000BB0BFC01E354F109E831F10508F062C60C
:1031A0008827EE58FF4F8F4F0C947D2A8CE297E0D2
:1031B0000E94580E0E94550E8BE597E00E94580E13
:1031C00083E797E00E94580E88E897E00E94580E27
:1031D00089EA97E00E94580E88EC97E00E94580E0A
:1031E0008CED97E00E94580E0E94550E86EF97E0F6
:1031F00004D90E94BB09082E000C990B0E94FE2BDB
:103200008C349105C9F044F484349105C9F08934B3
:103210009105C1F481E011C08035910559F08435E4
:10322000910529F08E34910569F485E006C010926D
:103230007A1083CE82E001C083E080937A107DCE45
:1032400084E0FBCF83E098E00E94580ED2CF81E269
:1032500098E0D3D880917B10882319F00E94620EE9
:1032600003C08FE598E0C9D881E398E00E94580E2A
:103270000E94BB09082E000C990B0E94FE2B803285
:1032800009F480E080937B1058CE85E698E0B5D8AD
:1032900020917C1030917D1040917E1050917F10D4
:1032A00060918010709181108091821090918310B4
:1032B0000E94C50882E798E00E94580E86E998E0CF
:1032C0000E94580E0E94CA091092CE0E1092CD0E86
:1032D000C2010E948E0ED201BC91C65ADE4FB88345
:1032E000CA55D140F2016180728083809480B5819B
:1032F000F681C45ADE4FF883CC55D140F201F781F4
:10330000CC59DE4FF883C456D140C65ADE4F2881CF
:10331000CA55D140362D472D582D692D7B2FC45AC3
:10332000DE4F8881CC55D1409F2FAFEF0E94C82B34
:10333000AFE00E94E62B11F008F0FFCDC65ADE4F39
:103340002881CA55D140362D472D582D692D7B2F08
:10335000C45ADE4F8881CC55D1409F2F05E00E9492
:10336000A62BC65ADE4FA880CA55D140B62CC72C12
:10337000D82CE92CFB2EC45ADE4F0881CC55D14005
:103380001F2F0E94D42B59016A017B01A82F192FEE
:1033900006E00E94A62B0A2F0E94D42B03E00E9475
:1033A000A62BC65ADE4FA880CA55D140B62CC72CD2
:1033B000D82CE92CFB2EC45ADE4F0881CC55D140C5
:1033C0001F2F0E94BF2B06E00E94A62BC459DE4F80
:1033D0002883CC56D140C259DE4F3883CE56D140D7
:1033E000C45ADE4F4883CC55D140CC59DE4F588368
:1033F000C456D140C859DE4F6883C856D140C7591A
:10340000DE4F7883C956D140C659DE4F8883CA56ED
:10341000D140C559DE4F9883CB56D1407090430EB2
:103420008090440E9090450EB091460EA091470EAC
:10343000F091480EE091490E60904A0E272D382DEC
:10344000492D5B2F6A2F7F2F8E2F962D05E00E942E
:10345000A62BA72CB82CC92CDB2EEA2EFF2E0E2F64
:10346000162D0E94D42B59016A017B01C65ADE4FEA
:103470008883CA55D140192F06E00E94A62BC65A50
:10348000DE4F0881CA55D1400E94D42B03E00E9430
:10349000A62BA72CB82CC92CDB2EEA2EFF2E0E2F24
:1034A000162D0E94BF2B06E00E94A62BA0900002C2
:1034B000B0900102C0900202D0900302E09004029A
:1034C000F090050200910602109107020E94D82A8E
:1034D00059016A017B018C01C459DE4F2881CC5609
:1034E000D140C259DE4F3881CE56D140C45ADE4F4A
:1034F0004881CC55D140CC59DE4F5881C456D1407B
:10350000C859DE4F6881C856D140C759DE4F78810F
:10351000C956D140C659DE4F8881CA56D140C559D7
:10352000DE4F9881CB56D1400E94BF2B20937C1058
:1035300030937D1040937E1050937F1060938010E5
:10354000709381108093821090938310F6CC8DED50
:1035500098E00E94FD1120918410309185104091D7
:103560008610509187106091881070918910809119
:103570008A1090918B100E94C50880EF98E00E94FD
:10358000580E85E099E00E94580E0E94CA091092D8
:10359000CE0E1092CD0EC2010E948E0ED201BC91B1
:1035A000C65ADE4FB883CA55D140F201618072809D
:1035B00083809480B581F681C45ADE4FF883CC5560
:1035C000D140F201F781CC59DE4FF883C456D14087
:1035D000C65ADE4F2881CA55D140362D472D582D69
:1035E000692D7B2FC45ADE4F8881CC55D1409F2F47
:1035F000A0E00E94E62B09F00CF49FCC05E00E94AD
:10360000A62BC65ADE4FA880CA55D140B62CC72C6F
:10361000D82CE92CFB2EC45ADE4F0881CC55D14062
:103620001F2F0E94D42B59016A017B01A82F192F4B
:1036300006E00E94A62B0A2F0E94D42B03E00E94D2
:10364000A62BC65ADE4FA880CA55D140B62CC72C2F
:10365000D82CE92CFB2EC45ADE4F0881CC55D14022
:103660001F2F0E94BF2B06E00E94A62BC459DE4FDD
:103670002883CC56D140C259DE4F3883CE56D14034
:10368000C45ADE4F4883CC55D140CC59DE4F5883C5
:10369000C456D140C859DE4F6883C856D140C75977
:1036A000DE4F7883C956D140C659DE4F8883CA564B
:1036B000D140C559DE4F9883CB56D1407090430E10
:1036C0008090440E9090450EB091460EA091470E0A
:1036D000F091480EE091490E60904A0E272D382D4A
:1036E000492D5B2F6A2F7F2F8E2F962D05E00E948C
:1036F000A62BA72CB82CC92CDB2EEA2EFF2E0E2FC2
:10370000162D0E94D42B59016A017B01C65ADE4F47
:103710008883CA55D140192F06E00E94A62BC65AAD
:10372000DE4F0881CA55D1400E94D42B03E00E948D
:10373000A62BA72CB82CC92CDB2EEA2EFF2E0E2F81
:10374000162D0E94BF2B06E00E94A62BA09000021F
:10375000B0900102C0900202D0900302E0900402F7
:10376000F090050200910602109107020E94D82AEB
:1037700059016A017B018C01C459DE4F2881CC5666
:10378000D140C259DE4F3881CE56D140C45ADE4FA7
:103790004881CC55D140CC59DE4F5881C456D140D8
:1037A000C859DE4F6881C856D140C759DE4F78816D
:1037B000C956D140C659DE4F8881CA56D140C55935
:1037C000DE4F9881CB56D1400E94BF2B20938410AE
:1037D0003093851040938610509387106093881023
:1037E0007093891080938A1090938B10A6CB8BE4F2
:1037F00099E00E94FD1160918C1070918D10072E40
:10380000000C880B990B0E94CC1180E699E00E9475
:10381000580E8DE899E00E94580E0E94CA09109235
:10382000CE0E1092CD0EC2010E948E0E8091410EDE
:103830009091420E892B09F480CBD201FC91119614
:10384000EC9111971296DC9012971396EC901397C7
:103850001496FC90149715960C91159716961C913A
:1038600016971796CC902F2F277F3E2F4D2D5E2D2C
:103870006F2D702F812F9C2DA2E00E94E62B51F01E
:103880002F2FA4E10E94E62B29F0A8E20E94E62B4C
:1038900009F053CBCF0190938C10E0938D104DCB5A
:1038A00080918E1090918F10092E000CAA0BBB0BEB
:1038B000BF93AF939F938F93A2EBB5E0BF93AF936A
:1038C0005F924F920E94152C8BEC99E00E94FD11A3
:1038D000C2010E94FD1184ED99E00E94580E8DE80E
:1038E00099E00E94580E0E94CA091092CE0E1092C2
:1038F000CD0ECE01885B9E4F0E948E0E0FB6F894BF
:10390000DEBF0FBECDBF8091410E9091420E892B3C
:1039100009F413CBC85BDE4FF881C854D140C75BB4
:10392000DE4FE881C954D140C65BDE4F4881CA549E
:10393000D140C55BDE4F5881CB54D140C45BDE4FD4
:103940006881CC54D140C35BDE4F7881CD54D140E7
:103950002F2F3E2FC25BDE4F8881CE54D140C15BFA
:10396000DE4F9881CF54D1402F3F3105410551059D
:10397000610571058105910511F008F0DECACF01DE
:1039800090938E1080938F10D8CA86E09AE00E94A0
:10399000FD11809190100E94620E87E19AE00E94D2
:1039A000580E0E94BB09082E000C990B0E94FE2B9A
:1039B0008D3419F0833509F0C0CA80939010BDCAC8
:1039C00087E39AE00E94580E89E49AE00E94FD1174
:1039D000809191100E94FE118BE59AE00E94FD11EA
:1039E000809192100E94FE118DE69AE00E94580E7E
:1039F0000E94CA09EBE4FEE09F012B543E4079018E
:103A000081918032C9F3082E000C990B0E94FE2B85
:103A1000813419F400E010E005C0823409F08DCA49
:103A200001E010E0F701E45BF14F81918032E9F3AE
:103A3000082E000C990B0E94FE2B823519F086345B
:103A400009F07BCAF801EA5AFF4E83AF76CA83EBCE
:103A50009AE00E94580E86ED9AE00E94FD11609156
:103A600093107091941080919510909196100E94EF
:103A7000F31189EE9AE00E94FD1160919B10709104
:103A80009C1080919D1090919E100E94F3118CEFDC
:103A90009AE00E94580E0E94BB09082E000C990B58
:103AA0000E94FE2B813419F400E010E004C082343F
:103AB00071F701E010E084E19BE00E94580E0E9443
:103AC000CA091092CE0E1092CD0EC2010E948E0E27
:103AD0008091410E9091420E892B09F42ECAF80173
:103AE00063E0EE0FFF1F6A95E1F7EA5AFF4EFD967D
:103AF000A5C08EE39BE00E94580E87E59BE00E94E4
:103B0000FD116091A3107091A4108091A510909167
:103B1000A6100E94F31188E69BE00E94FD116091BF
:103B2000AB107091AC108091AD109091AE100E94CE
:103B3000F3118CEF9AE00E94580E0E94BB09082EE8
:103B4000000C990B0E94FE2B813419F400E010E068
:103B500004C0823471F701E010E089E79BE00E9425
:103B6000580E0E94CA091092CE0E1092CD0EC201BC
:103B70000E948E0E8091410E9091420E892B09F485
:103B8000DCC953E0000F111F5A95E1F70A5A1F4E86
:103B9000F801E35BFF4F52C08EE99BE00E94580E94
:103BA00083EB9BE00E94FD116091B3107091B41003
:103BB0008091B5109091B6100E94F31184EC9BE0B7
:103BC0000E94FD116091BB107091BC108091BD10DE
:103BD0009091BE100E94F3118CEF9AE00E94580E53
:103BE0000E94BB09082E000C990B0E94FE2B813409
:103BF00019F400E010E004C0823471F701E010E035
:103C000085ED9BE00E94580E0E94CA091092CE0ECC
:103C10001092CD0EC2010E948E0E8091410E9091A5
:103C2000420E892B09F489C943E0000F111F4A9500
:103C3000E1F70A5A1F4EF801E35AFF4FD2018C9167
:103C4000808311968C911197818312968C91129793
:103C5000828313968C911397838314968C91149777
:103C6000848315968C911597858316968C9116975B
:103C7000868317968C91878360C988E0898341E1A8
:103C800050E06CE072E0CE0102960E94062C83E4C4
:103C90008B8B41E150E064EB7DE0CE0144960E94C5
:103CA000062C1DA21EA280E88FA386E988A788E9BA
:103CB00089A71AA61BA61CA61DA61EA61FA681EED6
:103CC00088AB85EF89AB85E08AAB1BAA1CAA1DAA2D
:103CD0001EAA84E190E098AF8FAB85E090E09AAFA8
:103CE00089AF8DE48BAF82E58CAF8DAF94EC9EAF46
:103CF00089E08FAF21961FAE219722961FAE2297A3
:103D000023961FAE239724961FAE249725961FAEA9
:103D1000259726961FAE269727969FAF279728961A
:103D20008FAF289729961FAE29972A961FAE2A97FC
:103D30002B961FAE2B972C961FAE2C972D961FAE51
:103D40002D972E961FAE2E972F961FAE2F9760960B
:103D50001FAE609761961FAE619762961FAE629725
:103D600063961FAE639764961FAE649765961FAE09
:103D7000659766961FAE669767961FAE67976896BB
:103D80001FAE689769961FAE69976A961FAE6A97CD
:103D90006B961FAE6B976C961FAE6C976D961FAEB1
:103DA0006D976E961FAE6E976F961FAE6F97A0962B
:103DB0001FAEA097A1961FAEA197A2961FAEA29785
:103DC000A3961FAEA397A4961FAEA497A5961FAE69
:103DD000A597A6961FAEA697A7961FAEA797A896DB
:103DE0001FAEA897A9961FAEA997AA961FAEAA972D
:103DF000AB961FAEAB97AC961FAEAC97AD961FAE11
:103E0000AD97AE961FAEAE978DE6FE013196A6E554
:103E1000B0E101900D928A95E1F78FC885EF9BE0A4
:103E20000E94580E66E570E180E090E00E94A608CE
:103E300014C089EA9DE00E94580E8CE19CE00E942B
:103E4000580E00E010E06FEFC8010E943E2F0F5F98
:103E50001F4F0115B0E11B07B1F782E19CE00E9402
:103E6000580E05C08BE49CE00E94580E66C88091F5
:103E70007A108093CD0DA0907C10B0907D10C090F2
:103E80007E10D0907F10E0908010F0908110009113
:103E9000821010918310A092C50DB092C60DC092F1
:103EA000C70DD092C80DE092C90DF092CA0D0093D3
:103EB000CB0D1093CC0D20E030E145EA54ED68EED7
:103EC00070E080E090E00E94D82A2093D10D3093DA
:103ED000D20D4093D30D5093D40D6093D50D7093B4
:103EE000D60D8093D70D9093D80D80918410809338
:103EF000D90D809185108093DA0D80918610809382
:103F0000DB0D809187108093DC0D80918810809369
:103F1000DD0D809189108093DE0D80918A10809351
:103F2000DF0D80918B108093E00DE0908C10F0906D
:103F30008D10F092D00DE092CF0D0CE61FE0C12C59
:103F4000D12C35E7932EF801ED5AFF4F10821182E4
:103F50001282138214821582168217829C9CD001D1
:103F60009D9CB00D1124A459B04FFD013B961B96AA
:103F70001C92118212821382148215821682178279
:103F8000F80113A614A615A616A617A610AA11AA1C
:103F900012AA13AEFB96118212821382148215822A
:103FA00016821782D101DD968C91B096808311968E
:103FB0008C911197818312968C911297828313961C
:103FC0008C911397838314968C9114978483159600
:103FD0008C911597858316968C91169786831796E4
:103FE0008C911797878350968C9138968083119681
:103FF0008C911197818312968C91129782831396DC
:104000008C911397838314968C91149784831596BF
:104010008C911597858316968C91169786831796A3
:104020008C911797878350968C9138968083119640
:104030008C911197818312968C911297828313969B
:104040008C911397838314968C911497848315967F
:104050008C911597858316968C9116978683179663
:104060008C91878360E0D8018C910E940F0465E0F9
:1040700070E080E090E00E94BE0461E0F801808181
:104080000E940F0465E070E080E090E00E94BE04B2
:10409000FAE0EF16F10459F074F044E1E416F1048B
:1040A00041F058E2E516F10431F480EC05C080E4FB
:1040B00003C080E801C080E0580164E7A60EB11C8F
:1040C0008160D5018C9321E082E1CA57DE4F2883BD
:1040D000C658D1400E94E703CA57DE4F2881C65810
:1040E000D140892B81F7222311F020E0EDCFF5019B
:1040F000408161E0C8010E94400544E063E0C801DE
:104100000E94400540918E1066E0C8010E94400563
:1041100040E067E0C8010E944005D80112968C91EA
:10412000813419F48091911004C0823431F480916B
:104130009210863411F448E001C040E04368F80171
:10414000ED58FF4F408360E0C8010E9440050B58C6
:104150001F4FB8E02B0E311CCA94CD2821F0CC247F
:10416000C394D12CF0CE809190108D3409F042C0D0
:1041700061E08EE30E943E0460E08EE30E940F0443
:1041800068EE73E080E090E00E94BE0482E10E944D
:10419000E70301E0892B09F400E082E0E82EF12C2E
:1041A00010E09FE0C92ED12C82E10E94E703801726
:1041B0009107D9F4C6010197F1F7F3E3EF16F10483
:1041C0009CF72FEFE21AF20A32E3E316F10461F7EB
:1041D00089EA9DE00E94580E89EA9DE00E94580EEF
:1041E0008FE49CE00E94580EDFCF61E08EE30E94D6
:1041F0000F040CC089EA9DE00E94580E89EA9DE0F8
:104200000E94580E89E79CE00E94580E8EE30E949F
:10421000E703892BD9F31092AB0D1092AC0D1092DD
:10422000AD0D1092AE0D1092AF0D1092B00D109218
:10423000B10D1092B20D42E062E673E082E10E949D
:10424000BF0C43E067E473E08CE00E94BF0C43E0E6
:104250006CE273E08DE00E94BF0C60E08EE30E9490
:104260000F0460E08EE30E943E0489EA9DE00E9414
:10427000580E89EA9DE00E94580E80917A10823093
:1042800091F038F4882361F08130A1F487EB9CE051
:104290000FC0833059F0843069F488E19DE008C094
:1042A00081EA9CE005C085ED9CE002C088EE9CE0C0
:1042B0000E94580E809108018F7B809308018091A5
:1042C00008018F7E80930801809108018F77809389
:1042D0000801809108018F7D809308018091080179
:1042E000877F809308018FEC9EE00E94B101839745
:1042F00009F4A6C50E9499040091E90D1091EA0DF8
:104300002091EB0D3091EC0DDC01CB01801B910B6A
:10431000A20BB30B8B3F9105A105B10508F458C062
:104320000E9499046093E90D7093EA0D8093EB0D60
:104330009093EC0D2091AB0D3091AC0D4091AD0DF3
:104340005091AE0D6091AF0D7091B00D8091B10D97
:104350009091B20DA090E10DB090E20DC090E30DF0
:10436000D090E40DE090E50DF090E60D0091E70DA2
:104370001091E80D0E94DD2B31F1809108018860D9
:10438000809308017091AB0D6091AC0D5091AD0D13
:104390004091AE0D3091AF0D2091B00D9091B10DC7
:1043A0008091B20D7093E10D6093E20D5093E30D97
:1043B0004093E40D3093E50D2093E60D9093E70DC7
:1043C0008093E80D05C080910801877F80930801E4
:1043D0004EE65FE0C459DE4F59834883CC56D14046
:1043E000BFE72B2EBFE03B2E1FEB612E1FE0712E8F
:1043F0000FE9802E0FE0902EC259DE4F19821882ED
:10440000CE56D140C459DE4FA881B981CC56D14097
:1044100013968C910E94E703892B09F0E7C4C259D7
:10442000DE4FE881F981CE56D14080910801EF2B13
:1044300009F018C5806480930801809108018061AB
:1044400080930801D10158967C91589759966C91A8
:1044500059975A965C915A975B964C915B975C96EC
:104460003C915C975D962C915D975E969C915E97D2
:104470005F968C91F401708361835283438334830C
:104480002583968387838085808B8185818B828538
:10449000828B8385838B8485848B8585858B8685BC
:1044A000868B8785878B810103511109C65ADE4FA0
:1044B00019830883CA55D14060E1C8010E947D0577
:1044C000D1016D937D938D939C93139762E1C65AAE
:1044D000DE4F88819981CA55D1400E947D05F10146
:1044E000648375838683978361E1C65ADE4F888132
:1044F0009981CA55D1400E947D05D1011C966D93CA
:104500007D938D939C931F976BE1C65ADE4F8881F4
:104510009981CA55D1400E947D05F101608B718B54
:10452000828B938B6CE1C65ADE4F88819981CA5584
:10453000D1400E947D05CC59DE4F688379838A8300
:104540009B83C456D140D10154966D937D938D9336
:104550009C935797B091D10DC859DE4FB883C85678
:10456000D140E091D20DC759DE4FE883C956D14002
:10457000F091D30DC659DE4FF883CA56D140009151
:10458000D40DC559DE4F0883CB56D1401091D50DBF
:10459000C059DE4F1883C057D1402091D60DCF5857
:1045A000DE4F2883C157D1403091D70DCE58DE4F12
:1045B0003883C257D1404091D80DCD58DE4F488343
:1045C000C357D140F10184859585A685B7858C01B7
:1045D0009D0140E050E0BA01C45ADE4F8883CC55BB
:1045E000D140C35ADE4F1883CD55D140C25ADE4F59
:1045F0002883CE55D140C15ADE4F3883CF55D140A4
:10460000C05ADE4F4883C056D140CF59DE4F588341
:10461000C156D140CE59DE4F6883C256D140CD59E4
:10462000DE4F7883C356D140C859DE4FA880C856A4
:10463000D140C759DE4FB880C956D140C659DE4F68
:10464000C880CA56D140C559DE4FD880CB56D1401C
:10465000C059DE4FE880C057D140CF58DE4FF880B8
:10466000C157D140CE58DE4F0881C257D140CD58F6
:10467000DE4F1881C357D140C45ADE4F2881CC5534
:10468000D140C35ADE4F3881CD55D140C25ADE4F9A
:104690004881CE55D140C15ADE4F5881CF55D140C7
:1046A00060E070E080E090E030D7D3015896AC90A5
:1046B00058975996BC9059975A96CC905A975B96B2
:1046C000DC905B975C96EC905C975D96FC905D97B8
:1046D0005E960C915E975F961C910E94D42BCC58ED
:1046E000DE4F2883C457D140CB58DE4F3883C5579F
:1046F000D140CA58DE4F4883C657D140C958DE4F13
:104700005883C757D140C858DE4F6883C857D14037
:10471000C758DE4F7883C957D140C658DE4F8883CB
:10472000CA57D140C558DE4F9883CB57D140F101CD
:1047300080899189A289B389CC59DE4F088119817A
:104740002A813B81C456D140081B190B2A0B3B0B15
:1047500040E050E0BA01C45ADE4F0883CC55D14046
:10476000C35ADE4F1883CD55D140C25ADE4F28833D
:10477000CE55D140C15ADE4F3883CF55D140C05AB3
:10478000DE4F4883C056D140CF59DE4F5883C156C3
:10479000D140CE59DE4F6883C256D140CD59DE4F4D
:1047A0007883C356D14020E432E44FE050E060E02B
:1047B00070E080E090E0D3011896AC9018971996BD
:1047C000BC9019971A96CC901A971B96DC901B9761
:1047D0001C96EC901C971D96FC901D971E960C91B4
:1047E0001E971F961C91E0D759016A017B018C012D
:1047F000C45ADE4F2881CC55D140C35ADE4F388190
:10480000CD55D140C25ADE4F4881CE55D140C15A14
:10481000DE4F5881CF55D14060E070E080E090E0FD
:1048200074D6E091CF0DF091D00D31971F2F110F5D
:10483000110B5F01C12ED12EE12EF12E012FB8D622
:10484000C45ADE4F2883CC55D140CC59DE4F388333
:10485000C456D140C458DE4F4883CC57D140C358CA
:10486000DE4F5883CD57D140C258DE4F6883CE57B4
:10487000D140C158DE4F7883CF57D140C058DE4F6A
:104880008883C058D140CF57DE4F9883C158D1405C
:10489000F3011089B1890289F38864897589212F10
:1048A0003B2F402F5F2D86899789A0E08FD761F03D
:1048B000D10114961C93149715963C931597169650
:1048C0000C9316971796FC92A12C40E1B42E55EA52
:1048D000C52E64EDD62E78EEE72EF12C00E010E028
:1048E000C859DE4F2881C856D140C759DE4F38819C
:1048F000C956D140C659DE4F4881CA56D140C55924
:10490000DE4F5881CB56D140C059DE4F6881C05729
:10491000D140CF58DE4F7881C157D140CE58DE4FBD
:104920008881C257D140CD58DE4F9881C357D140BE
:10493000ECD5C45ADE4FA880CC55D140CC59DE4FBF
:10494000B880C456D140C458DE4FC880CC57D1403F
:10495000C358DE4FD880CD57D140C258DE4FE880D3
:10496000CE57D140C158DE4FF880CF57D140C05804
:10497000DE4F0881C058D140CF57DE4F1881C15853
:10498000D14016D6CC59DE4F2883C456D140C859E1
:10499000DE4F3883C856D140C759DE4F4883C956C9
:1049A000D140C659DE4F5883CA56D140B62FA72FE3
:1049B000C559DE4F8883CB56D140C059DE4F98830E
:1049C000C057D140F10140815181628173815A0108
:1049D0006B012481358146815781BA01A9019A0171
:1049E000AB0160E070E0CB01C45ADE4F2883CC55A8
:1049F000D140C35ADE4F3883CD55D140C25ADE4F25
:104A00004883CE55D140C15ADE4F5883CF55D1404F
:104A1000C05ADE4F6883C056D140CF59DE4F7883ED
:104A2000C156D140CE59DE4F8883C256D140CD59B0
:104A3000DE4F9883C356D1409501A60160E070E037
:104A400080E090E0C45ADE4FA880CC55D140C35AD4
:104A5000DE4FB880CD55D140C25ADE4FC880CE550A
:104A6000D140C15ADE4FD880CF55D140E12CF12C36
:104A700000E010E099D659016A017B018C01CC5904
:104A8000DE4F2881C456D140C859DE4F3881C85600
:104A9000D140C759DE4F4881C956D140C659DE4F73
:104AA0005881CA56D1406B2F7A2FC559DE4F888165
:104AB000CB56D140C059DE4F9881C057D14025D543
:104AC000E0E4AE2EF2E4BF2EAFE0CA2ED12CE12CF2
:104AD000F12C00E010E06CD559016A017B018C01DA
:104AE000CC58DE4F2881C457D140CB58DE4F388197
:104AF000C557D140CA58DE4F4881C657D140C95822
:104B0000DE4F5881C757D140C858DE4F6881C8571B
:104B1000D140C758DE4F7881C957D140C658DE4FC3
:104B20008881CA57D140C558DE4F9881CB57D140B4
:104B300026D6C45ADE4F2883CC55D140CC59DE4FFF
:104B40003883C456D140C859DE4F4883C856D14037
:104B5000C759DE4F5883C956D140C659DE4F6883C6
:104B6000CA56D140C559DE4F7883CB56D140C05983
:104B7000DE4F8883C057D140CF58DE4F9883C1574E
:104B8000D140D10158962C93589759963C935997F8
:104B90005A964C935A975B965C935B975C966C9392
:104BA0005C975D967C935D975E968C935E975F961F
:104BB0009C9305E7C259DE4FE881F981CE56D1407A
:104BC0000E9FD0010F9FB00D1124A459B04FFD01CD
:104BD0003B961B962C913181428153816481758172
:104BE00086819781A090D90DB090DA0DC090DB0D31
:104BF000D090DC0DE090DD0DF090DE0D0091DF0D2A
:104C00001091E00D82D4C45ADE4FA880CC55D1401B
:104C1000CC59DE4FB880C456D140C859DE4FC88049
:104C2000C856D140C759DE4FD880C956D140C65961
:104C3000DE4FE880CA56D140C559DE4FF880CB56CA
:104C4000D140C059DE4F0881C057D140CF58DE4F08
:104C50001881C157D140A8D5D40118962C93189724
:104C600019963C9319971A964C931A971B965C9336
:104C70001B971C966C931C971D967C931D971E96F4
:104C80008C931E971F969C931F975096AC905097AD
:104C90005196BC9051975296CC9052975396DC9077
:104CA00053975496EC9054975596FC90559756967A
:104CB0000C91569757961C91579776D558962C93EA
:104CC000589759963C9359975A964C935A975B9696
:104CD0005C935B975C966C935C975D967C935D9719
:104CE0005E968C935E975F969C93F3012081318151
:104CF000428153816481758186819781A1E048D585
:104D000020833183428353836483758386839783AF
:104D1000F101E05AFF4F408160E0C65ADE4F8881C2
:104D20009981CA55D1400E944005D3012C9111961A
:104D30003C91119712964C91129713965C91139790
:104D400014966C91149715967C91159716968C91E4
:104D5000169717969C91A2E039D5A9F1A4F18091FC
:104D60007B10882309F485C08FEC9EE00E94D3015C
:104D70001816190644F58FEC9EE00E94B1012091AF
:104D80007B10022E000C330B82179307E1F471C0E5
:104D90008130C9F4A090A70FB090A80FC090A90FC0
:104DA000D090AA0FE090AB0FF090AC0F0091AD0F38
:104DB0001091AE0F9501A601B701C801A1E006D57B
:104DC00011F00CF09EC0C259DE4F08811981CE56F9
:104DD000D14080910801012B09F0DEC28F7B8093C6
:104DE0000801809108018F7E80930801C459DE4F2D
:104DF00028813981CC56D1402B583F4FC459DE4FC2
:104E000039832883CC56D14035E7230E311C45E742
:104E1000640E711C55E7850E911CC259DE4F6881E6
:104E20007981CE56D1406130710509F45CCA61E0E8
:104E300070E0C259DE4F79836883CE56D140E2CA12
:104E40000E94550E86E79DE00E94580E0E94550E66
:104E500064E670E080E090E00E94BE040E94700270
:104E60000C94A512806880930801809108018062EB
:104E7000E7CA80917A10823041F5D40158962C917E
:104E8000589759963C9159975A964C915A975B96D8
:104E90005C915B975C966C915C975D967C915D975D
:104EA0005E968C915E975F969C910E94AC058DE416
:104EB0009DE00E94FD11C459DE4FE881F981CC5676
:104EC000D14080810E94FE117ECF833008F07CC1EA
:104ED00081115ECFF401208531854285538564853B
:104EE0007585868597850E94AC058DE49DE00E94BE
:104EF000FD11C459DE4FA881B981CC56D1408C91A7
:104F0000E1CFB0911C10C65ADE4FB883CA55D140CC
:104F1000E0911D10C45ADE4FE883CC55D140F0918A
:104F20001E10CC59DE4FF883C456D140B0911F10EB
:104F3000C859DE4FB883C856D140E0912010C759F8
:104F4000DE4FE883C956D140B0912110F091221074
:104F5000E0912310C65ADE4F2881CA55D140C45A69
:104F6000DE4F3881CC55D140CC59DE4F4881C456F4
:104F7000D140C859DE4F5881C856D140C759DE4F7D
:104F80006881C956D1407B2F8F2F9E2F1FD409F0E7
:104F90000CF419CF09D40E94AC0581E59DE0F1C065
:104FA000843008F010CFD090A70FE090A80FF090B9
:104FB000A90F0091AA0F1091AB0FB091AC0FF09117
:104FC000AD0FE091AE0F2D2D3E2D4F2D502F612FA7
:104FD0007B2F8F2F9E2FA1E0F9D309F00CF4F3CE95
:104FE00020911C1030911D1040911E1050911F10E7
:104FF00060912010709121108091221090912310C7
:10500000E5D309F00CF4DFCE2D2D3E2D4F2D502F82
:10501000612F7B2F8F2F9E2F0E94AC058BE59DE08B
:105020000E94580E20911C1030911D1040911E10AE
:1050300050911F10609120107091211080912210CA
:10504000909123100E94AC0580E69DE00E94580ECE
:1050500020911C1030911D1040911E1050911F1076
:105060006091201070912110809122109091231056
:10507000A090A70FB090A80FC090A90FD090AA0F32
:10508000E090AB0FF090AC0F0091AD0F1091AE0F10
:105090008BD3C65ADE4F2883CA55D140C45ADE4F3F
:1050A0003883CC55D140CC59DE4F4883C456D140CB
:1050B000C859DE4F5883C856D140C759DE4F688360
:1050C000C956D140C659DE4F7883CA56D140C5591A
:1050D000DE4F8883CB56D140C059DE4F9883C057EE
:1050E000D140A12C80E1B82E95EAC92E24EDD22E14
:1050F00038EEE32EF12C00E010E0209134103091D6
:1051000035104091361050913710609138107091E1
:10511000391080913A1090913B10F7D1AFEF38D30E
:1051200059016A017B018C01C65ADE4F2881CA559C
:10513000D140C45ADE4F3881CC55D140CC59DE4FD6
:105140004881C456D140C859DE4F5881C856D14015
:10515000C759DE4F6881C956D140C659DE4F7881A4
:10516000CA56D140C559DE4F8881CB56D140C0596F
:10517000DE4F9881C057D14002D30E94AC0585E62E
:105180009DE00E94580E1092A70F1092A80F109247
:10519000A90F1092AA0F1092AB0F1092AC0F1092A1
:1051A000AD0F1092AE0F10921C1010921D101092A5
:1051B0001E1010921F1010922010109221101092A9
:1051C000221010922310FFCD843009F0E9CED101D6
:1051D00013968C9113978F9312968C9112978F93AD
:1051E00011968C9111978F938C918F93A0E7BDE0CE
:1051F000BF93AF935F924F9218D3C2010E94FD11EB
:10520000D10117968C9117978F9316968C911697BC
:105210008F9315968C9115978F9314968C918F93ED
:10522000A0E7BDE0BF93AF935F924F92FED2C20161
:105230000E94FD11D1011F968C911F978F931E968E
:105240008C911E978F931D968C911D978F931C9612
:105250008C918F93A0E7BDE0BF93AF935F924F9285
:10526000E4D2C2010E94FD11D10153968C91539753
:105270008F9352968C9152978F9351968C91519710
:105280008F9350968C918F93A0E7BDE0BF93AF931F
:105290005F924F92CAD20FB6F894DEBF0FBECDBF59
:1052A000C2010E94FD11D10157968C9157978F939F
:1052B00056968C9156978F9355968C9155978F93C0
:1052C00054968C918F93A0E7BDE0BF93AF935F920C
:1052D0004F92ABD2C2010E94FD1125E7C259DE4FA9
:1052E00008811981CE56D140209FD001219FB00D59
:1052F0001124A459B04FFD013B961B965C9141814E
:10530000328123818481858186818781652F742FF5
:10531000832F922F0E94CC118CEB96E00E94FD11FE
:10532000D10158962C91589759963C9159975A9675
:105330004C915A975B965C915B975C966C915C97ED
:105340005D967C915D975E968C915E975F969C9141
:105350000E94AC058CEB96E00E94FD11F4012085C3
:1053600031854285538564857585868597850E943C
:10537000AC058DE49DE00E94FD11C459DE4FA8816B
:10538000B981CC56D1408C910E94FE110FB6F89491
:10539000DEBF0FBECDBF17CD8F7780930801809100
:1053A00008018F7D21CDCF92DF92EF92FF920F9374
:1053B0001F93CF93DF93EFECFEE01382128288EE0F
:1053C00093E0A0E0B0E084839583A683B78386E270
:1053D00092E09183808385EC90E09587848784ECCC
:1053E00090E09787868780EC90E0918B808B81ECB2
:1053F00090E0938B828B82EC90E0958B848B86EC93
:1054000090E0978B868B118E128E138E148E88E00F
:1054100080935610CCE6DFE084E090E099838883A7
:1054200081E48A838CE090E09C838B838AE090E027
:105430009E838D8386E090E098878F8384E490E05C
:105440009A87898761E084E00E943E0460E08D8154
:105450000E943E0461E08F810E943E0460E08B81E7
:105460000E943E0461E089850E943E0485E090E050
:105470009093E20F8093E10F82E48093E30F04EEB8
:105480001FE08DE090E0F8019183808386EEC82EC6
:105490008FE0D82E8BE090E0F6019183808398EE28
:1054A000E92E9FE0F92E87E090E0F7019183808359
:1054B000CAEEDFE085E490E09983888361E085E0CF
:1054C0000E943E0460E0F60180810E943E0461E09B
:1054D000F70180810E943E0460E0F80180810E9413
:1054E0003E0461E08881DF91CF911F910F91FF9081
:1054F000EF90DF90CF900C943E04EE0FFF1F881FBB
:105500008BBF0790F691E02D1994DF93CF931F93F3
:105510000F939A9DF02D219FF00D8B9DF00D8A9D8C
:10552000E02DF10D039FF00D029FE00DF11D4E9D4A
:10553000E00DF11D5E9DF00D4F9DF00D7F936F937B
:10554000BF92AF925F934F93D501F4D48B01AC011E
:10555000D701F0D4EB01E80FF91FD6011FD02F912E
:105560003F91D601E7D4C60FD71FE81FF91FAF91AF
:10557000BF9114D02F913F91DDD4C60FD71FE81FE4
:10558000F91FD601D7D4E60FF71F9801BE01CF014E
:1055900011240F911F91CF91DF910895CBD4460F25
:1055A000571FC81FD91F08F431960895689401C089
:1055B000E894F92FF12B0AF027C0A0E0B0E0E2EE6A
:1055C000FAE293C0092E05941AF479D0112392F4CB
:1055D000F0E80F26FFEFE094F09400951095B0945A
:1055E000C094D094A194BF0ACF0ADF0AEF0AFF0A41
:1055F0000F0B1F0B13D007FC62D0CDB7DEB7ECE06A
:1056000090C0689401C0E8948F929F92CF93DF93EB
:1056100005D0DF91CF919F908F9008958824992491
:10562000F401E401B0E49F93AA279A158B049C042B
:10563000ED05FE05CF05D007A10798F4AD2FDC2FAF
:10564000CF2FFE2FE92D982C892E982F872F762F7C
:10565000652F542F432F322F2227B85031F7BF9197
:1056600027C01B2EBF91BB27220F331F441F551F7E
:10567000661F771F881F991F881C991CEE1FFF1F2C
:10568000CC1FDD1FAA1FBB1F8A149B04EC05FD0560
:10569000CE05DF05A007B10748F08A189B08EC0982
:1056A000FD09CE09DF09A00BB10B21601A94E1F6C8
:1056B0002EF49401AF01BE01CD01000C0895609558
:1056C00070958095909530954095509521953F4FD8
:1056D0004F4F5F4F6F4F7F4F8F4F9F4F08952F92C8
:1056E0003F924F925F926F927F928F929F92AF9272
:1056F000BF92CF92DF92EF92FF920F931F93CF93BF
:10570000DF93CDB7DEB7CA1BDB0B0FB6F894DEBF55
:105710000FBECDBF19942A88398848885F846E846B
:105720007D848C849B84AA84B984C884DF80EE80C5
:10573000FD800C811B81AA81B981CE0FD11D0FB6CE
:10574000F894DEBF0FBECDBFED0108950F93083072
:1057500090F0982F872F762F652F542F432F322FBD
:1057600022270850F4CF220F331F441F551F661FF6
:10577000771F881F991F0A95B2F70F9108952A0D78
:105780003B1D4C1D5D1D6E1D7F1D801F911F0895CB
:105790000024A7FD00942A0F301D401D501D601DE0
:1057A000701D801D901D08952A193B094C095D0943
:1057B0006E097F09800B910B08952A153B054C0556
:1057C0005D056E057F058007910708950024A7FDFC
:1057D00000942A17300540055005600570058005C6
:1057E0009005089581E090E0F894B3C391113AC216
:1057F000803219F089508550D0F70895911108959D
:1058000081568A5108F4805285580895FB01DC01C5
:105810004150504048F001900D920020C9F701C05E
:105820001D9241505040E0F708950F931F93CF937E
:10583000DF93CDB7DEB72E970FB6F894DEBF0FBE5D
:10584000CDBF0E891F8986E08C831A8309838FEF71
:105850009FE79E838D83AE01465E5F4F688D798D95
:10586000CE01019611D02F813885F801E20FF31F88
:1058700010822E960FB6F894DEBF0FBECDBFDF911B
:10588000CF911F910F9108952F923F924F925F9267
:105890006F927F928F929F92AF92BF92CF92DF9240
:1058A000EF92FF920F931F93CF93DF93CDB7DEB7A5
:1058B0002C970FB6F894DEBF0FBECDBF7C016B01F5
:1058C0008A01FC0117821682838181FFB0C1CE015B
:1058D00001964C01F7019381F60193FD859193FFA9
:1058E00081916F01882309F49EC1853239F493FDBB
:1058F000859193FF81916F01853221F4B70190E08A
:10590000CAD1E8CF512C312C20E02032A0F48B32C8
:1059100069F030F4803259F0833269F420612CC090
:105920008D3239F0803339F4216026C02260246042
:1059300023C0286021C027FD27C030ED380F3A3042
:1059400078F426FF06C0FAE05F9E300D1124532E36
:1059500013C08AE0389E300D1124332E20620CC013
:105960008E3221F426FD5FC1206406C08C3611F40E
:10597000206802C0883641F4F60193FD859193FFBB
:1059800081916F018111C1CF982F9F7D95549330E4
:1059900028F40C5F1F4FFFE3F9830DC0833631F00D
:1059A000833771F0833509F057C021C0F801808139
:1059B00089830E5F1F4F44244394512C540114C01B
:1059C0003801F2E06F0E711CF801A080B18026FF53
:1059D00003C0652D70E002C06FEF7FEFC5012C871B
:1059E0004FD12C0183012C852F77222E16C0380130
:1059F000F2E06F0E711CF801A080B18026FF03C099
:105A0000652D70E002C06FEF7FEFC5012C872DD1AF
:105A10002C012C852068222E830123FC19C0832DA4
:105A200090E048165906A0F4B70180E290E033D127
:105A30003A94F5CFF50127FC859127FE81915F010E
:105A4000B70190E028D131103A94F1E04F1A510893
:105A50004114510479F7DEC0843611F0893631F5EE
:105A6000F80127FF07C060817181828193810C5FFB
:105A70001F4F08C060817181072E000C880B990BA5
:105A80000E5F1F4F2F76722E97FF09C0909580955D
:105A9000709561957F4F8F4F9F4F2068722E2AE03F
:105AA00030E0A40130D1A82EA81843C0853729F4CE
:105AB0002F7EB22E2AE030E025C0F22FF97FBF2ED4
:105AC0008F36C1F018F4883579F0ADC0803719F001
:105AD000883721F0A8C02F2F2061B22EB4FE0DC050
