:100000000C94D00D0C94614A0C94364A0C940B4A13
:100010000C94E0490C94B5490C948A490C945F49BE
:100020000C9434490C94BF480C9450480C94DA4713
:100030000C94010E0C94010E0C94010E0C94010E04
:100040000C94010E0C94010E0C94010E0C94010EF4
:100050000C94010E0C94010E0C94010E0C9430477C
:100060000C94010E0C94A4470C947A470C94010E46
:100070000C94010E0C94010E0C94010E0C94010EC4
:100080000C94010E0C94010E0C94010E0C94010EB4
:100090000C94010E0C94010E0C94010E0C94010EA4
:1000A0000C94010E0C94010E0C94010E0C94010E94
:1000B0000C94010E0C94010E0C94010E0C94010E84
:1000C0000C94010E0C94010E0C94010E0C94010E74
:1000D0000C94010E0C94010E0C94010E0C94010E64
:1000E0000C94010E0C94A1250C94DE190C940711AC
:1000F0000C94CE0E0C94723E0C94882C0C944D28CB
:100100000C94543E0C948C4A0C94CF460C94B30E31
:100110000C94CA0E0C94AB0E0C94A4110C94E00E2B
:100120000C9433240C94941E0C94673E0C94C12FB1
:100130000C94C00E0C941D1A0C945A3E0C94F3109F
:100140000C94A50E0C94C9460C94C6460C947623C8
:100150000C945C3E0C94C42F0C94AF0E0C94BA0E0D
:100160000C94C72F0C940C2B0C94C3460C94D80EF3
:100170000C94BE2F0C9409300C94BB2F0C941511C9
:100180000C94B82F0C94B52F0C94D20E0C942947D4
:100190000C94E50E0C94A4460C94CC460C94583E5A
:1001A0000C94FD1D0C94523E0C94E40F0C94021A16
:1001B0000C94FB250C94AE5D0C94DC0E0C94D6468E
:1001C0000C94EA0E0C94C40E0C94E60E0C94E410FD
:1001D0000C944D110C94563E0C94B70E0C94473E63
:1001E0004E414E494E495459494E46CDCCCC3D0A1C
:1001F000D7233C17B7D13877CC2B329595E6241FFF
:10020000B14F0A000020410000C84200401C4620B7
:10021000BCBE4CCA1B0E5AAEC59D744E756C6C208C
:100220004F757470757400446562756700332D43B3
:100230006F726E6572656420486174005065726902
:100240006F640054696D6520496E74657276616CE7
:10025000206368302D3E6368310042696E617279B7
:100260002054696D657374616D70005061697265C9
:10027000642054696D657374616D700054696D65B7
:100280007374616D70004655444745302063683093
:100290002F6368312070732028652E672E2C203440
:1002A000302F3430206F72203165362F3265362979
:1002B0003A200046697865642054696D6532206390
:1002C00068302F6368312070732028652E672E2CCC
:1002D0002034302F3430206F72203165362F326554
:1002E00036293A200054696D652044696C6174694F
:1002F0006F6E206368302F6368312070732028652B
:100300002E672E2C2034302F3430206F7220316530
:10031000362F326536293A200050726F706167615E
:1003200074696F6E2044656C6179206368302F6357
:1003300068312070732028652E672E2C2034302FD2
:100340003430206F72203165362F326536293A20DD
:1003500000436F61727365205469636B2070732072
:1003600028652E672E2C2031653820666F7220316B
:100370003030207573293A2000436C6F636B20483E
:100380007A2028652E672E2C2031653720666F7203
:10039000203130204D487A293A2000456E7465722C
:1003A000204564676573206368302F6368312028B7
:1003B00052206F722046293A2000456E74657220E3
:1003C000506F6C6C204368617261637465722028A1
:1003D0002D20746F20636C656172293A2000456E90
:1003E000746572204E616D6573206368302F636899
:1003F000312028616E792074776F20636861727391
:10040000293A2000456E7465722050206F72205387
:100410003A20004F757470757420446563696D618E
:100420006C20506C616365732028302E2E31322988
:100430003A200057726170204469676974732028FC
:10044000302E2E3130293A20000001040505030327
:10045000040506040506070100010003020100006F
:10046000010203040506070706050403020100074D
:100470000201000706050403020100030201000057
:100480000102030405060700010203040506070232
:100490000304050606074F4B202D2D204368616E8F
:1004A0006E656C204E616D65732025632F2563207A
:1004B00028256329202D3E2025632F25632028250C
:1004C0006329004F4B202D2D2053746172742045F9
:1004D0006467652025632563202D3E202563256301
:1004E000005741524E494E473A2046616C6C696E46
:1004F0006720656467652074726967676572206943
:100500007320756E72656C6961626C653B207573F2
:100510006520617420796F7572206F776E20726923
:10052000736B21004F4B202D2D20436F617273653B
:10053000205469636B202573202D3E202573004FC6
:100540004B202D2D20436C6F636B202573202D3E97
:10055000202573004F4B202D2D2053796E63204DA5
:100560006F6465202563202D3E202563004F4B20BE
:100570002D2D20446563696D616C20506C6163654D
:1005800073202564202D3E202564004F4B202D2D07
:100590002057726170204469676974732025642054
:1005A0002D3E20256400496E76616C6964003B2015
:1005B0006E6F7720004F4B202D2D204261756420F7
:1005C000726174652077617320004368616E6765AE
:1005D00073206B6570742E004368616E67657320CD
:1005E0006469736361726465642E0032202D204457
:1005F000697363617264206368616E67657300315B
:10060000202D204B656570206368616E67657300FF
:100610004F4B202D2D204D6F646520736574207421
:100620006F2000436F6E66696775726174696F6EE3
:10063000206368616E6765732072657175697265A4
:1006400020726573746172742E20526573746172C6
:1006500074696E672E2E2E00284368616E6765737D
:10066000206172652074656D706F72617279202DE2
:100670002077696C6C20726576657274206F6E20CD
:10068000726573746172742900526573756D696E59
:1006900067206F7065726174696F6E207769746826
:1006A000206E65772073657474696E67732E0041E0
:1006B00070706C79696E6720636F6E6669677572BA
:1006C0006174696F6E206368616E6765732E2E2E8C
:1006D000004655444745302070733A2000666978DB
:1006E000656454696D65322070733A200054696DF9
:1006F000652044696C6174696F6E2070733A2000E4
:1007000054696D656F75743A203078253032780001
:1007100050726F7061676174696F6E2044656C61BF
:10072000792070733A200043616C20506572696FC4
:1007300064733A20256400436F61727365207469A5
:10074000636B3A20256C642E2530366C64207573FB
:10075000656300436C6F636B2053706565643A207A
:10076000256C642E2530366C64204D487A00506F1D
:100770006C6C204368617261637465723A206E6FBD
:100780006E6500506F6C6C204368617261637465C4
:10079000723A20004368616E6E656C204E616D6533
:1007A000733A2025632F256320282563290053658C
:1007B0007269616C204261756420526174653A20EF
:1007C000256C750053796E634D6F64653A2025631F
:1007D000004F757470757420446563696D616C2099
:1007E000506C616365733A20256400256420287786
:1007F00072617073206174203165256420736563B4
:100800006F6E6473290025642028777261707320ED
:10081000617420256C75207365636F6E64732900A5
:10082000256420286E6F2077726170290054696DED
:10083000657374616D7020577261703A20004E7557
:100840006C6C204F75747075740044656275670038
:10085000332D436F726E6572656420486174005475
:10086000696D6520496E74657276616C20636830CD
:100870002D3E63683100506572696F640042696E95
:100880006172792054696D657374616D7000506197
:10089000697265645F54696D657374616D7000544D
:1008A000696D657374616D70004D65617375726516
:1008B0006D656E74204D6F64653A2000426F617201
:1008C000642053657269616C204E756D6265723A81
:1008D0002000454550524F4D2056657273696F6E2A
:1008E0003A2025642C20426F617264205665727331
:1008F000696F6E3A20256300536F66747761726585
:100900002056657273696F6E3A20004F4B202D2D73
:1009100020257320256C642F256C64202D3E202516
:100920006C642F256C6420707300202D2077726119
:1009300070732061742031652564207365636F6E68
:10094000647300202D2077726170732061742025FC
:100950006C75207365636F6E647300010000000A9C
:1009600000000064000000E803000010270000A061
:1009700086010040420F008096980000E1F50500D6
:10098000CA9A3B202D206E6F207772617000332051
:100990002D20526573657420616C6C20746F206427
:1009A000656661756C747320616E64207265737422
:1009B0006172740032202D204170706C7920636860
:1009C000616E67657320616E6420726573756D6515
:1009D000206F7065726174696F6E0031202D204444
:1009E000697363617264206368616E676573206117
:1009F0006E6420657869740057202D2057726974E1
:100A000065206368616E67657320746F204545508B
:100A1000524F4D2028706572736973742061637240
:100A20006F7373207265737461727473290056203A
:100A30002D2053686F77206669726D77617265202B
:100A400076657273696F6E0053202D2053686F773F
:100A5000207374617274757020696E666F004D202A
:100A60002D2053686F772074686973206D656E75EB
:100A700020616761696E0048202D205365726961AD
:100A80006C20426175642052617465202863757220
:100A900072656E746C793A200047202D204164768F
:100AA000616E6365642073657474696E6773006E4C
:100AB0006F6E65290046202D20506F6C6C204368B6
:100AC00061726163746572202863757272656E74F9
:100AD0006C793A200045202D204368616E6E656C6C
:100AE000204E616D6573202863757272656E746C3B
:100AF000793A200044202D205072696D6172792F5F
:100B00005365636F6E6461727920286375727265D4
:100B10006E746C793A200043202D204F75747075E7
:100B20007420446563696D616C20506C616365730A
:100B3000202863757272656E746C793A20004220C9
:100B40002D2054696D657374616D702057726170EA
:100B500020646967697473202863757272656E74A6
:100B60006C793A200041202D204D6F646520286368
:100B7000757272656E746C793A20003D3D2054495F
:100B8000434320436F6E66696775726174696F6E67
:100B9000203D3D00556E6B6E6F776E00437572722F
:100BA000656E74206D6F64653A20004138202D20F9
:100BB0004E756C6C204F7574707574004137202D24
:100BC000204465627567004136202D20332D436F28
:100BD000726E6572656420486174004135202D2075
:100BE000506572696F64004134202D2054696D6531
:100BF00020496E74657276616C206368302D3E63A7
:100C00006831004133202D2042696E617279205491
:100C1000696D657374616D70004132202D205061E3
:100C2000697265642054696D657374616D7000410B
:100C300031202D2054696D657374616D70002D2D08
:100C4000204D6F6465202D2D004836202D20323335
:100C50003034303020627073004835202D2031311F
:100C60003532303020627073202864656661756C9F
:100C70007429004834202D203537363030206270FA
:100C800073004833202D20333834303020627073A5
:100C9000004832202D20313932303020627073000C
:100CA0004831202D203936303020627073002D2DD0
:100CB0002053657269616C204261756420526174D1
:100CC000652053657474696E6773202D2D00473657
:100CD000202D2046554447453020707320636830EE
:100CE0002F636831202863757272656E746C793A6F
:100CF00020004735202D20666978656454696D654C
:100D000032207073206368302F6368312028637548
:100D10007272656E746C793A20004734202D20542D
:100D2000696D652044696C6174696F6E2063683019
:100D30002F636831202863757272656E746C793A1E
:100D400020004733202D2050726F706167617469F5
:100D50006F6E2044656C6179207073206368302F5A
:100D6000636831202863757272656E746C793A20FD
:100D7000004732202D20436F6172736520546963F0
:100D80006B207573202863757272656E746C793A86
:100D900020004731202D20436C6F636B205370651A
:100DA0006564204D487A202863757272656E746C94
:100DB000793A20002D2D20416476616E63656420B0
:100DC00053657474696E6773202D2D003105000022
:100DD0000000000000000000000000000000000013
:100DE0000000000000000000008808000037040236
:100DF00000000000000000000032050000000000BC
:100E000000000000000000000000000000000000E2
:100E10000000000000008808000037040200010004
:100E2000000000000000330500000000000000008A
:100E300000000000000000000000000000000000B2
:100E400000000088080000370402000200000000D3
:100E50000000003405000000000000000000000059
:100E60000000000000000000000000000000000082
:100E700088080000370402000300000000000000A2
:100E80003505000000000000000000000000000028
:100E900000000000000000000000000000880800C2
:100EA00000370402000400000000000000360500C6
:100EB0000000000000000000000000000000000032
:100EC0000000000000000000000088080000370457
:100ED00002000500000000000000370500000000CF
:100EE0000000000000000000000000000000000002
:100EF000000000000000008808000037040200061F
:100F000000000000000000380500000000000000A4
:100F100000000000000000000000000000000000D1
:100F200000000000880800003704020007000000ED
:100F3000000000003105000000000000000000007B
:100F400000000000000000000000000000000000A1
:100F500000A3080000F50302008025000000000047
:100F6000003205000000000000000000000000004A
:100F70000000000000000000000000000000A308C6
:100F80000000F5030200004B0000000000003305E4
:100F90000000000000000000000000000000000051
:100FA0000000000000000000000000A3080000F5A1
:100FB000030200009600000000000034050000005D
:100FC0000000000000000000000000000000000021
:100FD0000000000000000000A3080000F50302006C
:100FE00000E10000000000003505000000000000E6
:100FF00000000000000000000000000000000000F1
:101000000000000000A3080000F503020000C20178
:101010000000000000360500000000000000000095
:1010200000000000000000000000000000000000C0
:101030000000A3080000F503020000840300000084
:101040000000310200790340420F00000000000060
:1010500024F4000000000000000000000000008AEE
:10106000080000FF03020000000000000000003242
:101070000200510300E1F5050000000000E8764899
:1010800017000000000000000000000092080000AF
:101090000B040200000000000000000033030019F0
:1010A0000300000000000000000010A5D4E80000CC
:1010B000000000000000000000AC08000012030166
:1010C000000000000000000000340300E502000002
:1010D0000000000000000010A5D4E800000000009F
:1010E000000000000000BC0800001C03010000001C
:1010F000000000000000350300B302000000000003
:101100000000000010A5D4E800000000000000006E
:10111000000000CC0800002A0301000000000000CD
:1011200000000036030086020000000000000000FE
:101130000010A5D4E800000000000000000000003E
:10114000DC08000035030100000000000000000082
:10115000420000330400000000000000000A00000C
:10116000000000000000000000000000009E0800D9
:101170000017040000000000000000000043000011
:10118000130400000000000000000C00000000003C
:1011900000000000000000000000A0080000230480
:1011A00000000000000000000000440100040400F2
:1011B00000000000000000000000000000000050DF
:1011C00053000000000000A20800003204000000EC
:1011D00000000000000000450400DE0300000000E5
:1011E00000000000000000000000000000000000FF
:1011F00000000000A90800003C04000000000000FE
:1012000000000000460100BA0300000000000000DA
:1012100000000000000000000000000000000000CE
:1012200000890800004A04000000000000000000DF
:10123000005404009B0300000000000000000000B8
:101240000000000000005246000000000000A70857
:101250000000590400000000000000000000544994
:10126000434320436F6E66696775726174696F6E80
:101270003A2000232323232323232323232323234D
:10128000232323232323232300436F707972696769
:10129000687420323031362D32303235204E385598
:1012A000522C204B395452562C204E48365A2C2062
:1012B00057413859575100544150522054494343E3
:1012C0002054696D657374616D70696E6720436F3A
:1012D000756E74657200284368616E676573207768
:1012E000696C6C2074616B6520656666656374204B
:1012F000616674657220726573746172742900434B
:101300006F6E74696E75696E6720776974682063A3
:10131000757272656E742073657474696E67732E6E
:101320000032202D204E6F2C20636F6E74696E7515
:101330006520776974682063757272656E742073B6
:10134000657474696E67730031202D205965732CA4
:101350002072657374617274206E6F7700526573CA
:1013600074617274206E6F7720746F206170706C7E
:1013700079206368616E6765733F004368616E67DB
:101380006573207772697474656E20746F204545AB
:1013900050524F4D202877696C6C207065727369CC
:1013A0007374206163726F737320726573746172FA
:1013B00074732900454550524F4D20636C6561722E
:1013C00065642E2052657374617274696E672E2E87
:1013D0002E0053657269616C206E756D62657220B6
:1013E00077696C6C20626520726567656E657261F5
:1013F0007465642E0053657269616C206E756D6250
:1014000065722077696C6C20626520707265736507
:10141000727665642E00436C656172696E67206543
:101420006E7469726520454550524F4D2E2E2E0028
:101430004B65657020746869732073657269616CAF
:10144000206E756D6265723F2028592F4E293A2013
:101450000043757272656E742073657269616C20E9
:101460006E756D6265723A2000454550524F4D20B1
:10147000636C6561722063616E63656C6C65642E7C
:10148000005479706520275945532720746F2063D5
:101490006F6E6669726D3A20005741524E494E4751
:1014A0003A20546869732077696C6C20636F6D70A3
:1014B0006C6574656C79206572617365207468650C
:1014C00020656E7469726520454550524F4D206904
:1014D0006E636C7564696E672073657269616C20F8
:1014E0006E756D626572210044656661756C74731A
:1014F000207772697474656E2E2052657374617200
:1015000074696E672E2E2E004170706C79696E675B
:10151000206368616E67657320616E642072657315
:10152000756D696E67206F7065726174696F6E2E7C
:101530002E2E004469736361726465642063686180
:101540006E6765732E0041010001723E4D28420214
:101550000000473E0000430200005A3E00004402E3
:101560000000563E000045020000543E00004602C6
:101570000000523E0000470100015C3EFB2548018F
:101580000001673E941E4D0000000C2B000053022A
:1015900000000930000056020000FD1D0000570247
:1015A0000000A1250000580200007623000054022C
:1015B0000000583E000031030000332400003203D5
:1015C0000000332400003303000033240000340300
:1015D000000033240000556E6B6E6F776E20636FD2
:1015E0006D6D616E64003030303130323033303404
:1015F00030353036303730383039313031313132C2
:1016000031333134313531363137313831393230A7
:101610003231323232333234323532363237323896
:101620003239333033313332333333343335333685
:10163000333733383339343034313432343334346B
:101640003435343634373438343935303531353251
:101650003533353435353536353735383539363037
:101660003631363236333634363536363637363826
:101670003639373037313732373337343735373615
:1016800037373738373938303831383238333834FB
:1016900038353836383738383839393039313932E1
:1016A0003933393439353936393739383939010030
:1016B00000000A00000064000000E803000010279A
:1016C0000000A086010040420F008096980000E1D3
:1016D000F50500CA9A3B53657269616C204E756DC1
:1016E0006265723A20004E6F2073657269616C20EA
:1016F0006E756D62657220666F756E642E2E2E207B
:101700006D616B696E67206F6E65006E756C6C2025
:101710006F7574707574206D6F6465202D206E6F09
:1017200020646174610068656164657220283078A6
:1017300035352C30784141292C206368616E6E6507
:101740006C2028312062797465292C20504943731C
:10175000746F70202834206279746573292C20748A
:101760006F66202834206279746573292C204352D7
:10177000432028312062797465290042696E6172C4
:10178000792054696D657374616D70206D6F646547
:10179000202D2031322062797465206672616D657A
:1017A000733A0074696D65312074696D6532206328
:1017B0006C6F636B312063616C312063616C32202C
:1017C00050494373746F7020746F662074696D653F
:1017D0007374616D700074696D657374616D7020F0
:1017E0006368302C206368313B20696E74657276C3
:1017F000616C206368302D3E636831202873656317
:101800006F6E647320776974682000706572696F09
:101810006420287365636F6E647320776974682031
:101820000074696D6520696E74657276616C206301
:1018300068302D3E63683120287365636F6E647372
:10184000207769746820007061697265642063683C
:10185000616E6E656C2D6F726465722074696D6562
:101860007374616D7020287365636F6E6473207785
:10187000697468200020646563696D616C20706C18
:1018800061636573290074696D657374616D70209F
:10189000287365636F6E64732077697468200054E1
:1018A00079706520616E7920636861726163746527
:1018B0007220666F7220636F6E666967206D656E59
:1018C00075005449434320436F6E666967757261C2
:1018D00074696F6E3A2000232323232323232323B9
:1018E00023232323232323232323232300436F7032
:1018F00079726967687420323031362D3230323572
:10190000204E3855522C204B395452562C204E48DC
:10191000365A2C20574138595751005441505220C3
:10192000544943432054696D657374616D70696EE9
:101930006720436F756E746572004E6F20636F6E23
:1019400066696720666F756E642E20205772697411
:10195000696E672064656661756C742E2E2E005268
:10196000657374617274696E67206D6561737572F9
:10197000656D656E74732E2E2E00466C75736869E6
:101980006E672070656E64696E67206D6561737542
:1019900072656D656E7473206265666F7265206333
:1019A0006F6E6669672E2E2E0053746F7070696EAD
:1019B00067206D6561737572656D656E7473206601
:1019C0006F7220636F6E6669672E2E2E00526573EC
:1019D00074617274207265717565737465642C200E
:1019E0007265696E697469616C697A696E67207382
:1019F000797374656D2E2E2E0000002100240027BF
:101A0000002A002D0030003300010100000401070E
:101A1000010A0100002200250028002B002E0031C1
:101A200000340002010000050108010B0100002044
:101A3000002300260029002C002F003200000100A6
:101A40000003010601090105050505070508080849
:101A500008020202020A0A0808040404040101013F
:101A60000101010101030303030303030304070747
:101A7000070C0C0C0C0C0C0C0C02020202060606E5
:101A800006060606060B0B0B0B0B0B0B0B010210CD
:101A90002020080810204010204080020102010888
:101AA0000402010102040810204080804020100838
:101AB0000402018004020180402010080402010891
:101AC00004020101020408102040800102040810F1
:101AD00020408000000A0B02090C0D0E08070304C9
:101AE00001000000000000000000000000000000F5
:101AF00000000000000000000000000000000012D4
:101B000011100000000000000000000000000000B4
:101B10000000000000000000004368616E6765730C
:101B2000206469736361726465642E0032202D2025
:101B300044697363617264206368616E67657300F2
:101B400031202D204B656570206368616E67657379
:101B5000004368616E676573206B6570742E005377
:101B600061766520746F20454550524F4D2077694E
:101B700074682027572720616E6420726573746132
:101B8000727420666F72206368616E676520746F7F
:101B90002074616B65206566666563742E008C4AEF
:101BA00011241FBECFEFD1E2DEBFCDBF00E00CBFDE
:101BB00014E0A0E0B2E0E0E5FFEB00E00BBF02C004
:101BC00007900D92A436B107D9F728E0A4E6B4E057
:101BD00001C01D92AE3EB207E1F71DE0C0EDDDE0B1
:101BE00000E006C021970109802FFE010E94065DDA
:101BF000CF3CD10780E00807A9F70E94384B0C942E
:101C0000A65F0C94000020911806222361F02FB7E4
:101C1000F89430911806313049F43DB330931706EB
:101C20003DB33DBB2FBF8CBD9DBD089520931706CE
:101C3000FACFCF92DF92EF92FF926B017C01E0919D
:101C40002906F0912A0682E08083C11481EED8062D
:101C5000E104F104A1F060E079E08DE390E0A701F8
:101C600096010E94745C2150310941095109569531
:101C7000479537952795211580E13807A8F0E09121
:101C80002906F0912A06108260E874E88EE190E05F
:101C9000A70196010E94745C215031094109510944
:101CA0005695479537952795E0912506F09126069C
:101CB0003083E0912706F0912806208310923106A8
:101CC000E0912D06F0912E0686E08083E0912B06B0
:101CD000F0912C06808180618083E0912B06F09149
:101CE0002C06808188608083E0912B06F0912C0681
:101CF000808180688083E0912B06F0912C068081A2
:101D00008F7D8083FF90EF90DF90CF90089581507A
:101D1000823108F05AC0E82FF0E08827ED56F14FE5
:101D20008F4F0C94065DB30EB70EA50EAB0EAF0E23
:101D3000E50EBA0EC00EC40ECA0ECE0ED20ED80ECE
:101D4000DC0EE50EE00EE60EEA0E809180008F7745
:101D5000809380000895809180008F7DF9CF8091DD
:101D60008000877FF5CF84B58F7784BD089584B5D3
:101D70008F7DFBCF8091B0008F778093B000089566
:101D80008091B0008F7DF9CF809190008F77809304
:101D900090000895809190008F7DF9CF8091900000
:101DA000877FF5CF8091A0008F778093A000089562
:101DB0008091A0008F7DF9CF8091A000877FF5CF23
:101DC000809120018F7780932001089580912001D8
:101DD0008F7DF9CF80912001877FF5CFCF93DF935F
:101DE000282F30E0F901ED52F54E8491F901E357C7
:101DF000F54ED491F901E95BF54EC491CC23A1F0E5
:101E000081110E94870EEC2FF0E0EE0FFF1FE35DC3
:101E1000F54EA591B491EC91ED2381E090E009F4A9
:101E200080E0DF91CF91089580E090E0FACF1F939A
:101E3000CF93DF93282F30E0F901ED52F54E8491D6
:101E4000F901E357F54ED491F901E95BF54EC491E0
:101E5000CC23A9F0162F81110E94870EEC2FF0E001
:101E6000EE0FFF1FED5EF54EA591B4918FB7F8947C
:101E7000EC91111108C0D095DE23DC938FBFDF9168
:101E8000CF911F910895DE2BF8CFCF93DF9390E091
:101E9000FC01E357F54E2491895B954EFC0184913A
:101EA0008823D1F090E0880F991FFC01E750F64E8F
:101EB000A591B491FC01ED5EF54EC591D4916111EF
:101EC0000EC09FB7F8948C91E22FE0958E238C93EF
:101ED0002881E223E8839FBFDF91CF9108958FB7D8
:101EE000F894EC91E22BEC938FBFF6CF90917B00AE
:101EF000977F90937B008653806480937C008091D1
:101F00007A00806480937A0080917A0086FDFCCF0D
:101F1000809178009091790008953FB7F89480916E
:101F2000730590917405A0917505B091760526B55D
:101F3000A89B05C02F3F19F00196A11DB11D3FBF01
:101F4000BA2FA92F982F8827BC01CD01620F711DD0
:101F5000811D911D42E0660F771F881F991F4A95CA
:101F6000D1F708958F929F92AF92BF92CF92DF9256
:101F7000EF92FF924B015C010E948D0F6B017C017F
:101F80000E948D0F6C197D098E099F09683E734070
:101F900081059105A8F321E0821A9108A108B108F2
:101FA00088EEC80E83E0D81EE11CF11C8114910458
:101FB000A104B10429F7FF90EF90DF90CF90BF907C
:101FC000AF909F908F900895AF92BF92CF92DF9283
:101FD000EF92FF920F931F93CF93DF936C017B01DE
:101FE0008B01040F151FEB015E01AE18BF08C0176F
:101FF000D10759F06991D601ED91FC910190F081E2
:10200000E02DC6011995892B79F7C501DF91CF9194
:102010001F910F91FF90EF90DF90CF90BF90AF9006
:1020200008952F923F924F925F926F927F928F927C
:102030009F92AF92BF92CF92DF92EF92FF920F9357
:102040001F93CF93DF93CDB7DEB7C654D1090FB638
:10205000F894DEBF0FBECDBF922E832E742E652E58
:10206000562E472E382E292EA0E00E94D45E0CF06A
:1020700078C08DE289A3832D0E94305E922E832E3C
:10208000742E652E562E472E382E292ECE0182967E
:1020900027969FAF8EAF2797CE01019625969FAFCB
:1020A0008EAF25972596AEADBFAD25971196239699
:1020B000BFAFAEAF23978AE0A82EB12CC12CD12C94
:1020C000E12CF12C00E010E0292D382D472D562D64
:1020D000652D742D832D922D0E94A05D205D259687
:1020E000EEADFFAD25972083292D382D472D562D98
:1020F000652D742D832D922D0E94A25D922E832E2C
:10210000742E652E562E472E382E292E23968EADF0
:102110009FAD239725969FAF8EAF2597292D382DFC
:10212000472D562D652D742D832D922DA0E00E94F4
:10213000D45E09F0B7CF2796EEADFFAD27979E018D
:102140002F5F3F4FAF012396AEADBFAD23972A1748
:102150003B0780F48E912396BFAFAEAF2397819358
:10216000F1CFA0E00E94D45E41F580E389A3AE01E7
:102170004E5D5F4FBE016F5D7F4F461B570B89E180
:1021800096E00E94E40FCA5BDF4F0FB6F894DEBF03
:102190000FBECDBFDF91CF911F910F91FF90EF90B8
:1021A000DF90CF90BF90AF909F908F907F906F9077
:1021B0005F904F903F902F900895FE01B196279623
:1021C000FFAFEEAF279768CFFC01538D448D252FCD
:1021D00030E0842F90E0821B930B541710F0CF96C1
:1021E000089501970895FC01918D828D981761F0F3
:1021F000A28DAE0FBF2FB11D5D968C91928D9F5F0A
:102200009F73928F90E008958FEF9FEF0895FC01E8
:10221000918D828D981731F0828DE80FF11D858D9B
:1022200090E008958FEF9FEF0895FC01918D228D2E
:10223000892F90E0805C9F4F821B91098F739927B3
:10224000089589E196E00E94151121E0892B09F497
:1022500020E0822F0895FC01A48DA80FB92FB11D95
:10226000A35ABF4F2C91848D90E001968F739927CC
:10227000848FA689B7892C93A089B1898C918370AA
:1022800080648C93938D848D981306C00288F389A3
:10229000E02D80818F7D80830895EF92FF920F93D0
:1022A0001F93CF93DF93EC0181E0888F9B8D8C8D02
:1022B00098131AC0E889F989808185FF15C09FB7F6
:1022C000F894EE89FF896083E889F98980818370B9
:1022D000806480839FBF81E090E0DF91CF911F9168
:1022E0000F91FF90EF900895F62E0B8D10E00F5F89
:1022F0001F4F0F731127E02E8C8D8E110CC00FB65F
:1023000007FCFACFE889F989808185FFF5CFCE01F6
:102310000E942B11F1CFEB8DEC0FFD2FF11DE35A35
:10232000FF4FF0829FB7F8940B8FEA89FB89808179
:102330008062CFCF682F89E196E00C944D11682F11
:1023400089E196E00C944D11CF93DF93EC01888DD9
:102350008823B9F0AA89BB89E889F9898C9185FD20
:1023600003C0808186FD0DC00FB607FCF7CF8C91AE
:1023700085FFF2CF808185FFEDCFCE010E942B112A
:10238000E9CFDF91CF91089589E196E00E94A411F1
:10239000E9E1F6E0A289B3898C918F7E8C93A289C2
:1023A000B3898C91877F8C93A289B3898C918F7725
:1023B0008C93A289B3898C918F7D8C93828D818F30
:1023C000089580E090E0892B29F00E94211181116D
:1023D0000E94000080E090E0892B49F080E090E0CE
:1023E000892B29F00E94000081110E94000080E0EA
:1023F00090E0892B49F080E090E0892B29F00E9441
:10240000000081110E94000080E090E0892B49F0DB
:1024100080E090E0892B29F00E94000081110C944B
:10242000000008952F923F924F925F926F927F9299
:102430008F929F92AF92BF92CF92DF92EF92FF92D4
:102440000F931F93CF93DF93CDB7DEB72F970FB6C0
:10245000F894DEBF0FBECDBFFC017F876E875C871F
:102460004B87108211821282138214821582168287
:1024700017821086118612861386DB01AB2B09F4B6
:10248000D0C0DA01AB2B09F4CCC0DB018D909D905C
:10249000AD90BC90DA014D905D906D907C90DB0129
:1024A00014962C90149715963C9015971696CC90F0
:1024B00016971796DC9017971896EC901897199620
:1024C000FC9019971A960C911A971B961C91DA0199
:1024D00014962C91149715963C91159716964C913D
:1024E000169717965C91179718966C9118971996EE
:1024F0007C9119971A968C911A971B969C9184142B
:102500009504A604B70409F4A6C0B1E0B983481441
:1025100059046A047B040CF4A6C01982AB85BC85FF
:102520004D905D906D907C90AE85BF854D915D9195
:102530006D917C91441A550A660A770AAB85BC8571
:1025400014963C9014971596BC91BA83AB85BC85C4
:102550001696BC91BB83AB85BC851796BC91BC839A
:10256000AB85BC851896BC91BD83AB85BC8519969F
:102570008C9019971A969C901A971B962C90AE8562
:10258000BF851496BC91BD87AE85BF851596BC915D
:10259000BB87AE85BF851696BC91BE83AE85BF85D1
:1025A0001796BC91BF83AE85BF851896BC91B8873E
:1025B000AE85BF851996BC91B987AE85BF851A9641
:1025C000BC91BA87AE85BF851B96BC91BE87232D73
:1025D0003A814B815C816D81782D892D922DAD845E
:1025E000BB84CE80DF80E884F9840A851B2F0E949B
:1025F000CB5E08F441C00E94C25E59016A017B01B2
:102600008C01A981AA2309F456C0408251826282BA
:102610007382A482B582C682D782E086F186028761
:102620001387CF012F960FB6F894DEBF0FBECDBF34
:10263000DF91CF911F910F91FF90EF90DF90CF909E
:10264000BF90AF909F908F907F906F905F904F90D2
:102650003F902F900895A1E0A98351010E94CB5E85
:1026600011F008F05ACF9B858C85AE85BF85BC875D
:10267000AB879E878F8752CF3A814B815C816D817A
:10268000305F4A455B4267417F4F8F4F9F4FAD841C
:10269000BB84CE80DF80E884F9840A851E850E9491
:1026A000C25E59016A017B018C0121E0421A510886
:1026B00061087108A6CF9501A601B701C801A0E085
:1026C0000E94D45E69F47094609450944094411CCC
:1026D000511C611C711C4082518262827382A1CFA5
:1026E000D301C20180959095A095B0958083918388
:1026F000A283B38320E030E145EA54ED68EE70E058
:1027000080E090E00E94C25E248335834683578335
:10271000608771878287938784CF8091180688238A
:1027200061F09FB7F8942091180680911706213028
:1027300019F48DBB9FBF08958FBF08950F931F930A
:10274000CF93DF938C01C62FD42F80E591E00E94B8
:10275000030E60E0F80187810E94170FC064CD2747
:10276000DC27CD270CB405FC17C0DEBD00000DB47E
:1027700007FEFDCF8EB5CEBD00000DB407FEFDCF28
:102780008EB561E0F80187810E94170FDF91CF912C
:102790001F910F910C948D13CEBD00000DB407FE58
:1027A000FDCF8EB5DEBD00000DB407FEFDCFE8CF36
:1027B000FC01EF56FF4F408160E00C949E138EBDEC
:1027C00000000DB407FEFDCF8EB50895CF92DF92C5
:1027D000EF92FF920F931F93CF93DF938C01C62F3D
:1027E000D42EF52EE22E80E591E00E94030EF80132
:1027F0008281803309F049C080910201877F8093F4
:1028000002018C2F80680E94DF13CD2DDF2DF12C6B
:1028100080E00E94DF13C82E80E00E94DF13D82ED4
:1028200080E00E94DF134C2D50E070E060E0BA01C0
:1028300055274427480F511D611D711D8D2D90E0B6
:10284000982F8827480F591F611D711D499359936F
:1028500069937993F394EF10DBCFF8018281803391
:10286000C1F4809102018860809302010E948D135F
:102870008FE090E00197F1F7DF91CF911F910F91D9
:10288000FF90EF90DF90CF900895809102018F7EAE
:10289000B6CF809102018061E7CF1F93CF93DF9382
:1028A000EC0180E591E00E94030E60E08F810E94C0
:1028B000170F82E00E94DF1380E00E94DF13182FC1
:1028C00061E08F810E94170F0E948D13412F62E0FB
:1028D000CE01DF91CF911F910C949E132F923F92C6
:1028E0004F925F926F927F928F929F92AF92BF9220
:1028F000CF92DF92EF92FF920F931F93CF93DF93CC
:10290000CDB7DEB7AA970FB6F894DEBF0FBECDBF26
:102910001C0123E0AE014F5F5F4F60E10E94E613B0
:1029200089819A81AB81BC81F101838B948BA58BCA
:10293000B68B8D819E81AF81B885878F90A3A1A32F
:10294000B2A389859A85AB85BC85878B908FA18F33
:10295000B28F22E0AE014F5F5F4F6BE1C1010E9479
:10296000E613A980BA80CB80DC80D1019396AD922A
:10297000BD92CD92DC9296974D805E806F80788478
:102980004D865E866F86788A97964D925D926D929F
:102990007C929A9753964D905D906D907C9056974F
:1029A0004BA25CA26DA27EA257969C905797589618
:1029B000BC91B98FF101818CE28C478C50A061A051
:1029C00072A0E059FF4FF08001811281B3816481D0
:1029D00075812F2D302F412F5B2F86819781A0E0AD
:1029E0000E94D45E09F07FC1998AF98DFA8B8B8A97
:1029F000EC8AE0901105ED8EF0901205FE8E80902D
:102A0000130590901405009115050F8F1091160570
:102A100018A32091170529A3309118053AA3A30103
:102A20009201B701C4010E94F65CF101E858FF4F22
:102A300000811181228133812B013C01401A510A0E
:102A4000620A730A498E5A8E6B8E7C8E70978081D3
:102A50009181A281B38120E432E44FE050E0281B51
:102A6000390B4A0B5B0B80910F0590911005019774
:102A70002C01990F66087708411451046104710410
:102A800021F4412C512C320143946D857E858F8534
:102A900098896A197B098C099D090E94665D690104
:102AA0004FA358A769A77AA75C01C301B20122E02E
:102AB00030E040E050E00E94425C79018A01550F0D
:102AC000220B322FA9012D873E874F87588B960105
:102AD0004FA158A569A57AA5C50157016801ED84E4
:102AE000FE2C0E2D1E2D0E94AD5E63015201DD0CE9
:102AF000AA08BA2C6501AD86BE86CF86D88A520157
:102B00006301ED84FE2C0E2D1E2D0E94A25D2D87EB
:102B10003E874F87588B4D845E846F847888452824
:102B20004628472841F4412C512C320143944D86CC
:102B30005E866F86788A8BA19CA1ADA1BEA14988D3
:102B40005A886B887C8884199509A609B7092C01D5
:102B50003D01770C4408542C3201AD8CBE8C6401CD
:102B6000EF8CF8A009A11AA19C01AD01642D742D70
:102B7000842D942D0E940E5D722E832E942EB52FDF
:102B8000F62FE72F582E692EA0E00E94D45E09F49C
:102B900053C04D855E856F85788976956795579585
:102BA00047955A016B01E12CF12C8701498BBA8AB8
:102BB0006B8BDC8AED8AFE8A0F8B188F10E4A12EB6
:102BC00002E4B02E4FE0C42ED12CE12CF12C00E019
:102BD00010E0492D5B2F6F2F7E2F0E940E5D590153
:102BE0006A017B018C0129893A894B895C8960E003
:102BF00070E080E090E00E94AD5ECD84DE84EF84E2
:102C0000F88856016701E12CF12C8701A98ABA8A5C
:102C1000CB8ADC8AED8AFE8A0F8B188FE12CF12C8F
:102C200000E010E00E94A25D722E832E942EB52F3C
:102C3000F62FE72F582E692EC98CDA8CEB8CFC8C82
:102C4000FF0CCC08DC2C7601298D3A8D4B8D5C8DE8
:102C50006C2D7C2D8C2D9C2DA72CB82CC92CDB2EFB
:102C6000EF2EFE2E052D162D0E94AD5ED1019B96F6
:102C70002C939B979C963C939C979D964C939D97E9
:102C80009E965C939E979F966C939F97D0967C930D
:102C9000D097D1968C93D197D2969C93C1010E94E4
:102CA0004D14F10123A534A545A556A567A570A926
:102CB00081A992A9AA960FB6F894DEBF0FBECDBF28
:102CC000DF91CF911F910F91FF90EF90DF90CF9008
:102CD000BF90AF909F908F907F906F905F904F903C
:102CE0003F902F900895F98A0A8B1B8BBC8B81CE65
:102CF000CF92DF92EF92FF920F931F93CF93DF93C8
:102D0000CDB7DEB72C970FB6F894DEBF0FBECDBFA0
:102D10008C010E946E14D8019B962C939B979C96D5
:102D20003C939C979D964C939D979E965C939E9703
:102D30009F966C939F97D0967C93D097D1968C93C7
:102D4000D197D2969C9369017A01C8010E94D81349
:102D500085E589838AEA8A83F801E057FF4F8081FD
:102D60008B83F894F801738564855585468587853E
:102D70008089818982899B01CA0178943C832D8353
:102D80009E838F83C886D986EA86FB86FE013396AA
:102D9000AE01445F5F4F80E06CE8E417F50781F017
:102DA0009191892798E0282F30E03595279580FF6D
:102DB00005C0822F86279150B1F7EFCF822FFBCF2E
:102DC0008C8789E196E00E94E4100C97D4F34CE0E4
:102DD00050E0BE016F5F7F4F89E196E00E94E40FF3
:102DE000D8011B967C911B971C966C911C971D9685
:102DF0005C911D971E964C911E971F963C911F97B4
:102E000050962C91509751969C91519752968C9137
:102E10005297F801E058FF4F7083618352834383D8
:102E20003483258396838783E554F109DB962C91BF
:102E30003181428153816481758186819781A1E0CE
:102E40000E94B65ED801DB962C9331834283538374
:102E5000648375838683978381E02C960FB6F894FC
:102E6000DEBF0FBECDBFDF91CF911F910F91FF90BD
:102E7000EF90DF90CF9008952F923F924F925F9204
:102E80006F927F928F929F92AF92BF92CF92DF927A
:102E9000EF92FF920F931F93CF93DF93CDB7DEB7DF
:102EA00064970FB6F894DEBF0FBECDBF9A8B898BA7
:102EB000280139014A011B01DC019B968C919B97EB
:102EC000D3968C93D3979C968C919C97D4968C9305
:102ED000D4979D968C919D97D5968C93D5979E96D9
:102EE0008C919E97D6968C93D6979F968C919F9710
:102EF000D7968C93D797D0968C91D097D8968C9361
:102F0000D897D1968C91D197D9968C93D997D29600
:102F10008C91D297DA968C93DA97AC5ABF4FE989A5
:102F2000FA89E85BFF4FFC83EB838CE001900D9204
:102F30008A95E1F789899A890E946E14A989BA89CC
:102F40009B962C939B979C963C939C979D964C9319
:102F50009D979E965C939E979F966C939F97D09615
:102F60007C93D097D1968C93D197D2969C93D297FD
:102F7000CD010E94D813F894E989FA892385348514
:102F8000458556856785708981899289E058FF4F0C
:102F9000A080B180C280D380E480F5800681178153
:102FA000208331834283538364837583868397832D
:102FB00078940E94C25E52016301740181010E94F3
:102FC0000E5DA989BA899B96AC909B979C96BC9004
:102FD0009C979D96CC909D979E96DC909E979F96F1
:102FE000EC909F97D096FC90D097D1960C91D1976A
:102FF000D2961C91D2970E94C25ED396AC90D39782
:10300000D496BC90D497D596CC90D597D696DC9094
:10301000D697D796EC90D797D896FC90D897D99614
:103020000C91D997DA961C910E94AD5E522E632EB8
:10303000742E852E962E7983482EB92FA0E00E94FB
:10304000D45E0CF452C0E989FA89E45BFF4FA0809A
:10305000B180C280D380E480F580068117810E9410
:10306000AD5E20833183428353836483758386837B
:103070009783E080F18002811381C480D580B6817E
:10308000B7809701A801B6018B2F9B2D2F3FAFE092
:103090003A07A5EA4A07A4ED5A07A8EE6A077105A0
:1030A0008105910509F008F475C03051454A544D29
:1030B000684E7109810991092083318342835383CA
:1030C0006483758386839783AB81BC814D915D91C9
:1030D0006D917C9113974F5F5F4F6F4F7F4F4D9373
:1030E0005D936D937C931397C4CF7981842D9B2F2F
:1030F0000E94305E29873A874B875C876D877E8781
:103100008F87988B29883A88ECE42E0E311CF101C8
:10311000F081FB8BF101F181FC8BF101A281F38144
:10312000FA83F101F481FD83F101F581FE83F10160
:10313000F681FF83F101F781F887AB88BC88CA2E3E
:10314000DA80ED80FE800F811F2F0E94CB5E11F090
:1031500008F05BC0252D362D472D582D692D79811E
:10316000842D9B2F0E94AD5ED1012C9311963C9330
:10317000119712964C93129713965C93139714968B
:103180006C93149715967C93159716968C931697B7
:1031900017969C93E989FA89E95BFF4F81E0808368
:1031A000E989FA89FB96A989BA89DB962C91318144
:1031B000428153816481758186819781A1E00E945B
:1031C000B65EA989BA89DB962C93318342835383F7
:1031D000648375838683978364960FB6F894DEBF05
:1031E0000FBECDBFDF91CF911F910F91FF90EF9058
:1031F000DF90CF90BF90AF909F908F907F906F9017
:103200005F904F903F902F90089529853A854B8588
:103210005C856D857E858F859889AB88BC88DA80D2
:10322000ED80FE800F8118850E94C25E29013A015F
:103230004B0189839A83A12C20E1B22E35EAC32E5B
:1032400044EDD42E58EEE52EF12C00E010E0920172
:10325000A3010E94D35DA1E00E94B65E59016A01FC
:10326000EB81FC8180819181A281B3818A199B09C4
:10327000AC09BD0980839183A283B383A12C60E153
:10328000B62E75EAC72EE4EDDE2EF8EEEF2EF12C09
:1032900000E010E09201A301B40189819A810E94AB
:1032A000D15D59016A017B018C0120E030E145EAE2
:1032B00054ED68EE70E080E090E00E94C25E54CF72
:1032C000CF93DF93EC010E944D14FE01EF56FF4FA8
:1032D00040814E7F60E0CE010E949E136AE070E064
:1032E00080E090E00E94B20FCE010E944D14CE010A
:1032F0000E94D8131B8A1C8A1D8A1E8A1F8A188E58
:10330000198E1A8E1B8E1C8E1D8E1E8E1F8E18A25D
:1033100019A21AA21BA21CA21DA21EA21FA218A6BD
:1033200019A61AA61BA61CA61DA61EA61FA618AA8D
:1033300019AA1AAA1BAA1CAA1DAA1EAA1FAA18AE5D
:1033400019AE1AAEFE01ED5BFF4F108211821282A0
:103350001382349610823196108211821282138267
:103360003496108211821282138214821582168280
:10337000178238961082118212821382349610823C
:103380001182128213821482158216821782B896D5
:103390001082118212821382148215821682178281
:1033A00038961082118212821382C457DF4F18821E
:1033B00019821A821B82DF91CF91089520915605C0
:1033C00030915705409158055091590560915A0523
:1033D00070915B0580915C0590915D05A1E00E9474
:1033E000B65E209356053093570540935805509389
:1033F000590560935A0570935B0580935C05909323
:103400005D050895709156056091570550915805D6
:103410004091590530915A0520915B0590915C05CA
:1034200080915D05E6EBF6E07387648755874687F4
:103430003787208B918B828B089570915605609110
:103440005705509158054091590530915A052091E2
:103450005B0590915C0580915D05E4E5F7E0708384
:1034600061835283438334832583968387830895BE
:103470002F923F924F925F926F927F928F929F9284
:10348000AF92BF92CF92DF92EF92FF920F931F9372
:10349000CF93DF93CDB7DEB72C970FB6F894DEBF8E
:1034A0000FBECDBF29833A834B835C836D837E83BC
:1034B0008F8398871801FA86E98680EAA82E97EF0D
:1034C000B92E66ECC62E70E1D72EE12CF12C00E06F
:1034D00010E060E070E080E090E00E940E5D00E1AE
:1034E0000E94925E29013A014B018C879B872981BA
:1034F0003A814B815C816D817E818F81988500E26C
:103500000E94925E00E00E940E5D00E10E94775EE4
:1035100059016A017B018C019201A301B4018C85E0
:103520009B850E94AD5E00E20E94925E422E532E69
:10353000642E752EA301920160E472E48FE090E0A6
:103540000E94F65C29813A814B815C81261B370BF6
:10355000480B590BDA01C901803432E493073FE08C
:10356000A307B10548F04FEF441A540A640A740ADD
:1035700080549244AF40B109F1014082518262828D
:103580007382E985FA8580839183A283B3832C9625
:103590000FB6F894DEBF0FBECDBFDF91CF911F9164
:1035A0000F91FF90EF90DF90CF90BF90AF909F90E2
:1035B0008F907F906F905F904F903F902F900895E5
:1035C000DB0141505109FC012491222349F001966D
:1035D000FD01E61BF70BE417F50710F42D93F3CF6D
:1035E0001C920895CF93DF93DC01FB01EA018991DE
:1035F000AE01208131818823E1F022303105C8F00D
:103600002D913C911197C901019611969C938E932F
:10361000CE010197EC018881E9018883CD91DC918D
:103620001197188220813181215031093183208303
:10363000DDCF81E02230310508F480E0DF91CF91C9
:1036400008954F925F926F927F92AF92BF92CF9206
:10365000DF92EF92FF920F931F93CF93DF9300D0EF
:1036600000D000D01F921F92CDB7DEB78C017B0136
:1036700057FF21C0DB018D919C91029708F457C040
:10368000D801ED91FC911197CF01019611969C9371
:103690008E938DE28083ED91FC911082FB018081FD
:1036A0009181019791838083509540953095219524
:1036B0003F4F4F4F5F4FCA01B9011B866E01FBE0C0
:1036C000CF0ED11C2AE0422E512C612C712C9E0170
:1036D0002F5F3F4F5901A30192010E94745C605D0E
:1036E000D6016E936D01B901CA016115710581059D
:1036F000910519F0AA16BB0671F7A601B701C8011A
:103700000E94F21A2B960FB6F894DEBF0FBECDBF03
:10371000DF91CF911F910F91FF90EF90DF90CF90AD
:10372000BF90AF907F906F905F904F90089580E032
:10373000E9CFCF93DF93EC01DB012D913C91119701
:1037400022303105D0F0FA0184914F5F5F4F88231A
:10375000A1F0E881F9819F012F5F3F4F39832883D2
:103760008083E881F98110822D913C91119721503D
:10377000310911963C932E93E0CF81E02230310540
:1037800008F480E0DF91CF910895AF92BF92CF927D
:10379000DF92EF92FF920F931F9380916D0581113D
:1037A0006FC020918A0830918B0840918C0850910D
:1037B0008D0860918E0870918F08A0900208B090DB
:1037C0000308C0900408D0900508E0900608F09027
:1037D00007080091080810910908809190089091BD
:1037E00091080E94CB5E09F04BC020919208309165
:1037F00093084091940850919508609196087091B3
:103800009708A0900A08B0900B08C0900C08D090C0
:103810000D08E0900E08F0900F080091100810912C
:10382000110880919808909199080E94CB5E41F50B
:1038300020919A0830919B0880911208909113086A
:1038400028173907E9F49091A70880911F08981369
:1038500017C09091A80880912008981311C081E0AA
:103860002091A20890911A08291301C080E01F91AD
:103870000F91FF90EF90DF90CF90BF90AF900895A1
:1038800081E0F5CF88E8E4E6F8E0ACEDB7E0019040
:103890000D928A95E1F7109262050895082E000CAA
:1038A000990B0E949A1189E196E00C94A411CF9291
:1038B000DF92EF92FF920F931F93CF93DF938C01D0
:1038C0006B01D0E0C0E089E196E00E941511892BE0
:1038D00039F461E070E080E090E00E94B20FF3CF35
:1038E00089E196E00E94F3108D309105B1F42097A4
:1038F00031F08DE00E944E1C8AE00E944E1CF801BF
:10390000EC0FFD1F1082CE01DF91CF911F910F911F
:10391000FF90EF90DF90CF9008958A30910539F3B2
:103920008830910519F08F37910569F4209759F285
:10393000219788E00E944E1C80E20E944E1C88E085
:103940000E944E1CC0CF7E012FEFE21AF20AEC1447
:10395000FD0408F0B8CFC00FD11F88830E944E1C11
:10396000E701B1CF9EEF980F923008F4A5C09EEE0C
:10397000980F943008F4A0C090E0FC01E357F54E96
:103980002491FC01E95BF54E3491433009F038C0D5
:10399000323031F540918704422B40938704875B96
:1039A0009B4FFC01A491323009F043C0B0E0AA0F54
:1039B000BB1FAA58BB4F6D937C93E1E3FAE1A5913D
:1039C000B4918C91809388048BE690E09093650489
:1039D00080936404809168008160809368004AC08D
:1039E0003A3031F440919904422B40939904D7CF57
:1039F0003B30A9F64091AC04422B4093AC04CFCFAE
:103A0000323031F440918604422B40938604C7CF74
:103A10003A3031F440919804422B40939804BFCF40
:103A20003B3009F0BCCF4091AB04422B4093AB0438
:103A3000B6CF3A3039F5B0E0AA0FBB1FA757BB4F3E
:103A40006D937C93E1E4FAE1A591B4918C9180931C
:103A50009A048CE690E090936504809364048091CE
:103A6000680082608093680080919704822B809325
:103A70009704220FA0916404B0916504EC912E2B61
:103A80002C9308953B30B1F7B0E0AA0FBB1FA556A9
:103A9000BB4F6D937C93E3E4FAE1A591B4918C91D3
:103AA0008093AD048DE690E0909365048093640468
:103AB00080916800846091CF9FB7F894833069F15A
:103AC0008231A1F0823039F570936F0460936E04F7
:103AD000EC9880916A008C7F80936A0080916A00E4
:103AE000482B40936A00E49AEC9A15C070936D04D9
:103AF00060936C04EB98809169008F7380936900E8
:103B000080916900F0E44F9FA0011124482B40935D
:103B10006900E39AEB9A9FBF0895709371046093D4
:103B20007004ED9880916A00837F80936A00809191
:103B30006A0024E0429FA0011124482B40936A00B0
:103B4000E59AED9AE8CFFC0101900020E9F7319762
:103B5000AF01481B590BBC0189E196E00C94E40FBE
:103B60000C94A31D84E492E00E94B01D82EF92E0C9
:103B70000E94B01D89E196E00C94A4110F931F934D
:103B8000CF93DF938C0184E492E00E94B01DE801A2
:103B9000FE0184912196882331F0082E000C990BA8
:103BA0000E949A11F5CF89E196E0DF91CF911F91A4
:103BB0000F910C94A411CF93DF93D0E0C0E0009755
:103BC00019F00E94A31DEC0187E492E00E94A31D5E
:103BD0008C0F9D1FDF91CF910895CF93DF93EC0160
:103BE00084E492E00E94B01DCE010E94DB1D89E1B9
:103BF00096E0DF91CF910C94A4110F931F93CF9374
:103C0000DF93CDB7DEB7C458D1090FB6F894DEBF45
:103C10000FBECDBF19828E010F5F1F4FCF57DF4FF1
:103C200019830883C158D04080E890E0CD57DF4F1A
:103C300099838883C358D0404AE452E0BE016D574F
:103C40007F4FCE018F579F4F0E94F21A41E252E000
:103C5000BE016D577F4FCE018F579F4F0E94F21AC2
:103C60004DE552E0BE016D577F4FCE018F579F4FFC
:103C70000E94F21A49E152E0BE016D577F4FCE011A
:103C80008F579F4F0E94F21ACD57DF4F888199813D
:103C9000C358D040029720F1CF57DF4FE881F98118
:103CA000C158D040CF010196CF57DF4F9983888309
:103CB000C158D04089E28083CF57DF4FE881F98136
:103CC000C158D0401082CD57DF4F88819981C358A9
:103CD000D0400197CD57DF4F99838883C358D04098
:103CE00040E652E0BE016D577F4FCE018F579F4F88
:103CF0000E94F21A47E758E0BE016D577F4FCE0190
:103D00008F579F4F0E94F21AC8010E94ED1D81E05B
:103D1000CC57DF4F0FB6F894DEBF0FBECDBFDF919B
:103D2000CF911F910F910895CF93DF93CDB7DEB759
:103D3000C058D1090FB6F894DEBF0FBECDBF89E4DD
:103D400092E00E94ED1D40E850E0BE016F5F7F4FA2
:103D50008EEA9CE00E94E01ACE0101960E94ED1DC1
:103D600040E850E0BE016F5F7F4F80EA9CE00E9418
:103D7000E01ACE0101960E94ED1D40E850E0BE0120
:103D80006F5F7F4F81E99CE00E94E01ACE010196AF
:103D90000E94ED1D40E850E0BE016F5F7F4F82E85A
:103DA0009CE00E94E01ACE0101960E94ED1D40E8C1
:103DB00050E0BE016F5F7F4F83E79CE00E94E01AF6
:103DC000CE0101960E94ED1D40E850E0BE016F5FFC
:103DD0007F4F89E59CE00E94E01ACE0101960E9487
:103DE000ED1D40E850E0BE016F5F7F4F89E49CE02D
:103DF0000E94E01ACE0101960E94ED1D89E492E036
:103E00000E94ED1DC058DF4F0FB6F894DEBF0FBE05
:103E1000CDBFDF91CF9108950F931F93CF93DF9381
:103E20008C0184E492E00E94B01DE801FE018491BF
:103E30002196882331F0082E000C990B0E949A11CC
:103E4000F5CF87E492E00E94A31D89E196E0DF911F
:103E5000CF911F910F910C94A41180916D05811148
:103E600023C00E94C51B882351F083E296E00E9484
:103E70000C1F68EE73E080E090E00C94B20F80912C
:103E80006205882371F08FEA96E00E940C1F109261
:103E9000620589E896E00E940C1F88E596E00C9484
:103EA0000C1F89E896E0FBCF0895CF93DF939C0128
:103EB000D9019C912F5F3F4F9032D1F39930C1F3DC
:103EC000FD0101900020E9F73197EF01AE17BF0720
:103ED00028F482918032C9F38930B9F31882CD0178
:103EE000DF91CF910895CF93C82F87E995E00E9485
:103EF000ED1D8FE59BE10E940C1F89E492E00E947A
:103F0000ED1DC11107C081E59BE10E940C1F81E0FE
:103F1000CF91089580E49BE10E940C1F8CE29BE10D
:103F20000E940C1F0E94B21D89E196E00E941511AB
:103F3000181619062CF489E196E00E94F310F4CFCC
:103F400060E270E087E795E00E94571C87E795E004
:103F50000E94551FFC0180818233A9F689E19BE113
:103F60000E940C1F80E0D4CF8F929F92AF92BF929D
:103F7000CF92DF92EF92FF920F931F93CF93DF9335
:103F8000CDB7DEB7A1970FB6F894DEBF0FBECDBF99
:103F90006C01990FEE08FF08F7FE3FC08DE20E940A
:103FA0009F118C0122273327A9012C193D094E09A5
:103FB0005F0919A2CE0181967C019AE0892E912C8D
:103FC000A12CB12CCA01B901A50194010E94745C15
:103FD000605DF70162937F012115310541055105AF
:103FE00089F790E080E0309719F0CF010E94A31D7F
:103FF000800F911FA1960FB6F894DEBF0FBECDBF04
:10400000DF91CF911F910F91FF90EF90DF90CF90B4
:10401000BF90AF909F908F900895A701960119A22D
:104020008E010F5D1F4F8AE0C82ED12CE12CF12CA0
:10403000CA01B901A70196010E94745C605DF80194
:1040400062938F01211531054105510589F790E0F3
:1040500080E0309779F2CF010E94A31DCBCFEF9281
:10406000FF920F931F93CF93DF938B010C5F1F4F32
:10407000EB017C01E61AF70AC7018C0F9D1F0E9415
:104080002C5C8993C017D107B9F784E090E0DF91E9
:10409000CF911F910F91FF90EF9008952F923F9233
:1040A0004F925F926F927F928F929F92AF92BF9248
:1040B000CF92DF92EF92FF920F931F93CF93DF93F4
:1040C00000D01F921F92CDB7DEB76B015D834C838A
:1040D00023ED3DE442E650E10E94755D06E20E9458
:1040E000925E190128EE33E0229EC001239E900DBE
:1040F000329E900D11249601281B390B3A83298397
:104100008DECA82E9CECB92E2CECC22E3CECD32EC0
:10411000E12CF12C00E010E0910140E050E060E083
:1041200070E080E090E00E940E5D03E20E94925EEB
:104130002B83E981FA8100E09F0140E050E060E0DC
:1041400070E080E090E00E940E5D03E20E94925ECB
:10415000122FFB816F2F70E0660F771F6A517A4E26
:1041600042E050E08C819D810E94E85720E3220EBE
:104170000AE03B81309F20181124EC81FD812282CE
:10418000612F70E0660F771F6A517A4E42E050E06F
:10419000CF0103960E94E8578981805D109F8019A6
:1041A0001124EC81FD8185830F900F900F900F906B
:1041B0000F90DF91CF911F910F91FF90EF90DF90C3
:1041C000CF90BF90AF909F908F907F906F905F90B7
:1041D0004F903F902F900895CF92DF92EF92FF92F1
:1041E0000F931F93CF93DF9300D000D01F921F92A5
:1041F000CDB7DEB76801FE0135967F018E010F5FF6
:104200001F4F0E94381A69817A818B819C81A60197
:104210000E944E20A6014A5F5F4F6D817E818F8193
:1042200098850E944E2028960FB6F894DEBF0FBEE8
:10423000CDBFDF91CF911F910F91FF90EF90DF9055
:10424000CF9008952F923F924F925F926F927F92FC
:104250008F929F92AF92BF92CF92DF92EF92FF9296
:104260000F931F93CF93DF93CDB7DEB76B970FB646
:10427000F894DEBF0FBECDBF1C015E8B4D8B822E2E
:10428000452B09F4CAC180911905882341F090900B
:104290000102F0900002011113C0F12C14C08091B2
:1042A000A0089091A1086CE0962E8D3091051CF429
:1042B00097FD80E0982EF12C002351F0F0909E089D
:1042C00029E02F1550F38CE0891510F45CE0952E51
:1042D000AD89BE894D905D906D907C90810177FE97
:1042E0000DC00F5F1F4F8DE2F101808370946094C9
:1042F00050944094411C511C611C711C498A5A8A7B
:104300006B8A7C8A8FEF8F0D893008F0C9C08F2DA2
:1043100090E0988F8F8BFC01EE0FFF1FEE0FFF1FB9
:10432000E255F94E2591359145915491C301B20161
:104330000E94745CB62EE72E6C01698FA72E8A8FBF
:10434000DB8E4AE0442E512C612C712CA30192018A
:104350000E94745C605D698B92E0F91264C0205D1C
:10436000D8012C9311966C936801F2E0CF0ED11C0A
:10437000ED89FE899920C1F02601BFEF4B1A5B0A37
:104380008EE2D6018C9324813581468157816085E8
:10439000718582859385BCE09B1201C182010E94D8
:1043A000EC20EDE0CE0ED11C882D8F7D09F42CC1C0
:1043B00080E2D6018C9383E611968C93119788E660
:1043C00012968C93129713968C9213978DE01496F5
:1043D0008C9314978AE015968C93B6E0CB0ED11C83
:1043E000860102191309A801B10189E196E00E9432
:1043F000E40FC8016B960FB6F894DEBF0FBECDBFB9
:10440000DF91CF911F910F91FF90EF90DF90CF90B0
:10441000BF90AF909F908F907F906F905F904F90E4
:104420003F902F90089523E0F2121AC06B2D7E2D3D
:10443000C60124E630E040E050E00E94745C205D5C
:10444000D8012C93A30192010E94745C205DF801B5
:10445000218329892283680183E0C80ED11C88CF7B
:10446000CF88D88CC00ED11E76012AE0422E512C66
:10447000612C712C91E0E91AF108698D7A2D8A8DF1
:104480009B8DA30192010E94745C605DD7016C93C7
:10449000298FA32E4A8F5B8F0E151F0559F768CF02
:1044A000BAE04B165104610471044CF46801EFEF5B
:1044B000CE1ADE0A80E3840DD8018C9359CF8AE0AE
:1044C000A82EB12CC12CD12CC301B201A60195019B
:1044D0000E94745C90E3F92EF60EB4E64B1651047C
:1044E000610471045CF4205DF80120836801F2E04E
:1044F000CF0ED11CD8011196FC923ACFB8EE4B16D4
:10450000B3E05B0661047104D0F4C301B20124E698
:1045100030E040E050E00E94745C205DF8012083B0
:10452000A60195010E94745C205DD80111962C9320
:104530006801B3E0CB0ED11CF801F28219CFCE0195
:1045400001965C01D12CC12C7C019FEFC91AD90ABC
:1045500069897A898B899C892AE030E040E050E0C3
:104560000E94745C605DD5016D935D01298B3A8B6F
:104570004B8B5C8B89899A89AB89BC89892B8A2B67
:104580008B2B19F7F801C601019730F0D701A80F5E
:10459000B91F2C912193F8CFC00ED11EE9CE692C02
:1045A000712CF6E0F91598F0DE011D967D018E0163
:1045B0000F5F1F4F0E94381A69817A818B819C811D
:1045C000A2010E944E206201C60CD71CEDCEFE0156
:1045D0003D967F018E010F5F1F4F0E94381A69813F
:1045E0007A818B819C81A2010E944E20F7E0CF0E40
:1045F000D11C6D857E858F859889A6010E944E20ED
:1046000026E0621A7108E0CF8DE0F60180838AE02F
:104610008183F2E0CF0ED11CE3CE0FEF1FEFE9CE86
:10462000CF92DF92EF92FF920F931F93CF93DF937E
:104630001F921F92CDB7DEB78B01BE016F5F7F4F18
:104640000E9481566B017C01E981FA818081811190
:104650002CC020E030E0A901C701B6010E945F58DC
:1046600087FD23C029EA3FE543E658E5C701B601C7
:104670000E94F15C1816CCF0C701B6010E94A55C3F
:10468000F801208331834283538364837583868357
:10469000978381E00F900F90DF91CF911F910F9141
:1046A000FF90EF90DF90CF90089580E0F3CFEF92EE
:1046B000FF920F931F93CF93DF937C018B01D0E088
:1046C000C0E0F80161918F01C7018C0F9D1F0E940E
:1046D000345C2196C430D105A1F784E090E0DF91ED
:1046E000CF911F910F91FF90EF900895EF92FF925D
:1046F0000F931F93CF93DF9300D000D01F921F9290
:10470000CDB7DEB789E994E10E940C1F89E492E0FD
:104710000E94ED1D81E894E10E940C1F0E94B21DD1
:1047200060E870E087E995E00E94571C87E995E012
:104730000E94551F61E772E00E941A5F8C01892B6D
:1047400009F06CC0BE016B5F7F4F80EF9FE00E945D
:104750002F20BE016F5F7F4F84EF9FE00E942F20CC
:1047600089E492E00E94ED1D81E594E10E94BE1D66
:1047700087E798E00E94ED1D80E394E10E94BE1D52
:104780000E94B21D60E870E087E995E00E94571C26
:1047900087E995E00E94551F7C0186E194E10E9423
:1047A0000C1F6FEFC8010E94345C0F5F1F4F011593
:1047B00080E11807B1F765E772E0C7010E94F15E7A
:1047C000892B39F585EF93E10E940C1FBE016B5FC9
:1047D0007F4F80EF9FE00E945723BE016F5F7F4FA6
:1047E00084EF9FE00E94572384EB93E10E940C1F0B
:1047F00081E080936D0580E028960FB6F894DEBFC7
:104800000FBECDBFDF91CF911F910F91FF90EF9021
:10481000089582ED93E10E940C1FE6CF89E694E1B2
:104820000E940C1F81E0E8CFEF92FF920F931F933D
:10483000CF93DF937C018B01D0E0C0E0F801619160
:104840008F01C7018C0F9D1F0E94345C2196C838D0
:10485000D105A1F788E890E0DF91CF911F910F91EA
:10486000FF90EF900895CF93DF93CDB7DEB7C85890
:10487000D1090FB6F894DEBF0FBECDBF8233B1F0C1
:104880008333B9F0813309F05AC183E395E10E9483
:104890000C1F1092620580E0C857DF4F0FB6F894E6
:1048A000DEBF0FBECDBFDF91CF91089588E095E1C7
:1048B000EECF8DE0898341E150E061E272E0CE010C
:1048C00002960E942A5F84E48B8B41E150E067E707
:1048D00078E0CE0144960E942A5F1DA21EA280E8C5
:1048E0008FA386E988A788E989A71AA61BA61CA614
:1048F0001DA61EA61FA681EE88AB85EF89AB85E0BD
:104900008AAB1BAA1CAA1DAA1EAA84E190E098AF3C
:104910008FAB85E090E09AAF89AF1CAE1BAE8BE009
:1049200090E09EAF8DAF80E58FAF80E092ECA1E08C
:10493000B0E024968CAF9DAFAEAFBFAF249781E4BB
:1049400027968FAF279782E428968FAF289783E426
:1049500029968FAF29972A961FAE2A972B961FAEBE
:104960002B972C961FAE2C972D961FAE2D972E961B
:104970001FAE2E972F961FAE2F9760961FAE609793
:1049800061961FAE619762961FAE629763961FAEE7
:10499000639764961FAE649765961FAE659766969B
:1049A0001FAE669767961FAE679768961FAE6897AB
:1049B00069961FAE699782E525968FAF2597269653
:1049C0008FAF269794EC6A969FAF6A9789E06B96B3
:1049D0008FAF6B976C961FAE6C976D961FAE6D97F1
:1049E0006E961FAE6E976F961FAE6F97A0961FAE16
:1049F000A097A1961FAEA197A2969FAFA297A3964C
:104A00008FAFA397A4961FAEA497A5961FAEA597A8
:104A1000A6961FAEA697A7961FAEA797A8961FAEFD
:104A2000A897A9961FAEA997AA961FAEAA97AB966C
:104A30001FAEAB97AC961FAEAC97AD961FAEAD97C1
:104A4000AE961FAEAE97AF961FAEAF97E0961FAE75
:104A5000E097E1961FAEE197E2961FAEE297E396EC
:104A60001FAEE397E4961FAEE497E5961FAEE59779
:104A7000E6961FAEE697E7961FAEE797E8961FAE5D
:104A8000E897E9961FAEE997EA961FAEEA97EB968C
:104A90001FAEEB97EC961FAEEC97ED961FAEED9721
:104AA000EE961FAEEE97EF961FAEEF97C158DF4F11
:104AB0001882CF57D040C058DF4F1882C058D0401E
:104AC000CF57DF4F1882C158D040CE57DF4F1882E2
:104AD000C258D040CD57DF4F1882C358D040CC5772
:104AE000DF4F1882C458D040CB57DF4F1882C558CB
:104AF000D040CA57DF4F1882C658D040C957DF4F41
:104B00001882C758D040C857DF4F1882C858D040C5
:104B100088E8FE013196A4E6B8E001900D928A95EE
:104B2000E1F764E678E090E080E00E94142488EEEB
:104B300094E10E940C1F81E080936D05ACCE81E072
:104B4000ABCE1F93CF93DF9300D000D01F921F9264
:104B5000CDB7DEB7142F64E678E090E080E00E94E5
:104B60001424109262058BE793E10E940C1F11231D
:104B7000F1F189E492E00E94ED1D8DE593E10E9440
:104B80000C1F88E493E10E940C1F81E293E10E94D4
:104B90000C1F89E492E00E94ED1D0E94B21D68E0A6
:104BA00070E0CE0101960E94571CCE0101960E9432
:104BB000551F67E772E00E941A5F892B79F481E044
:104BC00080936D0510E0812F28960FB6F894DEBF14
:104BD0000FBECDBFDF91CF911F9108958FEF92E16E
:104BE0000E940C1F86ED92E10E940C1FECCF81E029
:104BF00080936D05E8CF2F923F924F925F926F9214
:104C00007F928F929F92AF92BF92CF92DF92EF925C
:104C1000FF920F931F93CF93DF93CDB7DEB7C758A3
:104C2000D1090FB6F894DEBF0FBECDBF89E492E084
:104C30000E94ED1D40E850E09E012F5F3F4F49016B
:104C4000B90184EB9DE00E94E01AC4010E94ED1DB1
:104C500040E850E0B40182E99DE00E94E01A84E659
:104C6000682E88E0782EF30126A037A040A451A436
:104C7000F2A5CD57DF4FF883C358D040F301F3A519
:104C8000CC57DF4FF883C458D040F301F4A5CB577D
:104C9000DF4FF883C558D040F301F5A5CA57DF4F61
:104CA000F883C658D040F40101900020E9F731970D
:104CB0009F0128193909CF57DF4F39832883C158FD
:104CC000D04090E4A92E22E4B22E3FE0C32ED12C96
:104CD000E12CF12C00E010E09101A201CD57DF4F53
:104CE0006881C358D040CC57DF4F7881C458D0403A
:104CF000CB57DF4F8881C558D040CA57DF4F9881C6
:104D0000C658D0400E94A05D5F934F933F932F936E
:104D10009101A201CD57DF4F6881C358D040CC57D5
:104D2000DF4F7881C458D040CB57DF4F8881C558BA
:104D3000D040CA57DF4F9881C658D0400E94A25D2C
:104D40005F934F933F932F9389E792E09F938F93C5
:104D500040E8442E512CC201CF57DF4FE881F98142
:104D6000C158D0408E1B9F0B9F938F93CF01880D0E
:104D7000991D9F938F930E94395FC4010E94ED1D7E
:104D800040E850E0B40181E79DE00E94E01AF301A1
:104D900026A437A4F0A9CF57DF4FF883C158D040DD
:104DA000F301F1A9CD57DF4FF883C358D040F30189
:104DB000F2A9CC57DF4FF883C458D040F301F3A9D0
:104DC000CB57DF4FF883C558D040F301F4A9CA5739
:104DD000DF4FF883C658D040F301F5A9C957DF4F1C
:104DE000F883C758D040F40101900020E9F73197CB
:104DF0003F01681879089101CF57DF4F4881C158AA
:104E0000D040CD57DF4F5881C358D040CC57DF4FEB
:104E10006881C458D040CB57DF4F7881C558D04007
:104E2000CA57DF4F8881C658D040C957DF4F988195
:104E3000C758D0400E94A05D5F934F933F932F933C
:104E40009101CF57DF4F4881C158D040CD57DF4F38
:104E50005881C358D040CC57DF4F6881C458D040E8
:104E6000CB57DF4F7881C558D040CA57DF4F888174
:104E7000C658D040C957DF4F9881C758D0400E94CC
:104E8000A25D5F934F933F932F9388E892E09F93A7
:104E90008F93C201861997099F938F93C401860D42
:104EA000971D9F938F930E94395FC4010E94ED1D4F
:104EB00040E850E0B40182E49DE00E94E01AF40171
:104EC00001900020E9F73197CF0188199909E4EBA7
:104ED000F8E023812F9322812F9321812F9320812A
:104EE0002F93ECEAF8E023812F9322812F932181E5
:104EF0002F9320812F9308E912E01F930F939201C3
:104F0000281B390B3F932F93880D991D9F938F93E7
:104F10000E94395F0FB6F894DEBF0FBECDBFC4014B
:104F20000E94ED1D40E850E0B4018AE19DE00E943E
:104F3000E01AF40101900020E9F73197CF018819B8
:104F40009909E4ECF8E023812F9322812F932181AA
:104F50002F9320812F93ECEBF8E023812F93228174
:104F60002F9321812F9320812F931F930F939201D1
:104F7000281B390B3F932F93880D991D9F938F9377
:104F80000E94395FC4010E94ED1D40E850E0B40169
:104F900082EF9CE00E94E01AF40101900020E9F702
:104FA0003197CF0188199909E4EDF8E023812F9317
:104FB00022812F9321812F9320812F93ECECF8E015
:104FC00023812F9322812F9321812F9320812F934F
:104FD0001F930F939201281B390B3F932F93880D3A
:104FE000991D9F938F930E94395FC4010E94ED1D0C
:104FF00040E850E0B4018EEC9CE00E94E01AF4011D
:1050000001900020E9F73197CF0188199909E4EE62
:10501000F8E023812F9322812F9321812F932081E8
:105020002F93ECEDF8E023812F9322812F932181A0
:105030002F9320812F931F930F93481A590A5F9241
:105040004F92880D991D9F938F930E94395F0FB6E1
:10505000F894DEBF0FBECDBFC4010E94ED1D89E4F0
:1050600092E00E94ED1DC957DF4F0FB6F894DEBFE6
:105070000FBECDBFDF91CF911F910F91FF90EF90A9
:10508000DF90CF90BF90AF909F908F907F906F9068
:105090005F904F903F902F900895CF93DF93CDB7BF
:1050A000DEB7C058D1090FB6F894DEBF0FBECDBF32
:1050B00089E492E00E94ED1D40E850E0BE016F5F80
:1050C0007F4F8EE39CE00E94E01ACE0101960E9481
:1050D000ED1D40E850E0BE016F5F7F4F8FE29CE026
:1050E0000E94E01ACE0101960E94ED1D40E850E0BA
:1050F000BE016F5F7F4F89E19CE00E94E01ACE0104
:1051000001960E94ED1D40E850E0BE016F5F7F4FA9
:1051100083E09CE00E94E01ACE0101960E94ED1D02
:1051200040E850E0BE016F5F7F4F87EE9BE00E943A
:10513000E01ACE0101960E94ED1D40E850E0BE014C
:105140006F5F7F4F8BED9BE00E94E01ACE010196CE
:105150000E94ED1D40E850E0BE016F5F7F4F87EC7D
:105160009BE00E94E01ACE0101960E94ED1D40E8EE
:1051700050E0BE016F5F7F4F8CEB9BE00E94E01A16
:10518000CE0101960E94ED1D40E850E0BE016F5F28
:105190007F4F8BEA9BE00E94E01ACE0101960E94AD
:1051A000ED1D89E492E00E94ED1D40E850E0BE0153
:1051B0006F5F7F4F8CE99BE00E94E01AE0918808C6
:1051C00064E97BE0E83038F4F0E0EE0FFF1FE75FC2
:1051D000FD4F60817181CE0101960E94F157CE0191
:1051E00001960E94ED1D89E492E00E94ED1DC058D9
:1051F000DF4F0FB6F894DEBF0FBECDBFDF91CF916A
:105200000895CF92DF92EF92FF920F931F93CF9367
:10521000DF93CDB7DEB7C058D1090FB6F894DEBF23
:105220000FBECDBF89E492E00E94ED1D40E850E042
:105230008E010F5F1F4FB8018BE79BE00E94E01AC1
:10524000C8010E94ED1D40E850E0B80185E69BE0F2
:105250000E94E01AE091880864E97BE0E83038F4C5
:10526000F0E0EE0FFF1FE75FFD4F60817181C80125
:105270000E94F15769EB72E0C8010E94045FC80107
:105280000E94ED1D40E850E0B8018EE39BE00E94D3
:10529000E01AE0919E08F0919F081E161F060CF47C
:1052A00081C163E879E08EEA94E00E94FC57F8013E
:1052B00001900020E9F73197E01BF10B8EEA94E0B2
:1052C0009F938F9380919F088F9380919E088F93D7
:1052D00081EA92E09F938F9380E8E82EF12CC7013A
:1052E0008E1B9F0B9F938F93E00FF11FFF93EF9304
:1052F0000E94395FC8010E94ED1D40E850E0B801EE
:1053000087E19BE00E94E01AF80101900020E9F794
:105310003197E01BF10B8091A1088F938091A00839
:105320008F9387EA92E09F938F93C7018E1B9F0B09
:105330009F938F93E00FF11FFF93EF930E94395FCC
:10534000C8010E94ED1D40E850E0B80184EF9AE0EA
:105350000E94E01AF80101900020E9F73197E01B64
:10536000F10B8091A208282F082E000C330B3F93DD
:105370008F939BEAC92E92E0D92EDF92CF92C7017C
:105380008E1B9F0B9F938F93E00FF11FFF93EF9363
:105390000E94395FC8010E94ED1D40E850E0B8014D
:1053A00085ED9AE00E94E01AF80101900020E9F7EB
:1053B0003197CF01801B910B2091AB08422F022E19
:1053C000000C550B5F932F932091AA08422F022EB9
:1053D000000C550B5F932F932091A908422F022EAA
:1053E000000C550B5F932F932FEA32E03F932F93DE
:1053F0009701281B390B3F932F93800F911F9F9389
:105400008F930E94395F0FB6F894DEBF0FBECDBFF9
:10541000C8010E94ED1D40E850E0B80185EB9AE01C
:105420000E94E01A80918908882309F4EFC0F801EE
:1054300001900020E9F73197E01BF10B282F082E8F
:10544000000C330B3F938F93DF92CF92EE1AFF0A3B
:10545000FF92EF92E00FF11FFF93EF930E94395FED
:105460000FB6F894DEBF0FBECDBFC8010E94ED1D80
:1054700040E850E0B80189E99AE00E94E01AC801CA
:105480000E94ED1D40E850E0B80187E79AE00E94D5
:10549000E01AF80101900020E9F73197E01BF10BC9
:1054A0008091A6088F938091A5088F938091A4087E
:1054B0008F938091A3088F938BEB92E09F938F93B0
:1054C00080E890E08E1B9F0B9F938F93E00FF11F5E
:1054D000FF93EF930E94395FC8010E94ED1D89E49C
:1054E00092E00E94ED1D40E850E0B8018EE59AE0A0
:1054F0000E94E01AC8010E94ED1D40E850E0B8018A
:1055000088E49AE00E94E01AC8010E94ED1D40E87C
:1055100050E0B8018EE29AE00E94E01AC8010E94B1
:10552000ED1D40E850E0B80188EF99E00E94E01AD4
:10553000C8010E94ED1D89E492E00E94ED1D40E843
:1055400050E0B8018BED99E00E94E01AC8010E947A
:10555000ED1D40E850E0B80184EB99E00E94E01AAC
:10556000C8010E94ED1D40E850E0B8018EE899E0C6
:105570000E94E01AC8010E94ED1D0FB6F894DEBF2C
:105580000FBECDBFC058DF4F0FB6F894DEBF0FBEC1
:10559000CDBFDF91CF911F910F91FF90EF90DF90E2
:1055A000CF900895EA30F105F4F4EE0FFF1FEE0FEF
:1055B000FF1FE55AF64F85919591A591B491BF9340
:1055C000AF939F938F9383E499E09F938F938EEA99
:1055D00094E09F938F930E942F580FB6F894DEBFEC
:1055E0000FBECDBF64CEFF93EF938AE299E09F9305
:1055F0008F938EEA94E09F938F930E942F580F9081
:105600000F900F900F900F900F9051CE6FEA7AE0AD
:10561000C8010E94F15729CF0E94012981E0089515
:105620002F923F924F925F926F927F928F929F92B2
:10563000AF92BF92CF92DF92EF92FF920F931F93A0
:10564000CF93DF93CDB7DEB764970FB6F894DEBF84
:105650000FBECDBF29833A834B835C8369877A87EA
:105660008B879C872AA52D833BA53E838CA58F83A2
:10567000EDA5E887FEA5FD872FA52E8738A93F87D2
:1056800089A9888B2AA83BA84CA85DA8EEA9E98B1C
:10569000FFA9FA8B28AD2B8B39AD3C8B6AAC7BAC68
:1056A0008CAC9DAC8EAD9FAD5F924F923F922F928E
:1056B000E885EF93FF81FF932E812F933D813F93E8
:1056C000DF92CF92BF92AF92EC81EF93FB81FF9379
:1056D0002A812F9339813F939F938F938BE099E099
:1056E0009F938F9387E995E09F938F930E942F5804
:1056F00087E995E00E94ED1D89E492E00E94ED1D8E
:1057000080E49BE10E940C1F8CE29BE10E940C1F35
:105710000E94B21D60E870E087E995E00E94571C86
:1057200087E995E00E94551F0FB6F894DEBF0FBEC3
:10573000CDBFFC012081223309F043C0019000203D
:10574000E9F79F012250310928173907D1F529813E
:10575000F30120833A8131838B8182832C812383DF
:10576000398534838A8585832B8526833C853783D9
:10577000F401A082B182C282D382E482F5820683E0
:1057800017831092620589E19BE10E940C1F80E063
:1057900064960FB6F894DEBF0FBECDBFDF91CF91F8
:1057A0001F910F91FF90EF90DF90CF90BF90AF903F
:1057B0009F908F907F906F905F904F903F902F9031
:1057C00008952D81F30120833E8131838F8182836F
:1057D000288523833D8534838E8585832F85268385
:1057E00038893783F40120823182428253822989A9
:1057F00024833A8935838B8986832C89278381E5A5
:105800009BE10E940C1F81E0C3CF2F923F924F92E9
:105810005F926F927F928F929F92AF92BF92CF9240
:10582000DF92EF92FF920F931F93CF93DF93CDB749
:10583000DEB7C450D1400FB6F894DEBF0FBECDBF67
:1058400068EF78E0CE0101964C010E94FC5761E2BE
:1058500072E0C4010E94045F6DE572E0C4010E9421
:10586000045F69E172E0C4010E94045F69EB72E0C9
:10587000C4010E94045FC4010E94ED1D90E080E01D
:105880000E942C5CC45DDE4F9881CC52D140292F00
:10589000092E000C330B3F939F931F928F9382ED41
:1058A00098E09F938F939F928F920E942F58C401EC
:1058B0000E94ED1D6CEB78E0C4010E94FC57BE0114
:1058C000635D7E4FC4010E94045FC4010E94ED1D10
:1058D00069EA78E0C4010E94FC570FB6F894DEBF75
:1058E0000FBECDBFC25CDE4FE881CE53D140E83061
:1058F000A0F4F0E08827E058F34D8F4F0C94065D3C
:10590000882CB52FB82FBE2FBB2FC12FC42FC72F68
:105910006FE978E0C4010E94F157C4010E94ED1DB7
:105920006DE278E0C4010E94FC57CC5ADE4FE8815A
:10593000F981C455D140D4010D900020E9F71E161D
:105940001F060CF427C3CD01FF93EF9320E238E04C
:105950003F932F9301979F938F930E942F580F90FF
:105960000F900F900F900F900F90C4010E94ED1DAB
:10597000C95ADE4F8881C755D1408F93CA5ADE4F2E
:105980008881C655D1408F9381ED97E09F938F9387
:105990009F928F920E942F58C4010E94ED1DC85AF9
:1059A000DE4F8881C855D140282F082E000C330BBC
:1059B0003F938F9384EC97E09F938F939F928F9266
:1059C0000E942F58C4010E94ED1DC45ADE4F8881E9
:1059D000CC55D1408F93C55ADE4F8881CB55D140ED
:1059E0008F93C65ADE4F8881CA55D1408F93C75ACC
:1059F000DE4F8881C955D1408F938EEA97E09F93FF
:105A00008F939F928F920E942F58C4010E94ED1D88
:105A1000CF59DE4F8881C156D140282F082E000C67
:105A2000330B3F938F93C05ADE4F8881C056D140CD
:105A3000282F082E000C330B3F938F93C15ADE4F53
:105A40008881CF55D140282F082E000C330B3F936F
:105A50008F9384E997E09F938F939F928F920E94F8
:105A60002F58C4010E94ED1DC15CDE4F1881CF5339
:105A7000D1400FB6F894DEBF0FBECDBFDE01AF57E9
:105A8000BF4F3D01112309F4BEC263E877E0CD01A9
:105A90000E94FC57F30101900020E9F73197108331
:105AA000F30101900020E9F71082B301C4010E94C4
:105AB000235FC4010E94ED1DC05CDE4F2880C054EE
:105AC000D140CF5BDE4F3880C154D140CE5BDE4F3A
:105AD0004880C254D140CD5BDE4F5880C354D14082
