:1000000053C100000C94FC0B0C94D10B0C94A60B68
:100010000C947B0B0C94500B0C94250B0C94FA0A4B
:100020000C94CF0A0C945A0A0C94EB090C947509A1
:100030006CC100006AC1000068C1000066C1000018
:1000400064C1000062C1000060C100005EC1000028
:100050005CC100005AC1000058C10000A9C40000E2
:1000600054C1000085C300005AC300004EC1000007
:100070004CC100004AC1000048C1000046C1000058
:1000800044C1000042C1000040C100003EC1000068
:100090003CC100003AC1000038C1000036C1000078
:1000A00034C1000032C1000030C100002EC1000088
:1000B0002CC100002AC1000028C1000026C1000098
:1000C00024C1000022C1000020C100001EC10000A8
:1000D0001CC100001AC1000018C1000016C10000B8
:1000E00014C10000B018051BBE1A571BAA1B6217CB
:1000F000101D101D101D101D1A17101D101DD519D3
:10010000101D1B1C80172E1A101D101DEC1CF31C3B
:10011000A31A151DC302C602B502B902BF02FD0231
:10012000CA02CE02D402D802DC02E202E602EA02ED
:10013000FD02F002F402F802000021002400270072
:100140002A002D00300033000101000004010701E6
:100150000A010102102020080810204010204080D1
:10016000020102010804020101020408102040807B
:100170008040201008040201800402018040201009
:100180000804020108040201010204081020408052
:100190000102040810204080050505050705080830
:1001A0000808020202020A0A080804040404010101
:1001B0000101010101010303030303030303040716
:1001C00007070C0C0C0C0C0C0C0C020202020606AD
:1001D0000606060606060B0B0B0B0B0B0B0B0001A2
:1001E00004050503030405060405060701000100D4
:1001F00003020100000102030405060707060504C7
:1002000003020100070201000706050403020100C2
:1002100003020100000102030405060700010203B6
:100220000405060702030405060607000022002550
:100230000028002B002E00310034000201000005D0
:100240000108010B01000020002300260029002CDA
:10025000002F003200000100000301060109010027
:10026000000A0B02090C0D0E080703040100000030
:10027000000000000000000000000000000000007E
:10028000000000000000000000000012111000003B
:10029000000000000000000000000000000000005E
:1002A000000000000000072711241FBECFEFD1E29D
:1002B000DEBFCDBF00E00CBF20E1AEE6BDE001C077
:1002C0001D92A638B207E1F71DE0A0E0B2E0ECEA2B
:1002D000F9E500E00BBF02C007900D92AE36B10702
:1002E000D9F711E0C4E5D1E000E006C0219701098B
:1002F000802FFE010E94B127C335D10780E0080797
:10030000A9F70E9470110C94D42C7ACECF92DF9270
:10031000EF92FF920F931F93CF93DF936C017A01BB
:100320008B01C0E0D0E0CE15DF0589F0D8016D91DA
:100330008D01D601ED91FC910190F081E02DC60177
:100340001995892B11F47E0102C02196ECCFC701CB
:10035000DF91CF911F910F91FF90EF90DF90CF90A1
:100360000895FC01918D828D981761F0828DDF01D7
:10037000A80FB11D5D968C91928D9F5F9F73928F98
:1003800090E008958FEF9FEF0895FC01918D828D8D
:10039000981731F0828DE80FF11D858D90E008955A
:1003A0008FEF9FEF0895FC01918D228D892F90E0B2
:1003B000805C9F4F821B91098F739927089586E86F
:1003C0009EE0F1DF21E0892B09F420E0822F0895DF
:1003D000FC01848DDF01A80FB11DA35ABF4F2C91E2
:1003E000848D90E001968F739927848FA689B789B1
:1003F0002C93A089B1898C9180648C93938D848D8A
:10040000981306C00288F389E02D80818F7D808358
:100410000895EF92FF920F931F93CF93DF93EC0118
:1004200081E0888F9B8D8C8D981305C0E889F989B0
:10043000808185FD23C0F62E0B8D10E00F5F1F4FCE
:100440000F731127E02E8C8DE8120BC00FB607FC3E
:10045000FACFE889F989808185FFF5CFCE01B8DF31
:10046000F2CF8B8DFE01E80FF11DE35AFF4FF082B2
:100470000B8FEA89FB898081806207C0EE89FF8942
:100480006083E889F98980818064808381E090E0DD
:10049000DF91CF911F910F91FF90EF900895CF932F
:1004A000DF93EC01888D8823C1F0EA89FB89808184
:1004B00085FD05C0A889B9898C9186FD0EC00FB64F
:1004C00007FCF5CF808185FFF2CFA889B9898C918F
:1004D00085FFEDCFCE017CDFE8CFDF91CF9108958E
:1004E00080E090E0892B19F06ADF811125C080E05F
:1004F00090E0892B41F080E090E0892B21F00E9470
:10050000000081111CC080E090E0892B41F080E068
:1005100090E0892B21F00E940000811113C080E03F
:1005200090E0892BA1F080E090E0892B81F00E947F
:10053000000081110AC008950E940000D8CF0E94D7
:100540000000E1CF0E940000EACF0C940000089563
:1005500090E0FC013197E231F10508F04EC08827A8
:10056000E657FF4F8F4F0C94B127809180008F7713
:1005700003C0809180008F7D8093800008958091DA
:100580008000877FF9CF84B58F7702C084B58F7DD7
:1005900084BD08958091B0008F7703C08091B00032
:1005A0008F7D8093B0000895809190008F7707C071
:1005B000809190008F7D03C080919000877F809311
:1005C000900008958091A0008F7707C08091A000CF
:1005D0008F7D03C08091A000877F8093A000089545
:1005E000809120018F7707C0809120018F7D03C00B
:1005F00080912001877F8093200108953FB7F89470
:100600008091F40D9091F50DA091F60DB091F70D3C
:1006100026B5A89B05C02F3F19F00196A11DB11D5D
:100620003FBFBA2FA92F982F8827820F911DA11D98
:10063000B11DBC01CD0142E0660F771F881F991FD5
:100640004A95D1F708958FB7F8948091EE0D8FBF3A
:1006500008958EBD00000DB407FEFDCF8EB5089540
:100660008CBD9DBD089570916E0D60916F0D509180
:10067000700D4091710D3091720D2091730D90911C
:10068000740D8091750DE1EAFFE070836183528300
:1006900043833483258396838783089570916E0DF9
:1006A00060916F0D5091700D4091710D3091720DF0
:1006B0002091730D9091740D8091750DE3E2FFE030
:1006C00073876487558746873787208B918B828B0A
:1006D000089520916E0D30916F0D4091700D5091E5
:1006E000710D6091720D7091730D8091740D9091E8
:1006F000750DA1E00E94FC2820936E0D30936F0DC4
:100700004093700D5093710D6093720D7093730D43
:100710008093740D9093750D08950E941D291F926A
:100720000F920FB60F9211240BB60F922F933F9397
:100730004F935F936F937F938F939F93AF93BF93E9
:10074000EF93FF9386E89EE043DEFF91EF91BF9128
:10075000AF919F918F917F916F915F914F913F9159
:100760002F910F900BBE0F900FBE0F901F901895FA
:100770001F920F920FB60F9211240BB60F922F9368
:100780008F939F93EF93FF93E091960EF091970EC6
:100790008081E0919C0EF0919D0E82FD12C09081AF
:1007A00080919F0E8F5F8F732091A00E821751F062
:1007B000E0919F0EF0E0EA57F14F958F80939F0EE6
:1007C00001C08081FF91EF919F918F912F910F90A8
:1007D0000BBE0F900FBE0F901F901895CF93DF9315
:1007E000282F30E0F901E15AFD4F8491F901EE5ACA
:1007F000FE4FD491F901E856FE4FC491CC2389F005
:100800008111A6DEEC2FF0E0EE0FFF1FEB5BFD4F3A
:10081000A591B491EC91ED2381E090E021F480E08A
:1008200002C080E090E0DF91CF9108951F93CF93B5
:10083000DF93282F30E0F901E15AFD4F8491F9014F
:10084000EE5AFE4FD491F901E856FE4FC491CC23E5
:10085000C1F0162F81117CDEEC2FF0E0EE0FFF1FB0
:10086000E55DFD4FA591B4918FB7F894111105C0C6
:100870009C91ED2FE095E92302C0EC91ED2BEC93D8
:100880008FBFDF91CF911F910895CF93DF9390E0B9
:10089000FC01EE5AFE4F2491FC01E856FE4F849174
:1008A000882361F190E0880F991FFC01E85CFE4FFE
:1008B000C591D491FC01E55DFD4FA591B491611105
:1008C00009C09FB7F8948881209582238883EC9192
:1008D0002E230BC0623061F49FB7F8943881822FC9
:1008E000809583238883EC912E2B2C939FBF06C089
:1008F0008FB7F894E8812E2B28838FBFDF91CF919B
:100900000895863308F0865390917B00282F287035
:10091000977F922B90937B008770806480937C00FC
:1009200080917A00806480937A0080917A0086FDBD
:10093000FCCF809178002091790090E0922B08956F
:100940008F929F92AF92BF92CF92DF92EF92FF92DF
:100950006B017C0153DE4B015C01C114D104E10445
:10096000F104E9F04BDEDC01CB0188199909AA09F1
:10097000BB09883E9340A105B10578F321E0C21A76
:10098000D108E108F10888EE880E83E0981EA11CCA
:10099000B11CC114D104E104F10421F7DECFFF90B2
:1009A000EF90DF90CF90BF90AF909F908F90089581
:1009B0001F920F920FB60F9211242F933F938F9394
:1009C0009F93AF93BF938091F00D9091F10DA09103
:1009D000F20DB091F30D3091EF0D23E0230F2D3781
:1009E00020F40196A11DB11D05C026E8230F029633
:1009F000A11DB11D2093EF0D8093F00D9093F10D8B
:100A0000A093F20DB093F30D8091F40D9091F50D3C
:100A1000A091F60DB091F70D0196A11DB11D809327
:100A2000F40D9093F50DA093F60DB093F70DBF91D3
:100A3000AF919F918F913F912F910F900FBE0F908B
:100A40001F901895FF920F931F93CF93DF931F92E0
:100A5000CDB7DEB78C01F62E80E591E0498300DE4C
:100A600060E0F8018781E2DE8F2D8064498150E0EB
:100A7000582B0CB405FC0CC05EBD00000DB407FE85
:100A8000FDCF8EB54EBD00000DB407FEFDCF0BC0EF
:100A90004EBD00000DB407FEFDCF8EB55EBD00005B
:100AA0000DB407FEFDCF8EB561E0F80187810F9090
:100AB000DF91CF911F910F91FF90B8CE0F931F93AD
:100AC000CF93DF938C01C62F80E591E0C9DD60E014
:100AD000F8018781ABDE8C2F8F71BBDD80E0B9DD43
:100AE00080E0B7DDC82F80E0B4DD6C2F70E0762F9A
:100AF0006627EB01C80FD11D61E0F801878196DE02
:100B00008FE090E00197F1F7BE0180E090E0DF9187
:100B1000CF911F910F9108952F923F924F925F9224
:100B20006F927F928F929F92AF92BF92CF92DF92FD
:100B3000EF92FF920F931F93CF93DF93CDB7DEB762
:100B4000C859D1090FB6F894DEBF0FBECDBFC75745
:100B5000DF4F2883C958D040C657DF4F3883CA5863
:100B6000D040C557DF4F4883CB58D040C457DF4FE4
:100B70005883CC58D040C357DF4F6883CD58D040FE
:100B8000C257DF4F7883CE58D040C157DF4F88839C
:100B9000CF58D040C057DF4F9883C059D040A12CC8
:100BA000E0E1BE2EF5EACF2EA4EDDA2EB8EEEB2E64
:100BB000F12C00E010E00E940C28CF56DF4F288374
:100BC000C159D040CE56DF4F3883C259D040CD56A0
:100BD000DF4F4883C359D040CC56DF4F5883C459A8
:100BE000D040CB56DF4F6883C559D040CA56DF4F3F
:100BF0007883C659D040C956DF4F8883C759D04043
:100C0000C856DF4F9883C859D0400E94B927590170
:100C10006A017B018C01C757DF4F2881C958D0403A
:100C2000C657DF4F3881CA58D040C557DF4F48817B
:100C3000CB58D040C457DF4F5881CC58D040C35711
:100C4000DF4F6881CD58D040C257DF4F7881CE58F2
:100C5000D040C157DF4F8881CF58D040C057DF4FB9
:100C60009881C059D0400E94082929013A014B01BE
:100C70001C01A0E00E94112934F40E94932829014C
:100C80003A014B011C0190E4A92E22E4B22E3FE070
:100C9000C32ED12CE12CF12C00E010E09201A30135
:100CA000B401C1010E940C28CF57DF4F2883C158DF
:100CB000D040CE57DF4F3883C258D040CD57DF4F9A
:100CC0004883C358D040CC57DF4F5883C458D040D6
:100CD000CB57DF4F6883C558D040CA57DF4F788362
:100CE000C658D040C957DF4F8883C758D040C8572F
:100CF000DF4F9883C858D04005E00E94DA28CF57CC
:100D0000DF4FA880C158D040CE57DF4FB880C258BF
:100D1000D040CD57DF4FC880C358D040CC57DF4FAD
:100D2000D880C458D040CB57DF4FE880C558D0405A
:100D3000CA57DF4FF880C658D040C957DF4F0881E7
:100D4000C758D040C857DF4F1881C858D0400E94BC
:100D5000082959016A017B01E82F192F06E00E943A
:100D6000DA280E2F0E94082903E00E94DA28CF57C4
:100D7000DF4FA880C158D040CE57DF4FB880C2584F
:100D8000D040CD57DF4FC880C358D040CC57DF4F3D
:100D9000D880C458D040CB57DF4FE880C558D040EA
:100DA000CA57DF4FF880C658D040C957DF4F088177
:100DB000C758D040C857DF4F1881C858D0400E944C
:100DC000F32806E00E94DA2859016A017B018C01B0
:100DD0009201A301B401C1010E940829722E632E61
:100DE000542E452E362E272EF82EE92EC757DF4FCC
:100DF0002881C958D040C657DF4F3881CA58D040E3
:100E0000C557DF4F4881CB58D040C457DF4F58817A
:100E1000CC58D040C357DF4F6881CD58D040C2571F
:100E2000DF4F7881CE58D040C157DF4F8881CF58EF
:100E3000D040C057DF4F9881C059D040A0E00E94F9
:100E4000112924F48DE59DE00E946511C856DF4FFD
:100E50008881C859D0408F93C956DF4F9881C759B0
:100E6000D0409F93CA56DF4F8881C659D0408F9398
:100E7000CB56DF4F9881C559D0409F93CC56DF4F5A
:100E80008881C459D0408F93CD56DF4F9881C35984
:100E9000D0409F93CE56DF4F8881C259D0408F9368
:100EA000CF56DF4F9881C159D0409F938FE59DE089
:100EB0009F938F938E010F5F1F4F1F930F930E947D
:100EC0004029C8010E946511C857DF4F8881C85862
:100ED000D0408F93C957DF4F9881C758D0409F9318
:100EE000CA57DF4F8881C658D0408F93CB57DF4F0A
:100EF0009881C558D0409F93CC57DF4F8881C45804
:100F0000D0408F93CD57DF4F9881C358D0409F93E7
:100F1000CE57DF4F8881C258D0408F93CF57DF4FD5
:100F20009881C158D0409F9384E6882E8DE0982EFA
:100F30009F928F921F930F930E944029C8010E9495
:100F40006511EF92FF922F923F924F925F926F92B4
:100F50007F929F928F921F930F930E9440290FB60A
:100F6000F894DEBF0FBECDBFC8010E946511C85600
:100F7000DF4F0FB6F894DEBF0FBECDBFDF91CF912C
:100F80001F910F91FF90EF90DF90CF90BF90AF90A7
:100F90009F908F907F906F905F904F903F902F9099
:100FA0000895EF92FF920F931F93CF93DF937C01ED
:100FB0008B01C0E0D0E0F80161918F01CE018E0D70
:100FC0009F1D0E94692C2196C430D105A1F784E0B1
:100FD00090E0DF91CF911F910F91FF90EF900895D6
:100FE000EF92FF920F931F93CF93DF938B010C5FD0
:100FF0001F4FEB017C01E61AF70AC7018C0F9D1FFA
:101000000E94612C8993C017D107B9F784E090E062
:10101000DF91CF911F910F91FF90EF900895EF9284
:10102000FF920F931F93CF93DF937C018B01C0E05E
:10103000D0E0F80161918F01CE018E0D9F1D0E94BD
:10104000692C2196CD36D105A1F78DE690E0DF9190
:10105000CF911F910F91FF90EF9008952F923F92A3
:101060004F925F926F927F928F929F92AF92BF92B8
:10107000CF92DF92EF92FF920F931F93CF93DF9364
:10108000CDB7DEB7C958D1090FB6F894DEBF0FBE91
:10109000CDBF19012A01CF57DF4F6883C158D04017
:1010A000CE57DF4F7883C258D040CD57DF4F88836B
:1010B000C358D040CC57DF4F9883C458D04020E469
:1010C000A22E32E4B32E4FE0C42ED12CE12CF12C11
:1010D00000E010E09101A2010E940C28B22FE32F42
:1010E000F42FA52F3B014C0105E00E94DA28AB2E1E
:1010F000BE2ECF2EDA2E730184010E9408295901D9
:101100006A017B01CB57DF4F8883C558D040192F28
:1011100006E00E94DA28CB57DF4F0881C558D0403F
:101120000E94082903E00E94DA28AB2EBE2ECF2EA3
:10113000DA2E730184010E94F32806E00E94DA2867
:1011400059016A017B018C019101A201CF57DF4F48
:101150006881C158D040CE57DF4F7881C258D04007
:10116000CD57DF4F8881C358D040CC57DF4F98818F
:10117000C458D0400E940829AF93FF93EF93BF93C8
:101180008FE59DE09F938F938E010F5F1F4F1F93FD
:101190000F93CA57DF4F2883C658D040C957DF4F37
:1011A0003883C758D040C857DF4F4883C858D0400D
:1011B000C757DF4F5883C958D0400E944029C80103
:1011C0000E946511C757DF4F5881C958D0405F93BF
:1011D000C857DF4F4881C858D0404F93C957DF4F99
:1011E0003881C758D0403F93CA57DF4F2881C6582F
:1011F000D0402F9384E69DE09F938F931F930F938E
:101200000E944029C8010E9465110FB6F894DEBF04
:101210000FBECDBFC757DF4F0FB6F894DEBF0FBE6E
:10122000CDBFDF91CF911F910F91FF90EF90DF9095
:10123000CF90BF90AF909F908F907F906F905F9076
:101240004F903F902F900895CF9386E89EE0ABD8C3
:10125000892BD9F386E89EE084D8C82F9BD48C2FA5
:10126000CF910895CF931092830E1092820ECDE00D
:10127000EBDF2091820E3091830E2E37310524F45E
:101280008A3011F08D3091F4C90101969093830E4C
:101290008093820EF901EE5FF14FC083FC01EE5F97
:1012A000F14F1082029724F3CF910895883089F48A
:1012B00080E270D488E06ED48091820E9091830E8B
:1012C00018161906ACF601979093830E8093820E40
:1012D000CFCFA9014F5F5F4F5093830E4093820E93
:1012E000F901EE5FF14F8083C3CF1F920F920FB6CB
:1012F0000F9211240BB60F922F933F934F935F934E
:101300006F937F938F939F93AF93BF93CF93EF93FD
:10131000FF9320910601C091ED0D9091EC0D80910D
:10132000EB0D322F309583239223892B90916D0002
:10133000C227C923C8232093ED0DCC23C1F1C0FFE0
:1013400005C0E091DB0DF091DC0D1995C1FF05C0E2
:10135000E091DD0DF091DE0D1995C2FF05C0E09121
:10136000DF0DF091E00D1995C3FF05C0E091E10D8F
:10137000F091E20D1995C4FF05C0E091E30DF091E5
:10138000E40D1995C5FF05C0E091E50DF091E60D5E
:101390001995C6FF05C0E091E70DF091E80D19958C
:1013A000C7FF05C0E091E90DF091EA0D1995FF9195
:1013B000EF91CF91BF91AF919F918F917F916F915D
:1013C0005F914F913F912F910F900BBE0F900FBEE9
:1013D0000F901F9018951F920F920FB60F92112425
:1013E0000BB60F922F933F934F935F936F937F931F
:1013F0008F939F93AF93BF93CF93EF93FF932091DE
:101400000301C091DA0D9091D90D8091D80D322F42
:10141000309583239223892B9091D70DC227C9231E
:10142000C8232093DA0DCC2389F1C0FF05C0E091D9
:10143000C90DF091CA0D1995C1FF05C0E091CB0D02
:10144000F091CC0D1995C2FF05C0E091CD0DF09142
:10145000CE0D1995C3FF05C0E091CF0DF091D00DD1
:101460001995C4FF05C0E091D10DF091D20D1995E9
:10147000C5FF05C0E091D30DF091D40D1995C6FFBD
:1014800005C0E091D50DF091D60D1995FF91EF9122
:10149000CF91BF91AF919F918F917F916F915F910C
:1014A0004F913F912F910F900BBE0F900FBE0F9059
:1014B0001F9018951F920F920FB60F9211240BB622
:1014C0000F922F933F934F935F936F937F938F93DD
:1014D0009F93AF93BF93CF93EF93FF9323B1C091AB
:1014E000C80D9091C70D8091C60D322F3095832382
:1014F0009223892B90916B00C227C923C823209384
:10150000C80DCC23C1F1C0FF05C0E091B60DF0912C
:10151000B70D1995C1FF05C0E091B80DF091B90D57
:101520001995C2FF05C0E091BA0DF091BB0D199558
:10153000C3FF05C0E091BC0DF091BD0D1995C4FF2E
:1015400005C0E091BE0DF091BF0D1995C5FF05C016
:10155000E091C00DF091C10D1995C6FF05C0E09155
:10156000C20DF091C30D1995C7FF05C0E091C40DE0
:10157000F091C50D1995FF91EF91CF91BF91AF916A
:101580009F918F917F916F915F914F913F912F919B
:101590000F900BBE0F900FBE0F901F9018951F92CB
:1015A0000F920FB60F9211240BB60F922F933F9309
:1015B0004F935F936F937F938F939F93AF93BF935B
:1015C000EF93FF93E091B40DF091B50D1995FF9154
:1015D000EF91BF91AF919F918F917F916F915F91AB
:1015E0004F913F912F910F900BBE0F900FBE0F9018
:1015F0001F9018951F920F920FB60F9211240BB6E1
:101600000F922F933F934F935F936F937F938F939B
:101610009F93AF93BF93EF93FF93E091B20DF0913F
:10162000B30D1995FF91EF91BF91AF919F918F915C
:101630007F916F915F914F913F912F910F900BBED2
:101640000F900FBE0F901F9018951F920F920FB61C
:101650000F9211240BB60F922F933F934F935F93EA
:101660006F937F938F939F93AF93BF93EF93FF936A
:10167000E091B00DF091B10D1995FF91EF91BF91EF
:10168000AF919F918F917F916F915F914F913F911A
:101690002F910F900BBE0F900FBE0F901F901895BB
:1016A0001F920F920FB60F9211240BB60F922F9329
:1016B0003F934F935F936F937F938F939F93AF93DA
:1016C000BF93EF93FF93E091AE0DF091AF0D19959D
:1016D000FF91EF91BF91AF919F918F917F916F910A
:1016E0005F914F913F912F910F900BBE0F900FBEC6
:1016F0000F901F9018951F920F920FB60F92112402
:101700000BB60F922F933F934F935F936F937F93FB
:101710008F939F93AF93BF93EF93FF93E091AC0DA3
:10172000F091AD0D1995FF91EF91BF91AF919F9100
:101730008F917F916F915F914F913F912F910F907A
:101740000BBE0F900FBE0F901F9018951F920F9217
:101750000FB60F9211240BB60F922F933F934F9316
:101760005F936F937F938F939F93AF93BF93EF9309
:10177000FF93E091AA0DF091AB0D1995FF91EF91B8
:10178000BF91AF919F918F917F916F915F914F9199
:101790003F912F910F900BBE0F900FBE0F901F9097
:1017A00018951F920F920FB60F9211240BB60F923D
:1017B0002F933F934F935F936F937F938F939F9359
:1017C000AF93BF93EF93FF93E091A80DF091A90D14
:1017D0001995FF91EF91BF91AF919F918F917F915B
:1017E0006F915F914F913F912F910F900BBE0F9092
:1017F0000FBE0F901F9018951F920F920FB60F9269
:1018000011240BB60F922F933F934F935F936F93D7
:101810007F938F939F93AF93BF93EF93FF93E09149
:10182000A60DF091A70D1995FF91EF91BF91AF9182
:101830009F918F917F916F915F914F913F912F91E8
:101840000F900BBE0F900FBE0F901F901895542F46
:101850008F779EEF980F923008F4B6C095EB980FF3
:10186000923008F4B1C09EEE980F943008F4ACC0EA
:10187000282F30E0F901863438F0E45BFE4F849184
:10188000433009F063C115C0EE5AFE4F8491F9014F
:10189000E856FE4F9491433011F04130B9F4923044
:1018A00031F44091C70D482B4093C70D0FC09A30BB
:1018B00031F49091D90D982B9093D90D4AC19B305A
:1018C00029F44091EC0D482B4093EC0D4FEF450F60
:1018D0004230B8F4923031F44091C60D482B409319
:1018E000C60D0FC09A3031F44091D80D482B40936B
:1018F000D80D07C09B3029F44091EB0D482B409345
:10190000EB0DF901E252FE4FA4919230C1F4B0E028
:10191000AA0FBB1FAA54B24F6D937C93E9E4F2E087
:10192000A591B4919C919093C80D2BE630E0309333
:10193000A50D2093A40D9091680091603BC09A3052
:1019400001F5B0E0AA0FBB1FA753B24F6D937C9374
:10195000E9E5F2E0A591B4919C919093DA0D2CE623
:1019600030E03093A50D2093A40D90916800926013
:10197000909368009091D70D982B9093D70D880F76
:101980001BC09B30C9F4B0E0AA0FBB1FA552B24FD9
:101990006D937C93EBE5F2E0A591B4919C919093CB
:1019A000ED0D2DE630E03093A50D2093A40D909120
:1019B0006800946090936800A091A40DB091A50D6B
:1019C000EC918E2B8C9308959FB7F894833109F492
:1019D00064C0E0F4833009F48CC0823109F473C030
:1019E000823009F0B1C07093AF0D6093AE0DEC98EA
:1019F00080916A008C7F80936A0080916A00452FF5
:101A0000482B40936A00E49AEC9A9EC08531E9F035
:101A100070F18B3409F483C08C3409F095C0709355
:101A2000B50D6093B40DEF9880916A008F73809329
:101A30006A0080916A0020E4529FA0011124482B83
:101A400040936A00E79AEF9A7FC07093A70D609366
:101A5000A60DE898809169008C7F80936900409181
:101A60006900452B40936900E09AE89A6DC0709335
:101A7000A90D6093A80DE99880916900837F8093F8
:101A800069008091690024E0529FA0011124482B35
:101A900040936900E19AE99A57C07093AB0D609347
:101AA000AA0DEA98809169008F7C809369008091EB
:101AB000690020E1529FA0011124482B4093690046
:101AC000E29AEA9A41C07093AD0D6093AC0DEB9829
:101AD000809169008F73809369008091690020E490
:101AE000529FA0011124482B40936900E39AEB9A7E
:101AF0002BC07093B10D6093B00DED9880916A008A
:101B0000837F80936A0080916A0024E0529FA00145
:101B10001124482B40936A00E59AED9A15C0709302
:101B2000B30D6093B20DEE9880916A008F7C809324
:101B30006A0080916A0020E1529FA0011124482B85
:101B400040936A00E69AEE9A9FBF0895413009F4E7
:101B5000B0CE9AE0BBCE009769F0FC010190002066
:101B6000E9F73197AF01481B590BBC0186E89EE0AD
:101B70000C94860180E090E008958AE69DE0EBCF2A
:101B8000CF93DF93E8DFEC01F8DF8C0F9D1FDF912F
:101B9000CF910895E091860EF091870E0190F0812B
:101BA000E02D682F86E89EE019948091840E909134
:101BB000850E2091820E3091830E82179307ACF42C
:101BC000FC01EE5FF14F8081E5DF8091840E909102
:101BD000850E9C012F5F3F4F3093850E2093840E1E
:101BE000FC01EE5FF14F808108952ECB2F923F9242
:101BF0004F925F926F927F928F929F92AF92BF921D
:101C0000CF92DF92EF92FF920F931F93CF93DF93C8
:101C1000CDB7DEB72E970FB6F894DEBF0FBECDBF9F
:101C20009A83898310927E1010927F1010928010F8
:101C300010928110109282101092831010928410D2
:101C400010928510109276101092771010927810E2
:101C50001092791010927A1010927B1010927C10D2
:101C600010927D101092FA0D1092FB0D1092FC0D47
:101C70001092FD0D1092FE0D1092FF0D1092000EAD
:101C80001092010E81E080930002109201021092E6
:101C900002021092030210920402109205021092A6
:101CA0000602109207021092F90D1092F80D7DDFD6
:101CB000182F082E000C990B0E942129892BB9F7A7
:101CC0001B3219F472DF182F09C01D3239F46DDF91
:101CD000182F81E090E09C878B8702C01C861B86B2
:101CE000EE24E394F12C103339F45FDF182FF092D7
:101CF000F90DE092F80DF7CF812F012E000C990B12
:101D0000C0970A9708F057C022242394312CE12F62
:101D1000012E000CFF0BF097EA30F10508F048C0E7
:101D20003092F90D2092F80D20917E1030917F10A5
:101D300040918010509181106091821070918310B9
:101D4000809184109091851001E00E94DA28290189
:101D50003A014B01B82FA92F02E00E94DA2859015D
:101D60006A017B018C019201A301B4018B2F9A2F90
:101D70000E94F3281F2F110F110B5F01C12ED12ECE
:101D8000E12EF12E012F0E94F32820937E10309334
:101D90007F10409380105093811060938210709355
:101DA00083108093841090938510FFDE182FAFCF9F
:101DB0001E861D8610C01E3299F4F7DE182F1E866F
:101DC0001D86103341F4AD85BE851197BE87AD8762
:101DD000ECDE182FF6CF1E3229F4E7DE182F02C0F2
:101DE0001E861D8688248394912CE12F012E000CE1
:101DF000FF0BF097EA30F10508F04DC09092F90D15
:101E00008092F80D20917E1030917F1040918010CB
:101E10005091811060918210709183108091841094
:101E20009091851001E00E94DA2819012A013B01F6
:101E3000B82FA92F02E00E94DA2859016A017B011C
:101E40008C019101A201B3018B2F9A2F0E94F328DC
:101E50001F2F110F110B5F01C12ED12EE12EF12E7C
:101E6000012F0E94F32820937E1030937F1040931F
:101E70008010509381106093821070938310809330
:101E8000841090938510ED85FE853197FE87ED8750
:101E90008CDE182FAACF1F7D153489F586DE8B3294
:101EA00011F483DE06C08D3221F47FDE01E010E004
:101EB00002C000E010E0803311F477DEFCCFE12CAB
:101EC000F12C9AE0D92E082E000C990BC0978A307D
:101ED000910550F4DE9C9001DF9C300D11247901B6
:101EE000E80EF91E62DEEFCF012B19F0F194E194B8
:101EF000F1088D859E858E0D9F1D9E878D87809113
:101F0000F80D9091F90D892B09F455C180907E1040
:101F100090907F10909180109B83A0918110AC8352
:101F2000B0918210BD83E0918310EE8360908410A5
:101F30007090851080927610909277109093781020
:101F4000A0937910B0937A10E0937B1060927C108C
:101F500070927D108D859E8597FF8CC03090000219
:101F600020900102909102029F83A0910302A88712
:101F7000B0910402B987E0910502EA875090060209
:101F800040900702232D322D4F81588569857A852F
:101F9000852D942D01E00E94DA2819012A01B62F1F
:101FA000A72FF82FE92F02E00E94DA2859016A01D1
:101FB0007B018C019101A2016B2F7A2F8F2F9E2F15
:101FC0000E94F328322E232E4F83588769877A8701
:101FD000582E492E8D859E8501969E878D87892B4B
:101FE00089F630920002209201024093020250933F
:101FF000030260930402709305025092060240921D
:102000000702A32CB22CC42ED52EE62EF72E052DBA
:10201000142D94014B815C816D817E81C3010E94EE
:102020000A282093FA0D3093FB0D4093FC0D50933A
:10203000FD0D6093FE0D7093FF0D8093000E909345
:10204000010E94014B815C816D817E81C3010E94F0
:102050000C2820937610309377104093781050938B
:10206000791060937A1070937B1080937C1090931A
:102070007D103EC08D859E85892BD1F1E0E0F0E09A
:1020800094014B815C816D817E81C30101E00E94DE
:10209000DA2829013A014B01B82FA92F02E00E944A
:1020A000DA2859016A017B018C019201A301B40174
:1020B0008B2F9A2F0E94F32849014B835C836D83F9
:1020C0007E833C013196AD85BE85EA17FB07C1F6DC
:1020D0002093761090927710409378105093791057
:1020E00060937A1070937B1060927C1070927D10D8
:1020F000AB85BC85AB2B09F444C0209176103091A0
:102100007710409178105091791060917A10709109
:102110007B1080917C1090917D100E9493282093D9
:102120007610309377104093781050937910609325
:102130007A1070937B1080937C1090937D10209187
:10214000FA0D3091FB0D4091FC0D5091FD0D609109
:10215000FE0D7091FF0D8091000E9091010E0E9476
:1021600093282093FA0D3093FB0D4093FC0D509370
:10217000FD0D6093FE0D7093FF0D8093000E909304
:10218000010E80917610E981FA8180838091771029
:1021900081838091781082838091791083838091EC
:1021A0007A10848380917B10858380917C10868354
:1021B00080917D1087832E960FB6F894DEBF0FBEF8
:1021C000CDBFDF91CF911F910F91FF90EF90DF90E6
:1021D000CF90BF90AF909F908F907F906F905F90C7
:1021E0004F903F902F9008958F929F92AF92BF9201
:1021F0000F931F93CF93DF93CDB7DEB7A1970FB6A1
:10220000F894DEBF0FBECDBF19A2423008F44AE0F9
:102210008E010F5D1F4F842E912CA12CB12CA50196
:1022200094010E94A32CE62FB901CA0101501109A3
:10223000EA3014F4E05D01C0E95CD801EC93232B93
:10224000242B252B61F7C80186DCA1960FB6F894E4
:10225000DEBF0FBECDBFDF91CF911F910F91BF9019
:10226000AF909F908F900895CF92DF92EF92FF9260
:10227000CF93DF9397FF17C06B017C018DE28ADC5F
:10228000EC0166277727CB016C197D098E099F0920
:102290004AE0AADF8C0F9D1FDF91CF91FF90EF9056
:1022A000DF90CF9008954AE0DF91CF91FF90EF90BB
:1022B000DF90CF9099CFCF93DF93D6DFEC015DDC39
:1022C0008C0F9D1FDF91CF91089545CCCF93DF9365
:1022D00061DCEC0152DC8C0F9D1FDF91CF910895E2
:1022E000CF93DF93CDB7DEB7CE51D1400FB6F89480
:1022F000DEBF0FBECDBF789484B5826084BD84B547
:10230000816084BD85B5826085BD85B5816085BDF0
:1023100080916E00816080936E00109281008091A8
:102320008100826080938100809181008160809330
:102330008100809180008160809380008091B10055
:1023400084608093B1008091B00081608093B00080
:1023500080919100826080939100809191008160D2
:102360008093910080919000816080939000809193
:10237000A10082608093A1008091A1008160809380
:10238000A1008091A00081608093A0008091210134
:1023900082608093210180912101816080932101DD
:1023A0008091200181608093200180917A00846077
:1023B00080937A0080917A00826080937A00809185
:1023C0007A00816080937A0080917A00806880939F
:1023D0007A001092C10060E082E10E94450461E051
:1023E0008CE00E94450461E08DE00E94450461E0BC
:1023F00084E40E94160461E085E40E941604E091E2
:10240000960EF091970E82E08083E091920EF0910B
:10241000930E1082E091940EF091950E80E18083EE
:1024200010929E0EE0919A0EF0919B0E86E08083B2
:10243000E091980EF091990E808180618083E09107
:10244000980EF091990E808188608083E091980EBB
:10245000F091990E808180688083E091980EF091D0
:10246000990E80818F7D80831FB7F8948091760DBF
:10247000811127C0EDECF1E08491E7E8F1E094915F
:10248000E82FF0E0EE0FFF1FE85CFE4FA591B4913E
:10249000EC91E92321F461E085E30E94160461E0F8
:1024A00085E30E9445048CB580618CBD8CB5806449
:1024B0008CBD61E084E30E94450461E083E30E94F7
:1024C00045048091760D8F5F8093760D1FBFBE010E
:1024D00062597F4F80EF9FE00E94F0078E010F5FEF
:1024E0001F4FB80184EF9FE00E94F007E2968CAD89
:1024F0009DADAEADBFADE2978F3F2FEF9207A20724
:10250000B20759F489819A81AB81BC818F3F9F4F7B
:10251000AF4FBF4F09F087C00EC0892B8A2B8B2B82
:1025200009F081C089819A81AB81BC81892B8A2B7A
:102530008B2B09F078C082E392E022DB86E30E94D5
:102540008104BC01990F880B990B611571058105F8
:10255000910511F00E94582C0E94552C2FEF3FEF4F
:1025600040E050E00E94772CE2966CAF7DAF8EAFDA
:102570009FAFE29789E30E948104BC01990F880B09
:10258000990B611571058105910511F00E94582C78
:102590000E94552C2FEF3FEF40E050E00E94772C37
:1025A00069837A838B839C83BE0162597F4F80EF5E
:1025B0009FE00E94D107B80184EF9FE00E94D107FD
:1025C0008C818F938B818F938A818F9389818F9355
:1025D000E2968FADE2978F93E1968FADE1978F935F
:1025E000E0968FADE0978F93AF968FADAF978F93B7
:1025F00087E592E09F938F9387E79DE09F938F936A
:102600000E9440298BEA93E060DE87E79DE0B8DA1C
:102610006CE47DE180E090E00E94A0040FB6F894A5
:10262000DEBF0FBECDBF8C818F938B818F938A814C
:102630008F9389818F93E2968FADE2978F93E19686
:102640008FADE1978F93E0968FADE0978F93AF9624
:102650008FADAF978F9387E592E09F938F9387E736
:102660009DE09F938F930E94402980E090E00E941C
:10267000612C0FB6F894DEBF0FBECDBF883009F4D1
:10268000CFC082E692E07CDA88E0898341E150E0C5
:102690006CE072E0CE0102960E94312984E48B8BBB
:1026A00041E150E067E77DE0CE0144960E94312988
:1026B0001DA21EA280E88FA386E988A788E989A7C2
:1026C0001AA61BA61CA61DA61EA61FA681EE88ABD9
:1026D00085EF89AB85E08AAB1BAA1CAA1DAA1EAA9E
:1026E00084E190E098AF8FAB85E090E09AAF89AF3E
:1026F0008DE48BAF82E58CAF8DAF94EC9EAF89E01B
:102700008FAF21961FAE219722961FAE2297239658
:102710001FAE239724961FAE249725961FAE2597AC
:1027200026961FAE269727969FAF279728968FAF9E
:10273000289729961FAE29972A961FAE2A972B967F
:102740001FAE2B972C961FAE2C972D961FAE2D9754
:102750002E961FAE2E972F961FAE2F9760961FAE08
:10276000609761961FAE619762961FAE62976396FF
:102770001FAE639764961FAE649765961FAE65970C
:1027800066961FAE669767961FAE679768961FAEF0
:10279000689769961FAE69976A961FAE6A976B969F
:1027A0001FAE6B976C961FAE6C976D961FAE6D97B4
:1027B0006E961FAE6E976F961FAE6F97A0961FAE68
:1027C000A097A1961FAEA197A2961FAEA297A3961F
:1027D0001FAEA397A4961FAEA497A5961FAEA5976C
:1027E000A6961FAEA697A7961FAEA797A8961FAE50
:1027F000A897A9961FAEA997AA961FAEAA97AB96BF
:102800001FAEAB97AC961FAEAC97AD961FAEAD9713
:10281000AE961FAEAE97B80180E090E00E940F0820
:10282000B9E0CB2EB0E1DB2EE12CF12CC7010E94E8
:10283000612CD6018D936D01BFEFEB1AFB0AEDE61B
:10284000EE16F10499F780912D108093910D95D992
:1028500087E892E095D988EA92E092D98ED983ED03
:1028600092E08ED989EE92E08BD98DE6E9E0F0E135
:10287000DE01A259BF4F01900D928A95E1F780E0E9
:1028800093E023DDCE56DF4F9881C259D04092307D
:1028900081F038F4992351F09130A1F486E293E06D
:1028A00010C0933049F0943051F00CC085E193E0B2
:1028B00008C08FE193E005C089E393E061D98BE420
:1028C00093E05ED981E593E000DDCD56DF4F88814E
:1028D000C359D040882311F0F9DC03C084E693E0AB
:1028E0004FD989E693E0F1DC80E090E00E94612C12
:1028F000682F70E080E090E04AE076DC8CE793E0BF
:10290000E4DCC058DF4F8881C058D040DFDC8EE85F
:1029100093E0DBDC8CE092E033D983EA93E0D5DC12
:102920008EE690E08C0F9D1F43962AD98BEB93E0A7
:10293000CCDCCC56DF4F2881C459D040CB56DF4F7A
:102940003881C559D040CA56DF4F4881C659D0405A
:10295000C956DF4F5881C759D040C856DF4F6881EC
:10296000C859D040C756DF4F7881C959D040C656A4
:10297000DF4F8881CA59D040C556DF4F9881CB5967
:10298000D0400E942E088BEC93E0FAD880ED93E0C3
:102990009CDCC456DF4F2881CC59D040C356DF4F52
:1029A0003881CD59D040C256DF4F4881CE59D040F2
:1029B000C156DF4F5881CF59D040C056DF4F688194
:1029C000C05AD040CF55DF4F7881C15AD040CE5544
:1029D000DF4F8881C25AD040CD55DF4F9881C35A0E
:1029E000D0400E942E0880EE93E0CAD886EE93E095
:1029F0006CDCCC55DF4F68817981C45AD040072EFA
:102A0000000C880B990B30DCB8D886EF93E05DDCC6
:102A1000C855DF4F8881C85AD04058DC83E094E025
:102A200054DCC955DF4F8881C75AD0408F93CA55AF
:102A3000DF4F8881C65AD0408F938FE094E09F93F8
:102A40008F931F930F930E944029C80199D886E164
:102A500094E03BDCEEE6F0E0EC0FFD1FFD966081BC
:102A600071818281938100DC88E294E02EDCCD5478
:102A7000DF4F688179818A819B81C35BD040F4DB21
:102A800081E394E07DD888E394E01FDCC554DF4FF8
:102A9000688179818A819B81CB5BD040E5DB88E2CC
:102AA00094E013DCCD53DF4F688179818A819B816B
:102AB000C35CD040D9DB81E394E062D888E494E041
:102AC00004DCC553DF4F688179818A819B81CB5CAF
:102AD000D040CADB88E294E0F8DBCD52DF4F68815A
:102AE00079818A819B81C35DD040BEDB81E394E024
:102AF00047D883ED92E044D883E594E041D888E755
:102B000094E0E3DB0F900F900F900F900F900F90D9
:102B100007E010E06AEF70E080E090E00E94A0041F
:102B20008EE238D886E89EE00E94D301892B11F00E
:102B300011E02FC06AEF70E080E090E00E94A004F6
:102B40008EE228D886E89EE00E94D301892B81F787
:102B50006AEF70E080E090E00E94A0048EE21AD854
:102B600086E89EE00E94D301892B11F76AEF70E09E
:102B700080E090E00E94A0048EE20CD886E89EE0FF
:102B80000E94D301892BA1F60150110909F0C2CF8F
:102B900010E086E89EE00E94D301892B29F086E8A8
:102BA0009EE00E94B101F5CF112309F43EC78E01CA
:102BB00005511F4FCD50DF4F19830883C35FD040AD
:102BC0001E011BED210E311C0E94BD0D0E94BD0D8A
:102BD0008BE794E07ADBE0912D10E53028F4F0E00B
:102BE000E35EFD4F808101C08FE30E94CA0D88E93A
:102BF00094E00E94C00D81EB94E067DB80912E1081
:102C0000882329F00E94CA0D8EEC94E005C080E371
:102C100098E05BDB82ED94E00E94C00D8BEE94E0C7
:102C200054DB20912F103091301040913110509191
:102C30003210609133107091341080913510909162
:102C400036100E942E0888E095E00E94C00D8AE1AF
:102C500095E03BDB209137103091381040913910CE
:102C600050913A1060913B1070913C1080913D1052
:102C700090913E100E942E0887E395E00E94C00DBF
:102C800089E495E022DB60913F1070914010072E9F
:102C9000000C880B990BE8DA86E695E00E94C00DDF
:102CA0008FE795E012DB8091411090914210092E40
:102CB000000CAA0BBB0BBF93AF939F938F93ACE910
:102CC000B5E0BF93AF93CC50DF4FF881C45FD040E5
:102CD000FF93CD50DF4F0881C35FD0400F930E9418
:102CE0004029CE0185519F4FF0DA83EA95E00E949A
:102CF000C00D8CEB95E0E9DA809143100E94CA0D7B
:102D000089ED95E00E94C00D82EF95E0DEDA8091BA
:102D100044100E94CA0D80E20E94CA0D80914510A5
:102D20000E94CA0D8FE096E00E94C00D86E296E0F8
:102D3000CCDA6091461070914710809148109091C4
:102D4000491092DA80E20E94CA0D60914E10709193
:102D50004F10809150109091511086DA83E496E0E4
:102D60000E94C00D87E596E0B0DA60915610709130
:102D70005710809158109091591076DA80E20E9495
:102D8000CA0D60915E1070915F10809160109091FB
:102D900061106ADA84E796E00E94C00D8BE896E045
:102DA00094DA60916610709167108091681090912C
:102DB00069105ADA80E20E94CA0D60916E1070911B
:102DC0006F1080917010909171104EDA84E796E048
:102DD0000E94C00D0E94BD0D88EA96E00E94C00DC1
:102DE00088EC96E00E94C00D89EE96E00E94C00D2E
:102DF0008CE097E00E94C00D0E942409082E000C70
:102E0000990B0E9429290FB6F894DEBF0FBECDBFE3
:102E1000082E000C990BAA0BBB0BFC01E354F10923
:102E2000E831F10508F0FCC58827EE58FF4F8F4FB9
:102E30000C94B12789E197E00E94C00D0E94BD0D5E
:102E400088E497E00E94C00D80E697E00E94C00DE4
:102E500085E797E00E94C00D86E997E00E94C00DCB
:102E600085EB97E00E94C00D0E94BD0D89EC97E0B4
:102E70002CDA0E942409082E000C990B0E942929A3
:102E80008C349105A1F044F484349105A1F0893487
:102E9000910599F481E00CC08035910531F08435BD
:102EA000910559F410922D108FCE82E001C083E07D
:102EB00080932D1089CE84E0FBCF86ED97E00E94B1
:102EC000C00DD7CF82EF97E000DA80912E108823D3
:102ED00019F00E94CA0D03C080E398E0F6D982E0A1
:102EE00098E00E94C00D0E942409082E000C990B46
:102EF0000E942929803209F480E080932E1064CE4C
:102F000086E398E0E2D920912F1030913010409163
:102F100031105091321060913310709134108091C3
:102F20003510909136100E942E0883E498E00E949C
:102F3000C00D87E698E00E94C00D0E9432091092F1
:102F4000850E1092840EC1010E94F60DD1015C9095
:102F500011966C90119712967C90129713968C9004
:102F6000139714969C9014971596BC91F101468086
:102F7000F781CB50DF4FF883C55FD040252D362D2C
:102F8000472D582D692D7B2F842D9F2FAFEF0E9449
:102F9000FC28AFE00E94112911F008F015CE252D74
:102FA000362D472D582D692D7B2F842D9F2F05E021
:102FB0000E94DA28A52CB62CC72CD82CE92CFB2E85
:102FC000042D1F2F0E94082959016A017B01A82F97
:102FD000192F06E00E94DA280A2F0E94082903E030
:102FE0000E94DA28A52CB62CC72CD82CE92CFB2E55
:102FF000042D1F2F0E94F32806E00E94DA28422E9B
:10300000CB5FDE4F3883C550D140CD5FDE4F488364
:10301000C350D140C85FDE4F5883C850D140CB5019
:10302000DF4F6883C55FD040C350DF4F7883CD5FEB
:10303000D040CF5FDE4F8883C150D140CE5FDE4F9E
:103040009883C250D1409090FA0DB091FB0DA091A1
:10305000FC0DF091FD0DE091FE0D7090FF0D609064
:10306000000E5090010E292D3B2F4A2F5F2F6E2FFF
:10307000772D862D952D05E00E94DA28A92CBB2EF0
:10308000CA2EDF2EEE2EF72C062D152D0E940829B4
:1030900059016A017B01882E192F06E00E94DA2867
:1030A000082D0E94082903E00E94DA28A92CBB2ED3
:1030B000CA2EDF2EEE2EF72C062D152D0E94F3289A
:1030C00006E00E94DA28A0900002B0900102C090B1
:1030D0000202D0900302E0900402F09005020091F9
:1030E0000602109107020E940C2859016A017B0117
:1030F0008C01242DCB5FDE4F3881C550D140CD5F90
:10310000DE4F4881C350D140C85FDE4F5881C85060
:10311000D140CB50DF4F6881C55FD040C350DF4FF7
:103120007881CD5FD040CF5FDE4F8881C150D140E4
:10313000CE5FDE4F9881C250D1400E94F328209389
:103140002F10309330104093311050933210609311
:10315000331070933410809335109093361034CD23
:103160008EEA98E0B2D82091371030913810409113
:10317000391050913A1060913B1070913C10809141
:103180003D1090913E100E942E0881EC98E00E9424
:10319000C00D86ED98E00E94C00D0E943209109289
:1031A000850E1092840EC1010E94F60DD1015C9033
:1031B00011966C90119712967C90129713968C90A2
:1031C000139714969C9014971596BC91F101468024
:1031D000F781CB50DF4FF883C55FD040252D362DCA
:1031E000472D582D692D7B2F842D9F2FA0E00E9405
:1031F000112909F00CF4E8CC05E00E94DA28A52C8E
:10320000B62CC72CD82CE92CFB2E042D1F2F0E9486
:10321000082959016A017B01A82F192F06E00E9495
:10322000DA280A2F0E94082903E00E94DA28A52C38
:10323000B62CC72CD82CE92CFB2E042D1F2F0E9456
:10324000F32806E00E94DA28422ECB5FDE4F388357
:10325000C550D140CD5FDE4F4883C350D140C85FD9
:10326000DE4F5883C850D140CB50DF4F6883C55FD5
:10327000D040C350DF4F7883CD5FD040CF5FDE4F6B
:103280008883C150D140CE5FDE4F9883C250D14079
:103290009090FA0DB091FB0DA091FC0DF091FD0DF9
:1032A000E091FE0D7090FF0D6090000E5090010EA9
:1032B000292D3B2F4A2F5F2F6E2F772D862D952D91
:1032C00005E00E94DA28A92CBB2ECA2EDF2EEE2E96
:1032D000F72C062D152D0E94082959016A017B0142
:1032E000882E192F06E00E94DA28082D0E9408294E
:1032F00003E00E94DA28A92CBB2ECA2EDF2EEE2E68
:10330000F72C062D152D0E94F32806E00E94DA28DE
:10331000A0900002B0900102C0900202D09003027F
:10332000E0900402F090050200910602109107025D
:103330000E940C2859016A017B018C01242DCB5F6E
:10334000DE4F3881C550D140CD5FDE4F4881C3503C
:10335000D140C85FDE4F5881C850D140CB50DF4FBD
:103360006881C55FD040C350DF4F7881CD5FD040CA
:10337000CF5FDE4F8881C150D140CE5FDE4F988154
:10338000C250D1400E94F328209337103093381058
:103390004093391050933A1060933B1070933C1057
:1033A00080933D1090933E100FCC8CE199E00E94E9
:1033B000651160913F1070914010072E000C880B32
:1033C000990B0E94341181E399E00E94C00D8EE5B3
:1033D00099E00E94C00D0E9432091092850E109251
:1033E000840EC1010E94F60D8091F80D9091F90DA7
:1033F000892B09F4E9CBD101FC911196EC9111973D
:103400001296DC9012971396EC9013971496FC90FA
:10341000149715960C91159716961C91169717965A
:10342000CC902F2F277F3E2F4D2D5E2D6F2D702F8F
:10343000812F9C2DA2E00E94112951F02F2FA4E191
:103440000E94112929F0A8E20E94112909F0BCCBA1
:10345000CF0190933F10E0934010B6CB8091411084
:1034600090914210092E000CAA0BBB0BBF93AF9397
:103470009F938F93ACE9B5E0BF93AF933F922F92A8
:103480000E9440298CE999E00E946511C1010E94C7
:10349000651185EA99E00E94C00D8EE599E00E94D1
:1034A000C00D0E9432091092850E1092840ECE013A
:1034B0008D519F4F0E94F60D0FB6F894DEBF0FBEE0
:1034C000CDBF8091F80D9091F90D892B09F47CCB3B
:1034D000CD51DF4FF881C35ED040CC51DF4FE88142
:1034E000C45ED040CB51DF4F4881C55ED040CA5149
:1034F000DF4F5881C65ED040C951DF4F6881C75E3B
:10350000D040C851DF4F7881C85ED0402F2F3E2F6A
:10351000C751DF4F8881C95ED040C651DF4F9881C7
:10352000CA5ED0402F3F3105410551056105710547
:103530008105910511F008F047CBCF019093411020
:103540008093421041CB87ED99E00E9465118091F4
:1035500043100E94CA0D88EE99E00E94C00D0E949F
:103560002409082E000C990B0E9429298D3419F08A
:10357000833509F029CB8093431026CB88E09AE06D
:103580000E94C00D8AE19AE00E946511809144106A
:103590000E9466118CE29AE00E94651180914510AC
:1035A0000E9466118EE39AE00E94C00D0E943209CB
:1035B000E2E0FEE09F0122503E407901819180329D
:1035C000C9F3082E000C990B0E942929813419F4A3
:1035D00000E010E005C0823409F0F6CA01E010E016
:1035E000F701ED5FF14F81918032E9F3082E000C75
:1035F000990B0E942929823519F0863409F0E4CA12
:10360000F801E75FFF4E83AFDFCA84E89AE00E94CB
:10361000C00D87EA9AE00E94651160914610709192
:10362000471080914810909149100E945B118AEBDD
:103630009AE00E94651160914E1070914F10809138
:103640005010909151100E945B118DEC9AE00E94F5
:10365000C00D0E942409082E000C990B0E942929F4
:10366000813419F400E010E004C0823471F701E005
:1036700010E085EE9AE00E94C00D0E94320910927F
:10368000850E1092840EC1010E94F60D8091F80DF6
:103690009091F90D892B09F497CAF801A3E0EE0F78
:1036A000FF1FAA95E1F7E75FFF4EFD96A5C08FE0EB
:1036B0009BE00E94C00D88E29BE00E946511609132
:1036C00056107091571080915810909159100E9487
:1036D0005B1189E39BE00E94651160915E1070911F
:1036E0005F1080916010909161100E945B118DECD1
:1036F0009AE00E94C00D0E942409082E000C990B2C
:103700000E942929813419F400E010E004C08234B9
:1037100071F701E010E08AE49BE00E94C00D0E9476
:1037200032091092850E1092840EC1010E94F60D8E
:103730008091F80D9091F90D892B09F445CA73E039
:10374000000F111F7A95E1F7075F1F4EF801E35B49
:10375000FF4F52C08FE69BE00E94C00D84E89BE0C3
:103760000E946511609166107091671080916810D9
:10377000909169100E945B1185E99BE00E946511A0
:1037800060916E1070916F10809170109091711017
:103790000E945B118DEC9AE00E94C00D0E942409EA
:1037A000082E000C990B0E942929813419F400E09D
:1037B00010E004C0823471F701E010E086EA9BE07B
:1037C0000E94C00D0E9432091092850E1092840E44
:1037D000C1010E94F60D8091F80D9091F90D892B91
:1037E00009F4F2C963E0000F111F6A95E1F7075F62
:1037F0001F4EF801E35AFF4FD1018C91808311963F
:103800008C911197818312968C91129782831396D3
:103810008C911397838314968C91149784831596B7
:103820008C911597858316968C911697868317969B
:103830008C918783C9C988E0898341E150E06CE0BD
:1038400072E0CE0102960E94312984E48B8B41E123
:1038500050E067E77DE0CE0144960E9431291DA229
:103860001EA280E88FA386E988A788E989A71AA6FF
:103870001BA61CA61DA61EA61FA681EE88AB85EF63
:1038800089AB85E08AAB1BAA1CAA1DAA1EAA84E1EB
:1038900090E098AF8FAB85E090E09AAF89AF8DE470
:1038A0008BAF82E58CAF8DAF94EC9EAF89E08FAF8C
:1038B00021961FAE219722961FAE229723961FAE08
:1038C000239724961FAE249725961FAE25972696FC
:1038D0001FAE269727969FAF279728968FAF2897DA
:1038E00029961FAE29972A961FAE2A972B961FAEB0
:1038F0002B972C961FAE2C972D961FAE2D972E969C
:103900001FAE2E972F961FAE2F9760961FAE609713
:1039100061961FAE619762961FAE629763961FAE67
:10392000639764961FAE649765961FAE659766961B
:103930001FAE669767961FAE679768961FAE68972B
:1039400069961FAE69976A961FAE6A976B961FAE0F
:103950006B976C961FAE6C976D961FAE6D976E96BB
:103960001FAE6E976F961FAE6F97A0961FAEA09773
:10397000A1961FAEA197A2961FAEA297A3961FAEC7
:10398000A397A4961FAEA497A5961FAEA597A6963B
:103990001FAEA697A7961FAEA797A8961FAEA8978B
:1039A000A9961FAEA997AA961FAEAA97AB961FAE6F
:1039B000AB97AC961FAEAC97AD961FAEAD97AE96DB
:1039C0001FAEAE978DE6FE013196A9E0B0E1019001
:1039D0000D928A95E1F7F8C869E070E180E090E027
:1039E0000E940F0822C08CE69DE00E94C00D86EC6C
:1039F0009BE00E94C00D00E010E06FEFC8010E9444
:103A0000692C0F5F1F4F0115B0E11B07B1F785EF60
:103A10009BE00E94C00D8CE69DE00E94C00D05C099
:103A200082E39CE00E94C00DCFC880912D1080934E
:103A3000900DA0902F10B0903010C0903110D09009
:103A40003210E0903310F090341000913510109146
:103A50003610A092880DB092890DC0928A0DD09236
:103A60008B0DE0928C0DF0928D0D00938E0D1093C6
:103A70008F0D20E030E145EA54ED68EE70E080E023
:103A800090E00E940C282093940D3093950D409364
:103A9000960D5093970D6093980D7093990D8093A8
:103AA0009A0D90939B0D8091371080939C0D80917F
:103AB000381080939D0D8091391080939E0D8091D8
:103AC0003A1080939F0D80913B108093A00D8091C0
:103AD0003C108093A10D80913D108093A20D8091A8
:103AE0003E108093A30DA0903F10B0904010B09274
:103AF000930DA092920D33E2C32E3FE0D32E46E405
:103B0000E42E40E1F42E06E71FE0812C912C53E7D0
:103B1000752EF8011082118212821382148215828E
:103B200016821782789CD001799CB00D1124AD5D6E
:103B3000B04FFD013B961B961C921182128213829C
:103B40001482158216821782D6019B961C929B972F
:103B50009C961C929C979D961C929D979E961C925B
:103B60009E979F961C929F97D0961C92D097D19625
:103B70001C92D197D2961C92D297DB961C92F6019A
:103B8000FB9611821282138214821582168217828A
:103B9000F701708161815281438134812581968151
:103BA0008781F8E0EF0EF11CD80118967C931897E6
:103BB00019966C9319971A965C931A971B964C93C7
:103BC0001B971C963C931C971D962C931D971E9635
:103BD0009C931E971F968C931F97F7018085509694
:103BE0008C935097818551968C93519782855296EC
:103BF0008C935297838553968C93539784855496D0
:103C00008C935497858555968C93559786855696B3
:103C10008C935697878557968C935797808D589697
:103C20008C935897818D59968C935997828D5A967B
:103C30008C935A97838D5B968C935B97848D5C965F
:103C40008C935C97858D5D968C935D97868D5E9643
:103C50008C935E97878D5F968C9360E0D6018C91F4
:103C60000E94160465E070E080E090E00E94A004ED
:103C700061E0F60180810E94160465E070E080E05A
:103C800090E00E94A004FAE0AF16B10459F074F07D
:103C900044E1A416B10441F058E2A516B10431F490
:103CA00040EC05C040E403C040E801C040E0416092
:103CB00021E082E1C35EDE4F2883CD51D140C25E58
:103CC000DE4F4883CE51D1400E94EE03C35EDE4FEB
:103CD0002881CD51D140C25EDE4F4881CE51D140C6
:103CE000892B31F7222311F020E0E3CF61E0C601F8
:103CF0000E94220544E063E0C6010E942205409133
:103D0000411066E0C6010E94220540E067E0C6015E
:103D10000E94220543E860E0C6010E94220563E795
:103D2000C60ED11C0D581F4F8A94892821F0882473
:103D30008394912CEECE809143108D3409F042C0D3
:103D400061E08EE30E94450460E08EE30E94160469
:103D500068EE73E080E090E00E94A00482E10E949F
:103D6000EE0301E0892B09F400E082E0E82EF12C5B
:103D700010E09FE0C92ED12C82E10E94EE03801753
:103D80009107D9F4C6010197F1F783E3E816F1042E
:103D90009CF79FEFE91AF90AA2E3EA16F10461F72A
:103DA0008CE69DE00E94C00D8CE69DE00E94C00D57
:103DB00086E39CE00E94C00DDFCF61E08EE30E94AD
:103DC00016040CC08CE69DE00E94C00D8CE69DE0C0
:103DD0000E94C00D80E69CE00E94C00D8EE30E9410
:103DE000EE03892BD9F310926E0D10926F0D109285
:103DF000700D1092710D1092720D1092730D109241
:103E0000740D1092750D42E069E673E082E10E9444
:103E1000270C43E06EE473E082E00E94270C43E04D
:103E200063E373E083E00E94270C60E08EE30E946E
:103E3000160460E08EE30E9445048CE69DE00E943B
:103E4000C00D8CE69DE00E94C00D80912D10823047
:103E500091F038F4882361F08130A1F48EE99CE080
:103E60000FC0833059F0843069F48FEF9CE008C0B4
:103E700088E89CE005C08CEB9CE002C08FEC9CE0E5
:103E80000E94C00D60E084E40E94160460E085E4B6
:103E90000E9416042E01BBED4B0E511CE5E2FFE023
:103EA000CB5FDE4FF983E883C550D140B6E32B2EBC
:103EB000BFE03B2E16E5812E1FE0912E06E7602E17
:103EC0000FE0702EC85FDE4F19821882C850D140B3
:103ED000CB5FDE4FA881B981C550D14013968C913C
:103EE0000E94EE03892B09F0D3C461E0CB5FDE4F63
:103EF000E881F981C550D14087810E941604D10123
:103F000058967C91589759966C9159975A965C910E
:103F10005A975B964C915B975C963C915C975D964B
:103F20002C915D975E969C915E975F968C91F401C3
:103F3000708361835283438334832583968387838D
:103F40008085808B8185818B8285828B8385838B25
:103F50008485848B8585858B8685868B8785878BF5
:103F6000810103511109CD5FDE4F19830883C350CE
:103F7000D14060E1C8010E945E05D1016D937D933F
:103F80008D939C93139762E1CD5FDE4F8881998179
:103F9000C350D1400E945E05F1016483758386831E
:103FA000978361E1CD5FDE4F88819981C350D14015
:103FB0000E945E05D1011C966D937D938D939C9319
:103FC0001F976BE1CD5FDE4F88819981C350D1404F
:103FD0000E945E05F101608B718B828B938B6CE18B
:103FE000CD5FDE4F88819981C350D1400E945E052C
:103FF000C350DF4F688379838A839B83CD5FD04032
:10400000D10154966D937D938D939C935797B09166
:10401000940DCF5FDE4FB883C150D140E091950D34
:10402000CE5FDE4FE883C250D140F091960DC95F5C
:10403000DE4FF883C750D1400091970DC65FDE4F29
:104040000883CA50D1401091980DC55FDE4F188388
:10405000CB50D1402091990DC45FDE4F2883CC50C6
:10406000D14030919A0DC35FDE4F3883CD50D1409F
:1040700040919B0DC25FDE4F4883CE50D140F1018D
:1040800084859585A685B7858C019D0140E050E02B
:10409000BA01CB50DF4F8883C55FD040CA50DF4F95
:1040A0001883C65FD040C950DF4F2883C75FD04018
:1040B000C850DF4F3883C85FD040C750DF4F4883B8
:1040C000C95FD040C650DF4F5883CA5FD040C5504B
:1040D000DF4F6883CB5FD040C450DF4F7883CC5F25
:1040E000D040CF5FDE4FA880C150D140CE5FDE4FC1
:1040F000B880C250D140C95FDE4FC880C750D140A0
:10410000C65FDE4FD880CA50D140C55FDE4FE88021
:10411000CB50D140C45FDE4FF880CC50D140C35F5C
:10412000DE4F0881CD50D140C25FDE4F1881CE50A6
:10413000D140CB50DF4F2881C55FD040CA50DF4F00
:104140003881C65FD040C950DF4F4881C75FD0403B
:10415000C850DF4F5881C85FD04060E070E080E019
:1041600090E007D7D3015896AC9058975996BC90D9
:1041700059975A96CC905A975B96DC905B975C96D1
:10418000EC905C975D96FC905D975E960C915E97C7
:104190005F961C910E940829C15FDE4F2883CF5093
:1041A000D140C05FDE4F3883C051D140CF5EDE4F7B
:1041B0004883C151D140CE5EDE4F5883C251D140B9
:1041C000CD5EDE4F6883C351D140CC5EDE4F788335
:1041D000C451D140CB5EDE4F8883C551D140CA5E09
:1041E000DE4F9883C651D140F10180899189A2891F
:1041F000B389C350DF4F088119812A813B81CD5F8C
:10420000D040081B190B2A0B3B0B40E050E0BA01D1
:10421000CB50DF4F0883C55FD040CA50DF4F1883B3
:10422000C65FD040C950DF4F2883C75FD040C85019
:10423000DF4F3883C85FD040C750DF4F4883C95F26
:10424000D040C650DF4F5883CA5FD040C550DF4FC3
:104250006883CB5FD040C450DF4F7883CC5FD040C1
:1042600020E432E44FE050E060E070E080E090E075
:10427000D3011896AC9018971996BC9019971A9676
:10428000CC901A971B96DC901B971C96EC901C9771
:104290001D96FC901D971E960C911E971F961C91C3
:1042A000B7D759016A017B018C01CB50DF4F2881C0
:1042B000C55FD040CA50DF4F3881C65FD040C9507B
:1042C000DF4F4881C75FD040C850DF4F5881C85F7B
:1042D000D04060E070E080E090E04BD6E091920D3D
:1042E000F091930D31971F2F110F110B5F01C12E0C
:1042F000D12EE12EF12E012F8FD6CB50DF4F288308
:10430000C55FD040C350DF4F3883CD5FD040C95E1A
:10431000DE4F4883C751D140C85EDE4F5883C85135
:10432000D140C75EDE4F6883C951D140C65EDE4FC3
:104330007883CA51D140C55EDE4F8883CB51D140CE
:10434000C45EDE4F9883CC51D140F3011089B1890E
:104350000289F38864897589212F3B2F402F5F2DB7
:1043600086899789A0E05DD761F0D10114961C93EE
:10437000149715963C93159716960C9316971796C7
:10438000FC92A12C40E1B42E55EAC52E64EDD62E48
:1043900078EEE72EF12C00E010E0CF5FDE4F2881B1
:1043A000C150D140CE5FDE4F3881C250D140C95F8D
:1043B000DE4F4881C750D140C65FDE4F5881CA509A
:1043C000D140C55FDE4F6881CB50D140C45FDE4F26
:1043D0007881CC50D140C35FDE4F8881CD50D14031
:1043E000C25FDE4F9881CE50D140C3D5CB50DF4F56
:1043F000A880C55FD040C350DF4FB880CD5FD040AC
:10440000C95EDE4FC880C751D140C85EDE4FD8803C
:10441000C851D140C75EDE4FE880C951D140C65E69
:10442000DE4FF880CA51D140C55EDE4F0881CB51C6
:10443000D140C45EDE4F1881CC51D140EDD5C35080
:10444000DF4F2883CD5FD040CF5FDE4F3883C15030
:10445000D140CE5FDE4F4883C250D140C95FDE4FAE
:104460005883C750D140B62FA72FC65FDE4F888331
:10447000CA50D140C55FDE4F9883CB50D140F10187
:1044800040815181628173815A016B0124813581A0
:1044900046815781BA01A9019A01AB0160E070E041
:1044A000CB01CB50DF4F2883C55FD040CA50DF4FD0
:1044B0003883C65FD040C950DF4F4883C75FD040C4
:1044C000C850DF4F5883C85FD040C750DF4F688364
:1044D000C95FD040C650DF4F7883CA5FD040C55017
:1044E000DF4F8883CB5FD040C450DF4F9883CC5FD1
:1044F000D0409501A60160E070E080E090E0CB50F4
:10450000DF4FA880C55FD040CA50DF4FB880C65F7C
:10451000D040C950DF4FC880C75FD040C850DF4F80
:10452000D880C85FD040E12CF12C00E010E070D6BC
:1045300059016A017B018C01C350DF4F2881CD5F97
:10454000D040CF5FDE4F3881C150D140CE5FDE4FCB
:104550004881C250D140C95FDE4F5881C750D14019
:104560006B2F7A2FC65FDE4F8881CA50D140C55F5E
:10457000DE4F9881CB50D140FCD4E0E4AE2EF2E483
:10458000BF2EAFE0CA2ED12CE12CF12C00E010E0C0
:1045900043D559016A017B018C01C15FDE4F28813F
:1045A000CF50D140C05FDE4F3881C051D140CF5E87
:1045B000DE4F4881C151D140CE5EDE4F5881C2519D
:1045C000D140CD5EDE4F6881C351D140CC5EDE4F1D
:1045D0007881C451D140CB5EDE4F8881C551D14036
:1045E000CA5EDE4F9881C651D140FDD5CB50DF4F1A
:1045F0002883C55FD040C350DF4F3883CD5FD040A4
:10460000CF5FDE4F4883C150D140CE5FDE4F58832D
:10461000C250D140C95FDE4F6883C750D140C65FEA
:10462000DE4F7883CA50D140C55FDE4F8883CB50C0
:10463000D140C45FDE4F9883CC50D140D101589611
:104640002C93589759963C9359975A964C935A974E
:104650005B965C935B975C966C935C975D967C93A2
:104660005D975E968C935E975F969C9303E7C85F19
:10467000DE4FE881F981C850D1400E9FD0010F9FD5
:10468000B00D1124AD5DB04FFD013B961B962C91F2
:104690003181428153816481758186819781A090A7
:1046A0009C0DB0909D0DC0909E0DD0909F0DE09000
:1046B000A00DF090A10D0091A20D1091A30D59D461
:1046C000CB50DF4FA880C55FD040C350DF4FB880CC
:1046D000CD5FD040CF5FDE4FC880C150D140CE5FAC
:1046E000DE4FD880C250D140C95FDE4FE880C7504E
:1046F000D140C65FDE4FF880CA50D140C55FDE4F63
:104700000881CB50D140C45FDE4F1881CC50D140DE
:104710007FD5D40118962C93189719963C93199726
:104720001A964C931A971B965C931B971C966C9346
:104730001C971D967C931D971E968C931E971F9613
:104740009C931F975096AC9050975196BC90519760
:104750005296CC9052975396DC9053975496EC9087
:1047600054975596FC90559756960C915697579698
:104770001C9157974DD558962C93589759963C9322
:1047800059975A964C935A975B965C935B975C96B5
:104790006C935C975D967C935D975E968C935E9729
:1047A0005F969C93F3012081318142815381648122
:1047B000758186819781A1E01FD520833183428353
:1047C0005383648375838683978343E860E0CD5F7A
:1047D000DE4F88819981C350D1400E942205D301C8
:1047E0002C9111963C91119712964C911297139619
:1047F0005C91139714966C91149715967C9115976C
:1048000016968C91169717969C91A2E00AD5A9F15D
:10481000A4F180912E10882309F466C086E89EE0FA
:104820000E94D3011816190644F586E89EE00E94FE
:10483000B10120912E10022E000C330B821793072A
:10484000E1F452C08130C9F4A0905E0FB0905F0FC8
:10485000C090600FD090610FE090620FF090630FF6
:104860000091640F1091650F9501A601B701C80171
:10487000A1E0D7D411F00CF07FC060E0CB5FDE4F39
:10488000A881B981C550D14017968C910E94160419
:10489000CB5FDE4FE881F981C550D140ED58FF4F25
:1048A000CB5FDE4FF983E883C550D140F3E72F0E8D
:1048B000311C03E7600E711C13E7810E911CC85F69
:1048C000DE4F28813981C850D1402130310549F06F
:1048D00001E010E0C85FDE4F19830883C850D14063
:1048E000F7CA0E947002DACA80912D10823041F519
:1048F000D40158962C91589759963C9159975A96AD
:104900004C915A975B965C915B975C966C915C9727
:104910005D967C915D975E968C915E975F969C917B
:104920000E948C0584E39DE00E946511CB5FDE4F01
:10493000E881F981C550D14080810E9466119DCFE8
:10494000833008F068C081117DCFF4012085318566
:104950004285538564857585868597850E948C057B
:1049600084E39DE00E946511CB5FDE4FA881B98191
:10497000C550D1408C91E1CFB091D10FCD5FDE4FCA
:10498000B883C350D140E091D20FCB50DF4FE883C2
:10499000C55FD040F091D30FC350DF4FF883CD5F98
:1049A000D040B091D40FCF5FDE4FB883C150D1401B
:1049B000E091D50FCE5FDE4FE883C250D140B09179
:1049C000D60FF091D70FE091D80FCD5FDE4F288141
:1049D000C350D140CB50DF4F3881C55FD040C3506A
:1049E000DF4F4881CD5FD040CF5FDE4F5881C1504F
:1049F000D140CE5FDE4F6881C250D1407B2F8F2FD8
:104A00009E2F0FD409F00CF438CF02D40E948C05ED
:104A100088E39DE0F1C0833009F011C1D0905E0FB2
:104A2000E0905F0FF090600F0091610F1091620FA6
:104A3000B091630FF091640FE091650F2D2D3E2D25
:104A40004F2D502F612F7B2F8F2F9E2FA1E0E9D369
:104A500009F00CF412CF2091D10F3091D20F409178
:104A6000D30F5091D40F6091D50F7091D60F8091D4
:104A7000D70F9091D80FD5D309F00CF4FECE2D2D81
:104A80003E2D4F2D502F612F7B2F8F2F9E2F0E9459
:104A90008C0582E49DE00E94C00D2091D10F3091E1
:104AA000D20F4091D30F5091D40F6091D50F7091D8
:104AB000D60F8091D70F9091D80F0E948C0587E474
:104AC0009DE00E94C00D2091D10F3091D20F4091F6
:104AD000D30F5091D40F6091D50F7091D60F809164
:104AE000D70F9091D80FA0905E0FB0905F0FC0903D
:104AF000600FD090610FE090620FF090630F009113
:104B0000640F1091650F84D3CD5FDE4F2883C350AF
:104B1000D140CB50DF4F3883C55FD040C350DF4F0B
:104B20004883CD5FD040CF5FDE4F5883C150D14026
:104B3000CE5FDE4F6883C250D140C95FDE4F7883BD
:104B4000C750D140C65FDE4F8883CA50D140C55F91
:104B5000DE4F9883CB50D140A12C80E1B82E95EA4E
:104B6000C92E24EDD22E38EEE32EF12C00E010E019
:104B70002091E90F3091EA0F4091EB0F5091EC0F2B
:104B80006091ED0F7091EE0F8091EF0F9091F00F0B
:104B9000F0D1AFEF31D359016A017B018C01CD5FB8
:104BA000DE4F2881C350D140CB50DF4F3881C55FE5
:104BB000D040C350DF4F4881CD5FD040CF5FDE4F44
:104BC0005881C150D140CE5FDE4F6881C250D14084
:104BD000C95FDE4F7881C750D140C65FDE4F888104
:104BE000CA50D140C55FDE4F9881CB50D140FBD237
:104BF0000E948C058CE49DE00E94C00D10925E0F17
:104C000010925F0F1092600F1092610F1092620F5E
:104C10001092630F1092640F1092650F1092D10FD3
:104C20001092D20F1092D30F1092D40F1092D50F72
:104C30001092D60F1092D70F1092D80F1ECE84303C
:104C400009F01BCED10113968C9113978F93129676
:104C50008C9112978F9311968C9111978F938C91C1
:104C60008F93A7E5BDE0BF93AF935F924F9208D3B8
:104C7000C2010E946511D10117968C9117978F93ED
:104C800016968C9116978F9315968C9115978F93F6
:104C900014968C918F93A7E5BDE0BF93AF935F927D
:104CA0004F92EED2C2010E946511D1011F968C91E4
:104CB0001F978F931E968C911E978F931D968C91A4
:104CC0001D978F931C968C918F93A7E5BDE0BF93A2
:104CD000AF935F924F92D4D2C2010E946511D1016D
:104CE00053968C9153978F9352968C9152978F93A2
:104CF00051968C9151978F9350968C918F93A7E5F5
:104D0000BDE0BF93AF935F924F92BAD20FB6F894C3
:104D1000DEBF0FBECDBFC2010E946511D101579603
:104D20008C9157978F9356968C9156978F93559653
:104D30008C9155978F9354968C918F93A7E5BDE0F6
:104D4000BF93AF935F924F929BD2C2010E946511B5
:104D500023E7C85FDE4F08811981C850D140209FEA
:104D6000D001219FB00D1124AD5DB04FFD013B96E8
:104D70001B965C914181328123818481858186816A
:104D80008781652F742F832F922F0E94341186EA1A
:104D900096E00E946511D10158962C91589759962A
:104DA0003C9159975A964C915A975B965C915B97B8
:104DB0005C966C915C975D967C915D975E968C910C
:104DC0005E975F969C910E948C0586EA96E00E9411
:104DD0006511F4012085318542855385648575858B
:104DE000868597850E948C0584E39DE00E9465116D
:104DF000CB5FDE4FA881B981C550D1408C910E9414
:104E000066110FB6F894DEBF0FBECDBF36CDCF9280
:104E1000DF92EF92FF920F931F93CF93DF93E6E819
:104E2000FEE01382128288EE93E0A0E0B0E084837B
:104E30009583A683B78386E292E09183808385EC95
:104E400090E09587848784EC90E09787868780EC54
:104E500090E0918B808B81EC90E0938B828B82EC45
:104E600090E0958B848B86EC90E0978B868B118EEF
:104E7000128E138E148E88E080930910C3E2DFE057
:104E800084E090E09983888381E48A8382E090E0E3
:104E90009C838B838AE090E09E838D8386E090E004
:104EA00098878F8384E490E09A87898761E084E023
:104EB0000E94450460E08D810E94450461E08F817D
:104EC0000E94450460E08B810E94450461E0898571
:104ED0000E94450485E090E09093970F8093960F91
:104EE00082E48093980F09E91FE083E090E0F801E5
:104EF000918380838BE9C82E8FE0D82E8BE090E0E1
:104F0000F601918380839DE9E92E9FE0F92E87E0E9
:104F100090E0F70191838083CFE9DFE085E490E0C2
:104F20009983888361E085E00E94450460E0F60192
:104F300080810E94450461E0F70180810E94450460
:104F400060E0F80180810E94450461E08881DF9182
:104F5000CF911F910F91FF90EF90DF90CF900C9425
:104F60004504EE0FFF1F881F8BBF0790F691E02DC1
:104F70001994DF93CF931F930F939A9DF02D219F48
:104F8000F00D8B9DF00D8A9DE02DF10D039FF00D2E
:104F9000029FE00DF11D4E9DE00DF11D5E9DF00D97
:104FA0004F9DF00D7F936F93BF92AF925F934F939E
:104FB000D501EBD48B01AC01D701E7D4EB01E80FAD
:104FC000F91FD6011FD02F913F91D601DED4C60F15
:104FD000D71FE81FF91FAF91BF9114D02F913F91B8
:104FE000D4D4C60FD71FE81FF91FD601CED4E60FC1
:104FF000F71F9801BE01CF0111240F911F91CF918E
:10500000DF910895C2D4460F571FC81FD91F08F457
:1050100031960895689401C0E894F92FF12B0AF0B5
:1050200027C0A0E0B0E0E6E1F8E293C0092E0594C5
:105030001AF479D0112392F4F0E80F26FFEFE094F0
:10504000F09400951095B094C094D094A194BF0AA8
:10505000CF0ADF0AEF0AFF0A0F0B1F0B13D007FC62
:1050600062D0CDB7DEB7ECE090C0689401C0E894A0
:105070008F929F92CF93DF9305D0DF91CF919F9036
:105080008F90089588249924F401E401B0E49F935B
:10509000AA279A158B049C04ED05FE05CF05D007C1
:1050A000A10798F4AD2FDC2FCF2FFE2FE92D982CE0
:1050B000892E982F872F762F652F542F432F322F2D
:1050C0002227B85031F7BF9127C01B2EBF91BB27B5
:1050D000220F331F441F551F661F771F881F991FFC
:1050E000881C991CEE1FFF1FCC1FDD1FAA1FBB1FB2
:1050F0008A149B04EC05FD05CE05DF05A007B1076A
:1051000048F08A189B08EC09FD09CE09DF09A00BBD
:10511000B10B21601A94E1F62EF49401AF01BE01A7
:10512000CD01000C0895609570958095909530950F
:105130004095509521953F4F4F4F5F4F6F4F7F4F99
:105140008F4F9F4F08952F923F924F925F926F9291
:105150007F928F929F92AF92BF92CF92DF92EF9207
:10516000FF920F931F93CF93DF93CDB7DEB7CA1B88
:10517000DB0B0FB6F894DEBF0FBECDBF19942A88A3
:10518000398848885F846E847D848C849B84AA845B
:10519000B984C884DF80EE80FD800C811B81AA81E8
:1051A000B981CE0FD11D0FB6F894DEBF0FBECDBFB3
:1051B000ED0108950F93083090F0982F872F762FE8
:1051C000652F542F432F322F22270850F4CF220F60
:1051D000331F441F551F661F771F881F991F0A958D
:1051E000B2F70F9108952A0D3B1D4C1D5D1D6E1DDC
:1051F0007F1D801F911F08950024A7FD00942A0F92
:10520000301D401D501D601D701D801D901D089596
:105210002A193B094C095D096E097F09800B910B26
:1052200008950024A7FD00942A1730054005500575
:105230006005700580059005089581E090E0F89480
:10524000B3C391113AC2803219F089508550D0F71A
:1052500008959111089581568A5108F48052855815
:105260000895FB01DC014150504048F001900D923F
:105270000020C9F701C01D9241505040E0F7089549
:105280000F931F93CF93DF93CDB7DEB72E970FB653
:10529000F894DEBF0FBECDBF0E891F8986E08C83D8
:1052A0001A8309838FEF9FE79E838D83AE01465E4D
:1052B0005F4F688D798DCE01019611D02F81388591
:1052C000F801E20FF31F10822E960FB6F894DEBF9E
:1052D0000FBECDBFDF91CF911F910F9108952F92F7
:1052E0003F924F925F926F927F928F929F92AF9276
:1052F000BF92CF92DF92EF92FF920F931F93CF93C3
:10530000DF93CDB7DEB72C970FB6F894DEBF0FBE94
:10531000CDBF7C016B018A01FC011782168283815B
:1053200081FFB0C1CE0101964C01F7019381F601D6
:1053300093FD859193FF81916F01882309F49EC1AC
:10534000853239F493FD859193FF81916F01853208
:1053500021F4B70190E0CAD1E8CF512C312C20E0E4
:105360002032A0F48B3269F030F4803259F083326D
:1053700069F420612CC08D3239F0803339F421601A
:1053800026C02260246023C0286021C027FD27C0DA
:1053900030ED380F3A3078F426FF06C0FAE05F9E11
:1053A000300D1124532E13C08AE0389E300D112485
:1053B000332E20620CC08E3221F426FD5FC12064A2
:1053C00006C08C3611F4206802C0883641F4F6011C
:1053D00093FD859193FF81916F018111C1CF982F2A
:1053E0009F7D9554933028F40C5F1F4FFFE3F983A2
:1053F0000DC0833631F0833771F0833509F057C023
:1054000021C0F801808189830E5F1F4F442443949B
:10541000512C540114C03801F2E06F0E711CF801D8
:10542000A080B18026FF03C0652D70E002C06FEF41
:105430007FEFC5012C874FD12C0183012C852F775D
:10544000222E16C03801F2E06F0E711CF801A08008
:10545000B18026FF03C0652D70E002C06FEF7FEFC3
:10546000C5012C872DD12C012C852068222E83018B
:1054700023FC19C0832D90E048165906A0F4B7010B
:1054800080E290E033D13A94F5CFF50127FC859185
:1054900027FE81915F01B70190E028D131103A9445
:1054A000F1E04F1A51084114510479F7DEC08436F7
:1054B00011F0893631F5F80127FF07C0608171814D
:1054C000828193810C5F1F4F08C060817181072E1C
:1054D000000C880B990B0E5F1F4F2F76722E97FFD3
:1054E00009C090958095709561957F4F8F4F9F4F24
:1054F0002068722E2AE030E0A40130D1A82EA8182E
:1055000043C0853729F42F7EB22E2AE030E025C033
:10551000F22FF97FBF2E8F36C1F018F4883579F05D
:10552000ADC0803719F0883721F0A8C02F2F206137
:10553000B22EB4FE0DC08B2D8460B82E09C024FF9E
:105540000AC09F2F9660B92E06C028E030E005C043
:1055500020E130E002C020E132E0F801B7FE07C0F0
:1055600060817181828193810C5F1F4F06C06081D1
:10557000718180E090E00E5F1F4FA401EFD0A82E54
:10558000A818FB2DFF777F2E76FE0BC0372D3E7FB0
:10559000A51450F474FE0AC072FC08C0372D3E7E7C
:1055A00005C0BA2C372D03C0BA2C01C0B52C34FF6E
:1055B0000DC0FE01EA0DF11D8081803311F4397EAA
:1055C00009C032FF06C0B394B39404C0832F867819
:1055D00009F0B39433FD12C030FF06C05A2CB31447
:1055E00018F4530C5B18B32CB31460F4B70180E2C9
:1055F00090E03C877BD0B3943C85F6CFB31410F495
:105600003B1801C0312C34FF11C0B70180E390E09A
:105610003C876CD03C8532FF16C031FD03C088E763
:1056200090E002C088E590E0B7010CC0832F867837
:1056300051F031FF02C08BE201C080E237FD8DE204
:10564000B70190E053D0A51430F4B70180E390E0A7
:105650004DD05A94F8CFAA94F401EA0DF11D80813F
:10566000B70190E043D0A110F6CF332009F45DCE0E
:10567000B70180E290E03AD03A94F7CFF701868103
:10568000978102C08FEF9FEF2C960FB6F894DEBF84
:105690000FBECDBFDF91CF911F910F91FF90EF9083
:1056A000DF90CF90BF90AF909F908F907F906F9042
:1056B0005F904F903F902F900895992788270895E5
:1056C000FC010590615070400110D8F780959095CD
:1056D0008E0F9F1F0895FC016150704001900110D2
:1056E000D8F7809590958E0F9F1F08950F931F9365
:1056F000CF93DF93FB01238121FD03C08FEF9FEF49
:1057000028C022FF16C04681578124813581421767
:10571000530744F4A081B1819D012F5F3F4F318336
:1057200020838C93268137812F5F3F4F37832683D9
:1057300010C0EB01092F182F0084F185E02D199579
:10574000892BE1F68E819F8101969F838E83812F25
:10575000902FDF91CF911F910F910895FA01AA2701
:10576000283051F1203181F1E8946F936E7F6E5FA4
:105770007F4F8F4F9F4FAF4FB1E03ED0B4E03CD052
:10578000670F781F891F9A1FA11D680F791F8A1F35
:10579000911DA11D6A0F711D811D911DA11D20D09C
:1057A00009F468943F912AE0269F11243019305D56
:1057B0003193DEF6CF010895462F4770405D419347
:1057C000B3E00FD0C9F7F6CF462F4F70405D4A3394
:1057D00018F0495D31FD4052419302D0A9F7EACF5C
:1057E000B4E0A6959795879577956795BA95C9F78B
:1057F00000976105710508959B01AC010A2E06947E
:105800005795479537952795BA95C9F7620F731F36
:10581000841F951FA01D08958F929F92AF92BF92F3
:10582000CF92DF92EF92FF92CF93DF93EC016881EA
:1058300079818A819B81611571058105910521F42A
:1058400064E279ED8BE597E02DE133EF41E050E044
:105850004ED049015A019B01AC01A7EAB1E463D0E3
:105860006B017C01ACEEB4EFA501940168D0DC01C2
:10587000CB018C0D9D1DAE1DBF1DB7FF03C0019751
:10588000A109B04888839983AA83BB83BC01CD0159
:105890009F77DF91CF91FF90EF90DF90CF90BF90F7
:1058A000AF909F908F900895B7CF88E092E0B4CFEB
:1058B000609308027093090280930A0290930B028E
:1058C0000895F999FECF92BD81BDF89A992780B5C8
:1058D0000895262FF999FECF1FBA92BD81BD20BD34
:1058E0000FB6F894FA9AF99A0FBE01960895052E0C
:1058F00097FB16F400940FD057FD05D024D007FC79
:1059000002D046F408C050954095309521953F4F00
:105910004F4F5F4F089590958095709561957F4F9B
:105920008F4F9F4F089531D0A59F900DB49F900D3C
:10593000A49F800D911D11240895B7FFF4CFF3DFCC
:10594000821B930B0895A1E21A2EAA1BBB1BFD011B
:105950000DC0AA1FBB1FEE1FFF1FA217B307E4074E
:10596000F50720F0A21BB30BE40BF50B661F771FA6
:10597000881F991F1A9469F7609570958095909586
:105980009B01AC01BD01CF010895A29FB001B39F5F
:10599000C001A39F700D811D1124911DB29F700D38
:0C59A000811D1124911D0895F894FFCF83
:1059AC00010000000000000001000000323031371F
:1059BC00303231352E3100000000000000544950C7
:1059CC004C440000000009028601D301B101C5015D
:1059DC004F024E6F2073657269616C206E756D623B
:1059EC00657220666F756E642E2E2E206D616B694C
:1059FC006E67206F6E65002530346C582530346C22
:105A0C0058004E6F20636F6E66696720666F756E07
:105A1C00642E202057726974696E67206465666114
:105A2C00756C742E2E2E0023205441505220544954
:105A3C0043432054696D657374616D70696E6720A2
:105A4C00436F756E746572002320436F70797269B1
:105A5C006768742032303137204E3855522C204B29
:105A6C00395452562C204E48365A2C20574138590E
:105A7C0057510023232323232323232323232323AB
:105A8C00232323232323232300232054494343206C
:105A9C00436F6E66696775726174696F6E3A200048
:105AAC0023204D6561737572656D656E74204D6F45
:105ABC0064653A200054696D657374616D700050B3
:105ACC006572696F640054696D6520496E74657206
