:1000000053C100000C94F60B0C94CB0B0C94A00B7A
:100010000C94750B0C944A0B0C941F0B0C94F40A63
:100020000C94C90A0C94540A0C94E5090C946F09B9
:100030006CC100006AC1000068C1000066C1000018
:1000400064C1000062C1000060C100005EC1000028
:100050005CC100005AC1000058C10000A9C40000E2
:1000600054C1000085C300005AC300004EC1000007
:100070004CC100004AC1000048C1000046C1000058
:1000800044C1000042C1000040C100003EC1000068
:100090003CC100003AC1000038C1000036C1000078
:1000A00034C1000032C1000030C100002EC1000088
:1000B0002CC100002AC1000028C1000026C1000098
:1000C00024C1000022C1000020C100001EC10000A8
:1000D0001CC100001AC1000018C1000016C10000B8
:1000E00014C100002A18801A391AD81A2B1B711C47
:1000F000711C711C711C711CB016711C711C501983
:10010000711C9C1BF916A919711C711C6A1C711CAD
:100110001E1A761CC302C602B502B902BF02FD0256
:10012000CA02CE02D402D802DC02E202E602EA02ED
:10013000FD02F002F402F802000021002400270072
:100140002A002D00300033000101000004010701E6
:100150000A010102102020080810204010204080D1
:10016000020102010804020101020408102040807B
:100170008040201008040201800402018040201009
:100180000804020108040201010204081020408052
:100190000102040810204080050505050705080830
:1001A0000808020202020A0A080804040404010101
:1001B0000101010101010303030303030303040716
:1001C00007070C0C0C0C0C0C0C0C020202020606AD
:1001D0000606060606060B0B0B0B0B0B0B0B0001A2
:1001E00004050503030405060405060701000100D4
:1001F00003020100000102030405060707060504C7
:1002000003020100070201000706050403020100C2
:1002100003020100000102030405060700010203B6
:100220000405060702030405060607000022002550
:100230000028002B002E00310034000201000005D0
:100240000108010B01000020002300260029002CDA
:10025000002F003200000100000301060109010027
:10026000000A0B02090C0D0E080703040100000030
:10027000000000000000000000000000000000007E
:10028000000000000000000000000012111000003B
:10029000000000000000000000000000000000005E
:1002A000000000000000BF2511241FBECFEFD1E2E7
:1002B000DEBFCDBF00E00CBF2FE0A4E1BCE001C079
:1002C0001D92AB32B207E1F71CE0A0E0B2E0ECE136
:1002D000F7E500E00BBF02C007900D92A431B10713
:1002E000D9F711E0C4E5D1E000E006C0219701098B
:1002F000802FFE010E946926C335D10780E00807E0
:10030000A9F70E946A110C948C2B7ACECF92DF92BF
:10031000EF92FF920F931F93CF93DF936C017A01BB
:100320008B01C0E0D0E0CE15DF0589F0D8016D91DA
:100330008D01D601ED91FC910190F081E02DC60177
:100340001995892B11F47E0102C02196ECCFC701CB
:10035000DF91CF911F910F91FF90EF90DF90CF90A1
:100360000895FC01918D828D981761F0828DDF01D7
:10037000A80FB11D5D968C91928D9F5F9F73928F98
:1003800090E008958FEF9FEF0895FC01918D828D8D
:10039000981731F0828DE80FF11D858D90E008955A
:1003A0008FEF9FEF0895FC01918D228D892F90E0B2
:1003B000805C9F4F821B91098F73992708958CE26F
:1003C0009DE0F1DF21E0892B09F420E0822F0895E0
:1003D000FC01848DDF01A80FB11DA35ABF4F2C91E2
:1003E000848D90E001968F739927848FA689B789B1
:1003F0002C93A089B1898C9180648C93938D848D8A
:10040000981306C00288F389E02D80818F7D808358
:100410000895EF92FF920F931F93CF93DF93EC0118
:1004200081E0888F9B8D8C8D981305C0E889F989B0
:10043000808185FD23C0F62E0B8D10E00F5F1F4FCE
:100440000F731127E02E8C8DE8120BC00FB607FC3E
:10045000FACFE889F989808185FFF5CFCE01B8DF31
:10046000F2CF8B8DFE01E80FF11DE35AFF4FF082B2
:100470000B8FEA89FB898081806207C0EE89FF8942
:100480006083E889F98980818064808381E090E0DD
:10049000DF91CF911F910F91FF90EF900895CF932F
:1004A000DF93EC01888D8823C1F0EA89FB89808184
:1004B00085FD05C0A889B9898C9186FD0EC00FB64F
:1004C00007FCF5CF808185FFF2CFA889B9898C918F
:1004D00085FFEDCFCE017CDFE8CFDF91CF9108958E
:1004E00080E090E0892B19F06ADF811125C080E05F
:1004F00090E0892B41F080E090E0892B21F00E9470
:10050000000081111CC080E090E0892B41F080E068
:1005100090E0892B21F00E940000811113C080E03F
:1005200090E0892BA1F080E090E0892B81F00E947F
:10053000000081110AC008950E940000D8CF0E94D7
:100540000000E1CF0E940000EACF0C940000089563
:1005500090E0FC013197E231F10508F04EC08827A8
:10056000E657FF4F8F4F0C946926809180008F775C
:1005700003C0809180008F7D8093800008958091DA
:100580008000877FF9CF84B58F7702C084B58F7DD7
:1005900084BD08958091B0008F7703C08091B00032
:1005A0008F7D8093B0000895809190008F7707C071
:1005B000809190008F7D03C080919000877F809311
:1005C000900008958091A0008F7707C08091A000CF
:1005D0008F7D03C08091A000877F8093A000089545
:1005E000809120018F7707C0809120018F7D03C00B
:1005F00080912001877F8093200108953FB7F89470
:1006000080919A0C90919B0CA0919C0CB0919D0CA8
:1006100026B5A89B05C02F3F19F00196A11DB11D5D
:100620003FBFBA2FA92F982F8827820F911DA11D98
:10063000B11DBC01CD0142E0660F771F881F991FD5
:100640004A95D1F708958FB7F8948091940C8FBF95
:1006500008958EBD00000DB407FEFDCF8EB5089540
:100660008CBD9DBD08957091140C6091150C509136
:10067000160C4091170C3091180C2091190C909188
:100680001A0C80911B0CEFE5FEE0708361835283AE
:100690004383348325839683878308957091140C54
:1006A0006091150C5091160C4091170C3091180C5C
:1006B0002091190C90911A0C80911B0CE9ECFDE033
:1006C00073A364A355A346A337A320A791A782A72A
:1006D00008952091140C3091150C4091160C5091F6
:1006E000170C6091180C7091190C80911A0C909154
:1006F0001B0CA1E00E94B4272093140C3093150C1E
:100700004093160C5093170C6093180C7093190CAF
:1007100080931A0C90931B0C08950E94D5271F926A
:100720000F920FB60F9211240BB60F922F933F9397
:100730004F935F936F937F938F939F93AF93BF93E9
:10074000EF93FF938CE29DE043DEFF91EF91BF9129
:10075000AF919F918F917F916F915F914F913F9159
:100760002F910F900BBE0F900FBE0F901F901895FA
:100770001F920F920FB60F9211240BB60F922F9368
:100780008F939F93EF93FF93E0913C0DF0913D0D7C
:100790008081E091420DF091430D82FD12C0908165
:1007A0008091450D8F5F8F732091460D821751F018
:1007B000E091450DF0E0E45DF24F958F8093450D9B
:1007C00001C08081FF91EF919F918F912F910F90A8
:1007D0000BBE0F900FBE0F901F901895CF93DF9315
:1007E000282F30E0F901E15AFD4F8491F901EE5ACA
:1007F000FE4FD491F901E856FE4FC491CC2389F005
:100800008111A6DEEC2FF0E0EE0FFF1FEB5BFD4F3A
:10081000A591B491EC91ED2381E090E021F480E08A
:1008200002C080E090E0DF91CF9108951F93CF93B5
:10083000DF93282F30E0F901E15AFD4F8491F9014F
:10084000EE5AFE4FD491F901E856FE4FC491CC23E5
:10085000C1F0162F81117CDEEC2FF0E0EE0FFF1FB0
:10086000E55DFD4FA591B4918FB7F894111105C0C6
:100870009C91ED2FE095E92302C0EC91ED2BEC93D8
:100880008FBFDF91CF911F910895CF93DF9390E0B9
:10089000FC01EE5AFE4F2491FC01E856FE4F849174
:1008A000882361F190E0880F991FFC01E85CFE4FFE
:1008B000C591D491FC01E55DFD4FA591B491611105
:1008C00009C09FB7F8948881209582238883EC9192
:1008D0002E230BC0623061F49FB7F8943881822FC9
:1008E000809583238883EC912E2B2C939FBF06C089
:1008F0008FB7F894E8812E2B28838FBFDF91CF919B
:100900000895863308F0865390917B00282F287035
:10091000977F922B90937B008770806480937C00FC
:1009200080917A00806480937A0080917A0086FDBD
:10093000FCCF809178002091790090E0922B08956F
:100940008F929F92AF92BF92CF92DF92EF92FF92DF
:100950006B017C0153DE4B015C01C114D104E10445
:10096000F104E9F04BDEDC01CB0188199909AA09F1
:10097000BB09883E9340A105B10578F321E0C21A76
:10098000D108E108F10888EE880E83E0981EA11CCA
:10099000B11CC114D104E104F10421F7DECFFF90B2
:1009A000EF90DF90CF90BF90AF909F908F90089581
:1009B0001F920F920FB60F9211242F933F938F9394
:1009C0009F93AF93BF938091960C9091970CA091B9
:1009D000980CB091990C3091950C23E0230F2D3792
:1009E00020F40196A11DB11D05C026E8230F029633
:1009F000A11DB11D2093950C8093960C9093970C9C
:100A0000A093980CB093990C80919A0C90919B0CA8
:100A1000A0919C0CB0919D0C0196A11DB11D8093DD
:100A20009A0C90939B0CA0939C0CB0939D0CBF913F
:100A3000AF919F918F913F912F910F900FBE0F908B
:100A40001F901895FF920F931F93CF93DF931F92E0
:100A5000CDB7DEB78C01F62E80E591E0498300DE4C
:100A600060E0F801878DE2DE8F2D8064498150E0DF
:100A7000582B0CB405FC0CC05EBD00000DB407FE85
:100A8000FDCF8EB54EBD00000DB407FEFDCF0BC0EF
:100A90004EBD00000DB407FEFDCF8EB55EBD00005B
:100AA0000DB407FEFDCF8EB561E0F801878D0F9084
:100AB000DF91CF911F910F91FF90B8CE0F931F93AD
:100AC000CF93DF938C01C62F80E591E0C9DD60E014
:100AD000F801878DABDE8C2F8F71BBDD80E0B9DD37
:100AE00080E0B7DDC82F80E0B4DD6C2F70E0762F9A
:100AF0006627EB01C80FD11D61E0F801878D96DEF6
:100B00008FE090E00197F1F7BE0180E090E0DF9187
:100B1000CF911F910F9108952F923F924F925F9224
:100B20006F927F928F929F92AF92BF92CF92DF92FD
:100B3000EF92FF920F931F93CF93DF93CDB7DEB762
:100B4000C859D1090FB6F894DEBF0FBECDBFC75745
:100B5000DF4F2883C958D040C657DF4F3883CA5863
:100B6000D040C557DF4F4883CB58D040C457DF4FE4
:100B70005883CC58D040C357DF4F6883CD58D040FE
:100B8000C257DF4F7883CE58D040C157DF4F88839C
:100B9000CF58D040C057DF4F9883C059D040A12CC8
:100BA000E0E1BE2EF5EACF2EA4EDDA2EB8EEEB2E64
:100BB000F12C00E010E00E94C426CF56DF4F2883BE
:100BC000C159D040CE56DF4F3883C259D040CD56A0
:100BD000DF4F4883C359D040CC56DF4F5883C459A8
:100BE000D040CB56DF4F6883C559D040CA56DF4F3F
:100BF0007883C659D040C956DF4F8883C759D04043
:100C0000C856DF4F9883C859D0400E9471265901B9
:100C10006A017B018C01C757DF4F2881C958D0403A
:100C2000C657DF4F3881CA58D040C557DF4F48817B
:100C3000CB58D040C457DF4F5881CC58D040C35711
:100C4000DF4F6881CD58D040C257DF4F7881CE58F2
:100C5000D040C157DF4F8881CF58D040C057DF4FB9
:100C60009881C059D0400E94C02729013A014B0108
:100C70001C01A0E00E94C92734F40E944B272901DF
:100C80003A014B011C0190E4A92E22E4B22E3FE070
:100C9000C32ED12CE12CF12C00E010E09201A30135
:100CA000B401C1010E94C426CF57DF4F2883C15829
:100CB000D040CE57DF4F3883C258D040CD57DF4F9A
:100CC0004883C358D040CC57DF4F5883C458D040D6
:100CD000CB57DF4F6883C558D040CA57DF4F788362
:100CE000C658D040C957DF4F8883C758D040C8572F
:100CF000DF4F9883C858D04005E00E949227CF5715
:100D0000DF4FA880C158D040CE57DF4FB880C258BF
:100D1000D040CD57DF4FC880C358D040CC57DF4FAD
:100D2000D880C458D040CB57DF4FE880C558D0405A
:100D3000CA57DF4FF880C658D040C957DF4F0881E7
:100D4000C758D040C857DF4F1881C858D0400E94BC
:100D5000C02759016A017B01E82F192F06E00E9484
:100D600092270E2F0E94C02703E00E949227CF57A0
:100D7000DF4FA880C158D040CE57DF4FB880C2584F
:100D8000D040CD57DF4FC880C358D040CC57DF4F3D
:100D9000D880C458D040CB57DF4FE880C558D040EA
:100DA000CA57DF4FF880C658D040C957DF4F088177
:100DB000C758D040C857DF4F1881C858D0400E944C
:100DC000AB2706E00E94922759016A017B018C0142
:100DD0009201A301B401C1010E94C027722E632EAB
:100DE000542E452E362E272EF82EE92EC757DF4FCC
:100DF0002881C958D040C657DF4F3881CA58D040E3
:100E0000C557DF4F4881CB58D040C457DF4F58817A
:100E1000CC58D040C357DF4F6881CD58D040C2571F
:100E2000DF4F7881CE58D040C157DF4F8881CF58EF
:100E3000D040C057DF4F9881C059D040A0E00E94F9
:100E4000C9271CF483E09CE09FD6C856DF4F8881F9
:100E5000C859D0408F93C956DF4F9881C759D040A9
:100E60009F93CA56DF4F8881C659D0408F93CB5687
:100E7000DF4F9881C559D0409F93CC56DF4F888172
:100E8000C459D0408F93CD56DF4F9881C359D0407D
:100E90009F93CE56DF4F8881C259D0408F93CF5653
:100EA000DF4F9881C159D0409F9385E09CE09F938C
:100EB0008F938E010F5F1F4F1F930F930E94F82790
:100EC000C80162D6C857DF4F8881C858D0408F9379
:100ED000C957DF4F9881C758D0409F93CA57DF4FFB
:100EE0008881C658D0408F93CB57DF4F9881C55823
:100EF000D0409F93CC57DF4F8881C458D0408F9308
:100F0000CD57DF4F9881C358D0409F93CE57DF4FC6
:100F10008881C258D0408F93CF57DF4F9881C158F6
:100F2000D0409F938AE0882E8CE0982E9F928F92DB
:100F30001F930F930E94F827C80126D6EF92FF92C5
:100F40002F923F924F925F926F927F929F928F92D9
:100F50001F930F930E94F8270FB6F894DEBF0FBEC1
:100F6000CDBFC80111D6C856DF4F0FB6F894DEBF0B
:100F70000FBECDBFDF91CF911F910F91FF90EF90EA
:100F8000DF90CF90BF90AF909F908F907F906F90A9
:100F90005F904F903F902F900895EF92FF920F93A4
:100FA0001F93CF93DF937C018B01C0E0D0E0F80169
:100FB00061918F01CE018E0D9F1D0E94212B2196E4
:100FC000C430D105A1F784E090E0DF91CF911F916B
:100FD0000F91FF90EF900895EF92FF920F931F9360
:100FE000CF93DF938B010C5F1F4FEB017C01E61A5F
:100FF000F70AC7018C0F9D1F0E94192B8993C017F8
:10100000D107B9F784E090E0DF91CF911F910F9164
:10101000FF90EF900895EF92FF920F931F93CF935D
:10102000DF937C018B01C0E0D0E0F80161918F017A
:10103000CE018E0D9F1D0E94212B2196CC36D1050D
:10104000A1F78CE690E0DF91CF911F910F91FF9077
:10105000EF9008952F923F924F925F926F927F92FE
:101060008F929F92AF92BF92CF92DF92EF92FF92B8
:101070000F931F93CF93DF93CDB7DEB7C958D10934
:101080000FB6F894DEBF0FBECDBF19012A01CF57AE
:10109000DF4F6883C158D040CE57DF4F7883C258A6
:1010A000D040CD57DF4F8883C358D040CC57DF4F57
:1010B0009883C458D04020E4A22E32E4B32E4FE0EF
:1010C000C42ED12CE12CF12C00E010E09101A20102
:1010D0000E94C426B22FE32FF42FA52F3B014C0111
:1010E00005E00E949227AB2EBE2ECF2EDA2E730182
:1010F00084010E94C02759016A017B01CB57DF4F51
:101100008883C558D040192F06E00E949227CB57FC
:10111000DF4F0881C558D0400E94C02703E00E94DD
:101120009227AB2EBE2ECF2EDA2E730184010E94A1
:10113000AB2706E00E94922759016A017B018C01CE
:101140009101A201CF57DF4F6881C158D040CE57DF
:10115000DF4F7881C258D040CD57DF4F8881C358C8
:10116000D040CC57DF4F9881C458D0400E94C02750
:10117000AF93FF93EF93BF9385E09CE09F938F9392
:101180008E010F5F1F4F1F930F93CA57DF4F2883A6
:10119000C658D040C957DF4F3883C758D040C857CA
:1011A000DF4F4883C858D040C757DF4F5883C958CE
:1011B000D0400E94F827C801E7D4C757DF4F5881B5
:1011C000C958D0405F93C857DF4F4881C858D040B6
:1011D0004F93C957DF4F3881C758D0403F93CA5704
:1011E000DF4F2881C658D0402F938AE09CE09F9320
:1011F0008F931F930F930E94F827C801C5D40FB691
:10120000F894DEBF0FBECDBFC757DF4F0FB6F894BF
:10121000DEBF0FBECDBFDF91CF911F910F91FF9029
:10122000EF90DF90CF90BF90AF909F908F907F9086
:101230006F905F904F903F902F900895CF938CE2E6
:101240009DE0B1D8892BD9F38CE29DE08AD8C82FD4
:101250009CD48C2FCF910895CF931092290D10928A
:10126000280DCDE0EBDF2091280D3091290D2E3790
:10127000310524F48A3011F08D3091F4C9010196C2
:101280009093290D8093280DF901E855F34FC08301
:10129000FC01E855F34F1082029724F3CF91089593
:1012A000883089F480E271D488E06FD48091280D71
:1012B0009091290D18161906ACF601979093290DF7
:1012C0008093280DCFCFA9014F5F5F4F5093290D19
:1012D0004093280DF901E855F34F8083C3CF1F9247
:1012E0000F920FB60F9211240BB60F922F933F93CC
:1012F0004F935F936F937F938F939F93AF93BF931E
:10130000CF93EF93FF9320910601C091930C90919E
:10131000920C8091910C322F309583239223892B4C
:1013200090916D00C227C923C8232093930CCC232E
:10133000C1F1C0FF05C0E091810CF091820C1995BC
:10134000C1FF05C0E091830CF091840C1995C2FF98
:1013500005C0E091850CF091860C1995C3FF05C07E
:10136000E091870CF091880C1995C4FF05C0E091BD
:10137000890CF0918A0C1995C5FF05C0E0918B0C82
:10138000F0918C0C1995C6FF05C0E0918D0CF09181
:101390008E0C1995C7FF05C0E0918F0CF091900C51
:1013A0001995FF91EF91CF91BF91AF919F918F913F
:1013B0007F916F915F914F913F912F910F900BBE55
:1013C0000F900FBE0F901F9018951F920F920FB69F
:1013D0000F9211240BB60F922F933F934F935F936D
:1013E0006F937F938F939F93AF93BF93CF93EF931D
:1013F000FF9320910301C091800C90917F0C80910C
:101400007E0C322F309583239223892B90917D0C73
:10141000C227C923C8232093800CCC2389F1C0FFA5
:1014200005C0E0916F0CF091700C1995C1FF05C0DB
:10143000E091710CF091720C1995C2FF05C0E0911A
:10144000730CF091740C1995C3FF05C0E091750CF5
:10145000F091760C1995C4FF05C0E091770CF091DE
:10146000780C1995C5FF05C0E091790CF0917A0CC4
:101470001995C6FF05C0E0917B0CF0917C0C199585
:10148000FF91EF91CF91BF91AF919F918F917F91FC
:101490006F915F914F913F912F910F900BBE0F90E5
:1014A0000FBE0F901F9018951F920F920FB60F92BC
:1014B00011240BB60F922F933F934F935F936F932B
:1014C0007F938F939F93AF93BF93CF93EF93FF93AC
:1014D00023B1C0916E0C90916D0C80916C0C322FE9
:1014E000309583239223892B90916B00C227C923C7
:1014F000C82320936E0CCC23C1F1C0FF05C0E0913E
:101500005C0CF0915D0C1995C1FF05C0E0915E0C7B
:10151000F0915F0C1995C2FF05C0E091600CF0914D
:10152000610C1995C3FF05C0E091620CF091630C4A
:101530001995C4FF05C0E091640CF091650C1995F4
:10154000C5FF05C0E091660CF091670C1995C6FFC8
:1015500005C0E091680CF091690C1995C7FF05C0B2
:10156000E0916A0CF0916B0C1995FF91EF91CF917E
:10157000BF91AF919F918F917F916F915F914F91AB
:101580003F912F910F900BBE0F900FBE0F901F90A9
:1015900018951F920F920FB60F9211240BB60F924F
:1015A0002F933F934F935F936F937F938F939F936B
:1015B000AF93BF93EF93FF93E0915A0CF0915B0CC4
:1015C0001995FF91EF91BF91AF919F918F917F916D
:1015D0006F915F914F913F912F910F900BBE0F90A4
:1015E0000FBE0F901F9018951F920F920FB60F927B
:1015F00011240BB60F922F933F934F935F936F93EA
:101600007F938F939F93AF93BF93EF93FF93E0915B
:10161000580CF091590C1995FF91EF91BF91AF9132
:101620009F918F917F916F915F914F913F912F91FA
:101630000F900BBE0F900FBE0F901F9018951F922A
:101640000F920FB60F9211240BB60F922F933F9368
:101650004F935F936F937F938F939F93AF93BF93BA
:10166000EF93FF93E091560CF091570C1995FF9171
:10167000EF91BF91AF919F918F917F916F915F910A
:101680004F913F912F910F900BBE0F900FBE0F9077
:101690001F9018951F920F920FB60F9211240BB640
:1016A0000F922F933F934F935F936F937F938F93FB
:1016B0009F93AF93BF93EF93FF93E091540CF091FE
:1016C000550C1995FF91EF91BF91AF919F918F911B
:1016D0007F916F915F914F913F912F910F900BBE32
:1016E0000F900FBE0F901F9018951F920F920FB67C
:1016F0000F9211240BB60F922F933F934F935F934A
:101700006F937F938F939F93AF93BF93EF93FF93C9
:10171000E091520CF091530C1995FF91EF91BF910C
:10172000AF919F918F917F916F915F914F913F9179
:101730002F910F900BBE0F900FBE0F901F9018951A
:101740001F920F920FB60F9211240BB60F922F9388
:101750003F934F935F936F937F938F939F93AF9339
:10176000BF93EF93FF93E091500CF091510C1995BA
:10177000FF91EF91BF91AF919F918F917F916F9169
:101780005F914F913F912F910F900BBE0F900FBE25
:101790000F901F9018951F920F920FB60F92112461
:1017A0000BB60F922F933F934F935F936F937F935B
:1017B0008F939F93AF93BF93EF93FF93E0914E0C62
:1017C000F0914F0C1995FF91EF91BF91AF919F91BF
:1017D0008F917F916F915F914F913F912F910F90DA
:1017E0000BBE0F900FBE0F901F9018951F920F9277
:1017F0000FB60F9211240BB60F922F933F934F9376
:101800005F936F937F938F939F93AF93BF93EF9368
:10181000FF93E0914C0CF0914D0C1995FF91EF91D5
:10182000BF91AF919F918F917F916F915F914F91F8
:101830003F912F910F900BBE0F900FBE0F901F90F6
:101840001895542F8F779EEF980F923008F4B6C0FA
:1018500095EB980F923008F4B1C09EEE980F94303B
:1018600008F4ACC0282F30E0F901863438F0E45B8E
:10187000FE4F8491433009F063C115C0EE5AFE4F0C
:101880008491F901E856FE4F9491433011F04130B4
:10189000B9F4923031F440916D0C482B40936D0CAB
:1018A0000FC09A3031F490917F0C982B90937F0C5D
:1018B0004AC19B3029F44091920C482B4093920CE2
:1018C0004FEF450F4230B8F4923031F440916C0C38
:1018D000482B40936C0C0FC09A3031F440917E0C31
:1018E000482B40937E0C07C09B3029F44091910C0B
:1018F000482B4093910CF901E252FE4FA491923093
:10190000C1F4B0E0AA0FBB1FA45AB34F6D937C93F0
:10191000E9E4F2E0A591B4919C9190936E0C2BE6D2
:1019200030E030934B0C20934A0C9091680091600A
:101930003BC09A3001F5B0E0AA0FBB1FA159B34FCD
:101940006D937C93E9E5F2E0A591B4919C9190931D
:10195000800C2CE630E030934B0C20934A0C909195
:10196000680092609093680090917D0C982B909302
:101970007D0C880F1BC09B30C9F4B0E0AA0FBB1FC1
:10198000AF57B34F6D937C93EBE5F2E0A591B49123
:101990009C919093930C2DE630E030934B0C209368
:1019A0004A0C90916800946090936800A0914A0C52
:1019B000B0914B0CEC918E2B8C9308959FB7F894BB
:1019C000833109F464C0E0F4833009F48CC08231BF
:1019D00009F473C0823009F0B1C07093550C609364
:1019E000540CEC9880916A008C7F80936A008091FF
:1019F0006A00452F482B40936A00E49AEC9A9EC0F7
:101A00008531E9F070F18B3409F483C08C3409F02E
:101A100095C070935B0C60935A0CEF9880916A00AC
:101A20008F7380936A0080916A0020E4529FA00126
:101A30001124482B40936A00E79AEF9A7FC0709375
:101A40004D0C60934C0CE898809169008C7F8093DA
:101A5000690040916900452B40936900E09AE89A3B
:101A60006DC070934F0C60934E0CE99880916900A3
:101A7000837F809369008091690024E0529FA001D8
:101A80001124482B40936900E19AE99A57C070935A
:101A9000510C6093500CEA98809169008F7C809380
:101AA00069008091690020E1529FA0011124482B18
:101AB00040936900E29AEA9A41C07093530C609394
:101AC000520CEB98809169008F738093690080912C
:101AD000690020E4529FA0011124482B4093690023
:101AE000E39AEB9A2BC07093570C6093560CED98C9
:101AF00080916A00837F80936A0080916A0024E06D
:101B0000529FA0011124482B40936A00E59AED9A58
:101B100015C07093590C6093580CEE9880916A0030
:101B20008F7C80936A0080916A0020E1529FA0011F
:101B30001124482B40936A00E69AEE9A9FBF0895BD
:101B4000413009F4B0CE9AE0BBCE009769F0FC01B9
:101B500001900020E9F73197AF01481B590BBC01F8
:101B60008CE29DE00C94860180E090E0089580E195
:101B70009CE0EBCFCF93DF93E8DFEC01F8DF8C0F35
:101B80009D1FDF91CF910895E0CFE0912C0DF09152
:101B90002D0D0190F081E02D682F8CE29DE01994CD
:101BA00080912A0D90912B0D2091280D3091290DB7
:101BB00082179307ACF4FC01E855F34F8081E5DF11
:101BC00080912A0D90912B0D9C012F5F3F4F3093F8
:101BD0002B0D20932A0DFC01E855F34F80810895C9
:101BE0002DCBCF93DF93D1DFEC01C1DF8C0F9D1F95
:101BF000DF91CF9108958F929F92AF92BF920F93F2
:101C00001F93CF93DF93CDB7DEB7A1970FB6F894AC
:101C1000DEBF0FBECDBF19A2423008F44AE08E01EC
:101C20000F5D1F4F842E912CA12CB12CA501940186
:101C30000E945B2BE62FB901CA0101501109EA305D
:101C400014F4E05D01C0E95CD801EC93232B242B54
:101C5000252B61F7C80179DFA1960FB6F894DEBF96
:101C60000FBECDBFDF91CF911F910F91BF90AF906D
:101C70009F908F900895CF92DF92EF92FF92CF9333
:101C8000DF9397FF17C06B017C018DE27EDFEC01D3
:101C900066277727CB016C197D098E099F094AE0D9
:101CA000AADF8C0F9D1FDF91CF91FF90EF90DF9007
:101CB000CF9008954AE0DF91CF91FF90EF90DF90B1
:101CC000CF9099CF2F923F924F925F926F927F92D7
:101CD0008F929F92AF92BF92CF92DF92EF92FF923C
:101CE0000F931F93CF93DF93CDB7DEB72E970FB629
:101CF000F894DEBF0FBECDBF9A8389831092230F65
:101D00001092240F1092250F1092260F1092270F79
:101D10001092280F1092290F10922A0F10921B0F69
:101D200010921C0F10921D0F10921E0F10921F0F79
:101D30001092200F1092210F1092220F1092A00CDF
:101D40001092A10C1092A20C1092A30C1092A40C51
:101D50001092A50C1092A60C1092A70C81E0809313
:101D600000021092010210920202109203021092DD
:101D700004021092050210920602109207021092BD
:101D80009F0C10929E0C0CDF182F082E000C990B44
:101D90000E94D927892BB9F71B3219F401DF182FBC
:101DA00009C01D3239F4FCDE182F81E090E09C87D9
:101DB0008B8702C01C861B86EE24E394F12C103323
:101DC00039F4EEDE182FF0929F0CE0929E0CF7CFC4
:101DD000812F012E000C990BC0970A9708F057C06D
:101DE00022242394312CE12F012E000CFF0BF097BD
:101DF000EA30F10508F048C030929F0C20929E0C0A
:101E00002091230F3091240F4091250F5091260FE0
:101E10006091270F7091280F8091290F90912A0FC0
:101E200001E00E94922729013A014B01B82FA92F06
:101E300002E00E94922759016A017B018C01920104
:101E4000A301B4018B2F9A2F0E94AB271F2F110FD4
:101E5000110B5F01C12ED12EE12EF12E012F0E9418
:101E6000AB272093230F3093240F4093250F5093DB
:101E7000260F6093270F7093280F8093290F90935C
:101E80002A0F8EDE182FAFCF1E861D8610C01E3281
:101E900099F486DE182F1E861D86103341F4AD8519
:101EA000BE851197BE87AD877BDE182FF6CF1E3219
:101EB00029F476DE182F02C01E861D86882483949E
:101EC000912CE12F012E000CFF0BF097EA30F10569
:101ED00008F04DC090929F0C80929E0C2091230F91
:101EE0003091240F4091250F5091260F6091270FBC
:101EF0007091280F8091290F90912A0F01E00E9484
:101F0000922719012A013B01B82FA92F02E00E9454
:101F1000922759016A017B018C019101A201B30151
:101F20008B2F9A2F0E94AB271F2F110F110B5F01D0
:101F3000C12ED12EE12EF12E012F0E94AB2720932E
:101F4000230F3093240F4093250F5093260F609357
:101F5000270F7093280F8093290F90932A0FED85F8
:101F6000FE853197FE87ED871BDE182FAACF1F7DD8
:101F7000153489F515DE8B3211F412DE06C08D3270
:101F800021F40EDE01E010E002C000E010E080333A
:101F900011F406DEFCCFE12CF12C9AE0D92E082EAC
:101FA000000C990BC0978A30910550F4DE9C90018B
:101FB000DF9C300D11247901E80EF91EF1DDEFCF21
:101FC000012B19F0F194E194F1088D859E858E0D19
:101FD0009F1D9E878D8780919E0C90919F0C892BD1
:101FE00009F455C18090230F9090240F9091250FF4
:101FF0009B83A091260FAC83B091270FBD83E09106
:10200000280FEE836090290F70902A0F80921B0F8B
:1020100090921C0F90931D0FA0931E0FB0931F0F53
:10202000E093200F6092210F7092220F8D859E8584
:1020300097FF8CC030900002209001029091020224
:102040009F83A0910302A887B0910402B987E09111
:102050000502EA875090060240900702232D322D98
:102060004F81588569857A85852D942D01E00E94E0
:10207000922719012A01B62FA72FF82FE92F02E086
:102080000E94922759016A017B018C019101A201F2
:102090006B2F7A2F8F2F9E2F0E94AB27322E232E4D
:1020A0004F83588769877A87582E492E8D859E855C
:1020B00001969E878D87892B89F6309200022092A7
:1020C0000102409302025093030260930402709352
:1020D00005025092060240920702A32CB22CC42E95
:1020E000D52EE62EF72E052D142D94014B815C8103
:1020F0006D817E81C3010E94C2262093A00C309383
:10210000A10C4093A20C5093A30C6093A40C709369
:10211000A50C8093A60C9093A70C94014B815C8135
:102120006D817E81C3010E94C42620931B0F3093D2
:102130001C0F40931D0F50931E0F60931F0F709341
:10214000200F8093210F9093220F3EC08D859E8596
:10215000892BD1F1E0E0F0E094014B815C816D814D
:102160007E81C30101E00E94922729013A014B01BF
:10217000B82FA92F02E00E94922759016A017B0122
:102180008C019201A301B4018B2F9A2F0E94AB27DF
:1021900049014B835C836D837E833C013196AD8521
:1021A000BE85EA17FB07C1F620931B0F90921C0F08
:1021B00040931D0F50931E0F60931F0F7093200FBD
:1021C0006092210F7092220FAB85BC85AB2B09F476
:1021D00044C020911B0F30911C0F40911D0F509156
:1021E0001E0F60911F0F7091200F8091210F909111
:1021F000220F0E944B2720931B0F30931C0F4093FC
:102200001D0F50931E0F60931F0F7093200F80932C
:10221000210F9093220F2091A00C3091A10C40919E
:10222000A20C5091A30C6091A40C7091A50C80910C
:10223000A60C9091A70C0E944B272093A00C3093E2
:10224000A10C4093A20C5093A30C6093A40C709328
:10225000A50C8093A60C9093A70C80911B0FE9818D
:10226000FA81808380911C0F818380911D0F82836E
:1022700080911E0F838380911F0F84838091200F94
:1022800085838091210F86838091220F87832E96EC
:102290000FB6F894DEBF0FBECDBFDF91CF911F9177
:1022A0000F91FF90EF90DF90CF90BF90AF909F90F5
:1022B0008F907F906F905F904F903F902F900895F8
:1022C000CF93DF93D8DCEC0152DC8C0F9D1FDF91A4
:1022D000CF910895CF93DF93CDB7DEB7CD51D140E5
:1022E0000FB6F894DEBF0FBECDBF789484B5826080
:1022F00084BD84B5816084BD85B5826085BD85B5AA
:10230000816085BD80916E00816080936E00109227
:1023100081008091810082608093810080918100A2
:102320008160809381008091800081608093800033
:102330008091B10084608093B1008091B000816091
:102340008093B00080919100826080939100809191
:1023500091008160809391008091900081608093D2
:1023600090008091A10082608093A1008091A100E3
:1023700081608093A1008091A00081608093A00083
:1023800080912101826080932101809121018160EF
:1023900080932101809120018160809320018091B0
:1023A0007A00846080937A0080917A0082608093C2
:1023B0007A0080917A00816080937A0080917A001F
:1023C000806880937A001092C10060E082E10E94F0
:1023D000450461E08CE00E94450461E08DE00E94CC
:1023E000450461E084E40E94160461E085E40E94F3
:1023F0001604E0913C0DF0913D0D82E08083E09168
:10240000380DF091390D1082E0913A0DF0913B0DAD
:1024100080E180831092440DE091400DF091410DD8
:1024200086E08083E0913E0DF0913F0D80818061D8
:102430008083E0913E0DF0913F0D80818860808324
:10244000E0913E0DF0913F0D808180688083E091A6
:102450003E0DF0913F0D80818F7D80831FB7F894F2
:1024600080911C0C811127C0EDECF1E08491E7E82C
:10247000F1E09491E82FF0E0EE0FFF1FE85CFE4FD3
:10248000A591B491EC91E92321F461E085E30E94E8
:10249000160461E085E30E9445048CB580618CBD23
:1024A0008CB580648CBD61E084E30E94450461E0EA
:1024B00083E30E94450480911C0C8F5F80931C0C69
:1024C0001FBFBE0163597F4F80EF9FE00E94EC0762
:1024D0008E010F5F1F4FB80184EF9FE00E94EC0751
:1024E000E1964CAD5DAD6EAD7FADE19789819A818E
:1024F000AB81BC814F3F2FEF52076207720759F043
:102500008F3F3FEF9307A307B30709F081C0452B27
:10251000462B472B29F0892B8A2B8B2B09F078C06F
:1025200082E392E027DB86E30E948104BC01990FDD
:10253000880B990B611571058105910511F00E94B9
:10254000102B0E940D2B2FEF3FEF40E050E00E9438
:102550002F2BE1966CAF7DAF8EAF9FAFE19789E3F4
:102560000E948104BC01990F880B990B61157105BC
:102570008105910511F00E94102B0E940D2B2FEF69
:102580003FEF40E050E00E942F2B69837A838B83DA
:102590009C83BE0163597F4F80EF9FE00E94CD076F
:1025A000B80184EF9FE00E94CD078C818F938B81CF
:1025B0008F938A818F9389818F93E1968FADE19775
:1025C0008F93E0968FADE0978F93AF968FADAF97D7
:1025D0008F93AE968FADAE978F9387E592E09F93E2
:1025E0008F938DE19CE09F938F930E94F82783E95E
:1025F00093E0CADA8DE19CE0BDDA6CE47DE180E035
:1026000090E00E94A0040FB6F894DEBF0FBECDBFCD
:102610008C818F938B818F938A818F9389818F9304
:10262000E1968FADE1978F93E0968FADE0978F9312
:10263000AF968FADAF978F93AE968FADAE978F93CA
:1026400087E592E09F938F938DE19CE09F938F931A
:102650000E94F82780E090E00E94192B0FB6F894B2
:10266000DEBF0FBECDBF873009F4CCC082E692E05A
:1026700081DA87E0898341E150E06CE072E0CE01CD
:1026800002960E94E92784E48B8B41E150E06DE1E2
:102690007CE0CE0144960E94E9271DA280E88EA32B
:1026A00086E98FA388E988A719A61AA61BA61CA6E7
:1026B0001DA61EA681EE8FA785EF88AB85E089ABAE
:1026C0001AAA1BAA1CAA1DAA84E190E09FAB8EAB9C
:1026D00085E090E099AF88AF8DE48AAF82E58BAF5B
:1026E0008CAF94EC9DAF89E08EAF1FAE21961FAEEC
:1026F000219722961FAE229723961FAE23972496EA
:102700001FAE249725961FAE259726969FAF269736
:1027100027968FAF279728961FAE289729961FAE2A
:1027200029972A961FAE2A972B961FAE2B972C9689
:102730001FAE2C972D961FAE2D972E961FAE2E975F
:102740002F961FAE2F9760961FAE609761961FAEB3
:10275000619762961FAE629763961FAE6397649609
:102760001FAE649765961FAE659766961FAE669717
:1027700067961FAE679768961FAE689769961FAEFB
:1027800069976A961FAE6A976B961FAE6B976C96A9
:102790001FAE6C976D961FAE6D976E961FAE6E97BF
:1027A0006F961FAE6F97A0961FAEA097A1961FAE13
:1027B000A197A2961FAEA297A3961FAEA397A49629
:1027C0001FAEA497A5961FAEA597A6961FAEA69777
:1027D000A7961FAEA797A8961FAEA897A9961FAE5B
:1027E000A997AA961FAEAA97AB961FAEAB97AC96C9
:1027F0001FAEAC97AD961FAEAD97B80180E090E0EC
:102800000E940B087FEAC72E7EE0D72EE12CF12C28
:10281000C7010E94192BD6018D936D01BFEFEB1AF2
:10282000FB0AECE6EE16F10499F78091D30E809343
:10283000370C9DD987E892E09DD988EA92E09AD931
:1028400096D983ED92E096D989EE92E093D98CE601
:10285000EFEAFEE0DE01A359BF4F01900D928A9589
:10286000E1F780E093E090D9CF56DF4F9881C159CE
:10287000D040923081F038F4992351F09130A1F496
:1028800086E293E010C0933049F0943051F00CC0D0
:1028900085E193E008C08FE193E005C089E393E010
:1028A00069D98BE493E066D981E593E06DD980E046
:1028B00090E00E94192B682F70E080E090E04AE0E1
:1028C0009AD984E693E060D9C158DF4F8881CF5709
:1028D000D04087D986E793E057D98DE690E08C0FFA
:1028E0009D1F019647D98BE893E04ED98DE690E085
:1028F0008C0F9D1F43963ED983EA93E045D9CE566F
:10290000DF4F688179818A819B81C259D0404AE03A
:1029100072D92DD983EB93E037D9C656DF4F688142
:1029200079818A819B81CA59D0404AE064D91FD9F4
:1029300088EC93E029D9CE55DF4F68817981C25A5E
:10294000D040072E000C880B990B95D910D988ED33
:1029500093E01AD9CA55DF4F8881C65AD04041D971
:1029600085EE93E011D9CB55DF4F8881C55AD04011
:102970008F93CC55DF4F8881C45AD0408F9381EF1D
:1029800093E09F938F931F930F930E94F827C801A2
:10299000F1D888EF93E0F8D8C755DF4F6881798187
:1029A0008A819B81C95AD04066D98AE094E0ECD8EC
:1029B000CF54DF4F688179818A819B81C15BD04090
:1029C0005AD983E194E0D6D88AE194E0DDD8C7549F
:1029D000DF4F688179818A819B81C95BD0404BD967
:1029E0008AE094E0D1D8CF53DF4F688179818A8122
:1029F0009B81C15CD0403FD983E194E0BBD88AE29F
:102A000094E0C2D8C753DF4F688179818A819B8166
:102A1000C95CD04030D98AE094E0B6D8CF52DF4FBD
:102A2000688179818A819B81C15DD04024D983E10D
:102A300094E0A0D883ED92E09DD885E394E09AD805
:102A40008AE594E0A1D80F900F900F900F900F900F
:102A50000F9007E010E06AEF70E080E090E00E94E5
:102A6000A0048EE292D88CE29DE00E94D301892BD3
:102A700011F011E02FC06AEF70E080E090E00E945A
:102A8000A0048EE282D88CE29DE00E94D301892BC3
:102A900081F76AEF70E080E090E00E94A0048EE28F
:102AA00074D88CE29DE00E94D301892B11F76AEF64
:102AB00070E080E090E00E94A0048EE266D88CE294
:102AC0009DE00E94D301892BA1F60150110909F064
:102AD000C2CF10E08CE29DE00E94D301892B29F047
:102AE0008CE29DE00E94B101F5CF112309F4FEC6EE
:102AF0008E0107511F4FCF50DF4F19830883C15FED
:102B0000D0401E0119ED210E311C31D830D88DE591
:102B100094E03AD8E091D30EE53028F4F0E0E35E9B
:102B2000FD4F808101C08FE330D88AE794E022D83E
:102B300083E994E029D82091D40E3091D50E4091AC
:102B4000D60E5091D70E6091D80E7091D90E80910B
:102B5000DA0E9091DB0E0E942A0880EB94E00AD8EE
:102B600082EC94E011D82091DC0E3091DD0E409182
:102B7000DE0E5091DF0E6091E00E7091E10E8091BB
:102B8000E20E9091E30E0E942A088FED94E00E94DD
:102B9000BA0D81EF94E00E94C40D6091E40E709133
:102BA000E50E072E000C880B990B65D88EE095E09A
:102BB0000E94BA0D87E295E00E94C40D8091E60E56
:102BC0009091E70E092E000CAA0BBB0BBF93AF939D
:102BD0009F938F93A4E4B5E0BF93AF93CE50DF4FA4
:102BE000F881C25FD040FF93CF50DF4F0881C15FB3
:102BF000D0400F930E94F827CE0187519F4F0E942B
:102C0000C40D8BE495E00E94BA0D84E695E00E9425
:102C1000C40D8091E80E0E94C50D81E895E00E94E8
:102C2000BA0D8AE995E00E94C40D8091E90E0E94D8
:102C3000C50D80E20E94C50D8091EA0E0E94C50D6F
:102C400087EB95E00E94BA0D8EEC95E00E94C40DD2
:102C50006091EB0E7091EC0E8091ED0E9091EE0E66
:102C60000AD880E20E94C50D6091F30E7091F40EB7
:102C70008091F50E9091F60E0E943B0E8BEE95E042
:102C80000E94BA0D8FEF95E00E94C40D6091FB0E7B
:102C90007091FC0E8091FD0E9091FE0E0E943B0EF5
:102CA00080E20E94C50D6091030F7091040F809126
:102CB000050F9091060F0E943B0E8CE196E00E945A
:102CC000BA0D83E396E00E94C40D60910B0F7091E2
:102CD0000C0F80910D0F90910E0F0E943B0E80E221
:102CE0000E94C50D6091130F7091140F8091150F04
:102CF0009091160F0E943B0E8CE196E00E94BA0D57
:102D00000E94B70D80E596E00E94BA0D80E796E03C
:102D10000E94BA0D81E996E00E94BA0D84EB96E01C
:102D20000E94BA0D0E941E09082E000C990B0E94E9
:102D3000E1270FB6F894DEBF0FBECDBF082E000C02
:102D4000990BAA0BBB0BFC01E354F109E831F10527
:102D500008F0C7C58827EE58FF4F8F4F0C9469269F
:102D600081EC96E00E94BA0D0E94B70D80EF96E0CC
:102D70000E94BA0D88E097E00E94BA0D8DE197E0BD
:102D80000E94BA0D8EE397E00E94BA0D8DE597E0A0
:102D90000E94BA0D0E94B70D81E797E00E94C40D12
:102DA0000E941E09082E000C990B0E94E1278C340A
:102DB0009105A1F044F484349105A1F08934910582
:102DC00099F481E00CC08035910531F0843591058E
:102DD00059F41092D30E99CE82E001C083E0809323
:102DE000D30E93CE84E0FBCF8EE797E00E94BA0D1E
:102DF000D7CF8AE997E00E94C40D2091D40E30917C
:102E0000D50E4091D60E5091D70E6091D80E70918C
:102E1000D90E8091DA0E9091DB0E0E942A0887EA83
:102E200097E00E94BA0D8BEC97E00E94BA0D0E94C9
:102E30002C0910922B0D10922A0DC1010E94620ED6
:102E4000D1015C9011966C90119712967C9012971C
:102E500013968C90139714969C9014971596BC918A
:102E6000F1014680F781CD50DF4FF883C35FD0403A
:102E7000252D362D472D582D692D7B2F842D9F2FE5
:102E8000AFEF0E94B427AFE00E94C92711F008F00D
:102E90003CCE252D362D472D582D692D7B2F842D89
:102EA0009F2F05E00E949227A52CB62CC72CD82C6A
:102EB000E92CFB2E042D1F2F0E94C02759016A0107
:102EC0007B01A82F192F06E00E9492270A2F0E944B
:102ED000C02703E00E949227A52CB62CC72CD82C23
:102EE000E92CFB2E042D1F2F0E94AB2706E00E9429
:102EF0009227422ECA5FDE4F3883C650D140CD5054
:102F0000DF4F4883C35FD040C85FDE4F5883C8504F
:102F1000D140C550DF4F6883CB5FD040CD5FDE4FDF
:102F20007883C350D140CC5FDE4F8883C450D140FA
:102F3000CB5FDE4F9883C550D1409090A00CB091EC
:102F4000A10CA091A20CF091A30CE091A40C7090A4
:102F5000A50C6090A60C5090A70C292D3B2F4A2F52
:102F60005F2F6E2F772D862D952D05E00E949227DD
:102F7000A92CBB2ECA2EDF2EEE2EF72C062D152DDA
:102F80000E94C02759016A017B01882E192F06E093
:102F90000E949227082D0E94C02703E00E949227DA
:102FA000A92CBB2ECA2EDF2EEE2EF72C062D152DAA
:102FB0000E94AB2706E00E949227A0900002B090EA
:102FC0000102C0900202D0900302E0900402F0904F
:102FD000050200910602109107020E94C4265901C1
:102FE0006A017B018C01242DCA5FDE4F3881C650F7
:102FF000D140CD50DF4F4881C35FD040C85FDE4F26
:103000005881C850D140C550DF4F6881CB5FD04058
:10301000CD5FDE4F7881C350D140CC5FDE4F8881D9
:10302000C450D140CB5FDE4F9881C550D1400E9443
:10303000AB272093D40E3093D50E4093D60E5093E9
:10304000D70E6093D80E7093D90E8093DA0E9093BA
:10305000DB0E5BCD82E198E00E94C40D2091DC0E76
:103060003091DD0E4091DE0E5091DF0E6091E00E4A
:103070007091E10E8091E20E9091E30E0E942A0879
:1030800085E298E00E94BA0D8AE398E00E94BA0DAA
:103090000E942C0910922B0D10922A0DC1010E9442
:1030A000620ED1015C9011966C90119712967C90F3
:1030B000129713968C90139714969C9014971596CC
:1030C000BC91F1014680F781CD50DF4FF883C35F9B
:1030D000D040252D362D472D582D692D7B2F842D41
:1030E0009F2FA0E00E94C92709F00CF40ECD05E047
:1030F0000E949227A52CB62CC72CD82CE92CFB2E8D
:10310000042D1F2F0E94C02759016A017B01A82F9F
:10311000192F06E00E9492270A2F0E94C02703E081
:103120000E949227A52CB62CC72CD82CE92CFB2E5C
:10313000042D1F2F0E94AB2706E00E949227422EEB
:10314000CA5FDE4F3883C650D140CD50DF4F488331
:10315000C35FD040C85FDE4F5883C850D140C550D0
:10316000DF4F6883CB5FD040CD5FDE4F7883C350A5
:10317000D140CC5FDE4F8883C450D140CB5FDE4F5F
:103180009883C550D1409090A00CB091A10CA09113
:10319000A20CF091A30CE091A40C7090A50C60908F
:1031A000A60C5090A70C292D3B2F4A2F5F2F6E2F76
:1031B000772D862D952D05E00E949227A92CBB2EF8
:1031C000CA2EDF2EEE2EF72C062D152D0E94C027BD
:1031D00059016A017B01882E192F06E00E9492276F
:1031E000082D0E94C02703E00E949227A92CBB2E25
:1031F000CA2EDF2EEE2EF72C062D152D0E94AB27A2
:1032000006E00E949227A0900002B0900102C090B8
:103210000202D0900302E0900402F09005020091B7
:103220000602109107020E94C42659016A017B011F
:103230008C01242DCA5FDE4F3881C650D140CD505D
:10324000DF4F4881C35FD040C85FDE4F5881C85010
:10325000D140C550DF4F6881CB5FD040CD5FDE4F9E
:103260007881C350D140CC5FDE4F8881C450D140BB
:10327000CB5FDE4F9881C550D1400E94AB27209391
:10328000DC0E3093DD0E4093DE0E5093DF0E609324
:10329000E00E7093E10E8093E20E9093E30E35CC36
:1032A00080E898E00E94C40D6091E40E7091E50EF4
:1032B000072E000C880B990B0E943B0E85E998E0C5
:1032C0000E94BA0D82EC98E00E94BA0D0E942C096F
:1032D00010922B0D10922A0DC1010E94620E809156
:1032E0009E0C90919F0C892B09F40FCCD101FC917D
:1032F0001196EC9111971296DC9012971396EC9020
:1033000013971496FC90149715960C911597169692
:103310001C9116971796CC902F2F277F3E2F4D2D5F
:103320005E2D6F2D702F812F9C2DA2E00E94C9274A
:1033300051F02F2FA4E10E94C92729F0A8E20E9492
:10334000C92709F0E2CBCF019093E40EE093E50E9C
:10335000DCCB8091E60E9091E70E092E000CAA0BB3
:10336000BB0BBF93AF939F938F93A4E4B5E0BF9340
:10337000AF933F922F920E94F82780E099E00E943D
:10338000C40DC1010E94C40D89E099E00E94BA0DEC
:1033900082EC98E00E94BA0D0E942C0910922B0D2D
:1033A00010922A0DCE018F519F4F0E94620E0FB6D0
:1033B000F894DEBF0FBECDBF80919E0C90919F0C04
:1033C000892B09F4A2CBCF51DF4FF881C15ED040E9
:1033D000CE51DF4FE881C25ED040CD51DF4F4881F2
:1033E000C35ED040CC51DF4F5881C45ED040CB513A
:1033F000DF4F6881C55ED040CA51DF4F7881C65E1D
:10340000D0402F2F3E2FC951DF4F8881C75ED0405B
:10341000C851DF4F9881C85ED0402F3F310541052C
:103420005105610571058105910511F008F06DCB1D
:10343000CF019093E60E8093E70E67CB8BE399E084
:103440000E94C40D8091E80E0E94C50D8CE499E0A5
:103450000E94BA0D0E941E09082E000C990B0E94B2
:10346000E1278D3419F0833509F04FCB8093E80EB6
:103470004CCB8CE699E00E94BA0D8EE799E00E9451
:10348000C40D8091E90E0E94F10D80E999E00E943F
:10349000C40D8091EA0E0E94F10D82EA99E00E942B
:1034A000BA0D0E942C09E8EAFCE09F01285A3C4032
:1034B000790181918032C9F3082E000C990B0E948A
:1034C000E127813419F400E010E005C0823409F0EE
:1034D0001CCB01E010E0F701E755F34F81918032FA
:1034E000E9F3082E000C990B0E94E127823519F0B0
:1034F000863409F00ACBF801E155F14F82AF05CBD4
:1035000088EE99E00E94BA0D8BE09AE00E94C40D0B
:103510006091EB0E7091EC0E8091ED0E9091EE0E9D
:103520000E9460118EE19AE00E94C40D6091F30E3A
:103530007091F40E8091F50E9091F60E0E9460113C
:1035400081E39AE00E94BA0D0E941E09082E000C29
:10355000990B0E94E127813419F400E010E004C0C7
:10356000823471F701E010E089E49AE00E94BA0D1C
:103570000E942C0910922B0D10922A0DC1010E945D
:10358000620E80919E0C90919F0C892B09F4BDCA0C
:1035900063E0000F111F6A95E1F70155114FF80123
:1035A000FC96D1018C91D801DC968C93D101A8C0F6
:1035B00083E79AE00E94BA0D8CE89AE00E94C40D5D
:1035C0006091FB0E7091FC0E8091FD0E9091FE0EAD
:1035D0000E9460118DE99AE00E94C40D6091030F72
:1035E0007091040F8091050F9091060F0E94601159
:1035F00081E39AE00E94BA0D0E941E09082E000C79
:10360000990B0E94E127813419F400E010E004C016
:10361000823471F701E010E08EEA9AE00E94BA0D60
:103620000E942C0910922B0D10922A0DC1010E94AC
:10363000620E80919E0C90919F0C892B09F465CAB3
:1036400053E0000F111F5A95E1F70155114FF80192
:10365000E45BFF4F52C083ED9AE00E94BA0D88EE02
:103660009AE00E94C40D60910B0F70910C0F809135
:103670000D0F90910E0F0E94601189EF9AE00E9449
:10368000C40D6091130F7091140F8091150F9091DC
:10369000160F0E94601181E39AE00E94BA0D0E9409
:1036A0001E09082E000C990B0E94E127813419F4A1
:1036B00000E010E004C0823471F701E010E08AE01D
:1036C0009BE00E94BA0D0E942C0910922B0D1092C3
:1036D0002A0DC1010E94620E80919E0C90919F0C58
:1036E000892B09F412CA43E0000F111F4A95E1F734
:1036F0000155114FF801E45AFF4FD1018C9180839D
:1037000011968C911197818312968C9112978283D6
:1037100013968C911397838314968C9114978483BA
:1037200015968C911597858316968C91169786839E
:1037300017968C918783E9C987E0898341E150E03E
:103740006CE072E0CE0102960E94E92784E48B8B44
:1037500041E150E06DE17CE0CE0144960E94E92712
:103760001DA280E88EA386E98FA388E988A719A601
:103770001AA61BA61CA61DA61EA681EE8FA785EF66
:1037800088AB85E089AB1AAA1BAA1CAA1DAA84E1F2
:1037900090E09FAB8EAB85E090E099AF88AF8DE471
:1037A0008AAF82E58BAF8CAF94EC9DAF89E08EAF92
:1037B0001FAE21961FAE219722961FAE2297239609
:1037C0001FAE239724961FAE249725961FAE2597EC
:1037D00026969FAF269727968FAF279728961FAEDE
:1037E000289729961FAE29972A961FAE2A972B96BF
:1037F0001FAE2B972C961FAE2C972D961FAE2D9794
:103800002E961FAE2E972F961FAE2F9760961FAE47
:10381000609761961FAE619762961FAE629763963E
:103820001FAE639764961FAE649765961FAE65974B
:1038300066961FAE669767961FAE679768961FAE2F
:10384000689769961FAE69976A961FAE6A976B96DE
:103850001FAE6B976C961FAE6C976D961FAE6D97F3
:103860006E961FAE6E976F961FAE6F97A0961FAEA7
:10387000A097A1961FAEA197A2961FAEA297A3965E
:103880001FAEA397A4961FAEA497A5961FAEA597AB
:10389000A6961FAEA697A7961FAEA797A8961FAE8F
:1038A000A897A9961FAEA997AA961FAEAA97AB96FE
:1038B0001FAEAB97AC961FAEAC97AD961FAEAD9753
:1038C0008CE6FE013196AFEABEE001900D928A953A
:1038D000E1F71BC96FEA7EE080E090E00E940B08F0
:1038E00005C08AE29BE00E94BA0D0FC98091D30EF9
:1038F0008093360CA090D40EB090D50EC090D60E0A
:10390000D090D70EE090D80EF090D90E0091DA0E3C
:103910001091DB0EA0922E0CB0922F0CC092300CA6
:10392000D092310CE092320CF092330C0093340CB4
:103930001093350C20E030E145EA54ED68EE70E07C
:1039400080E090E00E94C42620933A0C30933B0C18
:1039500040933C0C50933D0C60933E0C70933F0C95
:103960008093400C9093410C8091DC0E8093420C2C
:103970008091DD0E8093430C8091DE0E8093440C89
:103980008091DF0E8093450C8091E00E8093460C71
:103990008091E10E8093470C8091E20E8093480C59
:1039A0008091E30E8093490CA090E40EB090E50E58
:1039B000B092390CA092380C1092140C1092150C85
:1039C0001092160C1092170C1092180C1092190CE1
:1039D00010921A0C10921B0C9BEEE92E9EE0F92E11
:1039E0000CE11EE029ECC22E2DE0D22E812C912C70
:1039F00033E7732EF801108211821282138214822F
:103A0000158216821782789CD001799CB00D112402
:103A1000A753B24FFD01B39693961C921182128266
:103A200013821482158216821782D6019B961C92ED
:103A30009B979C961C929C979D961C929D979E96F8
:103A40001C929E979F961C929F97D0961C92D097FF
:103A5000D1961C92D197D2961C92D297DB961C924B
:103A6000F601FB961182128213821482158216824D
:103A70001782F701708161815281438134812581F0
:103A800096818781F8E0EF0EF11CD80118967C939F
:103A9000189719966C9319971A965C931A971B9618
:103AA0004C931B971C963C931C971D962C931D972B
:103AB0001E969C931E971F968C931F97F7018085E7
:103AC00050968C935097818551968C93519782850F
:103AD00052968C935297838553968C9353978485F3
:103AE00054968C935497858555968C9355978685D7
:103AF00056968C935697878557968C935797808DBB
:103B000058968C935897818D59968C935997828D9E
:103B10005A968C935A97838D5B968C935B97848D82
:103B20005C968C935C97858D5D968C935D97868D66
:103B30005E968C935E97878D5F968C9360E0D6013E
:103B40008C910E94160465E070E080E090E00E9495
:103B5000A00461E0F60180810E94160465E070E037
:103B600080E090E00E94A004FAE0AF16B10459F0A2
:103B700074F044E1A416B10441F058E2A516B10472
:103B800031F440EC05C040E403C040E801C040E02F
:103B9000416021E082E1C45EDE4F2883CC51D140F8
:103BA000C35EDE4F4883CD51D1400E94EE03C45E18
:103BB000DE4F2881CC51D140C35EDE4F4881CD51CC
:103BC000D140892B31F7222311F020E0E3CF61E0CF
:103BD000C6010E94220544E063E0C6010E9422055E
:103BE0004091E60E66E0C6010E94220540E067E0D3
:103BF000C6010E94220543E860E0C6010E9422053A
:103C000063E7C60ED11C0D581F4F8A94892821F0F6
:103C100088248394912CEECE42E069E673E082E141
:103C20000E94210C43E06EE473E082E00E94210CCC
:103C300043E063E373E083E00E94210C82E19CE0B7
:103C40000E94BA0D82E19CE00E94BA0D8091D30ED1
:103C5000823091F038F4882361F08130A1F484E45B
:103C60009BE00FC0833059F0843069F485EA9BE013
:103C700008C08EE29BE005C082E69BE002C085E7BB
:103C80009BE00E94BA0D60E084E40E94160460E0AC
:103C900085E40E941604CE0187529F4FCF50DF4F1C
:103CA00099838883C15FD040A3EEBDE0CA5FDE4F39
:103CB000B983A883C650D140B4EF8B2EBDE09B2EB4
:103CC00019EC212E1DE0312E0CE1602E0EE0702E3D
:103CD000C85FDE4F19821882C850D140D1015D966D
:103CE0008C910E94EE03892B09F01DC761E0CA5F29
:103CF000DE4FE881F981C650D14087810E941604C9
:103D0000D4018C9118968C93189711968C911197D9
:103D100019968C93199712968C9112971A968C93E8
:103D20001A9713968C9113971B968C931B97149646
:103D30008C9114971C968C931C9715968C911597C3
:103D40001D968C931D9716968C9116971E968C93A4
:103D50001E9717968C9117971F968C9360E1C1015F
:103D60000E945E05F101628373838483958362E11F
:103D7000C1010E945E05D10116966D937D938D93CE
:103D80009C93199761E1C1010E945E05F10166876C
:103D90007787808B918B6BE1C1010E945E05D10119
:103DA00052966D937D938D939C9355976CE1C101D1
:103DB0000E945E05C550DF4F688379838A839B83A9
:103DC000CB5FD040F101668B778B808F918FF09124
:103DD0003A0CCD5FDE4FF883C350D14000913B0CCD
:103DE000CC5FDE4F0883C450D14010913C0CCB5FB8
:103DF000DE4F1883C550D14020913D0CC65FDE4F89
:103E00002883CA50D14030913E0CC55FDE4F3883C5
:103E1000CB50D14040913F0CC45FDE4F4883CC5023
:103E2000D1404090400C5090410CF101868597851F
:103E3000A089B1898C019D0140E050E0BA01CD50CC
:103E4000DF4F8883C35FD040CC50DF4F1883C45FFF
:103E5000D040CB50DF4F2883C55FD040CA50DF4FE2
:103E60003883C65FD040C950DF4F4883C75FD0401A
:103E7000C850DF4F5883C85FD040C750DF4F6883BA
:103E8000C95FD040C650DF4F7883CA5FD040CD5F56
:103E9000DE4FA880C350D140CC5FDE4FB880C45005
:103EA000D140CB5FDE4FC880C550D140C65FDE4FEA
:103EB000D880CA50D140C55FDE4FE880CB50D1409A
:103EC000C45FDE4FF880CC50D1408201CD50DF4F2F
:103ED0002881C35FD040CC50DF4F3881C45FD040D1
:103EE000CB50DF4F4881C55FD040CA50DF4F58816B
:103EF000C65FD04060E070E080E090E0F2D6D30191
:103F00005896AC9058975996BC9059975A96CC9021
:103F10005A975B96DC905B975C96EC905C975D960D
:103F2000FC905D975E960C915E975F961C910E9447
:103F3000C027C35FDE4F2883CD50D140C25FDE4F24
:103F40003883CE50D140C15FDE4F4883CF50D1403F
:103F5000C05FDE4F5883C051D140CF5EDE4F6883D3
:103F6000C151D140CE5EDE4F7883C251D140CD5E8B
:103F7000DE4F8883C351D140CC5EDE4F9883C4515D
:103F8000D140F10182899389A489B589C550DF4F59
:103F9000088119812A813B81CB5FD040081B190B16
:103FA0002A0B3B0B40E050E0BA01CD50DF4F0883B5
:103FB000C35FD040CC50DF4F1883C45FD040CB509C
:103FC000DF4F2883C55FD040CA50DF4F3883C65FBC
:103FD000D040C950DF4F4883C75FD040C850DF4F43
:103FE0005883C85FD040C750DF4F6883C95FD04057
:103FF000C650DF4F7883CA5FD04020E432E44FE000
:1040000050E060E070E080E090E0D3011896AC9062
:1040100018971996BC9019971A96CC901A971B96D8
:10402000DC901B971C96EC901C971D96FC901D979E
:104030001E960C911E971F961C91A2D759016A01DA
:104040007B018C01CD50DF4F2881C35FD040CC5025
:10405000DF4F3881C45FD040CB50DF4F4881C55F10
:10406000D040CA50DF4F5881C65FD04060E070E05A
:1040700080E090E036D6E091380CF091390C319721
:104080001F2F110F110B5F01C12ED12EE12EF12E2A
:10409000012F7AD6C550DF4F2883CB5FD040CB5E4F
:1040A000DE4F3883C551D140CA5EDE4F4883C651CA
:1040B000D140C95EDE4F5883C751D140C85EDE4F44
:1040C0006883C851D140C75EDE4F7883C951D14063
:1040D000C65EDE4F8883CA51D140C55EDE4F9883ED
:1040E000CB51D140F3011089B1890289F3886489E9
:1040F0007589212F3B2F402F5F2D86899789A0E05E
:1041000048D761F0D10116961C93169717963C93E9
:10411000179718960C9318971996FC92D10112963E
:104120000D911D912D913C911597CD50DF4F088336
:1041300019832A833B83C35FD040A12C40E1B42E76
:1041400055EAC52E64EDD62E78EEE72EF12C00E070
:1041500010E0CD5FDE4F2881C350D140CC5FDE4FF1
:104160003881C450D140CB5FDE4F4881C550D1402B
:10417000C65FDE4F5881CA50D140C55FDE4F6881AF
:10418000CB50D140C45FDE4F7881CC50D140C201CA
:10419000A8D5C550DF4FA880CB5FD040CB5EDE4FA7
:1041A000B880C551D140CA5EDE4FC880C651D140EB
:1041B000C95EDE4FD880C751D140C85EDE4FE8806F
:1041C000C851D140C75EDE4FF880C951D140C65EAC
:1041D000DE4F0881CA51D140C55EDE4F1881CB51F8
:1041E000D140D2D5CD5FDE4F2883C350D140CC5FC4
:1041F000DE4F3883C450D1402A01B62FA72FCB5FA2
:10420000DE4F8883C550D140C65FDE4F9883CA50C9
:10421000D140CD50DF4F288139814A815B81C35F16
:10422000D04059016A01F10146815781608571854D
:104230009A01AB0160E070E0CB01C550DF4F2883ED
:10424000CB5FD040C450DF4F3883CC5FD040C350E9
:10425000DF4F4883CD5FD040C250DF4F5883CE5FE1
:10426000D040C150DF4F6883CF5FD040C050DF4F98
:104270007883C050D140CF5FDE4F8883C150D1409A
:10428000CE5FDE4F9883C250D1409501A60160E019
:1042900070E080E090E0C550DF4FA880CB5FD04059
:1042A000C450DF4FB880CC5FD040C350DF4FC880D0
:1042B000CD5FD040C250DF4FD880CE5FD040E12CE0
:1042C000F12C00E010E05CD659016A017B018C0101
:1042D000CD5FDE4F2881C350D140CC5FDE4F3881A7
:1042E000C450D140A2016B2F7A2FCB5FDE4F888163
:1042F000C550D140C65FDE4F9881CA50D140F1D43D
:10430000E0E4AE2EF2E4BF2EAFE0CA2ED12CE12CB9
:10431000F12C00E010E038D559016A017B018C01D5
:10432000C35FDE4F2881CD50D140C25FDE4F388160
:10433000CE50D140C15FDE4F4881CF50D140C05FE9
:10434000DE4F5881C051D140CF5EDE4F6881C151F0
:10435000D140CE5EDE4F7881C251D140CD5EDE4F7E
:104360008881C351D140CC5EDE4F9881C451D14089
:10437000F2D559016A017B018C018091D30E843002
:1043800009F0DAC0CA50DF4F5881C65FD0405F9352
:10439000CB50DF4F6881C55FD0406F93CC50DF4F6B
:1043A0007881C45FD0407F93CD50DF4F8881C35F59
:1043B000D0408F93AAEDBBE0BF93AF93CE50DF4FB9
:1043C000F881C25FD040FF93CF50DF4F2881C15F9B
:1043D000D0402F930DD6CE0187529F4F0E94C40D1F
:1043E000D10119968C9119978F9318968C911897E3
:1043F0008F9317968C9117978F9316968C918F9316
:10440000AAEDBBE0BF93AF93CE50DF4FF881C25F00
:10441000D040FF93CF50DF4F2881C15FD0402F9312
:10442000E7D5CE0187529F4F0E94C40DD10151960E
:104430008C9151978F9350968C9150978F931F9694
:104440008C911F978F931E968C918F93AAEDBBE052
:10445000BF93AF93CE50DF4FF881C25FD040FF9340
:10446000CF50DF4F2881C15FD0402F93C1D5CE01FF
:1044700087529F4F0E94C40DD10155968C9155973C
:104480008F9354968C9154978F9353968C91539706
:104490008F9352968C918F93AAEDBBE0BF93AF930D
:1044A000CE50DF4FF881C25FD040FF93CF50DF4F37
:1044B0002881C15FD0402F939BD50FB6F894DEBF03
:1044C0000FBECDBFCE0187529F4F0E94C40DD101B8
:1044D00059968C9159978F9358968C9158978F93A2
:1044E00057968C9157978F9356968C918F93AAEDF0
:1044F000BBE0BF93AF93CE50DF4FF881C25FD04097
:10450000FF93CF50DF4F2881C15FD0402F9370D5EC
:10451000CE0187529F4F0E94C40D9501A601B7019D
:10452000C8010E948C058EE496E00E94C40D0FB66F
:10453000F894DEBF0FBECDBFD401AC921196BC92F1
:1045400011971296CC9212971396DC9213971496A9
:10455000EC9214971596FC92159716960C93169755
:1045600017961C9343E860E0C1010E942205F30105
:104570002081318142815381648175818681978157
:10458000A1E0F2D420833183428353836483758313
:10459000868397838091D30E843019F523E7C85F13
:1045A000DE4F08811981C850D140209FD001219F42
:1045B000B00D1124A753B24FFD01B39693965C91B1
:1045C0004181328123818481858186818781652F24
:1045D000742F832F922F0E943B0E8EE496E00E9450
:1045E000C40D63E7C85FDE4F48815981C850D14090
:1045F000649FD001659FB00D1124A753B24FFD01F8
:10460000B39693962C913181428153816481758157
:1046100086819781A090420CB090430CC090440CCE
:10462000D090450CE090460CF090470C0091480C5F
:104630001091490C56D3D401AC901196BC901197AF
:104640001296CC9012971396DC9013971496EC90D8
:1046500014971596FC90159716960C911697179629
:104660001C9117978DD4CD50DF4F2883C35FD04066
:10467000432E542EC550DF4F5883CB5FD040CD5FC3
:10468000DE4F6883C350D140CC5FDE4F7883C45087
:10469000D140CB5FDE4F8883C550D140C65FDE4F2F
:1046A0009883CA50D14050962C93509751963C9382
:1046B000519752964C93529753965C9353975496B6
:1046C0006C93549755967C93559756968C93569722
:1046D00057969C935797F101E55BFF4F452D5896F0
:1046E000AC9058975996BC9059975A96CC905A9737
:1046F0005B96DC905B975C96EC905C975D96FC908B
:104700005D975E960C915E975F961C9139D42083DD
:104710003183428353836483758386839783809137
:10472000D30E8B7F09F054C0CD50DF4F2881C35F7B
:10473000D040342D452DC550DF4F5881CB5FD04040
:10474000CD5FDE4F6881C350D140CC5FDE4F7881B2
:10475000C450D140CB5FDE4F8881C550D140C65F89
:10476000DE4F9881CA50D140A0E013D409F00CF478
:104770006EC0CD50DF4F2881C35FD040342D452D12
:10478000C550DF4F5881CB5FD040CD5FDE4F688191
:10479000C350D140CC5FDE4F7881C450D140CB5F55
:1047A000DE4F8881C550D140C65FDE4F9881CA5028
:1047B000D1400E948C0580EE9BE00E94C40DCA5F30
:1047C000DE4FE881F981C650D14080810E94F10D11
:1047D0008091D30E8230D9F5D3012C9111963C9162
:1047E000119712964C91129713965C911397149609
:1047F0006C91149715967C91159716968C91169737
:1048000017969C91A2E0C5D311F10CF1F401208917
:104810003189428953896489758986899789A08CF1
:10482000B18CC28CD38CE48CF58C068D178DA8D3FB
:104830000E948C0580EE9BE00E94C40DCA5FDE4F93
:10484000A881B981C650D1408C910E94F10DA090F1
:10485000040EB090050EC090060ED090070EE090AA
:10486000080EF090090E00910A0E10910B0E9501A2
:10487000A601B701C801A1E08CD309F00CF448C12E
:104880005090770EB091780ECD50DF4FB883C35F54
:10489000D040E091790EC550DF4FE883CB5FD04028
:1048A000F0917A0ECD5FDE4FF883C350D140409037
:1048B0007B0EB0917C0EF0917D0EE0917E0E252D49
:1048C000CD50DF4F3881C35FD040C550DF4F4881A6
:1048D000CB5FD040CD5FDE4F5881C350D140642DB7
:1048E0007B2F8F2F9E2F55D309F00CF411C1A0926E
:1048F0000C0EB0920D0EC0920E0ED0920F0EE092E2
:10490000100EF092110E0093120E1093130E50928F
:104910007F0E3093800E4093810E5093820E409212
:10492000830EB093840EF093850EE093860E8091F3
:10493000D30E813099F4252DCD50DF4F3881C35FE0
:10494000D040C550DF4F4881CB5FD0408F2F18D368
:104950000E948C0584EE9BE00E94BA0D8091D30EDC
:10496000833009F0B5C02091040E3091050E4091BE
:10497000060E5091070E6091080E7091090E8091FD
:104980000A0E90910B0E0E948C058EEE9BE00E9409
:10499000BA0D2091770E3091780E4091790E50919A
:1049A0007A0E60917B0E70917C0E80917D0E9091BD
:1049B0007E0E0E948C0583EF9BE00E94BA0D209131
:1049C000770E3091780E4091790E50917A0E609169
:1049D0007B0E70917C0E80917D0E90917E0EA0904A
:1049E000040EB090050EC090060ED090070EE09019
:1049F000080EF090090E00910A0E10910B0EC0D215
:104A0000CD50DF4F2883C35FD040C550DF4F388380
:104A1000CB5FD0402A01CD5FDE4F6883C350D140C9
:104A2000CC5FDE4F7883C450D140CB5FDE4F8883AC
:104A3000C550D140C65FDE4F9883CA50D140A12CEB
:104A400080E1B82E95EAC92E24EDD22E38EEE32E61
:104A5000F12C00E010E020918F0E3091900E4091EB
:104A6000910E5091920E6091930E7091940E8091E0
:104A7000950E9091960E35D1AFEF76D259016A011D
:104A80007B018C01CD50DF4F2881C35FD040C550E2
:104A9000DF4F3881CB5FD040A201CD5FDE4F688110
:104AA000C350D140CC5FDE4F7881C450D140CB5F42
:104AB000DE4F8881C550D140C65FDE4F9881CA5015
:104AC000D14049D20E948C0588EF9BE00E94BA0D2C
:104AD0001092040E1092050E1092060E1092070E00
:104AE0001092080E1092090E10920A0E10920B0EE0
:104AF0001092770E1092780E1092790E10927A0E14
:104B000010927B0E10927C0E10927D0E10927E0EF3
:104B100060E0CA5FDE4FA881B981C650D1401796C8
:104B20008C910E941604B3E72B0E311CCA5FDE4F36
:104B3000E881F981C650D140ED58FF4FCA5FDE4F82
:104B4000F983E883C650D140F3E76F0E711C03E789
:104B5000800E911CC85FDE4F28813981C850D1403A
:104B60002130310549F0E1E0F0E0C85FDE4FF98324
:104B7000E883C850D140B2C80E94700295C8CF9255
:104B8000DF92EF92FF920F931F93CF93DF93ECE2AC
:104B9000FDE01382128288EE93E0A0E0B0E084830F
:104BA0009583A683B78386E292E09183808385EC28
:104BB00090E09587848784EC90E09787868780ECE7
:104BC00090E0918B808B81EC90E0938B828B82ECD8
:104BD00090E0958B848B86EC90E0978B868B118E82
:104BE000128E138E148E87E08093AF0EC9ECDDE039
:104BF00084E090E09983888381E48A8F82E090E06A
:104C00009C8F8B8F8AE090E09E8F8D8F86E090E066
:104C100098A38F8F84E490E09AA389A361E084E055
:104C20000E94450460E08D8D0E94450461E08F8DF7
:104C30000E94450460E08B8D0E94450461E089A1DB
:104C40000E94450485E090E090933D0E80933C0ED9
:104C500082E48093560E07E51EE083E090E0F801C1
:104C60009183808389E5C82E8EE0D82E8BE090E07A
:104C7000F601918380839BE5E92E9EE0F92E87E083
:104C800090E0F70191838083CDE5DEE085E490E05C
:104C90009983888361E085E00E94450460E0F60125
:104CA00080810E94450461E0F70180810E944504F3
:104CB00060E0F80180810E94450461E08881DF9115
:104CC000CF911F910F91FF90EF90DF90CF900C94B8
:104CD0004504EE0FFF1F881F8BBF0790F691E02D54
:104CE0001994DF93CF931F930F939A9DF02D219FDB
:104CF000F00D8B9DF00D8A9DE02DF10D039FF00DC1
:104D0000029FE00DF11D4E9DE00DF11D5E9DF00D29
:104D10004F9DF00D7F936F93BF92AF925F934F9330
:104D2000D501EBD48B01AC01D701E7D4EB01E80F3F
:104D3000F91FD6011FD02F913F91D601DED4C60FA7
:104D4000D71FE81FF91FAF91BF9114D02F913F914A
:104D5000D4D4C60FD71FE81FF91FD601CED4E60F53
:104D6000F71F9801BE01CF0111240F911F91CF9120
:104D7000DF910895C2D4460F571FC81FD91F08F4EA
:104D800031960895689401C0E894F92FF12B0AF048
:104D900027C0A0E0B0E0EEECF6E293C0092E059447
:104DA0001AF479D0112392F4F0E80F26FFEFE09483
:104DB000F09400951095B094C094D094A194BF0A3B
:104DC000CF0ADF0AEF0AFF0A0F0B1F0B13D007FCF5
:104DD00062D0CDB7DEB7ECE090C0689401C0E89433
:104DE0008F929F92CF93DF9305D0DF91CF919F90C9
:104DF0008F90089588249924F401E401B0E49F93EE
:104E0000AA279A158B049C04ED05FE05CF05D00753
:104E1000A10798F4AD2FDC2FCF2FFE2FE92D982C72
:104E2000892E982F872F762F652F542F432F322FBF
:104E30002227B85031F7BF9127C01B2EBF91BB2747
:104E4000220F331F441F551F661F771F881F991F8E
:104E5000881C991CEE1FFF1FCC1FDD1FAA1FBB1F44
:104E60008A149B04EC05FD05CE05DF05A007B107FC
:104E700048F08A189B08EC09FD09CE09DF09A00B50
:104E8000B10B21601A94E1F62EF49401AF01BE013A
:104E9000CD01000C089560957095809590953095A2
:104EA0004095509521953F4F4F4F5F4F6F4F7F4F2C
:104EB0008F4F9F4F08952F923F924F925F926F9224
:104EC0007F928F929F92AF92BF92CF92DF92EF929A
:104ED000FF920F931F93CF93DF93CDB7DEB7CA1B1B
:104EE000DB0B0FB6F894DEBF0FBECDBF19942A8836
:104EF000398848885F846E847D848C849B84AA84EE
:104F0000B984C884DF80EE80FD800C811B81AA817A
:104F1000B981CE0FD11D0FB6F894DEBF0FBECDBF45
:104F2000ED0108950F93083090F0982F872F762F7A
:104F3000652F542F432F322F22270850F4CF220FF2
:104F4000331F441F551F661F771F881F991F0A951F
:104F5000B2F70F9108952A0D3B1D4C1D5D1D6E1D6E
:104F60007F1D801F911F08950024A7FD00942A0F24
:104F7000301D401D501D601D701D801D901D089529
:104F80002A193B094C095D096E097F09800B910BB9
:104F900008950024A7FD00942A1730054005500508
:104FA0006005700580059005089581E090E0F89413
:104FB000B3C391113AC2803219F089508550D0F7AD
:104FC00008959111089581568A5108F480528558A8
:104FD0000895FB01DC014150504048F001900D92D2
:104FE0000020C9F701C01D9241505040E0F70895DC
:104FF0000F931F93CF93DF93CDB7DEB72E970FB6E6
:10500000F894DEBF0FBECDBF0E891F8986E08C836A
:105010001A8309838FEF9FE79E838D83AE01465EDF
:105020005F4F688D798DCE01019611D02F81388523
:10503000F801E20FF31F10822E960FB6F894DEBF30
:105040000FBECDBFDF91CF911F910F9108952F9289
:105050003F924F925F926F927F928F929F92AF9208
:10506000BF92CF92DF92EF92FF920F931F93CF9355
:10507000DF93CDB7DEB72C970FB6F894DEBF0FBE27
:10508000CDBF7C016B018A01FC01178216828381EE
:1050900081FFB0C1CE0101964C01F7019381F60169
:1050A00093FD859193FF81916F01882309F49EC13F
:1050B000853239F493FD859193FF81916F0185329B
:1050C00021F4B70190E0CAD1E8CF512C312C20E077
:1050D0002032A0F48B3269F030F4803259F0833200
:1050E00069F420612CC08D3239F0803339F42160AD
:1050F00026C02260246023C0286021C027FD27C06D
:1051000030ED380F3A3078F426FF06C0FAE05F9EA3
:10511000300D1124532E13C08AE0389E300D112417
:10512000332E20620CC08E3221F426FD5FC1206434
:1051300006C08C3611F4206802C0883641F4F601AE
:1051400093FD859193FF81916F018111C1CF982FBC
:105150009F7D9554933028F40C5F1F4FFFE3F98334
:105160000DC0833631F0833771F0833509F057C0B5
:1051700021C0F801808189830E5F1F4F442443942E
:10518000512C540114C03801F2E06F0E711CF8016B
:10519000A080B18026FF03C0652D70E002C06FEFD4
:1051A0007FEFC5012C874FD12C0183012C852F77F0
:1051B000222E16C03801F2E06F0E711CF801A0809B
:1051C000B18026FF03C0652D70E002C06FEF7FEF56
:1051D000C5012C872DD12C012C852068222E83011E
:1051E00023FC19C0832D90E048165906A0F4B7019E
:1051F00080E290E033D13A94F5CFF50127FC859118
:1052000027FE81915F01B70190E028D131103A94D7
:10521000F1E04F1A51084114510479F7DEC0843689
:1052200011F0893631F5F80127FF07C060817181DF
:10523000828193810C5F1F4F08C060817181072EAE
:10524000000C880B990B0E5F1F4F2F76722E97FF65
:1052500009C090958095709561957F4F8F4F9F4FB6
:105260002068722E2AE030E0A40130D1A82EA818C0
:1052700043C0853729F42F7EB22E2AE030E025C0C6
:10528000F22FF97FBF2E8F36C1F018F4883579F0F0
:10529000ADC0803719F0883721F0A8C02F2F2061CA
:1052A000B22EB4FE0DC08B2D8460B82E09C024FF31
:1052B0000AC09F2F9660B92E06C028E030E005C0D6
:1052C00020E130E002C020E132E0F801B7FE07C083
:1052D00060817181828193810C5F1F4F06C0608164
:1052E000718180E090E00E5F1F4FA401EFD0A82EE7
:1052F000A818FB2DFF777F2E76FE0BC0372D3E7F43
:10530000A51450F474FE0AC072FC08C0372D3E7E0E
:1053100005C0BA2C372D03C0BA2C01C0B52C34FF00
:105320000DC0FE01EA0DF11D8081803311F4397E3C
:1053300009C032FF06C0B394B39404C0832F8678AB
:1053400009F0B39433FD12C030FF06C05A2CB314D9
:1053500018F4530C5B18B32CB31460F4B70180E25B
:1053600090E03C877BD0B3943C85F6CFB31410F427
:105370003B1801C0312C34FF11C0B70180E390E02D
:105380003C876CD03C8532FF16C031FD03C088E7F6
:1053900090E002C088E590E0B7010CC0832F8678CA
:1053A00051F031FF02C08BE201C080E237FD8DE297
:1053B000B70190E053D0A51430F4B70180E390E03A
:1053C0004DD05A94F8CFAA94F401EA0DF11D8081D2
:1053D000B70190E043D0A110F6CF332009F45DCEA1
:1053E000B70180E290E03AD03A94F7CFF701868196
:1053F000978102C08FEF9FEF2C960FB6F894DEBF17
:105400000FBECDBFDF91CF911F910F91FF90EF9015
:10541000DF90CF90BF90AF909F908F907F906F90D4
:105420005F904F903F902F90089599278827089577
:10543000FC010590615070400110D8F7809590955F
:105440008E0F9F1F0895FC01615070400190011064
:10545000D8F7809590958E0F9F1F08950F931F93F7
:10546000CF93DF93FB01238121FD03C08FEF9FEFDB
:1054700028C022FF16C046815781248135814217FA
:10548000530744F4A081B1819D012F5F3F4F3183C9
:1054900020838C93268137812F5F3F4F378326836C
:1054A00010C0EB01092F182F0084F185E02D19950C
:1054B000892BE1F68E819F8101969F838E83812FB8
:1054C000902FDF91CF911F910F910895FA01AA2794
:1054D000283051F1203181F1E8946F936E7F6E5F37
:1054E0007F4F8F4F9F4FAF4FB1E03ED0B4E03CD0E5
:1054F000670F781F891F9A1FA11D680F791F8A1FC8
:10550000911DA11D6A0F711D811D911DA11D20D02E
:1055100009F468943F912AE0269F11243019305DE8
:105520003193DEF6CF010895462F4770405D4193D9
:10553000B3E00FD0C9F7F6CF462F4F70405D4A3326
:1055400018F0495D31FD4052419302D0A9F7EACFEE
:10555000B4E0A6959795879577956795BA95C9F71D
:1055600000976105710508959B01AC010A2E069410
:105570005795479537952795BA95C9F7620F731FC9
:10558000841F951FA01D08958F929F92AF92BF9286
:10559000CF92DF92EF92FF92CF93DF93EC0168817D
:1055A00079818A819B81611571058105910521F4BD
:1055B00064E279ED8BE597E02DE133EF41E050E0D7
:1055C0004ED049015A019B01AC01A7EAB1E463D076
:1055D0006B017C01ACEEB4EFA501940168D0DC0155
:1055E000CB018C0D9D1DAE1DBF1DB7FF03C00197E4
:1055F000A109B04888839983AA83BB83BC01CD01EC
:105600009F77DF91CF91FF90EF90DF90CF90BF9089
:10561000AF909F908F900895B7CF88E092E0B4CF7D
:10562000609308027093090280930A0290930B0220
:105630000895F999FECF92BD81BDF89A992780B55A
:105640000895262FF999FECF1FBA92BD81BD20BDC6
:105650000FB6F894FA9AF99A0FBE01960895052E9E
:1056600097FB16F400940FD057FD05D024D007FC0B
:1056700002D046F408C050954095309521953F4F93
:105680004F4F5F4F089590958095709561957F4F2E
:105690008F4F9F4F089531D0A59F900DB49F900DCF
:1056A000A49F800D911D11240895B7FFF4CFF3DF5F
:1056B000821B930B0895A1E21A2EAA1BBB1BFD01AE
:1056C0000DC0AA1FBB1FEE1FFF1FA217B307E407E1
:1056D000F50720F0A21BB30BE40BF50B661F771F39
:1056E000881F991F1A9469F7609570958095909519
:1056F0009B01AC01BD01CF010895A29FB001B39FF2
:10570000C001A39F700D811D1124911DB29F700DCA
:0C571000811D1124911D0895F894FFCF15
:10571C0001000000000000000100000032303137B1
:10572C00303130382E310000000000000054495058
:10573C004C440000000009028601D301B101C501EF
:10574C004F024E6F2073657269616C206E756D62CD
:10575C00657220666F756E642E2E2E206D616B69DE
:10576C006E67206F6E65002530346C582530346CB4
:10577C0058004E6F20636F6E66696720666F756E9A
:10578C00642E202057726974696E672064656661A7
:10579C00756C742E2E2E00232054415052205449E7
:1057AC0043432054696D657374616D70696E672035
:1057BC00436F756E746572002320436F7079726944
:1057CC006768742032303137204E3855522C204BBC
:1057DC00395452472C204E48365A2C2057413859B0
:1057EC00575100232323232323232323232323233E
:1057FC0023232323232323230023205449434320FF
:10580C00436F6E66696775726174696F6E3A2000DA
:10581C0023204D6561737572656D656E74204D6FD7
:10582C0064653A200054696D657374616D70005045
:10583C006572696F640054696D6520496E74657298
:10584C0076616C20412D3E420054696D654C61625D
:10585C0020332D6368616E6E656C004465627567FC
:10586C00002320454550524F4D2056657273696F89
:10587C006E3A20002C20426F617264205665727360
:10588C00696F6E3A20002320536F667477617265DE
:10589C002056657273696F6E3A20002320426F6147
:1058AC0072642053657269616C204E756D6265720D
:1058BC003A20002320436C6F636B20537065656442
:1058CC003A20002320436F61727365207469636B07
:1058DC0020287073293A2000232043616C205065E6
:1058EC0072696F64733A2000232053796E634D6F95
:1058FC0064653A2000232054696D656F75743A20F5
:10590C00003078252E325800232054696D652044D0
:10591C00696C6174696F6E3A2000202863684129B4
:10592C002C20002028636842290023204649584532
:10593C00445F54494D45323A200023204655444794
:10594C0045303A200023205479706520616E79200F
:10595C0063686172616374657220666F7220636F35
:10596C006E666967206D656E75002320004D2020E2
:10597C00204D6561737572656D656E74204D6F6435
:10598C0065202020202020202000202020202020E6
:10599C0020202020202020202064656661756C74F6
:1059AC0020540053202020636C6F636B2053706570
:1059BC0065642020284D487A2920202020202000B2
:1059CC002020202020202064656661756C742031B5
:1059DC00300043202020436F6172736520436C6F4D
:1059EC00636B205261746520287573292020002078
:1059FC00202020202064656661756C742031303065
:105A0C00005020202063616C6962726174696F6E52
:105A1C0020506572696F64732020202020002020A4
:105A2C00202020202020202020202020646566615A
:105A3C00756C74203230005420202054696D656FD1
:105A4C0075742020202020202020202020202020A1
:105A5C0020202000307825303258002020202020B3
:105A6C002020202020202064656661756C74203015
:105A7C00783035005920202073796E633A20206DE0
:105A8C006173746572202F20736C61766520202001
:105A9C00002020202020202020202020202020201A
:105AAC0064656661756C74204D004520202074720D
:105ABC006967676572204564676520202020202077
:105ACC0020202020202000202020202020202020EA
