:1000000053C100000C94FC0B0C94D10B0C94A60B68
:100010000C947B0B0C94500B0C94250B0C94FA0A4B
:100020000C94CF0A0C945A0A0C94EB090C947509A1
:100030006CC100006AC1000068C1000066C1000018
:1000400064C1000062C1000060C100005EC1000028
:100050005CC100005AC1000058C10000A9C40000E2
:1000600054C1000085C300005AC300004EC1000007
:100070004CC100004AC1000048C1000046C1000058
:1000800044C1000042C1000040C100003EC1000068
:100090003CC100003AC1000038C1000036C1000078
:1000A00034C1000032C1000030C100002EC1000088
:1000B0002CC100002AC1000028C1000026C1000098
:1000C00024C1000022C1000020C100001EC10000A8
:1000D0001CC100001AC1000018C1000016C10000B8
:1000E00014C10000B8180D1BC61A5F1BB21B6A179B
:1000F000181D181D181D181D2217181D181DDD1993
:10010000181D231C8817361A181D181DF41CFB1CFB
:10011000AB1A1D1DC302C602B502B902BF02FD0221
:10012000CA02CE02D402D802DC02E202E602EA02ED
:10013000FD02F002F402F802000021002400270072
:100140002A002D00300033000101000004010701E6
:100150000A010102102020080810204010204080D1
:10016000020102010804020101020408102040807B
:100170008040201008040201800402018040201009
:100180000804020108040201010204081020408052
:100190000102040810204080050505050705080830
:1001A0000808020202020A0A080804040404010101
:1001B0000101010101010303030303030303040716
:1001C00007070C0C0C0C0C0C0C0C020202020606AD
:1001D0000606060606060B0B0B0B0B0B0B0B0001A2
:1001E00004050503030405060405060701000100D4
:1001F00003020100000102030405060707060504C7
:1002000003020100070201000706050403020100C2
:1002100003020100000102030405060700010203B6
:100220000405060702030405060607000022002550
:100230000028002B002E00310034000201000005D0
:100240000108010B01000020002300260029002CDA
:10025000002F003200000100000301060109010027
:10026000000A0B02090C0D0E080703040100000030
:10027000000000000000000000000000000000007E
:10028000000000000000000000000012111000003B
:10029000000000000000000000000000000000005E
:1002A0000000000000006B2711241FBECFEFD1E239
:1002B000DEBFCDBF00E00CBF20E1A2E7BDE001C082
:1002C0001D92AA38B207E1F71DE0A0E0B2E0E4E732
:1002D000FAE500E00BBF02C007900D92A237B1070C
:1002E000D9F711E0C4E5D1E000E006C0219701098B
:1002F000802FFE010E941528C335D10780E0080732
:10030000A9F70E9470110C94382D7ACECF92DF920B
:10031000EF92FF920F931F93CF93DF936C017A01BB
:100320008B01C0E0D0E0CE15DF0589F0D8016D91DA
:100330008D01D601ED91FC910190F081E02DC60177
:100340001995892B11F47E0102C02196ECCFC701CB
:10035000DF91CF911F910F91FF90EF90DF90CF90A1
:100360000895FC01918D828D981761F0828DDF01D7
:10037000A80FB11D5D968C91928D9F5F9F73928F98
:1003800090E008958FEF9FEF0895FC01918D828D8D
:10039000981731F0828DE80FF11D858D90E008955A
:1003A0008FEF9FEF0895FC01918D228D892F90E0B2
:1003B000805C9F4F821B91098F73992708958AE86B
:1003C0009EE0F1DF21E0892B09F420E0822F0895DF
:1003D000FC01848DDF01A80FB11DA35ABF4F2C91E2
:1003E000848D90E001968F739927848FA689B789B1
:1003F0002C93A089B1898C9180648C93938D848D8A
:10040000981306C00288F389E02D80818F7D808358
:100410000895EF92FF920F931F93CF93DF93EC0118
:1004200081E0888F9B8D8C8D981305C0E889F989B0
:10043000808185FD23C0F62E0B8D10E00F5F1F4FCE
:100440000F731127E02E8C8DE8120BC00FB607FC3E
:10045000FACFE889F989808185FFF5CFCE01B8DF31
:10046000F2CF8B8DFE01E80FF11DE35AFF4FF082B2
:100470000B8FEA89FB898081806207C0EE89FF8942
:100480006083E889F98980818064808381E090E0DD
:10049000DF91CF911F910F91FF90EF900895CF932F
:1004A000DF93EC01888D8823C1F0EA89FB89808184
:1004B00085FD05C0A889B9898C9186FD0EC00FB64F
:1004C00007FCF5CF808185FFF2CFA889B9898C918F
:1004D00085FFEDCFCE017CDFE8CFDF91CF9108958E
:1004E00080E090E0892B19F06ADF811125C080E05F
:1004F00090E0892B41F080E090E0892B21F00E9470
:10050000000081111CC080E090E0892B41F080E068
:1005100090E0892B21F00E940000811113C080E03F
:1005200090E0892BA1F080E090E0892B81F00E947F
:10053000000081110AC008950E940000D8CF0E94D7
:100540000000E1CF0E940000EACF0C940000089563
:1005500090E0FC013197E231F10508F04EC08827A8
:10056000E657FF4F8F4F0C941528809180008F77AE
:1005700003C0809180008F7D8093800008958091DA
:100580008000877FF9CF84B58F7702C084B58F7DD7
:1005900084BD08958091B0008F7703C08091B00032
:1005A0008F7D8093B0000895809190008F7707C071
:1005B000809190008F7D03C080919000877F809311
:1005C000900008958091A0008F7707C08091A000CF
:1005D0008F7D03C08091A000877F8093A000089545
:1005E000809120018F7707C0809120018F7D03C00B
:1005F00080912001877F8093200108953FB7F89470
:100600008091F80D9091F90DA091FA0DB091FB0D2C
:1006100026B5A89B05C02F3F19F00196A11DB11D5D
:100620003FBFBA2FA92F982F8827820F911DA11D98
:10063000B11DBC01CD0142E0660F771F881F991FD5
:100640004A95D1F708958FB7F8948091F20D8FBF36
:1006500008958EBD00000DB407FEFDCF8EB5089540
:100660008CBD9DBD08957091720D6091730D509178
:10067000740D4091750D3091760D2091770D90910C
:10068000780D8091790DE5EAFFE0708361835283F4
:100690004383348325839683878308957091720DF5
:1006A0006091730D5091740D4091750D3091760DE0
:1006B0002091770D9091780D8091790DE7E2FFE020
:1006C00073876487558746873787208B918B828B0A
:1006D00008952091720D3091730D4091740D5091D9
:1006E000750D6091760D7091770D8091780D9091D8
:1006F000790DA1E00E9460292093720D3093730D53
:100700004093740D5093750D6093760D7093770D33
:100710008093780D9093790D08950E9481291F92FE
:100720000F920FB60F9211240BB60F922F933F9397
:100730004F935F936F937F938F939F93AF93BF93E9
:10074000EF93FF938AE89EE043DEFF91EF91BF9124
:10075000AF919F918F917F916F915F914F913F9159
:100760002F910F900BBE0F900FBE0F901F901895FA
:100770001F920F920FB60F9211240BB60F922F9368
:100780008F939F93EF93FF93E0919A0EF0919B0EBE
:100790008081E091A00EF091A10E82FD12C09081A7
:1007A0008091A30E8F5F8F732091A40E821751F05A
:1007B000E091A30EF0E0E657F14F958F8093A30EE2
:1007C00001C08081FF91EF919F918F912F910F90A8
:1007D0000BBE0F900FBE0F901F901895CF93DF9315
:1007E000282F30E0F901E15AFD4F8491F901EE5ACA
:1007F000FE4FD491F901E856FE4FC491CC2389F005
:100800008111A6DEEC2FF0E0EE0FFF1FEB5BFD4F3A
:10081000A591B491EC91ED2381E090E021F480E08A
:1008200002C080E090E0DF91CF9108951F93CF93B5
:10083000DF93282F30E0F901E15AFD4F8491F9014F
:10084000EE5AFE4FD491F901E856FE4FC491CC23E5
:10085000C1F0162F81117CDEEC2FF0E0EE0FFF1FB0
:10086000E55DFD4FA591B4918FB7F894111105C0C6
:100870009C91ED2FE095E92302C0EC91ED2BEC93D8
:100880008FBFDF91CF911F910895CF93DF9390E0B9
:10089000FC01EE5AFE4F2491FC01E856FE4F849174
:1008A000882361F190E0880F991FFC01E85CFE4FFE
:1008B000C591D491FC01E55DFD4FA591B491611105
:1008C00009C09FB7F8948881209582238883EC9192
:1008D0002E230BC0623061F49FB7F8943881822FC9
:1008E000809583238883EC912E2B2C939FBF06C089
:1008F0008FB7F894E8812E2B28838FBFDF91CF919B
:100900000895863308F0865390917B00282F287035
:10091000977F922B90937B008770806480937C00FC
:1009200080917A00806480937A0080917A0086FDBD
:10093000FCCF809178002091790090E0922B08956F
:100940008F929F92AF92BF92CF92DF92EF92FF92DF
:100950006B017C0153DE4B015C01C114D104E10445
:10096000F104E9F04BDEDC01CB0188199909AA09F1
:10097000BB09883E9340A105B10578F321E0C21A76
:10098000D108E108F10888EE880E83E0981EA11CCA
:10099000B11CC114D104E104F10421F7DECFFF90B2
:1009A000EF90DF90CF90BF90AF909F908F90089581
:1009B0001F920F920FB60F9211242F933F938F9394
:1009C0009F93AF93BF938091F40D9091F50DA091FB
:1009D000F60DB091F70D3091F30D23E0230F2D3775
:1009E00020F40196A11DB11D05C026E8230F029633
:1009F000A11DB11D2093F30D8093F40D9093F50D7F
:100A0000A093F60DB093F70D8091F80D9091F90D2C
:100A1000A091FA0DB091FB0D0196A11DB11D80931F
:100A2000F80D9093F90DA093FA0DB093FB0DBF91C3
:100A3000AF919F918F913F912F910F900FBE0F908B
:100A40001F901895FF920F931F93CF93DF931F92E0
:100A5000CDB7DEB78C01F62E80E591E0498300DE4C
:100A600060E0F8018781E2DE8F2D8064498150E0EB
:100A7000582B0CB405FC0CC05EBD00000DB407FE85
:100A8000FDCF8EB54EBD00000DB407FEFDCF0BC0EF
:100A90004EBD00000DB407FEFDCF8EB55EBD00005B
:100AA0000DB407FEFDCF8EB561E0F80187810F9090
:100AB000DF91CF911F910F91FF90B8CE0F931F93AD
:100AC000CF93DF938C01C62F80E591E0C9DD60E014
:100AD000F8018781ABDE8C2F8F71BBDD80E0B9DD43
:100AE00080E0B7DDC82F80E0B4DD6C2F70E0762F9A
:100AF0006627EB01C80FD11D61E0F801878196DE02
:100B00008FE090E00197F1F7BE0180E090E0DF9187
:100B1000CF911F910F9108952F923F924F925F9224
:100B20006F927F928F929F92AF92BF92CF92DF92FD
:100B3000EF92FF920F931F93CF93DF93CDB7DEB762
:100B4000C859D1090FB6F894DEBF0FBECDBFC75745
:100B5000DF4F2883C958D040C657DF4F3883CA5863
:100B6000D040C557DF4F4883CB58D040C457DF4FE4
:100B70005883CC58D040C357DF4F6883CD58D040FE
:100B8000C257DF4F7883CE58D040C157DF4F88839C
:100B9000CF58D040C057DF4F9883C059D040A12CC8
:100BA000E0E1BE2EF5EACF2EA4EDDA2EB8EEEB2E64
:100BB000F12C00E010E00E947028CF56DF4F288310
:100BC000C159D040CE56DF4F3883C259D040CD56A0
:100BD000DF4F4883C359D040CC56DF4F5883C459A8
:100BE000D040CB56DF4F6883C559D040CA56DF4F3F
:100BF0007883C659D040C956DF4F8883C759D04043
:100C0000C856DF4F9883C859D0400E941D2859010B
:100C10006A017B018C01C757DF4F2881C958D0403A
:100C2000C657DF4F3881CA58D040C557DF4F48817B
:100C3000CB58D040C457DF4F5881CC58D040C35711
:100C4000DF4F6881CD58D040C257DF4F7881CE58F2
:100C5000D040C157DF4F8881CF58D040C057DF4FB9
:100C60009881C059D0400E946C2929013A014B015A
:100C70001C01A0E00E94752934F40E94F728290184
:100C80003A014B011C0190E4A92E22E4B22E3FE070
:100C9000C32ED12CE12CF12C00E010E09201A30135
:100CA000B401C1010E947028CF57DF4F2883C1587B
:100CB000D040CE57DF4F3883C258D040CD57DF4F9A
:100CC0004883C358D040CC57DF4F5883C458D040D6
:100CD000CB57DF4F6883C558D040CA57DF4F788362
:100CE000C658D040C957DF4F8883C758D040C8572F
:100CF000DF4F9883C858D04005E00E943E29CF5767
:100D0000DF4FA880C158D040CE57DF4FB880C258BF
:100D1000D040CD57DF4FC880C358D040CC57DF4FAD
:100D2000D880C458D040CB57DF4FE880C558D0405A
:100D3000CA57DF4FF880C658D040C957DF4F0881E7
:100D4000C758D040C857DF4F1881C858D0400E94BC
:100D50006C2959016A017B01E82F192F06E00E94D6
:100D60003E290E2F0E946C2903E00E943E29CF5796
:100D7000DF4FA880C158D040CE57DF4FB880C2584F
:100D8000D040CD57DF4FC880C358D040CC57DF4F3D
:100D9000D880C458D040CB57DF4FE880C558D040EA
:100DA000CA57DF4FF880C658D040C957DF4F088177
:100DB000C758D040C857DF4F1881C858D0400E944C
:100DC000572906E00E943E2959016A017B018C01E6
:100DD0009201A301B401C1010E946C29722E632EFD
:100DE000542E452E362E272EF82EE92EC757DF4FCC
:100DF0002881C958D040C657DF4F3881CA58D040E3
:100E0000C557DF4F4881CB58D040C457DF4F58817A
:100E1000CC58D040C357DF4F6881CD58D040C2571F
:100E2000DF4F7881CE58D040C157DF4F8881CF58EF
:100E3000D040C057DF4F9881C059D040A0E00E94F9
:100E4000752924F482E69DE00E946511C856DF4FA3
:100E50008881C859D0408F93C956DF4F9881C759B0
:100E6000D0409F93CA56DF4F8881C659D0408F9398
:100E7000CB56DF4F9881C559D0409F93CC56DF4F5A
:100E80008881C459D0408F93CD56DF4F9881C35984
:100E9000D0409F93CE56DF4F8881C259D0408F9368
:100EA000CF56DF4F9881C159D0409F9384E69DE093
:100EB0009F938F938E010F5F1F4F1F930F930E947D
:100EC000A429C8010E946511C857DF4F8881C858FE
:100ED000D0408F93C957DF4F9881C758D0409F9318
:100EE000CA57DF4F8881C658D0408F93CB57DF4F0A
:100EF0009881C558D0409F93CC57DF4F8881C45804
:100F0000D0408F93CD57DF4F9881C358D0409F93E7
:100F1000CE57DF4F8881C258D0408F93CF57DF4FD5
:100F20009881C158D0409F9389E6882E8DE0982EF5
:100F30009F928F921F930F930E94A429C8010E9431
:100F40006511EF92FF922F923F924F925F926F92B4
:100F50007F929F928F921F930F930E94A4290FB6A6
:100F6000F894DEBF0FBECDBFC8010E946511C85600
:100F7000DF4F0FB6F894DEBF0FBECDBFDF91CF912C
:100F80001F910F91FF90EF90DF90CF90BF90AF90A7
:100F90009F908F907F906F905F904F903F902F9099
:100FA0000895EF92FF920F931F93CF93DF937C01ED
:100FB0008B01C0E0D0E0F80161918F01CE018E0D70
:100FC0009F1D0E94CD2C2196C430D105A1F784E04D
:100FD00090E0DF91CF911F910F91FF90EF900895D6
:100FE000EF92FF920F931F93CF93DF938B010C5FD0
:100FF0001F4FEB017C01E61AF70AC7018C0F9D1FFA
:101000000E94C52C8993C017D107B9F784E090E0FE
:10101000DF91CF911F910F91FF90EF900895EF9284
:10102000FF920F931F93CF93DF937C018B01C0E05E
:10103000D0E0F80161918F01CE018E0D9F1D0E94BD
:10104000CD2C2196CD36D105A1F78DE690E0DF912C
:10105000CF911F910F91FF90EF9008952F923F92A3
:101060004F925F926F927F928F929F92AF92BF92B8
:10107000CF92DF92EF92FF920F931F93CF93DF9364
:10108000CDB7DEB7C958D1090FB6F894DEBF0FBE91
:10109000CDBF19012A01CF57DF4F6883C158D04017
:1010A000CE57DF4F7883C258D040CD57DF4F88836B
:1010B000C358D040CC57DF4F9883C458D04020E469
:1010C000A22E32E4B32E4FE0C42ED12CE12CF12C11
:1010D00000E010E09101A2010E947028B22FE32FDE
:1010E000F42FA52F3B014C0105E00E943E29AB2EB9
:1010F000BE2ECF2EDA2E730184010E946C29590175
:101100006A017B01CB57DF4F8883C558D040192F28
:1011100006E00E943E29CB57DF4F0881C558D040DA
:101120000E946C2903E00E943E29AB2EBE2ECF2EDA
:10113000DA2E730184010E94572906E00E943E299D
:1011400059016A017B018C019101A201CF57DF4F48
:101150006881C158D040CE57DF4F7881C258D04007
:10116000CD57DF4F8881C358D040CC57DF4F98818F
:10117000C458D0400E946C29AF93FF93EF93BF9364
:1011800084E69DE09F938F938E010F5F1F4F1F9307
:101190000F93CA57DF4F2883C658D040C957DF4F37
:1011A0003883C758D040C857DF4F4883C858D0400D
:1011B000C757DF4F5883C958D0400E94A429C8019F
:1011C0000E946511C757DF4F5881C958D0405F93BF
:1011D000C857DF4F4881C858D0404F93C957DF4F99
:1011E0003881C758D0403F93CA57DF4F2881C6582F
:1011F000D0402F9389E69DE09F938F931F930F9389
:101200000E94A429C8010E9465110FB6F894DEBFA0
:101210000FBECDBFC757DF4F0FB6F894DEBF0FBE6E
:10122000CDBFDF91CF911F910F91FF90EF90DF9095
:10123000CF90BF90AF909F908F907F906F905F9076
:101240004F903F902F900895CF938AE89EE0ABD8BF
:10125000892BD9F38AE89EE084D8C82F9BD48C2FA1
:10126000CF910895CF931092870E1092860ECDE005
:10127000EBDF2091860E3091870E2E37310524F456
:101280008A3011F08D3091F4C90101969093870E48
:101290008093860EF901EA5FF14FC083FC01EA5F9B
:1012A000F14F1082029724F3CF910895883089F48A
:1012B00080E270D488E06ED48091860E9091870E83
:1012C00018161906ACF601979093870E8093860E38
:1012D000CFCFA9014F5F5F4F5093870E4093860E8B
:1012E000F901EA5FF14F8083C3CF1F920F920FB6CF
:1012F0000F9211240BB60F922F933F934F935F934E
:101300006F937F938F939F93AF93BF93CF93EF93FD
:10131000FF9320910601C091F10D9091F00D809105
:10132000EF0D322F309583239223892B90916D00FE
:10133000C227C923C8232093F10DCC23C1F1C0FFDC
:1013400005C0E091DF0DF091E00D1995C1FF05C0DA
:10135000E091E10DF091E20D1995C2FF05C0E09119
:10136000E30DF091E40D1995C3FF05C0E091E50D83
:10137000F091E60D1995C4FF05C0E091E70DF091DD
:10138000E80D1995C5FF05C0E091E90DF091EA0D52
:101390001995C6FF05C0E091EB0DF091EC0D199584
:1013A000C7FF05C0E091ED0DF091EE0D1995FF918D
:1013B000EF91CF91BF91AF919F918F917F916F915D
:1013C0005F914F913F912F910F900BBE0F900FBEE9
:1013D0000F901F9018951F920F920FB60F92112425
:1013E0000BB60F922F933F934F935F936F937F931F
:1013F0008F939F93AF93BF93CF93EF93FF932091DE
:101400000301C091DE0D9091DD0D8091DC0D322F36
:10141000309583239223892B9091DB0DC227C9231A
:10142000C8232093DE0DCC2389F1C0FF05C0E091D5
:10143000CD0DF091CE0D1995C1FF05C0E091CF0DF6
:10144000F091D00D1995C2FF05C0E091D10DF0913A
:10145000D20D1995C3FF05C0E091D30DF091D40DC5
:101460001995C4FF05C0E091D50DF091D60D1995E1
:10147000C5FF05C0E091D70DF091D80D1995C6FFB5
:1014800005C0E091D90DF091DA0D1995FF91EF911A
:10149000CF91BF91AF919F918F917F916F915F910C
:1014A0004F913F912F910F900BBE0F900FBE0F9059
:1014B0001F9018951F920F920FB60F9211240BB622
:1014C0000F922F933F934F935F936F937F938F93DD
:1014D0009F93AF93BF93CF93EF93FF9323B1C091AB
:1014E000CC0D9091CB0D8091CA0D322F3095832376
:1014F0009223892B90916B00C227C923C823209384
:10150000CC0DCC23C1F1C0FF05C0E091BA0DF09124
:10151000BB0D1995C1FF05C0E091BC0DF091BD0D4B
:101520001995C2FF05C0E091BE0DF091BF0D199550
:10153000C3FF05C0E091C00DF091C10D1995C4FF26
:1015400005C0E091C20DF091C30D1995C5FF05C00E
:10155000E091C40DF091C50D1995C6FF05C0E0914D
:10156000C60DF091C70D1995C7FF05C0E091C80DD4
:10157000F091C90D1995FF91EF91CF91BF91AF9166
:101580009F918F917F916F915F914F913F912F919B
:101590000F900BBE0F900FBE0F901F9018951F92CB
:1015A0000F920FB60F9211240BB60F922F933F9309
:1015B0004F935F936F937F938F939F93AF93BF935B
:1015C000EF93FF93E091B80DF091B90D1995FF914C
:1015D000EF91BF91AF919F918F917F916F915F91AB
:1015E0004F913F912F910F900BBE0F900FBE0F9018
:1015F0001F9018951F920F920FB60F9211240BB6E1
:101600000F922F933F934F935F936F937F938F939B
:101610009F93AF93BF93EF93FF93E091B60DF0913B
:10162000B70D1995FF91EF91BF91AF919F918F9158
:101630007F916F915F914F913F912F910F900BBED2
:101640000F900FBE0F901F9018951F920F920FB61C
:101650000F9211240BB60F922F933F934F935F93EA
:101660006F937F938F939F93AF93BF93EF93FF936A
:10167000E091B40DF091B50D1995FF91EF91BF91E7
:10168000AF919F918F917F916F915F914F913F911A
:101690002F910F900BBE0F900FBE0F901F901895BB
:1016A0001F920F920FB60F9211240BB60F922F9329
:1016B0003F934F935F936F937F938F939F93AF93DA
:1016C000BF93EF93FF93E091B20DF091B30D199595
:1016D000FF91EF91BF91AF919F918F917F916F910A
:1016E0005F914F913F912F910F900BBE0F900FBEC6
:1016F0000F901F9018951F920F920FB60F92112402
:101700000BB60F922F933F934F935F936F937F93FB
:101710008F939F93AF93BF93EF93FF93E091B00D9F
:10172000F091B10D1995FF91EF91BF91AF919F91FC
:101730008F917F916F915F914F913F912F910F907A
:101740000BBE0F900FBE0F901F9018951F920F9217
:101750000FB60F9211240BB60F922F933F934F9316
:101760005F936F937F938F939F93AF93BF93EF9309
:10177000FF93E091AE0DF091AF0D1995FF91EF91B0
:10178000BF91AF919F918F917F916F915F914F9199
:101790003F912F910F900BBE0F900FBE0F901F9097
:1017A00018951F920F920FB60F9211240BB60F923D
:1017B0002F933F934F935F936F937F938F939F9359
:1017C000AF93BF93EF93FF93E091AC0DF091AD0D0C
:1017D0001995FF91EF91BF91AF919F918F917F915B
:1017E0006F915F914F913F912F910F900BBE0F9092
:1017F0000FBE0F901F9018951F920F920FB60F9269
:1018000011240BB60F922F933F934F935F936F93D7
:101810007F938F939F93AF93BF93EF93FF93E09149
:10182000AA0DF091AB0D1995FF91EF91BF91AF917A
:101830009F918F917F916F915F914F913F912F91E8
:101840000F900BBE0F900FBE0F901F901895542F46
:101850008F779EEF980F923008F4B6C095EB980FF3
:10186000923008F4B1C09EEE980F943008F4ACC0EA
:10187000282F30E0F901863438F0E45BFE4F849184
:10188000433009F063C115C0EE5AFE4F8491F9014F
:10189000E856FE4F9491433011F04130B9F4923044
:1018A00031F44091CB0D482B4093CB0D0FC09A30B3
:1018B00031F49091DD0D982B9093DD0D4AC19B3052
:1018C00029F44091F00D482B4093F00D4FEF450F58
:1018D0004230B8F4923031F44091CA0D482B409315
:1018E000CA0D0FC09A3031F44091DC0D482B409363
:1018F000DC0D07C09B3029F44091EF0D482B40933D
:10190000EF0DF901E252FE4FA4919230C1F4B0E024
:10191000AA0FBB1FA654B24F6D937C93E9E4F2E08B
:10192000A591B4919C919093CC0D2BE630E030932F
:10193000A90D2093A80D9091680091603BC09A304A
:1019400001F5B0E0AA0FBB1FA353B24F6D937C9378
:10195000E9E5F2E0A591B4919C919093DE0D2CE61F
:1019600030E03093A90D2093A80D9091680092600B
:10197000909368009091DB0D982B9093DB0D880F6E
:101980001BC09B30C9F4B0E0AA0FBB1FA152B24FDD
:101990006D937C93EBE5F2E0A591B4919C919093CB
:1019A000F10D2DE630E03093A90D2093A80D909114
:1019B0006800946090936800A091A80DB091A90D63
:1019C000EC918E2B8C9308959FB7F894833109F492
:1019D00064C0E0F4833009F48CC0823109F473C030
:1019E000823009F0B1C07093B30D6093B20DEC98E2
:1019F00080916A008C7F80936A0080916A00452FF5
:101A0000482B40936A00E49AEC9A9EC08531E9F035
:101A100070F18B3409F483C08C3409F095C0709355
:101A2000B90D6093B80DEF9880916A008F73809321
:101A30006A0080916A0020E4529FA0011124482B83
:101A400040936A00E79AEF9A7FC07093AB0D609362
:101A5000AA0DE898809169008C7F8093690040917D
:101A60006900452B40936900E09AE89A6DC0709335
:101A7000AD0D6093AC0DE99880916900837F8093F0
:101A800069008091690024E0529FA0011124482B35
:101A900040936900E19AE99A57C07093AF0D609343
:101AA000AE0DEA98809169008F7C809369008091E7
:101AB000690020E1529FA0011124482B4093690046
:101AC000E29AEA9A41C07093B10D6093B00DEB9821
:101AD000809169008F73809369008091690020E490
:101AE000529FA0011124482B40936900E39AEB9A7E
:101AF0002BC07093B50D6093B40DED9880916A0082
:101B0000837F80936A0080916A0024E0529FA00145
:101B10001124482B40936A00E59AED9A15C0709302
:101B2000B70D6093B60DEE9880916A008F7C80931C
:101B30006A0080916A0020E1529FA0011124482B85
:101B400040936A00E69AEE9A9FBF0895413009F4E7
:101B5000B0CE9AE0BBCE009769F0FC010190002066
:101B6000E9F73197AF01481B590BBC018AE89EE0A9
:101B70000C94860180E090E008958FE69DE0EBCF25
:101B8000CF93DF93E8DFEC01F8DF8C0F9D1FDF912F
:101B9000CF910895E0918A0EF0918B0E0190F08123
:101BA000E02D682F8AE89EE019948091880E90912C
:101BB000890E2091860E3091870E82179307ACF420
:101BC000FC01EA5FF14F8081E5DF8091880E909102
:101BD000890E9C012F5F3F4F3093890E2093880E12
:101BE000FC01EA5FF14F808108952ECB2F923F9246
:101BF0004F925F926F927F928F929F92AF92BF921D
:101C0000CF92DF92EF92FF920F931F93CF93DF93C8
:101C1000CDB7DEB72E970FB6F894DEBF0FBECDBF9F
:101C20009A838983109282101092831010928410EC
:101C300010928510109286101092871010928810C2
:101C40001092891010927A1010927B1010927C10D2
:101C500010927D1010927E1010927F1010928010C2
:101C6000109281101092FE0D1092FF0D1092000E36
:101C70001092010E1092020E1092030E1092040E9A
:101C80001092050E81E080930002109201021092E2
:101C900002021092030210920402109205021092A6
:101CA0000602109207021092FD0D1092FC0D7DDFCE
:101CB000182F082E000C990B0E948529892BB9F743
:101CC0001B3219F472DF182F09C01D3239F46DDF91
:101CD000182F81E090E09C878B8702C01C861B86B2
:101CE000EE24E394F12C103339F45FDF182FF092D7
:101CF000FD0DE092FC0DF7CF812F012E000C990B0A
:101D0000C0970A9708F057C022242394312CE12F62
:101D1000012E000CFF0BF097EA30F10508F048C0E7
:101D20003092FD0D2092FC0D209182103091831095
:101D300040918410509185106091861070918710A9
:101D4000809188109091891001E00E943E2929011C
:101D50003A014B01B82FA92F02E00E943E295901F8
:101D60006A017B018C019201A301B4018B2F9A2F90
:101D70000E9457291F2F110F110B5F01C12ED12E69
:101D8000E12EF12E012F0E945729209382103093CB
:101D90008310409384105093851060938610709345
:101DA00087108093881090938910FFDE182FAFCF93
:101DB0001E861D8610C01E3299F4F7DE182F1E866F
:101DC0001D86103341F4AD85BE851197BE87AD8762
:101DD000ECDE182FF6CF1E3229F4E7DE182F02C0F2
:101DE0001E861D8688248394912CE12F012E000CE1
:101DF000FF0BF097EA30F10508F04DC09092FD0D11
:101E00008092FC0D209182103091831040918410BB
:101E10005091851060918610709187108091881084
:101E20009091891001E00E943E2919012A013B018D
:101E3000B82FA92F02E00E943E2959016A017B01B7
:101E40008C019101A201B3018B2F9A2F0E94572977
:101E50001F2F110F110B5F01C12ED12EE12EF12E7C
:101E6000012F0E94572920938210309383104093B2
:101E70008410509385106093861070938710809320
:101E8000881090938910ED85FE853197FE87ED8748
:101E90008CDE182FAACF1F7D153489F586DE8B3294
:101EA00011F483DE06C08D3221F47FDE01E010E004
:101EB00002C000E010E0803311F477DEFCCFE12CAB
:101EC000F12C9AE0D92E082E000C990BC0978A307D
:101ED000910550F4DE9C9001DF9C300D11247901B6
:101EE000E80EF91E62DEEFCF012B19F0F194E194B8
:101EF000F1088D859E858E0D9F1D9E878D87809113
:101F0000FC0D9091FD0D892B09F455C18090821034
:101F100090908310909184109B83A0918510AC8346
:101F2000B0918610BD83E0918710EE836090881099
:101F30007090891080927A1090927B1090937C1010
:101F4000A0937D10B0937E10E0937F10609280107C
:101F5000709281108D859E8597FF8CC03090000215
:101F600020900102909102029F83A0910302A88712
:101F7000B0910402B987E0910502EA875090060209
:101F800040900702232D322D4F81588569857A852F
:101F9000852D942D01E00E943E2919012A01B62FBA
:101FA000A72FF82FE92F02E00E943E2959016A016C
:101FB0007B018C019101A2016B2F7A2F8F2F9E2F15
:101FC0000E945729322E232E4F83588769877A879C
:101FD000582E492E8D859E8501969E878D87892B4B
:101FE00089F630920002209201024093020250933F
:101FF000030260930402709305025092060240921D
:102000000702A32CB22CC42ED52EE62EF72E052DBA
:10201000142D94014B815C816D817E81C3010E94EE
:102020006E282093FE0D3093FF0D4093000E5093C9
:10203000010E6093020E7093030E8093040E909332
:10204000050E94014B815C816D817E81C3010E94EC
:10205000702820937A1030937B1040937C1050931B
:102060007D1060937E1070937F108093801090930A
:1020700081103EC08D859E85892BD1F1E0E0F0E096
:1020800094014B815C816D817E81C30101E00E94DE
:102090003E2929013A014B01B82FA92F02E00E94E5
:1020A0003E2959016A017B018C019201A301B4010F
:1020B0008B2F9A2F0E94572949014B835C836D8394
:1020C0007E833C013196AD85BE85EA17FB07C1F6DC
:1020D00020937A1090927B1040937C1050937D1047
:1020E00060937E1070937F106092801070928110C8
:1020F000AB85BC85AB2B09F444C020917A1030919C
:102100007B1040917C1050917D1060917E107091F9
:102110007F1080918010909181100E94F728209369
:102120007A1030937B1040937C1050937D10609315
:102130007E1070937F108093801090938110209177
:10214000FE0D3091FF0D4091000E5091010E6091F7
:10215000020E7091030E8091040E9091050E0E9464
:10216000F7282093FE0D3093FF0D4093000E5093FF
:10217000010E6093020E7093030E8093040E9093F1
:10218000050E80917A10E981FA81808380917B101D
:10219000818380917C10828380917D1083838091E4
:1021A0007E10848380917F10858380918010868348
:1021B0008091811087832E960FB6F894DEBF0FBEF4
:1021C000CDBFDF91CF911F910F91FF90EF90DF90E6
:1021D000CF90BF90AF909F908F907F906F905F90C7
:1021E0004F903F902F9008958F929F92AF92BF9201
:1021F0000F931F93CF93DF93CDB7DEB7A1970FB6A1
:10220000F894DEBF0FBECDBF19A2423008F44AE0F9
:102210008E010F5D1F4F842E912CA12CB12CA50196
:1022200094010E94072DE62FB901CA01015011093E
:10223000EA3014F4E05D01C0E95CD801EC93232B93
:10224000242B252B61F7C80186DCA1960FB6F894E4
:10225000DEBF0FBECDBFDF91CF911F910F91BF9019
:10226000AF909F908F900895CF92DF92EF92FF9260
:10227000CF93DF9397FF17C06B017C018DE28ADC5F
:10228000EC0166277727CB016C197D098E099F0920
:102290004AE0AADF8C0F9D1FDF91CF91FF90EF9056
:1022A000DF90CF9008954AE0DF91CF91FF90EF90BB
:1022B000DF90CF9099CFCF93DF93D6DFEC015DDC39
:1022C0008C0F9D1FDF91CF91089545CCCF93DF9365
:1022D00061DCEC0152DC8C0F9D1FDF91CF910895E2
:1022E000CF93DF93CDB7DEB7CE51D1400FB6F89480
:1022F000DEBF0FBECDBF789484B5826084BD84B547
:10230000816084BD85B5826085BD85B5816085BDF0
:1023100080916E00816080936E00109281008091A8
:102320008100826080938100809181008160809330
:102330008100809180008160809380008091B10055
:1023400084608093B1008091B00081608093B00080
:1023500080919100826080939100809191008160D2
:102360008093910080919000816080939000809193
:10237000A10082608093A1008091A1008160809380
:10238000A1008091A00081608093A0008091210134
:1023900082608093210180912101816080932101DD
:1023A0008091200181608093200180917A00846077
:1023B00080937A0080917A00826080937A00809185
:1023C0007A00816080937A0080917A00806880939F
:1023D0007A001092C10060E082E10E94450461E051
:1023E0008CE00E94450461E08DE00E94450461E0BC
:1023F00084E40E94160461E082E40E94160461E015
:1024000085E40E94160461E083E40E941604E091D2
:102410009A0EF0919B0E82E08083E091960EF091EF
:10242000970E1082E091980EF091990E80E18083D2
:102430001092A20EE0919E0EF0919F0E86E0808396
:10244000E0919C0EF0919D0E808180618083E091EF
:102450009C0EF0919D0E808188608083E0919C0E9F
:10246000F0919D0E808180688083E0919C0EF091B8
:102470009D0E80818F7D80831FB7F89480917A0DA7
:10248000811127C0EDECF1E08491E7E8F1E094914F
:10249000E82FF0E0EE0FFF1FE85CFE4FA591B4912E
:1024A000EC91E92321F461E085E30E94160461E0E8
:1024B00085E30E9445048CB580618CBD8CB5806439
:1024C0008CBD61E084E30E94450461E083E30E94E7
:1024D000450480917A0D8F5F80937A0D1FBFBE01F6
:1024E00062597F4F80EF9FE00E94F0078E010F5FDF
:1024F0001F4FB80184EF9FE00E94F007E2968CAD79
:102500009DADAEADBFADE2978F3F2FEF9207A20713
:10251000B20759F489819A81AB81BC818F3F9F4F6B
:10252000AF4FBF4F09F087C00EC0892B8A2B8B2B72
:1025300009F081C089819A81AB81BC81892B8A2B6A
:102540008B2B09F078C082E392E01ADB86E30E94CD
:102550008104BC01990F880B990B611571058105E8
:10256000910511F00E94BC2C0E94B92C2FEF3FEF77
:1025700040E050E00E94DB2CE2966CAF7DAF8EAF66
:102580009FAFE29789E30E948104BC01990F880BF9
:10259000990B611571058105910511F00E94BC2C04
:1025A0000E94B92C2FEF3FEF40E050E00E94DB2C5F
:1025B00069837A838B839C83BE0162597F4F80EF4E
:1025C0009FE00E94D107B80184EF9FE00E94D107ED
:1025D0008C818F938B818F938A818F9389818F9345
:1025E000E2968FADE2978F93E1968FADE1978F934F
:1025F000E0968FADE0978F93AF968FADAF978F93A7
:1026000087E592E09F938F938BE79DE09F938F9355
:102610000E94A42980EB93E058DE8BE79DE0B0DABE
:102620006CE47DE180E090E00E94A0040FB6F89495
:10263000DEBF0FBECDBF8C818F938B818F938A813C
:102640008F9389818F93E2968FADE2978F93E19676
:102650008FADE1978F93E0968FADE0978F93AF9614
:102660008FADAF978F9387E592E09F938F938BE722
:102670009DE09F938F930E94A42980E090E00E94A8
:10268000C52C0FB6F894DEBF0FBECDBF883009F45D
:10269000CFC082E692E074DA88E0898341E150E0BD
:1026A0006CE072E0CE0102960E94952984E48B8B47
:1026B00041E150E06BE77DE0CE0144960E94952910
:1026C0001DA21EA280E88FA386E988A788E989A7B2
:1026D0001AA61BA61CA61DA61EA61FA681EE88ABC9
:1026E00085EF89AB85E08AAB1BAA1CAA1DAA1EAA8E
:1026F00084E190E098AF8FAB85E090E09AAF89AF2E
:102700008DE48BAF82E58CAF8DAF94EC9EAF89E00A
:102710008FAF21961FAE219722961FAE2297239648
:102720001FAE239724961FAE249725961FAE25979C
:1027300026961FAE269727969FAF279728968FAF8E
:10274000289729961FAE29972A961FAE2A972B966F
:102750001FAE2B972C961FAE2C972D961FAE2D9744
:102760002E961FAE2E972F961FAE2F9760961FAEF8
:10277000609761961FAE619762961FAE62976396EF
:102780001FAE639764961FAE649765961FAE6597FC
:1027900066961FAE669767961FAE679768961FAEE0
:1027A000689769961FAE69976A961FAE6A976B968F
:1027B0001FAE6B976C961FAE6C976D961FAE6D97A4
:1027C0006E961FAE6E976F961FAE6F97A0961FAE58
:1027D000A097A1961FAEA197A2961FAEA297A3960F
:1027E0001FAEA397A4961FAEA497A5961FAEA5975C
:1027F000A6961FAEA697A7961FAEA797A8961FAE40
:10280000A897A9961FAEA997AA961FAEAA97AB96AE
:102810001FAEAB97AC961FAEAC97AD961FAEAD9703
:10282000AE961FAEAE97B80180E090E00E940F0810
:10283000BDE0CB2EB0E1DB2EE12CF12CC7010E94D4
:10284000C52CD6018D936D01BFEFEB1AFB0AEDE6A7
:10285000EE16F10499F7809131108093950D8DD982
:1028600087E892E08DD988EA92E08AD986D988ED06
:1028700092E086D98EEE92E083D98DE6EDE0F0E12C
:10288000DE01A259BF4F01900D928A95E1F785E0D4
:1028900093E01BDDCE56DF4F9881C259D040923075
:1028A00081F038F4992351F09130A1F48BE293E058
:1028B00010C0933049F0943051F00CC08AE193E09D
:1028C00008C084E293E005C08EE393E059D980E527
:1028D00093E056D986E593E0F8DCCD56DF4F88814A
:1028E000C359D040882311F0F1DC03C089E693E09E
:1028F00047D98EE693E0E9DC80E090E00E94C52CA9
:10290000682F70E080E090E04AE06EDC81E893E0C0
:10291000DCDCC058DF4F8881C058D040D7DC83E969
:1029200093E0D3DC8CE092E02BD988EA93E0CDDC15
:102930008EE690E08C0F9D1F439622D980EC93E0A9
:10294000C4DCCC56DF4F2881C459D040CB56DF4F72
:102950003881C559D040CA56DF4F4881C659D0404A
:10296000C956DF4F5881C759D040C856DF4F6881DC
:10297000C859D040C756DF4F7881C959D040C65694
:10298000DF4F8881CA59D040C556DF4F9881CB5957
:10299000D0400E942E0880ED93E0F2D885ED93E0C0
:1029A00094DCC456DF4F2881CC59D040C356DF4F4A
:1029B0003881CD59D040C256DF4F4881CE59D040E2
:1029C000C156DF4F5881CF59D040C056DF4F688184
:1029D000C05AD040CF55DF4F7881C15AD040CE5534
:1029E000DF4F8881C25AD040CD55DF4F9881C35AFE
:1029F000D0400E942E0885EE93E0C2D88BEE93E083
:102A000064DCCC55DF4F68817981C45AD040072EF1
:102A1000000C880B990B28DCB0D88BEF93E055DCC9
:102A2000C855DF4F8881C85AD04050DC88E094E018
:102A30004CDCC955DF4F8881C75AD0408F93CA55A7
:102A4000DF4F8881C65AD0408F9384E194E09F93F2
:102A50008F931F930F930E94A429C80191D88BE1F3
:102A600094E033DCEEE6F0E0EC0FFD1FFD966081B4
:102A7000718182819381F8DB8DE294E026DCCD5474
:102A8000DF4F688179818A819B81C35BD040ECDB19
:102A900086E394E075D88DE394E017DCC554DF4FEE
:102AA000688179818A819B81CB5BD040DDDB8DE2BF
:102AB00094E00BDCCD53DF4F688179818A819B8163
:102AC000C35CD040D1DB86E394E05AD88DE494E037
:102AD000FCDBC553DF4F688179818A819B81CB5CA8
:102AE000D040C2DB8DE294E0F0DBCD52DF4F688155
:102AF00079818A819B81C35DD040B6DB86E394E017
:102B00003FD888ED92E03CD888E594E039D88DE74D
:102B100094E0DBDB0F900F900F900F900F900F90D1
:102B200007E010E06AEF70E080E090E00E94A0040F
:102B30008EE230D88AE89EE00E94D301892B11F002
:102B400011E02FC06AEF70E080E090E00E94A004E6
:102B50008EE220D88AE89EE00E94D301892B81F77B
:102B60006AEF70E080E090E00E94A0048EE212D84C
:102B70008AE89EE00E94D301892B11F76AEF70E08A
:102B800080E090E00E94A0048EE204D88AE89EE0F3
:102B90000E94D301892BA1F60150110909F0C2CF7F
:102BA00010E08AE89EE00E94D301892B29F08AE890
:102BB0009EE00E94B101F5CF112309F43EC78E01BA
:102BC00005511F4FCD50DF4F19830883C35FD0409D
:102BD0001E011BED210E311C0E94BD0D0E94BD0D7A
:102BE00080E894E072DBE0913110E53028F4F0E009
:102BF000E35EFD4F808101C08FE30E94CA0D8DE925
:102C000094E00E94C00D86EB94E05FDB809132106F
:102C1000882329F00E94CA0D83ED94E005C085E366
:102C200098E053DB87ED94E00E94C00D80EF94E0C4
:102C30004CDB20913310309134104091351050917D
:102C40003610609137107091381080913910909142
:102C50003A100E942E088DE095E00E94C00D8FE191
:102C600095E033DB20913B1030913C1040913D10BA
:102C700050913E1060913F10709140108091411032
:102C8000909142100E942E088CE395E00E94C00DA6
:102C90008EE495E01ADB6091431070914410072E8A
:102CA000000C880B990BE0DA8BE695E00E94C00DD2
:102CB00084E895E00ADB8091451090914610092E3A
:102CC000000CAA0BBB0BBF93AF939F938F93A1EA0A
:102CD000B5E0BF93AF93CC50DF4FF881C45FD040D5
:102CE000FF93CD50DF4F0881C35FD0400F930E9408
:102CF000A429CE0185519F4FE8DA88EA95E00E9429
:102D0000C00D81EC95E0E1DA809147100E94CA0D78
:102D10008EED95E00E94C00D87EF95E0D6DA8091A8
:102D200048100E94CA0D80E20E94CA0D809149108D
:102D30000E94CA0D84E196E00E94C00D8BE296E0ED
:102D4000C4DA60914A1070914B1080914C109091B0
:102D50004D108ADA80E20E94CA0D60915210709183
:102D6000531080915410909155107EDA88E496E0CB
:102D70000E94C00D8CE596E0A8DA60915A1070911F
:102D80005B1080915C1090915D106EDA80E20E9481
:102D9000CA0D6091621070916310809164109091DF
:102DA000651062DA89E796E00E94C00D80E996E03E
:102DB0008CDA60916A1070916B1080916C10909118
:102DC0006D1052DA80E20E94CA0D6091721070910B
:102DD0007310809174109091751046DA89E796E02F
:102DE0000E94C00D0E94BD0D8DEA96E00E94C00DAC
:102DF0008DEC96E00E94C00D8EEE96E00E94C00D14
:102E000081E197E00E94C00D0E942409082E000C69
:102E1000990B0E948D290FB6F894DEBF0FBECDBF6F
:102E2000082E000C990BAA0BBB0BFC01E354F10913
:102E3000E831F10508F0FCC58827EE58FF4F8F4FA9
:102E40000C9415288EE197E00E94C00D0E94BD0DE4
:102E50008DE497E00E94C00D85E697E00E94C00DCA
:102E60008AE797E00E94C00D8BE997E00E94C00DB1
:102E70008AEB97E00E94C00D0E94BD0D8EEC97E09A
:102E800024DA0E942409082E000C990B0E948D2937
:102E90008C349105A1F044F484349105A1F0893477
:102EA000910599F481E00CC08035910531F08435AD
:102EB000910559F4109231108FCE82E001C083E069
:102EC0008093311089CE84E0FBCF8BED97E00E9498
:102ED000C00DD7CF87EF97E0F8D9809132108823C3
:102EE00019F00E94CA0D03C085E398E0EED987E08F
:102EF00098E00E94C00D0E942409082E000C990B36
:102F00000E948D29803209F480E08093321064CED3
:102F10008BE398E0DAD9209133103091341040914E
:102F200035105091361060913710709138108091A3
:102F3000391090913A100E942E0888E498E00E947F
:102F4000C00D8CE698E00E94C00D0E9432091092DC
:102F5000890E1092880EC1010E94F60DD1015C907D
:102F600011966C90119712967C90129713968C90F4
:102F7000139714969C9014971596BC91F101468076
:102F8000F781CB50DF4FF883C55FD040252D362D1C
:102F9000472D582D692D7B2F842D9F2FAFEF0E9439
:102FA0006029AFE00E94752911F008F015CE252D9B
:102FB000362D472D582D692D7B2F842D9F2F05E011
:102FC0000E943E29A52CB62CC72CD82CE92CFB2E10
:102FD000042D1F2F0E946C2959016A017B01A82F23
:102FE000192F06E00E943E290A2F0E946C2903E057
:102FF0000E943E29A52CB62CC72CD82CE92CFB2EE0
:10300000042D1F2F0E94572906E00E943E29422EC0
:10301000CF5FDE4F3883C150D140CB5FDE4F488356
:10302000C550D140C85FDE4F5883C850D140CB5007
:10303000DF4F6883C55FD040C350DF4F7883CD5FDB
:10304000D040CD5FDE4F8883C350D140CC5FDE4F90
:103050009883C450D1409090FE0DB091FF0DA09187
:10306000000EF091010EE091020E7090030E609040
:10307000040E5090050E292D3B2F4A2F5F2F6E2FE7
:10308000772D862D952D05E00E943E29A92CBB2E7B
:10309000CA2EDF2EEE2EF72C062D152D0E946C2940
:1030A00059016A017B01882E192F06E00E943E29F2
:1030B000082D0E946C2903E00E943E29A92CBB2EFA
:1030C000CA2EDF2EEE2EF72C062D152D0E94572925
:1030D00006E00E943E29A0900002B0900102C0903C
:1030E0000202D0900302E0900402F09005020091E9
:1030F0000602109107020E94702859016A017B01A3
:103100008C01242DCF5FDE4F3881C150D140CB5F81
:10311000DE4F4881C550D140C85FDE4F5881C8504E
:10312000D140CB50DF4F6881C55FD040C350DF4FE7
:103130007881CD5FD040CD5FDE4F8881C350D140D4
:10314000CC5FDE4F9881C450D1400E945729209314
:1031500033103093341040933510509336106093F1
:103160003710709338108093391090933A1034CD03
:1031700083EB98E0AAD820913B1030913C1040910D
:103180003D1050913E1060913F1070914010809121
:103190004110909142100E942E0886EC98E00E9407
:1031A000C00D8BED98E00E94C00D0E943209109274
:1031B000890E1092880EC1010E94F60DD1015C901B
:1031C00011966C90119712967C90129713968C9092
:1031D000139714969C9014971596BC91F101468014
:1031E000F781CB50DF4FF883C55FD040252D362DBA
:1031F000472D582D692D7B2F842D9F2FA0E00E94F5
:10320000752909F00CF4E8CC05E00E943E29A52CB4
:10321000B62CC72CD82CE92CFB2E042D1F2F0E9476
:103220006C2959016A017B01A82F192F06E00E9421
:103230003E290A2F0E946C2903E00E943E29A52CFA
:10324000B62CC72CD82CE92CFB2E042D1F2F0E9446
:10325000572906E00E943E29422ECF5FDE4F388379
:10326000C150D140CB5FDE4F4883C550D140C85FCD
:10327000DE4F5883C850D140CB50DF4F6883C55FC5
:10328000D040C350DF4F7883CD5FD040CD5FDE4F5D
:103290008883C350D140CC5FDE4F9883C450D14067
:1032A0009090FE0DB091FF0DA091000EF091010ED7
:1032B000E091020E7090030E6090040E5090050E87
:1032C000292D3B2F4A2F5F2F6E2F772D862D952D81
:1032D00005E00E943E29A92CBB2ECA2EDF2EEE2E21
:1032E000F72C062D152D0E946C2959016A017B01CE
:1032F000882E192F06E00E943E29082D0E946C2975
:1033000003E00E943E29A92CBB2ECA2EDF2EEE2EF2
:10331000F72C062D152D0E94572906E00E943E2904
:10332000A0900002B0900102C0900202D09003026F
:10333000E0900402F090050200910602109107024D
:103340000E94702859016A017B018C01242DCF5FF6
:10335000DE4F3881C150D140CB5FDE4F4881C55030
:10336000D140C85FDE4F5881C850D140CB50DF4FAD
:103370006881C55FD040C350DF4F7881CD5FD040BA
:10338000CD5FDE4F8881C350D140CC5FDE4F988146
:10339000C450D1400E94572920933B1030933C10D9
:1033A00040933D1050933E1060933F107093401037
:1033B00080934110909342100FCC81E299E00E94DB
:1033C00065116091431070914410072E000C880B1A
:1033D000990B0E94341186E399E00E94C00D83E6A8
:1033E00099E00E94C00D0E9432091092890E10923D
:1033F000880EC1010E94F60D8091FC0D9091FD0D8B
:10340000892B09F4E9CBD101FC911196EC9111972C
:103410001296DC9012971396EC9013971496FC90EA
:10342000149715960C91159716961C91169717964A
:10343000CC902F2F277F3E2F4D2D5E2D6F2D702F7F
:10344000812F9C2DA2E00E94752951F02F2FA4E11D
:103450000E94752929F0A8E20E94752909F0BCCBC9
:10346000CF0190934310E0934410B6CB8091451068
:1034700090914610092E000CAA0BBB0BBF93AF9383
:103480009F938F93A1EAB5E0BF93AF933F922F92A2
:103490000E94A42981EA99E00E946511C1010E945D
:1034A00065118AEA99E00E94C00D83E699E00E94C6
:1034B000C00D0E9432091092890E1092880ECE0122
:1034C0008D519F4F0E94F60D0FB6F894DEBF0FBED0
:1034D000CDBF8091FC0D9091FD0D892B09F47CCB23
:1034E000CD51DF4FF881C35ED040CC51DF4FE88132
:1034F000C45ED040CB51DF4F4881C55ED040CA5139
:10350000DF4F5881C65ED040C951DF4F6881C75E2A
:10351000D040C851DF4F7881C85ED0402F2F3E2F5A
:10352000C751DF4F8881C95ED040C651DF4F9881B7
:10353000CA5ED0402F3F3105410551056105710537
:103540008105910511F008F047CBCF01909345100C
:103550008093461041CB8CED99E00E9465118091DB
:1035600047100E94CA0D8DEE99E00E94C00D0E9486
:103570002409082E000C990B0E948D298D3419F016
:10358000833509F029CB8093471026CB8DE09AE054
:103590000E94C00D8FE19AE00E9465118091481051
:1035A0000E94661181E39AE00E94651180914910A2
:1035B0000E94661183E49AE00E94C00D0E943209C5
:1035C000E6E0FEE09F0126503E4079018191803285
:1035D000C9F3082E000C990B0E948D29813419F42F
:1035E00000E010E005C0823409F0F6CA01E010E006
:1035F000F701E95FF14F81918032E9F3082E000C69
:10360000990B0E948D29823519F0863409F0E4CA9D
:10361000F801E35FFF4E83AFDFCA89E89AE00E94BA
:10362000C00D8CEA9AE00E94651160914A10709179
:103630004B1080914C1090914D100E945B118FEBBC
:103640009AE00E9465116091521070915310809120
:103650005410909155100E945B1182ED9AE00E94E7
:10366000C00D0E942409082E000C990B0E948D2980
:10367000813419F400E010E004C0823471F701E0F5
:1036800010E08AEE9AE00E94C00D0E94320910926A
:10369000890E1092880EC1010E94F60D8091FC0DDA
:1036A0009091FD0D892B09F497CAF801A3E0EE0F64
:1036B000FF1FAA95E1F7E35FFF4EFD96A5C084E1E9
:1036C0009BE00E94C00D8DE29BE00E94651160911D
:1036D0005A1070915B1080915C1090915D100E9467
:1036E0005B118EE39BE00E94651160916210709106
:1036F000631080916410909165100E945B1182EDBF
:103700009AE00E94C00D0E942409082E000C990B1B
:103710000E948D29813419F400E010E004C0823445
:1037200071F701E010E08FE49BE00E94C00D0E9461
:1037300032091092890E1092880EC1010E94F60D76
:103740008091FC0D9091FD0D892B09F445CAE3E0B1
:10375000000F111FEA95E1F7035F1F4EF801E35BCD
:10376000FF4F52C084E79BE00E94C00D89E89BE0B8
:103770000E94651160916A1070916B1080916C10BD
:1037800090916D100E945B118AE99BE00E94651187
:1037900060917210709173108091741090917510F7
:1037A0000E945B1182ED9AE00E94C00D0E942409E4
:1037B000082E000C990B0E948D29813419F400E029
:1037C00010E004C0823471F701E010E08BEA9BE066
:1037D0000E94C00D0E9432091092890E1092880E2C
:1037E000C1010E94F60D8091FC0D9091FD0D892B79
:1037F00009F4F2C973E0000F111F7A95E1F7035F36
:103800001F4EF801E35AFF4FD1018C91808311962E
:103810008C911197818312968C91129782831396C3
:103820008C911397838314968C91149784831596A7
:103830008C911597858316968C911697868317968B
:103840008C918783C9C988E0898341E150E06CE0AD
:1038500072E0CE0102960E94952984E48B8B41E1AF
:1038600050E06BE77DE0CE0144960E9495291DA2B1
:103870001EA280E88FA386E988A788E989A71AA6EF
:103880001BA61CA61DA61EA61FA681EE88AB85EF53
:1038900089AB85E08AAB1BAA1CAA1DAA1EAA84E1DB
:1038A00090E098AF8FAB85E090E09AAF89AF8DE460
:1038B0008BAF82E58CAF8DAF94EC9EAF89E08FAF7C
:1038C00021961FAE219722961FAE229723961FAEF8
:1038D000239724961FAE249725961FAE25972696EC
:1038E0001FAE269727969FAF279728968FAF2897CA
:1038F00029961FAE29972A961FAE2A972B961FAEA0
:103900002B972C961FAE2C972D961FAE2D972E968B
:103910001FAE2E972F961FAE2F9760961FAE609703
:1039200061961FAE619762961FAE629763961FAE57
:10393000639764961FAE649765961FAE659766960B
:103940001FAE669767961FAE679768961FAE68971B
:1039500069961FAE69976A961FAE6A976B961FAEFF
:103960006B976C961FAE6C976D961FAE6D976E96AB
:103970001FAE6E976F961FAE6F97A0961FAEA09763
:10398000A1961FAEA197A2961FAEA297A3961FAEB7
:10399000A397A4961FAEA497A5961FAEA597A6962B
:1039A0001FAEA697A7961FAEA797A8961FAEA8977B
:1039B000A9961FAEA997AA961FAEAA97AB961FAE5F
:1039C000AB97AC961FAEAC97AD961FAEAD97AE96CB
:1039D0001FAEAE978DE6FE013196ADE0B0E10190ED
:1039E0000D928A95E1F7F8C86DE070E180E090E013
:1039F0000E940F0822C081E79DE00E94C00D8BEC61
:103A00009BE00E94C00D00E010E06FEFC8010E9433
:103A1000CD2C0F5F1F4F0115B0E11B07B1F78AEFE7
:103A20009BE00E94C00D81E79DE00E94C00D05C093
:103A300087E39CE00E94C00DCFC880913110809335
:103A4000940DA0903310B0903410C0903510D090E9
:103A50003610E0903710F090381000913910109126
:103A60003A10A0928C0DB0928D0DC0928E0DD09216
:103A70008F0DE092900DF092910D0093920D1093A6
:103A8000930D20E030E145EA54ED68EE70E080E00F
:103A900090E00E9470282093980D3093990D4093E8
:103AA0009A0D50939B0D60939C0D70939D0D809388
:103AB0009E0D90939F0D80913B108093A00D80915F
:103AC0003C108093A10D80913D108093A20D8091B8
:103AD0003E108093A30D80913F108093A40D8091A0
:103AE00040108093A50D809141108093A60D809188
:103AF00042108093A70DA0904310B0904410B09254
:103B0000970DA092960D47E2C42E4FE0D42E5AE4B2
:103B1000E52E50E1F52E0AE71FE0812C912C63E79A
:103B2000762EF8011082118212821382148215827D
:103B300016821782789CD001799CB00D1124A95D62
:103B4000B04FFD013B961B961C921182128213828C
:103B50001482158216821782D6019B961C929B971F
:103B60009C961C929C979D961C929D979E961C924B
:103B70009E979F961C929F97D0961C92D097D19615
:103B80001C92D197D2961C92D297DB961C92F6018A
:103B9000FB9611821282138214821582168217827A
:103BA000F701708161815281438134812581968141
:103BB0008781F8E0EF0EF11CD80118967C931897D6
:103BC00019966C9319971A965C931A971B964C93B7
:103BD0001B971C963C931C971D962C931D971E9625
:103BE0009C931E971F968C931F97F7018085509684
:103BF0008C935097818551968C93519782855296DC
:103C00008C935297838553968C93539784855496BF
:103C10008C935497858555968C93559786855696A3
:103C20008C935697878557968C935797808D589687
:103C30008C935897818D59968C935997828D5A966B
:103C40008C935A97838D5B968C935B97848D5C964F
:103C50008C935C97858D5D968C935D97868D5E9633
:103C60008C935E97878D5F968C9360E0D6018C91E4
:103C70000E94160465E070E080E090E00E94A004DD
:103C800061E0F60180810E94160465E070E080E04A
:103C900090E00E94A004FAE0AF16B10459F074F06D
:103CA00044E1A416B10441F058E2A516B10431F480
:103CB00040EC05C040E403C040E801C040E0416082
:103CC00021E082E1C35EDE4F2883CD51D140C25E48
:103CD000DE4F4883CE51D1400E94EE03C35EDE4FDB
:103CE0002881CD51D140C25EDE4F4881CE51D140B6
:103CF000892B31F7222311F020E0E3CF61E0C601E8
:103D00000E94220544E063E0C6010E942205409122
:103D1000451066E0C6010E94220540E067E0C6014A
:103D20000E94220543E860E0C6010E94220563E785
:103D3000C60ED11C0D581F4F8A94892821F0882463
:103D40008394912CEECE809147108D3409F042C0BF
:103D500061E08EE30E94450460E08EE30E94160459
:103D600068EE73E080E090E00E94A00482E10E948F
:103D7000EE0301E0892B09F400E092E0E92EF12C3A
:103D800010E02FE0C22ED12C82E10E94EE038017BA
:103D90009107D9F4C6010197F1F783E3E816F1041E
:103DA0009CF79FEFE91AF90AA2E3EA16F10461F71A
:103DB00081E79DE00E94C00D81E79DE00E94C00D5B
:103DC0008BE39CE00E94C00DDFCF61E08EE30E9498
:103DD00016040CC081E79DE00E94C00D81E79DE0C4
:103DE0000E94C00D85E69CE00E94C00D8EE30E94FB
:103DF000EE03892BD9F31092720D1092730D10926D
:103E0000740D1092750D1092760D1092770D109220
:103E1000780D1092790D42E069E673E082E10E942C
:103E2000270C43E06EE473E082E00E94270C43E03D
:103E300063E373E083E00E94270C60E08EE30E945E
:103E4000160460E08EE30E94450481E79DE00E9435
:103E5000C00D81E79DE00E94C00D8091311082303D
:103E600091F038F4882361F08130A1F483EA9CE07A
:103E70000FC0833059F0843069F484E09DE008C0BD
:103E80008DE89CE005C081EC9CE002C084ED9CE0E4
:103E90000E94C00D60E084E40E94160460E082E4A9
:103EA0000E94160460E085E40E94160460E083E44A
:103EB0000E941604FE01E552FF4FCD50DF4FF983FB
:103EC000E883C35FD040B0E34B2EBFE05B2E12E629
:103ED000212E1FE0312E09E21FE0CB5FDE4F198358
:103EE0000883C550D1400EE3602E0FE0702E8AE7A4
:103EF000882E8FE0982EC85FDE4F19821882C85036
:103F0000D140CB5FDE4FA881B981C550D140139617
:103F10008C910E94EE03892B09F0DFC461E0F2016D
:103F200080810E941604D2018C9161E082500E942F
:103F30001604F3018489848F8589858F8689868F0D
:103F40008789878F808D80A3818D81A3828D82A3B5
:103F5000838D83A3D1018C9118968C931897119619
:103F60008C91119719968C93199712968C911297A0
:103F70001A968C931A9713968C9113971B968C9381
:103F80001B9714968C9114971C968C931C971596DE
:103F90008C9115971D968C931D9716968C9116975C
:103FA0001E968C931E9717968C9117971F968C933D
:103FB000F2013997CF5FDE4FF983E883C150D140DA
:103FC00060E1CF010E945E05D2011A966D937D9348
:103FD0008D939C931D9762E1CF5FDE4F888199811D
:103FE000C150D1400E945E05F301608371838283DA
:103FF000938361E1CF5FDE4F88819981C150D140C9
:104000000E945E05D20156966D937D938D939C938D
:1040100059976BE1CF5FDE4F88819981C150D140C4
:104020000E945E05F201628F738F848F958F6CE121
:10403000CF5FDE4F88819981C150D1400E945E05DB
:10404000C350DF4F688379838A839B83CD5FD040E1
:10405000D2015E966D937D938D939C939197B091D1
:10406000980DCD5FDE4FB883C350D140E091990DDC
:10407000CC5FDE4FE883C450D140F0919A0DC95F08
:10408000DE4FF883C750D14000919B0DC65FDE4FD5
:104090000883CA50D14010919C0DC55FDE4F188334
:1040A000CB50D14020919D0DC45FDE4F2883CC5072
:1040B000D14030919E0DC35FDE4F3883CD50D1404B
:1040C00040919F0DC25FDE4F4883CE50D140F20138
:1040D00086899789A08DB18D8C019D0140E050E0CB
:1040E000BA01CB50DF4F8883C55FD040CA50DF4F45
:1040F0001883C65FD040C950DF4F2883C75FD040C8
:10410000C850DF4F3883C85FD040C750DF4F488367
:10411000C95FD040C650DF4F5883CA5FD040C550FA
:10412000DF4F6883CB5FD040C450DF4F7883CC5FD4
:10413000D040CD5FDE4FA880C350D140CC5FDE4F72
:10414000B880C450D140C95FDE4FC880C750D1404D
:10415000C65FDE4FD880CA50D140C55FDE4FE880D1
:10416000CB50D140C45FDE4FF880CC50D140C35F0C
:10417000DE4F0881CD50D140C25FDE4F1881CE5056
:10418000D140CB50DF4F2881C55FD040CA50DF4FB0
:104190003881C65FD040C950DF4F4881C75FD040EB
:1041A000C850DF4F5881C85FD04060E070E080E0C9
:1041B00090E043D7D4015896AC9058975996BC904C
:1041C00059975A96CC905A975B96DC905B975C9681
:1041D000EC905C975D96FC905D975E960C915E9777
:1041E0005F961C910E946C29C15FDE4F2883CF50DF
:1041F000D140C05FDE4F3883C051D140CF5EDE4F2B
:104200004883C151D140CE5EDE4F5883C251D14068
:10421000CD5EDE4F6883C351D140CC5EDE4F7883E4
:10422000C451D140CB5EDE4F8883C551D140CA5EB8
:10423000DE4F9883C651D140F201828D938DA48DBB
:10424000B58DC350DF4F088119812A813B81CD5F35
:10425000D040081B190B2A0B3B0B40E050E0BA0181
:10426000CB50DF4F0883C55FD040CA50DF4F188363
:10427000C65FD040C950DF4F2883C75FD040C850C9
:10428000DF4F3883C85FD040C750DF4F4883C95FD6
:10429000D040C650DF4F5883CA5FD040C550DF4F73
:1042A0006883CB5FD040C450DF4F7883CC5FD04071
:1042B00020E432E44FE050E060E070E080E090E025
:1042C000D4011896AC9018971996BC9019971A9625
:1042D000CC901A971B96DC901B971C96EC901C9721
:1042E0001D96FC901D971E960C911E971F961C9173
:1042F000F3D759016A017B018C01CB50DF4F288134
:10430000C55FD040CA50DF4F3881C65FD040C9502A
:10431000DF4F4881C75FD040C850DF4F5881C85F2A
:10432000D04060E070E080E090E087D6E091960DAC
:10433000F091970D31971F2F110F110B5F01C12EB7
:10434000D12EE12EF12E012FCBD6CB50DF4F28837B
:10435000C55FD040C350DF4F3883CD5FD040C95ECA
:10436000DE4F4883C751D140C85EDE4F5883C851E5
:10437000D140C75EDE4F6883C951D140C65EDE4F73
:104380007883CA51D140C55EDE4F8883CB51D1407E
:10439000C45EDE4F9883CC51D140F4011089B189BD
:1043A0000289F38864897589212F3B2F402F5F2D67
:1043B00086899789A0E099D751F0D3011C93119673
:1043C0003C93119712960C9312971396FC92A12C82
:1043D00040E1B42E55EAC52E64EDD62E78EEE72ED8
:1043E000F12C00E010E0CD5FDE4F2881C350D140BA
:1043F000CC5FDE4F3881C450D140C95FDE4F488169
:10440000C750D140C65FDE4F5881CA50D140C55F0A
:10441000DE4F6881CB50D140C45FDE4F7881CC50F5
:10442000D140C35FDE4F8881CD50D140C25FDE4FA7
:104430009881CE50D14001D6CB50DF4FA880C55FC8
:10444000D040C350DF4FB880CD5FD040C95EDE4F53
:10445000C880C751D140C85EDE4FD880C851D14016
:10446000C75EDE4FE880C951D140C65EDE4FF8809E
:10447000CA51D140C55EDE4F0881CB51D140C45EE8
:10448000DE4F1881CC51D1402BD6C350DF4F28834B
:10449000CD5FD040CD5FDE4F3883C350D140CC5F7D
:1044A000DE4F4883C450D140C95FDE4F5883C750A8
:1044B000D140B62FA72FC65FDE4F8883CA50D140A8
:1044C000C55FDE4F9883CB50D140F20142855385C2
:1044D000648575855A016B01F30120813181428128
:1044E0005381BA01A9019A01AB0160E070E0CB01F0
:1044F000CB50DF4F2883C55FD040CA50DF4F388391
:10450000C65FD040C950DF4F4883C75FD040C85016
:10451000DF4F5883C85FD040C750DF4F6883C95F03
:10452000D040C650DF4F7883CA5FD040C550DF4FC0
:104530008883CB5FD040C450DF4F9883CC5FD0409E
:104540009501A60160E070E080E090E0CB50DF4F85
:10455000A880C55FD040CA50DF4FB880C65FD0404A
:10456000C950DF4FC880C75FD040C850DF4FD880E8
:10457000C85FD040E12CF12C00E010E0ADD659012D
:104580006A017B018C01C350DF4F2881CD5FD04091
:10459000CD5FDE4F3881C350D140CC5FDE4F4881C4
:1045A000C450D140C95FDE4F5881C750D1406B2FF6
:1045B0007A2FC65FDE4F8881CA50D140C55FDE4F7B
:1045C0009881CB50D14039D5E0E4AE2EF2E4BF2E35
:1045D000AFE0CA2ED12CE12CF12C00E010E080D508
:1045E00059016A017B018C01C15FDE4F2881CF50E8
:1045F000D140C05FDE4F3881C051D140CF5EDE4F29
:104600004881C151D140CE5EDE4F5881C251D14068
:10461000CD5EDE4F6881C351D140CC5EDE4F7881E4
:10462000C451D140CB5EDE4F8881C551D140CA5EB6
:10463000DE4F9881C651D1403AD6CB50DF4F288308
:10464000C55FD040C350DF4F3883CD5FD040CD5FD2
:10465000DE4F4883C350D140CC5FDE4F5883C450F7
:10466000D140C95FDE4F6883C750D140C65FDE4F7F
:104670007883CA50D140C55FDE4F8883CB50D1408C
:10468000C45FDE4F9883CC50D140D30154962C9315
:10469000549755963C93559756964C9356975796E4
:1046A0005C93579758966C93589759967C93599763
:1046B0005A968C935A975B969C9303E7C85FDE4F9C
:1046C000E881F981C850D1400E9FD0010F9FB00DF5
:1046D0001124A95DB04FFD013B961B962C913181B1
:1046E000428153816481758186819781A090A00D5C
:1046F000B090A10DC090A20DD090A30DE090A40D9C
:10470000F090A50D0091A60D1091A70D96D4CB5059
:10471000DF4FA880C55FD040C350DF4FB880CD5F6A
:10472000D040CD5FDE4FC880C350D140CC5FDE4F5C
:10473000D880C450D140C95FDE4FE880C750D14017
:10474000C65FDE4FF880CA50D140C55FDE4F08819A
:10475000CB50D140C45FDE4F1881CC50D140BCD586
:10476000D1012C9311963C93119712964C9312976A
:1047700013965C93139714966C93149715967C93E9
:10478000159716968C93169717969C9317971896CD
:10479000AC9018971996BC9019971A96CC901A97C6
:1047A0001B96DC901B971C96EC901C971D96FC901A
:1047B0001D971E960C911E971F961C911F978CD5C6
:1047C00050962C93509751963C93519752964C93F8
:1047D000529753965C93539754966C93549755966F
:1047E0007C93559756968C93569757969C93F401C5
:1047F00020813181428153816481758186819781D5
:10480000A1E05ED520833183428353836483758323
:104810008683978343E860E0CF5FDE4F888199818C
:10482000C150D1400E942205D4012C9111963C9197
:10483000119712964C91129713965C9113971496B8
:104840006C91149715967C91159716968C911697E6
:1048500017969C91A2E049D5A9F1A4F1809132105C
:10486000882309F469C08AE89EE00E94D3011816E3
:10487000190644F58AE89EE00E94B10120913210A9
:10488000022E000C330B82179307E1F455C08130E0
:10489000C9F4A090620FB090630FC090640FD090E5
:1048A000650FE090660FF090670F0091680F109110
:1048B000690F9501A601B701C801A1E016D511F055
:1048C0000CF082C060E0D2018C910E941604F201CB
:1048D000808160E082500E941604F3E74F0E511C65
:1048E00003E7200E311CCB5FDE4F28813981C55094
:1048F000D1402D583F4FCB5FDE4F39832883C550C1
:10490000D14033E7630E711C43E7840E911CC85FEE
:10491000DE4F68817981C850D1406130710549F01E
:1049200021E030E0C85FDE4F39832883C850D14092
:10493000E8CA0E947002C7CA80913110823041F5E6
:10494000D10150962C91509751963C915197529687
:104950004C91529753965C91539754966C915497FF
:1049600055967C91559756968C91569757969C9153
:104970000E948C0589E39DE00E946511CB5FDE4FAC
:10498000E881F981C550D14080810E9466119ACF9B
:10499000833008F068C081117ACFF1012081318124
:1049A0004281538164817581868197810E948C0543
:1049B00089E39DE00E946511CB5FDE4FA881B9813C
:1049C000C550D1408C91E1CFB091D50FCF5FDE4F74
:1049D000B883C150D140E091D60FCB50DF4FE88370
:1049E000C55FD040F091D70FC350DF4FF883CD5F44
:1049F000D040B091D80FCD5FDE4FB883C350D140C7
:104A0000E091D90FCC5FDE4FE883C450D140B09124
:104A1000DA0FF091DB0FE091DC0FCF5FDE4F2881E2
:104A2000C150D140CB50DF4F3881C55FD040C3501B
:104A3000DF4F4881CD5FD040CD5FDE4F5881C350FE
:104A4000D140CC5FDE4F6881C450D1407B2F8F2F87
:104A50009E2F4BD409F00CF435CF3ED40E948C0528
:104A60008DE39DE0F1C0833009F011C1D090620F59
:104A7000E090630FF090640F0091650F1091660F46
:104A8000B091670FF091680FE091690F2D2D3E2DC9
:104A90004F2D502F612F7B2F8F2F9E2FA1E025D4DC
:104AA00009F00CF40FCF2091D50F3091D60F409123
:104AB000D70F5091D80F6091D90F7091DA0F809174
:104AC000DB0F9091DC0F11D409F00CF4FBCE2D2DEF
:104AD0003E2D4F2D502F612F7B2F8F2F9E2F0E9409
:104AE0008C0587E49DE00E94C00D2091D50F309188
:104AF000D60F4091D70F5091D80F6091D90F709178
:104B0000DA0F8091DB0F9091DC0F0E948C058CE412
:104B10009DE00E94C00D2091D50F3091D60F40919D
:104B2000D70F5091D80F6091D90F7091DA0F809103
:104B3000DB0F9091DC0FA090620FB090630FC090DC
:104B4000640FD090650FE090660FF090670F0091B2
:104B5000680F1091690FC0D3CF5FDE4F2883C1501B
:104B6000D140CB50DF4F3883C55FD040C350DF4FBB
:104B70004883CD5FD040CD5FDE4F5883C350D140D6
:104B8000CC5FDE4F6883C450D140C95FDE4F78836D
:104B9000C750D140C65FDE4F8883CA50D140C55F41
:104BA000DE4F9883CB50D140A12C80E1B82E95EAFE
:104BB000C92E24EDD22E38EEE32EF12C00E010E0C9
:104BC0002091ED0F3091EE0F4091EF0F5091F00FCB
:104BD0006091F10F7091F20F8091F30F9091F40FAB
:104BE0002CD2AFEF6DD359016A017B018C01CF5FED
:104BF000DE4F2881C150D140CB50DF4F3881C55F97
:104C0000D040C350DF4F4881CD5FD040CD5FDE4FF5
:104C10005881C350D140CC5FDE4F6881C450D14031
:104C2000C95FDE4F7881C750D140C65FDE4F8881B3
:104C3000CA50D140C55FDE4F9881CB50D14037D3A9
:104C40000E948C0581E59DE00E94C00D1092620FCC
:104C50001092630F1092640F1092650F1092660FFE
:104C60001092670F1092680F1092690F1092D50F73
:104C70001092D60F1092D70F1092D80F1092D90F12
:104C80001092DA0F1092DB0F1092DC0F1BCE8430E3
:104C900009F018CED2011D968C911D978F931C960A
:104CA0008C911C978F931B968C911B978F931A96C0
:104CB0008C918F93ACE5BDE0BF93AF93CC50DF4FA9
:104CC000F881C45FD040FF93CD50DF4F0881C35FB0
:104CD000D0400F9339D3CE0185529F4F0E9465116A
:104CE000D30113968C9113978F9312968C911297F0
:104CF0008F9311968C9111978F938C918F93ACE534
:104D0000BDE0BF93AF93CC50DF4FF881C45FD0407C
:104D1000FF93CD50DF4F0881C35FD0400F9314D372
:104D2000CE0185529F4F0E946511D20159968C91F8
:104D300059978F9358968C9158978F9357968C913B
:104D400057978F9356968C918F93ACE5BDE0BF93A8
:104D5000AF93CC50DF4FF881C45FD040FF93CD506C
:104D6000DF4F0881C35FD0400F93EED2CE01855252
:104D70009F4F0E946511D2015D968C915D978F9334
:104D80005C968C915C978F935B968C915B978F93DD
:104D90005A968C918F93ACE5BDE0BF93AF93CC5006
:104DA000DF4FF881C45FD040FF93CD50DF4F0881C3
:104DB000C35FD0400F93C8D20FB6F894DEBF0FBECA
:104DC000CDBFCE0185529F4F0E946511D2019196B1
:104DD0008C9191978F9390968C9190978F935F96EB
:104DE0008C915F978F935E968C918F93ACE5BDE02D
:104DF000BF93AF93CC50DF4FF881C45FD040FF9397
:104E0000CD50DF4F0881C35FD0400F939DD2CE01BC
:104E100085529F4F0E94651143E7C85FDE4F28818E
:104E20003981C850D140429FD001439FB00D112419
:104E3000A95DB04FFD013B961B965C91418132818B
:104E400023818481858186818781652F742F832FBB
:104E5000922F0E9434118BEA96E00E946511D301D3
:104E600054962C91549755963C91559756964C9143
:104E7000569757965C91579758966C9158975996B4
:104E80007C9159975A968C915A975B969C910E9467
:104E90008C058BEA96E00E946511F1012081318139
:104EA0004281538164817581868197810E948C053E
:104EB00089E39DE00E946511CB5FDE4FA881B98137
:104EC000C550D1408C910E9466110FB6F894DEBF98
:104ED0000FBECDBFF7CCCF92DF92EF92FF920F9330
:104EE0001F93CF93DF93EAE8FEE01382128288EEED
:104EF00093E0A0E0B0E084839583A683B78386E245
:104F000092E09183808385EC90E09587848784ECA0
:104F100090E09787868780EC90E0918B808B81EC86
:104F200090E0938B828B82EC90E0958B848B86EC67
:104F300090E0978B868B118E128E138E148E88E0E4
:104F400080930D10C7E2DFE084E090E099838883CE
:104F500081E48A8382E090E09C838B838AE090E006
:104F60009E838D8386E090E098878F8384E490E031
:104F70009A87898761E084E00E94450460E08D8122
:104F80000E94450461E08F810E94450460E08B81AE
:104F90000E94450461E089850E94450485E090E017
:104FA00090939B0F80939A0F82E480939C0F0DE95E
:104FB0001FE083E090E0F801918380838FE9C82EA1
:104FC0008FE0D82E8BE090E0F6019183808391EA08
:104FD000E92E9FE0F92E87E090E0F701918380832E
:104FE000C3EADFE085E490E09983888361E085E0AF
:104FF0000E94450460E0F60180810E94450461E062
:10500000F70180810E94450460E0F80180810E94E0
:10501000450461E08881DF91CF911F910F91FF904E
:10502000EF90DF90CF900C944504EE0FFF1F881F88
:105030008BBF0790F691E02D1994DF93CF931F93C8
:105040000F939A9DF02D219FF00D8B9DF00D8A9D61
:10505000E02DF10D039FF00D029FE00DF11D4E9D1F
:10506000E00DF11D5E9DF00D4F9DF00D7F936F9350
:10507000BF92AF925F934F93D501EBD48B01AC01FC
:10508000D701E7D4EB01E80FF91FD6011FD02F910C
:105090003F91D601DED4C60FD71FE81FF91FAF918D
:1050A000BF9114D02F913F91D4D4C60FD71FE81FC2
:1050B000F91FD601CED4E60FF71F9801BE01CF012C
:1050C00011240F911F91CF91DF910895C2D4460F03
:1050D000571FC81FD91F08F431960895689401C05E
:1050E000E894F92FF12B0AF027C0A0E0B0E0EAE73E
:1050F000F8E293C0092E05941AF479D0112392F4A2
:10510000F0E80F26FFEFE094F09400951095B0942E
:10511000C094D094A194BF0ACF0ADF0AEF0AFF0A15
:105120000F0B1F0B13D007FC62D0CDB7DEB7ECE03E
:1051300090C0689401C0E8948F929F92CF93DF93C0
:1051400005D0DF91CF919F908F9008958824992466
:10515000F401E401B0E49F93AA279A158B049C0400
:10516000ED05FE05CF05D007A10798F4AD2FDC2F84
:10517000CF2FFE2FE92D982C892E982F872F762F51
:10518000652F542F432F322F2227B85031F7BF916C
:1051900027C01B2EBF91BB27220F331F441F551F53
:1051A000661F771F881F991F881C991CEE1FFF1F01
:1051B000CC1FDD1FAA1FBB1F8A149B04EC05FD0535
:1051C000CE05DF05A007B10748F08A189B08EC0957
:1051D000FD09CE09DF09A00BB10B21601A94E1F69D
:1051E0002EF49401AF01BE01CD01000C089560952D
:1051F00070958095909530954095509521953F4FAD
:105200004F4F5F4F6F4F7F4F8F4F9F4F08952F929C
:105210003F924F925F926F927F928F929F92AF9246
:10522000BF92CF92DF92EF92FF920F931F93CF9393
:10523000DF93CDB7DEB7CA1BDB0B0FB6F894DEBF2A
:105240000FBECDBF19942A88398848885F846E8440
:105250007D848C849B84AA84B984C884DF80EE809A
:10526000FD800C811B81AA81B981CE0FD11D0FB6A3
:10527000F894DEBF0FBECDBFED0108950F93083047
:1052800090F0982F872F762F652F542F432F322F92
:1052900022270850F4CF220F331F441F551F661FCB
:1052A000771F881F991F0A95B2F70F9108952A0D4D
:1052B0003B1D4C1D5D1D6E1D7F1D801F911F0895A0
:1052C0000024A7FD00942A0F301D401D501D601DB5
:1052D000701D801D901D08952A193B094C095D0918
:1052E0006E097F09800B910B08950024A7FD00949F
:1052F0002A173005400550056005700580059005AA
:10530000089581E090E0F894B3C391113AC28032DD
:1053100019F089508550D0F708959111089581565C
:105320008A5108F4805285580895FB01DC014150F0
:10533000504048F001900D920020C9F701C01D9225
:1053400041505040E0F708950F931F93CF93DF93A0
:10535000CDB7DEB72E970FB6F894DEBF0FBECDBF28
:105360000E891F8986E08C831A8309838FEF9FE75C
:105370009E838D83AE01465E5F4F688D798DCE0131
:10538000019611D02F813885F801E20FF31F1082AA
:105390002E960FB6F894DEBF0FBECDBFDF91CF9132
:1053A0001F910F9108952F923F924F925F926F92AB
:1053B0007F928F929F92AF92BF92CF92DF92EF92A5
:1053C000FF920F931F93CF93DF93CDB7DEB72C9748
:1053D0000FB6F894DEBF0FBECDBF7C016B018A0112
:1053E000FC0117821682838181FFB0C1CE01019634
:1053F0004C01F7019381F60193FD859193FF819113
:105400006F01882309F49EC1853239F493FD85919B
:1054100093FF81916F01853221F4B70190E0CAD1E9
:10542000E8CF512C312C20E02032A0F48B3269F0EF
:1054300030F4803259F0833269F420612CC08D320F
:1054400039F0803339F4216026C02260246023C003
:10545000286021C027FD27C030ED380F3A3078F49E
:1054600026FF06C0FAE05F9E300D1124532E13C0B4
:105470008AE0389E300D1124332E20620CC08E320B
:1054800021F426FD5FC1206406C08C3611F420682B
:1054900002C0883641F4F60193FD859193FF819116
:1054A0006F018111C1CF982F9F7D9554933028F4BF
:1054B0000C5F1F4FFFE3F9830DC0833631F0833754
:1054C00071F0833509F057C021C0F80180818983CC
:1054D0000E5F1F4F44244394512C540114C03801D3
:1054E000F2E06F0E711CF801A080B18026FF03C0AE
:1054F000652D70E002C06FEF7FEFC5012C874FD1A3
:105500002C0183012C852F77222E16C03801F2E062
:105510006F0E711CF801A080B18026FF03C0652DBD
:1055200070E002C06FEF7FEFC5012C872DD12C01F9
:105530002C852068222E830123FC19C0832D90E046
:1055400048165906A0F4B70180E290E033D13A94AE
:10555000F5CFF50127FC859127FE81915F01B70109
:1055600090E028D131103A94F1E04F1A51084114DB
:10557000510479F7DEC0843611F0893631F5F8012F
:1055800027FF07C060817181828193810C5F1F4F6B
:1055900008C060817181072E000C880B990B0E5F8B
:1055A0001F4F2F76722E97FF09C0909580957095AA
:1055B00061957F4F8F4F9F4F2068722E2AE030E019
:1055C000A40130D1A82EA81843C0853729F42F7E16
:1055D000B22E2AE030E025C0F22FF97FBF2E8F36A1
:1055E000C1F018F4883579F0ADC0803719F08837EC
:1055F00021F0A8C02F2F2061B22EB4FE0DC08B2D3C
:105600008460B82E09C024FF0AC09F2F9660B92E6F
:1056100006C028E030E005C020E130E002C020E113
:1056200032E0F801B7FE07C0608171818281938109
:105630000C5F1F4F06C06081718180E090E00E5FBB
:105640001F4FA401EFD0A82EA818FB2DFF777F2EA7
:1056500076FE0BC0372D3E7FA51450F474FE0AC0B1
:1056600072FC08C0372D3E7E05C0BA2C372D03C012
:10567000BA2C01C0B52C34FF0DC0FE01EA0DF11D9E
:105680008081803311F4397E09C032FF06C0B394A3
:10569000B39404C0832F867809F0B39433FD12C00D
:1056A00030FF06C05A2CB31418F4530C5B18B32CFB
:1056B000B31460F4B70180E290E03C877BD0B394F0
:1056C0003C85F6CFB31410F43B1801C0312C34FFE5
:1056D00011C0B70180E390E03C876CD03C8532FF7D
:1056E00016C031FD03C088E790E002C088E590E075
:1056F000B7010CC0832F867851F031FF02C08BE2D6
:1057000001C080E237FD8DE2B70190E053D0A514CF
:1057100030F4B70180E390E04DD05A94F8CFAA94CA
:10572000F401EA0DF11D8081B70190E043D0A11092
:10573000F6CF332009F45DCEB70180E290E03AD095
:105740003A94F7CFF7018681978102C08FEF9FEFE0
:105750002C960FB6F894DEBF0FBECDBFDF91CF9170
:105760001F910F91FF90EF90DF90CF90BF90AF907F
:105770009F908F907F906F905F904F903F902F9071
:105780000895992788270895FC010590615070407D
:105790000110D8F7809590958E0F9F1F0895FC01FA
:1057A0006150704001900110D8F7809590958E0F50
:1057B0009F1F08950F931F93CF93DF93FB012381C6
:1057C00021FD03C08FEF9FEF28C022FF16C0468146
:1057D0005781248135814217530744F4A081B18158
:1057E0009D012F5F3F4F318320838C93268137812A
:1057F0002F5F3F4F3783268310C0EB01092F182FEF
:105800000084F185E02D1995892BE1F68E819F8129
:1058100001969F838E83812F902FDF91CF911F91CF
:105820000F910895FA01AA27283051F1203181F112
:10583000E8946F936E7F6E5F7F4F8F4F9F4FAF4F98
:10584000B1E03ED0B4E03CD0670F781F891F9A1FAB
:10585000A11D680F791F8A1F911DA11D6A0F711D5F
:10586000811D911DA11D20D009F468943F912AE06B
:10587000269F11243019305D3193DEF6CF01089553
:10588000462F4770405D4193B3E00FD0C9F7F6CF84
:10589000462F4F70405D4A3318F0495D31FD40524C
:1058A000419302D0A9F7EACFB4E0A69597958795E2
:1058B00077956795BA95C9F70097610571050895C1
:1058C0009B01AC010A2E069457954795379527956D
:1058D000BA95C9F7620F731F841F951FA01D089505
:1058E0008F929F92AF92BF92CF92DF92EF92FF92F0
:1058F000CF93DF93EC01688179818A819B81611567
:1059000071058105910521F464E279ED8BE597E05D
:105910002DE133EF41E050E04ED049015A019B01A7
:10592000AC01A7EAB1E463D06B017C01ACEEB4EF4B
:10593000A501940168D0DC01CB018C0D9D1DAE1D2D
:10594000BF1DB7FF03C00197A109B04888839983A1
:10595000AA83BB83BC01CD019F77DF91CF91FF90DC
:10596000EF90DF90CF90BF90AF909F908F90089571
:10597000B7CF88E092E0B4CF609308027093090239
:1059800080930A0290930B020895F999FECF92BD7D
:1059900081BDF89A992780B50895262FF999FECFF1
:1059A0001FBA92BD81BD20BD0FB6F894FA9AF99A3C
:1059B0000FBE01960895052E97FB16F400940FD0A4
:1059C00057FD05D024D007FC02D046F408C05095FE
:1059D0004095309521953F4F4F4F5F4F08959095DB
:1059E0008095709561957F4F8F4F9F4F089531D06F
:1059F000A59F900DB49F900DA49F800D911D112423
:105A00000895B7FFF4CFF3DF821B930B0895A1E253
:105A10001A2EAA1BBB1BFD010DC0AA1FBB1FEE1F28
:105A2000FF1FA217B307E407F50720F0A21BB30B73
:105A3000E40BF50B661F771F881F991F1A9469F7EF
:105A400060957095809590959B01AC01BD01CF014B
:105A50000895A29FB001B39FC001A39F700D811D47
:105A60001124911DB29F700D811D1124911D089567
:045A7000F894FFCFD8
:105A74000100000000000000010000003230313756
:105A8400303231392E3100000000000000544950FA
:105A94004C440000000009028601D301B101C50194
:105AA4004F024E6F2073657269616C206E756D6272
:105AB400657220666F756E642E2E2E206D616B6983
:105AC4006E67206F6E65002530346C582530346C59
:105AD40058004E6F20636F6E66696720666F756E3F
