:1000000053C100000C94940C0C94690C0C943E0C9D
:100010000C94130C0C94E80B0C94BD0B0C94920BE9
:100020000C94670B0C94F20A0C94830A0C940D0A3E
:100030006CC100006AC1000068C1000066C1000018
:1000400064C1000062C1000060C100005EC1000028
:100050005CC100005AC1000058C10000C7C40000C4
:1000600054C100007EC3000053C300004EC1000015
:100070004CC100004AC1000048C1000046C1000058
:1000800044C1000042C1000040C100003EC1000068
:100090003CC100003AC1000038C1000036C1000078
:1000A00034C1000032C1000030C100002EC1000088
:1000B0002CC100002AC1000028C1000026C1000098
:1000C00024C1000022C1000020C100001EC10000A8
:1000D0001CC100001AC1000018C1000016C10000B8
:1000E00014C10000701AC61C7F1C181D6B1D22193C
:1000F000D11ED11ED11ED11EDA18D11ED11E961BC3
:10010000D11EDC1D4019EF1BD11ED11EAD1EB81E25
:10011000641CD61EC302C602B502B902BF02FD02AC
:10012000CA02CE02D402D802DC02E202E602EA02ED
:10013000FD02F002F402F802000021002400270072
:100140002A002D00300033000101000004010701E6
:100150000A010102102020080810204010204080D1
:10016000020102010804020101020408102040807B
:100170008040201008040201800402018040201009
:100180000804020108040201010204081020408052
:100190000102040810204080050505050705080830
:1001A0000808020202020A0A080804040404010101
:1001B0000101010101010303030303030303040716
:1001C00007070C0C0C0C0C0C0C0C020202020606AD
:1001D0000606060606060B0B0B0B0B0B0B0B0001A2
:1001E00004050503030405060405060701000100D4
:1001F00003020100000102030405060707060504C7
:1002000003020100070201000706050403020100C2
:1002100003020100000102030405060700010203B6
:100220000405060702030405060607000022002550
:100230000028002B002E00310034000201000005D0
:100240000108010B01000020002300260029002CDA
:10025000002F003200000100000301060109010027
:10026000000A0B02090C0D0E080703040100000030
:10027000000000000000000000000000000000007E
:10028000000000000000000000000012111000003B
:10029000000000000000000000000000000000005E
:1002A0000000000000008E2911241FBECFEFD1E214
:1002B000DEBFCDBF00E00CBF20E1AEE8BDE001C075
:1002C0001D92A73BB207E1F71DE0A0E0B2E0ECEC25
:1002D000FEE500E00BBF02C007900D92AE38B107FB
:1002E000D9F711E0C4E5D1E000E006C0219701098B
:1002F000802FFE010E94382AC335D10780E008070D
:10030000A9F70E9408120C94642F7ACECF92DF9244
:10031000EF92FF920F931F93CF93DF936C017A01BB
:100320008B01C0E0D0E0CE15DF0589F0D8016D91DA
:100330008D01D601ED91FC910190F081E02DC60177
:100340001995892B11F47E0102C02196ECCFC701CB
:10035000DF91CF911F910F91FF90EF90DF90CF90A1
:100360000895FC01918D828D981761F0828DDF01D7
:10037000A80FB11D5D968C91928D9F5F9F73928F98
:1003800090E008958FEF9FEF0895FC01918D828D8D
:10039000981731F0828DE80FF11D858D90E008955A
:1003A0008FEF9FEF0895FC01918D228D892F90E0B2
:1003B000805C9F4F821B91098F739927089583EB6F
:1003C0009EE0F1DF21E0892B09F420E0822F0895DF
:1003D000FC01848DDF01A80FB11DA35ABF4F2C91E2
:1003E000848D90E001968F739927848FA689B789B1
:1003F0002C93A089B1898C9180648C93938D848D8A
:10040000981306C00288F389E02D80818F7D808358
:100410000895EF92FF920F931F93CF93DF93EC0118
:1004200081E0888F9B8D8C8D981305C0E889F989B0
:10043000808185FD23C0F62E0B8D10E00F5F1F4FCE
:100440000F731127E02E8C8DE8120BC00FB607FC3E
:10045000FACFE889F989808185FFF5CFCE01B8DF31
:10046000F2CF8B8DFE01E80FF11DE35AFF4FF082B2
:100470000B8FEA89FB898081806207C0EE89FF8942
:100480006083E889F98980818064808381E090E0DD
:10049000DF91CF911F910F91FF90EF900895CF932F
:1004A000DF93EC01888D8823C1F0EA89FB89808184
:1004B00085FD05C0A889B9898C9186FD0EC00FB64F
:1004C00007FCF5CF808185FFF2CFA889B9898C918F
:1004D00085FFEDCFCE017CDFE8CFDF91CF9108958E
:1004E00080E090E0892B19F06ADF811125C080E05F
:1004F00090E0892B41F080E090E0892B21F00E9470
:10050000000081111CC080E090E0892B41F080E068
:1005100090E0892B21F00E940000811113C080E03F
:1005200090E0892BA1F080E090E0892B81F00E947F
:10053000000081110AC008950E940000D8CF0E94D7
:100540000000E1CF0E940000EACF0C940000089563
:1005500090E0FC013197E231F10508F04EC08827A8
:10056000E657FF4F8F4F0C94382A809180008F7789
:1005700003C0809180008F7D8093800008958091DA
:100580008000877FF9CF84B58F7702C084B58F7DD7
:1005900084BD08958091B0008F7703C08091B00032
:1005A0008F7D8093B0000895809190008F7707C071
:1005B000809190008F7D03C080919000877F809311
:1005C000900008958091A0008F7707C08091A000CF
:1005D0008F7D03C08091A000877F8093A000089545
:1005E000809120018F7707C0809120018F7D03C00B
:1005F00080912001877F80932001089580918E0D46
:10060000882361F09FB7F89420918E0D80911B0E86
:10061000213019F48DBB9FBF08958FBF08958EBD03
:1006200000000DB407FEFDCF8EB5089520918E0D0C
:10063000222379F02FB7F89430918E0D313039F4B0
:100640003DB330931B0E3DB33DBB2FBF02C0209383
:100650001B0E8CBD9DBD089570918F0D6091900D06
:100660005091910D4091920D3091930D2091940DE8
:100670009091950D8091960DE0EDFFE07083618380
:1006800052834383348325839683878308957091AF
:100690008F0D6091900D5091910D4091920D309180
:1006A000930D2091940D9091950D8091960DE0E51C
:1006B000FFE073876487558746873787208B918B48
:1006C000828B089520918F0D3091900D4091910D66
:1006D0005091920D6091930D7091940D8091950DB4
:1006E0009091960DA1E00E94832B20938F0D309363
:1006F000900D4093910D5093920D6093930D7093D4
:10070000940D8093950D9093960D08950E94AD2BB6
:100710001F920F920FB60F9211240BB60F922F93C8
:100720003F934F935F936F937F938F939F93AF9379
:10073000BF93EF93FF9383EB9EE04ADEFF91EF912F
:10074000BF91AF919F918F917F916F915F914F91E9
:100750003F912F910F900BBE0F900FBE0F901F90E7
:1007600018951F920F920FB60F9211240BB60F928D
:100770002F938F939F93EF93FF93E091C30EF0918C
:10078000C40E8081E091C90EF091CA0E82FD12C0A4
:1007900090818091CC0E8F5F8F732091CD0E821748
:1007A00051F0E091CC0EF0E0ED54F14F958F809335
:1007B000CC0E01C08081FF91EF919F918F912F917D
:1007C0000F900BBE0F900FBE0F901F901895CF93F8
:1007D000DF93282F30E0F901E15AFD4F8491F901B0
:1007E000EE5AFE4FD491F901E856FE4FC491CC2346
:1007F00089F08111ADDEEC2FF0E0EE0FFF1FEB5B17
:10080000FD4FA591B491EC91ED2381E090E021F4AE
:1008100080E002C080E090E0DF91CF9108951F93C7
:10082000CF93DF93282F30E0F901E15AFD4F8491F7
:10083000F901EE5AFE4FD491F901E856FE4FC491EA
:10084000CC23C1F0162F811183DEEC2FF0E0EE0FE8
:10085000FF1FE55DFD4FA591B4918FB7F89411117D
:1008600005C09C91ED2FE095E92302C0EC91ED2BA2
:10087000EC938FBFDF91CF911F910895CF93DF93BA
:1008800090E0FC01EE5AFE4F2491FC01E856FE4F29
:100890008491882361F190E0880F991FFC01E85C46
:1008A000FE4FC591D491FC01E55DFD4FA591B4913A
:1008B000611109C09FB7F8948881209582238883AD
:1008C000EC912E230BC0623061F49FB7F89438810D
:1008D000822F809583238883EC912E2B2C939FBFAE
:1008E00006C08FB7F894E8812E2B28838FBFDF9145
:1008F000CF910895863308F0865390917B00282F7E
:100900002870977F922B90937B00877080648093F0
:100910007C0080917A00806480937A0080917A00D4
:1009200086FDFCCF809178002091790090E0922B99
:1009300008953FB7F8948091210E9091220EA091D6
:10094000230EB091240E26B5A89B05C02F3F19F0A9
:100950000196A11DB11D3FBFBA2FA92F982F88273F
:10096000820F911DA11DB11DBC01CD0142E0660F9A
:10097000771F881F991F4A95D1F708958F929F92EC
:10098000AF92BF92CF92DF92EF92FF926B017C0108
:10099000D0DF4B015C01C114D104E104F104E9F0A2
:1009A000C8DFDC01CB0188199909AA09BB09883E77
:1009B0009340A105B10578F321E0C21AD108E108FE
:1009C000F10888EE880E83E0981EA11CB11CC114AA
:1009D000D104E104F10421F7DECFFF90EF90DF9026
:1009E000CF90BF90AF909F908F9008951F920F92DD
:1009F0000FB60F9211242F933F938F939F93AF9332
:100A0000BF9380911D0E90911E0EA0911F0EB0916C
:100A1000200E30911C0E23E0230F2D3720F4019679
:100A2000A11DB11D05C026E8230F0296A11DB11D11
:100A300020931C0E80931D0E90931E0EA0931F0EEC
:100A4000B093200E8091210E9091220EA091230E42
:100A5000B091240E0196A11DB11D8093210E90939B
:100A6000220EA093230EB093240EBF91AF919F91BD
:100A70008F913F912F910F900FBE0F901F9018955F
:100A8000FF920F931F93CF93DF931F92CDB7DEB7E3
:100A90008C01F62E80E591E04983C8DD60E0F80125
:100AA0008781BDDE8F2D8064498150E0582B0CB4C6
:100AB00005FC0CC05EBD00000DB407FEFDCF8EB579
:100AC0004EBD00000DB407FEFDCF0BC04EBD0000B3
:100AD0000DB407FEFDCF8EB55EBD00000DB407FE60
:100AE000FDCF8EB561E0F801878199DE0F90DF912F
:100AF000CF911F910F91FF9081CD0F931F93CF93B3
:100B0000DF938C01C62F80E591E090DD60E0F80175
:100B1000878185DE8C2F8F7182DD80E080DD80E033
:100B20007EDDC82F80E07BDD6C2F70E0762F66279E
:100B3000EB01C80FD11D61E0F801878170DE5EDD39
:100B40008FE090E00197F1F7BE0180E090E0DF9147
:100B5000CF911F910F9108952F923F924F925F92E4
:100B60006F927F928F929F92AF92BF92CF92DF92BD
:100B7000EF92FF920F931F93CF93DF93CDB7DEB722
:100B8000C859D1090FB6F894DEBF0FBECDBFCF57FD
:100B9000DF4F2883C158D040CE57DF4F3883C2582B
:100BA000D040CD57DF4F4883C358D040CC57DF4F9C
:100BB0005883C458D040CB57DF4F6883C558D040C6
:100BC000CA57DF4F7883C658D040C957DF4F888354
:100BD000C758D040C857DF4F9883C858D040A12C81
:100BE0002F3FEFE03E07E5EA4E07E4ED5E07E8EE53
:100BF0006E0771058105910569F064F010E1B12E71
:100C000005EAC02EE4EDDE2EF8EEEF2EF12C00E02A
:100C100010E034C0E0EFBE2EFAE5CF2EABE2DA2EC4
:100C2000B7E1EB2EFF24FA940FEF1FEFCF57DF4F02
:100C30002881C158D040CE57DF4F3881C258D040AC
:100C4000CD57DF4F4881C358D040CC57DF4F588134
:100C5000C458D040CB57DF4F6881C558D040CA57E1
:100C6000DF4F7881C658D040C957DF4F8881C758B9
:100C7000D040C857DF4F9881C858D0400E94932A6F
:100C8000CF56DF4F2883C159D040CE56DF4F38832F
:100C9000C259D040CD56DF4F4883C359D040CC56BF
:100CA000DF4F5883C459D040CB56DF4F6883C559B6
:100CB000D040CA56DF4F7883C659D040C956DF4F5F
:100CC0008883C759D040C856DF4F9883C859D04051
:100CD000A12C40E1B42E55EAC52E64EDD62E78EE57
:100CE000E72EF12C00E010E0CF56DF4F2881C159EC
:100CF000D040CE56DF4F3881C259D040CD56DF4F5D
:100D00004881C359D040CC56DF4F5881C459D04098
:100D1000CB56DF4F6881C559D040CA56DF4F788126
:100D2000C659D040C956DF4F8881C759D040C856F0
:100D3000DF4F9881C859D0400E94402A59016A016A
:100D40007B018C01CF57DF4F2881C158D040CE574F
:100D5000DF4F3881C258D040CD57DF4F4881C3584C
:100D6000D040CC57DF4F5881C458D040CB57DF4FCD
:100D70006881C558D040CA57DF4F7881C658D040E7
:100D8000C957DF4F8881C758D040C857DF4F988177
:100D9000C858D0400E948F2B29013A014B011C01F9
:100DA000A0E00E94A12B34F40E941A2B29013A01E1
:100DB0004B011C0190E4A92E22E4B22E3FE0C32E89
:100DC000D12CE12CF12C00E010E09201A301B40140
:100DD000C1010E94932AC757DF4F2883C958D040CA
:100DE000C657DF4F3883CA58D040C557DF4F4883B6
:100DF000CB58D040C457DF4F5883CC58D040C3574E
:100E0000DF4F6883CD58D040C257DF4F7883CE582C
:100E1000D040C157DF4F8883CF58D040C057DF4FF5
:100E20009883C059D04005E00E94612BC757DF4F1F
:100E3000A880C958D040C657DF4FB880CA58D040A4
:100E4000C557DF4FC880CB58D040C457DF4FD8803C
:100E5000CC58D040C357DF4FE880CD58D040C25760
:100E6000DF4FF880CE58D040C157DF4F0881CF58B0
:100E7000D040C057DF4F1881C059D0400E948F2BFF
:100E800059016A017B01E82F192F06E00E94612BAE
:100E90000E2F0E948F2B03E00E94612BC757DF4F5C
:100EA000A880C958D040C657DF4FB880CA58D04034
:100EB000C557DF4FC880CB58D040C457DF4FD880CC
:100EC000CC58D040C357DF4FE880CD58D040C257F0
:100ED000DF4FF880CE58D040C157DF4F0881CF5840
:100EE000D040C057DF4F1881C059D0400E947A2BA4
:100EF00006E00E94612B59016A017B018C0192017D
:100F0000A301B401C1010E948F2B722E632E542EB7
:100F1000452E362E272EF82EE92ECF57DF4F28816B
:100F2000C158D040CE57DF4F3881C258D040CD573E
:100F3000DF4F4881C358D040CC57DF4F5881C45849
:100F4000D040CB57DF4F6881C558D040CA57DF4FDC
:100F50007881C658D040C957DF4F8881C758D040E4
:100F6000C857DF4F9881C858D040A0E00E94A12BFD
:100F700024F48EE79DE00E94FD11C856DF4F888162
:100F8000C859D0408F93C956DF4F9881C759D04078
:100F90009F93CA56DF4FE881C659D040EF93CB5696
:100FA000DF4F8881C559D0408F93CC56DF4F988151
:100FB000C459D0409F93CD56DF4FE881C359D040EC
:100FC000EF93CE56DF4F8881C259D0408F93CF56D2
:100FD000DF4F9881C159D0409F9380E89DE09F9357
:100FE0008F938E010F5F1F4F1F930F930E94D02B83
:100FF000C8010E94FD11C057DF4FE881C059D040A1
:10100000EF93C157DF4F8881CF58D0408F93C2579D
:10101000DF4F9881CE58D0409F93C357DF4FE88170
:10102000CD58D040EF93C457DF4F8881CC58D04083
:101030008F93C557DF4F9881CB58D0409F93C657A9
:10104000DF4FE881CA58D040EF93C757DF4F888100
:10105000C958D0408F9385E8882E8DE0982E9F92B6
:101060008F921F930F930E94D02BC8010E94FD11F5
:10107000EF92FF922F923F924F925F926F927F92E8
:101080009F928F921F930F930E94D02B0FB6F894CC
:10109000DEBF0FBECDBFC8010E94FD11C856DF4F95
:1010A0000FB6F894DEBF0FBECDBFDF91CF911F9179
:1010B0000F91FF90EF90DF90CF90BF90AF909F90F7
:1010C0008F907F906F905F904F903F902F900895FA
:1010D000EF92FF920F931F93CF93DF937C018B01CD
:1010E000C0E0D0E0F80161918F01CE018E0D9F1D0F
:1010F0000E94F92E2196C430D105A1F784E090E03A
:10110000DF91CF911F910F91FF90EF900895EF9293
:10111000FF920F931F93CF93DF938B010C5F1F4FB1
:10112000EB017C01E61AF70AC7018C0F9D1F0E9494
:10113000F12E8993C017D107B9F784E090E0DF91D1
:10114000CF911F910F91FF90EF900895EF92FF9232
:101150000F931F93CF93DF937C018B01C0E0D0E00E
:10116000F80161918F01CE018E0D9F1D0E94F92E15
:101170002196CD36D105A1F78DE690E0DF91CF9194
:101180001F910F91FF90EF9008952F923F924F92F1
:101190005F926F927F928F929F92AF92BF92CF9207
:1011A000DF92EF92FF920F931F93CF93DF93CDB710
:1011B000DEB7C958D1090FB6F894DEBF0FBECDBF58
:1011C00019012A01CF57DF4F6883C158D040CE574D
:1011D000DF4F7883C258D040CD57DF4F8883C35844
:1011E000D040CC57DF4F9883C458D04020E4A22E83
:1011F00032E4B32E4FE0C42ED12CE12CF12C00E0D0
:1012000010E09101A2010E94932AB22FE32FF42F44
:10121000A52F3B014C0105E00E94612BAB2EBE2E99
:10122000CF2EDA2E730184010E948F2B59016A019F
:101230007B01CB57DF4F8883C558D040192F06E07C
:101240000E94612BCB57DF4F0881C558D0400E94C8
:101250008F2B03E00E94612BAB2EBE2ECF2EDA2EF9
:10126000730184010E947A2B06E00E94612B5901D0
:101270006A017B018C019101A201CF57DF4F688188
:10128000C158D040CE57DF4F7881C258D040CD579B
:10129000DF4F8881C358D040CC57DF4F9881C45866
:1012A000D0400E948F2BAF93FF93EF93BF9380E8C2
:1012B0009DE09F938F938E010F5F1F4F1F930F939E
:1012C000CA57DF4F2883C658D040C957DF4F3883ED
:1012D000C758D040C857DF4F4883C858D040C75779
:1012E000DF4F5883C958D0400E94D02BC8010E94BC
:1012F000FD11C757DF4F5881C958D0405F93C85779
:10130000DF4F4881C858D0404F93C957DF4F3881CD
:10131000C758D0403F93CA57DF4F2881C658D040A6
:101320002F9385E89DE09F938F931F930F930E94C7
:10133000D02BC8010E94FD110FB6F894DEBF0FBE7E
:10134000CDBFC757DF4F0FB6F894DEBF0FBECDBF7E
:10135000DF91CF911F910F91FF90EF90DF90CF9091
:10136000BF90AF909F908F907F906F905F904F90C5
:101370003F902F900895CF9383EB9EE014D8892B54
:10138000D9F383EB9EE00E94B101C82F9BD48C2F30
:10139000CF910895CF931092B00E1092AF0ECDE082
:1013A000EADF2091AF0E3091B00E2E37310524F4D4
:1013B0008A3011F08D3091F4C90101969093B00EEE
:1013C0008093AF0EF901E15DF14FC083FC01E15D57
:1013D000F14F1082029724F3CF910895883089F459
:1013E00080E270D488E06ED48091AF0E9091B00E00
:1013F00018161906ACF601979093B00E8093AF0EB5
:10140000CFCFA9014F5F5F4F5093B00E4093AF0E07
:10141000F901E15DF14F8083C3CF1F920F920FB6A8
:101420000F9211240BB60F922F933F934F935F931C
:101430006F937F938F939F93AF93BF93CF93EF93CC
:10144000FF9320910601C0911A0E9091190E809180
:10145000180E322F309583239223892B90916D00A3
:10146000C227C923C82320931A0ECC23C1F1C0FF81
:1014700005C0E091080EF091090E1995C1FF05C055
:10148000E0910A0EF0910B0E1995C2FF05C0E09194
:101490000C0EF0910D0E1995C3FF05C0E0910E0ED4
:1014A000F0910F0E1995C4FF05C0E091100EF09158
:1014B000110E1995C5FF05C0E091120EF091130EA3
:1014C0001995C6FF05C0E091140EF091150E1995FF
:1014D000C7FF05C0E091160EF091170E1995FF9108
:1014E000EF91CF91BF91AF919F918F917F916F912C
:1014F0005F914F913F912F910F900BBE0F900FBEB8
:101500000F901F9018951F920F920FB60F921124F3
:101510000BB60F922F933F934F935F936F937F93ED
:101520008F939F93AF93BF93CF93EF93FF932091AC
:101530000301C091070E9091060E8091050E322F87
:10154000309583239223892B9091040EC227C923BF
:10155000C8232093070ECC2389F1C0FF05C0E0917A
:10156000F60DF091F70D1995C1FF05C0E091F80D4A
:10157000F091F90D1995C2FF05C0E091FA0DF091B7
:10158000FB0D1995C3FF05C0E091FC0DF091FD0D19
:101590001995C4FF05C0E091FE0DF091FF0D19955E
:1015A000C5FF05C0E091000EF091010E1995C6FF30
:1015B00005C0E091020EF091030E1995FF91EF9195
:1015C000CF91BF91AF919F918F917F916F915F91DB
:1015D0004F913F912F910F900BBE0F900FBE0F9028
:1015E0001F9018951F920F920FB60F9211240BB6F1
:1015F0000F922F933F934F935F936F937F938F93AC
:101600009F93AF93BF93CF93EF93FF9323B1C09179
:10161000F50D9091F40D8091F30D322F30958323C9
:101620009223892B90916B00C227C923C823209352
:10163000F50DCC23C1F1C0FF05C0E091E30DF091A1
:10164000E40D1995C1FF05C0E091E50DF091E60D9F
:101650001995C2FF05C0E091E70DF091E80D1995CD
:10166000C3FF05C0E091E90DF091EA0D1995C4FFA3
:1016700005C0E091EB0DF091EC0D1995C5FF05C08B
:10168000E091ED0DF091EE0D1995C6FF05C0E091CA
:10169000EF0DF091F00D1995C7FF05C0E091F10D28
:1016A000F091F20D1995FF91EF91CF91BF91AF910C
:1016B0009F918F917F916F915F914F913F912F916A
:1016C0000F900BBE0F900FBE0F901F9018951F929A
:1016D0000F920FB60F9211240BB60F922F933F93D8
:1016E0004F935F936F937F938F939F93AF93BF932A
:1016F000EF93FF93E091E10DF091E20D1995FF91C9
:10170000EF91BF91AF919F918F917F916F915F9179
:101710004F913F912F910F900BBE0F900FBE0F90E6
:101720001F9018951F920F920FB60F9211240BB6AF
:101730000F922F933F934F935F936F937F938F936A
:101740009F93AF93BF93EF93FF93E091DF0DF091E1
:10175000E00D1995FF91EF91BF91AF919F918F91FE
:101760007F916F915F914F913F912F910F900BBEA1
:101770000F900FBE0F901F9018951F920F920FB6EB
:101780000F9211240BB60F922F933F934F935F93B9
:101790006F937F938F939F93AF93BF93EF93FF9339
:1017A000E091DD0DF091DE0D1995FF91EF91BF9164
:1017B000AF919F918F917F916F915F914F913F91E9
:1017C0002F910F900BBE0F900FBE0F901F9018958A
:1017D0001F920F920FB60F9211240BB60F922F93F8
:1017E0003F934F935F936F937F938F939F93AF93A9
:1017F000BF93EF93FF93E091DB0DF091DC0D199512
:10180000FF91EF91BF91AF919F918F917F916F91D8
:101810005F914F913F912F910F900BBE0F900FBE94
:101820000F901F9018951F920F920FB60F921124D0
:101830000BB60F922F933F934F935F936F937F93CA
:101840008F939F93AF93BF93EF93FF93E091D90D45
:10185000F091DA0D1995FF91EF91BF91AF919F91A2
:101860008F917F916F915F914F913F912F910F9049
:101870000BBE0F900FBE0F901F9018951F920F92E6
:101880000FB60F9211240BB60F922F933F934F93E5
:101890005F936F937F938F939F93AF93BF93EF93D8
:1018A000FF93E091D70DF091D80D1995FF91EF912D
:1018B000BF91AF919F918F917F916F915F914F9168
:1018C0003F912F910F900BBE0F900FBE0F901F9066
:1018D00018951F920F920FB60F9211240BB60F920C
:1018E0002F933F934F935F936F937F938F939F9328
:1018F000AF93BF93EF93FF93E091D50DF091D60D89
:101900001995FF91EF91BF91AF919F918F917F9129
:101910006F915F914F913F912F910F900BBE0F9060
:101920000FBE0F901F9018951F920F920FB60F9237
:1019300011240BB60F922F933F934F935F936F93A6
:101940007F938F939F93AF93BF93EF93FF93E09118
:10195000D30DF091D40D1995FF91EF91BF91AF91F7
:101960009F918F917F916F915F914F913F912F91B7
:101970000F900BBE0F900FBE0F901F901895542F15
:101980008F779EEF980F923008F4B6C095EB980FC2
:10199000923008F4B1C09EEE980F943008F4ACC0B9
:1019A000282F30E0F901863438F0E45BFE4F849153
:1019B000433009F063C115C0EE5AFE4F8491F9011E
:1019C000E856FE4F9491433011F04130B9F4923013
:1019D00031F44091F40D482B4093F40D0FC09A3030
:1019E00031F49091060E982B9093060E4AC19B30CD
:1019F00029F44091190E482B4093190E4FEF450FD3
:101A00004230B8F4923031F44091F30D482B4093BA
:101A1000F30D0FC09A3031F44091050E482B4093DE
:101A2000050E07C09B3029F44091180E482B4093B7
:101A3000180EF901E252FE4FA4919230C1F4B0E0C9
:101A4000AA0FBB1FAD51B24F6D937C93E9E4F2E056
:101A5000A591B4919C919093F50D2BE630E03093D5
:101A6000D20D2093D10D9091680091603BC09A30C7
:101A700001F5B0E0AA0FBB1FAA50B24F6D937C9343
:101A8000E9E5F2E0A591B4919C919093070E2CE6C4
:101A900030E03093D20D2093D10D90916800926088
:101AA000909368009091040E982B9093040E880FE9
:101AB0001BC09B30C9F4B0E0AA0FBB1FA85FB14F99
:101AC0006D937C93EBE5F2E0A591B4919C9190939A
:101AD0001A0E2DE630E03093D20D2093D10D909167
:101AE0006800946090936800A091D10DB091D20DE0
:101AF000EC918E2B8C9308959FB7F894833109F461
:101B000064C0E0F4833009F48CC0823109F473C0FE
:101B1000823009F0B1C07093DC0D6093DB0DEC985E
:101B200080916A008C7F80936A0080916A00452FC3
:101B3000482B40936A00E49AEC9A9EC08531E9F004
:101B400070F18B3409F483C08C3409F095C0709324
:101B5000E20D6093E10DEF9880916A008F7380939E
:101B60006A0080916A0020E4529FA0011124482B52
:101B700040936A00E79AEF9A7FC07093D40D609308
:101B8000D30DE898809169008C7F80936900409123
:101B90006900452B40936900E09AE89A6DC0709304
:101BA000D60D6093D50DE99880916900837F80936D
:101BB00069008091690024E0529FA0011124482B04
:101BC00040936900E19AE99A57C07093D80D6093E9
:101BD000D70DEA98809169008F7C8093690080918D
:101BE000690020E1529FA0011124482B4093690015
:101BF000E29AEA9A41C07093DA0D6093D90DEB989E
:101C0000809169008F73809369008091690020E45E
:101C1000529FA0011124482B40936900E39AEB9A4C
:101C20002BC07093DE0D6093DD0DED9880916A00FE
:101C3000837F80936A0080916A0024E0529FA00114
:101C40001124482B40936A00E59AED9A15C07093D1
:101C5000E00D6093DF0DEE9880916A008F7C809399
:101C60006A0080916A0020E1529FA0011124482B54
:101C700040936A00E69AEE9A9FBF0895413009F4B6
:101C8000B0CE9AE0BBCE009769F0FC010190002035
:101C9000E9F73197AF01481B590BBC0183EB9EE07C
:101CA0000C94860180E090E008958BE89DE0EBCFF6
:101CB000CF93DF93E8DFEC01F8DF8C0F9D1FDF91FE
:101CC000CF910895E091B30EF091B40E0190F081A0
:101CD000E02D682F83EB9EE019948091B10E9091D6
:101CE000B20E2091AF0E3091B00E82179307ACF474
:101CF000FC01E15DF14F8081E5DF8091B10E9091B3
:101D0000B20E9C012F5F3F4F3093B20E2093B10E65
:101D1000FC01E15DF14F808108952DCB2F923F9220
:101D20004F925F926F927F928F929F92AF92BF92EB
:101D3000CF92DF92EF92FF920F931F93CF93DF9397
:101D4000CDB7DEB72E970FB6F894DEBF0FBECDBF6E
:101D50009A8389831092AF101092B0101092B11034
:101D60001092B2101092B3101092B4101092B510DD
:101D70001092B6101092A7101092A8101092A910ED
:101D80001092AA101092AB101092AC101092AD10DD
:101D90001092AE101092270E1092280E1092290E5B
:101DA00010922A0E10922B0E10922C0E10922D0EC5
:101DB00010922E0E81E08093000210920102109288
:101DC0000202109203021092040210920502109275
:101DD0000602109207021092260E1092250E7DDF49
:101DE000182F082E000C990B0E94B12B892BB9F7E4
:101DF0001B3219F472DF182F09C01D3239F46DDF60
:101E0000182F81E090E09C878B8702C01C861B8680
:101E1000EE24E394F12C103339F45FDF182FF092A5
:101E2000260EE092250EF7CF812F012E000C990B84
:101E3000C0970A9708F057C022242394312CE12F31
:101E4000012E000CFF0BF097EA30F10508F048C0B6
:101E50003092260E2092250E2091AF103091B010B6
:101E60004091B1105091B2106091B3107091B410C4
:101E70008091B5109091B61001E00E94612B29016C
:101E80003A014B01B82FA92F02E00E94612B5901A2
:101E90006A017B018C019201A301B4018B2F9A2F5F
:101EA0000E947A2B1F2F110F110B5F01C12ED12E13
:101EB000E12EF12E012F0E947A2B2093AF10309348
:101EC000B0104093B1105093B2106093B310709360
:101ED000B4108093B5109093B610FFDE182FAFCFDB
:101EE0001E861D8610C01E3299F4F7DE182F1E863E
:101EF0001D86103341F4AD85BE851197BE87AD8731
:101F0000ECDE182FF6CF1E3229F4E7DE182F02C0C0
:101F10001E861D8688248394912CE12F012E000CAF
:101F2000FF0BF097EA30F10508F04DC09092260EB5
:101F30008092250E2091AF103091B0104091B110D9
:101F40005091B2106091B3107091B4108091B5109F
:101F50009091B61001E00E94612B19012A013B010A
:101F6000B82FA92F02E00E94612B59016A017B0161
:101F70008C019101A201B3018B2F9A2F0E947A2B21
:101F80001F2F110F110B5F01C12ED12EE12EF12E4B
:101F9000012F0E947A2B2093AF103093B010409302
:101FA000B1105093B2106093B3107093B41080933B
:101FB000B5109093B610ED85FE853197FE87ED87BD
:101FC0008CDE182FAACF1F7D153489F586DE8B3263
:101FD00011F483DE06C08D3221F47FDE01E010E0D3
:101FE00002C000E010E0803311F477DEFCCFE12C7A
:101FF000F12C9AE0D92E082E000C990BC0978A304C
:10200000910550F4DE9C9001DF9C300D1124790184
:10201000E80EF91E62DEEFCF012B19F0F194E19486
:10202000F1088D859E858E0D9F1D9E878D878091E1
:10203000250E9091260E892B09F455C18090AF1082
:102040009090B0109091B1109B83A091B210AC838E
:10205000B091B310BD83E091B410EE836090B510E1
:102060007090B6108092A7109092A8109093A9102B
:10207000A093AA10B093AB10E093AC106092AD1097
:102080007092AE108D859E8597FF8CC030900002B7
:1020900020900102909102029F83A0910302A887E1
:1020A000B0910402B987E0910502EA8750900602D8
:1020B00040900702232D322D4F81588569857A85FE
:1020C000852D942D01E00E94612B19012A01B62F64
:1020D000A72FF82FE92F02E00E94612B59016A0116
:1020E0007B018C019101A2016B2F7A2F8F2F9E2FE4
:1020F0000E947A2B322E232E4F83588769877A8746
:10210000582E492E8D859E8501969E878D87892B19
:1021100089F630920002209201024093020250930D
:1021200003026093040270930502509206024092EB
:102130000702A32CB22CC42ED52EE62EF72E052D89
:10214000142D94014B815C816D817E81C3010E94BD
:10215000912A2093270E3093280E4093290E5093F6
:102160002A0E60932B0E70932C0E80932D0E90935D
:102170002E0E94014B815C816D817E81C3010E9492
:10218000932A2093A7103093A8104093A91050933E
:10219000AA106093AB107093AC108093AD10909325
:1021A000AE103EC08D859E85892BD1F1E0E0F0E038
:1021B00094014B815C816D817E81C30101E00E94AD
:1021C000612B29013A014B01B82FA92F02E00E948F
:1021D000612B59016A017B018C019201A301B401B9
:1021E0008B2F9A2F0E947A2B49014B835C836D833E
:1021F0007E833C013196AD85BE85EA17FB07C1F6AB
:102200002093A7109092A8104093A9105093AA1061
:102210006093AB107093AC106092AD107092AE10E2
:10222000AB85BC85AB2B09F444C02091A71030913D
:10223000A8104091A9105091AA106091AB10709114
:10224000AC108091AD109091AE100E941A2B20938B
:10225000A7103093A8104093A9105093AA10609330
:10226000AB107093AC108093AD109093AE10209192
:10227000270E3091280E4091290E50912A0E609120
:102280002B0E70912C0E80912D0E90912E0E0E948F
:102290001A2B2093270E3093280E4093290E50932B
:1022A0002A0E60932B0E70932C0E80932D0E90931C
:1022B0002E0E8091A710E981FA8180838091A81069
:1022C00081838091A91082838091AA108383809159
:1022D000AB1084838091AC1085838091AD10868390
:1022E0008091AE1087832E960FB6F894DEBF0FBE96
:1022F000CDBFDF91CF911F910F91FF90EF90DF90B5
:10230000CF90BF90AF909F908F907F906F905F9095
:102310004F903F902F9008958F929F92AF92BF92CF
:102320000F931F93CF93DF93CDB7DEB7A1970FB66F
:10233000F894DEBF0FBECDBF19A2423008F44AE0C8
:102340008E010F5D1F4F842E912CA12CB12CA50165
:1023500094010E94332FE62FB901CA0101501109DF
:10236000EA3014F4E05D01C0E95CD801EC93232B62
:10237000242B252B61F7C80186DCA1960FB6F894B3
:10238000DEBF0FBECDBFDF91CF911F910F91BF90E8
:10239000AF909F908F900895CF92DF92EF92FF922F
:1023A000CF93DF9397FF17C06B017C018DE28ADC2E
:1023B000EC0166277727CB016C197D098E099F09EF
:1023C0004AE0AADF8C0F9D1FDF91CF91FF90EF9025
:1023D000DF90CF9008954AE0DF91CF91FF90EF908A
:1023E000DF90CF9099CFCF93DF93D6DFEC015DDC08
:1023F0008C0F9D1FDF91CF91089545CCCF93DF9334
:1024000061DCEC0152DC8C0F9D1FDF91CF910895B0
:10241000CF93DF93CDB7DEB7C658D1400FB6F8944F
:10242000DEBF0FBECDBF789484B5826084BD84B515
:10243000816084BD85B5826085BD85B5816085BDBF
:1024400080916E00816080936E0010928100809177
:1024500081008260809381008091810081608093FF
:102460008100809180008160809380008091B10024
:1024700084608093B1008091B00081608093B0004F
:1024800080919100826080939100809191008160A1
:102490008093910080919000816080939000809162
:1024A000A10082608093A1008091A100816080934F
:1024B000A1008091A00081608093A0008091210103
:1024C00082608093210180912101816080932101AC
:1024D0008091200181608093200180917A00846046
:1024E00080937A0080917A00826080937A00809154
:1024F0007A00816080937A0080917A00806880936E
:102500007A001092C1001E010BED200E311C9101CA
:102510002F5F3F4FCE57DE4F39832883C258D140BB
:102520004EE650E04C0F5D1F4D5E5F4FCC57DE4FC7
:1025300059834883C458D140BE01605B7E4FC85A5E
:10254000DE4F79836883C855D14060E082E10E9404
:102550003E0461E08CE00E943E0461E08DE00E9458
:102560003E0461E082E40E943E0461E083E40E9454
:102570003E048091080180648093080180910801E5
:102580008061809308018091080180688093080130
:102590008091080180628093080180910801886021
:1025A0008093080183EB9EE00E944F02E091C50EEC
:1025B000F091C60E80818F7E8083E091C50EF091F0
:1025C000C60E8081877F8083E091C50EF091C60E94
:1025D00080818F778083E091C50EF091C60E808157
:1025E0008F7D80838091CD0E8093CC0EE091C30EC1
:1025F000F091C40E82E08083E091BF0EF091C00E96
:102600001082E091C10EF091C20E80E180831092A1
:10261000CB0EE091C70EF091C80E86E08083E0916A
:10262000C50EF091C60E808180618083E091C50E59
:10263000F091C60E808188608083E091C50EF09194
:10264000C60E808180688083E091C50EF091C60E31
:1026500080818F7D80839FB7F8948091970D882328
:1026600019F081508093970D8091970D811105C0CD
:102670008CB58F7B8CBD10928E0D9FBF1FB7F894C9
:102680008091970D811127C0EDECF1E08491E7E88E
:10269000F1E09491E82FF0E0EE0FFF1FE85CFE4FB1
:1026A000A591B491EC91E92321F461E085E30E94C6
:1026B0000F0461E085E30E943E048CB580618CBD0F
:1026C0008CB580648CBD61E084E30E943E0461E0CF
:1026D00083E30E943E048091970D8F5F8093970D56
:1026E0001FBFBE01685B7E4F80EF9FE00E9487089E
:1026F000B10184EF9FE00E948708C85BDE4F8881AC
:102700009981AA81BB81C854D1408F3F7FEF970741
:10271000A707B70761F4F10180819181A281B3819C
:102720008F3F9F4FAF4FBF4F09F095C00FC0892B10
:102730008A2B8B2B09F08FC0F10180819181A281BE
:10274000B381892B8A2B8B2B09F085C082E392E021
:10275000AFDA86E30E947A04BC01990F880B990BCB
:10276000611571058105910511F00E94E82E0E9406
:10277000E52E2FEF3FEF40E050E00E94072FC85BAF
:10278000DE4F688379838A839B83C854D14089E371
:102790000E947A04BC01990F880B990B6115710591
:1027A0008105910511F00E94E82E0E94E52E2FEF81
:1027B0003FEF40E050E00E94072FD1016D937D93E1
:1027C0008D939C931397BE01685B7E4F80EF9FE0D3
:1027D0000E946808B10184EF9FE00E946808F1013F
:1027E00083818F9382818F9381818F9380818F9357
:1027F000C55BDE4F8881CB54D1408F93C65BDE4FE3
:102800008881CA54D1408F93C75BDE4F8881C954F9
:10281000D1408F93C85BDE4F8881C854D1408F93DD
:1028200087E592E09F938F9388E99DE09F938F9334
:102830000E94D02B80EB93E0E0DD88E99DE038DA60
:102840006CE47DE180E090E00E94BE040FB6F89455
:10285000DEBF0FBECDBFD10113968C9113978F931E
:1028600012968C9112978F9311968C9111978F934A
:102870008C918F93C55BDE4F8881CB54D1408F9371
:10288000C65BDE4F8881CA54D1408F93C75BDE4F51
:102890008881C954D1408F93C85BDE4F8881C8546A
:1028A000D1408F9387E592E09F938F9388E99DE0D5
:1028B0009F938F930E94D02B80E090E00E94F12E96
:1028C0000FB6F894DEBF0FBECDBF883009F449C102
:1028D00082E692E0EDD988E0D1018C9341E150E0AD
:1028E0006CE072E0CE57DE4F88819981C258D140AA
:1028F0000E94C12B84E4F101828B41E150E068E940
:102900007DE0C10143960E94C12BD10194961C9297
:10291000949795961C92959780E896968C939697A7
:1029200086E997968C93979788E998968C939897D1
:1029300099961C9299979A961C929A979B961C929C
:102940009B979C961C929C979D961C929D979E96F9
:102950001C929E9781EE9F968C939F9785EFD096C1
:102960008C93D09785E0D1968C93D197D2961C9278
:10297000D297D3961C92D397D4961C92D497D5967F
:102980001C92D59784E190E0D7969C938E93D6972E
:1029900085E090E0D9969C938E93D8978DE4DA9653
:1029A0008C93DA9782E5DB968C93DB97DC968C939D
:1029B00094ECF101FD96908389E081831282138269
:1029C0001482158216821782C05EDE4F9883C05231
:1029D000D140CF5DDE4F8883C152D140CE5DDE4F06
:1029E0001882C252D140CD5DDE4F1882C352D14011
:1029F000CC5DDE4F1882C452D140CB5DDE4F1882D1
:102A0000C552D140CA5DDE4F1882C652D140C95D61
:102A1000DE4F1882C752D140C85DDE4F1882C852BF
:102A2000D140C75DDE4F1882C952D140C65DDE4F2E
:102A30001882CA52D140C55DDE4F1882CB52D140B8
:102A4000C45DDE4F1882CC52D140C35DDE4F188288
:102A5000CD52D140C25DDE4F1882CE52D140C15D11
:102A6000DE4F1882CF52D140C05DDE4F1882C05376
:102A7000D140CF5CDE4F1882C153D140CE5CDE4FD7
:102A80001882C253D140CD5CDE4F1882C353D1406F
:102A9000CC5CDE4F1882C453D140CB5CDE4F188231
:102AA000C553D140CA5CDE4F1882C653D140C95CC1
:102AB000DE4F1882C753D140C85CDE4F1882C8531E
:102AC000D140C75CDE4F1882C953D140C65CDE4F8F
:102AD0001882CA53D140C55CDE4F1882CB53D14017
:102AE000C45CDE4F1882CC53D140C35CDE4F1882E9
:102AF000CD53D140C25CDE4F1882CE53D140C15C71
:102B0000DE4F1882CF53D140C05CDE4F1882C054D4
:102B1000D140CF5BDE4F1882C154D140CE5BDE4F37
:102B20001882C254D140CD5BDE4F1882C354D140CD
:102B3000CC5BDE4F1882C454D140CB5BDE4F188291
:102B4000C554D140CA5BDE4F1882C654D140C95B20
:102B5000DE4F1882C754D140B10180E090E00E945E
:102B6000A608EAE3F0E1CE59DE4FF983E883C256C6
:102B7000D1407F0100E010E0C8010E94F12ED70192
:102B80008D937D010F5F1F4F0D361105A9F78091C1
:102B90005E108093B20D89D887E892E089D888EAE0
:102BA00092E086D882D888ED92E082D88EEE92E0CC
:102BB0007FD88DE6EAE3F0E1DE01A259BF4F019034
:102BC0000D928A95E1F785E093E017DCCE56DF4F52
:102BD0008881C259D040823081F038F4882351F086
:102BE0008130A1F48BE293E010C0833049F084304F
:102BF00051F00CC08AE193E008C084E293E005C084
:102C00008EE393E055D880E593E052D886E593E0D3
:102C1000F4DBCD56DF4F8881C359D040882311F0B3
:102C2000EDDB03C089E693E043D88EE693E0E5DB75
:102C300080E090E00E94F12E682F70E080E090E04C
:102C40004AE06ADB81E893E0D8DBC058DF4F888137
:102C5000C058D040D3DB83E993E0CFDB8CE092E037
:102C600027D888EA93E0C9DBCC57DE4F8881998169
:102C7000C458D1401DD880EC93E0BFDBCC56DF4F69
:102C80002881C459D040CB56DF4F3881C559D04038
:102C9000CA56DF4F4881C659D040C956DF4F5881C8
:102CA000C759D040C856DF4F6881C859D040C75671
:102CB000DF4F7881C959D040C656DF4F8881CA5945
:102CC000D040C556DF4F9881CB59D0400E94C508EF
:102CD00080ED93E00E94580E85ED93E08EDBC456A4
:102CE000DF4F2881CC59D040C356DF4F3881CD59B2
:102CF000D040C256DF4F4881CE59D040C156DF4F39
:102D00005881CF59D040C056DF4F6881C05AD0405B
:102D1000CF55DF4F7881C15AD040CE55DF4F8881E3
:102D2000C25AD040CD55DF4F9881C35AD0400E943F
:102D3000C50885EE93E00E94580E8BEE93E05DDBB4
:102D4000CC55DF4F68817981C45AD040072E000CE2
:102D5000880B990B21DB0E94550E8BEF93E04DDB26
:102D6000C855DF4F8881C85AD04048DB88E094E0DE
:102D700044DBC955DF4F8881C75AD0408F93CA556D
:102D8000DF4F8881C65AD0408F9384E194E09F93AF
:102D90008F933F922F920E94D02BC1010E94580E18
:102DA0008BE194E02ADBC755DF4F8881C95AD040B8
:102DB0000E94620E8CE294E020DBC655DF4F8881D2
:102DC000CA5AD0400E94620E85E394E00E94580ED9
:102DD0008CE394E012DBEEE6F0E0EC0FFD1FFD96D5
:102DE0006081718182819381D7DA8CE294E005DB86
:102DF000CD54DF4F688179818A819B81C35BD0404C
:102E0000CBDA85E394E00E94580E8EE494E0F5DA84
:102E1000C554DF4F688179818A819B81CB5BD0402B
:102E2000BBDA8CE294E0E9DACD53DF4F6881798137
:102E30008A819B81C35CD040AFDA85E394E00E9435
:102E4000580E8EE594E0D9DAC553DF4F6881798159
:102E50008A819B81CB5CD0409FDA8CE294E0CDDA12
:102E6000CD52DF4F688179818A819B81C35DD040DB
:102E700093DA85E394E00E94580E88ED92E00E9478
:102E8000580E89E694E00E94580E8EE894E0B5DA78
:102E90000F900F900F900F900F900F9007E010E0A1
:102EA0006AEF70E080E090E00E94BE048EE20E9433
:102EB000620E83EB9EE00E94D301892B11F011E09A
:102EC00032C06AEF70E080E090E00E94BE048EE2C3
:102ED0000E94620E83EB9EE00E94D301892B79F75A
:102EE0006AEF70E080E090E00E94BE048EE20E94F3
:102EF000620E83EB9EE00E94D301892B01F76AEFFB
:102F000070E080E090E00E94BE048EE20E94620EBB
:102F100083EB9EE00E94D301892B89F601501109B1
:102F200009F0BECF10E083EB9EE00E94D301892B15
:102F300029F083EB9EE00E94B101F5CF112309F443
:102F400035C70E94550E0E94550E81E994E055DA6E
:102F5000E0915E10E53028F4F0E0E35EFD4F808103
:102F600001C08FE30E94620E8EEA94E00E94580E28
:102F700087EC94E042DA80915F10882329F00E9468
:102F8000620E84EE94E005C083E498E036DA88EEC1
:102F900094E00E94580E81E095E02FDA20916010B5
:102FA00030916110409162105091631060916410F3
:102FB0007091651080916610909167100E94C5080D
:102FC0008EE195E00E94580E80E395E016DA20919C
:102FD00068103091691040916A1050916B106091A7
:102FE0006C1070916D1080916E1090916F100E9416
:102FF000C5088DE495E00E94580E8FE595E0FDD957
:103000006091701070917110072E000C880B990B55
:10301000C3D98CE795E00E94580E85E995E0EDD97B
:103020008091721090917310092E000CAA0BBB0BAB
:10303000BF93AF939F938F93A2EBB5E0BF93AF93F2
:10304000C75ADE4FF881C955D140FF93C85ADE4FA9
:103050000881C855D1400F930E94D02BCE01805BD0
:103060009E4FCBD989EB95E00E94580E82ED95E0FA
:10307000C4D9809174100E94620E8FEE95E00E9478
:10308000580E88E096E0B9D9809175100E94620EC2
:1030900080E20E94620E809176100E94620E85E2AC
:1030A00096E00E94580E8CE396E0A7D960917710C5
:1030B000709178108091791090917A106DD980E29A
:1030C0000E94620E60917F1070918010809181103B
:1030D0009091821061D989E596E00E94580E8DE6A4
:1030E00096E08BD96091871070918810809189103B
:1030F00090918A1051D980E20E94620E60918F10E7
:1031000070919010809191109091921045D98AE819
:1031100096E00E94580E81EA96E06FD96091971070
:10312000709198108091991090919A1035D980E201
:103130000E94620E60919F107091A0108091A1106A
:103140009091A21029D98AE896E00E94580E0E9418
:10315000550E8EEB96E00E94580E8EED96E00E9482
:10316000580E8CEF96E00E94580E8FE197E00E9477
:10317000580E0E94BB09082E000C990B0E94B92B17
:10318000182F0E94550E0FB6F894DEBF0FBECDBFAC
:10319000812F110F990BAA0BBB0BFC01E354F10912
:1031A000E831F10508F0FDC58827EE58FF4F8F4F35
:1031B0000C94382A8CE297E00E94580E0E94550E1B
:1031C0008BE597E00E94580E83E797E00E94580E27
:1031D00088E897E00E94580E89EA97E00E94580E0E
:1031E00088EC97E00E94580E0E94550E8CED97E0F7
:1031F00004D90E94BB09082E000C990B0E94B92B20
:103200008C349105A1F044F484349105A1F0893403
:10321000910599F481E00CC08035910531F0843539
:10322000910559F410925E108CCE82E001C083E0CB
:1032300080935E1086CE84E0FBCF89EE97E00E94FB
:10324000580ED7CF85E098E0D8D880915F108823BA
:1032500019F00E94620E03C083E498E0CED885E1A5
:1032600098E00E94580E0E94BB09082E000C990B92
:103270000E94B92B803209F480E080935F1061CE08
:1032800089E498E0BAD820916010309161104091A3
:10329000621050916310609164107091651080917C
:1032A0006610909167100E94C50886E598E00E941C
:1032B000580E8AE798E00E94580E0E94CA091092A0
:1032C000B20E1092B10EC1010E948E0ED1015C901F
:1032D00011966C90119712967C90129713968C9081
:1032E000139714969C9014971596BC91F101468003
:1032F000F781C65ADE4FF883CA55D140252D362DA9
:10330000472D582D692D7B2F842D9F2FAFEF0E94C5
:10331000832BAFE00E94A12B11F008F012CE252DD7
:10332000362D472D582D692D7B2F842D9F2F05E09D
:103330000E94612BA52CB62CC72CD82CE92CFB2E77
:10334000042D1F2F0E948F2B59016A017B01A82F8A
:10335000192F06E00E94612B0A2F0E948F2B03E099
:103360000E94612BA52CB62CC72CD82CE92CFB2E47
:10337000042D1F2F0E947A2B06E00E94612B422E03
:10338000CC59DE4F3883C456D140C359DE4F4883F1
:10339000CD56D140C65ADE4F5883CA55D140CA597E
:1033A000DE4F6883C656D140C659DE4F7883CA5671
:1033B000D140C559DE4F8883CB56D140C459DE4F2A
:1033C0009883CC56D1407090270E8090280E909014
:1033D000290EB0912A0EA0912B0EF0912C0EE091A7
:1033E0002D0E50902E0E272D382D492D5B2F6A2F34
:1033F0007F2F8E2F952D05E00E94612BA72CB82CD6
:10340000C92CDB2EEA2EFF2E0E2F152D0E948F2B9E
:1034100059016A017B01682E192F06E00E94612B79
:10342000062D0E948F2B03E00E94612BA72CB82C45
:10343000C92CDB2EEA2EFF2E0E2F152D0E947A2B83
:1034400006E00E94612BA0900002B0900102C090A3
:103450000202D0900302E0900402F0900502009175
:103460000602109107020E94932A59016A017B010A
:103470008C01242DCC59DE4F3881C456D140C3591C
:10348000DE4F4881CD56D140C65ADE4F5881CA55CD
:10349000D140CA59DE4F6881C656D140C659DE4F69
:1034A0007881CA56D140C559DE4F8881CB56D1406C
:1034B000C459DE4F9881CC56D1400E947A2B20937C
:1034C00060103093611040936210509363106093CA
:1034D000641070936510809366109093671031CDDF
:1034E00081EC98E00E94FD112091681030916910E4
:1034F00040916A1050916B1060916C1070916D103A
:1035000080916E1090916F100E94C50884ED98E034
:103510000E94580E89EE98E00E94580E0E94CA0937
:103520001092B20E1092B10EC1010E948E0ED10106
:103530005C9011966C90119712967C90129713964E
:103540008C90139714969C9014971596BC91F1014A
:103550004680F781C65ADE4FF883CA55D140252DE3
:10356000362D472D582D692D7B2F842D9F2FA0E0C0
:103570000E94A12B09F00CF4E4CC05E00E94612B21
:10358000A52CB62CC72CD82CE92CFB2E042D1F2FD4
:103590000E948F2B59016A017B01A82F192F06E089
:1035A0000E94612B0A2F0E948F2B03E00E94612B47
:1035B000A52CB62CC72CD82CE92CFB2E042D1F2FA4
:1035C0000E947A2B06E00E94612B422ECC59DE4FDE
:1035D0003883C456D140C359DE4F4883CD56D140BD
:1035E000C65ADE4F5883CA55D140CA59DE4F688348
:1035F000C656D140C659DE4F7883CA56D140C55908
:10360000DE4F8883CB56D140C459DE4F9883CC56C9
:10361000D1407090270E8090280E9090290EB09186
:103620002A0EA0912B0EF0912C0EE0912D0E5090B1
:103630002E0E272D382D492D5B2F6A2F7F2F8E2F91
:10364000952D05E00E94612BA72CB82CC92CDB2EF0
:10365000EA2EFF2E0E2F152D0E948F2B59016A0185
:103660007B01682E192F06E00E94612B062D0E9417
:103670008F2B03E00E94612BA72CB82CC92CDB2ECA
:10368000EA2EFF2E0E2F152D0E947A2B06E00E94A7
:10369000612BA0900002B0900102C0900202D09075
:1036A0000302E0900402F0900502009106021091DE
:1036B00007020E94932A59016A017B018C01242D83
:1036C000CC59DE4F3881C456D140C359DE4F4881B2
:1036D000CD56D140C65ADE4F5881CA55D140CA593D
:1036E000DE4F6881C656D140C659DE4F7881CA5632
:1036F000D140C559DE4F8881CB56D140C459DE4FE9
:103700009881CC56D1400E947A2B20936810309338
:10371000691040936A1050936B1060936C10709313
:103720006D1080936E1090936F100BCC8FE299E028
:103730000E94FD116091701070917110072E000CA5
:10374000880B990B0E94CC1184E499E00E94580EDA
:1037500081E799E00E94580E0E94CA091092B20EA9
:103760001092B10EC1010E948E0E8091250E909193
:10377000260E892B09F4E5CBD101FC911196EC9131
:1037800011971296DC9012971396EC90139714965B
:10379000FC90149715960C91159716961C911697F8
:1037A0001796CC902F2F277F3E2F4D2D5E2D6F2DFE
:1037B000702F812F9C2DA2E00E94A12B51F02F2F62
:1037C000A4E10E94A12B29F0A8E20E94A12B09F0FC
:1037D000B8CBCF0190937010E0937110B2CB809171
:1037E000721090917310092E000CAA0BBB0BBF93A3
:1037F000AF939F938F93A2EBB5E0BF93AF933F92AC
:103800002F920E94D02B8FEA99E00E94FD11C101F6
:103810000E94FD1188EB99E00E94580E81E799E023
:103820000E94580E0E94CA091092B20E1092B10E58
:10383000CE01885B9E4F0E948E0E0FB6F894DEBFBD
:103840000FBECDBF8091250E9091260E892B09F4D5
:1038500078CBC85BDE4FF881C854D140C75BDE4FE0
:10386000E881C954D140C65BDE4F4881CA54D1407B
:10387000C55BDE4F5881CB54D140C45BDE4F6881BD
:10388000CC54D140C35BDE4F7881CD54D1402F2F33
:103890003E2FC25BDE4F8881CE54D140C15BDE4FEC
:1038A0009881CF54D1402F3F310541055105610525
:1038B00071058105910511F008F043CBCF0190937C
:1038C0007210809373103DCB8AEE99E00E94FD1137
:1038D000809174100E94620E8BEF99E00E94580E46
:1038E0000E94BB09082E000C990B0E94B92B8D3445
:1038F00019F0833509F025CB8093741022CB8BE12E
:103900009AE00E94580E8DE29AE00E94FD1180918B
:1039100075100E94FE118FE39AE00E94FD118091C4
:1039200076100E94FE1181E59AE00E94580E0E94D6
:10393000CA09EFE2FEE09F012F523E4079018191DA
:103940008032C9F3082E000C990B0E94B92B8134E8
:1039500019F400E010E005C0823409F0F2CA01E079
:1039600010E0F701E05DF14F81918032E9F3082E1C
:10397000000C990B0E94B92B823519F0863409F09E
:10398000E0CAF801E65CFF4E83AFDBCA87E99AE044
:103990000E94580E8AEB9AE00E94FD116091771008
:1039A000709178108091791090917A100E94F311A3
:1039B0008DEC9AE00E94FD1160917F107091801053
:1039C00080918110909182100E94F31180EE9AE014
:1039D0000E94580E0E94BB09082E000C990B0E94F1
:1039E000B92B813419F400E010E004C0823471F77F
:1039F00001E010E088EF9AE00E94580E0E94CA0988
:103A00001092B20E1092B10EC1010E948E0E8091E2
:103A1000250E9091260E892B09F493CAF80163E0D4
:103A2000EE0FFF1F6A95E1F7E65CFF4EFD96A5C01D
:103A300082E29BE00E94580E8BE39BE00E94FD1106
:103A400060918710709188108091891090918A10F0
:103A50000E94F3118CE49BE00E94FD1160918F1095
:103A60007091901080919110909192100E94F3119A
:103A700080EE9AE00E94580E0E94BB09082E000CAE
:103A8000990B0E94B92B813419F400E010E004C0B6
:103A9000823471F701E010E08DE59BE00E94580E42
:103AA0000E94CA091092B20E1092B10EC1010E947A
:103AB0008E0E8091250E9091260E892B09F441CA15
:103AC00053E0000F111F5A95E1F7065C1F4EF801F5
:103AD000E35BFF4F52C082E89BE00E94580E87E9EB
:103AE0009BE00E94FD116091971070919810809159
:103AF000991090919A100E94F31188EA9BE00E941D
:103B0000FD1160919F107091A0108091A110909173
:103B1000A2100E94F31180EE9AE00E94580E0E94BB
:103B2000BB09082E000C990B0E94B92B813419F4A3
:103B300000E010E004C0823471F701E010E089EB8E
:103B40009BE00E94580E0E94CA091092B20E109279
:103B5000B10EC1010E948E0E8091250E9091260E0D
:103B6000892B09F4EEC943E0000F111F4A95E1F7D4
:103B7000065C1F4EF801E35AFF4FD1018C91808300
:103B800011968C911197818312968C911297828352
:103B900013968C911397838314968C911497848336
:103BA00015968C911597858316968C91169786831A
:103BB00017968C918783C5C988E0898341E150E0DD
:103BC0006CE072E0CE0102960E94C12B84E48B8BE4
:103BD00041E150E068E97DE0CE0144960E94C12BAE
:103BE0001DA21EA280E88FA386E988A788E989A77D
:103BF0001AA61BA61CA61DA61EA61FA681EE88AB94
:103C000085EF89AB85E08AAB1BAA1CAA1DAA1EAA58
:103C100084E190E098AF8FAB85E090E09AAF89AFF8
:103C20008DE48BAF82E58CAF8DAF94EC9EAF89E0D5
:103C30008FAF21961FAE219722961FAE2297239613
:103C40001FAE239724961FAE249725961FAE259767
:103C500026961FAE269727969FAF279728968FAF59
:103C6000289729961FAE29972A961FAE2A972B963A
:103C70001FAE2B972C961FAE2C972D961FAE2D970F
:103C80002E961FAE2E972F961FAE2F9760961FAEC3
:103C9000609761961FAE619762961FAE62976396BA
:103CA0001FAE639764961FAE649765961FAE6597C7
:103CB00066961FAE669767961FAE679768961FAEAB
:103CC000689769961FAE69976A961FAE6A976B965A
:103CD0001FAE6B976C961FAE6C976D961FAE6D976F
:103CE0006E961FAE6E976F961FAE6F97A0961FAE23
:103CF000A097A1961FAEA197A2961FAEA297A396DA
:103D00001FAEA397A4961FAEA497A5961FAEA59726
:103D1000A6961FAEA697A7961FAEA797A8961FAE0A
:103D2000A897A9961FAEA997AA961FAEAA97AB9679
:103D30001FAEAB97AC961FAEAC97AD961FAEAD97CE
:103D4000AE961FAEAE978DE6FE013196AAE3B0E1C6
:103D500001900D928A95E1F7F4C889ED9BE00E94ED
:103D6000580E6AE370E180E090E00E94A60814C05B
:103D70008DE89DE00E94580E80E09CE00E94580E65
:103D800000E010E06FEFC8010E94F92E0F5F1F4F97
:103D90000115B0E11B07B1F786EF9BE00E94580EBA
:103DA00005C08FE29CE00E94580ECBC880915E1047
:103DB0008093B10DA0906010B0906110C09062101F
:103DC000D0906310E0906410F09065100091661040
:103DD00010916710A092A90DB092AA0DC092AB0DE0
:103DE000D092AC0DE092AD0DF092AE0D0093AF0D00
:103DF0001093B00D20E030E145EA54ED68EE70E03C
:103E000080E090E00E94932A2093B50D3093B60D88
:103E10004093B70D5093B80D6093B90D7093BA0DE0
:103E20008093BB0D9093BC0D809168108093BD0D65
:103E3000809169108093BE0D80916A108093BF0DB0
:103E400080916B108093C00D80916C108093C10D98
:103E500080916D108093C20D80916E108093C30D80
:103E600080916F108093C40DE0907010F0907110ED
:103E7000F092B40DE092B30D00E51FE0C12CD12CFF
:103E800035E7932EF801ED5AFF4F1082118212820E
:103E9000138214821582168217829C9CD0019D9CED
:103EA000B00D1124A05BB04FFD013B961B961C92F8
:103EB0001182128213821482158216821782F801EF
:103EC00013A614A615A616A617A610AA11AA12AA1A
:103ED00013AEFB961182128213821482158216820F
:103EE0001782CE59DE4FA881B981C256D140DD96E6
:103EF0008C91B096808311968C9111978183129644
:103F00008C911297828313968C91139783831496C6
:103F10008C911497848315968C91159785831696AA
:103F20008C911697868317968C918783CE59DE4F96
:103F3000A881B981C256D140A35BBF4F8C913896FE
:103F4000808311968C911197818312968C91129790
:103F5000828313968C911397838314968C91149774
:103F6000848315968C911597858316968C91169758
:103F7000868317968C918783CE59DE4FA881B981AD
:103F8000C256D140A35ABF4F8C9138968083119668
:103F90008C911197818312968C911297828313963C
:103FA0008C911397838314968C9114978483159620
:103FB0008C911597858316968C9116978683179604
:103FC0008C91878360E0D8018C910E940F0465E09A
:103FD00070E080E090E00E94BE0461E0F801808122
:103FE0000E940F0465E070E080E090E00E94BE0453
:103FF000FAE0EF16F10459F074F044E1E416F1042C
:1040000041F058E2E516F10431F480EC05C080E49B
:1040100003C080E801C080E0580164E7A60EB11C2F
:104020008160D5018C9321E082E1CA57DE4F28835D
:10403000C658D1400E94E703CA57DE4F2881C658B0
:10404000D140892B81F7222311F020E0EDCFF5013B
:10405000408161E0C8010E94400544E063E0C8017E
:104060000E9440054091721066E0C8010E94400520
:1040700040E067E0C8010E944005D80112968C918B
:10408000813419F48091751004C0823431F4809128
:104090007610863411F448E001C040E04368F8012E
:1040A000ED58FF4F408360E0C8010E9440050B5867
:1040B0001F4FCE59DE4FE881F981C256D140389664
:1040C000CE59DE4FF983E883C256D140CA94CD2839
:1040D00021F0CC24C394D12CD5CE809174108D3492
:1040E00009F042C061E08EE30E943E0460E08EE38E
:1040F0000E940F0468EE73E080E090E00E94BE042E
:1041000082E10E94E70301E0892B09F400E082E0EC
:10411000E82EF12C10E09FE0C92ED12C82E10E9404
:10412000E70380179107D9F4C6010197F1F723E35C
:10413000E216F1049CF73FEFE31AF30A42E3E416B8
:10414000F10461F78DE89DE00E94580E8DE89DE036
:104150000E94580E83E39CE00E94580EDFCF61E07E
:104160008EE30E940F040CC08DE89DE00E94580E63
:104170008DE89DE00E94580E8DE59CE00E94580E4F
:104180008EE30E94E703892BD9F310928F0D1092D2
:10419000900D1092910D1092920D1092930D10921D
:1041A000940D1092950D1092960D42E062E673E028
:1041B00082E10E94BF0C43E067E473E082E00E946A
:1041C000BF0C43E06CE273E083E00E94BF0C60E050
:1041D0008EE30E940F0460E08EE30E943E048DE8AF
:1041E0009DE00E94580E8DE89DE00E94580E80913F
:1041F0005E10823091F038F4882361F08130A1F4B0
:104200008BE99CE00FC0833059F0843069F48CEF67
:104210009CE008C085E89CE005C089EB9CE002C0FA
:104220008CEC9CE00E94580E809108018F7B80935B
:104230000801809108018F7E809308018091080118
:104240008F7780930801809108018F7D809308010A
:1042500080910801877F8093080183EB9EE00E9494
:10426000D301892B31F483EB9EE00E94B101839747
:1042700071F48AE59DE00E94580E64E670E080E0EB
:1042800090E00E94BE040E9470020C94A5120E944D
:1042900099040091CD0D1091CE0D2091CF0D30914C
:1042A000D00DDC01CB01801B910BA20BB30B8B3F1C
:1042B0009105A105B10508F458C00E9499046093C6
:1042C000CD0D7093CE0D8093CF0D9093D00D209196
:1042D0008F0D3091900D4091910D5091920D609104
:1042E000930D7091940D8091950D9091960DA090E5
:1042F000C50DB090C60DC090C70DD090C80DE09010
:10430000C90DF090CA0D0091CB0D1091CC0D0E94FB
:10431000982B31F180910801886080930801709199
:104320008F0D6091900D5091910D4091920D3091B3
:10433000930D2091940D9091950D8091960D709311
:10434000C50D6093C60D5093C70D4093C80D3093B3
:10435000C90D2093CA0D9093CB0D8093CC0D05C051
:1043600080910801877F8093080162E57FE0CC5946
:10437000DE4F79836883C456D140B3E66B2EBFE02D
:104380007B2E13EA812E1FE0912E03E8402E0FE0D2
:10439000502EC359DE4F19821882CD56D140CC59C8
:1043A000DE4FA881B981C456D14013968C910E94EA
:1043B000E703892B09F0E7C4C359DE4FE881F9818F
:1043C000CD56D14080910801EF2B09F006C58064DD
:1043D0008093080180910801806180930801D301D6
:1043E00058967C91589759966C9159975A965C912A
:1043F0005A975B964C915B975C963C915C975D9667
:104400002C915D975E969C915E975F968C91F201E0
:1044100070836183528343833483258396838783A8
:104420008085808B8185818B8285828B8385838B40
:104430008485848B8585858B8685868B8785878B10
:10444000830103511109CE59DE4F19830883C256E7
:10445000D14060E1C8010E947D05D3016D937D9339
:104460008D939C93139762E1CE59DE4F8881998199
:10447000C256D1400E947D05F30164837583868313
:10448000978361E1CE59DE4F88819981C256D14030
:104490000E947D05D3011C966D937D938D939C9313
:1044A0001F976BE1CE59DE4F88819981C256D1406A
:1044B0000E947D05F301608B718B828B938B6CE185
:1044C000CE59DE4F88819981C256D1400E947D0528
:1044D000CA59DE4F688379838A839B83C656D1404D
:1044E000D30154966D937D938D939C935797B09180
:1044F000B50DC659DE4FB883CA56D140E091B60D0E
:10450000C559DE4FE883CB56D140F091B70DC45961
:10451000DE4FF883CC56D1400091B80DC159DE4F23
:104520000883CF56D1401091B90DC059DE4F188382
:10453000C057D1402091BA0DCF58DE4F2883C157C4
:10454000D1403091BB0DCE58DE4F3883C257D14099
:104550004091BC0DCD58DE4F4883C357D140F30185
:1045600084859585A685B7858C019D0140E050E046
:10457000BA01C65ADE4F8883CA55D140C55ADE4FAC
:104580001883CB55D140C45ADE4F2883CC55D14037
:10459000C35ADE4F3883CD55D140C25ADE4F4883CF
:1045A000CE55D140C15ADE4F5883CF55D140C05A65
:1045B000DE4F6883C056D140CF59DE4F7883C15655
:1045C000D140C659DE4FA880CA56D140C559DE4FEA
:1045D000B880CB56D140C459DE4FC880CC56D140AC
:1045E000C159DE4FD880CF56D140C059DE4FE88048
:1045F000C057D140CF58DE4FF880C157D140CE5878
:10460000DE4F0881C257D140CD58DE4F1881C357C5
:10461000D140C65ADE4F2881CA55D140C55ADE4F17
:104620003881CB55D140C45ADE4F4881CC55D1405A
:10463000C35ADE4F5881CD55D14060E070E080E034
:1046400090E01ED7D4015896AC9058975996BC90DC
:1046500059975A96CC905A975B96DC905B975C96EC
:10466000EC905C975D96FC905D975E960C915E97E2
:104670005F961C910E948F2BCC58DE4F2883C45725
:10468000D140CB58DE4F3883C557D140CA58DE4F92
:104690004883C657D140C958DE4F5883C757D140C9
:1046A000C858DE4F6883C857D140C758DE4F78835B
:1046B000C957D140C658DE4F8883CA57D140C55824
:1046C000DE4F9883CB57D140F30180899189A2892D
:1046D000B389CA59DE4F088119812A813B81C656A8
:1046E000D140081B190B2A0B3B0B40E050E0BA01EC
:1046F000C65ADE4F0883CA55D140C55ADE4F1883CB
:10470000CB55D140C45ADE4F2883CC55D140C35A33
:10471000DE4F3883CD55D140C25ADE4F4883CE5547
:10472000D140C15ADE4F5883CF55D140C05ADE4FD9
:104730006883C056D140CF59DE4F7883C156D140EF
:1047400020E432E44FE050E060E070E080E090E090
:10475000D4011896AC9018971996BC9019971A9690
:10476000CC901A971B96DC901B971C96EC901C978C
:104770001D96FC901D971E960C911E971F961C91DE
:10478000CED759016A017B018C01C65ADE4F2881C0
:10479000CA55D140C55ADE4F3881CB55D140C45A95
:1047A000DE4F4881CC55D140C35ADE4F5881CD559C
:1047B000D14060E070E080E090E062D6E091B30D1F
:1047C000F091B40D31971F2F110F110B5F01C12E06
:1047D000D12EE12EF12E012FA6D6C65ADE4F288308
:1047E000CA55D140CA59DE4F3883C656D140C45845
:1047F000DE4F4883CC57D140C358DE4F5883CD5746
:10480000D140C258DE4F6883CE57D140C158DE4FE9
:104810007883CF57D140C058DE4F8883C058D140ED
:10482000CF57DE4F9883C158D140F4011089B18928
:104830000289F38864897589212F3B2F402F5F2DD2
:1048400086899789A0E07DD761F0D30114961C93E7
:10485000149715963C93159716960C9316971796E2
:10486000FC92A12C40E1B42E55EAC52E64EDD62E63
:1048700078EEE72EF12C00E010E0C659DE4F2881DB
:10488000CA56D140C559DE4F3881CB56D140C459A4
:10489000DE4F4881CC56D140C159DE4F5881CF56AA
:1048A000D140C059DE4F6881C057D140CF58DE4F4C
:1048B0007881C157D140CE58DE4F8881C257D14050
:1048C000CD58DE4F9881C357D140DAD5C65ADE4F56
:1048D000A880CA55D140CA59DE4FB880C656D140CB
:1048E000C458DE4FC880CC57D140C358DE4FD88063
:1048F000CD57D140C258DE4FE880CE57D140C15885
:10490000DE4FF880CF57D140C058DE4F0881C058E5
:10491000D140CF57DE4F1881C158D14004D6CA5973
:10492000DE4F2883C656D140C659DE4F3883CA565B
:10493000D140C559DE4F4883CB56D140C459DE4FD4
:104940005883CC56D140B62FA72FC159DE4F88834C
:10495000CF56D140C059DE4F9883C057D140F301A4
:1049600040815181628173815A016B0124813581BB
:1049700046815781BA01A9019A01AB0160E070E05C
:10498000CB01C65ADE4F2883CA55D140C55ADE4FE7
:104990003883CB55D140C45ADE4F4883CC55D140E3
:1049A000C35ADE4F5883CD55D140C25ADE4F68837B
:1049B000CE55D140C15ADE4F7883CF55D140C05A31
:1049C000DE4F8883C056D140CF59DE4F9883C15601
:1049D000D1409501A60160E070E080E090E0C65A09
:1049E000DE4FA880CA55D140C55ADE4FB880CB559E
:1049F000D140C45ADE4FC880CC55D140C35ADE4F97
:104A0000D880CD55D140E12CF12C00E010E087D6C4
:104A100059016A017B018C01CA59DE4F2881C656B3
:104A2000D140C659DE4F3881CA56D140C559DE4FF4
:104A30004881CB56D140C459DE4F5881CC56D14025
:104A40006B2F7A2FC159DE4F8881CF56D140C05984
:104A5000DE4F9881C057D14013D5E0E4AE2EF2E48A
:104A6000BF2EAFE0CA2ED12CE12CF12C00E010E0DB
:104A70005AD559016A017B018C01CC58DE4F28813F
:104A8000C457D140CB58DE4F3881C557D140CA58A2
:104A9000DE4F4881C657D140C958DE4F5881C757AD
:104AA000D140C858DE4F6881C857D140C758DE4F43
:104AB0007881C957D140C658DE4F8881CA57D14046
:104AC000C558DE4F9881CB57D14014D6C65ADE4F19
:104AD0002883CA55D140CA59DE4F3883C656D140C3
:104AE000C659DE4F4883CA56D140C559DE4F588358
:104AF000CB56D140C459DE4F6883CC56D140C15902
:104B0000DE4F7883CF56D140C059DE4F8883C057DF
:104B1000D140CF58DE4F9883C157D140D30158962A
:104B20002C93589759963C9359975A964C935A9769
:104B30005B965C935B975C966C935C975D967C93BD
:104B40005D975E968C935E975F969C9305E7C3593D
:104B5000DE4FE881F981CD56D1400E9FD0010F9FE5
:104B6000B00D1124A05BB04FFD013B961B962C911C
:104B70003181428153816481758186819781A090C2
:104B8000BD0DB090BE0DC090BF0DD090C00DE09097
:104B9000C10DF090C20D0091C30D1091C40D70D4E1
:104BA000C65ADE4FA880CA55D140CA59DE4FB880D8
:104BB000C656D140C659DE4FC880CA56D140C559E5
:104BC000DE4FD880CB56D140C459DE4FE880CC565A
:104BD000D140C159DE4FF880CF56D140C059DE4F89
:104BE0000881C057D140CF58DE4F1881C157D140FE
:104BF00096D5D20118962C93189719963C9319972D
:104C00001A964C931A971B965C931B971C966C9361
:104C10001C971D967C931D971E968C931E971F962E
:104C20009C931F975096AC9050975196BC9051977B
:104C30005296CC9052975396DC9053975496EC90A2
:104C400054975596FC90559756960C9156975796B3
:104C50001C91579764D558962C93589759963C9326
:104C600059975A964C935A975B965C935B975C96D0
:104C70006C935C975D967C935D975E968C935E9744
:104C80005F969C93F401208131814281538164813C
:104C9000758186819781A1E036D520833183428357
:104CA00053836483758386839783F301E05AFF4FB0
:104CB000408160E0CE59DE4F88819981C256D14053
:104CC0000E944005D4012C9111963C9111971296A7
:104CD0004C91129713965C91139714966C911497BC
:104CE00015967C91159716968C91169717969C9110
:104CF000A2E027D5A9F1A4F180915F10882309F4DF
:104D000073C083EB9EE00E94D3011816190644F588
:104D100083EB9EE00E94B10120915F10022E000CF7
:104D2000330B82179307E1F45FC08130C9F4A09080
:104D30008B0FB0908C0FC0908D0FD0908E0FE090A5
:104D40008F0FF090900F0091910F1091920F95019D
:104D5000A601B701C801A1E0F4D411F00CF08CC099
:104D6000C359DE4F08811981CD56D1408091080189
:104D7000012B09F0CCC28F7B809308018091080140
:104D80008F7E80930801CC59DE4F28813981C4562B
:104D9000D1402B583F4FCC59DE4F39832883C4561E
:104DA000D14035E7630E711C45E7840E911C55E731
:104DB000450E511CC359DE4F68817981CD56D140D3
:104DC0006130710509F449CA81E090E0C359DE4FB2
:104DD00099838883CD56D140E2CA806880930801C8
:104DE000809108018062F9CA80915E10823041F59D
:104DF000D20158962C91589759963C9159975A96AA
:104E00004C915A975B965C915B975C966C915C9722
:104E10005D967C915D975E968C915E975F969C9176
:104E20000E94AC0581E39DE00E94FD11CC59DE4F4C
:104E3000E881F981C456D14080810E94FE1190CF53
:104E4000833008F068C0811170CFF2012085318570
:104E50004285538564857585868597850E94AC0556
:104E600081E39DE00E94FD11CC59DE4FA881B981FC
:104E7000C456D1408C91E1CFB0910010CE59DE4F95
:104E8000B883C256D140E0910110C65ADE4FE88384
:104E9000CA55D140F0910210CA59DE4FF883C65668
:104EA000D140B0910310C659DE4FB883CA56D140E5
:104EB000E0910410C559DE4FE883CB56D140B09144
:104EC0000510F0910610E0910710CE59DE4F2881B1
:104ED000C256D140C65ADE4F3881CA55D140CA5950
:104EE000DE4F4881C656D140C659DE4F5881CA565A
:104EF000D140C559DE4F6881CB56D1407B2F8F2FD3
:104F00009E2F1FD409F00CF42BCF09D40E94AC05BE
:104F100085E39DE0F1C0833009F011C1D0908B0F83
:104F2000E0908C0FF0908D0F00918E0F10918F0FED
:104F3000B091900FF091910FE091920F2D2D3E2D99
:104F40004F2D502F612F7B2F8F2F9E2FA1E0F9D354
:104F500009F00CF405CF2091001030910110409120
:104F6000021050910310609104107091051080910F
:104F7000061090910710E5D309F00CF4F1CE2D2D19
:104F80003E2D4F2D502F612F7B2F8F2F9E2F0E9454
:104F9000AC058FE39DE00E94580E209100103091E7
:104FA0000110409102105091031060910410709113
:104FB000051080910610909107100E94AC0584E4C2
:104FC0009DE00E94580E20910010309101104091F8
:104FD000021050910310609104107091051080919F
:104FE000061090910710A0908B0FB0908C0FC0907E
:104FF0008D0FD0908E0FE0908F0FF090900F00915A
:10500000910F1091920F8BD3CE59DE4F2883C25649
:10501000D140C65ADE4F3883CA55D140CA59DE4FF7
:105020004883C656D140C659DE4F5883CA56D14030
:10503000C559DE4F6883CB56D140C459DE4F7883C3
:10504000CC56D140C159DE4F8883CF56D140C0598C
:10505000DE4F9883C057D140A12C80E1B82E95EA4D
:10506000C92E24EDD22E38EEE32EF12C00E010E014
:10507000209118103091191040911A1050911B1066
:1050800060911C1070911D1080911E1090911F1046
:10509000F7D1AFEF38D359016A017B018C01CE59AA
:1050A000DE4F2881C256D140C65ADE4F3881CA55DC
:1050B000D140CA59DE4F4881C656D140C659DE4F4D
:1050C0005881CA56D140C559DE4F6881CB56D14070
:1050D000C459DE4F7881CC56D140C159DE4F88810A
:1050E000CF56D140C059DE4F9881C057D14002D32E
:1050F0000E94AC0589E49DE00E94580E10928B0F2F
:1051000010928C0F10928D0F10928E0F10928F0FA5
:105110001092900F1092910F1092920F1092001017
:1051200010920110109202101092031010920410AD
:1051300010920510109206101092071011CE8430B4
:1051400009F00ECED30113968C9113978F9312967C
:105150008C9112978F9311968C9111978F938C91BC
:105160008F93A4E5BDE0BF93AF933F922F9218D3E6
:10517000C1010E94FD11D30117968C9117978F934F
:1051800016968C9116978F9315968C9115978F93F1
:1051900014968C918F93A4E5BDE0BF93AF933F929B
:1051A0002F92FED2C1010E94FD11D3011F968C9156
:1051B0001F978F931E968C911E978F931D968C919F
:1051C0001D978F931C968C918F93A4E5BDE0BF93A0
:1051D000AF933F922F92E4D2C1010E94FD11D301FF
:1051E00053968C9153978F9352968C9152978F939D
:1051F00051968C9151978F9350968C918F93A4E5F3
:10520000BDE0BF93AF933F922F92CAD20FB6F894EE
:10521000DEBF0FBECDBFC1010E94FD11D301579665
:105220008C9157978F9356968C9156978F9355964E
:105230008C9155978F9354968C918F93A4E5BDE0F4
:10524000BF93AF933F922F92ABD2C1010E94FD1149
:1052500025E7C359DE4F08811981CD56D140209FE3
:10526000D001219FB00D1124A05BB04FFD013B96F2
:105270001B965C9141813281238184818581868165
:105280008781652F742F832F922F0E94CC118CEB76
:1052900096E00E94FD11D30158962C91589759968B
:1052A0003C9159975A964C915A975B965C915B97B3
:1052B0005C966C915C975D967C915D975E968C9107
:1052C0005E975F969C910E94AC058CEB96E00E94E5
:1052D000FD11F201208531854285538564857585F0
:1052E000868597850E94AC0581E39DE00E94FD11B3
:1052F000CC59DE4FA881B981C456D1408C910E940F
:10530000FE110FB6F894DEBF0FBECDBF29CD8F774B
:1053100080930801809108018F7D33CDCF92DF9279
:10532000EF92FF920F931F93CF93DF93E3EBFEE097
:105330001382128288EE93E0A0E0B0E0848395832C
:10534000A683B78386E292E09183808385EC90E028
:105350009587848784EC90E09787868780EC90E03F
:10536000918B808B81EC90E0938B828B82EC90E030
:10537000958B848B86EC90E0978B868B118E128EAA
:10538000138E148E88E080933A10C0E5DFE084E04D
:1053900090E09983888381E48A8382E090E09C8313
:1053A0008B838AE090E09E838D8386E090E09887EF
:1053B0008F8384E490E09A87898761E084E00E948B
:1053C0003E0460E08D810E943E0461E08F810E9476
:1053D0003E0460E08B810E943E0461E089850E946A
:1053E0003E0485E090E09093C60F8093C50F82E461
:1053F0008093C70F08EC1FE083E090E0F8019183F1
:1054000080838AECC82E8FE0D82E8BE090E0F601E6
:10541000918380839CECE92E9FE0F92E87E090E059
:10542000F70191838083CEECDFE085E490E09983FF
:10543000888361E085E00E943E0460E0F60180819F
:105440000E943E0461E0F70180810E943E0460E01A
:10545000F80180810E943E0461E08881DF91CF9154
:105460001F910F91FF90EF90DF90CF900C943E042E
:10547000EE0FFF1F881F8BBF0790F691E02D199448
:10548000DF93CF931F930F939A9DF02D219FF00DE3
:105490008B9DF00D8A9DE02DF10D039FF00D029F75
:1054A000E00DF11D4E9DE00DF11D5E9DF00D4F9D37
:1054B000F00D7F936F93BF92AF925F934F93D5019F
:1054C000F4D48B01AC01D701F0D4EB01E80FF91F44
:1054D000D6011FD02F913F91D601E7D4C60FD71F19
:1054E000E81FF91FAF91BF9114D02F913F91DDD4E8
:1054F000C60FD71FE81FF91FD601D7D4E60FF71F35
:105500009801BE01CF0111240F911F91CF91DF911E
:105510000895CBD4460F571FC81FD91F08F43196E2
:105520000895689401C0E894F92FF12B0AF027C080
:10553000A0E0B0E0EDE9FAE293C0092E05941AF478
:1055400079D0112392F4F0E80F26FFEFE094F09465
:1055500000951095B094C094D094A194BF0ACF0A3E
:10556000DF0AEF0AFF0A0F0B1F0B13D007FC62D0F4
:10557000CDB7DEB7ECE090C0689401C0E8948F929C
:105580009F92CF93DF9305D0DF91CF919F908F9023
:10559000089588249924F401E401B0E49F93AA2794
:1055A0009A158B049C04ED05FE05CF05D007A107D5
:1055B00098F4AD2FDC2FCF2FFE2FE92D982C892EBC
:1055C000982F872F762F652F542F432F322F222786
:1055D000B85031F7BF9127C01B2EBF91BB27220FB8
:1055E000331F441F551F661F771F881F991F881C74
:1055F000991CEE1FFF1FCC1FDD1FAA1FBB1F8A14A3
:105600009B04EC05FD05CE05DF05A007B10748F0BA
:105610008A189B08EC09FD09CE09DF09A00BB10B24
:1056200021601A94E1F62EF49401AF01BE01CD0180
:10563000000C0895609570958095909530954095F3
:10564000509521953F4F4F4F5F4F6F4F7F4F8F4F7B
:105650009F4F08952F923F924F925F926F927F9249
:105660008F929F92AF92BF92CF92DF92EF92FF9272
:105670000F931F93CF93DF93CDB7DEB7CA1BDB0B1E
:105680000FB6F894DEBF0FBECDBF19942A883988B3
:1056900048885F846E847D848C849B84AA84B984CA
:1056A000C884DF80EE80FD800C811B81AA81B981D6
:1056B000CE0FD11D0FB6F894DEBF0FBECDBFED01EA
:1056C00008950F93083090F0982F872F762F652F2D
:1056D000542F432F322F22270850F4CF220F331F8D
:1056E000441F551F661F771F881F991F0A95B2F721
:1056F0000F9108952A0D3B1D4C1D5D1D6E1D7F1DD4
:10570000801F911F08950024A7FD00942A0F301DCB
:10571000401D501D601D701D801D901D08952A198B
:105720003B094C095D096E097F09800B910B0895B7
:105730002A153B054C055D056E057F058007910721
:1057400008950024A7FD00942A1730054005500550
:105750006005700580059005089581E090E0F8945B
:10576000B3C391113AC2803219F089508550D0F7F5
:1057700008959111089581568A5108F480528558F0
:105780000895FB01DC014150504048F001900D921A
:105790000020C9F701C01D9241505040E0F7089524
:1057A0000F931F93CF93DF93CDB7DEB72E970FB62E
:1057B000F894DEBF0FBECDBF0E891F8986E08C83B3
:1057C0001A8309838FEF9FE79E838D83AE01465E28
:1057D0005F4F688D798DCE01019611D02F8138856C
:1057E000F801E20FF31F10822E960FB6F894DEBF79
:1057F0000FBECDBFDF91CF911F910F9108952F92D2
:105800003F924F925F926F927F928F929F92AF9250
:10581000BF92CF92DF92EF92FF920F931F93CF939D
:10582000DF93CDB7DEB72C970FB6F894DEBF0FBE6F
:10583000CDBF7C016B018A01FC0117821682838136
:1058400081FFB0C1CE0101964C01F7019381F601B1
:1058500093FD859193FF81916F01882309F49EC187
:10586000853239F493FD859193FF81916F018532E3
:1058700021F4B70190E0CAD1E8CF512C312C20E0BF
:105880002032A0F48B3269F030F4803259F0833248
:1058900069F420612CC08D3239F0803339F42160F5
:1058A00026C02260246023C0286021C027FD27C0B5
:1058B00030ED380F3A3078F426FF06C0FAE05F9EEC
:1058C000300D1124532E13C08AE0389E300D112460
:1058D000332E20620CC08E3221F426FD5FC120647D
:1058E00006C08C3611F4206802C0883641F4F601F7
:1058F00093FD859193FF81916F018111C1CF982F05
:105900009F7D9554933028F40C5F1F4FFFE3F9837C
:105910000DC0833631F0833771F0833509F057C0FD
:1059200021C0F801808189830E5F1F4F4424439476
:10593000512C540114C03801F2E06F0E711CF801B3
:10594000A080B18026FF03C0652D70E002C06FEF1C
:105950007FEFC5012C874FD12C0183012C852F7738
:10596000222E16C03801F2E06F0E711CF801A080E3
:10597000B18026FF03C0652D70E002C06FEF7FEF9E
:10598000C5012C872DD12C012C852068222E830166
:1059900023FC19C0832D90E048165906A0F4B701E6
:1059A00080E290E033D13A94F5CFF50127FC859160
:1059B00027FE81915F01B70190E028D131103A9420
:1059C000F1E04F1A51084114510479F7DEC08436D2
:1059D00011F0893631F5F80127FF07C06081718128
:1059E000828193810C5F1F4F08C060817181072EF7
:1059F000000C880B990B0E5F1F4F2F76722E97FFAE
:105A000009C090958095709561957F4F8F4F9F4FFE
:105A10002068722E2AE030E0A40130D1A82EA81808
:105A200043C0853729F42F7EB22E2AE030E025C00E
:105A3000F22FF97FBF2E8F36C1F018F4883579F038
:105A4000ADC0803719F0883721F0A8C02F2F206112
:105A5000B22EB4FE0DC08B2D8460B82E09C024FF79
:105A60000AC09F2F9660B92E06C028E030E005C01E
:105A700020E130E002C020E132E0F801B7FE07C0CB
:105A800060817181828193810C5F1F4F06C06081AC
:105A9000718180E090E00E5F1F4FA401EFD0A82E2F
:105AA000A818FB2DFF777F2E76FE0BC0372D3E7F8B
:105AB000A51450F474FE0AC072FC08C0372D3E7E57
:105AC00005C0BA2C372D03C0BA2C01C0B52C34FF49
:105AD0000DC0FE01EA0DF11D8081803311F4397E85
