:1000000053C100000C94940C0C94690C0C943E0C9D
:100010000C94130C0C94E80B0C94BD0B0C94920BE9
:100020000C94670B0C94F20A0C94830A0C940D0A3E
:100030006CC100006AC1000068C1000066C1000018
:1000400064C1000062C1000060C100005EC1000028
:100050005CC100005AC1000058C10000C7C40000C4
:1000600054C100007EC3000053C300004EC1000015
:100070004CC100004AC1000048C1000046C1000058
:1000800044C1000042C1000040C100003EC1000068
:100090003CC100003AC1000038C1000036C1000078
:1000A00034C1000032C1000030C100002EC1000088
:1000B0002CC100002AC1000028C1000026C1000098
:1000C00024C1000022C1000020C100001EC10000A8
:1000D0001CC100001AC1000018C1000016C10000B8
:1000E00014C100009E1A1E1DD71C701DC31D1E19B1
:1000F000291F291F291F291FD618291F291FEE1B59
:10010000291F341E3C19471C291F291F051F101FBA
:10011000BC1C2E1FC302C602B502B902BF02FD02FB
:10012000CA02CE02D402D802DC02E202E602EA02ED
:10013000FD02F002F402F802000021002400270072
:100140002A002D00300033000101000004010701E6
:100150000A010102102020080810204010204080D1
:10016000020102010804020101020408102040807B
:100170008040201008040201800402018040201009
:100180000804020108040201010204081020408052
:100190000102040810204080050505050705080830
:1001A0000808020202020A0A080804040404010101
:1001B0000101010101010303030303030303040716
:1001C00007070C0C0C0C0C0C0C0C020202020606AD
:1001D0000606060606060B0B0B0B0B0B0B0B0001A2
:1001E00004050503030405060405060701000100D4
:1001F00003020100000102030405060707060504C7
:1002000003020100070201000706050403020100C2
:1002100003020100000102030405060700010203B6
:100220000405060702030405060607000022002550
:100230000028002B002E00310034000201000005D0
:100240000108010B01000020002300260029002CDA
:10025000002F003200000100000301060109010027
:10026000000A0B02090C0D0E080703040100000030
:10027000000000000000000000000000000000007E
:10028000000000000000000000000012111000003B
:10029000000000000000000000000000000000005E
:1002A000000000000000C62911241FBECFEFD1E2DC
:1002B000DEBFCDBF00E00CBF20E1AEE8BDE001C075
:1002C0001D92A73BB207E1F71DE0A0E0B2E0ECE32E
:1002D000FFE500E00BBF02C007900D92AE38B107FA
:1002E000D9F711E0C4E5D1E000E006C0219701098B
:1002F000802FFE010E94702AC335D10780E00807D5
:10030000A9F70E9408120C949C2F7ACECF92DF920C
:10031000EF92FF920F931F93CF93DF936C017A01BB
:100320008B01C0E0D0E0CE15DF0589F0D8016D91DA
:100330008D01D601ED91FC910190F081E02DC60177
:100340001995892B11F47E0102C02196ECCFC701CB
:10035000DF91CF911F910F91FF90EF90DF90CF90A1
:100360000895FC01918D828D981761F0828DDF01D7
:10037000A80FB11D5D968C91928D9F5F9F73928F98
:1003800090E008958FEF9FEF0895FC01918D828D8D
:10039000981731F0828DE80FF11D858D90E008955A
:1003A0008FEF9FEF0895FC01918D228D892F90E0B2
:1003B000805C9F4F821B91098F739927089583EB6F
:1003C0009EE0F1DF21E0892B09F420E0822F0895DF
:1003D000FC01848DDF01A80FB11DA35ABF4F2C91E2
:1003E000848D90E001968F739927848FA689B789B1
:1003F0002C93A089B1898C9180648C93938D848D8A
:10040000981306C00288F389E02D80818F7D808358
:100410000895EF92FF920F931F93CF93DF93EC0118
:1004200081E0888F9B8D8C8D981305C0E889F989B0
:10043000808185FD23C0F62E0B8D10E00F5F1F4FCE
:100440000F731127E02E8C8DE8120BC00FB607FC3E
:10045000FACFE889F989808185FFF5CFCE01B8DF31
:10046000F2CF8B8DFE01E80FF11DE35AFF4FF082B2
:100470000B8FEA89FB898081806207C0EE89FF8942
:100480006083E889F98980818064808381E090E0DD
:10049000DF91CF911F910F91FF90EF900895CF932F
:1004A000DF93EC01888D8823C1F0EA89FB89808184
:1004B00085FD05C0A889B9898C9186FD0EC00FB64F
:1004C00007FCF5CF808185FFF2CFA889B9898C918F
:1004D00085FFEDCFCE017CDFE8CFDF91CF9108958E
:1004E00080E090E0892B19F06ADF811125C080E05F
:1004F00090E0892B41F080E090E0892B21F00E9470
:10050000000081111CC080E090E0892B41F080E068
:1005100090E0892B21F00E940000811113C080E03F
:1005200090E0892BA1F080E090E0892B81F00E947F
:10053000000081110AC008950E940000D8CF0E94D7
:100540000000E1CF0E940000EACF0C940000089563
:1005500090E0FC013197E231F10508F04EC08827A8
:10056000E657FF4F8F4F0C94702A809180008F7751
:1005700003C0809180008F7D8093800008958091DA
:100580008000877FF9CF84B58F7702C084B58F7DD7
:1005900084BD08958091B0008F7703C08091B00032
:1005A0008F7D8093B0000895809190008F7707C071
:1005B000809190008F7D03C080919000877F809311
:1005C000900008958091A0008F7707C08091A000CF
:1005D0008F7D03C08091A000877F8093A000089545
:1005E000809120018F7707C0809120018F7D03C00B
:1005F00080912001877F80932001089580918E0D46
:10060000882361F09FB7F89420918E0D80911B0E86
:10061000213019F48DBB9FBF08958FBF08958EBD03
:1006200000000DB407FEFDCF8EB5089520918E0D0C
:10063000222379F02FB7F89430918E0D313039F4B0
:100640003DB330931B0E3DB33DBB2FBF02C0209383
:100650001B0E8CBD9DBD089570918F0D6091900D06
:100660005091910D4091920D3091930D2091940DE8
:100670009091950D8091960DE0EDFFE07083618380
:1006800052834383348325839683878308957091AF
:100690008F0D6091900D5091910D4091920D309180
:1006A000930D2091940D9091950D8091960DE0E51C
:1006B000FFE073876487558746873787208B918B48
:1006C000828B089520918F0D3091900D4091910D66
:1006D0005091920D6091930D7091940D8091950DB4
:1006E0009091960DA1E00E94BB2B20938F0D30932B
:1006F000900D4093910D5093920D6093930D7093D4
:10070000940D8093950D9093960D08950E94E52B7E
:100710001F920F920FB60F9211240BB60F922F93C8
:100720003F934F935F936F937F938F939F93AF9379
:10073000BF93EF93FF9383EB9EE04ADEFF91EF912F
:10074000BF91AF919F918F917F916F915F914F91E9
:100750003F912F910F900BBE0F900FBE0F901F90E7
:1007600018951F920F920FB60F9211240BB60F928D
:100770002F938F939F93EF93FF93E091C30EF0918C
:10078000C40E8081E091C90EF091CA0E82FD12C0A4
:1007900090818091CC0E8F5F8F732091CD0E821748
:1007A00051F0E091CC0EF0E0ED54F14F958F809335
:1007B000CC0E01C08081FF91EF919F918F912F917D
:1007C0000F900BBE0F900FBE0F901F901895CF93F8
:1007D000DF93282F30E0F901E15AFD4F8491F901B0
:1007E000EE5AFE4FD491F901E856FE4FC491CC2346
:1007F00089F08111ADDEEC2FF0E0EE0FFF1FEB5B17
:10080000FD4FA591B491EC91ED2381E090E021F4AE
:1008100080E002C080E090E0DF91CF9108951F93C7
:10082000CF93DF93282F30E0F901E15AFD4F8491F7
:10083000F901EE5AFE4FD491F901E856FE4FC491EA
:10084000CC23C1F0162F811183DEEC2FF0E0EE0FE8
:10085000FF1FE55DFD4FA591B4918FB7F89411117D
:1008600005C09C91ED2FE095E92302C0EC91ED2BA2
:10087000EC938FBFDF91CF911F910895CF93DF93BA
:1008800090E0FC01EE5AFE4F2491FC01E856FE4F29
:100890008491882361F190E0880F991FFC01E85C46
:1008A000FE4FC591D491FC01E55DFD4FA591B4913A
:1008B000611109C09FB7F8948881209582238883AD
:1008C000EC912E230BC0623061F49FB7F89438810D
:1008D000822F809583238883EC912E2B2C939FBFAE
:1008E00006C08FB7F894E8812E2B28838FBFDF9145
:1008F000CF910895863308F0865390917B00282F7E
:100900002870977F922B90937B00877080648093F0
:100910007C0080917A00806480937A0080917A00D4
:1009200086FDFCCF809178002091790090E0922B99
:1009300008953FB7F8948091210E9091220EA091D6
:10094000230EB091240E26B5A89B05C02F3F19F0A9
:100950000196A11DB11D3FBFBA2FA92F982F88273F
:10096000820F911DA11DB11DBC01CD0142E0660F9A
:10097000771F881F991F4A95D1F708958F929F92EC
:10098000AF92BF92CF92DF92EF92FF926B017C0108
:10099000D0DF4B015C01C114D104E104F104E9F0A2
:1009A000C8DFDC01CB0188199909AA09BB09883E77
:1009B0009340A105B10578F321E0C21AD108E108FE
:1009C000F10888EE880E83E0981EA11CB11CC114AA
:1009D000D104E104F10421F7DECFFF90EF90DF9026
:1009E000CF90BF90AF909F908F9008951F920F92DD
:1009F0000FB60F9211242F933F938F939F93AF9332
:100A0000BF9380911D0E90911E0EA0911F0EB0916C
:100A1000200E30911C0E23E0230F2D3720F4019679
:100A2000A11DB11D05C026E8230F0296A11DB11D11
:100A300020931C0E80931D0E90931E0EA0931F0EEC
:100A4000B093200E8091210E9091220EA091230E42
:100A5000B091240E0196A11DB11D8093210E90939B
:100A6000220EA093230EB093240EBF91AF919F91BD
:100A70008F913F912F910F900FBE0F901F9018955F
:100A8000FF920F931F93CF93DF931F92CDB7DEB7E3
:100A90008C01F62E80E591E04983C8DD60E0F80125
:100AA0008781BDDE8F2D8064498150E0582B0CB4C6
:100AB00005FC0CC05EBD00000DB407FEFDCF8EB579
:100AC0004EBD00000DB407FEFDCF0BC04EBD0000B3
:100AD0000DB407FEFDCF8EB55EBD00000DB407FE60
:100AE000FDCF8EB561E0F801878199DE0F90DF912F
:100AF000CF911F910F91FF9081CD0F931F93CF93B3
:100B0000DF938C01C62F80E591E090DD60E0F80175
:100B1000878185DE8C2F8F7182DD80E080DD80E033
:100B20007EDDC82F80E07BDD6C2F70E0762F66279E
:100B3000EB01C80FD11D61E0F801878170DE5EDD39
:100B40008FE090E00197F1F7BE0180E090E0DF9147
:100B5000CF911F910F9108952F923F924F925F92E4
:100B60006F927F928F929F92AF92BF92CF92DF92BD
:100B7000EF92FF920F931F93CF93DF93CDB7DEB722
:100B8000C859D1090FB6F894DEBF0FBECDBFCF57FD
:100B9000DF4F2883C158D040CE57DF4F3883C2582B
:100BA000D040CD57DF4F4883C358D040CC57DF4F9C
:100BB0005883C458D040CB57DF4F6883C558D040C6
:100BC000CA57DF4F7883C658D040C957DF4F888354
:100BD000C758D040C857DF4F9883C858D040A12C81
:100BE0002F3FEFE03E07E5EA4E07E4ED5E07E8EE53
:100BF0006E0771058105910569F064F010E1B12E71
:100C000005EAC02EE4EDDE2EF8EEEF2EF12C00E02A
:100C100010E034C0E0EFBE2EFAE5CF2EABE2DA2EC4
:100C2000B7E1EB2EFF24FA940FEF1FEFCF57DF4F02
:100C30002881C158D040CE57DF4F3881C258D040AC
:100C4000CD57DF4F4881C358D040CC57DF4F588134
:100C5000C458D040CB57DF4F6881C558D040CA57E1
:100C6000DF4F7881C658D040C957DF4F8881C758B9
:100C7000D040C857DF4F9881C858D0400E94CB2A37
:100C8000CF56DF4F2883C159D040CE56DF4F38832F
:100C9000C259D040CD56DF4F4883C359D040CC56BF
:100CA000DF4F5883C459D040CB56DF4F6883C559B6
:100CB000D040CA56DF4F7883C659D040C956DF4F5F
:100CC0008883C759D040C856DF4F9883C859D04051
:100CD000A12C40E1B42E55EAC52E64EDD62E78EE57
:100CE000E72EF12C00E010E0CF56DF4F2881C159EC
:100CF000D040CE56DF4F3881C259D040CD56DF4F5D
:100D00004881C359D040CC56DF4F5881C459D04098
:100D1000CB56DF4F6881C559D040CA56DF4F788126
:100D2000C659D040C956DF4F8881C759D040C856F0
:100D3000DF4F9881C859D0400E94782A59016A0132
:100D40007B018C01CF57DF4F2881C158D040CE574F
:100D5000DF4F3881C258D040CD57DF4F4881C3584C
:100D6000D040CC57DF4F5881C458D040CB57DF4FCD
:100D70006881C558D040CA57DF4F7881C658D040E7
:100D8000C957DF4F8881C758D040C857DF4F988177
:100D9000C858D0400E94C72B29013A014B011C01C1
:100DA000A0E00E94D92B34F40E94522B29013A0171
:100DB0004B011C0190E4A92E22E4B22E3FE0C32E89
:100DC000D12CE12CF12C00E010E09201A301B40140
:100DD000C1010E94CB2AC757DF4F2883C958D04092
:100DE000C657DF4F3883CA58D040C557DF4F4883B6
:100DF000CB58D040C457DF4F5883CC58D040C3574E
:100E0000DF4F6883CD58D040C257DF4F7883CE582C
:100E1000D040C157DF4F8883CF58D040C057DF4FF5
:100E20009883C059D04005E00E94992BC757DF4FE7
:100E3000A880C958D040C657DF4FB880CA58D040A4
:100E4000C557DF4FC880CB58D040C457DF4FD8803C
:100E5000CC58D040C357DF4FE880CD58D040C25760
:100E6000DF4FF880CE58D040C157DF4F0881CF58B0
:100E7000D040C057DF4F1881C059D0400E94C72BC7
:100E800059016A017B01E82F192F06E00E94992B76
:100E90000E2F0E94C72B03E00E94992BC757DF4FEC
:100EA000A880C958D040C657DF4FB880CA58D04034
:100EB000C557DF4FC880CB58D040C457DF4FD880CC
:100EC000CC58D040C357DF4FE880CD58D040C257F0
:100ED000DF4FF880CE58D040C157DF4F0881CF5840
:100EE000D040C057DF4F1881C059D0400E94B22B6C
:100EF00006E00E94992B59016A017B018C01920145
:100F0000A301B401C1010E94C72B722E632E542E7F
:100F1000452E362E272EF82EE92ECF57DF4F28816B
:100F2000C158D040CE57DF4F3881C258D040CD573E
:100F3000DF4F4881C358D040CC57DF4F5881C45849
:100F4000D040CB57DF4F6881C558D040CA57DF4FDC
:100F50007881C658D040C957DF4F8881C758D040E4
:100F6000C857DF4F9881C858D040A0E00E94D92BC5
:100F700024F48EE79DE00E94FD11C856DF4F888162
:100F8000C859D0408F93C956DF4F9881C759D04078
:100F90009F93CA56DF4FE881C659D040EF93CB5696
:100FA000DF4F8881C559D0408F93CC56DF4F988151
:100FB000C459D0409F93CD56DF4FE881C359D040EC
:100FC000EF93CE56DF4F8881C259D0408F93CF56D2
:100FD000DF4F9881C159D0409F9380E89DE09F9357
:100FE0008F938E010F5F1F4F1F930F930E94082C4A
:100FF000C8010E94FD11C057DF4FE881C059D040A1
:10100000EF93C157DF4F8881CF58D0408F93C2579D
:10101000DF4F9881CE58D0409F93C357DF4FE88170
:10102000CD58D040EF93C457DF4F8881CC58D04083
:101030008F93C557DF4F9881CB58D0409F93C657A9
:10104000DF4FE881CA58D040EF93C757DF4F888100
:10105000C958D0408F9385E8882E8DE0982E9F92B6
:101060008F921F930F930E94082CC8010E94FD11BC
:10107000EF92FF922F923F924F925F926F927F92E8
:101080009F928F921F930F930E94082C0FB6F89493
:10109000DEBF0FBECDBFC8010E94FD11C856DF4F95
:1010A0000FB6F894DEBF0FBECDBFDF91CF911F9179
:1010B0000F91FF90EF90DF90CF90BF90AF909F90F7
:1010C0008F907F906F905F904F903F902F900895FA
:1010D000EF92FF920F931F93CF93DF937C018B01CD
:1010E000C0E0D0E0F80161918F01CE018E0D9F1D0F
:1010F0000E94312F2196C430D105A1F784E090E001
:10110000DF91CF911F910F91FF90EF900895EF9293
:10111000FF920F931F93CF93DF938B010C5F1F4FB1
:10112000EB017C01E61AF70AC7018C0F9D1F0E9494
:10113000292F8993C017D107B9F784E090E0DF9198
:10114000CF911F910F91FF90EF900895EF92FF9232
:101150000F931F93CF93DF937C018B01C0E0D0E00E
:10116000F80161918F01CE018E0D9F1D0E94312FDC
:101170002196CD36D105A1F78DE690E0DF91CF9194
:101180001F910F91FF90EF9008952F923F924F92F1
:101190005F926F927F928F929F92AF92BF92CF9207
:1011A000DF92EF92FF920F931F93CF93DF93CDB710
:1011B000DEB7C958D1090FB6F894DEBF0FBECDBF58
:1011C00019012A01CF57DF4F6883C158D040CE574D
:1011D000DF4F7883C258D040CD57DF4F8883C35844
:1011E000D040CC57DF4F9883C458D04020E4A22E83
:1011F00032E4B32E4FE0C42ED12CE12CF12C00E0D0
:1012000010E09101A2010E94CB2AB22FE32FF42F0C
:10121000A52F3B014C0105E00E94992BAB2EBE2E61
:10122000CF2EDA2E730184010E94C72B59016A0167
:101230007B01CB57DF4F8883C558D040192F06E07C
:101240000E94992BCB57DF4F0881C558D0400E9490
:10125000C72B03E00E94992BAB2EBE2ECF2EDA2E89
:10126000730184010E94B22B06E00E94992B590160
:101270006A017B018C019101A201CF57DF4F688188
:10128000C158D040CE57DF4F7881C258D040CD579B
:10129000DF4F8881C358D040CC57DF4F9881C45866
:1012A000D0400E94C72BAF93FF93EF93BF9380E88A
:1012B0009DE09F938F938E010F5F1F4F1F930F939E
:1012C000CA57DF4F2883C658D040C957DF4F3883ED
:1012D000C758D040C857DF4F4883C858D040C75779
:1012E000DF4F5883C958D0400E94082CC8010E9483
:1012F000FD11C757DF4F5881C958D0405F93C85779
:10130000DF4F4881C858D0404F93C957DF4F3881CD
:10131000C758D0403F93CA57DF4F2881C658D040A6
:101320002F9385E89DE09F938F931F930F930E94C7
:10133000082CC8010E94FD110FB6F894DEBF0FBE45
:10134000CDBFC757DF4F0FB6F894DEBF0FBECDBF7E
:10135000DF91CF911F910F91FF90EF90DF90CF9091
:10136000BF90AF909F908F907F906F905F904F90C5
:101370003F902F900895CF9383EB9EE014D8892B54
:10138000D9F383EB9EE00E94B101C82F9BD48C2F30
:10139000CF910895CF931092B00E1092AF0ECDE082
:1013A000EADF2091AF0E3091B00E2E37310524F4D4
:1013B0008A3011F08D3091F4C90101969093B00EEE
:1013C0008093AF0EF901E15DF14FC083FC01E15D57
:1013D000F14F1082029724F3CF910895883089F459
:1013E00080E270D488E06ED48091AF0E9091B00E00
:1013F00018161906ACF601979093B00E8093AF0EB5
:10140000CFCFA9014F5F5F4F5093B00E4093AF0E07
:10141000F901E15DF14F8083C3CF1F920F920FB6A8
:101420000F9211240BB60F922F933F934F935F931C
:101430006F937F938F939F93AF93BF93CF93EF93CC
:10144000FF9320910601C0911A0E9091190E809180
:10145000180E322F309583239223892B90916D00A3
:10146000C227C923C82320931A0ECC23C1F1C0FF81
:1014700005C0E091080EF091090E1995C1FF05C055
:10148000E0910A0EF0910B0E1995C2FF05C0E09194
:101490000C0EF0910D0E1995C3FF05C0E0910E0ED4
:1014A000F0910F0E1995C4FF05C0E091100EF09158
:1014B000110E1995C5FF05C0E091120EF091130EA3
:1014C0001995C6FF05C0E091140EF091150E1995FF
:1014D000C7FF05C0E091160EF091170E1995FF9108
:1014E000EF91CF91BF91AF919F918F917F916F912C
:1014F0005F914F913F912F910F900BBE0F900FBEB8
:101500000F901F9018951F920F920FB60F921124F3
:101510000BB60F922F933F934F935F936F937F93ED
:101520008F939F93AF93BF93CF93EF93FF932091AC
:101530000301C091070E9091060E8091050E322F87
:10154000309583239223892B9091040EC227C923BF
:10155000C8232093070ECC2389F1C0FF05C0E0917A
:10156000F60DF091F70D1995C1FF05C0E091F80D4A
:10157000F091F90D1995C2FF05C0E091FA0DF091B7
:10158000FB0D1995C3FF05C0E091FC0DF091FD0D19
:101590001995C4FF05C0E091FE0DF091FF0D19955E
:1015A000C5FF05C0E091000EF091010E1995C6FF30
:1015B00005C0E091020EF091030E1995FF91EF9195
:1015C000CF91BF91AF919F918F917F916F915F91DB
:1015D0004F913F912F910F900BBE0F900FBE0F9028
:1015E0001F9018951F920F920FB60F9211240BB6F1
:1015F0000F922F933F934F935F936F937F938F93AC
:101600009F93AF93BF93CF93EF93FF9323B1C09179
:10161000F50D9091F40D8091F30D322F30958323C9
:101620009223892B90916B00C227C923C823209352
:10163000F50DCC23C1F1C0FF05C0E091E30DF091A1
:10164000E40D1995C1FF05C0E091E50DF091E60D9F
:101650001995C2FF05C0E091E70DF091E80D1995CD
:10166000C3FF05C0E091E90DF091EA0D1995C4FFA3
:1016700005C0E091EB0DF091EC0D1995C5FF05C08B
:10168000E091ED0DF091EE0D1995C6FF05C0E091CA
:10169000EF0DF091F00D1995C7FF05C0E091F10D28
:1016A000F091F20D1995FF91EF91CF91BF91AF910C
:1016B0009F918F917F916F915F914F913F912F916A
:1016C0000F900BBE0F900FBE0F901F9018951F929A
:1016D0000F920FB60F9211240BB60F922F933F93D8
:1016E0004F935F936F937F938F939F93AF93BF932A
:1016F000EF93FF93E091E10DF091E20D1995FF91C9
:10170000EF91BF91AF919F918F917F916F915F9179
:101710004F913F912F910F900BBE0F900FBE0F90E6
:101720001F9018951F920F920FB60F9211240BB6AF
:101730000F922F933F934F935F936F937F938F936A
:101740009F93AF93BF93EF93FF93E091DF0DF091E1
:10175000E00D1995FF91EF91BF91AF919F918F91FE
:101760007F916F915F914F913F912F910F900BBEA1
:101770000F900FBE0F901F9018951F920F920FB6EB
:101780000F9211240BB60F922F933F934F935F93B9
:101790006F937F938F939F93AF93BF93EF93FF9339
:1017A000E091DD0DF091DE0D1995FF91EF91BF9164
:1017B000AF919F918F917F916F915F914F913F91E9
:1017C0002F910F900BBE0F900FBE0F901F9018958A
:1017D0001F920F920FB60F9211240BB60F922F93F8
:1017E0003F934F935F936F937F938F939F93AF93A9
:1017F000BF93EF93FF93E091DB0DF091DC0D199512
:10180000FF91EF91BF91AF919F918F917F916F91D8
:101810005F914F913F912F910F900BBE0F900FBE94
:101820000F901F9018951F920F920FB60F921124D0
:101830000BB60F922F933F934F935F936F937F93CA
:101840008F939F93AF93BF93EF93FF93E091D90D45
:10185000F091DA0D1995FF91EF91BF91AF919F91A2
:101860008F917F916F915F914F913F912F910F9049
:101870000BBE0F900FBE0F901F9018951F920F92E6
:101880000FB60F9211240BB60F922F933F934F93E5
:101890005F936F937F938F939F93AF93BF93EF93D8
:1018A000FF93E091D70DF091D80D1995FF91EF912D
:1018B000BF91AF919F918F917F916F915F914F9168
:1018C0003F912F910F900BBE0F900FBE0F901F9066
:1018D00018951F920F920FB60F9211240BB60F920C
:1018E0002F933F934F935F936F937F938F939F9328
:1018F000AF93BF93EF93FF93E091D50DF091D60D89
:101900001995FF91EF91BF91AF919F918F917F9129
:101910006F915F914F913F912F910F900BBE0F9060
:101920000FBE0F901F9018951F920F920FB60F9237
:1019300011240BB60F922F933F934F935F936F93A6
:101940007F938F939F93AF93BF93EF93FF93E09118
:10195000D30DF091D40D1995FF91EF91BF91AF91F7
:101960009F918F917F916F915F914F913F912F91B7
:101970000F900BBE0F900FBE0F901F901895542F15
:101980008F779EEF980F923008F4B6C095EB980FC2
:10199000923008F4B1C09EEE980F943008F4ACC0B9
:1019A000282F30E0F901863438F0E45BFE4F849153
:1019B000433009F063C115C0EE5AFE4F8491F9011E
:1019C000E856FE4F9491433011F04130B9F4923013
:1019D00031F44091F40D482B4093F40D0FC09A3030
:1019E00031F49091060E982B9093060E4AC19B30CD
:1019F00029F44091190E482B4093190E4FEF450FD3
:101A00004230B8F4923031F44091F30D482B4093BA
:101A1000F30D0FC09A3031F44091050E482B4093DE
:101A2000050E07C09B3029F44091180E482B4093B7
:101A3000180EF901E252FE4FA4919230C1F4B0E0C9
:101A4000AA0FBB1FAD51B24F6D937C93E9E4F2E056
:101A5000A591B4919C919093F50D2BE630E03093D5
:101A6000D20D2093D10D9091680091603BC09A30C7
:101A700001F5B0E0AA0FBB1FAA50B24F6D937C9343
:101A8000E9E5F2E0A591B4919C919093070E2CE6C4
:101A900030E03093D20D2093D10D90916800926088
:101AA000909368009091040E982B9093040E880FE9
:101AB0001BC09B30C9F4B0E0AA0FBB1FA85FB14F99
:101AC0006D937C93EBE5F2E0A591B4919C9190939A
:101AD0001A0E2DE630E03093D20D2093D10D909167
:101AE0006800946090936800A091D10DB091D20DE0
:101AF000EC918E2B8C9308959FB7F894833109F461
:101B000064C0E0F4833009F48CC0823109F473C0FE
:101B1000823009F0B1C07093DC0D6093DB0DEC985E
:101B200080916A008C7F80936A0080916A00452FC3
:101B3000482B40936A00E49AEC9A9EC08531E9F004
:101B400070F18B3409F483C08C3409F095C0709324
:101B5000E20D6093E10DEF9880916A008F7380939E
:101B60006A0080916A0020E4529FA0011124482B52
:101B700040936A00E79AEF9A7FC07093D40D609308
:101B8000D30DE898809169008C7F80936900409123
:101B90006900452B40936900E09AE89A6DC0709304
:101BA000D60D6093D50DE99880916900837F80936D
:101BB00069008091690024E0529FA0011124482B04
:101BC00040936900E19AE99A57C07093D80D6093E9
:101BD000D70DEA98809169008F7C8093690080918D
:101BE000690020E1529FA0011124482B4093690015
:101BF000E29AEA9A41C07093DA0D6093D90DEB989E
:101C0000809169008F73809369008091690020E45E
:101C1000529FA0011124482B40936900E39AEB9A4C
:101C20002BC07093DE0D6093DD0DED9880916A00FE
:101C3000837F80936A0080916A0024E0529FA00114
:101C40001124482B40936A00E59AED9A15C07093D1
:101C5000E00D6093DF0DEE9880916A008F7C809399
:101C60006A0080916A0020E1529FA0011124482B54
:101C700040936A00E69AEE9A9FBF0895413009F4B6
:101C8000B0CE9AE0BBCE009769F0FC010190002035
:101C9000E9F73197AF01481B590BBC0183EB9EE07C
:101CA0000C94860180E090E008958BE89DE0EBCFF6
:101CB000CF93DF93E8DFEC01F8DF8C0F9D1FDF91FE
:101CC000CF910895E091B30EF091B40E0190F081A0
:101CD000E02D682F83EB9EE019948091B10E9091D6
:101CE000B20E2091AF0E3091B00E82179307ACF474
:101CF000FC01E15DF14F8081E5DF8091B10E9091B3
:101D0000B20E9C012F5F3F4F3093B20E2093B10E65
:101D1000FC01E15DF14F808108952DCB2F923F9220
:101D20004F925F926F927F928F929F92AF92BF92EB
:101D3000CF92DF92EF92FF920F931F93CF93DF9397
:101D4000CDB7DEB72E970FB6F894DEBF0FBECDBF6E
:101D50009A8389831092AF101092B0101092B11034
:101D60001092B2101092B3101092B4101092B510DD
:101D70001092B6101092A7101092A8101092A910ED
:101D80001092AA101092AB101092AC101092AD10DD
:101D90001092AE101092270E1092280E1092290E5B
:101DA00010922A0E10922B0E10922C0E10922D0EC5
:101DB00010922E0E81E08093000210920102109288
:101DC0000202109203021092040210920502109275
:101DD0000602109207021092260E1092250E7DDF49
:101DE000182F082E000C990B0E94E92B892BB9F7AC
:101DF0001B3219F472DF182F09C01D3239F46DDF60
:101E0000182F81E090E09C878B8702C01C861B8680
:101E1000EE24E394F12C103339F45FDF182FF092A5
:101E2000260EE092250EF7CF812F012E000C990B84
:101E3000C0970A9708F057C022242394312CE12F31
:101E4000012E000CFF0BF097EA30F10508F048C0B6
:101E50003092260E2092250E2091AF103091B010B6
:101E60004091B1105091B2106091B3107091B410C4
:101E70008091B5109091B61001E00E94992B290134
:101E80003A014B01B82FA92F02E00E94992B59016A
:101E90006A017B018C019201A301B4018B2F9A2F5F
:101EA0000E94B22B1F2F110F110B5F01C12ED12EDB
:101EB000E12EF12E012F0E94B22B2093AF10309310
:101EC000B0104093B1105093B2106093B310709360
:101ED000B4108093B5109093B610FFDE182FAFCFDB
:101EE0001E861D8610C01E3299F4F7DE182F1E863E
:101EF0001D86103341F4AD85BE851197BE87AD8731
:101F0000ECDE182FF6CF1E3229F4E7DE182F02C0C0
:101F10001E861D8688248394912CE12F012E000CAF
:101F2000FF0BF097EA30F10508F04DC09092260EB5
:101F30008092250E2091AF103091B0104091B110D9
:101F40005091B2106091B3107091B4108091B5109F
:101F50009091B61001E00E94992B19012A013B01D2
:101F6000B82FA92F02E00E94992B59016A017B0129
:101F70008C019101A201B3018B2F9A2F0E94B22BE9
:101F80001F2F110F110B5F01C12ED12EE12EF12E4B
:101F9000012F0E94B22B2093AF103093B0104093CA
:101FA000B1105093B2106093B3107093B41080933B
:101FB000B5109093B610ED85FE853197FE87ED87BD
:101FC0008CDE182FAACF1F7D153489F586DE8B3263
:101FD00011F483DE06C08D3221F47FDE01E010E0D3
:101FE00002C000E010E0803311F477DEFCCFE12C7A
:101FF000F12C9AE0D92E082E000C990BC0978A304C
:10200000910550F4DE9C9001DF9C300D1124790184
:10201000E80EF91E62DEEFCF012B19F0F194E19486
:10202000F1088D859E858E0D9F1D9E878D878091E1
:10203000250E9091260E892B09F455C18090AF1082
:102040009090B0109091B1109B83A091B210AC838E
:10205000B091B310BD83E091B410EE836090B510E1
:102060007090B6108092A7109092A8109093A9102B
:10207000A093AA10B093AB10E093AC106092AD1097
:102080007092AE108D859E8597FF8CC030900002B7
:1020900020900102909102029F83A0910302A887E1
:1020A000B0910402B987E0910502EA8750900602D8
:1020B00040900702232D322D4F81588569857A85FE
:1020C000852D942D01E00E94992B19012A01B62F2C
:1020D000A72FF82FE92F02E00E94992B59016A01DE
:1020E0007B018C019101A2016B2F7A2F8F2F9E2FE4
:1020F0000E94B22B322E232E4F83588769877A870E
:10210000582E492E8D859E8501969E878D87892B19
:1021100089F630920002209201024093020250930D
:1021200003026093040270930502509206024092EB
:102130000702A32CB22CC42ED52EE62EF72E052D89
:10214000142D94014B815C816D817E81C3010E94BD
:10215000C92A2093270E3093280E4093290E5093BE
:102160002A0E60932B0E70932C0E80932D0E90935D
:102170002E0E94014B815C816D817E81C3010E9492
:10218000CB2A2093A7103093A8104093A910509306
:10219000AA106093AB107093AC108093AD10909325
:1021A000AE103EC08D859E85892BD1F1E0E0F0E038
:1021B00094014B815C816D817E81C30101E00E94AD
:1021C000992B29013A014B01B82FA92F02E00E9457
:1021D000992B59016A017B018C019201A301B40181
:1021E0008B2F9A2F0E94B22B49014B835C836D8306
:1021F0007E833C013196AD85BE85EA17FB07C1F6AB
:102200002093A7109092A8104093A9105093AA1061
:102210006093AB107093AC106092AD107092AE10E2
:10222000AB85BC85AB2B09F444C02091A71030913D
:10223000A8104091A9105091AA106091AB10709114
:10224000AC108091AD109091AE100E94522B209353
:10225000A7103093A8104093A9105093AA10609330
:10226000AB107093AC108093AD109093AE10209192
:10227000270E3091280E4091290E50912A0E609120
:102280002B0E70912C0E80912D0E90912E0E0E948F
:10229000522B2093270E3093280E4093290E5093F3
:1022A0002A0E60932B0E70932C0E80932D0E90931C
:1022B0002E0E8091A710E981FA8180838091A81069
:1022C00081838091A91082838091AA108383809159
:1022D000AB1084838091AC1085838091AD10868390
:1022E0008091AE1087832E960FB6F894DEBF0FBE96
:1022F000CDBFDF91CF911F910F91FF90EF90DF90B5
:10230000CF90BF90AF909F908F907F906F905F9095
:102310004F903F902F9008958F929F92AF92BF92CF
:102320000F931F93CF93DF93CDB7DEB7A1970FB66F
:10233000F894DEBF0FBECDBF19A2423008F44AE0C8
:102340008E010F5D1F4F842E912CA12CB12CA50165
:1023500094010E946B2FE62FB901CA0101501109A7
:10236000EA3014F4E05D01C0E95CD801EC93232B62
:10237000242B252B61F7C80186DCA1960FB6F894B3
:10238000DEBF0FBECDBFDF91CF911F910F91BF90E8
:10239000AF909F908F900895CF92DF92EF92FF922F
:1023A000CF93DF9397FF17C06B017C018DE28ADC2E
:1023B000EC0166277727CB016C197D098E099F09EF
:1023C0004AE0AADF8C0F9D1FDF91CF91FF90EF9025
:1023D000DF90CF9008954AE0DF91CF91FF90EF908A
:1023E000DF90CF9099CFCF93DF93D6DFEC015DDC08
:1023F0008C0F9D1FDF91CF91089545CCCF93DF9334
:1024000061DCEC0152DC8C0F9D1FDF91CF910895B0
:10241000CF93DF93CDB7DEB7C658D1400FB6F8944F
:10242000DEBF0FBECDBF789484B5826084BD84B515
:10243000816084BD85B5826085BD85B5816085BDBF
:1024400080916E00816080936E0010928100809177
:1024500081008260809381008091810081608093FF
:102460008100809180008160809380008091B10024
:1024700084608093B1008091B00081608093B0004F
:1024800080919100826080939100809191008160A1
:102490008093910080919000816080939000809162
:1024A000A10082608093A1008091A100816080934F
:1024B000A1008091A00081608093A0008091210103
:1024C00082608093210180912101816080932101AC
:1024D0008091200181608093200180917A00846046
:1024E00080937A0080917A00826080937A00809154
:1024F0007A00816080937A0080917A00806880936E
:102500007A001092C1002E010BED400E511C920179
:102510002F5F3F4FCE57DE4F39832883C258D140BB
:102520004EE650E04C0F5D1F4D5E5F4FCC57DE4FC7
:1025300059834883C458D140BE01605B7E4FC85A5E
:10254000DE4F79836883C855D14060E082E10E9404
:102550003E0461E08CE00E943E0461E08DE00E9458
:102560003E0461E082E40E943E0461E083E40E9454
:102570003E048091080180648093080180910801E5
:102580008061809308018091080180688093080130
:102590008091080180628093080180910801886021
:1025A0008093080183EB9EE00E944F02E091C50EEC
:1025B000F091C60E80818F7E8083E091C50EF091F0
:1025C000C60E8081877F8083E091C50EF091C60E94
:1025D00080818F778083E091C50EF091C60E808157
:1025E0008F7D80838091CD0E8093CC0EE091C30EC1
:1025F000F091C40E82E08083E091BF0EF091C00E96
:102600001082E091C10EF091C20E80E180831092A1
:10261000CB0EE091C70EF091C80E86E08083E0916A
:10262000C50EF091C60E808180618083E091C50E59
:10263000F091C60E808188608083E091C50EF09194
:10264000C60E808180688083E091C50EF091C60E31
:1026500080818F7D80839FB7F8948091970D882328
:1026600019F081508093970D8091970D811105C0CD
:102670008CB58F7B8CBD10928E0D9FBF1FB7F894C9
:102680008091970D811127C0EDECF1E08491E7E88E
:10269000F1E09491E82FF0E0EE0FFF1FE85CFE4FB1
:1026A000A591B491EC91E92321F461E085E30E94C6
:1026B0000F0461E085E30E943E048CB580618CBD0F
:1026C0008CB580648CBD61E084E30E943E0461E0CF
:1026D00083E30E943E048091970D8F5F8093970D56
:1026E0001FBFBE01685B7E4F80EF9FE00E9487089E
:1026F000B20184EF9FE00E948708C85BDE4F8881AB
:102700009981AA81BB81C854D1408F3F7FEF970741
:10271000A707B70761F4F20180819181A281B3819B
:102720008F3F9F4FAF4FBF4F09F095C00FC0892B10
:102730008A2B8B2B09F08FC0F20180819181A281BD
:10274000B381892B8A2B8B2B09F085C082E392E021
:10275000AFDA86E30E947A04BC01990F880B990BCB
:10276000611571058105910511F00E94202F0E94CD
:102770001D2F2FEF3FEF40E050E00E943F2FC85B3E
:10278000DE4F688379838A839B83C854D14089E371
:102790000E947A04BC01990F880B990B6115710591
:1027A0008105910511F00E94202F0E941D2F2FEF0F
:1027B0003FEF40E050E00E943F2FD2016D937D93A8
:1027C0008D939C931397BE01685B7E4F80EF9FE0D3
:1027D0000E946808B20184EF9FE00E946808F2013D
:1027E00083818F9382818F9381818F9380818F9357
:1027F000C55BDE4F8881CB54D1408F93C65BDE4FE3
:102800008881CA54D1408F93C75BDE4F8881C954F9
:10281000D1408F93C85BDE4F8881C854D1408F93DD
:1028200087E592E09F938F9388E99DE09F938F9334
:102830000E94082C80EB93E0E0DD88E99DE038DA27
:102840006CE47DE180E090E00E94BE040FB6F89455
:10285000DEBF0FBECDBFD20113968C9113978F931D
:1028600012968C9112978F9311968C9111978F934A
:102870008C918F93C55BDE4F8881CB54D1408F9371
:10288000C65BDE4F8881CA54D1408F93C75BDE4F51
:102890008881C954D1408F93C85BDE4F8881C8546A
:1028A000D1408F9387E592E09F938F9388E99DE0D5
:1028B0009F938F930E94082C80E090E00E94292F24
:1028C0000FB6F894DEBF0FBECDBF883009F449C102
:1028D00082E692E0EDD988E0D2018C9341E150E0AC
:1028E0006CE072E0CE57DE4F88819981C258D140AA
:1028F0000E94F92B84E4F201828B41E150E068E907
:102900007DE0C20143960E94F92BD20194961C925D
:10291000949795961C92959780E896968C939697A7
:1029200086E997968C93979788E998968C939897D1
:1029300099961C9299979A961C929A979B961C929C
:102940009B979C961C929C979D961C929D979E96F9
:102950001C929E9781EE9F968C939F9785EFD096C1
:102960008C93D09785E0D1968C93D197D2961C9278
:10297000D297D3961C92D397D4961C92D497D5967F
:102980001C92D59784E190E0D7969C938E93D6972E
:1029900085E090E0D9969C938E93D8978DE4DA9653
:1029A0008C93DA9782E5DB968C93DB97DC968C939D
:1029B00094ECF201FD96908389E081831282138268
:1029C0001482158216821782C05EDE4F9883C05231
:1029D000D140CF5DDE4F8883C152D140CE5DDE4F06
:1029E0001882C252D140CD5DDE4F1882C352D14011
:1029F000CC5DDE4F1882C452D140CB5DDE4F1882D1
:102A0000C552D140CA5DDE4F1882C652D140C95D61
:102A1000DE4F1882C752D140C85DDE4F1882C852BF
:102A2000D140C75DDE4F1882C952D140C65DDE4F2E
:102A30001882CA52D140C55DDE4F1882CB52D140B8
:102A4000C45DDE4F1882CC52D140C35DDE4F188288
:102A5000CD52D140C25DDE4F1882CE52D140C15D11
:102A6000DE4F1882CF52D140C05DDE4F1882C05376
:102A7000D140CF5CDE4F1882C153D140CE5CDE4FD7
:102A80001882C253D140CD5CDE4F1882C353D1406F
:102A9000CC5CDE4F1882C453D140CB5CDE4F188231
:102AA000C553D140CA5CDE4F1882C653D140C95CC1
:102AB000DE4F1882C753D140C85CDE4F1882C8531E
:102AC000D140C75CDE4F1882C953D140C65CDE4F8F
:102AD0001882CA53D140C55CDE4F1882CB53D14017
:102AE000C45CDE4F1882CC53D140C35CDE4F1882E9
:102AF000CD53D140C25CDE4F1882CE53D140C15C71
:102B0000DE4F1882CF53D140C05CDE4F1882C054D4
:102B1000D140CF5BDE4F1882C154D140CE5BDE4F37
:102B20001882C254D140CD5BDE4F1882C354D140CD
:102B3000CC5BDE4F1882C454D140CB5BDE4F188291
:102B4000C554D140CA5BDE4F1882C654D140C95B20
:102B5000DE4F1882C754D140B20180E090E00E945D
:102B6000A6087AE3272E70E1372E710100E010E00D
:102B7000C8010E94292FF70181937F010F5F1F4F2A
:102B80000D361105A9F780915E108093B20D8DD896
:102B900087E892E08DD888EA92E08AD886D888EDD6
:102BA00092E086D88EEE92E083D88DE6EAE3F0E1FB
:102BB000DE01A259BF4F01900D928A95E1F785E0A1
:102BC00093E01BDCCE56DF4F8881C259D040823063
:102BD00081F038F4882351F08130A1F48BE293E046
:102BE00010C0833049F0843051F00CC08AE193E08A
:102BF00008C084E293E005C08EE393E059D880E5F5
:102C000093E056D886E593E0F8DBCD56DF4F888118
:102C1000C359D040882311F0F1DB03C089E693E06B
:102C200047D88EE693E0E9DB80E090E00E94292F10
:102C3000682F70E080E090E04AE06EDB81E893E08E
:102C4000DCDBC058DF4F8881C058D040D7DB83E938
:102C500093E0D3DB8CE092E02BD888EA93E0CDDBE5
:102C6000CC57DE4F88819981C458D14021D880EC5F
:102C700093E0C3DBCC56DF4F2881C459D040CB56FC
:102C8000DF4F3881C559D040CA56DF4F4881C659F9
:102C9000D040C956DF4F5881C759D040C856DF4F82
:102CA0006881C859D040C756DF4F7881C959D04094
:102CB000C656DF4F8881CA59D040C556DF4F98812C
:102CC000CB59D0400E94C50880ED93E00E94580E79
:102CD00085ED93E092DBC456DF4F2881CC59D0407C
:102CE000C356DF4F3881CD59D040C256DF4F48819F
:102CF000CE59D040C156DF4F5881CF59D040C05631
:102D0000DF4F6881C05AD040CF55DF4F7881C15A1C
:102D1000D040CE55DF4F8881C25AD040CD55DF4FCD
:102D20009881C35AD0400E94C50885EE93E00E9466
:102D3000580E8BEE93E061DBCC55DF4F68817981D3
:102D4000C45AD040072E000C880B990B25DB0E943B
:102D5000550E8BEF93E051DBC855DF4F8881C85A81
:102D6000D0404CDB88E094E048DBC955DF4F8881D8
:102D7000C75AD0408F93CA55DF4F8881C65AD0407A
:102D80008F9384E194E09F938F935F924F920E9480
:102D9000082CC2010E94580E8BE194E02EDBC7552F
:102DA000DF4F8881C95AD0400E94620E8CE294E0C5
:102DB00024DBC655DF4F8881CA5AD0400E94620E7C
:102DC00085E394E00E94580E8CE394E016DBEEE677
:102DD000F0E0EC0FFD1FFD9660817181828193818F
:102DE000DBDA8CE294E009DBCD54DF4F6881798136
:102DF0008A819B81C35BD040CFDA85E394E00E9457
:102E0000580E8EE494E0F9DAC554DF4F6881798179
:102E10008A819B81CB5BD040BFDA8CE294E0EDDA13
:102E2000CD53DF4F688179818A819B81C35CD0401B
:102E3000B3DA85E394E00E94580E8EE594E0DDDA83
:102E4000C553DF4F688179818A819B81CB5CD040FB
:102E5000A3DA8CE294E0D1DACD52DF4F6881798138
:102E60008A819B81C35DD04097DA85E394E00E941C
:102E7000580E88ED92E00E94580E89E694E00E9478
:102E8000580E8EE894E0B9DA0F900F900F900F90E3
:102E90000F900F9007E010E06AEF70E080E090E0A4
:102EA0000E94BE048EE20E94620E83EB9EE00E94AE
:102EB000D301892B11F011E032C06AEF70E080E09D
:102EC00090E00E94BE048EE20E94620E83EB9EE0C0
:102ED0000E94D301892B79F76AEF70E080E090E0DF
:102EE0000E94BE048EE20E94620E83EB9EE00E946E
:102EF000D301892B01F76AEF70E080E090E00E9437
:102F0000BE048EE20E94620E83EB9EE00E94D3011B
:102F1000892B89F60150110909F0BECF10E083EB2F
:102F20009EE00E94D301892B29F083EB9EE00E9452
:102F3000B101F5CF112309F491C70E94550E0E94EB
:102F4000550E81E994E059DAE0915E10E53028F4FD
:102F5000F0E0E35EFD4F808101C08FE30E94620ECE
:102F60008EEA94E00E94580E87EC94E046DA809155
:102F70005F10882329F00E94620E84EE94E005C061
:102F800083E498E03ADA88EE94E00E94580E81E0FB
:102F900095E033DA20916010309161104091621019
:102FA000509163106091641070916510809166106B
:102FB000909167100E94C5088EE195E00E94580E1E
:102FC00080E395E01ADA2091681030916910409101
:102FD0006A1050916B1060916C1070916D1080911F
:102FE0006E1090916F100E94C5088DE495E00E94CC
:102FF000580E8FE595E001DA6091701070917110B4
:10300000072E000C880B990BC7D98CE795E00E941E
:10301000580E85E995E0F1D9809172109091731066
:10302000092E000CAA0BBB0BBF93AF939F938F93FA
:10303000A2EBB5E0BF93AF93C75ADE4FF881C955F5
:10304000D140FF93C85ADE4F0881C855D1400F9335
:103050000E94082CCE01805B9E4FCFD989EB95E072
:103060000E94580E82ED95E0C8D9809174100E949C
:10307000620E8FEE95E00E94580E88E096E0BDD972
:10308000809175100E94620E80E20E94620E809113
:1030900076100E94620E85E296E00E94580E8CE344
:1030A00096E0ABD96091771070917810809179108B
:1030B00090917A1071D980E20E94620E60917F1027
:1030C00070918010809181109091821065D989E56E
:1030D00096E00E94580E8DE696E08FD96091871099
:1030E000709188108091891090918A1055D980E252
:1030F0000E94620E60918F107091901080919110DB
:103100009091921049D98AE896E00E94580E81EA7F
:1031100096E073D9609197107091981080919910F2
:1031200090919A1039D980E20E94620E60919F10AE
:103130007091A0108091A1109091A2102DD98AE8D1
:1031400096E00E94580E0E94550E8EEB96E00E946B
:10315000580E8EED96E00E94580E8CEF96E00E947D
:10316000580E8FE197E00E94580E0E94BB09082E6E
:10317000000C990B0E94F12B182F0E94550E0FB6D0
:10318000F894DEBF0FBECDBF812F110F990BAA0B94
:10319000BB0BFC01E354F109E831F10508F059C615
:1031A0008827EE58FF4F8F4F0C94702A8CE297E0DF
:1031B0000E94580E0E94550E8BE597E00E94580E13
:1031C00083E797E00E94580E88E897E00E94580E27
:1031D00089EA97E00E94580E88EC97E00E94580E0A
:1031E0000E94550E8CED97E008D90E94BB09082E6D
:1031F000000C990B0E94F12B8C349105A1F044F442
:1032000084349105A1F08934910599F481E00CC0D2
:103210008035910531F08435910559F410925E1096
:103220008CCE82E001C083E080935E1086CE84E085
:10323000FBCF89EE97E00E94580ED7CF85E098E04B
:10324000DCD880915F10882319F00E94620E03C0C1
:1032500083E498E0D2D885E198E00E94580E0E945D
:10326000BB09082E000C990B0E94F12B803209F447
:1032700080E080935F1061CE89E498E0BED8209111
:103280006010309161104091621050916310609114
:1032900064107091651080916610909167100E9483
:1032A000C50886E598E00E94580E8AE798E00E94DB
:1032B000580E0E94CA091092B20E1092B10EC201AD
:1032C0000E948E0ED201BC91C65ADE4FB883CA55F9
:1032D000D140F2016180728083809480B581F68153
:1032E000C45ADE4FF883CC55D140F201F781CC5956
:1032F000DE4FF883C456D140C65ADE4F2881CA55E6
:10330000D140362D472D582D692D7B2FC45ADE4FC5
:103310008881CC55D1409F2FAFEF0E94BB2BAFE0EF
:103320000E94D92B11F008F008CEC65ADE4F288132
:10333000CA55D140362D472D582D692D7B2FC45AA3
:10334000DE4F8881CC55D1409F2F05E00E94992BFC
:10335000C65ADE4FA880CA55D140B62CC72CD82CEF
:10336000E92CFB2EC45ADE4F0881CC55D1401F2FCB
:103370000E94C72B59016A017B01A82F192F06E073
:103380000E94992B0A2F0E94C72B03E00E94992BC1
:10339000C65ADE4FA880CA55D140B62CC72CD82CAF
:1033A000E92CFB2EC45ADE4F0881CC55D1401F2F8B
:1033B0000E94B22B06E00E94992BC459DE4F28834D
:1033C000CC56D140C259DE4F3883CE56D140C45A74
:1033D000DE4F4883CC55D140CC59DE4F5883C4567C
:1033E000D140C859DE4F6883C856D140C759DE4F17
:1033F0007883C956D140C659DE4F8883CA56D1401A
:10340000C559DE4F9883CB56D1407090270E8090DF
:10341000280E9090290EB0912A0EA0912B0EF091BB
:103420002C0EE0912D0E60902E0E272D382D492D5B
:103430005B2F6A2F7F2F8E2F962D05E00E94992BF0
:10344000A72CB82CC92CDB2EEA2EFF2E0E2F162D02
:103450000E94C72B59016A017B01C65ADE4F88833F
:10346000CA55D140192F06E00E94992BC65ADE4F4B
:103470000881CA55D1400E94C72B03E00E94992BB6
:10348000A72CB82CC92CDB2EEA2EFF2E0E2F162DC2
:103490000E94B22B06E00E94992BA0900002B090EF
:1034A0000102C0900202D0900302E0900402F0906A
:1034B000050200910602109107020E94CB2A5901D1
:1034C0006A017B018C01C459DE4F2881CC56D14062
:1034D000C259DE4F3881CE56D140C45ADE4F4881A2
:1034E000CC55D140CC59DE4F5881C456D140C85933
:1034F000DE4F6881C856D140C759DE4F7881C95622
:10350000D140C659DE4F8881CA56D140C559DE4FD9
:103510009881CB56D1400E94B22B209360103093FB
:103520006110409362105093631060936410709325
:1035300065108093661090936710FFCC81EC98E043
:103540000E94FD11209168103091691040916A101D
:1035500050916B1060916C1070916D1080916E1095
:1035600090916F100E94C50884ED98E00E94580E5B
:1035700089EE98E00E94580E0E94CA091092B20E7D
:103580001092B10EC2010E948E0ED201BC91C65A99
:10359000DE4FB883CA55D140F201618072808380CA
:1035A0009480B581F681C45ADE4FF883CC55D14062
:1035B000F201F781CC59DE4FF883C456D140C65A88
:1035C000DE4F2881CA55D140362D472D582D692D03
:1035D0007B2FC45ADE4F8881CC55D1409F2FA0E06D
:1035E0000E94D92B09F00CF4A8CC05E00E94992B7D
:1035F000C65ADE4FA880CA55D140B62CC72CD82C4D
:10360000E92CFB2EC45ADE4F0881CC55D1401F2F28
:103610000E94C72B59016A017B01A82F192F06E0D0
:103620000E94992B0A2F0E94C72B03E00E94992B1E
:10363000C65ADE4FA880CA55D140B62CC72CD82C0C
:10364000E92CFB2EC45ADE4F0881CC55D1401F2FE8
:103650000E94B22B06E00E94992BC459DE4F2883AA
:10366000CC56D140C259DE4F3883CE56D140C45AD1
:10367000DE4F4883CC55D140CC59DE4F5883C456D9
:10368000D140C859DE4F6883C856D140C759DE4F74
:103690007883C956D140C659DE4F8883CA56D14077
:1036A000C559DE4F9883CB56D1407090270E80903D
:1036B000280E9090290EB0912A0EA0912B0EF09119
:1036C0002C0EE0912D0E60902E0E272D382D492DB9
:1036D0005B2F6A2F7F2F8E2F962D05E00E94992B4E
:1036E000A72CB82CC92CDB2EEA2EFF2E0E2F162D60
:1036F0000E94C72B59016A017B01C65ADE4F88839D
:10370000CA55D140192F06E00E94992BC65ADE4FA8
:103710000881CA55D1400E94C72B03E00E94992B13
:10372000A72CB82CC92CDB2EEA2EFF2E0E2F162D1F
:103730000E94B22B06E00E94992BA0900002B0904C
:103740000102C0900202D0900302E0900402F090C7
:10375000050200910602109107020E94CB2A59012E
:103760006A017B018C01C459DE4F2881CC56D140BF
:10377000C259DE4F3881CE56D140C45ADE4F4881FF
:10378000CC55D140CC59DE4F5881C456D140C85990
:10379000DE4F6881C856D140C759DE4F7881C9567F
:1037A000D140C659DE4F8881CA56D140C559DE4F37
:1037B0009881CB56D1400E94B22B20936810309351
:1037C000691040936A1050936B1060936C10709363
:1037D0006D1080936E1090936F10AFCB8FE299E0D5
:1037E0000E94FD116091701070917110072E000CF5
:1037F000880B990B0E94CC1184E499E00E94580E2A
:1038000081E799E00E94580E0E94CA091092B20EF8
:103810001092B10EC2010E948E0E8091250E9091E1
:10382000260E892B09F489CBD201FC911196EC91DB
:1038300011971296DC9012971396EC9013971496AA
:10384000FC90149715960C91159716961C91169747
:103850001796CC902F2F277F3E2F4D2D5E2D6F2D4D
:10386000702F812F9C2DA2E00E94D92B51F02F2F79
:10387000A4E10E94D92B29F0A8E20E94D92B09F0DB
:103880005CCBCF0190937010E093711056CB809178
:10389000721090917310092E000CAA0BBB0BBF93F2
:1038A000AF939F938F93A2EBB5E0BF93AF935F92DB
:1038B0004F920E94082C8FEA99E00E94FD11C201EC
:1038C0000E94FD1188EB99E00E94580E81E799E073
:1038D0000E94580E0E94CA091092B20E1092B10EA8
:1038E000CE01885B9E4F0E948E0E0FB6F894DEBF0D
:1038F0000FBECDBF8091250E9091260E892B09F425
:103900001CCBC85BDE4FF881C854D140C75BDE4F8B
:10391000E881C954D140C65BDE4F4881CA54D140CA
:10392000C55BDE4F5881CB54D140C45BDE4F68810C
:10393000CC54D140C35BDE4F7881CD54D1402F2F82
:103940003E2FC25BDE4F8881CE54D140C15BDE4F3B
:103950009881CF54D1402F3F310541055105610574
:1039600071058105910511F008F0E7CACF01909328
:10397000721080937310E1CA8AEE99E00E94FD11E3
:10398000809174100E94620E8BEF99E00E94580E95
:103990000E94BB09082E000C990B0E94F12B8D345C
:1039A00019F0833509F0C9CA80937410C6CA8BE137
:1039B0009AE00E94580E8DE29AE00E94FD118091DB
:1039C00075100E94FE118FE39AE00E94FD11809114
:1039D00076100E94FE1181E59AE00E94580E0E9426
:1039E000CA09EFE2FEE09F012F523E40790181912A
:1039F0008032C9F3082E000C990B0E94F12B813400
:103A000019F400E010E005C0823409F096CA01E024
:103A100010E0F701E05DF14F81918032E9F3082E6B
:103A2000000C990B0E94F12B823519F0863409F0B5
:103A300084CAF801E65CFF4E83AF7FCA87E99AE04B
:103A40000E94580E8AEB9AE00E94FD116091771057
:103A5000709178108091791090917A100E94F311F2
:103A60008DEC9AE00E94FD1160917F1070918010A2
:103A700080918110909182100E94F31180EE9AE063
:103A80000E94580E0E94BB09082E000C990B0E9440
:103A9000F12B813419F400E010E004C0823471F796
:103AA00001E010E088EF9AE00E94580E0E94CA09D7
:103AB0001092B20E1092B10EC2010E948E0E809131
:103AC000250E9091260E892B09F437CAF80163E080
:103AD000EE0FFF1F6A95E1F7E65CFF4EFD96A5C06D
:103AE00082E29BE00E94580E8BE39BE00E94FD1156
:103AF00060918710709188108091891090918A1040
:103B00000E94F3118CE49BE00E94FD1160918F10E4
:103B10007091901080919110909192100E94F311E9
:103B200080EE9AE00E94580E0E94BB09082E000CFD
:103B3000990B0E94F12B813419F400E010E004C0CD
:103B4000823471F701E010E08DE59BE00E94580E91
:103B50000E94CA091092B20E1092B10EC2010E94C8
:103B60008E0E8091250E9091260E892B09F4E5C9C1
:103B700053E0000F111F5A95E1F7065C1F4EF80144
:103B8000E35BFF4F52C082E89BE00E94580E87E93A
:103B90009BE00E94FD1160919710709198108091A8
:103BA000991090919A100E94F31188EA9BE00E946C
:103BB000FD1160919F107091A0108091A1109091C3
:103BC000A2100E94F31180EE9AE00E94580E0E940B
:103BD000BB09082E000C990B0E94F12B813419F4BB
:103BE00000E010E004C0823471F701E010E089EBDE
:103BF0009BE00E94580E0E94CA091092B20E1092C9
:103C0000B10EC2010E948E0E8091250E9091260E5B
:103C1000892B09F492C943E0000F111F4A95E1F77F
:103C2000065C1F4EF801E35AFF4FD2018C9180834E
:103C300011968C911197818312968C9112978283A1
:103C400013968C911397838314968C911497848385
:103C500015968C911597858316968C911697868369
:103C600017968C91878369C988E0898341E150E088
:103C70006CE072E0CE0102960E94F92B84E48B8BFB
:103C800041E150E068E97DE0CE0144960E94F92BC5
:103C90001DA21EA280E88FA386E988A788E989A7CC
:103CA0001AA61BA61CA61DA61EA61FA681EE88ABE3
:103CB00085EF89AB85E08AAB1BAA1CAA1DAA1EAAA8
:103CC00084E190E098AF8FAB85E090E09AAF89AF48
:103CD0008DE48BAF82E58CAF8DAF94EC9EAF89E025
:103CE0008FAF21961FAE219722961FAE2297239663
:103CF0001FAE239724961FAE249725961FAE2597B7
:103D000026961FAE269727969FAF279728968FAFA8
:103D1000289729961FAE29972A961FAE2A972B9689
:103D20001FAE2B972C961FAE2C972D961FAE2D975E
:103D30002E961FAE2E972F961FAE2F9760961FAE12
:103D4000609761961FAE619762961FAE6297639609
:103D50001FAE639764961FAE649765961FAE659716
:103D600066961FAE669767961FAE679768961FAEFA
:103D7000689769961FAE69976A961FAE6A976B96A9
:103D80001FAE6B976C961FAE6C976D961FAE6D97BE
:103D90006E961FAE6E976F961FAE6F97A0961FAE72
:103DA000A097A1961FAEA197A2961FAEA297A39629
:103DB0001FAEA397A4961FAEA497A5961FAEA59776
:103DC000A6961FAEA697A7961FAEA797A8961FAE5A
:103DD000A897A9961FAEA997AA961FAEAA97AB96C9
:103DE0001FAEAB97AC961FAEAC97AD961FAEAD971E
:103DF000AE961FAEAE978DE6FE013196AAE3B0E116
:103E000001900D928A95E1F798C889ED9BE00E9498
:103E1000580E6AE370E180E090E00E94A60814C0AA
:103E20008DE89DE00E94580E80E09CE00E94580EB4
:103E300000E010E06FEFC8010E94312F0F5F1F4FAD
:103E40000115B0E11B07B1F786EF9BE00E94580E09
:103E500005C08FE29CE00E94580E6FC880915E10F2
:103E60008093B10DA0906010B0906110C09062106E
:103E7000D0906310E0906410F0906510009166108F
:103E800010916710A092A90DB092AA0DC092AB0D2F
:103E9000D092AC0DE092AD0DF092AE0D0093AF0D4F
:103EA0001093B00D20E030E145EA54ED68EE70E08B
:103EB00080E090E00E94CB2A2093B50D3093B60DA0
:103EC0004093B70D5093B80D6093B90D7093BA0D30
:103ED0008093BB0D9093BC0D809168108093BD0DB5
:103EE000809169108093BE0D80916A108093BF0D00
:103EF00080916B108093C00D80916C108093C10DE8
:103F000080916D108093C20D80916E108093C30DCF
:103F100080916F108093C40DE0907010F09071103C
:103F2000F092B40DE092B30D00E51FE0C12CD12C4E
:103F300035E7932EF801ED5AFF4F1082118212825D
:103F4000138214821582168217829C9CD0019D9C3C
:103F5000B00D1124A05BB04FFD013B961B961C9247
:103F60001182128213821482158216821782F8013E
:103F700013A614A615A616A617A610AA11AA12AA69
:103F800013AEFB961182128213821482158216825E
:103F90001782D101DD968C91B096808311968C9119
:103FA0001197818312968C911297828313968C912C
:103FB0001397838314968C911497848315968C9110
:103FC0001597858316968C911697868317968C91F4
:103FD0001797878350968C913896808311968C9191
:103FE0001197818312968C911297828313968C91EC
:103FF0001397838314968C911497848315968C91D0
:104000001597858316968C911697868317968C91B3
:104010001797878350968C913896808311968C9150
:104020001197818312968C911297828313968C91AB
:104030001397838314968C911497848315968C918F
:104040001597858316968C911697868317968C9173
:10405000878360E0D8018C910E940F0465E070E0D6
:1040600080E090E00E94BE0461E0F80180810E943F
:104070000F0465E070E080E090E00E94BE04FAE08A
:10408000EF16F10459F074F044E1E416F10441F044
:1040900058E2E516F10431F480EC05C080E403C079
:1040A00080E801C080E0580164E7A60EB11C816081
:1040B000D5018C9321E082E1CA57DE4F2883C65890
:1040C000D1400E94E703CA57DE4F2881C658D1402D
:1040D000892B81F7222311F020E0EDCFF5014081FB
:1040E00061E0C8010E94400544E063E0C8010E940D
:1040F00040054091721066E0C8010E94400540E012
:1041000067E0C8010E944005D80112968C91813465
:1041100019F48091751004C0823431F480917610C6
:10412000863411F448E001C040E04368F801ED58DE
:10413000FF4F408360E0C8010E9440050B581F4FAD
:10414000B8E02B0E311CCA94CD2821F0CC24C394A6
:10415000D12CF0CE809174108D3409F042C061E012
:104160008EE30E943E0460E08EE30E940F0468EE3E
:1041700073E080E090E00E94BE0482E10E94E703C9
:1041800001E0892B09F400E082E0E82EF12C10E038
:104190009FE0C92ED12C82E10E94E703801791078E
:1041A000D9F4C6010197F1F7F3E3EF16F1049CF798
:1041B0002FEFE21AF20A32E3E316F10461F78DE819
:1041C0009DE00E94580E8DE89DE00E94580E83E30A
:1041D0009CE00E94580EDFCF61E08EE30E940F0446
:1041E0000CC08DE89DE00E94580E8DE89DE00E9475
:1041F000580E8DE59CE00E94580E8EE30E94E70366
:10420000892BD9F310928F0D1092900D1092910D71
:104210001092920D1092930D1092940D1092950D94
:104220001092960D42E062E673E082E10E94BF0CBC
:1042300043E067E473E082E00E94BF0C43E06CE27D
:1042400073E083E00E94BF0C60E08EE30E940F04E5
:1042500060E08EE30E943E048DE89DE00E94580ECF
:104260008DE89DE00E94580E80915E10823091F0A2
:1042700038F4882361F08130A1F48BE99CE00FC011
:10428000833059F0843069F48CEF9CE008C085E8F5
:104290009CE005C089EB9CE002C08CEC9CE00E9495
:1042A000580E809108018F7B80930801809108014E
:1042B0008F7E80930801809108018F778093080199
:1042C000809108018F7D8093080180910801877F8C
:1042D0008093080183EB9EE00E94B101839709F46B
:1042E000A6C50E9499040091CD0D1091CE0D20918C
:1042F000CF0D3091D00DDC01CB01801B910BA20BB7
:10430000B30B8B3F9105A105B10508F458C00E947D
:1043100099046093CD0D7093CE0D8093CF0D909343
:10432000D00D20918F0D3091900D4091910D5091B5
:10433000920D6091930D7091940D8091950D9091D7
:10434000960DA090C50DB090C60DC090C70DD09031
:10435000C80DE090C90DF090CA0D0091CB0D1091E1
:10436000CC0D0E94D02B31F18091080188608093A0
:10437000080170918F0D6091900D5091910D4091B9
:10438000920D3091930D2091940D9091950D809107
:10439000960D7093C50D6093C60D5093C70D409355
:1043A000C80D3093C90D2093CA0D9093CB0D809307
:1043B000CC0D05C080910801877F8093080142E5FC
:1043C0005FE0C459DE4F59834883CC56D140B3E6F1
:1043D0002B2EBFE03B2E13EA612E1FE0712E03E867
:1043E000802E0FE0902EC259DE4F19821882CE56D1
:1043F000D140C459DE4FA881B981CC56D140139623
:104400008C910E94E703892B09F0E7C4C259DE4F63
:10441000E881F981CE56D14080910801EF2B09F057
:1044200014C58064809308018091080180618093A5
:104430000801D10158967C91589759966C915997DB
:104440005A965C915A975B964C915B975C963C911F
:104450005C975D962C915D975E969C915E975F96BA
:104460008C91F40170836183528343833483258369
:10447000968387838085808B8185818B8285828BE3
:104480008385838B8485848B8585858B8685868BC8
:104490008785878B810103511109C65ADE4F198325
:1044A0000883CA55D14060E1C8010E947D05D10151
:1044B0006D937D938D939C93139762E1C65ADE4F63
:1044C00088819981CA55D1400E947D05F10164839C
:1044D00075838683978361E1C65ADE4F888199810F
:1044E000CA55D1400E947D05D1011C966D937D93E4
:1044F0008D939C931F976BE1C65ADE4F88819981FB
:10450000CA55D1400E947D05F101608B718B828B71
:10451000938B6CE1C65ADE4F88819981CA55D14090
:104520000E947D05CC59DE4F688379838A839B8303
:10453000C456D140D10154966D937D938D939C9335
:104540005797B091B50DC859DE4FB883C856D140C2
:10455000E091B60DC759DE4FE883C956D140F091BE
:10456000B70DC659DE4FF883CA56D1400091B80D39
:10457000C559DE4F0883CB56D1401091B90DC059B3
:10458000DE4F1883C057D1402091BA0DCF58DE4F6F
:104590002883C157D1403091BB0DCE58DE4F3883B0
:1045A000C257D1404091BC0DCD58DE4F4883C35710
:1045B000D140F10184859585A685B7858C019D0143
:1045C00040E050E0BA01C45ADE4F8883CC55D14058
:1045D000C35ADE4F1883CD55D140C25ADE4F2883CF
:1045E000CE55D140C15ADE4F3883CF55D140C05A45
:1045F000DE4F4883C056D140CF59DE4F5883C15655
:10460000D140CE59DE4F6883C256D140CD59DE4FDE
:104610007883C356D140C859DE4FA880C856D140D0
:10462000C759DE4FB880C956D140C659DE4FC88041
:10463000CA56D140C559DE4FD880CB56D140C0595B
:10464000DE4FE880C057D140CF58DE4FF880C157C9
:10465000D140CE58DE4F0881C257D140CD58DE4FF1
:104660001881C357D140C45ADE4F2881CC55D14060
:10467000C35ADE4F3881CD55D140C25ADE4F4881F2
:10468000CE55D140C15ADE4F5881CF55D14060E060
:1046900070E080E090E02CD7D3015896AC9058970A
:1046A0005996BC9059975A96CC905A975B96DC9045
:1046B0005B975C96EC905C975D96FC905D975E9640
:1046C0000C915E975F961C910E94C72BCC58DE4FD1
:1046D0002883C457D140CB58DE4F3883C557D140CB
:1046E000CA58DE4F4883C657D140C958DE4F588359
:1046F000C757D140C858DE4F6883C857D140C75804
:10470000DE4F7883C957D140C658DE4F8883CA57D9
:10471000D140C558DE4F9883CB57D140F1018089F5
:104720009189A289B389CC59DE4F088119812A81E8
:104730003B81C456D140081B190B2A0B3B0B40E0B0
:1047400050E0BA01C45ADE4F0883CC55D140C35A59
:10475000DE4F1883CD55D140C25ADE4F2883CE5547
:10476000D140C15ADE4F3883CF55D140C05ADE4FB9
:104770004883C056D140CF59DE4F5883C156D140EF
:10478000CE59DE4F6883C256D140CD59DE4F788373
:10479000C356D14020E432E44FE050E060E070E0E6
:1047A00080E090E0D3011896AC9018971996BC90D1
:1047B00019971A96CC901A971B96DC901B971C960B
:1047C000EC901C971D96FC901D971E960C911E97C1
:1047D0001F961C91DCD759016A017B018C01C45AD8
:1047E000DE4F2881CC55D140C35ADE4F3881CD559C
:1047F000D140C25ADE4F4881CE55D140C15ADE4F1A
:104800005881CF55D14060E070E080E090E070D6F4
:10481000E091B30DF091B40D31971F2F110F110BD3
:104820005F01C12ED12EE12EF12E012FB4D6C45A34
:10483000DE4F2883CC55D140CC59DE4F3883C45647
:10484000D140C458DE4F4883CC57D140C358DE4FC7
:104850005883CD57D140C258DE4F6883CE57D140E0
:10486000C158DE4F7883CF57D140C058DE4F888380
:10487000C058D140CF57DE4F9883C158D140F30183
:104880001089B1890289F38864897589212F3B2FAA
:10489000402F5F2D86899789A0E08BD761F0D101E9
:1048A00014961C93149715963C93159716960C9393
:1048B00016971796FC92A12C40E1B42E55EAC52E0E
:1048C00064EDD62E78EEE72EF12C00E010E0C8590A
:1048D000DE4F2881C856D140C759DE4F3881C956AE
:1048E000D140C659DE4F4881CA56D140C559DE4F26
:1048F0005881CB56D140C059DE4F6881C057D14056
:10490000CF58DE4F7881C157D140CE58DE4F8881D5
:10491000C257D140CD58DE4F9881C357D140E8D51A
:10492000C45ADE4FA880CC55D140CC59DE4FB88058
:10493000C456D140C458DE4FC880CC57D140C3586C
:10494000DE4FD880CD57D140C258DE4FE880CE57D9
:10495000D140C158DE4FF880CF57D140C058DE4F0C
:104960000881C058D140CF57DE4F1881C158D1407F
:1049700012D6CC59DE4F2883C456D140C859DE4FD9
:104980003883C856D140C759DE4F4883C956D140F5
:10499000C659DE4F5883CA56D140B62FA72FC559E6
:1049A000DE4F8883CB56D140C059DE4F9883C05725
:1049B000D140F10140815181628173815A016B01C3
:1049C0002481358146815781BA01A9019A01AB0141
:1049D00060E070E0CB01C45ADE4F2883CC55D14053
:1049E000C35ADE4F3883CD55D140C25ADE4F48837B
:1049F000CE55D140C15ADE4F5883CF55D140C05A11
:104A0000DE4F6883C056D140CF59DE4F7883C15600
:104A1000D140CE59DE4F8883C256D140CD59DE4FAA
:104A20009883C356D1409501A60160E070E080E014
:104A300090E0C45ADE4FA880CC55D140C35ADE4F17
:104A4000B880CD55D140C25ADE4FC880CE55D14036
:104A5000C15ADE4FD880CF55D140E12CF12C00E077
:104A600010E095D659016A017B018C01CC59DE4FCB
:104A70002881C456D140C859DE4F3881C856D1402C
:104A8000C759DE4F4881C956D140C659DE4F5881BB
:104A9000CA56D1406B2F7A2FC559DE4F8881CB562D
:104AA000D140C059DE4F9881C057D14021D5E0E4B4
:104AB000AE2EF2E4BF2EAFE0CA2ED12CE12CF12CA9
:104AC00000E010E068D559016A017B018C01CC58E7
:104AD000DE4F2881C457D140CB58DE4F3881C557AF
:104AE000D140CA58DE4F4881C657D140C958DE4F21
:104AF0005881C757D140C858DE4F6881C857D14048
:104B0000C758DE4F7881C957D140C658DE4F8881DB
:104B1000CA57D140C558DE4F9881CB57D14022D6D5
:104B2000C45ADE4F2883CC55D140CC59DE4F388350
:104B3000C456D140C859DE4F4883C856D140C759E2
:104B4000DE4F5883C956D140C659DE4F6883CA56D6
:104B5000D140C559DE4F7883CB56D140C059DE4F86
:104B60008883C057D140CF58DE4F9883C157D1407A
:104B7000D10158962C93589759963C9359975A9629
:104B80004C935A975B965C935B975C966C935C979F
:104B90005D967C935D975E968C935E975F969C93F3
:104BA00005E7C259DE4FE881F981CE56D1400E9F0C
:104BB000D0010F9FB00D1124A05BB04FFD013B96BB
:104BC0001B962C913181428153816481758186814C
:104BD0009781A090BD0DB090BE0DC090BF0DD0903C
:104BE000C00DE090C10DF090C20D0091C30D109169
:104BF000C40D7ED4C45ADE4FA880CC55D140CC59C8
:104C0000DE4FB880C456D140C859DE4FC880C85660
:104C1000D140C759DE4FD880C956D140C659DE4F62
:104C2000E880CA56D140C559DE4FF880CB56D140F6
:104C3000C059DE4F0881C057D140CF58DE4F188190
:104C4000C157D140A4D5D40118962C931897199622
:104C50003C9319971A964C931A971B965C931B9743
:104C60001C966C931C971D967C931D971E968C9397
:104C70001E971F969C931F975096AC9050975196F5
:104C8000BC9051975296CC9052975396DC90539784
:104C90005496EC9054975596FC90559756960C91D7
:104CA000569757961C91579772D558962C935897AC
:104CB00059963C9359975A964C935A975B965C93A6
:104CC0005B975C966C935C975D967C935D975E9624
:104CD0008C935E975F969C93F30120813181428192
:104CE00053816481758186819781A1E044D52083B9
:104CF0003183428353836483758386839783F10171
:104D0000E05AFF4F408160E0C65ADE4F88819981AA
:104D1000CA55D1400E944005D3012C9111963C9177
:104D2000119712964C91129713965C9113971496C3
:104D30006C91149715967C91159716968C911697F1
:104D400017969C91A2E035D5A9F1A4F180915F104E
:104D5000882309F481C083EB9EE00E94D3011816DA
:104D6000190644F583EB9EE00E94B10120915F108B
:104D7000022E000C330B82179307E1F46DC08130D3
:104D8000C9F4A0908B0FB0908C0FC0908D0FD09075
:104D90008E0FE0908F0FF090900F0091910F109177
:104DA000920F9501A601B701C801A1E002D511F04B
:104DB0000CF09AC0C259DE4F08811981CE56D140FD
:104DC00080910801012B09F0DAC28F7B80930801E2
:104DD000809108018F7E80930801C459DE4F28819D
:104DE0003981CC56D1402B583F4FC459DE4F3983BF
:104DF0002883CC56D14035E7230E311C45E7640E9D
:104E0000711C55E7850E911CC259DE4F688179816E
:104E1000CE56D1406130710509F45CCA61E070E0A2
:104E2000C259DE4F79836883CE56D140E2CA8AE503
:104E30009DE00E94580E64E670E080E090E00E94E1
:104E4000BE040E9470020C94A51280688093080131
:104E5000809108018062EBCA80915E10823041F53A
:104E6000D40158962C91589759963C9159975A9637
:104E70004C915A975B965C915B975C966C915C97B2
:104E80005D967C915D975E968C915E975F969C9106
:104E90000E94AC0581E39DE00E94FD11C459DE4FE4
:104EA000E881F981CC56D14080810E94FE1182CFE9
:104EB000833008F068C0811162CFF401208531850C
:104EC0004285538564857585868597850E94AC05E6
:104ED00081E39DE00E94FD11C459DE4FA881B98194
:104EE000CC56D1408C91E1CFB0910010C65ADE4F24
:104EF000B883CA55D140E0910110C45ADE4FE8830F
:104F0000CC55D140F0910210CC59DE4FF883C456F5
:104F1000D140B0910310C859DE4FB883C856D14074
:104F2000E0910410C759DE4FE883C956D140B091D3
:104F30000510F0910610E0910710C65ADE4F288147
:104F4000CA55D140C45ADE4F3881CC55D140CC59D6
:104F5000DE4F4881C456D140C859DE4F5881C856EB
:104F6000D140C759DE4F6881C956D1407B2F8F2F62
:104F70009E2F1FD409F00CF41DCF09D40E94AC055C
:104F800085E39DE0F1C0833009F011C1D0908B0F13
:104F9000E0908C0FF0908D0F00918E0F10918F0F7D
:104FA000B091900FF091910FE091920F2D2D3E2D29
:104FB0004F2D502F612F7B2F8F2F9E2FA1E0F9D3E4
:104FC00009F00CF4F7CE20910010309101104091BF
:104FD000021050910310609104107091051080919F
:104FE000061090910710E5D309F00CF4E3CE2D2DB7
:104FF0003E2D4F2D502F612F7B2F8F2F9E2F0E94E4
:10500000AC058FE39DE00E94580E20910010309176
:1050100001104091021050910310609104107091A2
:10502000051080910610909107100E94AC0584E451
:105030009DE00E94580E2091001030910110409187
:10504000021050910310609104107091051080912E
:10505000061090910710A0908B0FB0908C0FC0900D
:105060008D0FD0908E0FE0908F0FF090900F0091E9
:10507000910F1091920F8BD3C65ADE4F2883CA55D9
:10508000D140C45ADE4F3883CC55D140CC59DE4F85
:105090004883C456D140C859DE4F5883C856D140C2
:1050A000C759DE4F6883C956D140C659DE4F788351
:1050B000CA56D140C559DE4F8883CB56D140C0591E
:1050C000DE4F9883C057D140A12C80E1B82E95EADD
:1050D000C92E24EDD22E38EEE32EF12C00E010E0A4
:1050E000209118103091191040911A1050911B10F6
:1050F00060911C1070911D1080911E1090911F10D6
:10510000F7D1AFEF38D359016A017B018C01C65A40
:10511000DE4F2881CA55D140C45ADE4F3881CC5564
:10512000D140CC59DE4F4881C456D140C859DE4FDA
:105130005881C856D140C759DE4F6881C956D14001
:10514000C659DE4F7881CA56D140C559DE4F888195
:10515000CB56D140C059DE4F9881C057D14002D3C1
:105160000E94AC0589E49DE00E94580E10928B0FBE
:1051700010928C0F10928D0F10928E0F10928F0F35
:105180001092900F1092910F1092920F10920010A7
:10519000109201101092021010920310109204103D
:1051A00010920510109206101092071003CE843052
:1051B00009F000CED10113968C9113978F9312961C
:1051C0008C9112978F9311968C9111978F938C914C
:1051D0008F93A4E5BDE0BF93AF935F924F9218D336
:1051E000C2010E94FD11D10117968C9117978F93E0
:1051F00016968C9116978F9315968C9115978F9381
:1052000014968C918F93A4E5BDE0BF93AF935F920A
:105210004F92FED2C2010E94FD11D1011F968C91C6
:105220001F978F931E968C911E978F931D968C912E
:105230001D978F931C968C918F93A4E5BDE0BF932F
:10524000AF935F924F92E4D2C2010E94FD11D1014F
:1052500053968C9153978F9352968C9152978F932C
:1052600051968C9151978F9350968C918F93A4E582
:10527000BDE0BF93AF935F924F92CAD20FB6F8943E
:10528000DEBF0FBECDBFC2010E94FD11D1015796F6
:105290008C9157978F9356968C9156978F935596DE
:1052A0008C9155978F9354968C918F93A4E5BDE084
:1052B000BF93AF935F924F92ABD2C2010E94FD1198
:1052C00025E7C259DE4F08811981CE56D140209F73
:1052D000D001219FB00D1124A05BB04FFD013B9682
:1052E0001B965C91418132812381848185818681F5
:1052F0008781652F742F832F922F0E94CC118CEB06
:1053000096E00E94FD11D10158962C91589759961C
:105310003C9159975A964C915A975B965C915B9742
:105320005C966C915C975D967C915D975E968C9196
:105330005E975F969C910E94AC058CEB96E00E9474
:10534000FD11F4012085318542855385648575857D
:10535000868597850E94AC0581E39DE00E94FD1142
:10536000C459DE4FA881B981CC56D1408C910E949E
:10537000FE110FB6F894DEBF0FBECDBF1BCD8F77E9
:1053800080930801809108018F7D25CDCF92DF9217
:10539000EF92FF920F931F93CF93DF93E3EBFEE027
:1053A0001382128288EE93E0A0E0B0E084839583BC
:1053B000A683B78386E292E09183808385EC90E0B8
:1053C0009587848784EC90E09787868780EC90E0CF
:1053D000918B808B81EC90E0938B828B82EC90E0C0
:1053E000958B848B86EC90E0978B868B118E128E3A
:1053F000138E148E88E080933A10C0E5DFE084E0DD
:1054000090E09983888381E48A8382E090E09C83A2
:105410008B838AE090E09E838D8386E090E098877E
:105420008F8384E490E09A87898761E084E00E941A
:105430003E0460E08D810E943E0461E08F810E9405
:105440003E0460E08B810E943E0461E089850E94F9
:105450003E0485E090E09093C60F8093C50F82E4F0
:105460008093C70F08EC1FE083E090E0F801918380
:1054700080838AECC82E8FE0D82E8BE090E0F60176
:10548000918380839CECE92E9FE0F92E87E090E0E9
:10549000F70191838083CEECDFE085E490E099838F
:1054A000888361E085E00E943E0460E0F60180812F
:1054B0000E943E0461E0F70180810E943E0460E0AA
:1054C000F80180810E943E0461E08881DF91CF91E4
:1054D0001F910F91FF90EF90DF90CF900C943E04BE
:1054E000EE0FFF1F881F8BBF0790F691E02D1994D8
:1054F000DF93CF931F930F939A9DF02D219FF00D73
:105500008B9DF00D8A9DE02DF10D039FF00D029F04
:10551000E00DF11D4E9DE00DF11D5E9DF00D4F9DC6
:10552000F00D7F936F93BF92AF925F934F93D5012E
:10553000F4D48B01AC01D701F0D4EB01E80FF91FD3
:10554000D6011FD02F913F91D601E7D4C60FD71FA8
:10555000E81FF91FAF91BF9114D02F913F91DDD477
:10556000C60FD71FE81FF91FD601D7D4E60FF71FC4
:105570009801BE01CF0111240F911F91CF91DF91AE
:105580000895CBD4460F571FC81FD91F08F4319672
:105590000895689401C0E894F92FF12B0AF027C010
:1055A000A0E0B0E0E5EDFAE293C0092E05941AF40C
:1055B00079D0112392F4F0E80F26FFEFE094F094F5
:1055C00000951095B094C094D094A194BF0ACF0ACE
:1055D000DF0AEF0AFF0A0F0B1F0B13D007FC62D084
:1055E000CDB7DEB7ECE090C0689401C0E8948F922C
:1055F0009F92CF93DF9305D0DF91CF919F908F90B3
:10560000089588249924F401E401B0E49F93AA2723
:105610009A158B049C04ED05FE05CF05D007A10764
:1056200098F4AD2FDC2FCF2FFE2FE92D982C892E4B
:10563000982F872F762F652F542F432F322F222715
:10564000B85031F7BF9127C01B2EBF91BB27220F47
:10565000331F441F551F661F771F881F991F881C03
:10566000991CEE1FFF1FCC1FDD1FAA1FBB1F8A1432
:105670009B04EC05FD05CE05DF05A007B10748F04A
:105680008A189B08EC09FD09CE09DF09A00BB10BB4
:1056900021601A94E1F62EF49401AF01BE01CD0110
:1056A000000C089560957095809590953095409583
:1056B000509521953F4F4F4F5F4F6F4F7F4F8F4F0B
:1056C0009F4F08952F923F924F925F926F927F92D9
:1056D0008F929F92AF92BF92CF92DF92EF92FF9202
:1056E0000F931F93CF93DF93CDB7DEB7CA1BDB0BAE
:1056F0000FB6F894DEBF0FBECDBF19942A88398843
:1057000048885F846E847D848C849B84AA84B98459
:10571000C884DF80EE80FD800C811B81AA81B98165
:10572000CE0FD11D0FB6F894DEBF0FBECDBFED0179
:1057300008950F93083090F0982F872F762F652FBC
:10574000542F432F322F22270850F4CF220F331F1C
:10575000441F551F661F771F881F991F0A95B2F7B0
:105760000F9108952A0D3B1D4C1D5D1D6E1D7F1D63
:10577000801F911F08950024A7FD00942A0F301D5B
:10578000401D501D601D701D801D901D08952A191B
:105790003B094C095D096E097F09800B910B089547
:1057A0002A153B054C055D056E057F0580079107B1
:1057B00008950024A7FD00942A17300540055005E0
:1057C0006005700580059005089581E090E0F894EB
:1057D000B3C391113AC2803219F089508550D0F785
:1057E00008959111089581568A5108F48052855880
:1057F0000895FB01DC014150504048F001900D92AA
:105800000020C9F701C01D9241505040E0F70895B3
:105810000F931F93CF93DF93CDB7DEB72E970FB6BD
:10582000F894DEBF0FBECDBF0E891F8986E08C8342
:105830001A8309838FEF9FE79E838D83AE01465EB7
:105840005F4F688D798DCE01019611D02F813885FB
:10585000F801E20FF31F10822E960FB6F894DEBF08
:105860000FBECDBFDF91CF911F910F9108952F9261
:105870003F924F925F926F927F928F929F92AF92E0
:10588000BF92CF92DF92EF92FF920F931F93CF932D
:10589000DF93CDB7DEB72C970FB6F894DEBF0FBEFF
:1058A000CDBF7C016B018A01FC01178216828381C6
:1058B00081FFB0C1CE0101964C01F7019381F60141
:1058C00093FD859193FF81916F01882309F49EC117
:1058D000853239F493FD859193FF81916F01853273
:1058E00021F4B70190E0CAD1E8CF512C312C20E04F
:1058F0002032A0F48B3269F030F4803259F08332D8
:1059000069F420612CC08D3239F0803339F4216084
:1059100026C02260246023C0286021C027FD27C044
:1059200030ED380F3A3078F426FF06C0FAE05F9E7B
:10593000300D1124532E13C08AE0389E300D1124EF
:10594000332E20620CC08E3221F426FD5FC120640C
:1059500006C08C3611F4206802C0883641F4F60186
:1059600093FD859193FF81916F018111C1CF982F94
:105970009F7D9554933028F40C5F1F4FFFE3F9830C
:105980000DC0833631F0833771F0833509F057C08D
:1059900021C0F801808189830E5F1F4F4424439406
:1059A000512C540114C03801F2E06F0E711CF80143
:1059B000A080B18026FF03C0652D70E002C06FEFAC
:1059C0007FEFC5012C874FD12C0183012C852F77C8
:1059D000222E16C03801F2E06F0E711CF801A08073
:1059E000B18026FF03C0652D70E002C06FEF7FEF2E
:1059F000C5012C872DD12C012C852068222E8301F6
:105A000023FC19C0832D90E048165906A0F4B70175
:105A100080E290E033D13A94F5CFF50127FC8591EF
:105A200027FE81915F01B70190E028D131103A94AF
:105A3000F1E04F1A51084114510479F7DEC0843661
:105A400011F0893631F5F80127FF07C060817181B7
:105A5000828193810C5F1F4F08C060817181072E86
:105A6000000C880B990B0E5F1F4F2F76722E97FF3D
:105A700009C090958095709561957F4F8F4F9F4F8E
:105A80002068722E2AE030E0A40130D1A82EA81898
:105A900043C0853729F42F7EB22E2AE030E025C09E
:105AA000F22FF97FBF2E8F36C1F018F4883579F0C8
:105AB000ADC0803719F0883721F0A8C02F2F2061A2
:105AC000B22EB4FE0DC08B2D8460B82E09C024FF09
:105AD0000AC09F2F9660B92E06C028E030E005C0AE
