:100000000C94340A0C9455400C942A400C94FF3FF5
:100010000C94D43F0C94A93F0C947E3F0C94533F16
:100020000C94283F0C94B33E0C94443E0C94CE3D6B
:100030000C94650A0C94650A0C94650A0C94650A84
:100040000C94650A0C94650A0C94650A0C94650A74
:100050000C94650A0C94650A0C94650A0C94243D72
:100060000C94650A0C94983D0C946E3D0C94650AB2
:100070000C94650A0C94650A0C94650A0C94650A44
:100080000C94650A0C94650A0C94650A0C94650A34
:100090000C94650A0C94650A0C94650A0C94650A24
:1000A0000C94650A0C94650A0C94650A0C94650A14
:1000B0000C94650A0C94650A0C94650A0C94650A04
:1000C0000C94650A0C94650A0C94650A0C94650AF4
:1000D0000C94650A0C94650A0C94650A0C94650AE4
:1000E0000C94650A0C94BC4B0C94F51A0C946C346B
:1000F0000C947D4B0C9480400C945F340C94240B36
:100100000C9427480C94440B0C9424480C941548E8
:100110000C943C0B0C94541A0C9418480C946E34A8
:100120000C94620E0C94B3450C9411200C94360B75
:100130000C94684B0C941E480C94130B0C94870C75
:100140000C944E0B0C94774B0C946C0C0C94320B5F
:100150000C94490B0C94864B0C941B0B0C9421486B
:100160000C942E0B0C947A4B0C94EB1A0C941B48A9
:100170000C94804B0C94B61F0C94170B0C94D32149
:100180000C948A340C94280B0C946B200C947F34C0
:100190000C9472340C9425240C94400B0C94B10DE7
:1001A0000C94D30D0C9493530C94C50D0C94D02740
:1001B0000C94090B0C940F0B0C94A20C0C9470343F
:1001C0000C94A20D0C940B0E0C9474340C94480CEB
:1001D0000C944A0B0C941E0B0C94834B0C946A34B5
:1001E0004E414E494E495459494E46CDCCCC3D0A1C
:1001F000D7233C17B7D13877CC2B329595E6241FFF
:10020000B14F0A000020410000C84200401C4620B7
:10021000BCBE4CCA1B0E5AAEC59D744E756C6C208C
:100220004F757470757400446562756700332D43B3
:100230006F726E6572656420486174005065726902
:100240006F640054696D6520496E74657276616CE7
:1002500020412D3E420042696E6172792054696DE1
:10026000657374616D7000506169726564205469D2
:100270006D657374616D700054696D657374616D43
:10028000700046554447453020412F42207073206E
:1002900028652E672E2C2034302F3430206F7220AA
:1002A0003165362F326536293A2000466978656413
:1002B0002054696D653220412F42207073202865DB
:1002C0002E672E2C2034302F3430206F7220316571
:1002D000362F326536293A200054696D652044690D
:1002E0006C6174696F6E20412F4220707320286505
:1002F0002E672E2C2034302F3430206F7220316541
:10030000362F326536293A200050726F706167616E
:1003100074696F6E2044656C617920412F422070B2
:10032000732028652E672E2C2034302F3430206F18
:1003300072203165362F326536293A2000436F61CD
:10034000727365205469636B2070732028652E6773
:100350002E2C2031653820666F72203130302075A8
:1003600073293A2000436C6F636B20487A2028651C
:100370002E672E2C2031653720666F722031302099
:100380004D487A293A2000456E74657220456467AD
:10039000657320412F42202852206F722046293A4F
:1003A0002000456E74657220506F6C6C204368614C
:1003B00072616374657220282D20746F20636C65F0
:1003C0006172293A2000456E746572204E616D6538
:1003D0007320412F422028616E792074776F20634B
:1003E00068617273293A2000456E7465722050204E
:1003F0006F7220533A20004F7574707574204465F5
:1004000063696D616C20506C616365732028302EC8
:100410002E3132293A200057726170204469676991
:1004200074732028302E2E3130293A200000010428
:100430000505030304050604050607010001000382
:100440000201000001020304050607070605040374
:100450000201000702010007060504030201000370
:100460000201000001020304050607000102030463
:10047000050607020304050606075741524E494E7A
:10048000473A2046616C6C696E6720656467652039
:100490007472696767657220697320756E72656C26
:1004A0006961626C653B2075736520617420796FAA
:1004B0007572206F776E207269736B21004F4B202D
:1004C0002D2D20436C6F636B202573202D3E20253E
:1004D0007300496E76616C6964003B206E6F772013
:1004E000004F4B202D2D2042617564207261746590
:1004F0002077617320004368616E676573206B65C8
:1005000070742E004368616E67657320646973635D
:1005100061726465642E0032202D2044697363612A
:100520007264206368616E6765730031202D204B13
:10053000656570206368616E676573004F4B202DA1
:100540002D204D6F64652073657420746F20004307
:100550006F6E66696775726174696F6E206368613A
:100560006E67657320726571756972652072657357
:10057000746172742E2052657374617274696E674F
:100580002E2E2E00284368616E67657320617265A8
:100590002074656D706F72617279202D2077696C9F
:1005A0006C20726576657274206F6E20726573744C
:1005B0006172742900526573756D696E67206F7082
:1005C00065726174696F6E2077697468206E6577F3
:1005D0002073657474696E67732E004170706C7956
:1005E000696E6720636F6E66696775726174696FA3
:1005F0006E206368616E6765732E2E2E004F4B2050
:100600002D2D20257320256C642F256C64202D3E14
:1006100020256C642F256C6420707300202D2077BA
:100620007261707320617420316525642073656385
:100630006F6E647300202D20777261707320617477
:1006400020256C75207365636F6E64730001000074
:10065000000A00000064000000E80300001027000A
:1006600000A086010040420F008096980000E1F54E
:100670000500CA9A3B202D206E6F207772617000B2
:1006800033202D20526573657420616C6C20746F6B
:100690002064656661756C747320616E6420726598
:1006A00073746172740032202D204170706C792057
:1006B0006368616E67657320616E6420726573752F
:1006C0006D65206F7065726174696F6E0031202DE9
:1006D0002044697363617264206368616E67657347
:1006E00020616E6420657869740057202D20577250
:1006F000697465206368616E67657320746F204557
:100700004550524F4D202870657273697374206193
:1007100063726F73732072657374617274732900EE
:1007200056202D2053686F77206669726D7761724D
:10073000652076657273696F6E0053202D205368B3
:100740006F77207374617274757020696E666F00C4
:100750004D202D2053686F772074686973206D6574
:100760006E7520616761696E0048202D20536572A7
:1007700069616C2042617564205261746520286350
:10078000757272656E746C793A200047202D204195
:100790006476616E6365642073657474696E6773F3
:1007A000006E6F6E65290046202D20506F6C6C2006
:1007B0004368617261637465722028637572726543
:1007C0006E746C793A200045202D204368616E6E6E
:1007D000656C204E616D6573202863757272656E5D
:1007E000746C793A200044202D205072696D61723A
:1007F000792F5365636F6E64617279202863757217
:1008000072656E746C793A200043202D204F757408
:1008100070757420446563696D616C20506C616310
:100820006573202863757272656E746C793A200066
:1008300042202D2054696D657374616D702057726C
:1008400061702064696769747320286375727265CA
:100850006E746C793A200041202D204D6F64652024
:100860002863757272656E746C793A20003D3D2084
:100870005449434320436F6E6669677572617469BA
:100880006F6E203D3D00556E6B6E6F776E00437549
:100890007272656E74206D6F64653A200041382075
:1008A0002D204E756C6C204F757470757400413737
:1008B000202D204465627567004136202D20332DA0
:1008C000436F726E65726564204861740041352023
:1008D0002D20506572696F64004134202D205469C9
:1008E0006D6520496E74657276616C2041202D3EE5
:1008F0002042004133202D2042696E6172792054DC
:10090000696D657374616D70004132202D205061F6
:10091000697265642054696D657374616D7000411E
:1009200031202D2054696D657374616D70002D2D1B
:10093000204D6F6465202D2D004836202D20323348
:100940003034303020627073004835202D20313132
:100950003532303020627073202864656661756CB2
:100960007429004834202D2035373630302062700D
:1009700073004833202D20333834303020627073B8
:10098000004832202D20313932303020627073001F
:100990004831202D203936303020627073002D2DE3
:1009A0002053657269616C204261756420526174E4
:1009B000652053657474696E6773202D2D0047366A
:1009C000202D2046554447453020707320412F424A
:1009D000202863757272656E746C793A2000473511
:1009E000202D20666978656454696D6532207073C6
:1009F00020412F42202863757272656E746C793ABB
:100A000020004734202D2054696D652044696C61B5
:100A100074696F6E20412F42202863757272656E73
:100A2000746C793A20004733202D2050726F70612A
:100A3000676174696F6E2044656C61792070732002
:100A4000412F42202863757272656E746C793A206A
:100A5000004732202D20436F617273652054696313
:100A60006B207573202863757272656E746C793AA9
:100A700020004731202D20436C6F636B205370653D
:100A80006564204D487A202863757272656E746CB7
:100A9000793A20002D2D20416476616E63656420D3
:100AA00053657474696E6773202D2D003105000045
:100AB0000000000000000000000000000000000036
:100AC000000000000000000000960E0000340A0242
:100AD00000000000000000000032050000000000DF
:100AE0000000000000000000000000000000000006
:100AF000000000000000960E0000340A0200010011
:100B000000000000000033050000000000000000AD
:100B100000000000000000000000000000000000D5
:100B2000000000960E0000340A02000200000000DF
:100B3000000000340500000000000000000000007C
:100B400000000000000000000000000000000000A5
:100B5000960E0000340A02000300000000000000AE
:100B6000350500000000000000000000000000004B
:100B700000000000000000000000000000960E00D1
:100B800000340A02000400000000000000360500E6
:100B90000000000000000000000000000000000055
:100BA00000000000000000000000960E0000340A63
:100BB00002000500000000000000370500000000F2
:100BC0000000000000000000000000000000000025
:100BD00000000000000000960E0000340A0200062B
:100BE00000000000000000380500000000000000C8
:100BF00000000000000000000000000000000000F5
:100C000000000000960E0000340A020007000000F9
:100C1000000000003105000000000000000000009E
:100C200000000000000000000000000000000000C4
:100C300000B10E0000F20902008025000000000053
:100C4000003205000000000000000000000000006D
:100C50000000000000000000000000000000B10ED5
:100C60000000F2090200004B000000000000330504
:100C70000000000000000000000000000000000074
:100C80000000000000000000000000B10E0000F2B3
:100C9000090200009600000000000034050000007A
:100CA0000000000000000000000000000000000044
:100CB0000000000000000000B10E0000F209020078
:100CC00000E1000000000000350500000000000009
:100CD0000000000000000000000000000000000014
:100CE0000000000000B10E0000F209020000C20185
:100CF00000000000003605000000000000000000B9
:100D000000000000000000000000000000000000E3
:100D10000000B10E0000F209020000840300000090
:100D20000000310200650340420F00000000000097
:100D300024F4000000000000000000000000009803
:100D40000E0000FC0902000000000000000000325C
:100D500002003D0300E1F5050000000000E87648D0
:100D6000170000000000000000000000A00E0000BE
:100D7000080A020000000000000000003303000920
:100D80000300000000000000000010A5D4E80000EF
:100D9000000000000000000000B90E00003B03014D
:100DA000000000000000000000340300D902000031
:100DB0000000000000000010A5D4E80000000000C2
:100DC000000000000000C90E000045030100000003
:100DD000000000000000350300AB0200000000002E
:100DE0000000000010A5D4E8000000000000000092
:100DF000000000D90E0000530301000000000000B5
:100E00000000003603008202000000000000000025
:100E10000010A5D4E8000000000000000000000061
:100E2000E90E00005E030100000000000000000069
:100E3000420000170400000000000000000A00004B
:100E400000000000000000000000000000AC0E00E8
:100E500000140A0000000000000000000043000031
:100E6000F70300000000000000000C00000000007C
:100E700000000000000000000000AE0E0000200A8C
:100E800000000000000000000000440100E8030032
:100E90000000000000000000000000000000005002
:100EA00053000000000000B00E00002F0A000000F8
:100EB00000000000000000450400C6030000000020
:100EC0000000000000000000000000000000000022
:100ED00000000000B70E0000390A0000000000000A
:100EE00000000000460100A2030000000000000016
:100EF00000000000000000000000000000000000F2
:100F000000970E0000470A000000000000000000EB
:100F100000540400870300000000000000000000EF
:100F20000000000000005246000000000000B50E66
:100F30000000560A000000000000000000002843E6
:100F400068616E6765732077696C6C2074616B658E
:100F500020656666656374206166746572207265DB
:100F600073746172742900436F6E74696E75696E73
:100F70006720776974682063757272656E74207378
:100F8000657474696E67732E0032202D204E6F2CAD
:100F900020636F6E74696E7565207769746820636D
:100FA000757272656E742073657474696E67730010
:100FB00031202D205965732C207265737461727411
:100FC000206E6F770052657374617274206E6F7754
:100FD00020746F206170706C79206368616E676542
:100FE000733F004368616E6765732077726974743C
:100FF000656E20746F20454550524F4D202877690B
:101000006C6C2070657273697374206163726F73A6
:101010007320726573746172747329004545505270
:101020004F4D20636C65617265642E205265737448
:10103000617274696E672E2E2E00436C6561726951
:101040006E6720656E7469726520454550524F4D3C
:101050002E2E2E00454550524F4D20636C65617217
:101060002063616E63656C6C65642E0054797065F5
:1010700020275945532720746F20636F6E6669726D
:101080006D3A20005741524E494E473A2054686904
:10109000732077696C6C20636F6D706C6574656C20
:1010A000792065726173652074686520656E746966
:1010B000726520454550524F4D20696E636C7564D2
:1010C000696E672073657269616C206E756D62650B
:1010D00072210044656661756C747320777269745F
:1010E00074656E2E2052657374617274696E672E1A
:1010F0002E2E004170706C79696E67206368616E96
:1011000067657320616E6420726573756D696E67C3
:10111000206F7065726174696F6E2E2E2E004469A7
:1011200073636172646564206368616E6765732EC2
:1011300000410100018A342524420200005F34008E
:10114000004302000072340000440200006E3400CC
:1011500000450200006C340000460200006A3400C2
:1011600000470100017434D321480100017F34F5A8
:101170001A4D000000D027000053020000EB1A00B7
:101180000056020000541A0000570200001120000F
:101190000058020000B61F00005402000070340026
:1011A00000310300006B200000320300006B2000C0
:1011B00000330300006B200000340300006B2000AC
:1011C00000556E6B6E6F776E20636F6D6D616E6430
:1011D000003030303130323033303430353036302A
:1011E00037303830393130313131323133313431D7
:1011F00035313631373138313932303231323232BD
:1012000033323432353236323732383239333033A2
:101210003133323333333433353336333733383392
:101220003934303431343234333434343534363480
:101230003734383439353035313532353335343566
:10124000353536353735383539363036313632364C
:101250003336343635363636373638363937303732
:101260003137323733373437353736373737383722
:101270003938303831383238333834383538363810
:1012800037383838393930393139323933393439F6
:10129000353936393739383939010000000A00004C
:1012A0000064000000E803000010270000A0860191
:1012B0000040420F008096980000E1F50500CA9AB0
:1012C0003B00002100240027002A002D00300033BD
:1012D0000001010000040107010A010000220025AD
:1012E0000028002B002E0031003400020100000510
:1012F0000108010B01000020002300260029002C1A
:10130000002F003200000100000301060109010561
:10131000050505070508080808020202020A0A086E
:101320000804040404010101010101010103030394
:101330000303030303040707070C0C0C0C0C0C0C31
:101340000C0202020206060606060606060B0B0B38
:101350000B0B0B0B0B010210202008081020401073
:101360002040800201020108040201010204081069
:101370002040808040201008040201800402018087
:1013800040201008040201080402010102040810B0
:10139000204080010204081020408000000A0B0257
:1013A000090C0D0E080703040100000000000000F6
:1013B000000000000000000000000000000000002D
:1013C00000000000000000121110000000000000EA
:1013D000000000000000000000000000000000000D
:1013E000004368616E67657320646973636172644A
:1013F00065642E0032202D2044697363617264207D
:101400006368616E6765730031202D204B656570E0
:10141000206368616E676573004368616E6765731A
:10142000206B6570742E005361766520746F2045C3
:101430004550524F4D207769746820275727206107
:101440006E64207265737461727420666F722063BB
:1014500068616E676520746F2074616B65206566D6
:10146000666563742E00804011241FBECFEFD1E269
:10147000DEBFCDBF00E00CBF1AE0A0E0B2E0E4EFB9
:10148000FAEA00E00BBF02C007900D92A236B10746
:10149000D9F72EE0A2E6BAE001C01D92AB3FB20739
:1014A000E1F71AE0C4E3DAE000E006C021970109A1
:1014B000802FFE010E94EB52C333D10780E0080762
:1014C000A9F70E942C410C9478550C9400002091AF
:1014D000270C222361F02FB7F8943091270C31307C
:1014E00049F43DB33093260C3DB33DBB2FBF8CBDBB
:1014F0009DBD08952093260CFACFCF92DF92EF92F4
:10150000FF926B017C01E091380CF091390C82E084
:101510008083C11481EED806E104F104A1F060E0FB
:1015200079E08DE390E0A70196010E945952215085
:101530003109410951095695479537952795211548
:1015400080E13807A8F0E091380CF091390C108256
:1015500060E874E88EE190E0A70196010E9459527C
:1015600021503109410951095695479537952795DD
:10157000E091340CF091350C3083E091360CF09111
:10158000370C20831092400CE0913C0CF0913D0C04
:1015900086E08083E0913A0CF0913B0C8081806181
:1015A0008083E0913A0CF0913B0C808188608083CD
:1015B000E0913A0CF0913B0C808180688083E0914F
:1015C0003A0CF0913B0C80818F7D8083FF90EF90EF
:1015D000DF90CF9008958150823108F05AC0E82FF3
:1015E000F0E08827E950F54F8F4F0C94EB52170B22
:1015F0001B0B090B0F0B130B490B1E0B240B280B9A
:101600002E0B320B360B3C0B400B490B440B4A0B99
:101610004E0B809180008F77809380000895809199
:1016200080008F7DF9CF80918000877FF5CF84B5D2
:101630008F7784BD089584B58F7DFBCF8091B000F6
:101640008F778093B00008958091B0008F7DF9CF9F
:10165000809190008F778093900008958091900002
:101660008F7DF9CF80919000877FF5CF8091A0008A
:101670008F778093A00008958091A0008F7DF9CF8F
:101680008091A000877FF5CF809120018F77809394
:1016900020010895809120018F7DF9CF8091200154
:1016A000877FF5CFCF93DF93282F30E0F901E55600
:1016B000FC4E8491F901EB5AFC4ED491F901E15FA3
:1016C000FC4EC491CC23A1F081110E94EB0AEC2FB7
:1016D000F0E0EE0FFF1FEB50FD4EA591B491EC91A1
:1016E000ED2381E090E009F480E0DF91CF9108954F
:1016F00080E090E0FACF1F93CF93DF93282F30E064
:10170000F901E556FC4E8491F901EB5AFC4ED49157
:10171000F901E15FFC4EC491CC23A9F0162F811191
:101720000E94EB0AEC2FF0E0EE0FFF1FE552FD4E9A
:10173000A591B4918FB7F894EC91111108C0D09590
:10174000DE23DC938FBFDF91CF911F910895DE2BB5
:10175000F8CFCF93DF9390E0FC01EB5AFC4E24913D
:10176000815F9C4EFC0184918823D1F090E0880F2A
:10177000991FFC01EF53FD4EA591B491FC01E55278
:10178000FD4EC591D49161110EC09FB7F8948C9114
:10179000E22FE0958E238C932881E223E8839FBF7C
:1017A000DF91CF9108958FB7F894EC91E22BEC93F1
:1017B0008FBFF6CF90917B00977F90937B008653ED
:1017C000806480937C0080917A00806480937A00AA
:1017D00080917A0086FDFCCF80917800909179000D
:1017E00008953FB7F8948091820B9091830BA0915C
:1017F000840BB091850B26B5A89B05C02F3F19F02F
:101800000196A11DB11D3FBFBA2FA92F982F882780
:10181000BC01CD01620F711D811D911D42E0660F5B
:10182000771F881F991F4A95D1F708958F929F922D
:10183000AF92BF92CF92DF92EF92FF924B015C0189
:101840000E94F10B6B017C010E94F10B6C197D0968
:101850008E099F09683E734081059105A8F321E038
:10186000821A9108A108B10888EEC80E83E0D81E3C
:10187000E11CF11C81149104A104B10429F7FF902B
:10188000EF90DF90CF90BF90AF909F908F90089592
:101890002091610B3091620B4091630B5091640B6E
:1018A0006091650B7091660B8091670B9091680B4E
:1018B000A1E00E949B542093610B3093620B4093F4
:1018C000630B5093640B6093650B7093660B80936E
:1018D000670B9093680B08957091610B6091620B98
:1018E0005091630B4091640B3091650B2091660B16
:1018F0009091670B8091680BE5ECFCE0738764873F
:10190000558746873787208B918B828B08957091FE
:10191000610B6091620B5091630B4091640B3091AD
:10192000650B2091660B9091670B8091680BE3E645
:10193000FDE07083618352834383348325839683E0
:1019400087830895AF92BF92CF92DF92EF92FF927A
:101950000F931F93CF93DF936C017B018B01040FD7
:10196000151FEB015E01AE18BF08C017D10759F073
:101970006991D601ED91FC910190F081E02DC601B5
:101980001995892B79F7C501DF91CF911F910F919F
:10199000FF90EF90DF90CF90BF90AF9008952F927F
:1019A0003F924F925F926F927F928F929F92AF92EF
:1019B000BF92CF92DF92EF92FF920F931F93CF933C
:1019C000DF93CDB7DEB7C654D1090FB6F894DEBFAA
:1019D0000FBECDBF922E832E742E652E562E472E0F
:1019E000382E292EA0E00E94B9540CF078C08DE268
:1019F00089A3832D0E941554922E832E742E652E5A
:101A0000562E472E382E292ECE01829627969FAF2E
:101A10008EAF2797CE01019625969FAF8EAF259763
:101A20002596AEADBFAD259711962396BFAFAEAF4D
:101A300023978AE0A82EB12CC12CD12CE12CF12CBB
:101A400000E010E0292D382D472D562D652D742DE1
:101A5000832D922D0E948553205D2596EEADFFAD1E
:101A600025972083292D382D472D562D652D742D32
:101A7000832D922D0E948753922E832E742E652ED5
:101A8000562E472E382E292E23968EAD9FAD2397A6
:101A900025969FAF8EAF2597292D382D472D562D92
:101AA000652D742D832D922DA0E00E94B95409F06C
:101AB000B7CF2796EEADFFAD27979E012F5F3F4F23
:101AC000AF012396AEADBFAD23972A173B0780F435
:101AD0008E912396BFAFAEAF23978193F1CFA0E055
:101AE0000E94B95441F580E389A3AE014E5D5F4F7A
:101AF000BE016F5D7F4F461B570B88E29CE00E9442
:101B0000A20CCA5BDF4F0FB6F894DEBF0FBECDBF8D
:101B1000DF91CF911F910F91FF90EF90DF90CF90C9
:101B2000BF90AF909F908F907F906F905F904F90FD
:101B30003F902F900895FE01B1962796FFAFEEAF2C
:101B4000279768CFFC01538D448D252F30E0842FDB
:101B500090E0821B930B541710F0CF9608950197D5
:101B60000895FC01918D828D981761F0A28DAE0FC2
:101B7000BF2FB11D5D968C91928D9F5F9F73928F49
:101B800090E008958FEF9FEF0895FC01918D828D75
:101B9000981731F0828DE80FF11D858D90E0089542
:101BA0008FEF9FEF0895FC01918D228D892F90E09A
:101BB000805C9F4F821B91098F739927089588E25B
:101BC0009CE00E94D30D21E0892B09F420E0822FB4
:101BD0000895FC01A48DA80FB92FB11DA35ABF4FC2
:101BE0002C91848D90E001968F739927848FA6891C
:101BF000B7892C93A089B1898C91837080648C9370
:101C0000938D848D981306C00288F389E02D80811E
:101C10008F7D80830895EF92FF920F931F93CF9350
:101C2000DF93EC0181E0888F9B8D8C8D98131AC017
:101C3000E889F989808185FF15C09FB7F894EE89FE
:101C4000FF896083E889F98980818370806480835B
:101C50009FBF81E090E0DF91CF911F910F91FF90A6
:101C6000EF900895F62E0B8D10E00F5F1F4F0F734E
:101C70001127E02E8C8D8E110CC00FB607FCFACF09
:101C8000E889F989808185FFF5CFCE010E94E90DB1
:101C9000F1CFEB8DEC0FFD2FF11DE35AFF4FF082DA
:101CA0009FB7F8940B8FEA89FB8980818062CFCF40
:101CB000682F88E29CE00C940B0E682F88E29CE071
:101CC0000C940B0ECF93DF93EC01888D8823B9F031
:101CD000AA89BB89E889F9898C9185FD03C0808137
:101CE00086FD0DC00FB607FCF7CF8C9185FFF2CFB4
:101CF000808185FFEDCFCE010E94E90DE9CFDF9114
:101D0000CF91089588E29CE00E94620EE8E2FCE038
:101D1000A289B3898C918F7E8C93A289B3898C918F
:101D2000877F8C93A289B3898C918F778C93A289BA
:101D3000B3898C918F7D8C93828D818F089580E003
:101D400090E0892B29F00E94DF0D81110E94000094
:101D500080E090E0892B49F080E090E0892B29F029
:101D60000E94000081110E94000080E090E0892B19
:101D700049F080E090E0892B29F00E940000811159
:101D80000E94000080E090E0892B49F080E090E024
:101D9000892B29F00E94000081110C940000089505
:101DA0002F923F924F925F926F927F928F929F926B
:101DB000AF92BF92CF92DF92EF92FF920F931F9359
:101DC000CF93DF93CDB7DEB72F970FB6F894DEBF72
:101DD0000FBECDBFFC017F876E875C874B8710826B
:101DE0001182128213821482158216821782108643
:101DF000118612861386DB01AB2B09F4D1C0DA0100
:101E0000AB2B09F4CDC0DB018D909D90AD90BC90C3
:101E1000DA014D905D906D907C90DB0114962C91D1
:101E2000149715963C91159716964C911697179600
:101E30005C91179718966C91189719967C91199741
:101E40001A968C911A971B969C91AB85BC8514961B
:101E50002C90149715963C9015971696CC90169743
:101E60001796DC9017971896EC9018971996FC9097
:101E700019971A960C911A971B961C918414950425
:101E8000A604B70409F4A6C0B1E0B9834814590404
:101E90006A047B040CF4A5C01982AB85BC854D9007
:101EA0005D906D907C90AE85BF854D915D916D91FB
:101EB0007C91441A550A660A770AAB85BC8514964C
:101EC0003C9014971596BC91BA83AB85BC85169649
:101ED000BC91BB83AB85BC851796BC91BC83AB859D
:101EE000BC851896BC91BD83AB85BC8519968C903A
:101EF00019971A969C901A971B962C90AE85BF85C1
:101F00001496BC91BD87AE85BF851596BC91BB87E5
:101F1000AE85BF851696BC91BE83AE85BF851796EC
:101F2000BC91BF83AE85BF851896BC91B887AE853E
:101F3000BF851996BC91B987AE85BF851A96BC91AD
:101F4000BA87AE85BF851B96BC91BE87232D3A818B
:101F50004B815C816D81782D892D922DAD84BB8460
:101F6000CE80DF80E884F9840A851B2F0E94B0545C
:101F700008F440C00E94A75459016A017B018C01FA
:101F8000A981AA2309F455C04082518262827382DA
:101F9000A482B582C682D782E086F1860287138743
:101FA000CF012F960FB6F894DEBF0FBECDBFDF91E5
:101FB000CF911F910F91FF90EF90DF90CF90BF9046
:101FC000AF909F908F907F906F905F904F903F90D9
:101FD0002F900895A1E0A98351010E94B05408F404
:101FE0005BCF9B858C85AE85BF85BC87AB879E8785
:101FF0008F8753CF3A814B815C816D81305F4A4539
:102000005B4267417F4F8F4F9F4FAD84BB84CE8033
:10201000DF80E884F9840A851E850E94A75459014F
:102020006A017B018C0121E0421A510861087108A4
:10203000A7CF9501A601B701C801A0E00E94B9543D
:1020400069F47094609450944094411C511C611C3C
:10205000711C4082518262827382A2CFD301C2017D
:1020600080959095A095B09580839183A283B3834A
:1020700020E030E145EA54ED68EE70E080E090E069
:102080000E94A754248335834683578360877187D2
:102090008287938785CF8091270C882361F09FB733
:1020A000F8942091270C8091260C213019F48DBBD7
:1020B0009FBF08958FBF08950F931F93CF93DF9312
:1020C0008C01C62FD42F80E591E00E94670A60E062
:1020D000F80187810E947B0BC064CD27DC27CD27C8
:1020E0000CB405FC17C0DEBD00000DB407FEFDCF2B
:1020F0008EB5CEBD00000DB407FEFDCF8EB561E0FC
:10210000F80187810E947B0BDF91CF911F910F9186
:102110000C944B10CEBD00000DB407FEFDCF8EB564
:10212000DEBD00000DB407FEFDCFE8CFFC01EF5689
:10213000FF4F408160E00C945C108EBD00000DB438
:1021400007FEFDCF8EB50895CF92DF92EF92FF92FA
:102150000F931F93CF93DF938C01C62FD42EF52EB0
:10216000E22E80E591E00E94670AF80182818033C7
:1021700009F049C080910201877F809302018C2F72
:1021800080680E949D10CD2DDF2DF12C80E00E94F3
:102190009D10C82E80E00E949D10D82E80E00E94E5
:1021A0009D104C2D50E070E060E0BA0155274427A7
:1021B000480F511D611D711D8D2D90E0982F8827AE
:1021C000480F591F611D711D499359936993799364
:1021D000F394EF10DBCFF80182818033C1F480915A
:1021E00002018860809302010E944B108FE090E012
:1021F0000197F1F7DF91CF911F910F91FF90EF9031
:10220000DF90CF900895809102018F7EB6CF8091AC
:1022100002018061E7CF1F93CF93DF93EC0180E54C
:1022200091E00E94670A60E08F810E947B0B82E050
:102230000E949D1080E00E949D10182F61E08F8108
:102240000E947B0B0E944B10412F62E0CE01DF9178
:10225000CF911F910C945C102F923F924F925F92FE
:102260006F927F928F929F92AF92BF92CF92DF92A6
:10227000EF92FF920F931F93CF93DF93CDB7DEB70B
:10228000AA970FB6F894DEBF0FBECDBF1C0123E0A6
:10229000AE014F5F5F4F60E10E94A41089819A8177
:1022A000AB81BC81F101838B948BA58BB68B8D8127
:1022B0009E81AF81B885878F90A3A1A3B2A38985A2
:1022C0009A85AB85BC85878B908FA18FB28F22E0DA
:1022D000AE014F5F5F4F6BE1C1010E94A410A98066
:1022E000BA80CB80DC80D1019396AD92BD92CD9225
:1022F000DC9296974D805E806F8078844D865E86F6
:102300006F86788A97964D925D926D927C929A979D
:1023100053964D905D906D907C9056974BA25CA229
:102320006DA27EA257969C9057975896BC91B98FF4
:10233000F101818CE28C478C50A061A072A0E05921
:10234000FF4FF08001811281B381648175812F2D4F
:10235000302F412F5B2F86819781A0E00E94B954D6
:1023600009F08FC1998AF98DFA8B8B8AEC8AE090FB
:102370006B0BED8EF0906C0BFE8E80906D0B909041
:102380006E0B00916F0B0F8F1091700B18A32091A3
:10239000710B29A33091720B3AA3A3019201B701EB
:1023A000C4010E94DB52F101E858FF4F0081118106
:1023B000228133812B013C01401A510A620A730ABF
:1023C000498E5A8E6B8E7C8E709780819181A2810E
:1023D000B38120E432E44FE050E0281B390B4A0B74
:1023E0005B0B8091690B90916A0B01972C01990FFF
:1023F00066087708411451046104710421F4412CEA
:10240000512C320143946D857E858F8598896A1998
:102410007B098C099D090E944B5369014FA358A762
:1024200069A77AA75C01C301B20122E030E040E075
:1024300050E00E94275279018A01550F220B322F5A
:10244000A9012D873E874F87588B96014FA158A52C
:1024500069A57AA5C50157016801ED84FE2C0E2DF2
:102460001E2D0E94925463015201DD0CAA08BA2C61
:102470006501AD86BE86CF86D88A52016301ED84A0
:10248000FE2C0E2D1E2D0E9487532D873E874F87D1
:10249000588B4D845E846F84788845284628472869
:1024A00041F4412C512C320143944D865E866F8657
:1024B000788A8BA19CA1ADA1BEA149885A886B885E
:1024C0007C8884199509A609B7092C013D01770C70
:1024D0004408542C3201AD8CBE8C6401EF8CF8A002
:1024E00009A11AA19C01AD01642D742D842D942D98
:1024F0000E94F352722E832E942EB52FF62FE72FC3
:10250000582E692EA0E00E94B95409F453C04D859D
:102510005E856F85788976956795579547955A01B9
:102520006B01E12CF12C8701498BBA8A6B8BDC8A19
:10253000ED8AFE8A0F8B188F10E4A12E02E4B02ED4
:102540004FE0C42ED12CE12CF12C00E010E0492DFD
:102550005B2F6F2F7E2F0E94F35259016A017B017E
:102560008C0129893A894B895C8960E070E080E0C0
:1025700090E00E949254CD84DE84EF84F888560166
:102580006701E12CF12C8701A98ABA8ACB8ADC8AFF
:10259000ED8AFE8A0F8B188FE12CF12C00E010E001
:1025A0000E948753722E832E942EB52FF62FE72F7D
:1025B000582E692EC98CDA8CEB8CFC8CFF0CCC0865
:1025C000DC2C7601298D3A8D4B8D5C8D6C2D7C2D0C
:1025D0008C2D9C2DA72CB82CC92CDB2EEF2EFE2E7B
:1025E000052D162D0E949254152FC901A42FB12F2D
:1025F000A901BD01770F440B542FBA01F10183A744
:1026000094A7A5A716A747A740AB41AB42ABED5B8C
:10261000FF4F80839183A283B383C1010E940B117A
:10262000D1019B962C919B979C963C919C979D9653
:102630004C919D979E965C919E979F966C919F97CB
:10264000D0967C91D097D1968C91D197D2969C912F
:10265000AA960FB6F894DEBF0FBECDBFDF91CF9123
:102660001F910F91FF90EF90DF90CF90BF90AF90B0
:102670009F908F907F906F905F904F903F902F90A2
:102680000895F98A0A8B1B8BBC8B71CECF92DF9297
:10269000EF92FF920F931F93CF93DF93CDB7DEB7E7
:1026A0002C970FB6F894DEBF0FBECDBF8C010E94F1
:1026B0002C11D8019B962C939B979C963C939C97AE
:1026C0009D964C939D979E965C939E979F966C9338
:1026D0009F97D0967C93D097D1968C93D197D29692
:1026E0009C9369017A01C8010E94961085E589834F
:1026F0008AEA8A83F801E057FF4F80818B83F89440
:10270000F80173856485558546858785808981892B
:1027100082899B01CA0178943C832D839E838F8399
:10272000C886D986EA86FB86FE013396AE01445FF1
:102730005F4F80E06CE8E417F50781F091918927FD
:1027400098E0282F30E03595279580FF05C0822F2F
:1027500086279150B1F7EFCF822FFBCF8C8788E28D
:102760009CE00E94A20D0C97D4F34CE050E0BE0117
:102770006F5F7F4F88E29CE00E94A20CD8011B96FD
:102780007C911B971C966C911C971D965C911D97D4
:102790001E964C911E971F963C911F9750962C9118
:1027A000509751969C91519752968C915297F8015F
:1027B000E058FF4F708361835283438334832583C2
:1027C00096838783E554F109DB962C913181428110
:1027D00053816481758186819781A1E00E949B5419
:1027E000D801DB962C9331834283538364837583B2
:1027F0008683978381E02C960FB6F894DEBF0FBED8
:10280000CDBFDF91CF911F910F91FF90EF90DF909F
:10281000CF9008952F923F924F925F926F927F9246
:102820008F929F92AF92BF92CF92DF92EF92FF92E0
:102830000F931F93CF93DF93CDB7DEB764970FB697
:10284000F894DEBF0FBECDBF9A8B898B280139016A
:102850004A011B01DC019B968C919B97D3968C932C
:10286000D3979C968C919C97D4968C93D4979D9655
:102870008C919D97D5968C93D5979E968C919E978B
:10288000D6968C93D6979F968C919F97D7968C933C
:10289000D797D0968C91D097D8968C93D897D1967D
:1028A0008C91D197D9968C93D997D2968C91D297B7
:1028B000DA968C93DA97AC5ABF4FE989FA89E85BCC
:1028C000FF4FFC83EB838CE001900D928A95E1F73A
:1028D00089899A890E942C11A989BA899B962C937F
:1028E0009B979C963C939C979D964C939D979E9608
:1028F0005C939E979F966C939F97D0967C93D0976E
:10290000D1968C93D197D2969C93D297CD010E9469
:102910009610F894E989FA8923853485458556858A
:102920006785708981899289E058FF4FA080B180C6
:10293000C280D380E480F5800681178120833183B3
:1029400042835383648375838683978378940E943C
:10295000A75452016301740181010E94F352A989B5
:10296000BA899B96AC909B979C96BC909C979D96A1
:10297000CC909D979E96DC909E979F96EC909F970B
:10298000D096FC90D097D1960C91D197D2961C916D
:10299000D2970E94A754D396AC90D397D496BC906C
:1029A000D497D596CC90D597D696DC90D697D796D7
:1029B000EC90D797D896FC90D897D9960C91D99748
:1029C000DA961C910E949254522E632E742E852EFC
:1029D000962E7983482EB92FA0E00E94B9540CF4AA
:1029E00052C0E989FA89E45BFF4FA080B180C280C0
:1029F000D380E480F580068117810E949254208361
:102A00003183428353836483758386839783E08015
:102A1000F18002811381C480D580B681B78097018F
:102A2000A801B6018B2F9B2D2F3FAFE03A07A5EAF7
:102A30004A07A4ED5A07A8EE6A07710581059105BA
:102A400009F008F475C03051454A544D684E71097B
:102A50008109910920833183428353836483758381
:102A600086839783AB81BC814D915D916D917C9103
:102A700013974F5F5F4F6F4F7F4F4D935D936D93F4
:102A80007C931397C4CF7981842D9B2F0E9415547A
:102A900029873A874B875C876D877E878F87988BDE
:102AA00029883A88ECE42E0E311CF101F081FB8B71
:102AB000F101F181FC8BF101A281F381FA83F10133
:102AC000F481FD83F101F581FE83F101F681FF833D
:102AD000F101F781F887AB88BC88CA2EDA80ED80D7
:102AE000FE800F811F2F0E94B05411F008F05BC0D0
:102AF000252D362D472D582D692D7981842D9B2F1D
:102B00000E949254D1012C9311963C9311971296E6
:102B10004C93129713965C93139714966C93149797
:102B200015967C93159716968C93169717969C93EB
:102B3000E989FA89E95BFF4F81E08083E989FA89B5
:102B4000FB96A989BA89DB962C9131814281538108
:102B50006481758186819781A1E00E949B54A98937
:102B6000BA89DB962C9331834283538364837583C4
:102B70008683978364960FB6F894DEBF0FBECDBFF1
:102B8000DF91CF911F910F91FF90EF90DF90CF9049
:102B9000BF90AF909F908F907F906F905F904F907D
:102BA0003F902F90089529853A854B855C856D85EA
:102BB0007E858F859889AB88BC88DA80ED80FE8021
:102BC0000F8118850E94A75429013A014B0189837E
:102BD0009A83A12C20E1B22E35EAC32E44EDD42EE7
:102BE00058EEE52EF12C00E010E09201A3010E94C6
:102BF000B853A1E00E949B5459016A01EB81FC810A
:102C000080819181A281B3818A199B09AC09BD0998
:102C100080839183A283B383A12C60E1B62E75EAF1
:102C2000C72EE4EDDE2EF8EEEF2EF12C00E010E0E2
:102C30009201A301B40189819A810E94B65359017E
:102C40006A017B018C0120E030E145EA54ED68EE39
:102C500070E080E090E00E94A75454CFCF93DF93C0
:102C6000EC010E940B11FE01EF56FF4F40814E7F99
:102C700060E0CE010E945C106AE070E080E090E0CD
:102C80000E94160CCE010E940B11CE010E949610DC
:102C90001B8A1C8A1D8A1E8A1F8A188E198E1A8EFC
:102CA0001B8E1C8E1D8E1E8E1F8E18A219A21AA29C
:102CB0001BA21CA21DA21EA21FA218A619A61AA61C
:102CC0001BA61CA61DA61EA61FA618AA19AA1AAAEC
:102CD0001BAA1CAA1DAA1EAA1FAA18AE19AE1AAEBC
:102CE000FE01ED5BFF4F1082118212821382349637
:102CF00010823196108211821282138234961082D1
:102D000011821282138214821582168217823896DB
:102D100010821182128213823496108211821282E2
:102D200013821482158216821782B896108211823D
:102D300012821382148215821682178238961082AC
:102D4000118212821382C457DF4F188219821A82AD
:102D50001B82DF91CF9108952F923F924F925F9205
:102D60006F927F928F929F92AF92BF92CF92DF929B
:102D7000EF92FF920F931F93CF93DF93CDB7DEB700
:102D80002C970FB6F894DEBF0FBECDBF29833A83D0
:102D90004B835C836D837E838F8398871801FA86CB
:102DA000E98680EAA82E97EFB92E66ECC62E70E170
:102DB000D72EE12CF12C00E010E060E070E080E024
:102DC00090E00E94F35200E10E94775429013A01F9
:102DD0004B018C879B8729813A814B815C816D8176
:102DE0007E818F81988500E20E94775400E00E94E6
:102DF000F35200E10E945C5459016A017B018C018D
:102E00009201A301B4018C859B850E94925400E23B
:102E10000E947754422E532E642E752EA3019201E8
:102E200060E472E48FE090E00E94DB5229813A81F5
:102E30004B815C81261B370B480B590BDA01C9010A
:102E4000803432E493073FE0A307B10548F04FEF29
:102E5000441A540A640A740A80549244AF40B10977
:102E6000F1014082518262827382E985FA85808312
:102E70009183A283B3832C960FB6F894DEBF0FBE66
:102E8000CDBFDF91CF911F910F91FF90EF90DF9019
:102E9000CF90BF90AF909F908F907F906F905F90FA
:102EA0004F903F902F900895DB0141505109FC0154
:102EB0002491222349F00196FD01E61BF70BE4174C
:102EC000F50710F42D93F3CF1C920895CF93DF9361
:102ED000DC01FB01EA018991AE0120813181882367
:102EE000E1F022303105C8F02D913C911197C901D4
:102EF000019611969C938E93CE010197EC018881E7
:102F0000E9018883CD91DC9111971882208131816C
:102F10002150310931832083DDCF81E0223031051A
:102F200008F480E0DF91CF9108954F925F926F9205
:102F30007F92AF92BF92CF92DF92EF92FF920F9368
:102F40001F93CF93DF9300D000D000D01F921F9229
:102F5000CDB7DEB78C017B0157FF21C0DB018D911E
:102F60009C91029708F457C0D801ED91FC911197FC
:102F7000CF01019611969C938E938DE28083ED9103
:102F8000FC911082FB018081918101979183808364
:102F900050954095309521953F4F4F4F5F4FCA0157
:102FA000B9011B866E01FBE0CF0ED11C2AE0422E38
:102FB000512C612C712C9E012F5F3F4F5901A301B1
:102FC00092010E945952605DD6016E936D01B90164
:102FD000CA01611571058105910519F0AA16BB0694
:102FE00071F7A601B701C8010E9466172B960FB6AC
:102FF000F894DEBF0FBECDBFDF91CF911F910F912F
:10300000FF90EF90DF90CF90BF90AF907F906F9048
:103010005F904F90089580E0E9CFCF93DF93EC016C
:10302000DB012D913C91119722303105D0F0FA014E
:1030300084914F5F5F4F8823A1F0E881F9819F0160
:103040002F5F3F4F398328838083E881F981108285
:103050002D913C9111972150310911963C932E935B
:10306000E0CF81E02230310508F480E0DF91CF919C
:103070000895AF92BF92CF92DF92EF92FF920F939B
:103080001F9380917C0B81116FC02091980E30911D
:10309000990E40919A0E50919B0E60919C0E7091EA
:1030A0009D0EA090110EB090120EC090130ED090F5
:1030B000140EE090150EF090160E0091170E109160
:1030C000180E80919E0E90919F0E0E94B05409F0B0
:1030D0004BC02091A00E3091A10E4091A20E5091B4
:1030E000A30E6091A40E7091A50EA090190EB09041
:1030F0001A0EC0901B0ED0901C0EE0901D0EF0908A
:103100001E0E00911F0E1091200E8091A60E909120
:10311000A70E0E94B05441F52091A80E3091A90E3F
:103120008091210E9091220E28173907E9F4909191
:10313000B50E80912E0E981317C09091B60E809107
:103140002F0E981311C081E02091B00E9091290E9E
:10315000291301C080E01F910F91FF90EF90DF9045
:10316000CF90BF90AF90089581E0F5CF87E8E2E778
:10317000FEE0ABEEBDE001900D928A95E1F7109272
:103180000D0B0895082E000C990B0E94580E88E232
:103190009CE00C94620ECF92DF92EF92FF920F931D
:1031A0001F93CF93DF938C016B01D0E0C0E088E2E6
:1031B0009CE00E94D30D892B39F461E070E080E03F
:1031C00090E00E94160CF3CF88E29CE00E94B10DC3
:1031D0008D309105B1F4209731F08DE00E94C21836
:1031E0008AE00E94C218F801EC0FFD1F1082CE0188
:1031F000DF91CF911F910F91FF90EF90DF90CF90D3
:1032000008958A30910539F38830910519F08F3788
:10321000910569F4209759F2219788E00E94C2181D
:1032200080E20E94C21888E00E94C218C0CF7E01CE
:103230002FEFE21AF20AEC14FD0408F0B8CFC00F29
:10324000D11F88830E94C218E701B1CF9EEF980F6B
:10325000923008F4A5C09EEE980F943008F4A0C0F8
:1032600090E0FC01EB5AFC4E2491FC01E15FFC4E26
:103270003491433009F038C0323031F54091850A3D
:10328000422B4093850A835D9B4FFC01A491323011
:1032900009F043C0B0E0AA0FBB1FAC58B54F6D9307
:1032A0007C93E9EFF2E1A591B4918C918093860A29
:1032B0008BE690E09093630A8093620A80916800A5
:1032C0008160809368004AC03A3031F44091970A97
:1032D000422B4093970AD7CF3B30A9F64091AA0AD8
:1032E000422B4093AA0ACFCF323031F44091840A66
:1032F000422B4093840AC7CF3A3031F44091960A6A
:10330000422B4093960ABFCF3B3009F0BCCF40918F
:10331000A90A422B4093A90AB6CF3A3039F5B0E05A
:10332000AA0FBB1FA957B54F6D937C93E9E0F3E15A
:10333000A591B4918C918093980A8CE690E090933B
:10334000630A8093620A80916800826080936800BB
:103350008091950A822B8093950A220FA091620A90
:10336000B091630AEC912E2B2C9308953B30B1F76A
:10337000B0E0AA0FBB1FA756B54F6D937C93EBE04F
:10338000F3E1A591B4918C918093AB0A8DE690E026
:103390009093630A8093620A80916800846091CF61
:1033A0009FB7F894833069F18231A1F0823039F50A
:1033B00070936D0A60936C0AEC9880916A008C7F20
:1033C00080936A0080916A00482B40936A00E49AD7
:1033D000EC9A15C070936B0A60936A0AEB9880911F
:1033E00069008F738093690080916900F0E44F9FBA
:1033F000A0011124482B40936900E39AEB9A9FBFE8
:10340000089570936F0A60936E0AED9880916A0038
:10341000837F80936A0080916A0024E0429FA0012C
:103420001124482B40936A00E59AED9AE8CFFC01FD
:1034300001900020E9F73197AF01481B590BBC01FF
:1034400088E29CE00C94A20CCF93DF93D0E0C0E024
:10345000009719F00E94171AEC0182E492E00E9492
:10346000171A8C0F9D1FDF91CF9108950C94171A96
:1034700085E492E00E94361A8DE193E00E94361AAC
:1034800088E29CE00C94620ECF93DF93EC0185E41C
:1034900092E00E94361ACE010E94241A88E29CE033
:1034A000DF91CF910C94620E0F931F93CF93DF9314
:1034B000CDB7DEB7C458D1090FB6F894DEBF0FBE42
:1034C000CDBF19828E010F5F1F4FCF57DF4F19837A
:1034D0000883C158D04080E890E0CD57DF4F9983F2
:1034E0008883C358D04048E452E0BE016D577F4FF7
:1034F000CE018F579F4F0E9466174FE152E0BE01E9
:103500006D577F4FCE018F579F4F0E9466174BE537
:1035100052E0BE016D577F4FCE018F579F4F0E94E3
:10352000661747E152E0BE016D577F4FCE018F57BE
:103530009F4F0E946617CD57DF4F88819981C358EE
:10354000D040029720F1CF57DF4FE881F981C15871
:10355000D040CF010196CF57DF4F99838883C15860
:10356000D04089E28083CF57DF4FE881F981C1588D
:10357000D0401082CD57DF4F88819981C358D04009
:103580000197CD57DF4F99838883C358D0404EE5CC
:1035900052E0BE016D577F4FCE018F579F4F0E9463
:1035A00066174EE45BE0BE016D577F4FCE018F572B
:1035B0009F4F0E946617C8010E94441A81E0CC57B1
:1035C000DF4F0FB6F894DEBF0FBECDBFDF91CF91B6
:1035D0001F910F91089584E492E00E94441A84E4BC
:1035E00092E00E94441A81E00895CF93DF93CDB713
:1035F000DEB7C058D1090FB6F894DEBF0FBECDBFFD
:1036000084E492E00E94441A40E850E0BE016F5FFB
:103610007F4F8EE999E00E945417CE0101960E94D7
:10362000441A40E850E0BE016F5F7F4F80E999E0A7
:103630000E945417CE0101960E94441A40E850E0BF
:10364000BE016F5F7F4F81E899E00E945417CE0161
:1036500001960E94441A40E850E0BE016F5F7F4F20
:1036600082E799E00E945417CE0101960E94441A05
:1036700040E850E0BE016F5F7F4F83E699E00E9413
:103680005417CE0101960E94441A40E850E0BE0152
:103690006F5F7F4F89E499E00E945417CE01019635
:1036A0000E94441A40E850E0BE016F5F7F4F89E3FB
:1036B00099E00E945417CE0101960E94441A84E4B6
:1036C00092E00E94441AC058DF4F0FB6F894DEBF54
:1036D0000FBECDBFDF91CF9108950F931F93CF936E
:1036E000DF938C0185E492E00E94361AE801FE0126
:1036F00084912196882331F0082E000C990B0E94AA
:10370000580EF5CF82E492E00E94171A88E29CE0FE
:10371000DF91CF911F910F910C94620E80917C0BE1
:10372000811123C00E943918882351F08FE495E05D
:103730000E946D1B68EE73E080E090E00C94160C24
:1037400080910D0B882371F08BED95E00E946D1B2D
:1037500010920D0B85EB95E00E946D1B84E895E0BF
:103760000C946D1B85EB95E0FBCF0895CF93DF9311
:103770009C01D9019C912F5F3F4F9032D1F399303A
:10378000C1F3FD0101900020E9F73197EF01AE1779
:10379000BF0728F482918032C9F38930B9F31882C7
:1037A000CD01DF91CF910895CF93C82F86EA9BE09A
:1037B0000E94441A87E294E10E946D1B84E492E027
:1037C0000E94441AC11107C089E194E10E946D1B57
:1037D00081E0CF91089588E094E10E946D1B84EF11
:1037E00093E10E946D1B0E94381A88E29CE00E94BF
:1037F000D30D181619062CF488E29CE00E94B10D36
:10380000F4CF60E270E086E89BE00E94CB1886E887
:103810009BE00E94B61BFC0180818233A9F681EEF9
:1038200093E10E946D1B80E0D4CF8F929F92AF9264
:10383000BF92CF92DF92EF92FF920F931F93CF939D
:10384000DF93CDB7DEB7A1970FB6F894DEBF0FBEFA
:10385000CDBF6C01990FEE08FF08F7FE3FC08DE267
:103860000E945D0E8C0122273327A9012C193D09E6
:103870004E095F0919A2CE0181967C019AE0892E3A
:10388000912CA12CB12CCA01B901A50194010E946F
:103890005952605DF70162937F01211531054105A1
:1038A000510589F790E080E0309719F0CF010E9430
:1038B000171A800F911FA1960FB6F894DEBF0FBEA6
:1038C000CDBFDF91CF911F910F91FF90EF90DF90CF
:1038D000CF90BF90AF909F908F900895A7019601D1
:1038E00019A28E010F5D1F4F8AE0C82ED12CE12C4A
:1038F000F12CCA01B901A70196010E945952605DDD
:10390000F80162938F01211531054105510589F7B1
:1039100090E080E0309779F2CF010E94171ACBCF68
:10392000EF92FF920F931F93CF93DF938B010C5F66
:103930001F4FEB017C01E61AF70AC7018C0F9D1F90
:103940000E9411528993C017D107B9F784E090E023
:10395000DF91CF911F910F91FF90EF9008952F92DB
:103960003F924F925F926F927F928F929F92AF920F
:10397000BF92CF92DF92EF92FF920F931F93CF935C
:10398000DF9300D01F921F92CDB7DEB76B015D832E
:103990004C8323ED3DE442E650E10E945A5306E297
:1039A0000E947754190128EE33E0229EC001239E25
:1039B000900D329E900D11249601281B390B3A83ED
:1039C00029838DECA82E9CECB92E2CECC22E3CEC5D
:1039D000D32EE12CF12C00E010E0910140E050E00A
:1039E00060E070E080E090E00E94F35203E20E9409
:1039F00077542B83E981FA8100E09F0140E050E099
:103A000060E070E080E090E00E94F35203E20E94E8
:103A10007754122FFB816F2F70E0660F771F6F5264
:103A20007E4E42E050E08C819D810E94CD4D20E38E
:103A3000220E0AE03B81309F20181124EC81FD8189
:103A40002282612F70E0660F771F6F527E4E42E038
:103A500050E0CF0103960E94CD4D8981805D109F7B
:103A600080191124EC81FD8185830F900F900F90B8
:103A70000F900F90DF91CF911F910F91FF90EF90DA
:103A8000DF90CF90BF90AF909F908F907F906F907E
:103A90005F904F903F902F9008952F923F924F92BA
:103AA0005F926F927F928F929F92AF92BF92CF92CE
:103AB000DF92EF92FF920F931F93CF93DF93CDB7D7
:103AC000DEB76B970FB6F894DEBF0FBECDBF1C01FB
:103AD0005E8B4D8B822E452B09F4DFC18091600BEC
:103AE000882341F090900102F0900002011113C070
:103AF000F12C14C08091AE0E9091AF0E6CE0962E1A
:103B00008D3091051CF497FD80E0982EF12C002358
:103B100051F0F090AC0E29E02F1550F38CE0891590
:103B200010F45CE0952EAD89BE894D905D906D904E
:103B30007C90810177FE0DC00F5F1F4F8DE2F10178
:103B400080837094609450944094411C511C611C7B
:103B5000711C498A5A8A6B8A7C8A8FEF8F0D893053
:103B600008F0DEC08F2D90E0988F8F8BFC01EE0F58
:103B7000FF1FEE0FFF1FE756FD4E25913591459132
:103B80005491C301B2010E945952B62EE72E6C0126
:103B9000698FA72E8A8FDB8E4AE0442E512C612C30
:103BA000712CA30192010E945952605D698B92E0D1
:103BB000F91279C0205DD8012C9311966C9368019D
:103BC000F2E0CF0ED11CED89FE89992069F1260122
:103BD000BFEF4B1A5B0A8EE2D6018C9324813581AC
:103BE000468157816085718582859385BCE09B12F3
:103BF00016C1FE0131967F018E01035F1F4F0E94A7
:103C0000AC166D857E858F859889A2010E94AF1CB8
:103C1000A601495F5F4F69817A818B819C810E94F7
:103C2000AF1CFDE0CF0ED11C882D8F7D09F42CC177
:103C300080E2D6018C9383E611968C93119788E6E7
:103C400012968C93129713968C9213978DE014967C
:103C50008C9314978AE015968C93B6E0CB0ED11C0A
:103C6000860102191309A801B10188E29CE00E94B3
:103C7000A20CC8016B960FB6F894DEBF0FBECDBF85
:103C8000DF91CF911F910F91FF90EF90DF90CF9038
:103C9000BF90AF909F908F907F906F905F904F906C
:103CA0003F902F90089523E0F2121AC06B2D7E2DC5
:103CB000C60124E630E040E050E00E945952205D09
:103CC000D8012C93A30192010E945952205DF80162
:103CD000218329892283680183E0C80ED11C73CF18
:103CE000CF88D88CC00ED11E76012AE0422E512CEE
:103CF000612C712C91E0E91AF108698D7A2D8A8D79
:103D00009B8DA30192010E945952605DD7016C9373
:103D1000298FA32E4A8F5B8F0E151F0559F753CF9E
:103D2000BAE04B165104610471044CF46801EFEFE2
:103D3000CE1ADE0A80E3840DD8018C9344CF8AE04A
:103D4000A82EB12CC12CD12CC301B201A601950122
:103D50000E94595290E3F92EF60EB4E64B16510428
:103D6000610471045CF4205DF80120836801F2E0D5
:103D7000CF0ED11CD8011196FC9225CFB8EE4B1670
:103D8000B3E05B0661047104D0F4C301B20124E620
:103D900030E040E050E00E945952205DF80120835D
:103DA000A60195010E945952205DD80111962C93CD
:103DB0006801B3E0CB0ED11CF801F28204CFCE0132
:103DC00001965C01D12CC12C7C019FEFC91AD90A44
:103DD00069897A898B899C892AE030E040E050E04B
:103DE0000E945952605DD5016D935D01298B3A8B1C
:103DF0004B8B5C8B89899A89AB89BC89892B8A2BEF
:103E00008B2B19F7F801C601019730F0D701A80FE5
:103E1000B91F2C912193F8CFC00ED11ED4CE692C9E
:103E2000712CA6E0A91598F0FE013D967F018E0148
:103E30000F5F1F4F0E94AC1669817A818B819C8134
:103E4000A2010E94AF1C6201C60CD71CEDCEDE01A0
:103E50001D967D018E010F5F1F4F0E94AC16698178
:103E60007A818B819C81A2010E94AF1CB7E0CB0EAE
:103E7000D11C6D857E858F859889A6010E94AF1C17
:103E8000E6E06E1A7108E0CF8DE0F60180838AE0EB
:103E90008183F2E0CF0ED11CE3CE0FEF1FEFE9CE0E
:103EA000CF92DF92EF92FF920F931F93CF93DF9306
:103EB0001F921F92CDB7DEB78B01BE016F5F7F4FA0
:103EC0000E94664C6B017C01E981FA81808181113D
:103ED0002CC020E030E0A901C701B6010E94444E89
:103EE00087FD23C029EA3FE543E658E5C701B6014F
:103EF0000E94D6521816CCF0C701B6010E948A5211
:103F0000F8012083318342835383648375838683DE
:103F1000978381E00F900F90DF91CF911F910F91C8
:103F2000FF90EF90DF90CF90089580E0F3CFEF9275
:103F3000FF920F931F93CF93DF937C018B01D0E00F
:103F4000C0E0F80161918F01C7018C0F9D1F0E9495
:103F500019522196C430D105A1F784E090E0DF9199
:103F6000CF911F910F91FF90EF900895CF93DF9322
:103F700084E890E10E946D1B84E492E00E94441A60
:103F80008CE690E10E946D1B0E94381A60E870E098
:103F900086EA9BE00E94CB1886EA9BE00E94B61B53
:103FA0006FE672E00E94EC54EC01892BA9F48AE3DD
:103FB00090E10E946D1B6FEFCE010E941952219675
:103FC000C11580E1D807B9F78CE190E10E946D1B23
:103FD00080E0DF91CF91089584E590E10E946D1B10
:103FE00081E0F7CFEF92FF920F931F93CF93DF9370
:103FF0007C018B01D0E0C0E0F80161918F01C70125
:104000008C0F9D1F0E9419522196C738D105A1F728
:1040100087E890E0DF91CF911F910F91FF90EF9093
:1040200008951F93CF93DF9300D000D01F921F926B
:10403000CDB7DEB7142F62E77EE090E080E00E940B
:10404000F21F10920D0B83EE9FE00E946D1B112357
:10405000F1F184E492E00E94441A85EC9FE00E9412
:104060006D1B80EB9FE00E946D1B89E89FE00E9422
:104070006D1B84E492E00E94441A0E94381A68E0A2
:1040800070E0CE0101960E94CB18CE0101960E94ED
:10409000B61B63E772E00E94EC54892B79F481E04F
:1040A00080937C0B10E0812F28960FB6F894DEBF2A
:1040B0000FBECDBFDF91CF911F91089587E69FE09E
:1040C0000E946D1B8EE39FE00E946D1BECCF81E090
:1040D00080937C0BE8CFCF93DF93CDB7DEB7C75883
:1040E000D1090FB6F894DEBF0FBECDBF8233B1F059
:1040F0008333B9F0813309F054C18EE191E10E941C
:104100006D1B10920D0B80E0C957DF4F0FB6F8946E
:10411000DEBF0FBECDBFDF91CF91089583EF90E159
:10412000EECF8CE0898341E150E06FE172E0CE0197
:1041300002960E94FC5484E48B8B41E150E06EE4D3
:104140007BE0CE0144960E94FC541DA21EA280E892
:104150008FA386E988A788E989A71AA61BA61CA6AB
:104160001DA61EA61FA681EE88AB85EF89AB85E054
:104170008AAB1BAA1CAA1DAA1EAA84E190E098AFD4
:104180008FAB85E090E09AAF89AF1CAE1BAE8BE0A1
:1041900090E09EAF8DAF80E58FAF80E092ECA1E024
:1041A000B0E024968CAF9DAFAEAFBFAF249781E453
:1041B00027968FAF279782E428968FAF2897299666
:1041C0001FAE29972A961FAE2A972B961FAE2B97C4
:1041D0002C961FAE2C972D961FAE2D972E961FAEA8
:1041E0002E972F961FAE2F9760961FAE6097619601
:1041F0001FAE619762961FAE629763961FAE63977C
:1042000064961FAE649765961FAE659766961FAE5F
:10421000669767961FAE679768961FAE689782E5A8
:1042200025968FAF259726968FAF269794EC6996A3
:104230009FAF699789E06A968FAF6A976B961FAEBA
:104240006B976C961FAE6C976D961FAE6D976E96C2
:104250001FAE6E976F961FAE6F97A0961FAEA0977A
:10426000A1969FAFA197A2968FAFA297A3961FAEDC
:10427000A397A4961FAEA497A5961FAEA597A69642
:104280001FAEA697A7961FAEA797A8961FAEA89792
:10429000A9961FAEA997AA961FAEAA97AB961FAE76
:1042A000AB97AC961FAEAC97AD961FAEAD97AE96E2
:1042B0001FAEAE97AF961FAEAF97E0961FAEE097DA
:1042C000E1961FAEE197E2961FAEE297E3961FAE2E
:1042D000E397E4961FAEE497E5961FAEE597E69662
:1042E0001FAEE697E7961FAEE797E8961FAEE897F2
:1042F000E9961FAEE997EA961FAEEA97EB961FAED6
:10430000EB97EC961FAEEC97ED961FAEED97EE9601
:104310001FAEEE97EF961FAEEF97C158DF4F188292
:10432000CF57D040C058DF4F1882C058D040CF5729
:10433000DF4F1882C158D040CE57DF4F1882C25885
:10434000D040CD57DF4F1882C358D040CC57DF4FF5
:104350001882C458D040CB57DF4F1882C558D04080
:10436000CA57DF4F1882C658D040C957DF4F18824E
:10437000C758D04087E8FE013196A2E7BEE0019021
:104380000D928A95E1F762E77EE090E080E00E947E
:10439000F21F83ED90E10E946D1B81E080937C0B06
:1043A000B2CE81E0B1CE2F923F924F925F926F9248
:1043B0007F928F929F92AF92BF92CF92DF92EF92B5
:1043C000FF920F931F93CF93DF93CDB7DEB7C758FC
:1043D000D1090FB6F894DEBF0FBECDBF84E492E0E2
:1043E0000E94441A40E850E09E012F5F3F4F490170
:1043F000B90184E99AE00E945417C4010E94441A4A
:1044000040E850E0B40182E79AE00E94541782E746
:10441000682E8EE0782EF30126A037A040A451A488
:10442000F2A5CD57DF4FF883C358D040F301F3A571
:10443000CC57DF4FF883C458D040F301F4A5CB57D5
:10444000DF4FF883C558D040F301F5A5CA57DF4FB9
:10445000F883C658D040F40101900020E9F7319765
:104460009F0128193909CF57DF4F39832883C15855
:10447000D04090E4A92E22E4B22E3FE0C32ED12CEE
:10448000E12CF12C00E010E09101A201CD57DF4FAB
:104490006881C358D040CC57DF4F7881C458D04092
:1044A000CB57DF4F8881C558D040CA57DF4F98811E
:1044B000C658D0400E9485535F934F933F932F93EC
:1044C0009101A201CD57DF4F6881C358D040CC572E
:1044D000DF4F7881C458D040CB57DF4F8881C55813
:1044E000D040CA57DF4F9881C658D0400E948753AA
:1044F0005F934F933F932F9385E792E09F938F9322
:1045000040E8442E512CC201CF57DF4FE881F9819A
:10451000C158D0408E1B9F0B9F938F93CF01880D66
:10452000991D9F938F930E940B55C4010E94441ABA
:1045300040E850E0B40181E59AE00E945417F3018D
:1045400026A437A4F0A9CF57DF4FF883C158D04035
:10455000F301F1A9CD57DF4FF883C358D040F301E1
:10456000F2A9CC57DF4FF883C458D040F301F3A928
:10457000CB57DF4FF883C558D040F301F4A9CA5791
:10458000DF4FF883C658D040F301F5A9C957DF4F74
:10459000F883C758D040F40101900020E9F7319723
:1045A0003F01681879089101CF57DF4F4881C15802
:1045B000D040CD57DF4F5881C358D040CC57DF4F44
:1045C0006881C458D040CB57DF4F7881C558D04060
:1045D000CA57DF4F8881C658D040C957DF4F9881EE
:1045E000C758D0400E9485535F934F933F932F93BA
:1045F0009101CF57DF4F4881C158D040CD57DF4F91
:104600005881C358D040CC57DF4F6881C458D04040
:10461000CB57DF4F7881C558D040CA57DF4F8881CC
:10462000C658D040C957DF4F9881C758D0400E9424
:1046300087535F934F933F932F9384E892E09F9328
:104640008F93C201861997099F938F93C401860D9A
:10465000971D9F938F930E940B55C4010E94441A8B
:1046600040E850E0B40186E29AE00E945417F40159
:1046700001900020E9F73197CF0188199909E1EC01
:10468000FEE023812F9322812F9321812F9320817C
:104690002F93E9EBFEE023812F9322812F93218139
:1046A0002F9320812F9304E912E01F930F9392011F
:1046B000281B390B3F932F93880D991D9F938F9340
:1046C0000E940B550FB6F894DEBF0FBECDBFC401DC
:1046D0000E94441A40E850E0B40182E09AE00E944F
:1046E0005417F40101900020E9F73197CF018819A0
:1046F0009909E1EDFEE023812F9322812F932181FF
:104700002F9320812F93E9ECFEE023812F932281C8
:104710002F9321812F9320812F931F930F93920129
:10472000281B390B3F932F93880D991D9F938F93CF
:104730000E940B55C4010E94441A40E850E0B401A5
:104740008EED99E00E945417F40101900020E9F7E2
:104750003197CF0188199909E1EEFEE023812F936B
:1047600022812F9321812F9320812F93E9EDFEE069
:1047700023812F9322812F9321812F9320812F93A7
:104780001F930F939201281B390B3F932F93880D92
:10479000991D9F938F930E940B55C4010E94441A48
:1047A00040E850E0B4018EEB99E00E945417F40108
:1047B00001900020E9F73197CF0188199909E1EFBD
:1047C000FEE023812F9322812F9321812F9320813B
:1047D0002F93E9EEFEE023812F9322812F932181F5
:1047E0002F9320812F931F930F93481A590A5F929A
:1047F0004F92880D991D9F938F930E940B550FB672
:10480000F894DEBF0FBECDBFC4010E94441A84E4F9
:1048100092E00E94441AC957DF4F0FB6F894DEBFEA
:104820000FBECDBFDF91CF911F910F91FF90EF9001
:10483000DF90CF90BF90AF909F908F907F906F90C0
:104840005F904F903F902F900895CF93DF93CDB717
:10485000DEB7C058D1090FB6F894DEBF0FBECDBF8A
:1048600084E492E00E94441A40E850E0BE016F5F89
:104870007F4F8EE299E00E945417CE0101960E946C
:10488000441A40E850E0BE016F5F7F4F8FE199E02E
:104890000E945417CE0101960E94441A40E850E04D
:1048A000BE016F5F7F4F89E099E00E945417CE01EF
:1048B00001960E94441A40E850E0BE016F5F7F4FAE
:1048C00083EF98E00E945417CE0101960E94441A8B
:1048D00040E850E0BE016F5F7F4F89ED98E00E9495
:1048E0005417CE0101960E94441A40E850E0BE01E0
:1048F0006F5F7F4F8DEC98E00E945417CE010196B8
:104900000E94441A40E850E0BE016F5F7F4F89EB80
:1049100098E00E945417CE0101960E94441A40E884
:1049200050E0BE016F5F7F4F8EEA98E00E945417FF
:10493000CE0101960E94441A40E850E0BE016F5F2C
:104940007F4F8DE998E00E945417CE0101960E9496
:10495000441A84E492E00E94441A40E850E0BE0108
:104960006F5F7F4F8EE898E00E945417E091960E9B
:1049700066E878E0E83038F4F0E0EE0FFF1FE95F1A
:10498000FD4F60817181CE0101960E94D64DCE010E
:1049900001960E94441A84E492E00E94441AC0588E
:1049A000DF4F0FB6F894DEBF0FBECDBFDF91CF91C2
:1049B00008952F923F924F925F926F927F928F92C3
:1049C0009F92AF92BF92CF92DF92EF92FF920F939E
:1049D0001F93CF93DF93CDB7DEB764970FB6F894EC
:1049E000DEBF0FBECDBF29833A834B835C836987CB
:1049F0007A878B879C872AA52D833BA53E838CA530
:104A00008F83EDA5E887FEA5FD872FA52E8738A902
:104A10003F8789A9888B2AA83BA84CA85DA8EEA946
:104A2000E98BFFA9FA8B28AD2B8B39AD3C8B6AAC97
:104A30007BAC8CAC9DAC8EAD9FAD5F924F923F92A4
:104A40002F92E885EF93FF81FF932E812F933D8175
:104A50003F93DF92CF92BF92AF92EC81EF93FB81B5
:104A6000FF932A812F9339813F939F938F938DEFEB
:104A700095E09F938F9386EA9BE09F938F930E948C
:104A8000144E86EA9BE00E94441A84E492E00E945D
:104A9000441A88E094E10E946D1B84EF93E10E9428
:104AA0006D1B0E94381A60E870E086EA9BE00E9465
:104AB000CB1886EA9BE00E94B61B0FB6F894DEBFC7
:104AC0000FBECDBFFC012081223309F043C001900D
:104AD0000020E9F79F012250310928173907D1F545
:104AE0002981F30120833A8131838B8182832C8158
:104AF0002383398534838A8585832B8526833C856A
:104B00003783F401A082B182C282D382E482F5822B
:104B10000683178310920D0B81EE93E10E946D1BAB
:104B200080E064960FB6F894DEBF0FBECDBFDF9174
:104B3000CF911F910F91FF90EF90DF90CF90BF909A
:104B4000AF909F908F907F906F905F904F903F902D
:104B50002F9008952D81F30120833E8131838F8131
:104B60008283288523833D8534838E8585832F85A5
:104B7000268338893783F40120823182428253822E
:104B8000298924833A8935838B8986832C892783D5
:104B900089E194E10E946D1B81E0C3CFCF92DF9247
:104BA000EF92FF920F931F93CF93DF93CDB7DEB7B2
:104BB000C058D1090FB6F894DEBF0FBECDBF84E454
:104BC00092E00E94441A40E850E08E010F5F1F4FB0
:104BD000B8018DE698E00E945417C8010E94441A5B
:104BE00040E850E0B80187E598E00E945417E09152
:104BF000960E66E878E0E83038F4F0E0EE0FFF1F3C
:104C0000E95FFD4F60817181C8010E94D64D67EA5E
:104C100077E0C8010E94D654C8010E94441A40E8B7
:104C200050E0B80180E398E00E945417E091AC0E88
:104C3000F091AD0E1E161F060CF478C165E776E004
:104C40008DEE9AE00E94E14DF80101900020E9F715
:104C50003197E01BF10B8DEE9AE09F938F9380913B
:104C6000AD0E8F938091AC0E8F938DE992E09F9360
:104C70008F9380E8E82EF12CC7018E1B9F0B9F932A
:104C80008F93E00FF11FFF93EF930E940B55C80124
:104C90000E94441A40E850E0B80189E098E00E9480
:104CA0005417F80101900020E9F73197E01BF10B50
:104CB0008091AF0E8F938091AE0E8F9383EA92E036
:104CC0009F938F93C7018E1B9F0B9F938F93E00F32
:104CD000F11FFF93EF930E940B55C8010E94441AE5
:104CE00040E850E0B80186EE97E00E945417F801C2
:104CF00001900020E9F73197E01BF10B8091B00E95
:104D0000282F082E000C330B3F938F939AEAC92E5D
:104D100092E0D92EDF92CF92C7018E1B9F0B9F93FB
:104D20008F93E00FF11FFF93EF930E940B55C80183
:104D30000E94441A40E850E0B80187EC97E00E94D6
:104D40005417F80101900020E9F73197E01BF10BAF
:104D50008091B80E282F082E000C330B3F938F93B1
:104D60008091B70E282F082E000C330B3F938F93A2
:104D700087EA92E09F938F93C7018E1B9F0B9F93AF
:104D80008F93E00FF11FFF93EF930E940B550FB627
:104D9000F894DEBF0FBECDBFC8010E94441A40E8A0
:104DA00050E0B80187EA97E00E9454178091970E6F
:104DB000882309F4EFC0F80101900020E9F731974A
:104DC000E01BF10B282F082E000C330B3F938F9321
:104DD000DF92CF92EE1AFF0AFF92EF92E00FF11FDF
:104DE000FF93EF930E940B550FB6F894DEBF0FBEF2
:104DF000CDBFC8010E94441A40E850E0B8018BE8DA
:104E000097E00E945417C8010E94441A40E850E0FD
:104E1000B80189E697E00E945417F801019000203C
:104E2000E9F73197E01BF10B8091B40E8F938091DD
:104E3000B30E8F938091B20E8F938091B10E8F93AA
:104E40008EEA92E09F938F9380E890E08E1B9F0BF9
:104E50009F938F93E00FF11FFF93EF930E940B55E9
:104E6000C8010E94441A84E492E00E94441A40E877
:104E700050E0B80180E597E00E945417C8010E94F5
:104E8000441A40E850E0B8018AE397E00E945417C2
:104E9000C8010E94441A40E850E0B80180E297E05F
:104EA0000E945417C8010E94441A40E850E0B8011B
:104EB0008AEE96E00E945417C8010E94441A84E4C6
:104EC00092E00E94441A40E850E0B8018DEC96E070
:104ED0000E945417C8010E94441A40E850E0B801EB
:104EE00086EA96E00E945417C8010E94441A40E8DE
:104EF00050E0B80180E896E00E945417C8010E9473
:104F0000441A0FB6F894DEBF0FBECDBFC058DF4FB6
:104F10000FB6F894DEBF0FBECDBFDF91CF911F91CA
:104F20000F91FF90EF90DF90CF900895EA30F10558
:104F3000F4F4EE0FFF1FEE0FFF1FE35BF94F8591B7
:104F40009591A591B491BF93AF939F938F9385E370
:104F500096E09F938F938DEE9AE09F938F930E949C
:104F6000144E0FB6F894DEBF0FBECDBF6DCEFF93CB
:104F7000EF938CE196E09F938F938DEE9AE09F9351
:104F80008F930E94144E0F900F900F900F900F90E0
:104F90000F905ACE61EA77E0C8010E94D64D29CF22
:104FA0000E94CE2581E008952F923F924F925F920A
:104FB0006F927F928F929F92AF92BF92CF92DF9229
:104FC000EF92FF920F931F93CF93DF93CDB7DEB78E
:104FD000C55BD1090FB6F894DEBF0FBECDBF7B0114
:104FE000C455DF4F4883CC5AD040190130E020E04F
:104FF0000217130709F45EC2F1019491A101435D08
:105000005F4F891721F02F5F3F4F1A01F1CF211415
:10501000310409F44FC231962491C555DF4F2883DE
:10502000CB5AD040349685909590A590B490F101DC
:105030003D964590559065907490F101B396E4913A
:10504000F101B59685919591A591B491F1013396B1
:1050500005911491F101B19625913491C555DF4F19
:105060003881CB5AD040353009F014C1F1017D961A
:10507000259134914EE02639340709F075C010911E
:10508000960E8093960E181302C081E014C281E040
:1050900080930D0B1092A60B86EA9BE023969FAFA0
:1050A0008EAF239780E890E09A8389834CE355E0A4
:1050B000BE016F5F7F4FCE018F5B9F4F0E940D1827
:1050C000E091960E46E858E0E83038F4F0E0EE0F54
:1050D000FF1FE95FFD4F40815181BE016F5F7F4F30
:1050E000CE018F5B9F4F0E940D1886EA9BE00E94C5
:1050F000441AC455DF4F5881CC5AD040552311F47F
:105100000C94D73284E492E00E94441A8BE295E03A
:105110000E946D1B87E195E00E946D1B0E94381A6A
:1051200060E870E086EA9BE00E94CB1886EA9BE08C
:105130000E94B61BFC012081223311F00C94D7325F
:1051400001900020E9F79F01225031092817390703
:1051500011F00C94D7321093960E10920D0B84E040
:1051600095E00E946D1B91CF215B3E4009F08DCFF1
:10517000C090B10ED090B20EE090B30EF090B40E8D
:105180008093B10E9093B20EA093B30EB093B40E71
:105190008C159D05AE05BF0509F477CF81E080939E
:1051A0000D0B1092A60B86EA9BE023969FAF8EAF65
:1051B000239780E890E09A83898341EE54E0BE0112
:1051C0006F5F7F4FCE018F5B9F4F0E940D18A7012D
:1051D0009601BE016F5F7F4FCE018F5B9F4F0E9494
:1051E00095174AED54E0BE016F5F7F4FCE018F5B94
:1051F0009F4F0E940D182091B10E3091B20E409138
:10520000B30E5091B40EBE016F5F7F4FCE018F5B26
:105210009F4F0E94951786EA9BE00E94441AC4554E
:10522000DF4F2881CC5AD040222311F40C94D7327E
:1052300084E492E00E94441A8BE295E00E946D1B88
:1052400087E195E00E946D1B0E94381A60E870E0CB
:1052500086EA9BE00E94CB1886EA9BE00E94B61B80
:10526000FC012081223311F00C94D73201900020F0
:10527000E9F79F01225031092817390711F00C94E2
:10528000D732C092B10ED092B20EE092B30EF0922D
:10529000B40E63CFE114F10421F0F7018081811194
:1052A00028C085E492E00E94361AF80184910F5FCD
:1052B0001F4F882331F0082E000C990B0E94580EC6
:1052C000F4CF88E29CE00E94620E60E870E086EA1B
:1052D0009BE00E94CB1886EA9BE00E94B61B7C01F3
:1052E000FC018081882309F4D0CEE114F10409F493
:1052F000CCCEA501940160E070E0CB01C556DF4F34
:105300008882CB59D040C456DF4F3883CC59D04027
:10531000C356DF4FA882CD59D040C256DF4F5883C5
:10532000CE59D040C156DF4F6883CF59D040C056C8
:10533000DF4F7883C05AD040CF55DF4F8883C15AA2
:10534000D040CE55DF4F9883C25AD040A30192017E
:1053500060E070E0CB01CD55DF4F4882C35AD040AA
:10536000CC55DF4F3883C45AD040CB55DF4F6882CD
:10537000C55AD040CA55DF4F5883C65AD040C95588
:10538000DF4F6883C75AD040C855DF4F7883C85A6B
:10539000D040C755DF4F8883C95AD040C655DF4F2C
:1053A0009883CA5AD040CF57DF4F1882C158D04097
:1053B000CE57DF4F1882C258D040CD57DF4F1882EA
:1053C000C358D040CC57DF4F1882C458D040CB5779
:1053D000DF4F1882C558D040CA57DF4F1882C658D1
:1053E000D040C957DF4F1882C758D040C857DF4F49
:1053F0001882C858D040C757DF4F1882C958D040CC
:10540000C657DF4F1882CA58D040C557DF4F1882A1
:10541000CB58D040C457DF4F1882CC58D040C35728
:10542000DF4F1882CD58D040C257DF4F1882CE5878
:10543000D040C157DF4F1882CF58D040C057DF4F00
:105440001882C059D040CF56DF4F1882C159D04082
:10545000CE56DF4F1882C259D040CD56DF4F18824A
:10546000C359D040CC56DF4F1882C459D040CB56D8
:10547000DF4F1882C559D040CA56DF4F1882C6592F
:10548000D040C956DF4F1882C759D040C856DF4FA9
:105490001882C859D040C555DF4F3881CB5AD0400B
:1054A000323009F4F8C108F5332309F459C031301A
:1054B00009F473C180E0CB54DF4F0FB6F894DEBF20
:1054C0000FBECDBFDF91CF911F910F91FF90EF9055
:1054D000DF90CF90BF90AF909F908F907F906F9014
:1054E0005F904F903F902F900895C555DF4F4881B2
:1054F000CB5AD040433009F445C24430D9F6F701C5
:1055000001900020E9F731975F01AE18BF0822E053
:10551000A216B10449F4F7019080FFE29F1621F032
:10552000F70181818032C9F46FE270E0C7010E9407
:10553000E1548C01892B09F01DC360E270E0C701C2
:105540000E94E1548C01892B09F014C3AA94AB2862
:1055500009F061C3F7018081982EFF24F3942DC3D5
:10556000F7018081882309F40FC18B3219F0412C97
:105570008D3241F4442443948D3209F0412CFFEFE5
:10558000EF1AFF0AF7018081882309F4FDC0C35593
:10559000DF4FF982E882CD5AD040712C812CB0E0E7
:1055A000A0E0C155DF4F1882CF5AD040C055DF4F21
:1055B0001882C05BD040512C612CC355DF4FE8816D
:1055C000F981CD5AD0409190C355DF4FF983E883DC
:1055D000CD5AD040992009F445C080ED890D8A301C
:1055E00008F0D2C0FAE0AF2EB12CC12CD12CE12CA6
:1055F000F12C00E010E0272D382D4B2F5A2FC155EC
:10560000DF4F6881CF5AD040C055DF4F7881C05BF3
:10561000D040852D962D0E94F35259016A017B01DD
:105620008C01892D990C990BC097E92FEE0FEE0B89
:105630009C014E2F5E2F6E2F7E2F8E2F9E2F0E944D
:105640009254722E832EB42FA52FC155DF4F68833D
:10565000CF5AD040C055DF4F7883C05BD040582E22
:10566000692EABCF442011F1272D382D4B2F5A2F07
:10567000C155DF4F6881CF5AD040C055DF4F788188
:10568000C05BD040852D962D0E941554722E832E1E
:10569000B42FA52FC155DF4F6883CF5AD040C055D6
:1056A000DF4F7883C05BD040582E692ECF57DF4F35
:1056B0007882C158D040CE57DF4F8882C258D04040
:1056C000CD57DF4FB883C358D040CC57DF4FA883A6
:1056D000C458D040C155DF4FF881CF5AD040CB5786
:1056E000DF4FF883C558D040C055DF4FE881C05B1D
:1056F000D040CA57DF4FE883C658D040C957DF4F64
:105700005882C758D040C857DF4F6882C858D04029
:10571000C556DF4F2881CB59D040C456DF4F388162
:10572000CC59D040C356DF4F4881CD59D040C256E6
:10573000DF4F5881CE59D04060E070E080E090E0CB
:10574000A72CB82CCB2EDA2EEF2EFE2E052D162DE3
:105750000E94B05409F0C4F4CD55DF4F2881C35ADC
:10576000D040CC55DF4F3881C45AD040CB55DF4FA5
:105770004881C55AD040CA55DF4F5881C65AD040DB
:105780000E94B0540CF0F8C082ED94E00E946D1BB2
:1057900084E492E00E94441A78CCF7010190002042
:1057A000E9F7CF0102978E159F0571F7F701808108
:1057B000082E000C990B0E94C554182F48E050E0A9
:1057C000B1016B5E7F4FCE0101960E94CD4D898164
:1057D00021E0882361F0612F012E000C770BCE01B0
:1057E00001960E94E15421E0892B09F420E0912CDC
:1057F00080E0F12C90E0222339F2F1017D96A59111
:10580000B491C555DF4FF881CB5AD040F23009F43E
:1058100041C308F00AC2FF2309F470C2F13009F055
:1058200034CC7EE0A03BB70709F0E4C20091B00E93
:105830001093B00EC555DF4F8881CB5AD04080936E
:105840000D0B812F012E000C990B9F931F93802F1E
:10585000002E000C990B9F930F938CEE92E09F9378
:105860008F931F9280E88F9386EA9BE09F938F939C
:105870000E940B55C455DF4F8881CC5AD0400E94FE
:10588000D41B0FB6F894DEBF0FBECDBF8111FDCB88
:105890000093B00E6FC2F7018081882309F474CFA2
:1058A000BE016F577F4FC7010E94501F882309F424
:1058B0006BCFCF57DF4F6880C158D040CE57DF4FF6
:1058C0007880C258D040CD57DF4F8880C358D04031
:1058D000CC57DF4F9880C458D040CB57DF4FB881AA
:1058E000C558D040CA57DF4FA881C658D040C957C5
:1058F000DF4FF881C758D040C857DF4FE881C858FC
:10590000D0409301A4016B2F7A2F8F2F9E2FC55665
:10591000DF4FA880CB59D040C456DF4FB880CC5958
:10592000D040C356DF4FC880CD59D040C256DF4F5C
:10593000D880CE59D040E12CF12C00E010E00E943C
:10594000B0540CF421CFCD55DF4FA880C35AD040BE
:10595000CC55DF4FB880C45AD040CB55DF4FC880FC
:10596000C55AD040CA55DF4FD880C65AD0400E9491
:10597000B05411F00CF008CF912C80E0F12C90E0A5
:1059800010E03BCFF7018081882309F4FDCE6FE260
:1059900070E0C7010E94E1548C01892B49F460E258
:1059A00070E0C7010E94E1548C01892B09F4ECCE10
:1059B0005801AE18BF08F0E4AF16B10408F0E4CE09
:1059C000A501B701CE018F5B9F4F0E94FC54E1E41B
:1059D000F0E0EC0FFD1FEA0DFB1D1082B8016F5FB8
:1059E0007F4FCE0101960E94F55422968FAD2297EB
:1059F000882309F4C9CEBE0167577F4FCE018F5B64
:105A00009F4F0E94501F882309F4BECE89818823AE
:105A100009F4BACEBE016F567F4FCE0101960E94A7
:105A2000501F882309F4B0CEC757DF4F6880C9588C
:105A3000D040C657DF4F7880CA58D040C557DF4F97
:105A40008880CB58D040C457DF4F9880CC58D04086
:105A5000C357DF4FB881CD58D040C257DF4FA88120
:105A6000CE58D040C157DF4FF881CF58D040C057F3
:105A7000DF4FE881C059D0409301A4016B2F7A2FEA
:105A80008F2F9E2FC556DF4FA880CB59D040C456CC
:105A9000DF4FB880CC59D040C356DF4FC880CD59B6
:105AA000D040C256DF4FD880CE59D040E12CF12CE7
:105AB00000E010E00E94B0540CF466CECD55DF4FEC
:105AC000A880C35AD040CC55DF4FB880C45AD040CC
:105AD000CB55DF4FC880C55AD040CA55DF4FD8805C
