:100000000C94B10C0C94B6470C948B470C9460473D
:100010000C9435470C940A470C94DF460C94B44674
:100020000C9489460C9414460C94A5450C942F45C9
:100030000C94E20C0C94E20C0C94E20C0C94E20C88
:100040000C94E20C0C94E20C0C94E20C0C94E20C78
:100050000C94E20C0C94E20C0C94E20C0C9485448D
:100060000C94E20C0C94F9440C94CF440C94E20CE4
:100070000C94E20C0C94E20C0C94E20C0C94E20C48
:100080000C94E20C0C94E20C0C94E20C0C94E20C38
:100090000C94E20C0C94E20C0C94E20C0C94E20C28
:1000A0000C94E20C0C94E20C0C94E20C0C94E20C18
:1000B0000C94E20C0C94E20C0C94E20C0C94E20C08
:1000C0000C94E20C0C94E20C0C94E20C0C94E20CF8
:1000D0000C94E20C0C94E20C0C94E20C0C94E20CE8
:1000E0000C94E20C0C94C50F0C94F21F0C94851028
:1000F0000C94A10D0C94E3180C941D440C94A50DC4
:100100000C94860D0C94D40F0C94B90D0C948C0D9A
:100110000C94B1400C94B4400C947E440C94940D17
:100120000C94ED230C946D2A0C9492380C94903816
:100130000C941A440C94C11C0C94A8400C94AE402E
:100140000C949B0D0C942E100C94F1430C944824A9
:100150000C9420440C94E80F0C94AC380C94AB0D28
:100160000C9494380C9414440C948C380C94AF0D6B
:100170000C948E380C94980D0C94900D0C94C60D24
:100180000C94AB400C94A5400C94B7400C9481386F
:100190000C94035B0C94FE180C94F60F0C94B6258B
:1001A0000C9496380C94581D0C94DB3D0C94B30DB4
:1001B0000C94621D0C94C10D0C94BD0D0C94C70DD4
:1001C0000C94C50E0C9417440C9427440C94A1383D
:1001D0000C9410260C94BF180C94CB0D0C94E14792
:1001E0004E414E494E495459494E46CDCCCC3D0A1C
:1001F000D7233C17B7D13877CC2B329595E6241FFF
:10020000B14F0A000020410000C84200401C4620B7
:10021000BCBE4CCA1B0E5AAEC59D744E756C6C208C
:100220004F757470757400446562756700332D43B3
:100230006F726E6572656420486174005065726902
:100240006F640054696D6520496E74657276616CE7
:1002500020412D3E420042696E6172792054696DE1
:10026000657374616D7000506169726564205469D2
:100270006D657374616D700054696D657374616D43
:10028000700046554447453020412F42207073206E
:1002900028652E672E2C2034302F3430206F7220AA
:1002A0003165362F326536293A2000466978656413
:1002B0002054696D653220412F42207073202865DB
:1002C0002E672E2C2034302F3430206F7220316571
:1002D000362F326536293A200054696D652044690D
:1002E0006C6174696F6E20412F4220707320286505
:1002F0002E672E2C2034302F3430206F7220316541
:10030000362F326536293A200050726F706167616E
:1003100074696F6E2044656C617920412F422070B2
:10032000732028652E672E2C2034302F3430206F18
:1003300072203165362F326536293A2000436F61CD
:10034000727365205469636B2070732028652E6773
:100350002E2C2031653820666F72203130302075A8
:1003600073293A2000436C6F636B20487A2028651C
:100370002E672E2C2031653720666F722031302099
:100380004D487A293A2000456E74657220456467AD
:10039000657320412F42202852206F722046293A4F
:1003A0002000456E74657220506F6C6C204368614C
:1003B00072616374657220282D20746F20636C65F0
:1003C0006172293A2000456E746572204E616D6538
:1003D0007320412F422028616E792074776F20634B
:1003E00068617273293A2000456E7465722050204E
:1003F0006F7220533A20004F7574707574204465F5
:1004000063696D616C20506C616365732028302EC8
:100410002E3132293A200057726170204469676991
:1004200074732028302E2E3130293A200000010428
:100430000505030304050604050607010001000382
:100440000201000001020304050607070605040374
:100450000201000702010007060504030201000370
:100460000201000001020304050607000102030463
:10047000050607020304050606074F4B202D2D2015
:100480004368616E6E656C204E616D6573202563F7
:100490002F25632028256329202D3E2025632F2525
:1004A000632028256329004F4B202D2D2053746194
:1004B000727420456467652025632563202D3E20E6
:1004C00025632563005741524E494E473A20466105
:1004D0006C6C696E67206564676520747269676714
:1004E000657220697320756E72656C6961626C65F6
:1004F0003B2075736520617420796F7572206F776A
:100500006E207269736B21004F4B202D2D20436F9D
:1005100061727365205469636B202573202D3E2022
:100520002573004F4B202D2D20436C6F636B2025CE
:1005300073202D3E202573004F4B202D2D20537905
:100540006E63204D6F6465202563202D3E2025635A
:10055000004F4B202D2D20446563696D616C205048
:100560006C61636573202564202D3E202564004F57
:100570004B202D2D20577261702044696769747378
:10058000202564202D3E20256400496E76616C692B
:1005900064003B206E6F7720004F4B202D2D2042B2
:1005A000617564207261746520776173200043680F
:1005B000616E676573206B6570742E004368616EB1
:1005C000676573206469736361726465642E0032C9
:1005D000202D2044697363617264206368616E67D3
:1005E00065730031202D204B656570206368616E56
:1005F000676573004F4B202D2D204D6F6465207370
:10060000657420746F2000436F6E66696775726150
:1006100074696F6E206368616E67657320726571BF
:100620007569726520726573746172742E205265EB
:100630007374617274696E672E2E2E002843686190
:100640006E676573206172652074656D706F72618D
:100650007279202D2077696C6C20726576657274D2
:10066000206F6E2072657374617274290052657315
:10067000756D696E67206F7065726174696F6E2049
:1006800077697468206E65772073657474696E6726
:10069000732E004170706C79696E6720636F6E66AF
:1006A000696775726174696F6E206368616E6765F2
:1006B000732E2E2E004F4B202D2D20257320256CC0
:1006C000642F256C64202D3E20256C642F256C64DE
:1006D00020707300202D2077726170732061742068
:1006E00031652564207365636F6E647300202D206F
:1006F000777261707320617420256C752073656357
:100700006F6E647300010000000A000000640000C6
:1007100000E803000010270000A086010040420FFF
:10072000008096980000E1F50500CA9A3B202D2034
:100730006E6F20777261700033202D2052657365D3
:100740007420616C6C20746F2064656661756C74D4
:100750007320616E6420726573746172740032205C
:100760002D204170706C79206368616E676573201D
:10077000616E6420726573756D65206F706572615E
:1007800074696F6E0031202D204469736361726457
:10079000206368616E67657320616E6420657869A7
:1007A000740057202D205772697465206368616E4C
:1007B00067657320746F20454550524F4D20287057
:1007C000657273697374206163726F7373207265ED
:1007D000737461727473290056202D2053686F77EB
:1007E000206669726D776172652076657273696FD4
:1007F0006E0053202D2053686F77207374617274DC
:10080000757020696E666F004D202D2053686F77DC
:100810002074686973206D656E7520616761696E0B
:100820000048202D2053657269616C204261756417
:100830002052617465202863757272656E746C79DC
:100840003A200047202D20416476616E6365642064
:1008500073657474696E6773006E6F6E6529004608
:10086000202D20506F6C6C20436861726163746549
:1008700072202863757272656E746C793A20004537
:10088000202D204368616E6E656C204E616D65732E
:10089000202863757272656E746C793A200044206A
:1008A0002D205072696D6172792F5365636F6E648C
:1008B000617279202863757272656E746C793A2062
:1008C0000043202D204F7574707574204465636952
:1008D0006D616C20506C6163657320286375727262
:1008E000656E746C793A200042202D2054696D6544
:1008F0007374616D702057726170206469676974E8
:1009000073202863757272656E746C793A200041A9
:10091000202D204D6F6465202863757272656E749A
:100920006C793A20003D3D205449434320436F6E8B
:1009300066696775726174696F6E203D3D00556E22
:100940006B6E6F776E0043757272656E74206D6F9B
:1009500064653A20004138202D204E756C6C204F84
:100960007574707574004137202D20446562756779
:10097000004136202D20332D436F726E6572656401
:1009800020486174004135202D20506572696F64E4
:10099000004134202D2054696D6520496E746572C4
:1009A00076616C2041202D3E2042004133202D20D5
:1009B00042696E6172792054696D657374616D70FE
:1009C000004132202D205061697265642054696DA8
:1009D000657374616D70004131202D2054696D651F
:1009E0007374616D70002D2D204D6F6465202D2D69
:1009F000004836202D20323330343030206270737E
:100A0000004835202D20313135323030206270736E
:100A1000202864656661756C7429004834202D2097
:100A2000353736303020627073004833202D203344
:100A30003834303020627073004832202D20313934
:100A400032303020627073004831202D203936302A
:100A50003020627073002D2D2053657269616C2007
:100A60004261756420526174652053657474696EC7
:100A70006773202D2D004736202D204655444745CD
:100A80003020707320412F42202863757272656E8A
:100A9000746C793A20004735202D206669786564AA
:100AA00054696D653220707320412F422028637590
:100AB0007272656E746C793A20004734202D205490
:100AC000696D652044696C6174696F6E20412F42C5
:100AD000202863757272656E746C793A2000473312
:100AE000202D2050726F7061676174696F6E2044B1
:100AF000656C617920707320412F422028637572E4
:100B000072656E746C793A20004732202D20436F55
:100B100061727365205469636B2075732028637557
:100B20007272656E746C793A20004731202D204333
:100B30006C6F636B205370656564204D487A202884
:100B400063757272656E746C793A20002D2D2041A8
:100B50006476616E6365642053657474696E67734F
:100B6000202D2D00310500000000000000000000D5
:100B70000000000000000000000000000000000075
:100B800000B9090000560502000000000000000046
:100B9000003205000000000000000000000000001E
:100BA0000000000000000000000000000000B90983
:100BB000000056050200010000000000000033059F
:100BC0000000000000000000000000000000000025
:100BD0000000000000000000000000B909000056FD
:100BE00005020002000000000000003405000000C3
:100BF00000000000000000000000000000000000F5
:100C00000000000000000000B909000056050200C5
:100C10000300000000000000350500000000000097
:100C200000000000000000000000000000000000C4
:100C30000000000000B90900005605020004000091
:100C40000000000000360500000000000000000069
:100C50000000000000000000000000000000000094
:100C60000000B90900005605020005000000000060
:100C70000000370500000000000000000000000038
:100C8000000000000000000000000000000000B9AB
:100C900009000056050200060000000000000038B0
:100CA000050000000000000000000000000000003F
:100CB000000000000000000000000000B909000072
:100CC000560502000700000000000000310500008A
:100CD0000000000000000000000000000000000014
:100CE000000000000000000000D40900001405020C
:100CF0000080250000000000003205000000000018
:100D000000000000000000000000000000000000E3
:100D1000000000000000D409000014050200004B90
:100D2000000000000000330500000000000000008B
:100D300000000000000000000000000000000000B3
:100D4000000000D409000014050200009600000015
:100D5000000000340500000000000000000000005A
:100D60000000000000000000000000000000000083
:100D7000D40900001405020000E10000000000009A
:100D80003505000000000000000000000000000029
:100D900000000000000000000000000000D4090076
:100DA000001405020000C20100000000003605002A
:100DB0000000000000000000000000000000000033
:100DC00000000000000000000000D409000014052D
:100DD00002000084030000000000310200650340AF
:100DE000420F00000000000024F40000000000009A
:100DF00000000000000000BB0900001E050200000A
:100E0000000000000000003202003D0300E1F50593
:100E10000000000000E87648170000000000000015
:100E200000000000C30900002A05020000000000C5
:100E30000000000033030009030000000000000070
:100E4000000010A5D4E80000000000000000000031
:100E500000DD090000FB02010000000000000000AE
:100E600000340300D9020000000000000000001060
:100E7000A5D4E80000000000000000000000ED091B
:100E80000000050301000000000000000000350321
:100E900000AB0200000000000000000010A5D4E834
:100EA0000000000000000000000000FD0900001329
:100EB0000301000000000000000000360300820271
:100EC00000000000000000000010A5D4E8000000B1
:100ED00000000000000000000D0A00001E030100D9
:100EE00000000000000000004200001704000000A5
:100EF00000000000000A00000000000000000000E8
:100F00000000000000CF09000036050000000000CE
:100F10000000000000430000F70300000000000094
:100F200000000C00000000000000000000000000B5
:100F30000000D10900004205000000000000000090
:100F40000000440100E80300000000000000000071
:100F5000000000000000005053000000000000D31B
:100F600009000051050000000000000000000045DD
:100F70000400C603000000000000000000000000A4
:100F8000000000000000000000000000DA0900007E
:100F90005B0500000000000000000000460100A208
:100FA000030000000000000000000000000000003E
:100FB000000000000000000000BA09000069050000
:100FC000000000000000000000540400870300003F
:100FD0000000000000000000000000000000524679
:100FE000000000000000D8090000780500000000A3
:100FF000000000000000284368616E676573207779
:10100000696C6C2074616B6520656666656374202D
:10101000616674657220726573746172742900432D
:101020006F6E74696E75696E672077697468206386
:10103000757272656E742073657474696E67732E51
:101040000032202D204E6F2C20636F6E74696E75F8
:101050006520776974682063757272656E74207399
:10106000657474696E67730031202D205965732C87
:101070002072657374617274206E6F7700526573AD
:1010800074617274206E6F7720746F206170706C61
:1010900079206368616E6765733F004368616E67BE
:1010A0006573207772697474656E20746F2045458E
:1010B00050524F4D202877696C6C207065727369AF
:1010C0007374206163726F737320726573746172DD
:1010D00074732900454550524F4D20636C65617211
:1010E00065642E2052657374617274696E672E2E6A
:1010F0002E00436C656172696E6720656E7469725B
:101100006520454550524F4D2E2E2E0045455052DC
:101110004F4D20636C6561722063616E63656C6C1A
:1011200065642E0054797065202759455327207433
:101130006F20636F6E6669726D3A20005741524EA0
:10114000494E473A20546869732077696C6C206374
:101150006F6D706C6574656C792065726173652064
:1011600074686520656E7469726520454550524FFC
:101170004D20696E636C7564696E67207365726972
:10118000616C206E756D62657221004465666175E3
:101190006C7473207772697474656E2E2052657357
:1011A00074617274696E672E2E2E004170706C79B6
:1011B000696E67206368616E67657320616E642085
:1011C000726573756D696E67206F706572617469A1
:1011D0006F6E2E2E2E004469736361726465642005
:1011E0006368616E6765732E0041010001AC38F2DF
:1011F0001F420200008138000043020000943800C2
:10120000004402000090380000450200008E3800C3
:1012100000460200008C380000470100019638109B
:101220002648010001A138621D4D0000006D2A0012
:101230000053020000581D000056020000C11C00AF
:101240000057020000B625000058020000ED230000
:1012500000540200009238000031030000482400CE
:10126000003203000048240000330300004824003B
:10127000003403000048240000556E6B6E6F776EDB
:1012800020636F6D6D616E6400303030313032300C
:101290003330343035303630373038303931303122
:1012A0003131323133313431353136313731383112
:1012B0003932303231323232333234323532363200
:1012C00037323832393330333133323333333433E6
:1012D00035333633373338333934303431343234CC
:1012E00033343434353436343734383439353035B2
:1012F00031353235333534353535363537353835A2
:10130000393630363136323633363436353636368F
:101310003736383639373037313732373337343775
:10132000353736373737383739383038313832385B
:101330003338343835383638373838383939303941
:101340003139323933393439353936393739383931
:1013500039010000000A00000064000000E80300FA
:101360000010270000A086010040420F00809698E0
:101370000000E1F50500CA9A3B4655444745302038
:1013800070733A2000666978656454696D6532202F
:1013900070733A200054696D652044696C6174690A
:1013A0006F6E2070733A200054696D656F75743AE2
:1013B000203078253032780050726F706167617428
:1013C000696F6E2044656C61792070733A20004328
:1013D000616C20506572696F64733A202564004324
:1013E0006F61727365207469636B3A20256C642E9B
:1013F0002530366C64207573656300436C6F636BD6
:101400002053706565643A20256C642E2530366C57
:1014100064204D487A00506F6C6C204368617261A3
:10142000637465723A206E6F6E6500506F6C6C204D
:101430004368617261637465723A20004368616E4B
:101440006E656C204E616D65733A2025632F2563B0
:1014500020282563290053657269616C20426175FB
:101460006420526174653A20256C750053796E636F
:101470004D6F64653A202563004F75747075742054
:10148000446563696D616C20506C616365733A20DB
:1014900025640025642028777261707320617420B0
:1014A00031652564207365636F6E6473290025645C
:1014B0002028777261707320617420256C75207309
:1014C00065636F6E64732900256420286E6F207732
:1014D000726170290054696D657374616D70205775
:1014E0007261703A20004E756C6C204F7574707587
:1014F0007400446562756700332D436F726E6572C8
:101500006564204861740054696D6520496E746596
:101510007276616C20412D3E4200506572696F64A5
:101520000042696E6172792054696D657374616DF2
:1015300070005061697265645F54696D65737461B0
:101540006D700054696D657374616D70004D6561F7
:10155000737572656D656E74204D6F64653A200019
:10156000426F6172642053657269616C204E756DC3
:101570006265723A2000454550524F4D20566572C3
:1015800073696F6E3A2025642C20426F617264206B
:1015900056657273696F6E3A20256300536F6674E7
:1015A000776172652056657273696F6E3A20006EBE
:1015B000756C6C206F7574707574206D6F64652028
:1015C0002D206E6F206461746100686561646572CE
:1015D0002028307835352C30784141292C2063681B
:1015E000616E6E656C2028312062797465292C202B
:1015F00050494373746F7020283420627974657386
:10160000292C20746F662028342062797465732930
:101610002C204352432028312062797465290042EE
:10162000696E6172792054696D657374616D7020A3
:101630006D6F6465202D20313220627974652066DB
:1016400072616D65733A0074696D65312074696DFE
:10165000653220636C6F636B312063616C31206392
:10166000616C322050494373746F7020746F662030
:1016700074696D657374616D700074696D65737400
:10168000616D70206368302C206368313B20696E87
:1016900074657276616C206368302D3E636831201A
:1016A000287365636F6E64732077697468200070B7
:1016B0006572696F6420287365636F6E6473207749
:1016C000697468200074696D6520696E746572764E
:1016D000616C206368302D3E636831202873656338
:1016E0006F6E647320776974682000706169726539
:1016F00064206368616E6E656C2D6F726465722024
:1017000074696D657374616D7020287365636F6EA5
:1017100064732077697468200020646563696D6173
:101720006C20706C61636573290074696D657374F6
:10173000616D7020287365636F6E647320776974C0
:101740006820005449434320436F6E666967757291
:101750006174696F6E3A20002323232323232323FC
:101760002323232323232323232323232300436F00
:101770007079726967687420323031362D323032B8
:1017800035204E3855522C204B395452562C204E71
:1017900048365A2C2057413859575100544150521D
:1017A00020544943432054696D657374616D7069B9
:1017B0006E6720436F756E7465720000002100240F
:1017C0000027002A002D0030003300010100000432
:1017D0000107010A0100002200250028002B002E2D
:1017E000003100340002010000050108010B010076
:1017F0000020002300260029002C002F00320000CA
:10180000010000030106010901050505050705089A
:10181000080808020202020A0A0808040404040173
:101820000101010101010103030303030303030495
:101830000707070C0C0C0C0C0C0C0C020202020625
:10184000060606060606060B0B0B0B0B0B0B0B0115
:1018500002102020080810204010204080020102C1
:101860000108040201010204081020408080402089
:1018700010080402018004020180402010080402C4
:101880000108040201010204081020408001020442
:10189000081020408000000A0B02090C0D0E0807FA
:1018A0000304010000000000000000000000000030
:1018B0000000000000000000000000000000000028
:1018C00000121110000000000000000000000000E5
:1018D00000000000000000000000004368616E6727
:1018E0006573206469736361726465642E003220DD
:1018F0002D2044697363617264206368616E67655B
:10190000730031202D204B656570206368616E6720
:101910006573004368616E676573206B6570742E34
:10192000005361766520746F20454550524F4D201D
:10193000776974682027572720616E642072657369
:101940007461727420666F72206368616E676520CF
:10195000746F2074616B65206566666563742E0024
:10196000E14711241FBECFEFD1E2DEBFCDBF00E0C3
:101970000CBF15E0A0E0B2E0E4EDF9EB00E00BBF36
:1019800002C007900D92A438B107D9F72AE0A4E865
:10199000B5E001C01D92AF31B207E1F71CE0C1EB29
:1019A000DCE000E006C021970109802FFE010E94C3
:1019B0005B5AC03BD10780E00807A9F70E948D4819
:1019C0000C94E85C0C94000020914907222361F0FC
:1019D0002FB7F89430914907313049F43DB3309333
:1019E00048073DB33DBB2FBF8CBD9DBD08952093DF
:1019F0004807FACFCF92DF92EF92FF926B017C0102
:101A0000E0915A07F0915B0782E08083C11481EE78
:101A1000D806E104F104A1F060E079E08DE390E004
:101A2000A70196010E94C959215031094109510964
:101A30005695479537952795211580E13807A8F0E9
:101A4000E0915A07F0915B07108260E874E88EE13C
:101A500090E0A70196010E94C9592150310941091E
:101A600051095695479537952795E0915607F0917E
:101A700057073083E0915807F0915907208310925F
:101A80006207E0915E07F0915F0786E08083E09156
:101A90005C07F0915D07808180618083E0915C0745
:101AA000F0915D07808188608083E0915C07F09110
:101AB0005D07808180688083E0915C07F0915D071D
:101AC00080818F7D8083FF90EF90DF90CF9008958D
:101AD0008150823108F05AC0E82FF0E08827EC5896
:101AE000F24F8F4F0C945B5A940D980D860D8C0D10
:101AF000900DC60D9B0DA10DA50DAB0DAF0DB30D3A
:101B0000B90DBD0DC60DC10DC70DCB0D8091800067
:101B10008F77809380000895809180008F7DF9CF2A
:101B200080918000877FF5CF84B58F7784BD08953D
:101B300084B58F7DFBCF8091B0008F778093B0000C
:101B400008958091B0008F7DF9CF809190008F77BC
:101B5000809390000895809190008F7DF9CF8091BF
:101B60009000877FF5CF8091A0008F778093A000B1
:101B700008958091A0008F7DF9CF8091A000877F8C
:101B8000F5CF809120018F77809320010895809177
:101B900020018F7DF9CF80912001877FF5CFCF93F2
:101BA000DF93282F30E0F901EB56F74E8491F901CD
:101BB000E15BF74ED491F901E75FF74EC491CC2376
:101BC000A1F081110E94680DEC2FF0E0EE0FFF1FD5
:101BD000E151F84EA591B491EC91ED2381E090E0B4
:101BE00009F480E0DF91CF91089580E090E0FACF92
:101BF0001F93CF93DF93282F30E0F901EB56F74E78
:101C00008491F901E15BF74ED491F901E75FF74E5A
:101C1000C491CC23A9F0162F81110E94680DEC2FDE
:101C2000F0E0EE0FFF1FEB52F84EA591B4918FB785
:101C3000F894EC91111108C0D095DE23DC938FBF8E
:101C4000DF91CF911F910895DE2BF8CFCF93DF93D3
:101C500090E0FC01E15BF74E2491875F974EFC0119
:101C600084918823D1F090E0880F991FFC01E554FE
:101C7000F84EA591B491FC01EB52F84EC591D49168
:101C800061110EC09FB7F8948C91E22FE0958E23DE
:101C90008C932881E223E8839FBFDF91CF91089541
:101CA0008FB7F894EC91E22BEC938FBFF6CF909125
:101CB0007B00977F90937B008653806480937C00A9
:101CC00080917A00806480937A0080917A0086FD0A
:101CD000FCCF809178009091790008953FB7F894F7
:101CE0008091A4069091A506A091A606B091A706A2
:101CF00026B5A89B05C02F3F19F00196A11DB11D67
:101D00003FBFBA2FA92F982F8827BC01CD01620FA2
:101D1000711D811D911D42E0660F771F881F991F5D
:101D20004A95D1F708958F929F92AF92BF92CF922A
:101D3000DF92EF92FF924B015C010E946E0E6B01ED
:101D40007C010E946E0E6C197D098E099F09683E08
:101D5000734081059105A8F321E0821A9108A1083A
:101D6000B10888EEC80E83E0D81EE11CF11C811476
:101D70009104A104B10429F7FF90EF90DF90CF9078
:101D8000BF90AF909F908F900895AF92BF92CF92E7
:101D9000DF92EF92FF920F931F93CF93DF936C012B
:101DA0007B018B01040F151FEB015E01AE18BF080C
:101DB000C017D10759F06991D601ED91FC910190BE
:101DC000F081E02DC6011995892B79F7C501DF91C6
:101DD000CF911F910F91FF90EF90DF90CF90BF9028
:101DE000AF9008952F923F924F925F926F927F92A1
:101DF0008F929F92AF92BF92CF92DF92EF92FF921B
:101E00000F931F93CF93DF93CDB7DEB7C654D1099D
:101E10000FB6F894DEBF0FBECDBF922E832E742E68
:101E2000652E562E472E382E292EA0E00E94295CC2
:101E30000CF078C08DE289A3832D0E94855B922EE1
:101E4000832E742E652E562E472E382E292ECE0127
:101E5000829627969FAF8EAF2797CE010196259643
:101E60009FAF8EAF25972596AEADBFAD2597119646
:101E70002396BFAFAEAF23978AE0A82EB12CC12C1A
:101E8000D12CE12CF12C00E010E0292D382D472D2C
:101E9000562D652D742D832D922D0E94F55A205DAF
:101EA0002596EEADFFAD25972083292D382D472DA2
:101EB000562D652D742D832D922D0E94F75A922E4A
:101EC000832E742E652E562E472E382E292E2396BD
:101ED0008EAD9FAD239725969FAF8EAF2597292D69
:101EE000382D472D562D652D742D832D922DA0E074
:101EF0000E94295C09F0B7CF2796EEADFFAD27977A
:101F00009E012F5F3F4FAF012396AEADBFAD23972C
:101F10002A173B0780F48E912396BFAFAEAF23976D
:101F20008193F1CFA0E00E94295C41F580E389A371
:101F3000AE014E5D5F4FBE016F5D7F4F461B570B7D
:101F40008AE497E00E94C50ECA5BDF4F0FB6F89493
:101F5000DEBF0FBECDBFDF91CF911F910F91FF90DC
:101F6000EF90DF90CF90BF90AF909F908F907F9039
:101F70006F905F904F903F902F900895FE01B19623
:101F80002796FFAFEEAF279768CFFC01538D448DA6
:101F9000252F30E0842F90E0821B930B541710F014
:101FA000CF96089501970895FC01918D828D981721
:101FB00061F0A28DAE0FBF2FB11D5D968C91928DF9
:101FC0009F5F9F73928F90E008958FEF9FEF08952A
:101FD000FC01918D828D981731F0828DE80FF11DF3
:101FE000858D90E008958FEF9FEF0895FC01918D0E
:101FF000228D892F90E0805C9F4F821B91098F7307
:10200000992708958AE497E00E94F60F21E0892B32
:1020100009F420E0822F0895FC01A48DA80FB92FA8
:10202000B11DA35ABF4F2C91848D90E001968F7300
:102030009927848FA689B7892C93A089B1898C911F
:10204000837080648C93938D848D981306C002886E
:10205000F389E02D80818F7D80830895EF92FF9238
:102060000F931F93CF93DF93EC0181E0888F9B8DBB
:102070008C8D98131AC0E889F989808185FF15C075
:102080009FB7F894EE89FF896083E889F989808198
:102090008370806480839FBF81E090E0DF91CF9167
:1020A0001F910F91FF90EF900895F62E0B8D10E089
:1020B0000F5F1F4F0F731127E02E8C8D8E110CC0F8
:1020C0000FB607FCFACFE889F989808185FFF5CF43
:1020D000CE010E940C10F1CFEB8DEC0FFD2FF11D06
:1020E000E35AFF4FF0829FB7F8940B8FEA89FB8980
:1020F00080818062CFCF682F8AE497E00C942E1005
:10210000682F8AE497E00C942E10CF93DF93EC01B4
:10211000888D8823B9F0AA89BB89E889F9898C91CF
:1021200085FD03C0808186FD0DC00FB607FCF7CF8B
:102130008C9185FFF2CF808185FFEDCFCE010E948B
:102140000C10E9CFDF91CF9108958AE497E00E94C7
:102150008510EAE4F7E0A289B3898C918F7E8C9395
:10216000A289B3898C91877F8C93A289B3898C9142
:102170008F778C93A289B3898C918F7D8C93828D7C
:10218000818F089580E090E0892B29F00E94021051
:1021900081110E94000080E090E0892B49F080E0EE
:1021A00090E0892B29F00E94000081110E9400001C
:1021B00080E090E0892B49F080E090E0892B29F0C5
:1021C0000E94000081110E94000080E090E0892BB5
:1021D00049F080E090E0892B29F00E9400008111F5
:1021E0000C94000008952F923F924F925F926F924D
:1021F0007F928F929F92AF92BF92CF92DF92EF9297
:10220000FF920F931F93CF93DF93CDB7DEB72F9736
:102210000FB6F894DEBF0FBECDBFFC017F876E877F
:102220005C874B871082118212821382148215827E
:10223000168217821086118612861386DB01AB2B5D
:1022400009F4D0C0DA01AB2B09F4CCC0DB018D90CE
:102250009D90AD90BC90DA014D905D906D907C901A
:10226000DB0114962C90149715963C9015971696B2
:10227000CC9016971796DC9017971896EC901897B5
:102280001996FC9019971A960C911A971B961C9107
:10229000DA0114962C91149715963C911597169681
:1022A0004C91169717965C91179718966C91189702
:1022B00019967C9119971A968C911A971B969C9156
:1022C00084149504A604B70409F4A6C0B1E0B98348
:1022D000481459046A047B040CF4A6C01982AB8527
:1022E000BC854D905D906D907C90AE85BF854D9185
:1022F0005D916D917C91441A550A660A770AAB8507
:10230000BC8514963C9014971596BC91BA83AB8506
:10231000BC851696BC91BB83AB85BC851796BC91DA
:10232000BC83AB85BC851896BC91BD83AB85BC8551
:1023300019968C9019971A969C901A971B962C9028
:10234000AE85BF851496BC91BD87AE85BF851596B9
:10235000BC91BB87AE85BF851696BC91BE83AE850A
:10236000BF851796BC91BF83AE85BF851896BC917B
:10237000B887AE85BF851996BC91B987AE85BF85F4
:102380001A96BC91BA87AE85BF851B96BC91BE8755
:10239000232D3A814B815C816D81782D892D922D81
:1023A000AD84BB84CE80DF80E884F9840A851B2F4E
:1023B0000E94205C08F441C00E94175C59016A0128
:1023C0007B018C01A981AA2309F456C04082518265
:1023D00062827382A482B582C682D782E086F18649
:1023E00002871387CF012F960FB6F894DEBF0FBE7A
:1023F000CDBFDF91CF911F910F91FF90EF90DF90B4
:10240000CF90BF90AF909F908F907F906F905F9094
:102410004F903F902F900895A1E0A98351010E9411
:10242000205C11F008F05ACF9B858C85AE85BF8566
:10243000BC87AB879E878F8752CF3A814B815C8167
:102440006D81305F4A455B4267417F4F8F4F9F4FA1
:10245000AD84BB84CE80DF80E884F9840A851E8544
:102460000E94175C59016A017B018C0121E0421A2C
:10247000510861087108A6CF9501A601B701C801EE
:10248000A0E00E94295C69F4709460945094409498
:10249000411C511C611C711C4082518262827382FA
:1024A000A1CFD301C20180959095A095B09580836E
:1024B0009183A283B38320E030E145EA54ED68EED6
:1024C00070E080E090E00E94175C248335834683AF
:1024D0005783608771878287938784CF809149076C
:1024E000882361F09FB7F8942091490780914807AD
:1024F000213019F48DBB9FBF08958FBF08950F93AE
:102500001F93CF93DF938C01C62FD42F80E591E0EA
:102510000E94E40C60E0F80187810E94F80DC0641D
:10252000CD27DC27CD270CB405FC17C0DEBD00008D
:102530000DB407FEFDCF8EB5CEBD00000DB407FE75
:10254000FDCF8EB561E0F80187810E94F80DDF9123
:10255000CF911F910F910C946E12CEBD00000DB45F
:1025600007FEFDCF8EB5DEBD00000DB407FEFDCF2A
:10257000E8CFFC01EF56FF4F408160E00C947F12E2
:102580008EBD00000DB407FEFDCF8EB50895CF922D
:10259000DF92EF92FF920F931F93CF93DF938C0103
:1025A000C62FD42EF52EE22E80E591E00E94E40C99
:1025B000F8018281803309F049C080910201877F50
:1025C000809302018C2F80680E94C012CD2DDF2DD8
:1025D000F12C80E00E94C012C82E80E00E94C01240
:1025E000D82E80E00E94C0124C2D50E070E060E0D8
:1025F000BA0155274427480F511D611D711D8D2DAE
:1026000090E0982F8827480F591F611D711D49932D
:10261000599369937993F394EF10DBCFF80182819A
:102620008033C1F4809102018860809302010E948E
:102630006E128FE090E00197F1F7DF91CF911F913B
:102640000F91FF90EF90DF90CF900895809102015D
:102650008F7EB6CF809102018061E7CF1F93CF9329
:10266000DF93EC0180E591E00E94E40C60E08F8153
:102670000E94F80D82E00E94C01280E00E94C01209
:10268000182F61E08F810E94F80D0E946E12412F79
:1026900062E0CE01DF91CF911F910C947F122F92B7
:1026A0003F924F925F926F927F928F929F92AF92E2
:1026B000BF92CF92DF92EF92FF920F931F93CF932F
:1026C000DF93CDB7DEB7AA970FB6F894DEBF0FBE83
:1026D000CDBF1C0123E0AE014F5F5F4F60E10E9460
:1026E000C71289819A81AB81BC81F101838B948B64
:1026F000A58BB68B8D819E81AF81B885878F90A386
:10270000A1A3B2A389859A85AB85BC85878B908F61
:10271000A18FB28F22E0AE014F5F5F4F6BE1C1012D
:102720000E94C712A980BA80CB80DC80D101939629
:10273000AD92BD92CD92DC9296974D805E806F8077
:1027400078844D865E866F86788A97964D925D92E4
:102750006D927C929A9753964D905D906D907C907F
:1027600056974BA25CA26DA27EA257969C9057975B
:102770005896BC91B98FF101818CE28C478C50A0A6
:1027800061A072A0E059FF4FF08001811281B381F6
:10279000648175812F2D302F412F5B2F868197818A
:1027A000A0E00E94295C09F07FC1998AF98DFA8B1B
:1027B0008B8AEC8AE0904206ED8EF0904306FE8E06
:1027C0008090440690904506009146060F8F109128
:1027D000470618A32091480629A3309149063AA339
:1027E000A3019201B701C4010E944B5AF101E858BC
:1027F000FF4F00811181228133812B013C01401A5E
:10280000510A620A730A498E5A8E6B8E7C8E7097BB
:1028100080819181A281B38120E432E44FE050E0D5
:10282000281B390B4A0B5B0B8091400690914106A7
:1028300001972C01990F660877084114510461042F
:10284000710421F4412C512C320143946D857E8515
:102850008F8598896A197B098C099D090E94BB5A4A
:1028600069014FA358A769A77AA75C01C301B20108
:1028700022E030E040E050E00E94975979018A015F
:10288000550F220B322FA9012D873E874F87588B7A
:1028900096014FA158A569A57AA5C5015701680100
:1028A000ED84FE2C0E2D1E2D0E94025C6301520150
:1028B000DD0CAA08BA2C6501AD86BE86CF86D88A03
:1028C00052016301ED84FE2C0E2D1E2D0E94F75A3D
:1028D0002D873E874F87588B4D845E846F84788820
:1028E00045284628472841F4412C512C3201439475
:1028F0004D865E866F86788A8BA19CA1ADA1BEA114
:1029000049885A886B887C8884199509A609B70973
:102910002C013D01770C4408542C3201AD8CBE8C47
:102920006401EF8CF8A009A11AA19C01AD01642DEE
:10293000742D842D942D0E94635A722E832E942E12
:10294000B52FF62FE72F582E692EA0E00E94295CA4
:1029500009F453C04D855E856F85788976956795B6
:10296000579547955A016B01E12CF12C8701498B52
:10297000BA8A6B8BDC8AED8AFE8A0F8B188F10E483
:10298000A12E02E4B02E4FE0C42ED12CE12CF12C6C
:1029900000E010E0492D5B2F6F2F7E2F0E94635ABD
:1029A00059016A017B018C0129893A894B895C892B
:1029B00060E070E080E090E00E94025CCD84DE8404
:1029C000EF84F88856016701E12CF12C8701A98A70
:1029D000BA8ACB8ADC8AED8AFE8A0F8B188FE12CAB
:1029E000F12C00E010E00E94F75A722E832E942EF4
:1029F000B52FF62FE72F582E692EC98CDA8CEB8C69
:102A0000FC8CFF0CCC08DC2C7601298D3A8D4B8D8B
:102A10005C8D6C2D7C2D8C2D9C2DA72CB82CC92C5D
:102A2000DB2EEF2EFE2E052D162D0E94025CD1010D
:102A30009B962C939B979C963C939C979D964C932E
:102A40009D979E965C939E979F966C939F97D0962A
:102A50007C93D097D1968C93D197D2969C93C101B9
:102A60000E942E13F10123A534A545A556A567A5FF
:102A700070A981A992A9AA960FB6F894DEBF0FBEDD
:102A8000CDBFDF91CF911F910F91FF90EF90DF901D
:102A9000CF90BF90AF909F908F907F906F905F90FE
:102AA0004F903F902F900895F98A0A8B1B8BBC8B17
:102AB00081CECF92DF92EF92FF920F931F93CF932D
:102AC000DF93CDB7DEB72C970FB6F894DEBF0FBEFD
:102AD000CDBF8C010E944F13D8019B962C939B97DE
:102AE0009C963C939C979D964C939D979E965C9349
:102AF0009E979F966C939F97D0967C93D097D196F4
:102B00008C93D197D2969C9369017A01C8010E9457
:102B1000B91285E589838AEA8A83F801E057FF4F75
:102B200080818B83F894F80173856485558546858B
:102B300087858089818982899B01CA0178943C8339
:102B40002D839E838F83C886D986EA86FB86FE0105
:102B50003396AE01445F5F4F80E06CE8E417F50701
:102B600081F09191892798E0282F30E035952795BD
:102B700080FF05C0822F86279150B1F7EFCF822FBB
:102B8000FBCF8C878AE497E00E94C50F0C97D4F3A3
:102B90004CE050E0BE016F5F7F4F8AE497E00E94F7
:102BA000C50ED8011B967C911B971C966C911C97A7
:102BB0001D965C911D971E964C911E971F963C91F9
:102BC0001F9750962C91509751969C9151975296E1
:102BD0008C915297F801E058FF4F708361835283C4
:102BE00043833483258396838783E554F109DB96F9
:102BF0002C913181428153816481758186819781D5
:102C0000A1E00E940B5CD801DB962C9331834283B8
:102C10005383648375838683978381E02C960FB6F4
:102C2000F894DEBF0FBECDBFDF91CF911F910F9102
:102C3000FF90EF90DF90CF9008952F923F924F92A8
:102C40005F926F927F928F929F92AF92BF92CF923C
:102C5000DF92EF92FF920F931F93CF93DF93CDB745
:102C6000DEB764970FB6F894DEBF0FBECDBF9A8B68
:102C7000898B280139014A011B01DC019B968C914B
:102C80009B97D3968C93D3979C968C919C97D49634
:102C90008C93D4979D968C919D97D5968C93D59730
:102CA0009E968C919E97D6968C93D6979F968C9154
:102CB0009F97D7968C93D797D0968C91D097D8968C
:102CC0008C93D897D1968C91D197D9968C93D9978C
:102CD000D2968C91D297DA968C93DA97AC5ABF4FF2
:102CE000E989FA89E85BFF4FFC83EB838CE0019074
:102CF0000D928A95E1F789899A890E944F13A989D3
:102D0000BA899B962C939B979C963C939C979D96F7
:102D10004C939D979E965C939E979F966C939F97DE
:102D2000D0967C93D097D1968C93D197D2969C9342
:102D3000D297CD010E94B912F894E989FA892385C6
:102D40003485458556856785708981899289E058E3
:102D5000FF4FA080B180C280D380E480F5800681DF
:102D600017812083318342835383648375838683F1
:102D7000978378940E94175C52016301740181016A
:102D80000E94635AA989BA899B96AC909B979C969E
:102D9000BC909C979D96CC909D979E96DC909E971C
:102DA0009F96EC909F97D096FC90D097D1960C91DF
:102DB000D197D2961C91D2970E94175CD396AC9073
:102DC000D397D496BC90D497D596CC90D597D696D9
:102DD000DC90D697D796EC90D797D896FC90D8975A
:102DE000D9960C91D997DA961C910E94025C522ECA
:102DF000632E742E852E962E7983482EB92FA0E04F
:102E00000E94295C0CF452C0E989FA89E45BFF4F07
:102E1000A080B180C280D380E480F58006811781D4
:102E20000E94025C208331834283538364837583D1
:102E300086839783E080F18002811381C480D580EE
:102E4000B681B7809701A801B6018B2F9B2D2F3F2C
:102E5000AFE03A07A5EA4A07A4ED5A07A8EE6A07C9
:102E600071058105910509F008F475C03051454A96
:102E7000544D684E71098109910920833183428341
:102E800053836483758386839783AB81BC814D9123
:102E90005D916D917C9113974F5F5F4F6F4F7F4FA7
:102EA0004D935D936D937C931397C4CF7981842D5B
:102EB0009B2F0E94855B29873A874B875C876D87AC
:102EC0007E878F87988B29883A88ECE42E0E311CF8
:102ED000F101F081FB8BF101F181FC8BF101A28109
:102EE000F381FA83F101F481FD83F101F581FE8321
:102EF000F101F681FF83F101F781F887AB88BC8887
:102F0000CA2EDA80ED80FE800F811F2F0E94205C88
:102F100011F008F05BC0252D362D472D582D692D59
:102F20007981842D9B2F0E94025CD1012C931196F4
:102F30003C93119712964C93129713965C931397A8
:102F400014966C93149715967C93159716968C93FC
:102F5000169717969C93E989FA89E95BFF4F81E000
:102F60008083E989FA89FB96A989BA89DB962C9135
:102F70003181428153816481758186819781A1E08D
:102F80000E940B5CA989BA89DB962C93318342831A
:102F90005383648375838683978364960FB6F8940E
:102FA000DEBF0FBECDBFDF91CF911F910F91FF907C
:102FB000EF90DF90CF90BF90AF909F908F907F90D9
:102FC0006F905F904F903F902F90089529853A859C
:102FD0004B855C856D857E858F859889AB88BC889F
:102FE000DA80ED80FE800F8118850E94175C290130
:102FF0003A014B0189839A83A12C20E1B22E35EA54
:10300000C32E44EDD42E58EEE52EF12C00E010E056
:103010009201A3010E94285BA1E00E940B5C590170
:103020006A01EB81FC8180819181A281B3818A193F
:103030009B09AC09BD0980839183A283B383A12C32
:1030400060E1B62E75EAC72EE4EDDE2EF8EEEF2E27
:10305000F12C00E010E09201A301B40189819A8172
:103060000E94265B59016A017B018C0120E030E15E
:1030700045EA54ED68EE70E080E090E00E94175C55
:1030800054CFCF93DF93EC010E942E13FE01EF5635
:10309000FF4F40814E7F60E0CE010E947F126AE0C8
:1030A00070E080E090E00E94930ECE010E942E130B
:1030B000CE010E94B9121B8A1C8A1D8A1E8A1F8A91
:1030C000188E198E1A8E1B8E1C8E1D8E1E8E1F8EB4
:1030D00018A219A21AA21BA21CA21DA21EA21FA204
:1030E00018A619A61AA61BA61CA61DA61EA61FA6D4
:1030F00018AA19AA1AAA1BAA1CAA1DAA1EAA1FAAA4
:1031000018AE19AE1AAEFE01ED5BFF4F10821182B0
:1031100012821382349610823196108211821282AA
:1031200013823496108211821282138214821582C5
:103130001682178238961082118212821382349678
:1031400010821182128213821482158216821782D3
:10315000B89610821182128213821482158216820E
:10316000178238961082118212821382C457DF4F61
:10317000188219821A821B82DF91CF9108952091C3
:103180008706309188064091890650918A066091A1
:103190008B0670918C0680918D0690918E06A1E031
:1031A0000E940B5C20938706309388064093890623
:1031B00050938A0660938B0670938C0680938D06DD
:1031C00090938E06089570918706609188065091BD
:1031D000890640918A0630918B0620918C06909149
:1031E0008D0680918E06E7EEF7E07387648755873A
:1031F00046873787208B918B828B08957091870645
:10320000609188065091890640918A0630918B061C
:1032100020918C0690918D0680918E06E5E8F8E06D
:1032200070836183528343833483258396838783AA
:1032300008952F923F924F925F926F927F928F925A
:103240009F92AF92BF92CF92DF92EF92FF920F9335
:103250001F93CF93DF93CDB7DEB72C970FB6F894BB
:10326000DEBF0FBECDBF29833A834B835C836D8362
:103270007E838F8398871801FA86E98680EAA82ED4
:1032800097EFB92E66ECC62E70E1D72EE12CF12C0B
:1032900000E010E060E070E080E090E00E94635A9F
:1032A00000E10E94E75B29013A014B018C879B8773
:1032B00029813A814B815C816D817E818F819885E6
:1032C00000E20E94E75B00E00E94635A00E10E9476
:1032D000CC5B59016A017B018C019201A301B4010D
:1032E0008C859B850E94025C00E20E94E75B422E77
:1032F000532E642E752EA301920160E472E48FE0D8
:1033000090E00E944B5A29813A814B815C81261BB7
:10331000370B480B590BDA01C901803432E49307AB
:103320003FE0A307B10548F04FEF441A540A640A7E
:10333000740A80549244AF40B109F1014082518235
:1033400062827382E985FA8580839183A283B38345
:103350002C960FB6F894DEBF0FBECDBFDF91CF9194
:103360001F910F91FF90EF90DF90CF90BF90AF90A3
:103370009F908F907F906F905F904F903F902F9095
:103380000895DB0141505109FC012491222349F0A9
:103390000196FD01E61BF70BE417F50710F42D93DA
:1033A000F3CF1C920895CF93DF93DC01FB01EA0178
:1033B0008991AE01208131818823E1F022303105ED
:1033C000C8F02D913C911197C901019611969C93DB
:1033D0008E93CE010197EC018881E9018883CD911C
:1033E000DC9111971882208131812150310931837C
:1033F0002083DDCF81E02230310508F480E0DF91C9
:10340000CF9108954F925F926F927F92AF92BF9249
:10341000CF92DF92EF92FF920F931F93CF93DF93A0
:1034200000D000D000D01F921F92CDB7DEB78C0124
:103430007B0157FF21C0DB018D919C91029708F41D
:1034400057C0D801ED91FC911197CF0101961196CB
:103450009C938E938DE28083ED91FC911082FB0111
:10346000808191810197918380835095409530951B
:1034700021953F4F4F4F5F4FCA01B9011B866E0127
:10348000FBE0CF0ED11C2AE0422E512C612C712C76
:103490009E012F5F3F4F5901A30192010E94C9591C
:1034A000605DD6016E936D01B901CA0161157105A8
:1034B0008105910519F0AA16BB0671F7A601B7019F
:1034C000C8010E94D3192B960FB6F894DEBF0FBE29
:1034D000CDBFDF91CF911F910F91FF90EF90DF90C3
:1034E000CF90BF90AF907F906F905F904F90089576
:1034F00080E0E9CFCF93DF93EC01DB012D913C918C
:10350000119722303105D0F0FA0184914F5F5F4F5F
:103510008823A1F0E881F9819F012F5F3F4F398314
:1035200028838083E881F98110822D913C91119745
:103530002150310911963C932E93E0CF81E0223047
:10354000310508F480E0DF91CF910895AF92BF92EA
:10355000CF92DF92EF92FF920F931F9380919E067E
:1035600081116FC02091BB093091BC094091BD0908
:103570005091BE096091BF097091C009A0903309B4
:10358000B0903409C0903509D0903609E0903709E1
:10359000F09038090091390910913A098091C109D8
:1035A0009091C2090E94205C09F04BC02091C30990
:1035B0003091C4094091C5095091C6096091C7096D
:1035C0007091C809A0903B09B0903C09C0903D099A
:1035D000D0903E09E0903F09F090400900914109E8
:1035E000109142098091C9099091CA090E94205CFA
:1035F00041F52091CB093091CC09809143099091FC
:10360000440928173907E9F49091D80980915009A5
:10361000981317C09091D90980915109981311C03E
:1036200081E02091D30990914B09291301C080E0DA
:103630001F910F91FF90EF90DF90CF90BF90AF90D0
:10364000089581E0F5CF88E8E5E9F9E0ADE0B9E07B
:1036500001900D928A95E1F7109293060895082E35
:10366000000C990B0E947B108AE497E00C94851063
:10367000CF92DF92EF92FF920F931F93CF93DF933E
:103680008C016B01D0E0C0E08AE497E00E94F60F65
:10369000892B39F461E070E080E090E00E94930EA5
:1036A000F3CF8AE497E00E94D40F8D309105B1F4F6
:1036B000209731F08DE00E942F1B8AE00E942F1B83
:1036C000F801EC0FFD1F1082CE01DF91CF911F9109
:1036D0000F91FF90EF90DF90CF9008958A30910581
:1036E00039F38830910519F08F37910569F42097E7
:1036F00059F2219788E00E942F1B80E20E942F1B25
:1037000088E00E942F1BC0CF7E012FEFE21AF20A41
:10371000EC14FD0408F0B8CFC00FD11F88830E94BD
:103720002F1BE701B1CF9EEF980F923008F4A5C090
:103730009EEE980F943008F4A0C090E0FC01E15B8D
:10374000F74E2491FC01E75FF74E3491433009F0C6
:1037500038C0323031F54091A705422B4093A70580
:10376000835D9B4FFC01A491323009F043C0B0E06F
:10377000AA0FBB1FAA56BA4F6D937C93E3EFF7E1F4
:10378000A591B4918C918093A8058BE690E09093DD
:10379000850580938405809168008160809368002E
:1037A0004AC03A3031F44091B905422B4093B905F3
:1037B000D7CF3B30A9F64091CC05422B4093CC05A6
:1037C000CFCF323031F44091A605422B4093A6056D
:1037D000C7CF3A3031F44091B805422B4093B80539
:1037E000BFCF3B3009F0BCCF4091CB05422B40937B
:1037F000CB05B6CF3A3039F5B0E0AA0FBB1FA755BD
:10380000BA4F6D937C93E3E0F8E1A591B4918C916C
:103810008093BA058CE690E09093850580938405AB
:10382000809168008260809368008091B705822B48
:103830008093B705220FA0918405B0918505EC9186
:103840002E2B2C9308953B30B1F7B0E0AA0FBB1F8D
:10385000A554BA4F6D937C93E5E0F8E1A591B4913E
:103860008C918093CD058DE690E0909385058093B3
:10387000840580916800846091CF9FB7F89483306D
:1038800069F18231A1F0823039F570938F05609330
:103890008E05EC9880916A008C7F80936A008091FD
:1038A0006A00482B40936A00E49AEC9A15C0709322
:1038B0008D0560938C05EB98809169008F738093E0
:1038C000690080916900F0E44F9FA0011124482B0A
:1038D00040936900E39AEB9A9FBF08957093910516
:1038E00060939005ED9880916A00837F80936A00D1
:1038F00080916A0024E0429FA0011124482B40934C
:103900006A00E59AED9AE8CFFC0101900020E9F702
:103910003197AF01481B590BBC018AE497E00C9426
:10392000C50ECF93DF93D0E0C0E0009719F00E945E
:10393000841CEC0184E492E00E94841C8C0F9D1F87
:10394000DF91CF9108950C94841C87E492E00E944B
:10395000A31C8BED92E00E94A31C8AE497E00C94D8
:103960008510CF93DF93EC0187E492E00E94A31CC3
:10397000CE010E94911C8AE497E0DF91CF910C94D4
:1039800085100F931F93CF93DF93CDB7DEB7C45845
:10399000D1090FB6F894DEBF0FBECDBF19828E01DC
:1039A0000F5F1F4FCF57DF4F19830883C158D04097
:1039B00080E890E0CD57DF4F99838883C358D0408B
:1039C0004AE452E0BE016D577F4FCE018F579F4FA3
:1039D0000E94D31941E252E0BE016D577F4FCE01E4
:1039E0008F579F4F0E94D3194DE552E0BE016D578E
:1039F0007F4FCE018F579F4F0E94D31949E152E06C
:103A0000BE016D577F4FCE018F579F4F0E94D31934
:103A1000CD57DF4F88819981C358D040029720F15C
:103A2000CF57DF4FE881F981C158D040CF010196CF
:103A3000CF57DF4F99838883C158D04089E2808374
:103A4000CF57DF4FE881F981C158D0401082CD5760
:103A5000DF4F88819981C358D0400197CD57DF4F00
:103A600099838883C358D04040E652E0BE016D5729
:103A70007F4FCE018F579F4F0E94D3194EE256E0E1
:103A8000BE016D577F4FCE018F579F4F0E94D319B4
:103A9000C8010E94B11C81E0CC57DF4F0FB6F894EB
:103AA000DEBF0FBECDBFDF91CF911F910F91089563
:103AB00086E492E00E94B11C86E492E00E94B11C70
:103AC00081E00895CF93DF93CDB7DEB7C058D10919
:103AD0000FB6F894DEBF0FBECDBF86E492E00E9421
:103AE000B11C40E850E0BE016F5F7F4F86E59AE071
:103AF0000E94C119CE0101960E94B11C40E850E01D
:103B0000BE016F5F7F4F88E49AE00E94C119CE0129
:103B100001960E94B11C40E850E0BE016F5F7F4FEC
:103B200089E39AE00E94C119CE0101960E94B11C5E
:103B300040E850E0BE016F5F7F4F8AE29AE00E944A
:103B4000C119CE0101960E94B11C40E850E0BE01AF
:103B50006F5F7F4F8BE19AE00E94C119CE01019601
:103B60000E94B11C40E850E0BE016F5F7F4F81E0D2
:103B70009AE00E94C119CE0101960E94B11C40E852
:103B800050E0BE016F5F7F4F81EF99E00E94C11945
:103B9000CE0101960E94B11C86E492E00E94B11C05
:103BA000C058DF4F0FB6F894DEBF0FBECDBFDF9118
:103BB000CF9108950F931F93CF93DF938C0187E4E8
:103BC00092E00E94A31CE801FE01849121968823C3
:103BD00031F0082E000C990B0E947B10F5CF84E485
:103BE00092E00E94841C8AE497E0DF91CF911F91BC
:103BF0000F910C94851080919E06811123C00E9424
:103C0000A61A882351F087E096E00E94DA1D68EE3C
:103C100073E080E090E00C94930E809193068823EB
:103C200071F083E996E00E94DA1D109293068DE60A
:103C300096E00E94DA1D8CE396E00C94DA1D8DE686
:103C400096E0FBCF0895CF93DF939C01D9019C911F
:103C50002F5F3F4F9032D1F39930C1F3FD010190B6
:103C60000020E9F73197EF01AE17BF0728F48291E2
:103C70008032C9F38930B9F31882CD01DF91CF9139
:103C80000895CF93C82F88EC96E00E94B11C81E282
:103C900099E10E94DA1D86E492E00E94B11CC111F4
:103CA00007C083E199E10E94DA1D81E0CF91089578
:103CB00082E099E10E94DA1D8EEE98E10E94DA1D01
:103CC0000E94A51C8AE497E00E94F60F18161906B8
:103CD0002CF48AE497E00E94D40FF4CF60E270E005
:103CE00088EA96E00E94381B88EA96E00E94231E2C
:103CF000FC0180818233A9F68BED98E10E94DA1DE8
:103D000080E0D4CF8F929F92AF92BF92CF92DF92FA
:103D1000EF92FF920F931F93CF93DF93CDB7DEB750
:103D2000A1970FB6F894DEBF0FBECDBF6C01990FFF
:103D3000EE08FF08F7FE3FC08DE20E9480108C0164
:103D400022273327A9012C193D094E095F0919A221
:103D5000CE0181967C019AE0892E912CA12CB12C68
:103D6000CA01B901A50194010E94C959605DF7011A
:103D700062937F01211531054105510589F790E0D6
:103D800080E0309719F0CF010E94841C800F911FB2
:103D9000A1960FB6F894DEBF0FBECDBFDF91CF91D5
:103DA0001F910F91FF90EF90DF90CF90BF90AF9059
:103DB0009F908F900895A701960119A28E010F5D23
:103DC0001F4F8AE0C82ED12CE12CF12CCA01B90179
:103DD000A70196010E94C959605DF80162938F01A5
:103DE000211531054105510589F790E080E03097B4
:103DF00079F2CF010E94841CCBCF2F923F924F9239
:103E00005F926F927F928F929F92AF92BF92CF926A
:103E1000DF92EF92FF920F931F93CF93DF93CDB773
:103E2000DEB764970FB6F894DEBF0FBECDBF29830F
:103E30003A834B835C8369877A878B879C872AA523
:103E40002D833BA53E838CA58F83EDA5E887FEA53A
:103E5000FD872FA52E8738A93F8789A9888B2AA897
:103E60003BA84CA85DA8EEA9E98BFFA9FA8B28AD69
:103E70002B8B39AD3C8B6AAC7BAC8CAC9DAC8EADE6
:103E80009FAD5F924F923F922F92E885EF93FF8113
:103E9000FF932E812F933D813F93DF92CF92BF926C
:103EA000AF92EC81EF93FB81FF932A812F933981AD
:103EB0003F939F938F9385EB96E09F938F9388EC2E
:103EC00096E09F938F930E94845588EC96E00E9421
:103ED000B11C86E492E00E94B11C82E099E10E944C
:103EE000DA1D8EEE98E10E94DA1D0E94A51C60E8A2
:103EF00070E088EC96E00E94381B88EC96E00E9407
:103F0000231E0FB6F894DEBF0FBECDBFFC0120818B
:103F1000223309F043C001900020E9F79F012250AD
:103F2000310928173907D1F52981F30120833A8116
:103F300031838B8182832C812383398534838A85E5
:103F400085832B8526833C853783F401A082B1824B
:103F5000C282D382E482F58206831783109293068D
:103F60008BED98E10E94DA1D80E064960FB6F8941C
:103F7000DEBF0FBECDBFDF91CF911F910F91FF909C
:103F8000EF90DF90CF90BF90AF909F908F907F90F9
:103F90006F905F904F903F902F9008952D81F30187
:103FA00020833E8131838F818283288523833D85D1
:103FB00034838E8585832F85268338893783F40162
:103FC0002082318242825382298924833A8935832F
:103FD0008B8986832C89278383E199E10E94DA1DEE
:103FE00081E0C3CFCF93DF93CDB7DEB7C058D109FF
:103FF0000FB6F894DEBF0FBECDBF86E492E00E94FC
:10400000B11C40E850E0BE016F5F7F4F86EE99E043
:104010000E94C119CE0101960E94B11C40E850E0F7
:10402000BE016F5F7F4F87ED99E00E94C119CE01FD
:1040300001960E94B11C40E850E0BE016F5F7F4FC7
:1040400081EC99E00E94C119CE0101960E94B11C39
:1040500040E850E0BE016F5F7F4F8BEA99E00E941D
:10406000C119CE0101960E94B11C40E850E0BE018A
:104070006F5F7F4F81E999E00E94C119CE010196DF
:104080000E94B11C40E850E0BE016F5F7F4F85E8A1
:1040900099E00E94C119CE0101960E94B11C40E82E
:1040A00050E0BE016F5F7F4F81E799E00E94C11928
:1040B000CE0101960E94B11C40E850E0BE016F5F46
:1040C0007F4F86E699E00E94C119CE0101960E94B9
:1040D000B11C40E850E0BE016F5F7F4F85E599E07D
:1040E0000E94C119CE0101960E94B11C86E492E0A3
:1040F0000E94B11C40E850E0BE016F5F7F4F86E434
:1041000099E00E94C119E091B9096EE379E0E830C5
:1041100038F4F0E0EE0FFF1FE75FFD4F6081718123
:10412000CE0101960E944655CE0101960E94B11C17
:1041300086E492E00E94B11CC058DF4F0FB6F8949D
:10414000DEBF0FBECDBFDF91CF910895EF92FF92FA
:104150000F931F93CF93DF938B010C5F1F4FEB01E6
:104160007C01E61AF70AC7018C0F9D1F0E94815936
:104170008993C017D107B9F784E090E0DF91CF9120
:104180001F910F91FF90EF9008952F923F924F92C1
:104190005F926F927F928F929F92AF92BF92CF92D7
:1041A000DF92EF92FF920F931F93CF93DF9300D094
:1041B0001F921F92CDB7DEB76B015D834C8323ED59
:1041C0003DE442E650E10E94CA5A06E20E94E75BE3
:1041D000190128EE33E0229EC001239E900D329EED
:1041E000900D11249601281B390B3A8329838DECFD
:1041F000A82E9CECB92E2CECC22E3CECD32EE12C3C
:10420000F12C00E010E0910140E050E060E070E04F
:1042100080E090E00E94635A03E20E94E75B2B83F8
:10422000E981FA8100E09F0140E050E060E070E049
:1042300080E090E00E94635A03E20E94E75B122F45
:10424000FB816F2F70E0660F771F67577D4E42E04E
:1042500050E08C819D810E943D5520E3220E0AE0B2
:104260003B81309F20181124EC81FD812282612F37
:1042700070E0660F771F67577D4E42E050E0CF0138
:1042800003960E943D558981805D109F80191124FD
:10429000EC81FD8185830F900F900F900F900F9010
:1042A000DF91CF911F910F91FF90EF90DF90CF9012
:1042B000BF90AF909F908F907F906F905F904F9046
:1042C0003F902F900895CF92DF92EF92FF920F933D
:1042D0001F93CF93DF9300D000D01F921F92CDB7D2
:1042E000DEB76801FE0135967F018E010F5F1F4F1B
:1042F0000E94191969817A818B819C81A6010E9493
:10430000C520A6014A5F5F4F6D817E818F819885B0
:104310000E94C52028960FB6F894DEBF0FBECDBF11
:10432000DF91CF911F910F91FF90EF90DF90CF9091
:1043300008952F923F924F925F926F927F928F9249
:104340009F92AF92BF92CF92DF92EF92FF920F9324
:104350001F93CF93DF93CDB7DEB76B970FB6F8946B
:10436000DEBF0FBECDBF1C015E8B4D8B822E452B59
:1043700009F4CAC180914A06882341F09090010255
:10438000F0900002011113C0F12C14C08091D109EA
:104390009091D2096CE0962E8D3091051CF497FD1A
:1043A00080E0982EF12C002351F0F090CF0929E005
:1043B0002F1550F38CE0891510F45CE0952EAD8933
:1043C000BE894D905D906D907C90810177FE0DC00F
:1043D0000F5F1F4F8DE2F1018083709460945094C1
:1043E0004094411C511C611C711C498A5A8A6B8A79
:1043F0007C8A8FEF8F0D893008F0C9C08F2D90E037
:10440000988F8F8BFC01EE0FFF1FEE0FFF1FEF5AEF
:10441000FC4E2591359145915491C301B2010E9402
:10442000C959B62EE72E6C01698FA72E8A8FDB8EB5
:104430004AE0442E512C612C712CA30192010E9460
:10444000C959605D698B92E0F91264C0205DD801A2
:104450002C9311966C936801F2E0CF0ED11CED897C
:10446000FE899920C1F02601BFEF4B1A5B0A8EE24C
:10447000D6018C9324813581468157816085718571
:1044800082859385BCE09B1201C182010E94632159
:10449000EDE0CE0ED11C882D8F7D09F42CC180E279
:1044A000D6018C9383E611968C93119788E6129629
:1044B0008C93129713968C9213978DE014968C938D
:1044C00014978AE015968C93B6E0CB0ED11C86012A
:1044D00002191309A801B1018AE497E00E94C50EF0
:1044E000C8016B960FB6F894DEBF0FBECDBFDF914B
:1044F000CF911F910F91FF90EF90DF90CF90BF90E1
:10450000AF909F908F907F906F905F904F903F9073
:104510002F90089523E0F2121AC06B2D7E2DC60154
:1045200024E630E040E050E00E94C959205DD80107
:104530002C93A30192010E94C959205DF8012183A7
:1045400029892283680183E0C80ED11C88CFCF88D7
:10455000D88CC00ED11E76012AE0422E512C612C3F
:10456000712C91E0E91AF108698D7A2D8A8D9B8D65
:10457000A30192010E94C959605DD7016C93298FF4
:10458000A32E4A8F5B8F0E151F0559F768CFBAE02F
:104590004B165104610471044CF46801EFEFCE1A1C
:1045A000DE0A80E3840DD8018C9359CF8AE0A82ECF
:1045B000B12CC12CD12CC301B201A60195010E94DE
:1045C000C95990E3F92EF60EB4E64B165104610476
:1045D00071045CF4205DF80120836801F2E0CF0EE5
:1045E000D11CD8011196FC923ACFB8EE4B16B3E02D
:1045F0005B0661047104D0F4C301B20124E630E02B
:1046000040E050E00E94C959205DF8012083A601D6
:1046100095010E94C959205DD80111962C9368011B
:10462000B3E0CB0ED11CF801F28219CFCE01019676
:104630005C01D12CC12C7C019FEFC91AD90A698970
:104640007A898B899C892AE030E040E050E00E9422
:10465000C959605DD5016D935D01298B3A8B4B8BF8
:104660005C8B89899A89AB89BC89892B8A2B8B2B96
:1046700019F7F801C601019730F0D701A80FB91F4B
:104680002C912193F8CFC00ED11EE9CE692C712C4C
:10469000F6E0F91598F0DE011D967D018E010F5FA1
:1046A0001F4F0E94191969817A818B819C81A20117
:1046B0000E94C5206201C60CD71CEDCEFE013D96BE
:1046C0007F018E010F5F1F4F0E94191969817A8146
:1046D0008B819C81A2010E94C520F7E0CF0ED11CE6
:1046E0006D857E858F859889A6010E94C52026E06C
:1046F000621A7108E0CF8DE0F60180838AE0818341
:10470000F2E0CF0ED11CE3CE0FEF1FEFE9CECF9238
:10471000DF92EF92FF920F931F93CF93DF931F923D
:104720001F92CDB7DEB78B01BE016F5F7F4F0E9436
:10473000D6536B017C01E981FA81808181112CC003
:1047400020E030E0A901C701B6010E94B45587FD01
:1047500023C029EA3FE543E658E5C701B6010E94B8
:10476000465A1816CCF0C701B6010E94FA59F80152
:104770002083318342835383648375838683978345
:1047800081E00F900F90DF91CF911F910F91FF90DB
:10479000EF90DF90CF90089580E0F3CFEF92FF92FB
:1047A0000F931F93CF93DF937C018B01D0E0C0E088
:1047B000F80161918F01C7018C0F9D1F0E948959DB
:1047C0002196C430D105A1F784E090E0DF91CF912C
:1047D0001F910F91FF90EF900895CF93DF938CE39B
:1047E00091E10E94DA1D86E492E00E94B11C84E20D
:1047F00091E10E94DA1D0E94A51C60E870E088EC3F
:1048000096E00E94381B88EC96E00E94231E61E728
:1048100072E00E945C5CEC01892BA9F482EF90E1CC
:104820000E94DA1D6FEFCE010E9489592196C115B1
:1048300080E1D807B9F784ED90E10E94DA1D80E0AD
:10484000DF91CF9108958CE091E10E94DA1D81E023
:10485000F7CFEF92FF920F931F93CF93DF937C01DB
:104860008B01D0E0C0E0F80161918F01C7018C0F8E
:104870009D1F0E9489592196C838D105A1F788E863
:1048800090E0DF91CF911F910F91FF90EF900895ED
:10489000CF93DF93CDB7DEB7C858D1090FB6F894E0
:1048A000DEBF0FBECDBF8233B1F08333B9F08133A9
:1048B00009F05AC186ED91E10E94DA1D109293062B
:1048C00080E0C857DF4F0FB6F894DEBF0FBECDBFF4
:1048D000DF91CF9108958BEA91E1EECF8DE089834E
:1048E00041E150E061E272E0CE0102960E946C5C10
:1048F00084E48B8B41E150E06EE276E0CE01449699
:104900000E946C5C1DA21EA280E88FA386E988A786
:1049100088E989A71AA61BA61CA61DA61EA61FA667
:1049200081EE88AB85EF89AB85E08AAB1BAA1CAA18
:104930001DAA1EAA84E190E098AF8FAB85E090E0BD
:104940009AAF89AF1CAE1BAE8BE090E09EAF8DAFEF
:1049500080E58FAF80E092ECA1E0B0E024968CAFD0
:104960009DAFAEAFBFAF249781E427968FAF279757
:1049700082E428968FAF289783E429968FAF2997F2
:104980002A961FAE2A972B961FAE2B972C961FAEFA
:104990002C972D961FAE2D972E961FAE2E972F96E5
:1049A0001FAE2F9760961FAE609761961FAE6197FE
:1049B00062961FAE629763961FAE639764961FAEB2
:1049C000649765961FAE659766961FAE6697679665
:1049D0001FAE679768961FAE689769961FAE699776
:1049E00082E525968FAF259726968FAF269794EC74
:1049F0006A969FAF6A9789E06B968FAF6B976C96BC
:104A00001FAE6C976D961FAE6D976E961FAE6E972C
:104A10006F961FAE6F97A0961FAEA097A1961FAE80
:104A2000A197A2969FAFA297A3968FAFA397A496A4
:104A30001FAEA497A5961FAEA597A6961FAEA697E4
:104A4000A7961FAEA797A8961FAEA897A9961FAEC8
:104A5000A997AA961FAEAA97AB961FAEAB97AC9636
:104A60001FAEAC97AD961FAEAD97AE961FAEAE978C
:104A7000AF961FAEAF97E0961FAEE097E1961FAEE0
:104A8000E197E2961FAEE297E3961FAEE397E496B6
:104A90001FAEE497E5961FAEE597E6961FAEE69744
:104AA000E7961FAEE797E8961FAEE897E9961FAE28
:104AB000E997EA961FAEEA97EB961FAEEB97EC9656
:104AC0001FAEEC97ED961FAEED97EE961FAEEE97EC
:104AD000EF961FAEEF97C158DF4F1882CF57D040E7
:104AE000C058DF4F1882C058D040CF57DF4F1882D0
:104AF000C158D040CE57DF4F1882C258D040CD5752
:104B0000DF4F1882C358D040CC57DF4F1882C458AB
:104B1000D040CB57DF4F1882C558D040CA57DF4F1F
:104B20001882C658D040C957DF4F1882C758D040A6
:104B3000C857DF4F1882C858D04088E8FE01319628
:104B4000A5E9B9E001900D928A95E1F765E979E070
:104B500090E080E00E9429248BE891E10E94DA1D18
:104B600081E080939E06ACCE81E0ABCE1F93CF93C5
:104B7000DF9300D000D01F921F92CDB7DEB7142F65
:104B800065E979E090E080E00E9429241092930684
:104B90008BE990E10E94DA1D1123F1F186E492E0A5
:104BA0000E94B11C8DE790E10E94DA1D88E690E139
:104BB0000E94DA1D81E490E10E94DA1D86E492E011
:104BC0000E94B11C0E94A51C68E070E0CE01019615
:104BD0000E94381BCE0101960E94231E65E772E0F9
:104BE0000E945C5C892B79F481E080939E0610E042
:104BF000812F28960FB6F894DEBF0FBECDBFDF9190
:104C0000CF911F9108958FE190E10E94DA1D86EF08
:104C10009FE00E94DA1DECCF81E080939E06E8CFF2
:104C20002F923F924F925F926F927F928F929F92BC
:104C3000AF92BF92CF92DF92EF92FF920F931F93AA
:104C4000CF93DF93CDB7DEB7C758D1090FB6F8942D
:104C5000DEBF0FBECDBF86E492E00E94B11C40E8EB
:104C600050E09E012F5F3F4F4901B9018CE49BE06A
:104C70000E94C119C4010E94B11C40E850E0B40177
:104C80008AE29BE00E94C11985E9682E89E0782EAE
:104C9000F30126A037A040A451A4F2A5CD57DF4FC1
:104CA000F883C358D040F301F3A5CC57DF4FF88306
:104CB000C458D040F301F4A5CB57DF4FF883C55853
:104CC000D040F301F5A5CA57DF4FF883C658D0404E
:104CD000F40101900020E9F731979F012819390963
:104CE000CF57DF4F39832883C158D04090E4A92E95
:104CF00022E4B22E3FE0C32ED12CE12CF12C00E0B7
:104D000010E09101A201CD57DF4F6881C358D04018
:104D1000CC57DF4F7881C458D040CB57DF4F8881C4
:104D2000C558D040CA57DF4F9881C658D0400E941E
:104D3000F55A5F934F933F932F939101A201CD5763
:104D4000DF4F6881C358D040CC57DF4F7881C458BB
:104D5000D040CB57DF4F8881C558D040CA57DF4F6E
:104D60009881C658D0400E94F75A5F934F933F9363
:104D70002F9387E792E09F938F9340E8442E512C26
:104D8000C201CF57DF4FE881F981C158D0408E1B57
:104D90009F0B9F938F93CF01880D991D9F938F93A6
:104DA0000E947B5CC4010E94B11C40E850E0B40149
:104DB00089E09BE00E94C119F30126A437A4F0A961
:104DC000CF57DF4FF883C158D040F301F1A9CD5739
:104DD000DF4FF883C358D040F301F2A9CC57DF4F1F
:104DE000F883C458D040F301F3A9CB57DF4FF883C1
:104DF000C558D040F301F4A9CA57DF4FF883C6580D
:104E0000D040F301F5A9C957DF4FF883C758D04008
:104E1000F40101900020E9F731973F016818790803
:104E20009101CF57DF4F4881C158D040CD57DF4F58
:104E30005881C358D040CC57DF4F6881C458D04008
:104E4000CB57DF4F7881C558D040CA57DF4F888194
:104E5000C658D040C957DF4F9881C758D0400E94EC
:104E6000F55A5F934F933F932F939101CF57DF4FA5
:104E70004881C158D040CD57DF4F5881C358D040EA
:104E8000CC57DF4F6881C458D040CB57DF4F788173
:104E9000C558D040CA57DF4F8881C658D040C9573F
:104EA000DF4F9881C758D0400E94F75A5F934F93C5
:104EB0003F932F9386E892E09F938F93C2018619C8
:104EC00097099F938F93C401860D971D9F938F938E
:104ED0000E947B5CC4010E94B11C40E850E0B40118
:104EE0008EED9AE00E94C119F40101900020E9F7CB
:104EF0003197CF0188199909E5EEF9E023812F93C5
:104F000022812F9321812F9320812F93EDEDF9E0C2
:104F100023812F9322812F9321812F9320812F93FF
:104F200006E912E01F930F939201281B390B3F9360
:104F30002F93880D991D9F938F930E947B5C0FB6D2
:104F4000F894DEBF0FBECDBFC4010E94B11C40E883
:104F500050E0B4018AEB9AE00E94C119F40101907B
:104F60000020E9F73197CF0188199909E5EFF9E0B9
:104F700023812F9322812F9321812F9320812F939F
:104F8000EDEEF9E023812F9322812F9321812F933E
:104F900020812F931F930F939201281B390B3F936E
:104FA0002F93880D991D9F938F930E947B5CC40162
:104FB0000E94B11C40E850E0B40186E99AE00E94EA
:104FC000C119F40101900020E9F73197CF01881948
:104FD0009909E5E0FAE023812F9322812F93218123
:104FE0002F9320812F93EDEFF9E023812F932281DE
:104FF0002F9321812F9320812F931F930F93920141
:10500000281B390B3F932F93880D991D9F938F93E6
:105010000E947B5CC4010E94B11C40E850E0B401D6
:1050200086E79AE00E94C119F40101900020E9F797
:105030003197CF0188199909E5E1FAE023812F938F
:1050400022812F9321812F9320812F93EDE0FAE08D
:1050500023812F9322812F9321812F9320812F93BE
:105060001F930F93481A590A5F924F92880D991D0A
:105070009F938F930E947B5C0FB6F894DEBF0FBEA8
:10508000CDBFC4010E94B11C86E492E00E94B11C15
:10509000C957DF4F0FB6F894DEBF0FBECDBFDF910B
:1050A000CF911F910F91FF90EF90DF90CF90BF9025
:1050B000AF909F908F907F906F905F904F903F90B8
:1050C0002F900895CF92DF92EF92FF920F931F934C
:1050D000CF93DF93CDB7DEB7C058D1090FB6F894A0
:1050E000DEBF0FBECDBF86E492E00E94B11C40E857
:1050F00050E08E010F5F1F4FB80185E299E00E94DA
:10510000C119C8010E94B11C40E850E0B8018FE00D
:1051100099E00E94C119E091B9096EE379E0E830A5
:1051200038F4F0E0EE0FFF1FE75FFD4F6081718103
:10513000C8010E94465567EB72E0C8010E94465CB8
:10514000C8010E94B11C40E850E0B80188EE98E028
:105150000E94C119E091CF09F091D0091E161F06D7
:105160000CF481C16DE277E08EEC95E00E94515520
:10517000F80101900020E9F73197E01BF10B8EEC6C
:1051800095E09F938F938091D0098F938091CF0961
:105190008F938FE992E09F938F9380E8E82EF12C14
:1051A000C7018E1B9F0B9F938F93E00FF11FFF93FF
:1051B000EF930E947B5CC8010E94B11C40E850E064
:1051C000B80181EC98E00E94C119F801019000201B
:1051D000E9F73197E01BF10B8091D2098F93809111
:1051E000D1098F9385EA92E09F938F93C7018E1B1D
:1051F0009F0B9F938F93E00FF11FFF93EF930E94FC
:105200007B5CC8010E94B11C40E850E0B8018EE907
:1052100098E00E94C119F80101900020E9F7319748
:10522000E01BF10B8091D309282F082E000C330BC3
:105230003F938F9399EAC92E92E0D92EDF92CF92B5
:10524000C7018E1B9F0B9F938F93E00FF11FFF935E
:10525000EF930E947B5CC8010E94B11C40E850E0C3
:10526000B8018FE798E00E94C119F8010190002071
:10527000E9F73197CF01801B910B2091DC09422F78
:10528000022E000C550B5F932F932091DB09422FC8
:10529000022E000C550B5F932F932091DA09422FB9
:1052A000022E000C550B5F932F932DEA32E03F93B3
:1052B0002F939701281B390B3F932F93800F911F3A
:1052C0009F938F930E947B5C0FB6F894DEBF0FBE56
:1052D000CDBFC8010E94B11C40E850E0B8018FE585
:1052E00098E00E94C1198091BA09882309F4EFC09F
:1052F000F80101900020E9F73197E01BF10B282F0E
:10530000082E000C330B3F938F93DF92CF92EE1A4F
:10531000FF0AFF92EF92E00FF11FFF93EF930E94BD
:105320007B5C0FB6F894DEBF0FBECDBFC8010E94F4
:10533000B11C40E850E0B80183E498E00E94C11934
:10534000C8010E94B11C40E850E0B80181E298E039
:105350000E94C119F80101900020E9F73197E01B84
:10536000F10B8091D7098F938091D6098F9380910B
:10537000D5098F938091D4098F9389EB92E09F9305
:105380008F9380E890E08E1B9F0B9F938F93E00F8D
:10539000F11FFF93EF930E947B5CC8010E94B11C38
:1053A00086E492E00E94B11C40E850E0B80188E039
:1053B00098E00E94C119C8010E94B11C40E850E069
:1053C000B80182EF97E00E94C119C8010E94B11C88
:1053D00040E850E0B80188ED97E00E94C119C8018B
:1053E0000E94B11C40E850E0B80182EA97E00E94B8
:1053F000C119C8010E94B11C86E492E00E94B11C50
:1054000040E850E0B80185E897E00E94C119C80162
:105410000E94B11C40E850E0B8018EE597E00E9480
:10542000C119C8010E94B11C40E850E0B80188E3EE
:1054300097E00E94C119C8010E94B11C0FB6F894F0
:10544000DEBF0FBECDBFC058DF4F0FB6F894DEBF32
:105450000FBECDBFDF91CF911F910F91FF90EF90C5
:10546000DF90CF900895EA30F105F4F4EE0FFF1FBE
:10547000EE0FFF1FEB5FF84F85919591A591B491C9
:10548000BF93AF939F938F938DEE96E09F938F93EF
:105490008EEC95E09F938F930E9484550FB6F894FD
:1054A000DEBF0FBECDBF64CEFF93EF9384ED96E0D9
:1054B0009F938F938EEC95E09F938F930E948455DA
:1054C0000F900F900F900F900F900F9051CE69E5B5
:1054D00078E0C8010E94465529CF0E94622881E0E9
:1054E00008952F923F924F925F926F927F928F9288
:1054F0009F92AF92BF92CF92DF92EF92FF920F9363
:105500001F93CF93DF93CDB7DEB762970FB6F894B2
:10551000DEBF0FBECDBFFC01892BD1F480E06296C7
:105520000FB6F894DEBF0FBECDBFDF91CF911F91B4
:105530000F91FF90EF90DF90CF90BF90AF909F9032
:105540008F907F906F905F904F903F902F90089535
:10555000E114F10411F0D7011C92DF010D9000203D
:10556000E9F711974D018E1A9F0AB2E08B1691044C
:1055700099F480818F3281F08181803269F081E0FD
:10558000D9018C93DB018C938081DA018C9381812A
:10559000F801808381E0C3CF2601180159015A8B9D
:1055A000498B3B018F016FE270E0CF010E94515C9B
:1055B0006C01892BC9F460E270E0C8010E94515C63
:1055C0006C01892B89F48A94892809F0A7CF81E09E
:1055D000D5018C93F3018083D8018C91F1018083F4
:1055E000A989BA898C93D6CF0C151D0509F497C0EB
:1055F0004601801A910AB0E18B16910418F09FE0E1
:10560000892E912CA401B801CE0101960E943D5C27
:10561000E1E0F0E0EC0FFD1FE80DF91D1082CE0176
:1056200001960E94231EFC0101900020E9F79F01D2
:10563000225031092817390709F071C0DC018C911B
:10564000E989FA89808381E0D3018C93D601119690
:105650008C91882309F489C0BFEFCB1ADB0A6FE273
:1056600070E0C6010E94515C8C01009709F460C093
:10567000E114F10409F45CC04114510409F458C068
:105680004C018C189D08E0E18E16910418F08FE013
:10569000882E912CA401B601CE0101960E943D5C9A
:1056A000E1E0F0E0EC0FFD1FE80DF91D1082CE01E6
:1056B00001960E94231EDC010D900020E9F79D0158
:1056C000225031092817390769F5FC018081D10181
:1056D0008C9381E0F5018083F8018181882329F191
:1056E000B8016F5F7F4F40E150E0CE0101960E940C
:1056F0007055CE0101960E94231EDC010D90002002
:10570000E9F79D01225031092817390771F4FC018E
:105710008081D2018C9381E0F701808300CFF30177
:10572000108294CFD5011C92D7CFD7011C9232CFD3
:1057300040E150E0B601CE0101960E947055CE01C5
:1057400001960E94231EFC0101900020E9F79F01B1
:10575000225031092817390741F4DC018C91F101FD
:10576000808381E0D5018C93DACEF501108212CFCF
:105770002F923F924F925F926F927F928F929F9261
:10578000AF92BF92CF92DF92EF92FF920F931F934F
:10579000CF93DF93CDB7DEB7CF5BD1090FB6F894C7
:1057A000DEBF0FBECDBF5B01942E790130E020E05B
:1057B0000217130709F49DC2F7019491A701435DF5
:1057C0005F4F891721F02F5F3F4F7A01F1CFE1142E
:1057D000F10409F48EC23196149134964590559097
:1057E00065907490F7013D962591359145915491BE
:1057F000CF55DF4F288339834A835B83C15AD0401A
:10580000F701B396E491F701B596459155916591ED
:105810007491F7013396C590D490F701B1968591B4
:105820009491153009F02FC1F7017D9685919491DF
:1058300039E0893B930709F097C01091B90940936B
:10584000B909141325C041E0CF55DF4F4883C15A31
:10585000D040CF55DF4F8881C15AD040C154DF4F6F
:105860000FB6F894DEBF0FBECDBFDF91CF911F9171
:105870000F91FF90EF90DF90CF90BF90AF909F90EF
:105880008F907F906F905F904F903F902F900895F2
:1058900081E0809393061092C80688EC96E02396E8
:1058A0009FAF8EAF239780E890E09A83898344EF7F
:1058B00055E0BE016F5F7F4FCE018F5B9F4F0E940F
:1058C0007A1AE091B9094EE359E0E83038F4F0E093
:1058D000EE0FFF1FE75FFD4F40815181BE016F5FFB
:1058E0007F4FCE018F5B9F4F0E947A1A88EC96E023
:1058F0000E94B11C992009F4C3C086E492E00E9482
:10590000B11C83EE95E00E94DA1D8FEC95E00E94B9
:10591000DA1D0E94A51C60E870E088EC96E00E9409
:10592000381B88EC96E00E94231EDC012C91223368
:1059300009F0A6C0FC0101900020E9F79F01225068
:1059400031092817390709F09BC01093B909109243
:1059500093068CEB95E00E94DA1DF1E0CF55DF4F06
:10596000F883C15AD04075CF845D994009F06BCF60
:10597000C090D409D090D509E090D609F090D7090D
:105980004093D4095093D5096093D6097093D709F1
:105990004C155D056E057F0509F455CF81E08093B8
:1059A00093061092C80688EC96E023969FAF8EAFC0
:1059B000239780E890E09A83898349E955E0BE0106
:1059C0006F5F7F4FCE018F5B9F4F0E947A1AA701B6
:1059D0009601BE016F5F7F4FCE018F5B9F4F0E948C
:1059E000021A42E955E0BE016F5F7F4FCE018F5B27
:1059F0009F4F0E947A1A2091D4093091D509409185
:105A0000D6095091D709BE016F5F7F4FCE018F5BE2
:105A10009F4F0E94021A88EC96E00E94B11C9920C8
:105A200079F186E492E00E94B11C83EE95E00E9439
:105A3000DA1D8FEC95E00E94DA1D0E94A51C60E83B
:105A400070E088EC96E00E94381B88EC96E00E949B
:105A5000231EDC012C91223399F4FC0101900020DB
:105A6000E9F79F01225031092817390749F4C092FC
:105A7000D409D092D509E092D609F092D70967CF20
:105A80008EEA95E068CFA114B10421F0D5018C9184
:105A9000811129C087E492E00E94A31CF601849141
:105AA000FFEFCF1ADF0A882331F0082E000C990B84
:105AB0000E947B10F3CF8AE497E00E94851060E893
:105AC00070E088EC96E00E94381B88EC96E00E941B
:105AD000231E5C01DC018C91882309F4B4CEA1144F
