:1000000053C100000C94FC0B0C94D10B0C94A60B68
:100010000C947B0B0C94500B0C94250B0C94FA0A4B
:100020000C94CF0A0C945A0A0C94EB090C947509A1
:100030006CC100006AC1000068C1000066C1000018
:1000400064C1000062C1000060C100005EC1000028
:100050005CC100005AC1000058C10000A9C40000E2
:1000600054C1000060C3000035C300004EC1000051
:100070004CC100004AC1000048C1000046C1000058
:1000800044C1000042C1000040C100003EC1000068
:100090003CC100003AC1000038C1000036C1000078
:1000A00034C1000032C1000030C100002EC1000088
:1000B0002CC100002AC1000028C1000026C1000098
:1000C00024C1000022C1000020C100001EC10000A8
:1000D0001CC100001AC1000018C1000016C10000B8
:1000E00014C10000E6183B1BF41A8D1BE01B981787
:1000F000461D461D461D461D5017461D461D0B1A22
:10010000461D511CB617641A461D461D221D291D89
:10011000D91A4B1DC302C602B502B902BF02FD02C5
:10012000CA02CE02D402D802DC02E202E602EA02ED
:10013000FD02F002F402F802000021002400270072
:100140002A002D00300033000101000004010701E6
:100150000A010102102020080810204010204080D1
:10016000020102010804020101020408102040807B
:100170008040201008040201800402018040201009
:100180000804020108040201010204081020408052
:100190000102040810204080050505050705080830
:1001A0000808020202020A0A080804040404010101
:1001B0000101010101010303030303030303040716
:1001C00007070C0C0C0C0C0C0C0C020202020606AD
:1001D0000606060606060B0B0B0B0B0B0B0B0001A2
:1001E00004050503030405060405060701000100D4
:1001F00003020100000102030405060707060504C7
:1002000003020100070201000706050403020100C2
:1002100003020100000102030405060700010203B6
:100220000405060702030405060607000022002550
:100230000028002B002E00310034000201000005D0
:100240000108010B01000020002300260029002CDA
:10025000002F003200000100000301060109010027
:10026000000A0B02090C0D0E080703040100000030
:10027000000000000000000000000000000000007E
:10028000000000000000000000000012111000003B
:10029000000000000000000000000000000000005E
:1002A000000000000000EF2711241FBECFEFD1E2B5
:1002B000DEBFCDBF00E00CBF20E1A4E8BDE001C07F
:1002C0001D92AC3AB207E1F71DE0A0E0B2E0EEE823
:1002D000FBE500E00BBF02C007900D92A438B10708
:1002E000D9F711E0C4E5D1E000E006C0219701098B
:1002F000802FFE010E949928C335D10780E00807AE
:10030000A9F70E9470110C94C52D7ACECF92DF927E
:10031000EF92FF920F931F93CF93DF936C017A01BB
:100320008B01C0E0D0E0CE15DF0589F0D8016D91DA
:100330008D01D601ED91FC910190F081E02DC60177
:100340001995892B11F47E0102C02196ECCFC701CB
:10035000DF91CF911F910F91FF90EF90DF90CF90A1
:100360000895FC01918D828D981761F0828DDF01D7
:10037000A80FB11D5D968C91928D9F5F9F73928F98
:1003800090E008958FEF9FEF0895FC01918D828D8D
:10039000981731F0828DE80FF11D858D90E008955A
:1003A0008FEF9FEF0895FC01918D228D892F90E0B2
:1003B000805C9F4F821B91098F739927089588EA6B
:1003C0009EE0F1DF21E0892B09F420E0822F0895DF
:1003D000FC01848DDF01A80FB11DA35ABF4F2C91E2
:1003E000848D90E001968F739927848FA689B789B1
:1003F0002C93A089B1898C9180648C93938D848D8A
:10040000981306C00288F389E02D80818F7D808358
:100410000895EF92FF920F931F93CF93DF93EC0118
:1004200081E0888F9B8D8C8D981305C0E889F989B0
:10043000808185FD23C0F62E0B8D10E00F5F1F4FCE
:100440000F731127E02E8C8DE8120BC00FB607FC3E
:10045000FACFE889F989808185FFF5CFCE01B8DF31
:10046000F2CF8B8DFE01E80FF11DE35AFF4FF082B2
:100470000B8FEA89FB898081806207C0EE89FF8942
:100480006083E889F98980818064808381E090E0DD
:10049000DF91CF911F910F91FF90EF900895CF932F
:1004A000DF93EC01888D8823C1F0EA89FB89808184
:1004B00085FD05C0A889B9898C9186FD0EC00FB64F
:1004C00007FCF5CF808185FFF2CFA889B9898C918F
:1004D00085FFEDCFCE017CDFE8CFDF91CF9108958E
:1004E00080E090E0892B19F06ADF811125C080E05F
:1004F00090E0892B41F080E090E0892B21F00E9470
:10050000000081111CC080E090E0892B41F080E068
:1005100090E0892B21F00E940000811113C080E03F
:1005200090E0892BA1F080E090E0892B81F00E947F
:10053000000081110AC008950E940000D8CF0E94D7
:100540000000E1CF0E940000EACF0C940000089563
:1005500090E0FC013197E231F10508F04EC08827A8
:10056000E657FF4F8F4F0C949928809180008F772A
:1005700003C0809180008F7D8093800008958091DA
:100580008000877FF9CF84B58F7702C084B58F7DD7
:1005900084BD08958091B0008F7703C08091B00032
:1005A0008F7D8093B0000895809190008F7707C071
:1005B000809190008F7D03C080919000877F809311
:1005C000900008958091A0008F7707C08091A000CF
:1005D0008F7D03C08091A000877F8093A000089545
:1005E000809120018F7707C0809120018F7D03C00B
:1005F00080912001877F8093200108958FB7F89420
:100600008091100E8FBF08958EBD00000DB407FEBF
:10061000FDCF8EB508958CBD9DBD08957091840D5C
:100620006091850D5091860D4091870D3091880D18
:100630002091890D90918A0D80918B0DE5ECFFE062
:1006400070836183528343833483258396838783B6
:1006500008957091840D6091850D5091860D4091A3
:10066000870D3091880D2091890D90918A0D809190
:100670008B0DE5E4FFE073876487558746873787EE
:10068000208B918B828B08952091840D3091850D64
:100690004091860D5091870D6091880D7091890D64
:1006A00080918A0D90918B0DA1E00E94E429209306
:1006B000840D3093850D4093860D5093870D609384
:1006C000880D7093890D80938A0D90938B0D0895FA
:1006D0000E940E2A1F920F920FB60F9211240BB692
:1006E0000F922F933F934F935F936F937F938F93CB
:1006F0009F93AF93BF93EF93FF9388EA9EE068DEEA
:10070000FF91EF91BF91AF919F918F917F916F91E9
:100710005F914F913F912F910F900BBE0F900FBEA5
:100720000F901F9018951F920F920FB60F921124E1
:100730000BB60F922F938F939F93EF93FF93E091BC
:10074000B80EF091B90E8081E091BE0EF091BF0E0F
:1007500082FD12C090818091C10E8F5F8F732091B6
:10076000C20E821751F0E091C10EF0E0E855F14F52
:10077000958F8093C10E01C08081FF91EF919F9171
:100780008F912F910F900BBE0F900FBE0F901F9067
:100790001895CF93DF93282F30E0F901E15AFD4FF0
:1007A0008491F901EE5AFE4FD491F901E856FE4FBB
:1007B000C491CC2389F08111CBDEEC2FF0E0EE0F59
:1007C000FF1FEB5BFD4FA591B491EC91ED2381E010
:1007D00090E021F480E002C080E090E0DF91CF91D2
:1007E00008951F93CF93DF93282F30E0F901E15A4A
:1007F000FD4F8491F901EE5AFE4FD491F901E8566C
:10080000FE4FC491CC23C1F0162F8111A1DEEC2F35
:10081000F0E0EE0FFF1FE55DFD4FA591B4918FB79E
:10082000F894111105C09C91ED2FE095E92302C0C9
:10083000EC91ED2BEC938FBFDF91CF911F91089539
:10084000CF93DF9390E0FC01EE5AFE4F2491FC0120
:10085000E856FE4F8491882361F190E0880F991F3C
:10086000FC01E85CFE4FC591D491FC01E55DFD4FB4
:10087000A591B491611109C09FB7F8948881209522
:1008800082238883EC912E230BC0623061F49FB7E2
:10089000F8943881822F809583238883EC912E2BC6
:1008A0002C939FBF06C08FB7F894E8812E2B288326
:1008B0008FBFDF91CF910895863308F086539091D2
:1008C0007B00282F2870977F922B90937B00877056
:1008D000806480937C0080917A00806480937A00A9
:1008E00080917A0086FDFCCF80917800209179007C
:1008F00090E0922B08953FB7F8948091160E909156
:10090000170EA091180EB091190E26B5A89B05C020
:100910002F3F19F00196A11DB11D3FBFBA2FA92F7E
:10092000982F8827820F911DA11DB11DBC01CD01FB
:1009300042E0660F771F881F991F4A95D1F70895E7
:100940008F929F92AF92BF92CF92DF92EF92FF92DF
:100950006B017C01D0DF4B015C01C114D104E104C7
:10096000F104E9F0C8DFDC01CB0188199909AA0973
:10097000BB09883E9340A105B10578F321E0C21A76
:10098000D108E108F10888EE880E83E0981EA11CCA
:10099000B11CC114D104E104F10421F7DECFFF90B2
:1009A000EF90DF90CF90BF90AF909F908F90089581
:1009B0001F920F920FB60F9211242F933F938F9394
:1009C0009F93AF93BF938091120E9091130EA091BD
:1009D000140EB091150E3091110E23E0230F2D3718
:1009E00020F40196A11DB11D05C026E8230F029633
:1009F000A11DB11D2093110E8093120E9093130E22
:100A0000A093140EB093150E8091160E9091170EB0
:100A1000A091180EB091190E0196A11DB11D8093E1
:100A2000160E9093170EA093180EB093190EBF9147
:100A3000AF919F918F913F912F910F900FBE0F908B
:100A40001F901895FF920F931F93CF93DF931F92E0
:100A5000CDB7DEB78C01F62E80E591E04983DBDD72
:100A600060E0F8018781BDDE8F2D8064498150E010
:100A7000582B0CB405FC0CC05EBD00000DB407FE85
:100A8000FDCF8EB54EBD00000DB407FEFDCF0BC0EF
:100A90004EBD00000DB407FEFDCF8EB55EBD00005B
:100AA0000DB407FEFDCF8EB561E0F80187810F9090
:100AB000DF91CF911F910F91FF9093CE0F931F93D2
:100AC000CF93DF938C01C62F80E591E0A4DD60E039
:100AD000F801878186DE8C2F8F7196DD80E094DDB2
:100AE00080E092DDC82F80E08FDD6C2F70E0762FE4
:100AF0006627EB01C80FD11D61E0F801878171DE27
:100B00008FE090E00197F1F7BE0180E090E0DF9187
:100B1000CF911F910F9108952F923F924F925F9224
:100B20006F927F928F929F92AF92BF92CF92DF92FD
:100B3000EF92FF920F931F93CF93DF93CDB7DEB762
:100B4000C859D1090FB6F894DEBF0FBECDBFC75745
:100B5000DF4F2883C958D040C657DF4F3883CA5863
:100B6000D040C557DF4F4883CB58D040C457DF4FE4
:100B70005883CC58D040C357DF4F6883CD58D040FE
:100B8000C257DF4F7883CE58D040C157DF4F88839C
:100B9000CF58D040C057DF4F9883C059D040A12CC8
:100BA000E0E1BE2EF5EACF2EA4EDDA2EB8EEEB2E64
:100BB000F12C00E010E00E94F428CF56DF4F28838C
:100BC000C159D040CE56DF4F3883C259D040CD56A0
:100BD000DF4F4883C359D040CC56DF4F5883C459A8
:100BE000D040CB56DF4F6883C559D040CA56DF4F3F
:100BF0007883C659D040C956DF4F8883C759D04043
:100C0000C856DF4F9883C859D0400E94A128590187
:100C10006A017B018C01C757DF4F2881C958D0403A
:100C2000C657DF4F3881CA58D040C557DF4F48817B
:100C3000CB58D040C457DF4F5881CC58D040C35711
:100C4000DF4F6881CD58D040C257DF4F7881CE58F2
:100C5000D040C157DF4F8881CF58D040C057DF4FB9
:100C60009881C059D0400E94F02929013A014B01D6
:100C70001C01A0E00E94022A34F40E947B29290171
:100C80003A014B011C0190E4A92E22E4B22E3FE070
:100C9000C32ED12CE12CF12C00E010E09201A30135
:100CA000B401C1010E94F428CF57DF4F2883C158F7
:100CB000D040CE57DF4F3883C258D040CD57DF4F9A
:100CC0004883C358D040CC57DF4F5883C458D040D6
:100CD000CB57DF4F6883C558D040CA57DF4F788362
:100CE000C658D040C957DF4F8883C758D040C8572F
:100CF000DF4F9883C858D04005E00E94C229CF57E3
:100D0000DF4FA880C158D040CE57DF4FB880C258BF
:100D1000D040CD57DF4FC880C358D040CC57DF4FAD
:100D2000D880C458D040CB57DF4FE880C558D0405A
:100D3000CA57DF4FF880C658D040C957DF4F0881E7
:100D4000C758D040C857DF4F1881C858D0400E94BC
:100D5000F02959016A017B01E82F192F06E00E9452
:100D6000C2290E2F0E94F02903E00E94C229CF570A
:100D7000DF4FA880C158D040CE57DF4FB880C2584F
:100D8000D040CD57DF4FC880C358D040CC57DF4F3D
:100D9000D880C458D040CB57DF4FE880C558D040EA
:100DA000CA57DF4FF880C658D040C957DF4F088177
:100DB000C758D040C857DF4F1881C858D0400E944C
:100DC000DB2906E00E94C22959016A017B018C01DE
:100DD0009201A301B401C1010E94F029722E632E79
:100DE000542E452E362E272EF82EE92EC757DF4FCC
:100DF0002881C958D040C657DF4F3881CA58D040E3
:100E0000C557DF4F4881CB58D040C457DF4F58817A
:100E1000CC58D040C357DF4F6881CD58D040C2571F
:100E2000DF4F7881CE58D040C157DF4F8881CF58EF
:100E3000D040C057DF4F9881C059D040A0E00E94F9
:100E4000022A24F483E79DE00E946511C856DF4F13
:100E50008881C859D0408F93C956DF4F9881C759B0
:100E6000D0409F93CA56DF4F8881C659D0408F9398
:100E7000CB56DF4F9881C559D0409F93CC56DF4F5A
:100E80008881C459D0408F93CD56DF4F9881C35984
:100E9000D0409F93CE56DF4F8881C259D0408F9368
:100EA000CF56DF4F9881C159D0409F9385E79DE091
:100EB0009F938F938E010F5F1F4F1F930F930E947D
:100EC000312AC8010E946511C857DF4F8881C85870
:100ED000D0408F93C957DF4F9881C758D0409F9318
:100EE000CA57DF4F8881C658D0408F93CB57DF4F0A
:100EF0009881C558D0409F93CC57DF4F8881C45804
:100F0000D0408F93CD57DF4F9881C358D0409F93E7
:100F1000CE57DF4F8881C258D0408F93CF57DF4FD5
:100F20009881C158D0409F938AE7882E8DE0982EF3
:100F30009F928F921F930F930E94312AC8010E94A3
:100F40006511EF92FF922F923F924F925F926F92B4
:100F50007F929F928F921F930F930E94312A0FB618
:100F6000F894DEBF0FBECDBFC8010E946511C85600
:100F7000DF4F0FB6F894DEBF0FBECDBFDF91CF912C
:100F80001F910F91FF90EF90DF90CF90BF90AF90A7
:100F90009F908F907F906F905F904F903F902F9099
:100FA0000895EF92FF920F931F93CF93DF937C01ED
:100FB0008B01C0E0D0E0F80161918F01CE018E0D70
:100FC0009F1D0E945A2D2196C430D105A1F784E0BF
:100FD00090E0DF91CF911F910F91FF90EF900895D6
:100FE000EF92FF920F931F93CF93DF938B010C5FD0
:100FF0001F4FEB017C01E61AF70AC7018C0F9D1FFA
:101000000E94522D8993C017D107B9F784E090E070
:10101000DF91CF911F910F91FF90EF900895EF9284
:10102000FF920F931F93CF93DF937C018B01C0E05E
:10103000D0E0F80161918F01CE018E0D9F1D0E94BD
:101040005A2D2196CD36D105A1F78DE690E0DF919E
:10105000CF911F910F91FF90EF9008952F923F92A3
:101060004F925F926F927F928F929F92AF92BF92B8
:10107000CF92DF92EF92FF920F931F93CF93DF9364
:10108000CDB7DEB7C958D1090FB6F894DEBF0FBE91
:10109000CDBF19012A01CF57DF4F6883C158D04017
:1010A000CE57DF4F7883C258D040CD57DF4F88836B
:1010B000C358D040CC57DF4F9883C458D04020E469
:1010C000A22E32E4B32E4FE0C42ED12CE12CF12C11
:1010D00000E010E09101A2010E94F428B22FE32F5A
:1010E000F42FA52F3B014C0105E00E94C229AB2E35
:1010F000BE2ECF2EDA2E730184010E94F0295901F1
:101100006A017B01CB57DF4F8883C558D040192F28
:1011100006E00E94C229CB57DF4F0881C558D04056
:101120000E94F02903E00E94C229AB2EBE2ECF2ED2
:10113000DA2E730184010E94DB2906E00E94C22995
:1011400059016A017B018C019101A201CF57DF4F48
:101150006881C158D040CE57DF4F7881C258D04007
:10116000CD57DF4F8881C358D040CC57DF4F98818F
:10117000C458D0400E94F029AF93FF93EF93BF93E0
:1011800085E79DE09F938F938E010F5F1F4F1F9305
:101190000F93CA57DF4F2883C658D040C957DF4F37
:1011A0003883C758D040C857DF4F4883C858D0400D
:1011B000C757DF4F5883C958D0400E94312AC80111
:1011C0000E946511C757DF4F5881C958D0405F93BF
:1011D000C857DF4F4881C858D0404F93C957DF4F99
:1011E0003881C758D0403F93CA57DF4F2881C6582F
:1011F000D0402F938AE79DE09F938F931F930F9387
:101200000E94312AC8010E9465110FB6F894DEBF12
:101210000FBECDBFC757DF4F0FB6F894DEBF0FBE6E
:10122000CDBFDF91CF911F910F91FF90EF90DF9095
:10123000CF90BF90AF909F908F907F906F905F9076
:101240004F903F902F900895CF9388EA9EE0ABD8BF
:10125000892BD9F388EA9EE084D8C82F9BD48C2FA1
:10126000CF910895CF931092A50E1092A40ECDE0C9
:10127000EBDF2091A40E3091A50E2E37310524F41A
:101280008A3011F08D3091F4C90101969093A50E2A
:101290008093A40EF901EC5DF14FC083FC01EC5D7D
:1012A000F14F1082029724F3CF910895883089F48A
:1012B00080E270D488E06ED48091A40E9091A50E47
:1012C00018161906ACF601979093A50E8093A40EFC
:1012D000CFCFA9014F5F5F4F5093A50E4093A40E4F
:1012E000F901EC5DF14F8083C3CF1F920F920FB6CF
:1012F0000F9211240BB60F922F933F934F935F934E
:101300006F937F938F939F93AF93BF93CF93EF93FD
:10131000FF9320910601C0910F0E90910E0E8091C7
:101320000D0E322F309583239223892B90916D00DF
:10133000C227C923C82320930F0ECC23C1F1C0FFBD
:1013400005C0E091FD0DF091FE0D1995C1FF05C09E
:10135000E091FF0DF091000E1995C2FF05C0E091DC
:10136000010EF091020E1995C3FF05C0E091030E26
:10137000F091040E1995C4FF05C0E091050EF0919F
:10138000060E1995C5FF05C0E091070EF091080EF5
:101390001995C6FF05C0E091090EF0910A0E199546
:1013A000C7FF05C0E0910B0EF0910C0E1995FF914F
:1013B000EF91CF91BF91AF919F918F917F916F915D
:1013C0005F914F913F912F910F900BBE0F900FBEE9
:1013D0000F901F9018951F920F920FB60F92112425
:1013E0000BB60F922F933F934F935F936F937F931F
:1013F0008F939F93AF93BF93CF93EF93FF932091DE
:101400000301C091FC0D9091FB0D8091FA0D322FDC
:10141000309583239223892B9091F90DC227C923FC
:10142000C8232093FC0DCC2389F1C0FF05C0E091B7
:10143000EB0DF091EC0D1995C1FF05C0E091ED0D9C
:10144000F091EE0D1995C2FF05C0E091EF0DF091FE
:10145000F00D1995C3FF05C0E091F10DF091F20D6B
:101460001995C4FF05C0E091F30DF091F40D1995A5
:10147000C5FF05C0E091F50DF091F60D1995C6FF79
:1014800005C0E091F70DF091F80D1995FF91EF91DE
:10149000CF91BF91AF919F918F917F916F915F910C
:1014A0004F913F912F910F900BBE0F900FBE0F9059
:1014B0001F9018951F920F920FB60F9211240BB622
:1014C0000F922F933F934F935F936F937F938F93DD
:1014D0009F93AF93BF93CF93EF93FF9323B1C091AB
:1014E000EA0D9091E90D8091E80D322F309583231C
:1014F0009223892B90916B00C227C923C823209384
:10150000EA0DCC23C1F1C0FF05C0E091D80DF091E8
:10151000D90D1995C1FF05C0E091DA0DF091DB0DF1
:101520001995C2FF05C0E091DC0DF091DD0D199514
:10153000C3FF05C0E091DE0DF091DF0D1995C4FFEA
:1015400005C0E091E00DF091E10D1995C5FF05C0D2
:10155000E091E20DF091E30D1995C6FF05C0E09111
:10156000E40DF091E50D1995C7FF05C0E091E60D7A
:10157000F091E70D1995FF91EF91CF91BF91AF9148
:101580009F918F917F916F915F914F913F912F919B
:101590000F900BBE0F900FBE0F901F9018951F92CB
:1015A0000F920FB60F9211240BB60F922F933F9309
:1015B0004F935F936F937F938F939F93AF93BF935B
:1015C000EF93FF93E091D60DF091D70D1995FF9110
:1015D000EF91BF91AF919F918F917F916F915F91AB
:1015E0004F913F912F910F900BBE0F900FBE0F9018
:1015F0001F9018951F920F920FB60F9211240BB6E1
:101600000F922F933F934F935F936F937F938F939B
:101610009F93AF93BF93EF93FF93E091D40DF0911D
:10162000D50D1995FF91EF91BF91AF919F918F913A
:101630007F916F915F914F913F912F910F900BBED2
:101640000F900FBE0F901F9018951F920F920FB61C
:101650000F9211240BB60F922F933F934F935F93EA
:101660006F937F938F939F93AF93BF93EF93FF936A
:10167000E091D20DF091D30D1995FF91EF91BF91AB
:10168000AF919F918F917F916F915F914F913F911A
:101690002F910F900BBE0F900FBE0F901F901895BB
:1016A0001F920F920FB60F9211240BB60F922F9329
:1016B0003F934F935F936F937F938F939F93AF93DA
:1016C000BF93EF93FF93E091D00DF091D10D199559
:1016D000FF91EF91BF91AF919F918F917F916F910A
:1016E0005F914F913F912F910F900BBE0F900FBEC6
:1016F0000F901F9018951F920F920FB60F92112402
:101700000BB60F922F933F934F935F936F937F93FB
:101710008F939F93AF93BF93EF93FF93E091CE0D81
:10172000F091CF0D1995FF91EF91BF91AF919F91DE
:101730008F917F916F915F914F913F912F910F907A
:101740000BBE0F900FBE0F901F9018951F920F9217
:101750000FB60F9211240BB60F922F933F934F9316
:101760005F936F937F938F939F93AF93BF93EF9309
:10177000FF93E091CC0DF091CD0D1995FF91EF9174
:10178000BF91AF919F918F917F916F915F914F9199
:101790003F912F910F900BBE0F900FBE0F901F9097
:1017A00018951F920F920FB60F9211240BB60F923D
:1017B0002F933F934F935F936F937F938F939F9359
:1017C000AF93BF93EF93FF93E091CA0DF091CB0DD0
:1017D0001995FF91EF91BF91AF919F918F917F915B
:1017E0006F915F914F913F912F910F900BBE0F9092
:1017F0000FBE0F901F9018951F920F920FB60F9269
:1018000011240BB60F922F933F934F935F936F93D7
:101810007F938F939F93AF93BF93EF93FF93E09149
:10182000C80DF091C90D1995FF91EF91BF91AF913E
:101830009F918F917F916F915F914F913F912F91E8
:101840000F900BBE0F900FBE0F901F901895542F46
:101850008F779EEF980F923008F4B6C095EB980FF3
:10186000923008F4B1C09EEE980F943008F4ACC0EA
:10187000282F30E0F901863438F0E45BFE4F849184
:10188000433009F063C115C0EE5AFE4F8491F9014F
:10189000E856FE4F9491433011F04130B9F4923044
:1018A00031F44091E90D482B4093E90D0FC09A3077
:1018B00031F49091FB0D982B9093FB0D4AC19B3016
:1018C00029F440910E0E482B40930E0E4FEF450F1A
:1018D0004230B8F4923031F44091E80D482B4093F7
:1018E000E80D0FC09A3031F44091FA0D482B409327
:1018F000FA0D07C09B3029F440910D0E482B409300
:101900000D0EF901E252FE4FA4919230C1F4B0E005
:10191000AA0FBB1FA852B24F6D937C93E9E4F2E08B
:10192000A591B4919C919093EA0D2BE630E0309311
:10193000C70D2093C60D9091680091603BC09A300E
:1019400001F5B0E0AA0FBB1FA551B24F6D937C9378
:10195000E9E5F2E0A591B4919C919093FC0D2CE601
:1019600030E03093C70D2093C60D909168009260CF
:10197000909368009091F90D982B9093F90D880F32
:101980001BC09B30C9F4B0E0AA0FBB1FA350B24FDD
:101990006D937C93EBE5F2E0A591B4919C919093CB
:1019A0000F0E2DE630E03093C70D2093C60D9091B9
:1019B0006800946090936800A091C60DB091C70D27
:1019C000EC918E2B8C9308959FB7F894833109F492
:1019D00064C0E0F4833009F48CC0823109F473C030
:1019E000823009F0B1C07093D10D6093D00DEC98A6
:1019F00080916A008C7F80936A0080916A00452FF5
:101A0000482B40936A00E49AEC9A9EC08531E9F035
:101A100070F18B3409F483C08C3409F095C0709355
:101A2000D70D6093D60DEF9880916A008F738093E5
:101A30006A0080916A0020E4529FA0011124482B83
:101A400040936A00E79AEF9A7FC07093C90D609344
:101A5000C80DE898809169008C7F8093690040915F
:101A60006900452B40936900E09AE89A6DC0709335
:101A7000CB0D6093CA0DE99880916900837F8093B4
:101A800069008091690024E0529FA0011124482B35
:101A900040936900E19AE99A57C07093CD0D609325
:101AA000CC0DEA98809169008F7C809369008091C9
:101AB000690020E1529FA0011124482B4093690046
:101AC000E29AEA9A41C07093CF0D6093CE0DEB98E5
:101AD000809169008F73809369008091690020E490
:101AE000529FA0011124482B40936900E39AEB9A7E
:101AF0002BC07093D30D6093D20DED9880916A0046
:101B0000837F80936A0080916A0024E0529FA00145
:101B10001124482B40936A00E59AED9A15C0709302
:101B2000D50D6093D40DEE9880916A008F7C8093E0
:101B30006A0080916A0020E1529FA0011124482B85
:101B400040936A00E69AEE9A9FBF0895413009F4E7
:101B5000B0CE9AE0BBCE009769F0FC010190002066
:101B6000E9F73197AF01481B590BBC0188EA9EE0A9
:101B70000C94860180E090E0089580E89DE0EBCF32
:101B8000CF93DF93E8DFEC01F8DF8C0F9D1FDF912F
:101B9000CF910895E091A80EF091A90E0190F081E7
:101BA000E02D682F88EA9EE019948091A60E90910E
:101BB000A70E2091A40E3091A50E82179307ACF4C6
:101BC000FC01EC5DF14F8081E5DF8091A60E9091E4
:101BD000A70E9C012F5F3F4F3093A70E2093A60EB8
:101BE000FC01EC5DF14F808108952ECB2F923F9246
:101BF0004F925F926F927F928F929F92AF92BF921D
:101C0000CF92DF92EF92FF920F931F93CF93DF93C8
:101C1000CDB7DEB72E970FB6F894DEBF0FBECDBF9F
:101C20009A8389831092A4101092A5101092A61086
:101C30001092A7101092A8101092A9101092AA103A
:101C40001092AB1010929C1010929D1010929E104A
:101C500010929F101092A0101092A1101092A2103A
:101C60001092A31010921C0E10921D0E10921E0EB8
:101C700010921F0E1092200E1092210E1092220E22
:101C80001092230E81E080930002109201021092C4
:101C900002021092030210920402109205021092A6
:101CA00006021092070210921B0E10921A0E7DDF90
:101CB000182F082E000C990B0E94122A892BB9F7B5
:101CC0001B3219F472DF182F09C01D3239F46DDF91
:101CD000182F81E090E09C878B8702C01C861B86B2
:101CE000EE24E394F12C103339F45FDF182FF092D7
:101CF0001B0EE0921A0EF7CF812F012E000C990BCC
:101D0000C0970A9708F057C022242394312CE12F62
:101D1000012E000CFF0BF097EA30F10508F048C0E7
:101D200030921B0E20921A0E2091A4103091A51013
:101D30004091A6105091A7106091A8107091A91021
:101D40008091AA109091AB1001E00E94C229290154
:101D50003A014B01B82FA92F02E00E94C229590174
:101D60006A017B018C019201A301B4018B2F9A2F90
:101D70000E94DB291F2F110F110B5F01C12ED12EE5
:101D8000E12EF12E012F0E94DB292093A410309325
:101D9000A5104093A6105093A7106093A8107093BD
:101DA000A9108093AA109093AB10FFDE182FAFCF2D
:101DB0001E861D8610C01E3299F4F7DE182F1E866F
:101DC0001D86103341F4AD85BE851197BE87AD8762
:101DD000ECDE182FF6CF1E3229F4E7DE182F02C0F2
:101DE0001E861D8688248394912CE12F012E000CE1
:101DF000FF0BF097EA30F10508F04DC090921B0EF2
:101E000080921A0E2091A4103091A5104091A61036
:101E10005091A7106091A8107091A9108091AA10FC
:101E20009091AB1001E00E94C22919012A013B01E7
:101E3000B82FA92F02E00E94C22959016A017B0133
:101E40008C019101A201B3018B2F9A2F0E94DB29F3
:101E50001F2F110F110B5F01C12ED12EE12EF12E7C
:101E6000012F0E94DB292093A4103093A5104093EA
:101E7000A6105093A7106093A8107093A910809398
:101E8000AA109093AB10ED85FE853197FE87ED8704
:101E90008CDE182FAACF1F7D153489F586DE8B3294
:101EA00011F483DE06C08D3221F47FDE01E010E004
:101EB00002C000E010E0803311F477DEFCCFE12CAB
:101EC000F12C9AE0D92E082E000C990BC0978A307D
:101ED000910550F4DE9C9001DF9C300D11247901B6
:101EE000E80EF91E62DEEFCF012B19F0F194E194B8
:101EF000F1088D859E858E0D9F1D9E878D87809113
:101F00001A0E90911B0E892B09F455C18090A410D4
:101F10009090A5109091A6109B83A091A710AC83E0
:101F2000B091A810BD83E091A910EE836090AA1033
:101F30007090AB1080929C1090929D1090939E1088
:101F4000A0939F10B093A010E093A1106092A210F4
:101F50007092A3108D859E8597FF8CC030900002F3
:101F600020900102909102029F83A0910302A88712
:101F7000B0910402B987E0910502EA875090060209
:101F800040900702232D322D4F81588569857A852F
:101F9000852D942D01E00E94C22919012A01B62F36
:101FA000A72FF82FE92F02E00E94C22959016A01E8
:101FB0007B018C019101A2016B2F7A2F8F2F9E2F15
:101FC0000E94DB29322E232E4F83588769877A8718
:101FD000582E492E8D859E8501969E878D87892B4B
:101FE00089F630920002209201024093020250933F
:101FF000030260930402709305025092060240921D
:102000000702A32CB22CC42ED52EE62EF72E052DBA
:10201000142D94014B815C816D817E81C3010E94EE
:10202000F22820931C0E30931D0E40931E0E5093E9
:102030001F0E6093200E7093210E8093220E9093BA
:10204000230E94014B815C816D817E81C3010E94CE
:10205000F42820939C1030939D1040939E10509331
:102060009F106093A0107093A1108093A210909382
:10207000A3103EC08D859E85892BD1F1E0E0F0E074
:1020800094014B815C816D817E81C30101E00E94DE
:10209000C22929013A014B01B82FA92F02E00E9461
:1020A000C22959016A017B018C019201A301B4018B
:1020B0008B2F9A2F0E94DB2949014B835C836D8310
:1020C0007E833C013196AD85BE85EA17FB07C1F6DC
:1020D00020939C1090929D1040939E1050939F10BF
:1020E0006093A0107093A1106092A2107092A31040
:1020F000AB85BC85AB2B09F444C020919C1030917A
:102100009D1040919E1050919F106091A010709171
:10211000A1108091A2109091A3100E947B2920937E
:102120009C1030939D1040939E1050939F1060938D
:10213000A0107093A1108093A2109093A3102091EF
:102140001C0E30911D0E40911E0E50911F0E60917D
:10215000200E7091210E8091220E9091230E0E94EC
:102160007B2920931C0E30931D0E40931E0E50931E
:102170001F0E6093200E7093210E8093220E909379
:10218000230E80919C10E981FA81808380919D10BB
:10219000818380919E10828380919F1083838091A0
:1021A000A01084838091A11085838091A2108683E2
:1021B0008091A31087832E960FB6F894DEBF0FBED2
:1021C000CDBFDF91CF911F910F91FF90EF90DF90E6
:1021D000CF90BF90AF909F908F907F906F905F90C7
:1021E0004F903F902F9008958F929F92AF92BF9201
:1021F0000F931F93CF93DF93CDB7DEB7A1970FB6A1
:10220000F894DEBF0FBECDBF19A2423008F44AE0F9
:102210008E010F5D1F4F842E912CA12CB12CA50196
:1022200094010E94942DE62FB901CA0101501109B1
:10223000EA3014F4E05D01C0E95CD801EC93232B93
:10224000242B252B61F7C80186DCA1960FB6F894E4
:10225000DEBF0FBECDBFDF91CF911F910F91BF9019
:10226000AF909F908F900895CF92DF92EF92FF9260
:10227000CF93DF9397FF17C06B017C018DE28ADC5F
:10228000EC0166277727CB016C197D098E099F0920
:102290004AE0AADF8C0F9D1FDF91CF91FF90EF9056
:1022A000DF90CF9008954AE0DF91CF91FF90EF90BB
:1022B000DF90CF9099CFCF93DF93D6DFEC015DDC39
:1022C0008C0F9D1FDF91CF91089545CCCF93DF9365
:1022D00061DCEC0152DC8C0F9D1FDF91CF910895E2
:1022E000CF93DF93CDB7DEB7CD51D1400FB6F89481
:1022F000DEBF0FBECDBF789484B5826084BD84B547
:10230000816084BD85B5826085BD85B5816085BDF0
:1023100080916E00816080936E00109281008091A8
:102320008100826080938100809181008160809330
:102330008100809180008160809380008091B10055
:1023400084608093B1008091B00081608093B00080
:1023500080919100826080939100809191008160D2
:102360008093910080919000816080939000809193
:10237000A10082608093A1008091A1008160809380
:10238000A1008091A00081608093A0008091210134
:1023900082608093210180912101816080932101DD
:1023A0008091200181608093200180917A00846077
:1023B00080937A0080917A00826080937A00809185
:1023C0007A00816080937A0080917A00806880939F
:1023D0007A001092C10060E082E10E94200461E076
:1023E0008CE00E94200461E08DE00E94200461E006
:1023F00082E40E94200461E083E40E942004809132
:1024000008018064809308018091080180618093B5
:10241000080180910801806880930801809108017B
:102420008062809308018091080188608093080190
:10243000E091B80EF091B90E82E08083E091B40E85
:10244000F091B50E1082E091B60EF091B70E80E1DA
:1024500080831092C00EE091BC0EF091BD0E86E01C
:102460008083E091BA0EF091BB0E80818061808301
:10247000E091BA0EF091BB0E808188608083E0917C
:10248000BA0EF091BB0E808180688083E091BA0E15
:10249000F091BB0E80818F7D80831FB7F89480916F
:1024A0008C0D811127C0EDECF1E08491E7E8F1E0BB
:1024B0009491E82FF0E0EE0FFF1FE85CFE4FA5912E
:1024C000B491EC91E92321F461E085E30E94F103EA
:1024D00061E085E30E9420048CB580618CBD8CB5E1
:1024E00080648CBD61E084E30E94200461E083E3AA
:1024F0000E94200480918C0D8F5F80938C0D1FBFF4
:10250000BE0162597F4F80EF9FE00E94F0078E016D
:102510000F5F1F4FB80184EF9FE00E94F007E29623
:102520008CAD9DADAEADBFADE2978F3F2FEF920763
:10253000A207B20759F489819A81AB81BC818F3F90
:102540009F4FAF4FBF4F09F087C00EC0892B8A2B1A
:102550008B2B09F081C089819A81AB81BC81892B49
:102560008A2B8B2B09F078C082E392E009DB86E3AB
:102570000E945C04BC01990F880B990B61157105D1
:102580008105910511F00E94492D0E94462D2FEFE3
:102590003FEF40E050E00E94682DE2966CAF7DAFC7
:1025A0008EAF9FAFE29789E30E945C04BC01990F54
:1025B000880B990B611571058105910511F00E9439
:1025C000492D0E94462D2FEF3FEF40E050E00E9442
:1025D000682D69837A838B839C83BE0162597F4F08
:1025E00080EF9FE00E94D107B80184EF9FE00E9436
:1025F000D1078C818F938B818F938A818F9389816F
:102600008F93E2968FADE2978F93E1968FADE1972E
:102610008F93E0968FADE0978F93AF968FADAF9786
:102620008F9387E592E09F938F938DE89DE09F9332
:102630008F930E94312A80EB93E047DE8DE89DE086
:102640009FDA6CE47DE180E090E00E94A0040FB688
:10265000F894DEBF0FBECDBF8C818F938B818F939B
:102660008A818F9389818F93E2968FADE2978F93C2
:10267000E1968FADE1978F93E0968FADE0978F93C2
:10268000AF968FADAF978F9387E592E09F938F932F
:102690008DE89DE09F938F930E94312A80E090E027
:1026A0000E94522D0FB6F894DEBF0FBECDBF88300A
:1026B00009F4CFC082E692E063DA88E0898341E1E1
:1026C00050E06CE072E0CE0102960E94222A84E47F
:1026D0008B8B41E150E06DE87DE0CE0144960E9495
:1026E000222A1DA21EA280E88FA386E988A788E976
:1026F00089A71AA61BA61CA61DA61EA61FA681EEAC
:1027000088AB85EF89AB85E08AAB1BAA1CAA1DAA02
:102710001EAA84E190E098AF8FAB85E090E09AAF7D
:1027200089AF8DE48BAF82E58CAF8DAF94EC9EAF1B
:1027300089E08FAF21961FAE219722961FAE229778
:1027400023961FAE239724961FAE249725961FAE7F
:10275000259726961FAE269727969FAF27972896F0
:102760008FAF289729961FAE29972A961FAE2A97D2
:102770002B961FAE2B972C961FAE2C972D961FAE27
:102780002D972E961FAE2E972F961FAE2F976096E1
:102790001FAE609761961FAE619762961FAE6297FB
:1027A00063961FAE639764961FAE649765961FAEDF
:1027B000659766961FAE669767961FAE6797689691
:1027C0001FAE689769961FAE69976A961FAE6A97A3
:1027D0006B961FAE6B976C961FAE6C976D961FAE87
:1027E0006D976E961FAE6E976F961FAE6F97A09601
:1027F0001FAEA097A1961FAEA197A2961FAEA2975B
:10280000A3961FAEA397A4961FAEA497A5961FAE3E
:10281000A597A6961FAEA697A7961FAEA797A896B0
:102820001FAEA897A9961FAEA997AA961FAEAA9702
:10283000AB961FAEAB97AC961FAEAC97AD961FAEE6
:10284000AD97AE961FAEAE97B80180E090E00E94C3
:102850000F088FE290E1CD5FDE4F99838883C350EC
:10286000D1406C01E12CF12CC7010E94522DD60100
:102870008D936D01BFEFEB1AFB0AEDE6EE16F10446
:1028800099F7809153108093A70D77D987E892E04C
:1028900077D988EA92E074D970D988ED92E070D93E
:1028A0008EEE92E06DD98DE6EFE2F0E1DE01A25905
:1028B000BF4F01900D928A95E1F785E093E005DD29
:1028C000CE56DF4F9881C259D040923081F038F413
:1028D000992351F09130A1F48BE293E010C0933032
:1028E00049F0943051F00CC08AE193E008C084E2D2
:1028F00093E005C08EE393E043D980E593E040D9AF
:1029000086E593E0E2DCCD56DF4F8881C359D040A5
:10291000882311F0DBDC03C089E693E031D98EE631
:1029200093E0D3DC80E090E00E94522D682F70E0AD
:1029300080E090E04AE058DC81E893E0C6DCC058D3
:10294000DF4F8881C058D040C1DC83E993E0BDDC13
:102950008CE092E015D988EA93E0B7DC8EE690E04F
:102960008C0F9D1F43960CD980EC93E0AEDCCC56C7
:10297000DF4F2881C459D040CB56DF4F3881C5592D
:10298000D040CA56DF4F4881C659D040C956DF4FA4
:102990005881C759D040C856DF4F6881C859D040C8
:1029A000C756DF4F7881C959D040C656DF4F88815E
:1029B000CA59D040C556DF4F9881CB59D0400E94AC
:1029C0002E0880ED93E0DCD885ED93E07EDCC456E4
:1029D000DF4F2881CC59D040C356DF4F3881CD59C5
:1029E000D040C256DF4F4881CE59D040C156DF4F4C
:1029F0005881CF59D040C056DF4F6881C05AD0406F
:102A0000CF55DF4F7881C15AD040CE55DF4F8881F6
:102A1000C25AD040CD55DF4F9881C35AD0400E9452
:102A20002E0885EE93E0ACD88BEE93E04EDCCC55CF
:102A3000DF4F68817981C45AD040072E000C880B83
:102A4000990B12DC9AD88BEF93E03FDCC855DF4F2F
:102A50008881C85AD0403ADC88E094E036DCC95519
:102A6000DF4F8881C75AD0408F93CA55DF4F888186
:102A7000C65AD0408F9384E194E09F938F931F9325
:102A80000F930E94312AC8017BD88BE194E01DDCB2
:102A9000C755DF4F8881C95AD0407CD88CE294E07A
:102AA00014DCC655DF4F8881CA5AD04073D885E3FD
:102AB00094E066D88CE394E008DCEEE6F0E0EC0FFE
:102AC000FD1FFD966081718182819381CDDB8CE257
:102AD00094E0FBDBCD54DF4F688179818A819B8153
:102AE000C35BD040C1DB85E394E04AD88EE494E038
:102AF000ECDBC554DF4F688179818A819B81CB5B98
:102B0000D040B2DB8CE294E0E0DBCD53DF4F688154
:102B100079818A819B81C35CD040A6DB85E394E008
:102B20002FD88EE594E0D1DBC553DF4F68817981E2
:102B30008A819B81CB5CD04097DB8CE294E0C5DB43
:102B4000CD52DF4F688179818A819B81C35DD040FE
:102B50008BDB85E394E014D888ED92E011D889E608
:102B600094E00ED88EE894E0B0DB0F900F900F90B9
:102B70000F900F900F9007E010E06AEF70E080E098
:102B800090E00E94A0048EE205D888EA9EE00E94B0
:102B9000D301892B11F011E032C06AEF70E080E0C0
:102BA00090E00E94A0048EE20E94CA0D88EA9EE096
:102BB0000E94D301892B79F76AEF70E080E090E002
:102BC0000E94A0048EE20E94CA0D88EA9EE00E9444
:102BD000D301892B01F76AEF70E080E090E00E945A
:102BE000A0048EE20E94CA0D88EA9EE00E94D301F2
:102BF000892B89F60150110909F0BFCF10E088EA4E
:102C00009EE00E94D301892B29F088EA9EE00E9471
:102C1000B101F5CF112309F43EC78E0105511F4FB5
:102C2000CD50DF4F19830883C35FD0401E011BEDD9
:102C3000210E311C0E94BD0D0E94BD0D81E994E062
:102C400044DBE0915310E53028F4F0E0E35EFD4F03
:102C5000808101C08FE30E94CA0D8EEA94E00E9439
:102C6000C00D87EC94E031DB80915410882329F06B
:102C70000E94CA0D84EE94E005C086E498E025DB4E
:102C800088EE94E00E94C00D81E095E01EDB20916B
:102C90005510309156104091571050915810609136
:102CA000591070915A1080915B1090915C100E94A5
:102CB0002E088EE195E00E94C00D80E395E005DBD3
:102CC00020915D1030915E1040915F105091601026
:102CD0006091611070916210809163109091641006
:102CE0000E942E088DE495E00E94C00D8FE595E0CE
:102CF000ECDA6091651070916610072E000C880B5D
:102D0000990BB2DA8CE795E00E94C00D85E995E059
:102D1000DCDA8091671090916810092E000CAA0BE4
:102D2000BB0BBF93AF939F938F93A2EBB5E0BF9381
:102D3000AF93CC50DF4FF881C45FD040FF93CD50AC
:102D4000DF4F0881C35FD0400F930E94312ACE012C
:102D500085519F4FBADA89EB95E00E94C00D82ED54
:102D600095E0B3DA809169100E94CA0D8FEE95E06C
:102D70000E94C00D88E096E0A8DA80916A100E9457
:102D8000CA0D80E20E94CA0D80916B100E94CA0D8C
:102D900085E296E00E94C00D8CE396E096DA6091A1
:102DA0006C1070916D1080916E1090916F105CDAC4
:102DB00080E20E94CA0D609174107091751080912C
:102DC00076109091771050DA89E596E00E94C00D58
:102DD0008DE696E07ADA60917C1070917D1080919A
:102DE0007E1090917F1040DA80E20E94CA0D6091BF
:102DF000841070918510809186109091871034DA3C
:102E00008AE896E00E94C00D81EA96E05EDA609161
:102E10008C1070918D1080918E1090918F1024DA0B
:102E200080E20E94CA0D609194107091951080917B
:102E300096109091971018DA8AE896E00E94C00DDB
:102E40000E94BD0D8EEB96E00E94C00D8EED96E0C7
:102E50000E94C00D8FEF96E00E94C00D82E297E0C5
:102E60000E94C00D0E942409082E000C990B0E949C
:102E70001A2A0FB6F894DEBF0FBECDBF082E000C85
:102E8000990BAA0BBB0BFC01E354F109E831F105E6
:102E900008F0FCC58827EE58FF4F8F4F0C949928F7
:102EA0008FE297E00E94C00D0E94BD0D8EE597E075
:102EB0000E94C00D86E797E00E94C00D8BE897E066
:102EC0000E94C00D8CEA97E00E94C00D8BEC97E049
:102ED0000E94C00D0E94BD0D8FED97E0F6D90E94B3
:102EE0002409082E000C990B0E941A2A8C34910593
:102EF000A1F044F484349105A1F08934910599F44A
:102F000081E00CC08035910531F08435910559F48C
:102F1000109253108FCE82E001C083E08093531053
:102F200089CE84E0FBCF8CEE97E00E94C00DD7CF16
:102F300088E098E0CAD980915410882319F00E9443
:102F4000CA0D03C086E498E0C0D988E198E00E94E9
:102F5000C00D0E942409082E000C990B0E941A2A09
:102F6000803209F480E08093541064CE8CE498E0C1
:102F7000ACD9209155103091561040915710509176
:102F800058106091591070915A1080915B10909177
:102F90005C100E942E0889E598E00E94C00D8DE724
:102FA00098E00E94C00D0E9432091092A70E109264
:102FB000A60EC1010E94F60DD1015C9011966C9095
:102FC000119712967C90129713968C9013971496E3
:102FD0009C9014971596BC91F1014680F781CB50D7
:102FE000DF4FF883C55FD040252D362D472D582D56
:102FF000692D7B2F842D9F2FAFEF0E94E429AFE036
:103000000E94022A11F008F015CE252D362D472DED
:10301000582D692D7B2F842D9F2F05E00E94C229FA
:10302000A52CB62CC72CD82CE92CFB2E042D1F2F39
:103030000E94F02959016A017B01A82F192F06E08F
:103040000E94C2290A2F0E94F02903E00E94C2298F
:10305000A52CB62CC72CD82CE92CFB2E042D1F2F09
:103060000E94DB2906E00E94C229422EC350DF4F96
:103070003883CD5FD040C85FDE4F4883C850D14011
:10308000CB50DF4F5883C55FD040C150DF4F6883BE
:10309000CF5FD040CB5FDE4F7883C550D140CA5F51
:1030A000DE4F8883C650D140C95FDE4F9883C7503A
:1030B000D14070901C0E80901D0E90901E0EB0910D
:1030C0001F0EA091200EF091210EE091220E509043
:1030D000230E272D382D492D5B2F6A2F7F2F8E2F02
:1030E000952D05E00E94C229A72CB82CC92CDB2EF7
:1030F000EA2EFF2E0E2F152D0E94F02959016A018C
:103100007B01682E192F06E00E94C229062D0E941D
:10311000F02903E00E94C229A72CB82CC92CDB2E71
:10312000EA2EFF2E0E2F152D0E94DB2906E00E94AD
:10313000C229A0900002B0900102C0900202D0907B
:103140000302E0900402F090050200910602109143
:1031500007020E94F42859016A017B018C01242D89
:10316000C350DF4F3881CD5FD040C85FDE4F48810C
:10317000C850D140CB50DF4F5881C55FD040C150BF
:10318000DF4F6881CF5FD040CB5FDE4F7881C55085
:10319000D140CA5FDE4F8881C650D140C95FDE4F43
:1031A0009881C750D1400E94DB292093551030935D
:1031B00056104093571050935810609359107093C5
:1031C0005A1080935B1090935C1034CD84EC98E09F
:1031D0007CD820915D1030915E1040915F1050912D
:1031E00060106091611070916210809163109091F5
:1031F00064100E942E0887ED98E00E94C00D8CEEAE
:1032000098E00E94C00D0E9432091092A70E109201
:10321000A60EC1010E94F60DD1015C9011966C9032
:10322000119712967C90129713968C901397149680
:103230009C9014971596BC91F1014680F781CB5074
:10324000DF4FF883C55FD040252D362D472D582DF3
:10325000692D7B2F842D9F2FA0E00E94022A09F068
:103260000CF4E8CC05E00E94C229A52CB62CC72C92
:10327000D82CE92CFB2E042D1F2F0E94F029590178
:103280006A017B01A82F192F06E00E94C2290A2F8C
:103290000E94F02903E00E94C229A52CB62CC72C5D
:1032A000D82CE92CFB2E042D1F2F0E94DB2906E0D1
:1032B0000E94C229422EC350DF4F3883CD5FD040D9
:1032C000C85FDE4F4883C850D140CB50DF4F588392
:1032D000C55FD040C150DF4F6883CF5FD040CB5F28
:1032E000DE4F7883C550D140CA5FDE4F8883C65019
:1032F000D140C95FDE4F9883C750D14070901C0EFB
:1033000080901D0E90901E0EB0911F0EA091200E69
:10331000F091210EE091220E5090230E272D382D92
:10332000492D5B2F6A2F7F2F8E2F952D05E00E9450
:10333000C229A72CB82CC92CDB2EEA2EFF2E0E2F6B
:10334000152D0E94F02959016A017B01682E192F61
:1033500006E00E94C229062D0E94F02903E00E9487
:10336000C229A72CB82CC92CDB2EEA2EFF2E0E2F3B
:10337000152D0E94DB2906E00E94C229A0900002C0
:10338000B0900102C0900202D0900302E0900402CB
:10339000F090050200910602109107020E94F428A5
:1033A00059016A017B018C01242DC350DF4F388104
:1033B000CD5FD040C85FDE4F4881C850D140CB5070
:1033C000DF4F5881C55FD040C150DF4F6881CF5F6C
:1033D000D040CB5FDE4F7881C550D140CA5FDE4F11
:1033E0008881C650D140C95FDE4F9881C750D14017
:1033F0000E94DB2920935D1030935E1040935F1094
:10340000509360106093611070936210809363100A
:10341000909364100FCC82E399E00E946511609153
:10342000651070916610072E000C880B990B0E9496
:10343000341187E499E00E94C00D84E799E00E946E
:10344000C00D0E9432091092A70E1092A60EC10163
:103450000E94F60D80911A0E90911B0E892B09F493
:10346000E9CBD101FC911196EC9111971296DC9069
:1034700012971396EC9013971496FC901497159648
:103480000C91159716961C9116971796CC902F2F86
:10349000277F3E2F4D2D5E2D6F2D702F812F9C2D60
:1034A000A2E00E94022A51F02F2FA4E10E94022ADA
:1034B00029F0A8E20E94022A09F0BCCBCF01909328
:1034C0006510E0936610B6CB8091671090916810FC
:1034D000092E000CAA0BBB0BBF93AF939F938F9346
:1034E000A2EBB5E0BF93AF933F922F920E94312A97
:1034F00082EB99E00E946511C1010E9465118BEB7E
:1035000099E00E94C00D84E799E00E94C00D0E94DE
:1035100032091092A70E1092A60ECE018D519F4F28
:103520000E94F60D0FB6F894DEBF0FBECDBF80919E
:103530001A0E90911B0E892B09F47CCBCD51DF4FD5
:10354000F881C35ED040CC51DF4FE881C45ED040EB
:10355000CB51DF4F4881C55ED040CA51DF4F588103
:10356000C65ED040C951DF4F6881C75ED040C851A8
:10357000DF4F7881C85ED0402F2F3E2FC751DF4FDD
:103580008881C95ED040C651DF4F9881CA5ED04065
:103590002F3F3105410551056105710581059105F3
:1035A00011F008F047CBCF0190936710809368101B
:1035B00041CB8DEE99E00E946511809169100E94C7
:1035C000CA0D8EEF99E00E94C00D0E942409082EBA
:1035D000000C990B0E941A2A8D3419F0833509F0DA
:1035E00029CB8093691026CB8EE19AE00E94C00D12
:1035F00080E39AE00E94651180916A100E94661132
:1036000082E49AE00E94651180916B100E9466111D
:1036100084E59AE00E94C00D0E943209E4E2FEE0D7
:103620009F0124523E40790181918032C9F3082ED6
:10363000000C990B0E941A2A813419F400E010E062
:1036400005C0823409F0F6CA01E010E0F701EB5D35
:10365000F14F81918032E9F3082E000C990B0E9402
:103660001A2A823519F0863409F0E4CAF801E15DBE
:10367000FF4E83AFDFCA8AE99AE00E94C00D8DEB4E
:103680009AE00E94651160916C1070916D108091AC
:103690006E1090916F100E945B1180ED9AE00E9475
:1036A00065116091741070917510809176109091F1
:1036B00077100E945B1183EE9AE00E94C00D0E9479
:1036C0002409082E000C990B0E941A2A813419F43F
:1036D00000E010E004C0823471F701E010E08BEFED
:1036E0009AE00E94C00D0E9432091092A70E10921B
:1036F000A60EC1010E94F60D80911A0E90911B0E2C
:10370000892B09F497CAF80163E0EE0FFF1F6A9551
:10371000E1F7E15DFF4EFD96A5C085E29BE00E94CA
:10372000C00D8EE39BE00E94651160917C1070914A
:103730007D1080917E1090917F100E945B118FE42C
:103740009BE00E94651160918410709185108091BA
:103750008610909187100E945B1183EE9AE00E9480
:10376000C00D0E942409082E000C990B0E941A2AF1
:10377000813419F400E010E004C0823471F701E0F4
:1037800010E080E69BE00E94C00D0E94320910927A
:10379000A70E1092A60EC1010E94F60D80911A0E7E
:1037A00090911B0E892B09F445CA53E0000F111F9D
:1037B0005A95E1F7015D1F4EF801E35BFF4F52C0E0
:1037C00085E89BE00E94C00D8AE99BE00E9465119C
:1037D00060918C1070918D1080918E1090918F104F
:1037E0000E945B118BEA9BE00E946511609194102E
:1037F0007091951080919610909197100E945B1196
:1038000083EE9AE00E94C00D0E942409082E000C4D
:10381000990B0E941A2A813419F400E010E004C0C8
:10382000823471F701E010E08CEB9BE00E94C00D48
:103830000E9432091092A70E1092A60EC1010E949A
:10384000F60D80911A0E90911B0E892B09F4F2C986
:1038500043E0000F111F4A95E1F7015D1F4EF8018B
:10386000E35AFF4FD1018C91808311968C9111976F
:10387000818312968C911297828313968C91139761
:10388000838314968C911497848315968C91159745
:10389000858316968C911697868317968C918783CD
:1038A000C9C988E0898341E150E06CE072E0CE0153
:1038B00002960E94222A84E48B8B41E150E06DE85D
:1038C0007DE0CE0144960E94222A1DA21EA280E81D
:1038D0008FA386E988A788E989A71AA61BA61CA634
:1038E0001DA61EA61FA681EE88AB85EF89AB85E0DD
:1038F0008AAB1BAA1CAA1DAA1EAA84E190E098AF5D
:103900008FAB85E090E09AAF89AF8DE48BAF82E515
:103910008CAF8DAF94EC9EAF89E08FAF21961FAE38
:10392000219722961FAE229723961FAE23972496A7
:103930001FAE249725961FAE259726961FAE269775
:1039400027969FAF279728968FAF289729961FAE67
:1039500029972A961FAE2A972B961FAE2B972C9647
:103960001FAE2C972D961FAE2D972E961FAE2E971D
:103970002F961FAE2F9760961FAE609761961FAE71
:10398000619762961FAE629763961FAE63976496C7
:103990001FAE649765961FAE659766961FAE6697D5
:1039A00067961FAE679768961FAE689769961FAEB9
:1039B00069976A961FAE6A976B961FAE6B976C9667
:1039C0001FAE6C976D961FAE6D976E961FAE6E977D
:1039D0006F961FAE6F97A0961FAEA097A1961FAED1
:1039E000A197A2961FAEA297A3961FAEA397A496E7
:1039F0001FAEA497A5961FAEA597A6961FAEA69735
:103A0000A7961FAEA797A8961FAEA897A9961FAE18
:103A1000A997AA961FAEAA97AB961FAEAB97AC9686
:103A20001FAEAC97AD961FAEAD97AE961FAEAE97DC
:103A30008DE6FE013196AFE2B0E101900D928A95DC
:103A4000E1F7F8C86FE270E180E090E00E940F08B3
:103A500022C082E89DE00E94C00D8CED9BE00E9498
:103A6000C00D00E010E06FEFC8010E945A2D0F5FFB
:103A70001F4F0115B0E11B07B1F78BE09CE00E94DE
:103A8000C00D82E89DE00E94C00D05C088E49CE066
:103A90000E94C00DCFC8809153108093A60DA090B6
:103AA0005510B0905610C0905710D0905810E0901C
:103AB0005910F0905A1000915B1010915C10A09278
:103AC0009E0DB0929F0DC092A00DD092A10DE092DC
:103AD000A20DF092A30D0093A40D1093A50D20E06C
:103AE00030E145EA54ED68EE70E080E090E00E943D
:103AF000F4282093AA0D3093AB0D4093AC0D509356
:103B0000AD0D6093AE0D7093AF0D8093B00D90939B
:103B1000B10D80915D108093B20D80915E10809305
:103B2000B30D80915F108093B40D809160108093ED
:103B3000B50D809161108093B60D809162108093D5
:103B4000B70D809163108093B80D809164108093BD
:103B5000B90DE0906510F0906610F092A90DE0921A
:103B6000A80D05E41FE0C12CD12C35E7B32EF801D8
:103B7000ED5AFF4F10821182128213821482158235
:103B800016821782BC9CD001BD9CB00D1124AB5B8A
:103B9000B04FFD013B961B961C921182128213823C
:103BA0001482158216821782F80113A614A615A690
:103BB00016A617A610AA11AA12AA13AEFB96118276
:103BC000128213821482158216821782CD5FDE4F15
:103BD000A881B981C350D140DD968C91B096808385
:103BE00011968C911197818312968C9112978283F2
:103BF00013968C911397838314968C9114978483D6
:103C000015968C911597858316968C9116978683B9
:103C100017968C918783CD5FDE4FA881B981C35001
:103C2000D140A35BBF4F8C913896808311968C91C5
:103C30001197818312968C911297828313968C919F
:103C40001397838314968C911497848315968C9183
:103C50001597858316968C911697868317968C9167
:103C60008783CD5FDE4FA881B981C350D140A35A6D
:103C7000BF4F8C913896808311968C9111978183D8
:103C800012968C911297828313968C91139783834B
:103C900014968C911497848315968C91159785832F
:103CA00016968C911697868317968C91878360E081
:103CB000D8018C910E94F10365E070E080E090E013
:103CC0000E94A00461E0F80180810E94F10365E098
:103CD00070E080E090E00E94A004FAE0EF16F104AA
:103CE00059F074F044E1E416F10441F058E2E516AD
:103CF000F10431F480EC05C080E403C080E801C029
:103D000080E0480164E7860E911C8160D4018C93A9
:103D100021E082E1C35EDE4F2883CD51D1400E9475
:103D2000C903C35EDE4F2881CD51D140892B81F775
:103D3000222311F020E0EDCFF401408161E0C801C1
:103D40000E94220544E063E0C8010E9422054091E0
:103D5000671066E0C8010E94220540E067E0C801E4
:103D60000E942205D80112968C91813419F4809119
:103D70006A1004C0823431F480916B10863411F4DF
:103D800048E001C040E04368F801ED58FF4F408330
:103D900060E0C8010E9422050B581F4FCD5FDE4F27
:103DA000E881F981C350D1403896CD5FDE4FF98369
:103DB000E883C350D140CA94CD2821F0CC24C394C9
:103DC000D12CD5CE809169108D3409F042C061E0CC
:103DD0008EE30E94200460E08EE30E94F10368EE0F
:103DE00073E080E090E00E94A00482E10E94C90399
:103DF00001E0892B09F400E082E0E82EF12C10E0CC
:103E00009FE0C92ED12C82E10E94C903801791073F
:103E1000D9F4C6010197F1F723E3E216F1049CF708
:103E20003FEFE31AF30A42E3E416F10461F782E894
:103E30009DE00E94C00D82E89DE00E94C00D8CE4D0
:103E40009CE00E94C00DDFCF61E08EE30E94F10391
:103E50000CC082E89DE00E94C00D82E89DE00E94B7
:103E6000C00D86E79CE00E94C00D8EE30E94C9034E
:103E7000892BD9F31092840D1092850D1092860D26
:103E80001092870D1092880D1092890D10928A0D54
:103E900010928B0D42E064E473E082E10E94270CF3
:103EA00043E069E273E082E00E94270C43E06EE0A9
:103EB00073E083E00E94270C60E08EE30E94F10330
:103EC00060E08EE30E94200482E89DE00E94C00D25
:103ED00082E89DE00E94C00D80915310823091F0E5
:103EE00038F4882361F08130A1F484EB9CE00FC0AA
:103EF000833059F0843069F485E19DE008C08EE993
:103F00009CE005C082ED9CE002C085EE9CE00E9432
:103F1000C00D809108018F7B80930801809108017A
:103F20008F7E80930801809108018F77809308012C
:103F3000809108018F7D8093080180910801877F1F
:103F4000809308012E015BED450E511C0E947B04FD
:103F50000091C20D1091C30D2091C40D3091C50D7B
:103F6000DC01CB01801B910BA20BB30B8B3F9105A6
:103F7000A105B10508F458C00E947B046093C20DEE
:103F80007093C30D8093C40D9093C50D2091840D43
:103F90003091850D4091860D5091870D6091880D6F
:103FA0007091890D80918A0D90918B0DA090BA0D22
:103FB000B090BB0DC090BC0DD090BD0DE090BE0D7B
:103FC000F090BF0D0091C00D1091C10D0E94F92914
:103FD00031F1809108018860809308017091840D0F
:103FE0006091850D5091860D4091870D3091880D1F
:103FF0002091890D90918A0D80918B0D7093BA0D4F
:104000006093BB0D5093BC0D4093BD0D3093BE0D1E
:104010002093BF0D9093C00D8093C10D05C080917A
:104020000801877F8093080167E47FE0C350DF4F7A
:1040300079836883CD5FD040B8E52B2EBFE03B2E5F
:1040400018E9612E1FE0712E08E7802E0FE0902EF8
:10405000C85FDE4F19821882C850D140C350DF4F6D
:10406000A881B981CD5FD04013968C910E94C9037D
:10407000892B09F0E7C4C85FDE4FE881F981C85099
:10408000D14080910801EF2B09F008C5806480932E
:10409000080180910801806180930801D101589640
:1040A0007C91589759966C9159975A965C915A976A
:1040B0005B964C915B975C963C915C975D962C91DE
:1040C0005D975E969C915E975F968C91F4017083EC
:1040D00061835283438334832583968387838085DA
:1040E000808B8185818B8285828B8385838B848580
:1040F000848B8585858B8685868B8785878B8101DB
:1041000003511109CD5FDE4F19830883C350D1409D
:1041100060E1C8010E945E05D1016D937D938D938E
:104120009C93139762E1CD5FDE4F88819981C350E4
:10413000D1400E945E05F101648375838683978375
:1041400061E1CD5FDE4F88819981C350D1400E94EB
:104150005E05D1011C966D937D938D939C931F9763
:104160006BE1CD5FDE4F88819981C350D1400E94C1
:104170005E05F101608B718B828B938B6CE1CD5F5F
:10418000DE4F88819981C350D1400E945E05C150A5
:10419000DF4F688379838A839B83CF5FD040D101CF
:1041A00054966D937D938D939C935797B091AA0DE0
:1041B000CB5FDE4FB883C550D140E091AB0DCA5FF5
:1041C000DE4FE883C650D140F091AC0DC95FDE4FA1
:1041D000F883C750D1400091AD0DC65FDE4F088314
:1041E000CA50D1401091AE0DC55FDE4F1883CB5041
:1041F000D1402091AF0DC45FDE4F2883CC50D14019
:104200003091B00DC35FDE4F3883CD50D140409127
:10421000B10DC25FDE4F4883CE50D140F10184859D
:104220009585A685B7858C019D0140E050E0BA01D7
:10423000CB50DF4F8883C55FD040CA50DF4F188313
:10424000C65FD040C950DF4F2883C75FD040C850F9
:10425000DF4F3883C85FD040C750DF4F4883C95F06
:10426000D040C650DF4F5883CA5FD040C550DF4FA3
:104270006883CB5FD040C450DF4F7883CC5FD040A1
:10428000CB5FDE4FA880C550D140CA5FDE4FB880FB
:10429000C650D140C95FDE4FC880C750D140C65F0D
:1042A000DE4FD880CA50D140C55FDE4FE880CB508A
:1042B000D140C45FDE4FF880CC50D140C35FDE4FA9
:1042C0000881CD50D140C25FDE4F1881CE50D14021
:1042D000CB50DF4F2881C55FD040CA50DF4F3881B7
:1042E000C65FD040C950DF4F4881C75FD040C8503B
:1042F000DF4F5881C85FD04060E070E080E090E020
:1043000020D7D3015896AC9058975996BC9059979E
:104310005A96CC905A975B96DC905B975C96EC90A3
:104320005C975D96FC905D975E960C915E975F96AC
:104330001C910E94F029C15FDE4F2883CF50D140ED
:10434000C05FDE4F3883C051D140CF5EDE4F48831F
:10435000C151D140CE5EDE4F5883C251D140CD5EB7
:10436000DE4F6883C351D140CC5EDE4F7883C451A9
:10437000D140CB5EDE4F8883C551D140CA5EDE4F4F
:104380009883C651D140F10180899189A289B3896E
:10439000C150DF4F088119812A813B81CF5FD04016
:1043A000081B190B2A0B3B0B40E050E0BA01CB5025
:1043B000DF4F0883C55FD040CA50DF4F1883C65F08
:1043C000D040C950DF4F2883C75FD040C850DF4F6F
:1043D0003883C85FD040C750DF4F4883C95FD040A3
:1043E000C650DF4F5883CA5FD040C550DF4F688347
:1043F000CB5FD040C450DF4F7883CC5FD04020E407
:1044000032E44FE050E060E070E080E090E0D30103
:104410001896AC9018971996BC9019971A96CC904C
:104420001A971B96DC901B971C96EC901C971D9678
:10443000FC901D971E960C911E971F961C91D0D72D
:1044400059016A017B018C01CB50DF4F2881C55F88
:10445000D040CA50DF4F3881C65FD040C950DF4FCF
:104460004881C75FD040C850DF4F5881C85FD040F7
:1044700060E070E080E090E064D6E091A80DF091FB
:10448000A90D31971F2F110F110B5F01C12ED12ED6
:10449000E12EF12E012FA8D6CB50DF4F2883C55F28
:1044A000D040C150DF4F3883CF5FD040C95EDE4F70
:1044B0004883C751D140C85EDE4F5883C851D140B0
:1044C000C75EDE4F6883C951D140C65EDE4F788338
:1044D000CA51D140C55EDE4F8883CB51D140C45E06
:1044E000DE4F9883CC51D140F3011089B189028904
:1044F000F38864897589212F3B2F402F5F2D868992
:104500009789A0E07FD761F0D10114961C9314978E
:1045100015963C93159716960C9316971796FC9242
:10452000A12C40E1B42E55EAC52E64EDD62E78EECE
:10453000E72EF12C00E010E0CB5FDE4F2881C55064
:10454000D140CA5FDE4F3881C650D140C95FDE4FCF
:104550004881C750D140C65FDE4F5881CA50D14014
:10456000C55FDE4F6881CB50D140C45FDE4F78819C
:10457000CC50D140C35FDE4F8881CD50D140C25F67
:10458000DE4F9881CE50D140DCD5CB50DF4FA88094
:10459000C55FD040C150DF4FB880CF5FD040C95E0B
:1045A000DE4FC880C751D140C85EDE4FD880C851A9
:1045B000D140C75EDE4FE880C951D140C65EDE4FB4
:1045C000F880CA51D140C55EDE4F0881CB51D14041
:1045D000C45EDE4F1881CC51D14006D6C150DF4FAA
:1045E0002883CF5FD040CB5FDE4F3883C550D140AA
:1045F000CA5FDE4F4883C650D140C95FDE4F588343
:10460000C750D140B62FA72FC65FDE4F8883CA5050
:10461000D140C55FDE4F9883CB50D140F10140813E
:104620005181628173815A016B01248135814681F8
:104630005781BA01A9019A01AB0160E070E0CB019A
:10464000CB50DF4F2883C55FD040CA50DF4F38833F
:10465000C65FD040C950DF4F4883C75FD040C850C5
:10466000DF4F5883C85FD040C750DF4F6883C95FB2
:10467000D040C650DF4F7883CA5FD040C550DF4F6F
:104680008883CB5FD040C450DF4F9883CC5FD0404D
:104690009501A60160E070E080E090E0CB50DF4F34
:1046A000A880C55FD040CA50DF4FB880C65FD040F9
:1046B000C950DF4FC880C75FD040C850DF4FD88097
:1046C000C85FD040E12CF12C00E010E089D6590100
:1046D0006A017B018C01C150DF4F2881CF5FD04040
:1046E000CB5FDE4F3881C550D140CA5FDE4F488175
:1046F000C650D140C95FDE4F5881C750D1406B2FA3
:104700007A2FC65FDE4F8881CA50D140C55FDE4F29
:104710009881CB50D14015D5E0E4AE2EF2E4BF2E07
:10472000AFE0CA2ED12CE12CF12C00E010E05CD5DA
:1047300059016A017B018C01C15FDE4F2881CF5096
:10474000D140C05FDE4F3881C051D140CF5EDE4FD7
:104750004881C151D140CE5EDE4F5881C251D14017
:10476000CD5EDE4F6881C351D140CC5EDE4F788193
:10477000C451D140CB5EDE4F8881C551D140CA5E65
:10478000DE4F9881C651D14016D6CB50DF4F2883DB
:10479000C55FD040C150DF4F3883CF5FD040CB5F83
:1047A000DE4F4883C550D140CA5FDE4F5883C650A4
:1047B000D140C95FDE4F6883C750D140C65FDE4F2E
:1047C0007883CA50D140C55FDE4F8883CB50D1403B
:1047D000C45FDE4F9883CC50D140D10158962C93C2
:1047E000589759963C9359975A964C935A975B967B
:1047F0005C935B975C966C935C975D967C935D97FE
:104800005E968C935E975F969C9305E7C85FDE4F3C
:10481000E881F981C850D1400E9FD0010F9FB00DA3
:104820001124AB5BB04FFD013B961B962C9131815F
:10483000428153816481758186819781A090B20DF8
:10484000B090B30DC090B40DD090B50DE090B60D02
:10485000F090B70D0091B80D1091B90D72D4CB50F6
:10486000DF4FA880C55FD040C150DF4FB880CF5F19
:10487000D040CB5FDE4FC880C550D140CA5FDE4F0D
:10488000D880C650D140C95FDE4FE880C750D140C4
:10489000C65FDE4FF880CA50D140C55FDE4F088149
:1048A000CB50D140C45FDE4F1881CC50D14098D559
:1048B000D40118962C93189719963C9319971A9629
:1048C0004C931A971B965C931B971C966C931C97A2
:1048D0001D967C931D971E968C931E971F969C93F6
:1048E0001F975096AC9050975196BC905197529606
:1048F000CC9052975396DC9053975496EC905497E3
:104900005596FC90559756960C91569757961C9134
:10491000579766D558962C93589759963C93599724
:104920005A964C935A975B965C935B975C966C9304
:104930005C975D967C935D975E968C935E975F9691
:104940009C93F3012081318142815381648175817F
:1049500086819781A1E038D52083318342835383B8
:104960006483758386839783F101E05AFF4F40810A
:1049700060E0CD5FDE4F88819981C350D1400E94B5
:104980002205D3012C9111963C91119712964C91CE
:10499000129713965C91139714966C911497159631
:1049A0007C91159716968C91169717969C91A2E07C
:1049B00029D5A9F1A4F180915410882309F475C078
:1049C00088EA9EE00E94D3011816190644F588EA89
:1049D0009EE00E94B10120915410022E000C330B76
:1049E00082179307E1F461C08130C9F4A090800F71
:1049F000B090810FC090820FD090830FE090840F11
:104A0000F090850F0091860F1091870F9501A601F8
:104A1000B701C801A1E0F6D411F00CF08EC0C85F58
:104A2000DE4F08811981C850D14080910801012BC7
:104A300009F0CEC28F7B80930801809108018F7EA0
:104A400080930801C350DF4F28813981CD5FD0406A
:104A50002B583F4FC350DF4F39832883CD5FD04061
:104A600035E7230E311C45E7640E711C55E7850EB2
:104A7000911CC85FDE4F68817981C850D140613098
:104A8000710549F081E090E0C85FDE4F998388832B
:104A9000C850D140E3CA0E94700258CA806880930F
:104AA0000801809108018062F7CA8091531082301A
:104AB00041F5D40158962C91589759963C915997A5
:104AC0005A964C915A975B965C915B975C966C9169
:104AD0005C975D967C915D975E968C915E975F96F4
:104AE0009C910E948C058AE49DE00E946511C35050
:104AF000DF4FE881F981CD5FD04080810E9466114F
:104B00008ECF833008F068C081116ECFF40120850C
:104B100031854285538564857585868597850E9494
:104B20008C058AE49DE00E946511C350DF4FA88187
:104B3000B981CD5FD0408C91E1CFB091F50FCD5FC1
:104B4000DE4FB883C350D140E091F60FCB50DF4F1A
:104B5000E883C55FD040F091F70FC150DF4FF88375
:104B6000CF5FD040B091F80FCB5FDE4FB883C55018
:104B7000D140E091F90FCA5FDE4FE883C650D140C3
:104B8000B091FA0FF091FB0FE091FC0FCD5FDE4F7B
:104B90002881C350D140CB50DF4F3881C55FD04012
:104BA000C150DF4F4881CF5FD040CB5FDE4F58818F
:104BB000C550D140CA5FDE4F6881C650D1407B2FBF
:104BC0008F2F9E2F1FD409F00CF429CF09D40E94F7
:104BD0008C058EE49DE0F1C0833009F011C1D090C6
:104BE000800FE090810FF090820F0091830F109161
:104BF000840FB091850FF091860FE091870F2D2DD6
:104C00003E2D4F2D502F612F7B2F8F2F9E2FA1E0F8
:104C1000F9D309F00CF403CF2091F50F3091F60F82
:104C20004091F70F5091F80F6091F90F7091FA0FC2
:104C30008091FB0F9091FC0FE5D309F00CF4EFCEBF
:104C40002D2D3E2D4F2D502F612F7B2F8F2F9E2FDF
:104C50000E948C0588E59DE00E94C00D2091F50F13
:104C60003091F60F4091F70F5091F80F6091F90FC6
:104C70007091FA0F8091FB0F9091FC0F0E948C05B0
:104C80008DE59DE00E94C00D2091F50F3091F60F4B
:104C90004091F70F5091F80F6091F90F7091FA0F52
:104CA0008091FB0F9091FC0FA090800FB090810F2E
:104CB000C090820FD090830FE090840FF090850F0A
:104CC0000091860F1091870F8BD3CD5FDE4F288325
:104CD000C350D140CB50DF4F3883C55FD040C15067
:104CE000DF4F4883CF5FD040CB5FDE4F5883C55046
:104CF000D140CA5FDE4F6883C650D140C95FDE4FE6
:104D00007883C750D140C65FDE4F8883CA50D140F8
:104D1000C55FDE4F9883CB50D140A12C80E1B82EE7
:104D200095EAC92E24EDD22E38EEE32EF12C00E0C8
:104D300010E020910D1030910E1040910F10509105
:104D400010106091111070911210809113109091B9
:104D50001410F7D1AFEF38D359016A017B018C01F0
:104D6000CD5FDE4F2881C350D140CB50DF4F38811B
:104D7000C55FD040C150DF4F4881CF5FD040CB5F8F
:104D8000DE4F5881C550D140CA5FDE4F6881C650A2
:104D9000D140C95FDE4F7881C750D140C65FDE4F3A
:104DA0008881CA50D140C55FDE4F9881CB50D14039
:104DB00002D30E948C0582E69DE00E94C00D1092F5
:104DC000800F1092810F1092820F1092830F109219
:104DD000840F1092850F1092860F1092870F1092F9
:104DE000F50F1092F60F1092F70F1092F80F109225
:104DF000F90F1092FA0F1092FB0F1092FC0F0FCECA
:104E0000843009F00CCED10113968C9113978F93B7
:104E100012968C9112978F9311968C9111978F9374
:104E20008C918F93ADE6BDE0BF93AF935F924F92AD
:104E300018D3C2010E946511D10117968C91179762
:104E40008F9316968C9116978F9315968C91159734
:104E50008F9314968C918F93ADE6BDE0BF93AF9383
:104E60005F924F92FED2C2010E946511D1011F963E
:104E70008C911F978F931E968C911E978F931D96E2
:104E80008C911D978F931C968C918F93ADE6BDE00E
:104E9000BF93AF935F924F92E4D2C2010E9465111B
:104EA000D10153968C9153978F9352968C91529730
:104EB0008F9351968C9151978F9350968C918F939D
:104EC000ADE6BDE0BF93AF935F924F92CAD20FB6EB
:104ED000F894DEBF0FBECDBFC2010E946511D101A3
:104EE00057968C9157978F9356968C9156978F9390
:104EF00055968C9155978F9354968C918F93ADE6E0
:104F0000BDE0BF93AF935F924F92ABD2C2010E94BC
:104F1000651125E7C85FDE4F08811981C850D1406F
:104F2000209FD001219FB00D1124AB5BB04FFD013C
:104F30003B961B965C9141813281238184818581DE
:104F400086818781652F742F832F922F0E943411C1
:104F50008CEB96E00E946511D10158962C915897E0
:104F600059963C9159975A964C915A975B965C91F9
:104F70005B975C966C915C975D967C915D975E9675
:104F80008C915E975F969C910E948C058CEB96E0CD
:104F90000E946511F4012085318542855385648521
:104FA0007585868597850E948C058AE49DE00E9420
:104FB0006511C350DF4FA881B981CD5FD0408C917E
:104FC0000E9466110FB6F894DEBF0FBECDBF27CD8D
:104FD0008F7780930801809108018F7D31CDCF922A
:104FE000DF92EF92FF920F931F93CF93DF93E8EA44
:104FF000FEE01382128288EE93E0A0E0B0E08483AA
:105000009583A683B78386E292E09183808385ECC3
:1050100090E09587848784EC90E09787868780EC82
:1050200090E0918B808B81EC90E0938B828B82EC73
:1050300090E0958B848B86EC90E0978B868B118E1D
:10504000128E138E148E88E080932F10C5E4DFE05B
:1050500084E090E09983888381E48A8382E090E011
:105060009C838B838AE090E09E838D8386E090E032
:1050700098878F8384E490E09A87898761E084E051
:105080000E94200460E08D810E94200461E08F81F5
:105090000E94200460E08B810E94200461E08985E9
:1050A0000E94200485E090E09093BB0F8093BA0F9C
:1050B00082E48093BC0F0DEB1FE083E090E0F801E9
:1050C000918380838FEBC82E8FE0D82E8BE090E009
:1050D000F6019183808391ECE92E9FE0F92E87E021
:1050E00090E0F70191838083C3ECDFE085E490E0FA
:1050F0009983888361E085E00E94200460E0F601E6
:1051000080810E94200461E0F70180810E942004D8
:1051100060E0F80180810E94200461E08881DF91D5
:10512000CF911F910F91FF90EF90DF90CF900C9453
:105130002004EE0FFF1F881F8BBF0790F691E02D14
:105140001994DF93CF931F930F939A9DF02D219F76
:10515000F00D8B9DF00D8A9DE02DF10D039FF00D5C
:10516000029FE00DF11D4E9DE00DF11D5E9DF00DC5
:105170004F9DF00D7F936F93BF92AF925F934F93CC
:10518000D501F4D48B01AC01D701F0D4EB01E80FC9
:10519000F91FD6011FD02F913F91D601E7D4C60F3A
:1051A000D71FE81FF91FAF91BF9114D02F913F91E6
:1051B000DDD4C60FD71FE81FF91FD601D7D4E60FDD
:1051C000F71F9801BE01CF0111240F911F91CF91BC
:1051D000DF910895CBD4460F571FC81FD91F08F47D
:1051E00031960895689401C0E894F92FF12B0AF0E4
:1051F00027C0A0E0B0E0EEEFF8E293C0092E0594DE
:105200001AF479D0112392F4F0E80F26FFEFE0941E
:10521000F09400951095B094C094D094A194BF0AD6
:10522000CF0ADF0AEF0AFF0A0F0B1F0B13D007FC90
:1052300062D0CDB7DEB7ECE090C0689401C0E894CE
:105240008F929F92CF93DF9305D0DF91CF919F9064
:105250008F90089588249924F401E401B0E49F9389
:10526000AA279A158B049C04ED05FE05CF05D007EF
:10527000A10798F4AD2FDC2FCF2FFE2FE92D982C0E
:10528000892E982F872F762F652F542F432F322F5B
:105290002227B85031F7BF9127C01B2EBF91BB27E3
:1052A000220F331F441F551F661F771F881F991F2A
:1052B000881C991CEE1FFF1FCC1FDD1FAA1FBB1FE0
:1052C0008A149B04EC05FD05CE05DF05A007B10798
:1052D00048F08A189B08EC09FD09CE09DF09A00BEC
:1052E000B10B21601A94E1F62EF49401AF01BE01D6
:1052F000CD01000C0895609570958095909530953E
:105300004095509521953F4F4F4F5F4F6F4F7F4FC7
:105310008F4F9F4F08952F923F924F925F926F92BF
:105320007F928F929F92AF92BF92CF92DF92EF9235
:10533000FF920F931F93CF93DF93CDB7DEB7CA1BB6
:10534000DB0B0FB6F894DEBF0FBECDBF19942A88D1
:10535000398848885F846E847D848C849B84AA8489
:10536000B984C884DF80EE80FD800C811B81AA8116
:10537000B981CE0FD11D0FB6F894DEBF0FBECDBFE1
:10538000ED0108950F93083090F0982F872F762F16
:10539000652F542F432F322F22270850F4CF220F8E
:1053A000331F441F551F661F771F881F991F0A95BB
:1053B000B2F70F9108952A0D3B1D4C1D5D1D6E1D0A
:1053C0007F1D801F911F08950024A7FD00942A0FC0
:1053D000301D401D501D601D701D801D901D0895C5
:1053E0002A193B094C095D096E097F09800B910B55
:1053F00008952A153B054C055D056E057F05800760
:10540000910708950024A7FD00942A173005400550
:1054100050056005700580059005089581E090E0D5
:10542000F894B3C391113AC2803219F08950855073
:10543000D0F708959111089581568A5108F4805249
:1054400085580895FB01DC014150504048F001901F
:105450000D920020C9F701C01D9241505040E0F765
:1054600008950F931F93CF93DF93CDB7DEB72E9799
:105470000FB6F894DEBF0FBECDBF0E891F8986E040
:105480008C831A8309838FEF9FE79E838D83AE0100
:10549000465E5F4F688D798DCE01019611D02F81C8
:1054A0003885F801E20FF31F10822E960FB6F8949C
:1054B000DEBF0FBECDBFDF91CF911F910F91089539
:1054C0002F923F924F925F926F927F928F929F9214
:1054D000AF92BF92CF92DF92EF92FF920F931F9302
:1054E000CF93DF93CDB7DEB72C970FB6F894DEBF1E
:1054F0000FBECDBF7C016B018A01FC0117821682B1
:10550000838181FFB0C1CE0101964C01F7019381E7
:10551000F60193FD859193FF81916F01882309F432
:105520009EC1853239F493FD859193FF81916F017E
:10553000853221F4B70190E0CAD1E8CF512C312C4B
:1055400020E02032A0F48B3269F030F4803259F040
:10555000833269F420612CC08D3239F0803339F404
:10556000216026C02260246023C0286021C027FD5E
:1055700027C030ED380F3A3078F426FF06C0FAE045
:105580005F9E300D1124532E13C08AE0389E300DDB
:105590001124332E20620CC08E3221F426FD5FC10F
:1055A000206406C08C3611F4206802C0883641F4AD
:1055B000F60193FD859193FF81916F018111C1CF18
:1055C000982F9F7D9554933028F40C5F1F4FFFE375
:1055D000F9830DC0833631F0833771F0833509F0DC
:1055E00057C021C0F801808189830E5F1F4F44247A
:1055F0004394512C540114C03801F2E06F0E711C19
:10560000F801A080B18026FF03C0652D70E002C0C4
:105610006FEF7FEFC5012C874FD12C0183012C85C3
:105620002F77222E16C03801F2E06F0E711CF801A0
:10563000A080B18026FF03C0652D70E002C06FEF2F
:105640007FEFC5012C872DD12C012C852068222EBF
:10565000830123FC19C0832D90E048165906A0F45D
:10566000B70180E290E033D13A94F5CFF50127FC01
:10567000859127FE81915F01B70190E028D131101B
:105680003A94F1E04F1A51084114510479F7DEC001
:10569000843611F0893631F5F80127FF07C06081A3
:1056A0007181828193810C5F1F4F08C0608171817D
:1056B000072E000C880B990B0E5F1F4F2F76722E52
:1056C00097FF09C090958095709561957F4F8F4F9A
:1056D0009F4F2068722E2AE030E0A40130D1A82E1E
:1056E000A81843C0853729F42F7EB22E2AE030E077
:1056F00025C0F22FF97FBF2E8F36C1F018F4883500
:1057000079F0ADC0803719F0883721F0A8C02F2F6D
:105710002061B22EB4FE0DC08B2D8460B82E09C05E
:1057200024FF0AC09F2F9660B92E06C028E030E003
:1057300005C020E130E002C020E132E0F801B7FE10
:1057400007C060817181828193810C5F1F4F06C009
:105750006081718180E090E00E5F1F4FA401EFD067
:10576000A82EA818FB2DFF777F2E76FE0BC0372DB5
:105770003E7FA51450F474FE0AC072FC08C0372D99
:105780003E7E05C0BA2C372D03C0BA2C01C0B52C03
:1057900034FF0DC0FE01EA0DF11D8081803311F44C
:1057A000397E09C032FF06C0B394B39404C0832F7E
:1057B000867809F0B39433FD12C030FF06C05A2C2E
:1057C000B31418F4530C5B18B32CB31460F4B70182
:1057D00080E290E03C877BD0B3943C85F6CFB31455
:1057E00010F43B1801C0312C34FF11C0B70180E325
:1057F00090E03C876CD03C8532FF16C031FD03C081
:1058000088E790E002C088E590E0B7010CC0832FE4
:10581000867851F031FF02C08BE201C080E237FD93
:105820008DE2B70190E053D0A51430F4B70180E3C6
:1058300090E04DD05A94F8CFAA94F401EA0DF11DEE
:105840008081B70190E043D0A110F6CF332009F456
:105850005DCEB70180E290E03AD03A94F7CFF701FD
:105860008681978102C08FEF9FEF2C960FB6F89438
:10587000DEBF0FBECDBFDF91CF911F910F91FF9083
:10588000EF90DF90CF90BF90AF909F908F907F90E0
:105890006F905F904F903F902F90089599278827A1
:1058A0000895FC010590615070400110D8F7809573
:1058B00090958E0F9F1F0895FC01615070400190DC
:1058C0000110D8F7809590958E0F9F1F08950F9324
:1058D0001F93CF93DF93FB01238121FD03C08FEF43
:1058E0009FEF28C022FF16C0468157812481358151
:1058F0004217530744F4A081B1819D012F5F3F4FB0
:10590000318320838C93268137812F5F3F4F3783EC
:10591000268310C0EB01092F182F0084F185E02D9C
:105920001995892BE1F68E819F8101969F838E8345
:10593000812F902FDF91CF911F910F910895FA0140
:10594000AA27283051F1203181F1E8946F936E7FBE
:105950006E5F7F4F8F4F9F4FAF4FB1E03ED0B4E0AF
:105960003CD0670F781F891F9A1FA11D680F791FF0
:105970008A1F911DA11D6A0F711D811D911DA11D01
:1059800020D009F468943F912AE0269F1124301911
:10599000305D3193DEF6CF010895462F4770405DAC
:1059A0004193B3E00FD0C9F7F6CF462F4F70405D5B
:1059B0004A3318F0495D31FD4052419302D0A9F7B6
:1059C000EACFB4E0A6959795879577956795BA95B0
:1059D000C9F700976105710508959B01AC010A2E76
:1059E00006945795479537952795BA95C9F7620F4D
:1059F000731F841F951FA01D08958F929F92AF92D1
:105A0000BF92CF92DF92EF92FF92CF93DF93EC01A0
:105A1000688179818A819B81611571058105910574
:105A200021F464E279ED8BE597E02DE133EF41E07D
:105A300050E04ED049015A019B01AC01A7EAB1E404
:105A400063D06B017C01ACEEB4EFA501940168D08A
:105A5000DC01CB018C0D9D1DAE1DBF1DB7FF03C02A
:105A60000197A109B04888839983AA83BB83BC01AD
:105A7000CD019F77DF91CF91FF90EF90DF90CF9096
:105A8000BF90AF909F908F900895B7CF88E092E03D
:105A9000B4CF609308027093090280930A02909336
:105AA0000B020895F999FECF92BD81BDF89A99270E
:105AB00080B50895262FF999FECF1FBA92BD81BDFA
:105AC00020BD0FB6F894FA9AF99A0FBE0196089580
:105AD000052E97FB16F400940FD057FD05D024D067
