:1000000053C100000C94990B0C946E0B0C94430B91
:100010000C94180B0C94ED0A0C94C20A0C94970AD9
:100020000C946C0A0C94F7090C9488090C9412092E
:100030006CC100006AC1000068C1000066C1000018
:1000400064C1000062C1000060C100005EC1000028
:100050005CC100005AC1000058C100008AC4000001
:1000600054C1000085C300005AC300004EC1000007
:100070004CC100004AC1000048C1000046C1000058
:1000800044C1000042C1000040C100003EC1000068
:100090003CC100003AC1000038C1000036C1000078
:1000A00034C1000032C1000030C100002EC1000088
:1000B0002CC100002AC1000028C1000026C1000098
:1000C00024C1000022C1000020C100001EC10000A8
:1000D0001CC100001AC1000018C1000016C10000B8
:1000E00014C10000E0163619EF188E19E119271B0C
:1000F000271B271B271B271B6715271B271B0618DA
:10010000271B521AB0155F18271B271B201B271B04
:10011000D4182C1BC302C602B502B902BF02FD02ED
:10012000CA02CE02D402D802DC02E202E602EA02ED
:10013000FD02F002F402F802000021002400270072
:100140002A002D00300033000101000004010701E6
:100150000A010102102020080810204010204080D1
:10016000020102010804020101020408102040807B
:100170008040201008040201800402018040201009
:100180000804020108040201010204081020408052
:100190000102040810204080050505050705080830
:1001A0000808020202020A0A080804040404010101
:1001B0000101010101010303030303030303040716
:1001C00007070C0C0C0C0C0C0C0C020202020606AD
:1001D0000606060606060B0B0B0B0B0B0B0B0001A2
:1001E00004050503030405060405060701000100D4
:1001F00003020100000102030405060707060504C7
:1002000003020100070201000706050403020100C2
:1002100003020100000102030405060700010203B6
:100220000405060702030405060607000022002550
:100230000028002B002E00310034000201000005D0
:100240000108010B01000020002300260029002CDA
:10025000002F003200000100000301060109010027
:10026000000A0B02090C0D0E080703040100000030
:10027000000000000000000000000000000000007E
:10028000000000000000000000000012111000003B
:10029000000000000000000000000000000000005E
:1002A000000000000000752411241FBECFEFD1E232
:1002B000DEBFCDBF00E00CBF1BE0A0E0B2E0E6E88F
:1002C000F3E500E00BBF02C007900D92A03FB1071D
:1002D000D9F72EE0A0EFBBE001C01D92A63FB20708
:1002E000E1F711E0C4E5D1E000E006C02197010983
:1002F000802FFE010E944125C335D10780E0080709
:10030000A9F70E940D110C94C1297ACECF92DF92E9
:10031000EF92FF920F931F93CF93DF936C017A01BB
:100320008B01C0E0D0E0CE15DF0589F0D8016D91DA
:100330008D01D601ED91FC910190F081E02DC60177
:100340001995892B11F47E0102C02196ECCFC701CB
:10035000DF91CF911F910F91FF90EF90DF90CF90A1
:100360000895FC01918D828D981761F0828DDF01D7
:10037000A80FB11D5D968C91928D9F5F9F73928F98
:1003800090E008958FEF9FEF0895FC01918D828D8D
:10039000981731F0828DE80FF11D858D90E008955A
:1003A0008FEF9FEF0895FC01918D228D892F90E0B2
:1003B000805C9F4F821B91098F739927089587EF67
:1003C0009CE0F1DF21E0892B09F420E0822F0895E1
:1003D000FC01848DDF01A80FB11DA35ABF4F2C91E2
:1003E000848D90E001968F739927848FA689B789B1
:1003F0002C93A089B1898C9180648C93938D848D8A
:10040000981306C00288F389E02D80818F7D808358
:100410000895EF92FF920F931F93CF93DF93EC0118
:1004200081E0888F9B8D8C8D981305C0E889F989B0
:10043000808185FD23C0F62E0B8D10E00F5F1F4FCE
:100440000F731127E02E8C8DE8120BC00FB607FC3E
:10045000FACFE889F989808185FFF5CFCE01B8DF31
:10046000F2CF8B8DFE01E80FF11DE35AFF4FF082B2
:100470000B8FEA89FB898081806207C0EE89FF8942
:100480006083E889F98980818064808381E090E0DD
:10049000DF91CF911F910F91FF90EF900895CF932F
:1004A000DF93EC01888D8823C1F0EA89FB89808184
:1004B00085FD05C0A889B9898C9186FD0EC00FB64F
:1004C00007FCF5CF808185FFF2CFA889B9898C918F
:1004D00085FFEDCFCE017CDFE8CFDF91CF9108958E
:1004E00080E090E0892B19F06ADF811125C080E05F
:1004F00090E0892B41F080E090E0892B21F00E9470
:10050000000081111CC080E090E0892B41F080E068
:1005100090E0892B21F00E940000811113C080E03F
:1005200090E0892BA1F080E090E0892B81F00E947F
:10053000000081110AC008950E940000D8CF0E94D7
:100540000000E1CF0E940000EACF0C940000089563
:1005500090E0FC013197E231F10508F04EC08827A8
:10056000E657FF4F8F4F0C944125809180008F7785
:1005700003C0809180008F7D8093800008958091DA
:100580008000877FF9CF84B58F7702C084B58F7DD7
:1005900084BD08958091B0008F7703C08091B00032
:1005A0008F7D8093B0000895809190008F7707C071
:1005B000809190008F7D03C080919000877F809311
:1005C000900008958091A0008F7707C08091A000CF
:1005D0008F7D03C08091A000877F8093A000089545
:1005E000809120018F7707C0809120018F7D03C00B
:1005F00080912001877F8093200108953FB7F89470
:100600008091650C9091660CA091670CB091680C7C
:1006100026B5A89B05C02F3F19F00196A11DB11D5D
:100620003FBFBA2FA92F982F8827820F911DA11D98
:10063000B11DBC01CD0142E0660F771F881F991FD5
:100640004A95D1F708958FB7F89480915F0C8FBFCA
:1006500008958EBD00000DB407FEFDCF8EB5089540
:100660008CBD9DBD08957091F00B6091F10B509180
:10067000F20B4091F30B3091F40B2091F50B90911C
:10068000F60B8091F70BEAE2FEE070836183528300
:100690004383348325839683878308957091F00B79
:1006A0006091F10B5091F20B4091F30B3091F40BF0
:1006B0002091F50B9091F60B8091F70BE4E9FDE0AA
:1006C00073A364A355A346A337A320A791A782A72A
:1006D00008952091F00B3091F10B4091F20B509165
:1006E000F30B6091F40B7091F50B8091F60B9091E8
:1006F000F70BA1E00E948C262093F00B3093F10BB6
:100700004093F20B5093F30B6093F40B7093F50B43
:100710008093F60B9093F70B08950E94BC261F92CE
:100720000F920FB60F9211240BB60F922F933F9397
:100730004F935F936F937F938F939F93AF93BF93E9
:10074000EF93FF9387EF9CE043DEFF91EF91BF9122
:10075000AF919F918F917F916F915F914F913F9159
:100760002F910F900BBE0F900FBE0F901F901895FA
:100770001F920F920FB60F9211240BB60F922F9368
:100780008F939F93EF93FF93E091070DF091080DE6
:100790008081E0910D0DF0910E0D82FD12C09081CF
:1007A0008091100D8F5F8F732091110D821751F082
:1007B000E091100DF0E0E950F34F958F8093100D0C
:1007C00001C08081FF91EF919F918F912F910F90A8
:1007D0000BBE0F900FBE0F901F901895CF93DF9315
:1007E000282F30E0F901E15AFD4F8491F901EE5ACA
:1007F000FE4FD491F901E856FE4FC491CC2389F005
:100800008111A6DEEC2FF0E0EE0FFF1FEB5BFD4F3A
:10081000A591B491EC91ED2381E090E021F480E08A
:1008200002C080E090E0DF91CF9108951F93CF93B5
:10083000DF93282F30E0F901E15AFD4F8491F9014F
:10084000EE5AFE4FD491F901E856FE4FC491CC23E5
:10085000C1F0162F81117CDEEC2FF0E0EE0FFF1FB0
:10086000E55DFD4FA591B4918FB7F894111105C0C6
:100870009C91ED2FE095E92302C0EC91ED2BEC93D8
:100880008FBFDF91CF911F910895CF93DF9390E0B9
:10089000FC01EE5AFE4F2491FC01E856FE4F849174
:1008A000882361F190E0880F991FFC01E85CFE4FFE
:1008B000C591D491FC01E55DFD4FA591B491611105
:1008C00009C09FB7F8948881209582238883EC9192
:1008D0002E230BC0623061F49FB7F8943881822FC9
:1008E000809583238883EC912E2B2C939FBF06C089
:1008F0008FB7F894E8812E2B28838FBFDF91CF919B
:1009000008958F929F92AF92BF92CF92DF92EF9213
:10091000FF926B017C0172DE4B015C01C114D104BA
:10092000E104F104E9F06ADEDC01CB0188199909E0
:10093000AA09BB09883E9340A105B10578F321E0DF
:10094000C21AD108E108F10888EE880E83E0981EEB
:10095000A11CB11CC114D104E104F10421F7DECFC4
:10096000FF90EF90DF90CF90BF90AF909F908F90CF
:1009700008951F920F920FB60F9211242F933F9359
:100980008F939F93AF93BF938091610C9091620C72
:10099000A091630CB091640C3091600C23E0230FA4
:1009A0002D3720F40196A11DB11D05C026E8230FA7
:1009B0000296A11DB11D2093600C8093610C909351
:1009C000620CA093630CB093640C8091650C9091C1
:1009D000660CA091670CB091680C0196A11DB11D29
:1009E0008093650C9093660CA093670CB093680C91
:1009F000BF91AF919F918F913F912F910F900FBE1B
:100A00000F901F901895FF920F931F93CF93DF9332
:100A10001F92CDB7DEB78C01F62E80E591E04983B9
:100A20001FDE60E0F801878D01DF8F2D8064498132
:100A300050E0582B0CB405FC0CC05EBD00000DB49A
:100A400007FEFDCF8EB54EBD00000DB407FEFDCFF5
:100A50000BC04EBD00000DB407FEFDCF8EB55EBDD0
:100A600000000DB407FEFDCF8EB561E0F801878D63
:100A70000F90DF91CF911F910F91FF90D7CE0F93E1
:100A80001F93CF93DF938C01C62F80E591E0E8DDC3
:100A900060E0F801878DCADE8C2F8F71DADD80E08F
:100AA000D8DD80E0D6DDC82F80E0D3DD6C2F70E08C
:100AB000762F6627EB01C80FD11D61E0F801878D05
:100AC000B5DE8FE090E00197F1F7BE0180E090E0A5
:100AD000DF91CF911F910F9108952F923F924F92E6
:100AE0005F926F927F928F929F92AF92BF92CF92BE
:100AF000DF92EF92FF920F931F93CF93DF93CDB7C7
:100B0000DEB7C859D1090FB6F894DEBF0FBECDBF0E
:100B1000C757DF4F2883C958D040C657DF4F3883A7
:100B2000CA58D040C557DF4F4883CB58D040C45730
:100B3000DF4F5883CC58D040C357DF4F6883CD5820
:100B4000D040C257DF4F7883CE58D040C157DF4FD7
:100B50008883CF58D040C057DF4F9883C059D040CA
:100B6000A12CE0E1BE2EF5EACF2EA4EDDA2EB8EEF0
:100B7000EB2EF12C00E010E00E949C25CF56DF4FB9
:100B80002883C159D040CE56DF4F3883C259D04058
:100B9000CD56DF4F4883C359D040CC56DF4F5883E2
:100BA000C459D040CB56DF4F6883C559D040CA5690
:100BB000DF4F7883C659D040C956DF4F8883C75965
:100BC000D040C856DF4F9883C859D0400E9449256D
:100BD00059016A017B018C01C757DF4F2881C95831
:100BE000D040C657DF4F3881CA58D040C557DF4F75
:100BF0004881CB58D040C457DF4F5881CC58D040A3
:100C0000C357DF4F6881CD58D040C257DF4F78813E
:100C1000CE58D040C157DF4F8881CF58D040C05701
:100C2000DF4F9881C059D0400E94982629013A018F
:100C30004B011C01A0E00E94A12634F40E9423264F
:100C400029013A014B011C0190E4A92E22E4B22EA5
:100C50003FE0C32ED12CE12CF12C00E010E09201FA
:100C6000A301B401C1010E949C25CF57DF4F288307
:100C7000C158D040CE57DF4F3883C258D040CD57EF
:100C8000DF4F4883C358D040CC57DF4F5883C458F8
:100C9000D040CB57DF4F6883C558D040CA57DF4F8D
:100CA0007883C658D040C957DF4F8883C758D04093
:100CB000C857DF4F9883C858D04005E00E946A2685
:100CC000CF57DF4FA880C158D040CE57DF4FB880F4
:100CD000C258D040CD57DF4FC880C358D040CC5702
:100CE000DF4FD880C458D040CB57DF4FE880C5587D
:100CF000D040CA57DF4FF880C658D040C957DF4FA1
:100D00000881C758D040C857DF4F1881C858D04015
:100D10000E94982659016A017B01E82F192F06E0ED
:100D20000E946A260E2F0E94982603E00E946A26DF
:100D3000CF57DF4FA880C158D040CE57DF4FB88083
:100D4000C258D040CD57DF4FC880C358D040CC5791
:100D5000DF4FD880C458D040CB57DF4FE880C5580C
:100D6000D040CA57DF4FF880C658D040C957DF4F30
:100D70000881C758D040C857DF4F1881C858D040A5
:100D80000E94832606E00E946A2659016A017B01BF
:100D90008C019201A301B401C1010E949826722E18
:100DA000632E542E452E362E272EF82EE92EC757A9
:100DB000DF4F2881C958D040C657DF4F3881CA5805
:100DC000D040C557DF4F4881CB58D040C457DF4F84
:100DD0005881CC58D040C357DF4F6881CD58D040A0
:100DE000C257DF4F7881CE58D040C157DF4F88813E
:100DF000CF58D040C057DF4F9881C059D040A0E0B5
:100E00000E94A1261CF480EE9BE061D6C856DF4FFD
:100E10008881C859D0408F93C956DF4F9881C759F0
:100E2000D0409F93CA56DF4F8881C659D0408F93D8
:100E3000CB56DF4F9881C559D0409F93CC56DF4F9A
:100E40008881C459D0408F93CD56DF4F9881C359C4
:100E5000D0409F93CE56DF4F8881C259D0408F93A8
:100E6000CF56DF4F9881C159D0409F9382EE9BE0CF
:100E70009F938F938E010F5F1F4F1F930F930E94BD
:100E8000DF26C80124D6C857DF4F8881C858D04014
:100E90008F93C957DF4F9881C758D0409F93CA5747
:100EA000DF4F8881C658D0408F93CB57DF4F988152
:100EB000C558D0409F93CC57DF4F8881C458D0404D
:100EC0008F93CD57DF4F9881C358D0409F93CE5713
:100ED000DF4F8881C258D0408F93CF57DF4F988122
:100EE000C158D0409F9387EE882E8BE0982E9F921A
:100EF0008F921F930F930E94DF26C801E8D5EF92CF
:100F0000FF922F923F924F925F926F927F929F92A9
:100F10008F921F930F930E94DF260FB6F894DEBFC7
:100F20000FBECDBFC801D3D5C856DF4F0FB6F8945A
:100F3000DEBF0FBECDBFDF91CF911F910F91FF900C
:100F4000EF90DF90CF90BF90AF909F908F907F9069
:100F50006F905F904F903F902F900895EF92FF9287
:100F60000F931F93CF93DF937C018B01C0E0D0E000
:100F7000F80161918F01CE018E0D9F1D0E94B32952
:100F80002196CC36D105A1F78CE690E0DF91CF9188
:100F90001F910F91FF90EF9008952F923F924F92E3
:100FA0005F926F927F928F929F92AF92BF92CF92F9
:100FB000DF92EF92FF920F931F93CF93DF93CDB702
:100FC000DEB7C958D1090FB6F894DEBF0FBECDBF4A
:100FD00019012A01CF57DF4F6883C158D040CE573F
:100FE000DF4F7883C258D040CD57DF4F8883C35836
:100FF000D040CC57DF4F9883C458D04020E4A22E75
:1010000032E4B32E4FE0C42ED12CE12CF12C00E0C1
:1010100010E09101A2010E949C25B22FE32FF42F32
:10102000A52F3B014C0105E00E946A26AB2EBE2E87
:10103000CF2EDA2E730184010E94982659016A018D
:101040007B01CB57DF4F8883C558D040192F06E06E
:101050000E946A26CB57DF4F0881C558D0400E94B6
:10106000982603E00E946A26AB2EBE2ECF2EDA2EE3
:10107000730184010E94832606E00E946A265901BA
:101080006A017B018C019101A201CF57DF4F68817A
:10109000C158D040CE57DF4F7881C258D040CD578D
:1010A000DF4F8881C358D040CC57DF4F9881C45858
:1010B000D0400E949826AF93FF93EF93BF9382EEA8
:1010C0009BE09F938F938E010F5F1F4F1F930F9392
:1010D000CA57DF4F2883C658D040C957DF4F3883DF
:1010E000C758D040C857DF4F4883C858D040C7576B
:1010F000DF4F5883C958D0400E94DF26C801E7D48B
:10110000C757DF4F5881C958D0405F93C857DF4F4A
:101110004881C858D0404F93C957DF4F3881C758CE
:10112000D0403F93CA57DF4F2881C658D0402F93F5
:1011300087EE9BE09F938F931F930F930E94DF2670
:10114000C801C5D40FB6F894DEBF0FBECDBFC757D8
:10115000DF4F0FB6F894DEBF0FBECDBFDF91CF914A
:101160001F910F91FF90EF90DF90CF90BF90AF90C5
:101170009F908F907F906F905F904F903F902F90B7
:101180000895CF9387EF9CE00ED9892BD9F387EF91
:101190009CE0E7D8C82F9CD48C2FCF910895CF9393
:1011A0001092F40C1092F30CCDE0EBDF2091F30CD5
:1011B0003091F40C2E37310524F48A3011F08D3043
:1011C00091F4C90101969093F40C8093F30CF9010A
:1011D000ED58F34FC083FC01ED58F34F1082029796
:1011E00024F3CF910895883089F480E271D488E0A7
:1011F0006FD48091F30C9091F40C18161906ACF68C
:1012000001979093F40C8093F30CCFCFA9014F5F1B
:101210005F4F5093F40C4093F30CF901ED58F34FEA
:101220008083C3CF1F920F920FB60F9211240BB67B
:101230000F922F933F934F935F936F937F938F936F
:101240009F93AF93BF93CF93EF93FF9320910601AA
:10125000C0915E0C90915D0C80915C0C322F3095AA
:1012600083239223892B90916D00C227C923C82321
:1012700020935E0CCC23C1F1C0FF05C0E0914C0C63
:10128000F0914D0C1995C1FF05C0E0914E0CF09105
:101290004F0C1995C2FF05C0E091500CF091510C14
:1012A0001995C3FF05C0E091520CF091530C1995AC
:1012B000C4FF05C0E091540CF091550C1995C5FF81
:1012C00005C0E091560CF091570C1995C6FF05C06A
:1012D000E091580CF091590C1995C7FF05C0E091A9
:1012E0005A0CF0915B0C1995FF91EF91CF91BF9142
:1012F000AF919F918F917F916F915F914F913F91AE
:101300002F910F900BBE0F900FBE0F901F9018954E
:101310001F920F920FB60F9211240BB60F922F93BC
:101320003F934F935F936F937F938F939F93AF936D
:10133000BF93CF93EF93FF9320910301C0914B0C88
:1013400090914A0C8091490C322F3095832392233F
:10135000892B9091480CC227C923C82320934B0C9A
:10136000CC2389F1C0FF05C0E0913A0CF0913B0C11
:101370001995C1FF05C0E0913C0CF0913D0C199509
:10138000C2FF05C0E0913E0CF0913F0C1995C3FFE0
:1013900005C0E091400CF091410C1995C4FF05C0C7
:1013A000E091420CF091430C1995C5FF05C0E09106
:1013B000440CF091450C1995C6FF05C0E091460C10
:1013C000F091470C1995FF91EF91CF91BF91AF919B
:1013D0009F918F917F916F915F914F913F912F914D
:1013E0000F900BBE0F900FBE0F901F9018951F927D
:1013F0000F920FB60F9211240BB60F922F933F93BB
:101400004F935F936F937F938F939F93AF93BF930C
:10141000CF93EF93FF9323B1C091390C9091380C87
:101420008091370C322F309583239223892B909112
:101430006B00C227C923C8232093390CCC23C1F1E8
:10144000C0FF05C0E091270CF091280C1995C1FF51
:1014500005C0E091290CF0912A0C1995C2FF05C036
:10146000E0912B0CF0912C0C1995C3FF05C0E09175
:101470002D0CF0912E0C1995C4FF05C0E0912F0C96
:10148000F091300C1995C5FF05C0E091310CF09139
:10149000320C1995C6FF05C0E091330CF091340C65
:1014A0001995C7FF05C0E091350CF091360C1995E0
:1014B000FF91EF91CF91BF91AF919F918F917F91CC
:1014C0006F915F914F913F912F910F900BBE0F90B5
:1014D0000FBE0F901F9018951F920F920FB60F928C
:1014E00011240BB60F922F933F934F935F936F93FB
:1014F0007F938F939F93AF93BF93EF93FF93E0916D
:10150000250CF091260C1995FF91EF91BF91AF91A9
:101510009F918F917F916F915F914F913F912F910B
:101520000F900BBE0F900FBE0F901F9018951F923B
:101530000F920FB60F9211240BB60F922F933F9379
:101540004F935F936F937F938F939F93AF93BF93CB
:10155000EF93FF93E091230CF091240C1995FF91E8
:10156000EF91BF91AF919F918F917F916F915F911B
:101570004F913F912F910F900BBE0F900FBE0F9088
:101580001F9018951F920F920FB60F9211240BB651
:101590000F922F933F934F935F936F937F938F930C
:1015A0009F93AF93BF93EF93FF93E091210CF09142
:1015B000220C1995FF91EF91BF91AF919F918F915F
:1015C0007F916F915F914F913F912F910F900BBE43
:1015D0000F900FBE0F901F9018951F920F920FB68D
:1015E0000F9211240BB60F922F933F934F935F935B
:1015F0006F937F938F939F93AF93BF93EF93FF93DB
:10160000E0911F0CF091200C1995FF91EF91BF9183
:10161000AF919F918F917F916F915F914F913F918A
:101620002F910F900BBE0F900FBE0F901F9018952B
:101630001F920F920FB60F9211240BB60F922F9399
:101640003F934F935F936F937F938F939F93AF934A
:10165000BF93EF93FF93E0911D0CF0911E0C199531
:10166000FF91EF91BF91AF919F918F917F916F917A
:101670005F914F913F912F910F900BBE0F900FBE36
:101680000F901F9018951F920F920FB60F92112472
:101690000BB60F922F933F934F935F936F937F936C
:1016A0008F939F93AF93BF93EF93FF93E0911B0CA6
:1016B000F0911C0C1995FF91EF91BF91AF919F9103
:1016C0008F917F916F915F914F913F912F910F90EB
:1016D0000BBE0F900FBE0F901F9018951F920F9288
:1016E0000FB60F9211240BB60F922F933F934F9387
:1016F0005F936F937F938F939F93AF93BF93EF937A
:10170000FF93E091190CF0911A0C1995FF91EF914C
:10171000BF91AF919F918F917F916F915F914F9109
:101720003F912F910F900BBE0F900FBE0F901F9007
:1017300018951F920F920FB60F9211240BB60F92AD
:101740002F933F934F935F936F937F938F939F93C9
:10175000AF93BF93EF93FF93E091170CF091180CA8
:101760001995FF91EF91BF91AF919F918F917F91CB
:101770006F915F914F913F912F910F900BBE0F9002
:101780000FBE0F901F901895542F8F779EEF980FD4
:10179000923008F4B6C095EB980F923008F4B1C0BF
:1017A0009EEE980F943008F4ACC0282F30E0F90179
:1017B000863438F0E45BFE4F8491433009F063C116
:1017C00015C0EE5AFE4F8491F901E856FE4F9491F0
:1017D000433011F04130B9F4923031F44091380C7B
:1017E000482B4093380C0FC09A3031F490914A0C3A
:1017F000982B90934A0C4AC19B3029F440915D0C80
:10180000482B40935D0C4FEF450F4230B8F49230B7
:1018100031F44091370C482B4093370C0FC09A306D
:1018200031F44091490C482B4093490C07C09B3040
:1018300029F440915C0C482B40935C0CF901E25276
:10184000FE4FA4919230C1F4B0E0AA0FBB1FA95D76
:10185000B34F6D937C93E9E4F2E0A591B4919C9130
:101860009093390C2BE630E03093160C2093150C36
:101870009091680091603BC09A3001F5B0E0AA0FEA
:10188000BB1FA65CB34F6D937C93E9E5F2E0A59195
:10189000B4919C9190934B0C2CE630E03093160C55
:1018A0002093150C9091680092609093680090913D
:1018B000480C982B9093480C880F1BC09B30C9F4A0
:1018C000B0E0AA0FBB1FA45BB34F6D937C93EBE515
:1018D000F2E0A591B4919C9190935E0C2DE630E0DE
:1018E0003093160C2093150C90916800946090939F
:1018F0006800A091150CB091160CEC918E2B8C9376
:1019000008959FB7F894833109F464C0E0F48330FC
:1019100009F48CC0823109F473C0823009F0B1C07F
:101920007093200C60931F0CEC9880916A008C7F60
:1019300080936A0080916A00452F482B40936A008B
:10194000E49AEC9A9EC08531E9F070F18B3409F489
:1019500083C08C3409F095C07093260C6093250CDD
:10196000EF9880916A008F7380936A0080916A007B
:1019700020E4529FA0011124482B40936A00E79A6B
:10198000EF9A7FC07093180C6093170CE8988091C1
:1019900069008C7F8093690040916900452B4093DA
:1019A0006900E09AE89A6DC070931A0C6093190C64
:1019B000E99880916900837F809369008091690034
:1019C00024E0529FA0011124482B40936900E19A22
:1019D000E99A57C070931C0C60931B0CEA98809195
:1019E00069008F7C809369008091690020E1529F9B
:1019F000A0011124482B40936900E29AEA9A41C061
:101A000070931E0C60931D0CEB98809169008F738E
:101A1000809369008091690020E4529FA001112405
:101A2000482B40936900E39AEB9A2BC07093220CE9
:101A30006093210CED9880916A00837F80936A0007
:101A400080916A0024E0529FA0011124482B40930A
:101A50006A00E59AED9A15C07093240C6093230CEC
:101A6000EE9880916A008F7C80936A0080916A0072
:101A700020E1529FA0011124482B40936A00E69A6E
:101A8000EE9A9FBF0895413009F4B0CE9AE0BBCEE4
:101A9000009769F0FC0101900020E9F73197AF0150
:101AA000481B590BBC0187EF9CE00C94860180E039
:101AB00090E008958DEE9BE0EBCFCF93DF93E8DFCE
:101AC000EC01F8DF8C0F9D1FDF91CF910895E0CFDF
:101AD000E091F70CF091F80C0190F081E02D682F67
:101AE00087EF9CE019948091F50C9091F60C209171
:101AF000F30C3091F40C82179307ACF4FC01ED5811
:101B0000F34F8081E5DF8091F50C9091F60C9C01FC
:101B10002F5F3F4F3093F60C2093F50CFC01ED58EE
:101B2000F34F808108952DCBCF93DF93D1DFEC016C
:101B3000C1DF8C0F9D1FDF91CF9108958F929F92EF
:101B4000AF92BF920F931F93CF93DF93CDB7DEB7C2
:101B5000A1970FB6F894DEBF0FBECDBF19A24230D9
:101B600008F44AE08E010F5D1F4F842E912CA12CAA
:101B7000B12CA50194010E941F25E62FB901CA01CD
:101B800001501109EA3014F4E05D01C0E95CD801AC
:101B9000EC93232B242B252B61F7C80179DFA19629
:101BA0000FB6F894DEBF0FBECDBFDF91CF911F916E
:101BB0000F91BF90AF909F908F900895CF92DF923A
:101BC000EF92FF92CF93DF9397FF17C06B017C01D9
:101BD0008DE27EDFEC0166277727CB016C197D094A
:101BE0008E099F094AE0AADF8C0F9D1FDF91CF91DC
:101BF000FF90EF90DF90CF9008954AE0DF91CF9172
:101C0000FF90EF90DF90CF9099CF2F923F924F921D
:101C10005F926F927F928F929F92AF92BF92CF927C
:101C2000DF92EF92FF920F931F93CF93DF93CDB785
:101C3000DEB72E970FB6F894DEBF0FBECDBF9A83E6
:101C400089831092EE0E1092EF0E1092F00E109209
:101C5000F10E1092F20E1092F30E1092F40E1092FA
:101C6000F50E1092E60E1092E70E1092E80E10920A
:101C7000E90E1092EA0E1092EB0E1092EC0E1092FA
:101C8000ED0E10926B0C10926C0C10926D0C109269
:101C90006E0C10926F0C1092700C1092710C1092CE
:101CA000720C81E0809300021092010210920202F5
:101CB0001092030210920402109205021092060282
:101CC0001092070210926A0C1092690C0CDF182F08
:101CD000082E000C990B0E94C026892BB9F71B32E5
:101CE00019F401DF182F09C01D3239F4FCDE182F5A
:101CF00081E090E09C878B8702C01C861B86EE24C7
:101D0000E394F12C103339F4EEDE182FF0926A0CC4
:101D1000E092690CF7CF812F012E000C990BC09730
:101D20000A9708F057C022242394312CE12F012E6A
:101D3000000CFF0BF097EA30F10508F048C0309234
:101D40006A0C2092690C2091EE0E3091EF0E4091BA
:101D5000F00E5091F10E6091F20E7091F30E8091A1
:101D6000F40E9091F50E01E00E946A2629013A01D5
:101D70004B01B82FA92F02E00E946A2659016A017F
:101D80007B018C019201A301B4018B2F9A2F0E9439
:101D900083261F2F110F110B5F01C12ED12EE12EB3
:101DA000F12E012F0E9483262093EE0E3093EF0E2A
:101DB0004093F00E5093F10E6093F20E7093F30E79
:101DC0008093F40E9093F50E8EDE182FAFCF1E8603
:101DD0001D8610C01E3299F486DE182F1E861D86C1
:101DE000103341F4AD85BE851197BE87AD877BDE8C
:101DF000182FF6CF1E3229F476DE182F02C01E8669
:101E00001D8688248394912CE12F012E000CFF0B5A
:101E1000F097EA30F10508F04DC090926A0C80927C
:101E2000690C2091EE0E3091EF0E4091F00E509122
:101E3000F10E6091F20E7091F30E8091F40E90917C
:101E4000F50E01E00E946A2619012A013B01B82F14
:101E5000A92F02E00E946A2659016A017B018C01C8
:101E60009101A201B3018B2F9A2F0E9483261F2F6D
:101E7000110F110B5F01C12ED12EE12EF12E012F7A
:101E80000E9483262093EE0E3093EF0E4093F00EC7
:101E90005093F10E6093F20E7093F30E8093F40E54
:101EA0009093F50EED85FE853197FE87ED871BDE5D
:101EB000182FAACF1F7D153489F515DE8B3211F44A
:101EC00012DE06C08D3221F40EDE01E010E002C009
:101ED00000E010E0803311F406DEFCCFE12CF12CA1
:101EE0009AE0D92E082E000C990BC0978A309105E4
:101EF00050F4DE9C9001DF9C300D11247901E80E36
:101F0000F91EF1DDEFCF012B19F0F194E194F10806
:101F10008D859E858E0D9F1D9E878D878091690C76
:101F200090916A0C892B09F455C18090EE0E909027
:101F3000EF0E9091F00E9B83A091F10EAC83B091C7
:101F4000F20EBD83E091F30EEE836090F40E70907C
:101F5000F50E8092E60E9092E70E9093E80EA09315
:101F6000E90EB093EA0EE093EB0E6092EC0E7092E5
:101F7000ED0E8D859E8597FF8CC0309000022090DD
:101F80000102909102029F83A0910302A887B09161
:101F90000402B987E0910502EA875090060240905A
:101FA0000702232D322D4F81588569857A85852D2D
:101FB000942D01E00E946A2619012A01B62FA72F4D
:101FC000F82FE92F02E00E946A2659016A017B017D
:101FD0008C019101A2016B2F7A2F8F2F9E2F0E94CF
:101FE0008326322E232E4F83588769877A87582E6F
:101FF000492E8D859E8501969E878D87892B89F632
:102000003092000220920102409302025093030298
:1020100060930402709305025092060240920702F8
:10202000A32CB22CC42ED52EE62EF72E052D142D62
:1020300094014B815C816D817E81C3010E949A2550
:1020400020936B0C30936C0C40936D0C50936E0C82
:1020500060936F0C7093700C8093710C9093720C62
:1020600094014B815C816D817E81C3010E949C251E
:102070002093E60E3093E70E4093E80E5093E90E5E
:102080006093EA0E7093EB0E8093EC0E9093ED0E3E
:102090003EC08D859E85892BD1F1E0E0F0E0940172
:1020A0004B815C816D817E81C30101E00E946A26C3
:1020B00029013A014B01B82FA92F02E00E946A269C
:1020C00059016A017B018C019201A301B4018B2F9C
:1020D0009A2F0E94832649014B835C836D837E8304
:1020E0003C013196AD85BE85EA17FB07C1F620930A
:1020F000E60E9092E70E4093E80E5093E90E60933F
:10210000EA0E7093EB0E6092EC0E7092ED0EAB85C2
:10211000BC85AB2B09F444C02091E60E3091E70E4C
:102120004091E80E5091E90E6091EA0E7091EB0E2D
:102130008091EC0E9091ED0E0E9423262093E60EE6
:102140003093E70E4093E80E5093E90E6093EA0E49
:102150007093EB0E8093EC0E9093ED0E20916B0C30
:1021600030916C0C40916D0C50916E0C60916F0C25
:102170007091700C8091710C9091720C0E942326CA
:1021800020936B0C30936C0C40936D0C50936E0C41
:1021900060936F0C7093700C8093710C9093720C21
:1021A0008091E60EE981FA8180838091E70E818338
:1021B0008091E80E82838091E90E83838091EA0EFC
:1021C00084838091EB0E85838091EC0E86838091D1
:1021D000ED0E87832E960FB6F894DEBF0FBECDBFEF
:1021E000DF91CF911F910F91FF90EF90DF90CF90F3
:1021F000BF90AF909F908F907F906F905F904F9027
:102200003F902F900895CF93DF93D8DCEC0152DC00
:102210008C0F9D1FDF91CF910895CF93DF93CDB7A2
:10222000DEB7CD51D1400FB6F894DEBF0FBECDBFA3
:10223000789484B5826084BD84B5816084BD85B5A1
:10224000826085BD85B5816085BD80916E008160AD
:1022500080936E0010928100809181008260809353
:102260008100809181008160809381008091800055
:102270008160809380008091B10084608093B10080
:102280008091B00081608093B00080919100826065
:102290008093910080919100816080939100809162
:1022A00090008160809390008091A1008260809373
:1022B000A1008091A10081608093A1008091A00085
:1022C00081608093A0008091210182608093210130
:1022D00080912101816080932101809120018160A2
:1022E0008093200180917A00846080937A008091AD
:1022F0007A00826080937A0080917A008160809376
:102300007A0080917A00806880937A001092C100F0
:1023100060E082E10E94450461E08CE00E94450497
:1023200061E08DE00E94450461E084E40E941604AF
:1023300061E085E40E941604E091070DF091080D1C
:1023400082E08083E091030DF091040D1082E09112
:10235000050DF091060D80E1808310920F0DE09144
:102360000B0DF0910C0D86E08083E091090DF0914A
:102370000A0D808180618083E091090DF0910A0D42
:10238000808188608083E091090DF0910A0D808141
:1023900080688083E091090DF0910A0D80818F7D26
:1023A00080831FB7F8948091F80B811127C0EDEC62
:1023B000F1E08491E7E8F1E09491E82FF0E0EE0F8E
:1023C000FF1FE85CFE4FA591B491EC91E92321F445
:1023D00061E085E30E94160461E085E30E94450404
:1023E0008CB580618CBD8CB580648CBD61E084E36C
:1023F0000E94450461E083E30E9445048091F80B4C
:102400008F5F8093F80B1FBF80E090E00E94AB29A4
:10241000863009F4CEC08FE392E04FDB86E08983FB
:1024200041E150E069E172E0CE0102960E94D026BF
:1024300084E48B8B41E150E068E072E0CE01449689
:102440000E94D0261DA280E88EA386E98FA388E98A
:1024500088A719A61AA61BA61CA61DA61EA681EE55
:102460008FA785EF88AB85E089AB1AAA1BAA1CAAA7
:102470001DAA84E190E09FAB8EAB85E090E099AF20
:1024800088AF8DE48AAF82E58BAF8CAF94EC9DAFC3
:1024900089E08EAF1FAE21961FAE219722961FAE08
:1024A000229723961FAE239724961FAE2497259636
:1024B0001FAE259726969FAF269727968FAF279713
:1024C00028961FAE289729961FAE29972A961FAEE9
:1024D0002A972B961FAE2B972C961FAE2C972D96D6
:1024E0001FAE2D972E961FAE2E972F961FAE2F97AD
:1024F00060961FAE609761961FAE619762961FAEA1
:10250000629763961FAE639764961FAE6497659655
:102510001FAE659766961FAE669767961FAE679764
:1025200068961FAE689769961FAE69976A961FAE48
:102530006A976B961FAE6B976C961FAE6C976D96F5
:102540001FAE6D976E961FAE6E976F961FAE6F970C
:10255000A0961FAEA097A1961FAEA197A2961FAE00
:10256000A297A3961FAEA397A4961FAEA497A59675
:102570001FAEA597A6961FAEA697A7961FAEA797C4
:10258000A8961FAEA897A9961FAEA997AA961FAEA8
:10259000AA97AB961FAEAB97AC961FAEAC97AD9615
:1025A0001FAEAD97BE016F5F7F4F80E090E00E944D
:1025B000AE077AE7E72E7EE0F72E00E010E0C801D4
:1025C0000E94AB29D7018D937D010F5F1F4F0C3601
:1025D0001105A9F780919E0E8093020C6BDA84E6B8
:1025E00092E06BDA85E892E068DA64DA80EB92E0F8
:1025F00064DA86EC92E061DA8CE6EAE7FEE0DE017E
:10260000A359BF4F01900D928A95E1F78DED92E0AD
:102610005EDACF56DF4F8881C159D040823081F0D9
:1026200038F4882351F08130A1F483E093E010C0A6
:10263000833049F0843051F00CC082EF92E008C042
:102640008CEF92E005C086E193E037DA88E293E010
:1026500034DA8EE293E03BDA80E090E00E94AB292E
:10266000682F70E080E090E04AE068DA81E493E06F
:102670002EDAC158DF4F8881CF57D04055DA83E535
:1026800093E025DA8DE690E08C0F9D1F019615DA18
:1026900088E693E01CDA8DE690E08C0F9D1F439650
:1026A0000CDA80E893E013DACE56DF4F6881798147
:1026B0008A819B81C259D0404AE040DAFBD980E947
:1026C00093E005DAC656DF4F688179818A819B8164
:1026D000CA59D0404AE032DAEDD985EA93E0F7D919
:1026E000CE55DF4F68817981C25AD040072E000C49
:1026F000880B990B63DADED985EB93E0E8D9CA55EC
:10270000DF4F8881C65AD0400FDA82EC93E0DFD9E0
:10271000CB55DF4F8881C55AD0408F93CC55DF4FC2
:102720008881C45AD0408F938EEC93E09F938F930F
:102730008E010F5F1F4F1F930F930E94DF26C8016A
:10274000BCD985ED93E0C3D9C755DF4F6881798146
:102750008A819B81C95AD04031DA87EE93E0B7D99C
:10276000CF54DF4F688179818A819B81C15BD040E2
:1027700025DA80EF93E0A1D987EF93E0A8D9C75479
:10278000DF4F688179818A819B81C95BD04016DAED
:1027900087EE93E09CD9CF53DF4F688179818A819E
:1027A0009B81C15CD0400ADA80EF93E086D987E054
:1027B00094E08DD9C753DF4F688179818A819B81ED
:1027C000C95CD040FBD987EE93E081D9CF52DF4F6F
:1027D000688179818A819B81C15DD040EFD980EF8A
:1027E00093E06BD980EB92E068D982E194E065D9FF
:1027F00087E394E06CD90F900F900F900F900F909B
:102800000F9007E010E06AEF70E080E090E00E9437
:1028100081048EE25DD987EF9CE00E94D301892B71
:1028200011F011E02FC06AEF70E080E090E00E94AC
:1028300081048EE24DD987EF9CE00E94D301892B61
:1028400081F76AEF70E080E090E00E9481048EE200
:102850003FD987EF9CE00E94D301892B11F76AEFE3
:1028600070E080E090E00E9481048EE231D987EF31
:102870009CE00E94D301892BA1F60150110909F0B7
:10288000C2CF10E087EF9CE00E94D301892B29F092
:1028900087EF9CE00E94B101F5CF112309F4DCC65B
:1028A000FE01E751FF4FCF50DF4FF983E883C15F4F
:1028B000D0401E01F9ED2F0E311CFCD8FBD88AE365
:1028C00094E005D9E0919E0EE53028F4F0E0E65D55
:1028D000FD4F808101C08FE3FBD887E594E0EDD800
:1028E00080E794E0F4D820919F0E3091A00E4091A3
:1028F000A10E5091A20E6091A30E7091A40E809132
:10290000A50E9091A60E0E94CD078DE894E0D5D833
:102910008FE994E0DCD82091A70E3091A80E409169
:10292000A90E5091AA0E6091AB0E7091AC0E8091E1
:10293000AD0E9091AE0E0E94CD078CEB94E0BDD809
:102940008EEC94E0C4D86091AF0E7091B00E072E5B
:10295000000C880B990B32D98BEE94E0AED884E052
:1029600095E0B5D88091B10E9091B20E092E000C71
:10297000AA0BBB0BBF93AF939F938F93A1E2B5E0DC
:10298000BF93AF93CE50DF4FF881C25FD040FF932B
:10299000CF50DF4F0881C15FD0400F930E94DF26E8
:1029A000CE0187519F4F93D888E295E086D881E485
:1029B00095E08DD88091B30E8BD88EE595E07DD8CB
:1029C00087E795E084D88091B40E82D880E280D8E1
:1029D0008091B50E7DD884E995E06FD88BEA95E0BB
:1029E00076D86091B60E7091B70E8091B80E909126
:1029F000B90EE4D880E26CD86091BE0E7091BF0E23
:102A00008091C00E9091C10ED9D888EC95E055D830
:102A10008CED95E05CD86091C60E7091C70E8091E8
:102A2000C80E9091C90ECAD880E252D86091CE0EDD
:102A30007091CF0E8091D00E9091D10EBFD889EFBA
:102A400095E03BD880E196E042D86091D60E709137
:102A5000D70E8091D80E9091D90EB0D880E238D898
:102A60006091DE0E7091DF0E8091E00E9091E10E8C
:102A7000A5D889EF95E021D81DD88DE296E01DD824
:102A80008DE496E01AD88EE696E017D881E996E0B4
:102A900014D80E94C108082E000C990B0E94C82669
:102AA0000FB6F894DEBF0FBECDBF082E000C990BF9
:102AB000AA0BBB0BFC01E354F109E831F10508F066
:102AC000C6C58827EE58FF4F8F4F0C9441258EE9DD
:102AD00096E00E945D0D0E945A0D8DEC96E00E94DA
:102AE0005D0D85EE96E00E945D0D8AEF96E00E94F6
:102AF0005D0D8BE197E00E945D0D8AE397E00E94F7
:102B00005D0D0E945A0D8EE497E00E94670D0E94B1
:102B1000C108082E000C990B0E94C8268C34910520
:102B2000A1F044F484349105A1F08934910599F41D
:102B300081E00CC08035910531F08435910559F460
:102B400010929E0EBACE82E001C083E080939E0E6A
:102B5000B4CE84E0FBCF8BE597E00E945D0DD7CF2C
:102B600087E797E00E94670D20919F0E3091A00E9D
:102B70004091A10E5091A20E6091A30E7091A40EEF
:102B80008091A50E9091A60E0E94CD0784E897E053
:102B90000E945D0D88EA97E00E945D0D0E94CF08BB
:102BA0001092F60C1092F50CC1012FD8D1015C9057
:102BB00011966C90119712967C90129713968C90A8
:102BC000139714969C9014971596BC91F10146802A
:102BD000F781CD50DF4FF883C35FD040252D362DD0
:102BE000472D582D692D7B2F842D9F2FAFEF0E94ED
:102BF0008C26AFE00E94A12611F008F05ECE252DB4
:102C0000362D472D582D692D7B2F842D9F2F05E0C4
:102C10000E946A26A52CB62CC72CD82CE92CFB2E9A
:102C2000042D1F2F0E94982659016A017B01A82FAD
:102C3000192F06E00E946A260A2F0E94982603E0B8
:102C40000E946A26A52CB62CC72CD82CE92CFB2E6A
:102C5000042D1F2F0E94832606E00E946A26422E22
:102C6000CA5FDE4F3883C650D140CD50DF4F488316
:102C7000C35FD040C85FDE4F5883C850D140C550B5
:102C8000DF4F6883CB5FD040CD5FDE4F7883C3508A
:102C9000D140CC5FDE4F8883C450D140CB5FDE4F44
:102CA0009883C550D14090906B0CB0916C0CA09162
:102CB0006D0CF0916E0CE0916F0C7090700C609048
:102CC000710C5090720C292D3B2F4A2F5F2F6E2FC5
:102CD000772D862D952D05E00E946A26A92CBB2E06
:102CE000CA2EDF2EEE2EF72C062D152D0E949826CB
:102CF00059016A017B01882E192F06E00E946A267D
:102D0000082D0E94982603E00E946A26A92CBB2E5B
:102D1000CA2EDF2EEE2EF72C062D152D0E948326AF
:102D200006E00E946A26A0900002B0900102C090C6
:102D30000202D0900302E0900402F090050200919C
:102D40000602109107020E949C2559016A017B012D
:102D50008C01242DCA5FDE4F3881C650D140CD5042
:102D6000DF4F4881C35FD040C85FDE4F5881C850F5
:102D7000D140C550DF4F6881CB5FD040CD5FDE4F83
:102D80007881C350D140CC5FDE4F8881C450D140A0
:102D9000CB5FDE4F9881C550D1400E94832620939F
:102DA0009F0E3093A00E4093A10E5093A20E6093FD
:102DB000A30E7093A40E8093A50E9093A60E7DCDC6
:102DC0008FEE97E00E94670D2091A70E3091A80E1C
:102DD0004091A90E5091AA0E6091AB0E7091AC0E6D
:102DE0008091AD0E9091AE0E0E94CD0782E098E0EA
:102DF0000E945D0D87E198E00E945D0D0E94CF0862
:102E00001092F60C1092F50CC1010E94050ED10132
:102E10005C9011966C90119712967C901297139675
:102E20008C90139714969C9014971596BC91F10171
:102E30004680F781CD50DF4FF883C35FD040252D0A
:102E4000362D472D582D692D7B2F842D9F2FA0E0E7
:102E50000E94A12609F00CF430CD05E00E946A26FC
:102E6000A52CB62CC72CD82CE92CFB2E042D1F2FFB
:102E70000E94982659016A017B01A82F192F06E0AC
:102E80000E946A260A2F0E94982603E00E946A2662
:102E9000A52CB62CC72CD82CE92CFB2E042D1F2FCB
:102EA0000E94832606E00E946A26422ECA5FDE4FF9
:102EB0003883C650D140CD50DF4F4883C35FD040E8
:102EC000C85FDE4F5883C850D140C550DF4F68837C
:102ED000CB5FD040CD5FDE4F7883C350D140CC5F15
:102EE000DE4F8883C450D140CB5FDE4F9883C550FE
:102EF000D14090906B0CB0916C0CA0916D0CF09146
:102F00006E0CE0916F0C7090700C6090710C509092
:102F1000720C292D3B2F4A2F5F2F6E2F772D862D78
:102F2000952D05E00E946A26A92CBB2ECA2EDF2E05
:102F3000EE2EF72C062D152D0E94982659016A01B8
:102F40007B01882E192F06E00E946A26082D0E9418
:102F5000982603E00E946A26A92CBB2ECA2EDF2EDB
:102F6000EE2EF72C062D152D0E94832606E00E94DA
:102F70006A26A0900002B0900102C0900202D09098
:102F80000302E0900402F090050200910602109105
:102F900007020E949C2559016A017B018C01242DA6
:102FA000CA5FDE4F3881C650D140CD50DF4F4881D7
:102FB000C35FD040C85FDE4F5881C850D140C55074
:102FC000DF4F6881CB5FD040CD5FDE4F7881C3504B
:102FD000D140CC5FDE4F8881C450D140CB5FDE4F03
:102FE0009881C550D1400E9483262093A70E30932C
:102FF000A80E4093A90E5093AA0E6093AB0E709347
:10300000AC0E8093AD0E9093AE0E57CC8DE598E04C
:103010000E94670D6091AF0E7091B00E072E000CEC
:10302000880B990B0E94DE0D82E798E00E945D0DEF
:103030008FE998E00E945D0D0E94CF081092F60C77
:103040001092F50CC1010E94050E8091690C9091BF
:103050006A0C892B09F431CCD101FC911196EC91C9
:1030600011971296DC9012971396EC901397149682
:10307000FC90149715960C91159716961C9116971F
:103080001796CC902F2F277F3E2F4D2D5E2D6F2D25
:10309000702F812F9C2DA2E00E94A12651F02F2F8E
:1030A000A4E10E94A12629F0A8E20E94A12609F02D
:1030B00004CCCF019093AF0EE093B00EFECB809185
:1030C000B10E9091B20E092E000CAA0BBB0BBF9350
:1030D000AF939F938F93A1E2B5E0BF93AF933F92DD
:1030E0002F920E94DF268DED98E00E94670DC101AE
:1030F0000E94670D86EE98E00E945D0D8FE998E0D2
:103100000E945D0D0E94CF081092F60C1092F50CF3
:10311000CE018F519F4F0E94050E0FB6F894DEBF6F
:103120000FBECDBF8091690C90916A0C892B09F478
:10313000C4CBCF51DF4FF881C15ED040CE51DF4FBD
:10314000E881C25ED040CD51DF4F4881C35ED040A0
:10315000CC51DF4F5881C45ED040CB51DF4F6881E6
:10316000C55ED040CA51DF4F7881C65ED0402F2F58
:103170003E2FC951DF4F8881C75ED040C851DF4F15
:103180009881C85ED0402F3F31054105510561054A
:1031900071058105910511F008F08FCBCF01909357
:1031A000B10E8093B20E89CB88E199E00E94670D41
:1031B0008091B30E0E94680D89E299E00E945D0D36
:1031C0000E94C108082E000C990B0E94C8268D345D
:1031D00019F0833509F071CB8093B30E6ECB89E47F
:1031E00099E00E945D0D8BE599E00E94670D80914A
:1031F000B40E0E94940D8DE699E00E94670D8091B7
:10320000B50E0E94940D8FE799E00E945D0D0E941B
:10321000CF08E3E7FCE09F0123573C40790181910F
:103220008032C9F3082E000C990B0E94C826813405
:1032300019F400E010E005C0823409F03ECB01E053
:1032400010E0F701EC58F34F81918032E9F3082E3A
:10325000000C990B0E94C826823519F0863409F0BB
:103260002CCBF801E658F14F82AF27CB85EC99E0E3
:103270000E945D0D88EE99E00E94670D6091B60E88
:103280007091B70E8091B80E9091B90E0E94031103
:103290008BEF99E00E94670D6091BE0E7091BF0E9A
:1032A0008091C00E9091C10E0E9403118EE09AE0B1
:1032B0000E945D0D0E94C108082E000C990B0E940F
:1032C000C826813419F400E010E004C0823471F79C
:1032D00001E010E086E29AE00E945D0D0E94CF08B6
:1032E0001092F60C1092F50CC1010E94050E80910F
:1032F000690C90916A0C892B09F4DFCA63E0000F16
:10330000111F6A95E1F70658114FF801FC96D1019B
:103310008C91D801DC968C93D101A8C080E59AE00D
:103320000E945D0D89E69AE00E94670D6091C60ECD
:103330007091C70E8091C80E9091C90E0E94031122
:103340008AE79AE00E94670D6091CE0E7091CF0ED1
:103350008091D00E9091D10E0E9403118EE09AE0E0
:103360000E945D0D0E94C108082E000C990B0E945E
:10337000C826813419F400E010E004C0823471F7EB
:1033800001E010E08BE89AE00E945D0D0E94CF08FA
:103390001092F60C1092F50CC1010E94050E80915E
:1033A000690C90916A0C892B09F487CA53E0000FCD
:1033B000111F5A95E1F70658114FF801E45BFF4FD2
:1033C00052C080EB9AE00E945D0D85EC9AE00E946D
:1033D000670D6091D60E7091D70E8091D80E9091A6
:1033E000D90E0E94031186ED9AE00E94670D60914C
:1033F000DE0E7091DF0E8091E00E9091E10E0E9442
:1034000003118EE09AE00E945D0D0E94C108082E13
:10341000000C990B0E94C826813419F400E010E0DA
:1034200004C0823471F701E010E087EE9AE00E9458
:103430005D0D0E94CF081092F60C1092F50CC101A0
:103440000E94050E8091690C90916A0C892B09F4F9
:1034500034CA43E0000F111F4A95E1F70658114F97
:10346000F801E45AFF4FD1018C91808311968C9121
:103470001197818312968C911297828313968C9167
:103480001397838314968C911497848315968C914B
:103490001597858316968C911697868317968C912F
:1034A00087830BCA86E0898341E150E069E172E0DD
:1034B000CE0102960E94D02684E48B8B41E150E03D
:1034C00068E072E0CE0144960E94D0261DA280E8FA
:1034D0008EA386E98FA388E988A719A61AA61BA63A
:1034E0001CA61DA61EA681EE8FA785EF88AB85E0E2
:1034F00089AB1AAA1BAA1CAA1DAA84E190E09FAB63
:103500008EAB85E090E099AF88AF8DE48AAF82E51D
:103510008BAF8CAF94EC9DAF89E08EAF1FAE219640
:103520001FAE219722961FAE229723961FAE239798
:1035300024961FAE249725961FAE259726969FAFFB
:10354000269727968FAF279728961FAE28972996FC
:103550001FAE29972A961FAE2A972B961FAE2B9740
:103560002C961FAE2C972D961FAE2D972E961FAE24
:103570002E972F961FAE2F9760961FAE609761967D
:103580001FAE619762961FAE629763961FAE6397F8
:1035900064961FAE649765961FAE659766961FAEDC
:1035A000669767961FAE679768961FAE689769968D
:1035B0001FAE69976A961FAE6A976B961FAE6B97A0
:1035C0006C961FAE6C976D961FAE6D976E961FAE84
:1035D0006E976F961FAE6F97A0961FAEA097A1969D
:1035E0001FAEA197A2961FAEA297A3961FAEA39758
:1035F000A4961FAEA497A5961FAEA597A6961FAE3C
:10360000A697A7961FAEA797A8961FAEA897A996AC
:103610001FAEA997AA961FAEAA97AB961FAEAB97FF
:10362000AC961FAEAC97AD961FAEAD978CE6FE0183
:103630003196AAE7BEE001900D928A95E1F73DC967
:103640006AE77EE080E090E00E94AE0705C087E078
:103650009BE00E945D0D31C980919E0E8093010C0C
:10366000A0909F0EB090A00EC090A10ED090A20E80
:10367000E090A30EF090A40E0091A50E1091A60E5E
:10368000A092F90BB092FA0BC092FB0BD092FC0BFC
:10369000E092FD0BF092FE0B0093FF0B1093000CD9
:1036A00020E030E145EA54ED68EE70E080E090E023
:1036B0000E949C252093050C3093060C4093070C28
:1036C0005093080C6093090C70930A0C80930B0CB8
:1036D00090930C0C8091A70E80930D0C8091A80EF6
:1036E00080930E0C8091A90E80930F0C8091AA0EEE
:1036F0008093100C8091AB0E8093110C8091AC0ED6
:103700008093120C8091AD0E8093130C8091AE0EBD
:103710008093140CA090AF0EB090B00EB092040C39
:10372000A092030C1092F00B1092F10B1092F20B7E
:103730001092F30B1092F40B1092F50B1092F60B03
:103740001092F70B96EBE92E9EE0F92E07EE1DE0A6
:1037500024E9C22E2DE0D22E812C912C33E7732E3A
:10376000F80110821182128213821482158216824D
:103770001782789CD001799CB00D1124AC56B24FC1
:10378000FD01B39693961C921182128213821482C9
:10379000158216821782D6019B961C929B979C9647
:1037A0001C929C979D961C929D979E961C929E970C
:1037B0009F961C929F97D0961C92D097D1961C9260
:1037C000D197D2961C92D297DB961C92F601FB966B
:1037D0001182128213821482158216821782F701D7
:1037E00070816181528143813481258196818781F5
:1037F000F8E0EF0EF11CD80118967C9318971996F3
:103800006C9319971A965C931A971B964C931B9777
:103810001C963C931C971D962C931D971E969C936B
:103820001E971F968C931F97F701808550968C9357
:103830005097818551968C935197828552968C939F
:103840005297838553968C935397848554968C9383
:103850005497858555968C935597868556968C9367
:103860005697878557968C935797808D58968C934B
:103870005897818D59968C935997828D5A968C932F
:103880005A97838D5B968C935B97848D5C968C9313
:103890005C97858D5D968C935D97868D5E968C93F7
:1038A0005E97878D5F968C9360E0D6018C910E9425
:1038B000160465E070E080E090E00E94810461E021
:1038C000F60180810E94160465E070E080E090E0DF
:1038D0000E948104FAE0AF16B10459F074F044E19B
:1038E000A416B10441F058E2A516B10431F440EC3D
:1038F00005C040E403C040E801C040E0416021E071
:1039000082E1C45EDE4F2883CC51D140C35EDE4FDE
:103910004883CD51D1400E94EE03C45EDE4F288122
:10392000CC51D140C35EDE4F4881CD51D140892B6F
:1039300031F7222311F020E0E3CF61E0C6010E94BD
:10394000030544E063E0C6010E9403054091B10E07
:1039500066E0C6010E94030540E067E0C6010E94E0
:10396000030543E860E0C6010E94030563E7C60E55
:10397000D11C0D581F4F8A94892821F088248394E4
:10398000912CEECE42E069E673E082E10E94C40B26
:1039900043E06EE473E082E00E94C40B43E063E323
:1039A00073E083E00E94C40B8FEE9BE00E945D0DEC
:1039B0008FEE9BE00E945D0D80919E0E823091F013
:1039C00038F4882361F08130A1F481E29BE00FC0DC
:1039D000833059F0843069F482E89BE008C08BE0C2
:1039E0009BE005C08FE39BE002C082E59BE00E9464
:1039F0005D0D60E084E40E94160460E085E40E94AE
:103A00001604CE0187529F4FCF50DF4F9983888392
:103A1000C15FD040AEEABDE0CA5FDE4FB983A88384
:103A2000C650D140BFEB8B2EBDE09B2E14E9212E5A
:103A30001DE0312E07EE602E0DE0702EC85FDE4FC8
:103A400019821882C850D140D1015D968C910E9494
:103A5000EE03892B09F01DC761E0CA5FDE4FE881E4
:103A6000F981C650D14087810E941604D4018C91FF
:103A700018968C93189711968C91119719968C9390
:103A8000199712968C9112971A968C931A971396EF
:103A90008C9113971B968C931B9714968C9114976B
:103AA0001C968C931C9715968C9115971D968C934C
:103AB0001D9716968C9116971E968C931E971796A7
:103AC0008C9117971F968C9360E1C1010E943F056E
:103AD000F101628373838483958362E1C1010E9453
:103AE0003F05D10116966D937D938D939C93199705
:103AF00061E1C1010E943F05F10166877787808BF4
:103B0000918B6BE1C1010E943F05D10152966D93EB
:103B10007D938D939C9355976CE1C1010E943F0565
:103B2000C550DF4F688379838A839B83CB5FD04006
:103B3000F101668B778B808F918FF091050CCD5FB3
:103B4000DE4FF883C350D1400091060CCC5FDE4FAE
:103B50000883C450D1401091070CCB5FDE4F18830F
:103B6000C550D1402091080CC65FDE4F2883CA5053
:103B7000D1403091090CC55FDE4F3883CB50D14026
:103B800040910A0CC45FDE4F4883CC50D140409036
:103B90000B0C50900C0CF10186859785A089B1899A
:103BA0008C019D0140E050E0BA01CD50DF4F888389
:103BB000C35FD040CC50DF4F1883C45FD040CB50A0
:103BC000DF4F2883C55FD040CA50DF4F3883C65FC0
:103BD000D040C950DF4F4883C75FD040C850DF4F47
:103BE0005883C85FD040C750DF4F6883C95FD0405B
:103BF000C650DF4F7883CA5FD040CD5FDE4FA880CC
:103C0000C350D140CC5FDE4FB880C450D140CB5FB1
:103C1000DE4FC880C550D140C65FDE4FD880CA5045
:103C2000D140C55FDE4FE880CB50D140C45FDE4F4E
:103C3000F880CC50D1408201CD50DF4F2881C35F46
:103C4000D040CC50DF4F3881C45FD040CB50DF4FE5
:103C50004881C55FD040CA50DF4F5881C65FD04011
:103C600060E070E080E090E014D7D3015896AC900B
:103C700058975996BC9059975A96CC905A975B96FC
:103C8000DC905B975C96EC905C975D96FC905D9702
:103C90005E960C915E975F961C910E949826C35F7A
:103CA000DE4F2883CD50D140C25FDE4F3883CE50E7
:103CB000D140C15FDE4F4883CF50D140C05FDE4F5F
:103CC0005883C051D140CF5EDE4F6883C151D1408F
:103CD000CE5EDE4F7883C251D140CD5EDE4F888309
:103CE000C351D140CC5EDE4F9883C451D140F10125
:103CF00082899389A489B589C550DF4F08811981CC
:103D00002A813B81CB5FD040081B190B2A0B3B0B50
:103D100040E050E0BA01CD50DF4F0883C35FD04090
:103D2000CC50DF4F1883C45FD040CB50DF4F288387
:103D3000C55FD040CA50DF4F3883C65FD040C950FE
:103D4000DF4F4883C75FD040C850DF4F5883C85FFC
:103D5000D040C750DF4F6883C95FD040C650DF4FA7
:103D60007883CA5FD04020E432E44FE050E060E066
:103D700070E080E090E0D3011896AC901897199607
:103D8000BC9019971A96CC901A971B96DC901B97AB
:103D90001C96EC901C971D96FC901D971E960C91FE
:103DA0001E971F961C91C4D759016A017B018C0193
:103DB000CD50DF4F2881C35FD040CC50DF4F3881DA
:103DC000C45FD040CB50DF4F4881C55FD040CA5060
:103DD000DF4F5881C65FD04060E070E080E090E047
:103DE00058D6E091030CF091040C31971F2F110F5E
:103DF000110B5F01C12ED12EE12EF12E012F9CD689
:103E0000C550DF4F2883CB5FD040CB5EDE4F388379
:103E1000C551D140CA5EDE4F4883C651D140C95E0C
:103E2000DE4F5883C751D140C85EDE4F6883C8510A
:103E3000D140C75EDE4F7883C951D140C65EDE4FA8
:103E40008883CA51D140C55EDE4F9883CB51D140A3
:103E5000F3011089B1890289F38864897589212F5A
:103E60003B2F402F5F2D86899789A0E06AD761F0AC
:103E7000D10116961C93169717963C931797189690
:103E80000C9318971996FC92D10112960D911D91E1
:103E90002D913C911597CD50DF4F088319832A83CC
:103EA0003B83C35FD040A12C40E1B42E55EAC52E20
:103EB00064EDD62E78EEE72EF12C00E010E0CD5F19
:103EC000DE4F2881C350D140CC5FDE4F3881C450D3
:103ED000D140CB5FDE4F4881C550D140C65FDE4F39
:103EE0005881CA50D140C55FDE4F6881CB50D14068
:103EF000C45FDE4F7881CC50D140C201CAD5C550D5
:103F0000DF4FA880CB5FD040CB5EDE4FB880C5517D
:103F1000D140CA5EDE4FC880C651D140C95EDE4F77
:103F2000D880C751D140C85EDE4FE880C851D1402B
:103F3000C75EDE4FF880C951D140C65EDE4F0881B2
:103F4000CA51D140C55EDE4F1881CB51D140F4D566
:103F5000CD5FDE4F2883C350D140CC5FDE4F388326
:103F6000C450D1402A01B62FA72FCB5FDE4F8883E4
:103F7000C550D140C65FDE4F9883CA50D140CD5066
:103F8000DF4F288139814A815B81C35FD04059016D
:103F90006A01F10146815781608571859A01AB0103
:103FA00060E070E0CB01C550DF4F2883CB5FD0408D
:103FB000C450DF4F3883CC5FD040C350DF4F4883BD
:103FC000CD5FD040C250DF4F5883CE5FD040C1504C
:103FD000DF4F6883CF5FD040C050DF4F7883C05041
:103FE000D140CF5FDE4F8883C150D140CE5FDE4FDE
:103FF0009883C250D1409501A60160E070E080E056
:1040000090E0C550DF4FA880CB5FD040C450DF4F59
:10401000B880CC5FD040C350DF4FC880CD5FD04068
:10402000C250DF4FD880CE5FD040E12CF12C00E0B1
:1040300010E07ED659016A017B018C01CD5FDE4F15
:104040002881C350D140CC5FDE4F3881C450D1406D
:10405000A2016B2F7A2FCB5FDE4F8881C550D140F4
:10406000C65FDE4F9881CA50D14013D5E0E4AE2E32
:10407000F2E4BF2EAFE0CA2ED12CE12CF12C00E0EF
:1040800010E05AD559016A017B018C01C35FDE4FF4
:104090002881CD50D140C25FDE4F3881CE50D14013
:1040A000C15FDE4F4881CF50D140C05FDE4F5881A5
:1040B000C051D140CF5EDE4F6881C151D140CE5E4C
:1040C000DE4F7881C251D140CD5EDE4F8881C35131
:1040D000D140CC5EDE4F9881C451D14014D65901F5
:1040E0006A017B018C0180919E0E843009F0DAC058
:1040F000CA50DF4F5881C65FD0405F93CB50DF4F2F
:104100006881C55FD0406F93CC50DF4F7881C45F2A
:10411000D0407F93CD50DF4F8881C35FD0408F93D5
:10412000A7EBBBE0BF93AF93CE50DF4FF881C25FE8
:10413000D040FF93CF50DF4F2881C15FD0402F93F5
:104140003ED6CE0187529F4F0E94670DD10119962E
:104150008C9119978F9318968C9118978F93179627
:104160008C9117978F9316968C918F93A7EBBBE04A
:10417000BF93AF93CE50DF4FF881C25FD040FF9323
:10418000CF50DF4F2881C15FD0402F9318D6CE018A
:1041900087529F4F0E94670DD10151968C91519784
:1041A0008F9350968C9150978F931F968C911F9759
:1041B0008F931E968C918F93A7EBBBE0BF93AF9329
:1041C000CE50DF4FF881C25FD040FF93CF50DF4F1A
:1041D0002881C15FD0402F93F2D5CE0187529F4FE7
:1041E0000E94670DD10155968C9155978F935496E7
:1041F0008C9154978F9353968C9153978F9352969B
:104200008C918F93A7EBBBE0BF93AF93CE50DF4F62
:10421000F881C25FD040FF93CF50DF4F2881C15F4C
:10422000D0402F93CCD50FB6F894DEBF0FBECDBFD4
:10423000CE0187529F4F0E94670DD10159968C91F4
:1042400059978F9358968C9158978F9357968C9136
:1042500057978F9356968C918F93A7EBBBE0BF93A4
:10426000AF93CE50DF4FF881C25FD040FF93CF5065
:10427000DF4F2881C15FD0402F93A1D5CE01875257
:104280009F4F0E94670D9501A601B701C8010E94CA
:104290006D058BE296E00E94670D0FB6F894DEBFC5
:1042A0000FBECDBFD401AC921196BC92119712965D
:1042B000CC9212971396DC9213971496EC92149763
:1042C0001596FC92159716960C93169717961C93B5
:1042D00043E860E0C1010E940305F30120813181C0
:1042E000428153816481758186819781A1E014D5D3
:1042F00020833183428353836483758386839783CA
:1043000080919E0E843019F523E7C85FDE4F088147
:104310001981C850D140209FD001219FB00D112498
:10432000AC56B24FFD01B39693965C9141813281B8
:1043300023818481858186818781652F742F832FD6
:10434000922F0E94DE0D8BE296E00E94670D63E7DC
:10435000C85FDE4F48815981C850D140649FD00169
:10436000659FB00D1124AC56B24FFD01B3969396E4
:104370002C9131814281538164817581868197813D
:10438000A0900D0CB0900E0CC0900F0CD090100CA3
:10439000E090110CF090120C0091130C1091140C81
:1043A00078D3D401AC901196BC9011971296CC9012
:1043B00012971396DC9013971496EC901497159619
:1043C000FC90159716960C91169717961C911797B7
:1043D000AFD4CD50DF4F2883C35FD040432E542E3F
:1043E000C550DF4F5883CB5FD040CD5FDE4F688331
:1043F000C350D140CC5FDE4F7883C450D140CB5FF7
:10440000DE4F8883C550D140C65FDE4F9883CA50C7
:10441000D14050962C93509751963C935197529679
:104420004C93529753965C93539754966C9354972E
:1044300055967C93559756968C93569757969C9382
:104440005797F101E55BFF4F452D5896AC90589773
:104450005996BC9059975A96CC905A975B96DC9097
:104460005B975C96EC905C975D96FC905D975E9692
:104470000C915E975F961C915BD4208331834283BD
:104480005383648375838683978380919E0E8B7F8D
:1044900009F054C0CD50DF4F2881C35FD040342D88
:1044A000452DC550DF4F5881CB5FD040CD5FDE4FEB
:1044B0006881C350D140CC5FDE4F7881C450D14079
:1044C000CB5FDE4F8881C550D140C65FDE4F9881FB
:1044D000CA50D140A0E035D409F00CF46EC0CD50E4
:1044E000DF4F2881C35FD040342D452DC550DF4FAD
:1044F0005881CB5FD040CD5FDE4F6881C350D14043
:10450000CC5FDE4F7881C450D140CB5FDE4F8881D5
:10451000C550D140C65FDE4F9881CA50D1400E943D
:104520006D058DEB9BE00E94670DCA5FDE4FE88151
:10453000F981C650D14080810E94940D80919E0ED9
:104540008230D9F5D3012C9111963C911197129696
:104550004C91129713965C91139714966C91149743
:1045600015967C91159716968C91169717969C9197
:10457000A2E0E7D311F10CF1F401208931894289DD
:1045800053896489758986899789A08CB18CC28C7E
:10459000D38CE48CF58C068D178DCAD30E946D05E3
:1045A0008DEB9BE00E94670DCA5FDE4FA881B98149
:1045B000C650D1408C910E94940DA090CF0DB09028
:1045C000D00DC090D10DD090D20DE090D30DF090D1
:1045D000D40D0091D50D1091D60D9501A601B7010E
:1045E000C801A1E0AED309F00CF448C15090420ECE
:1045F000B091430ECD50DF4FB883C35FD040E09100
:10460000440EC550DF4FE883CB5FD040F091450E9C
:10461000CD5FDE4FF883C350D1404090460EB0913D
:10462000470EF091480EE091490E252DCD50DF4FF9
:104630003881C35FD040C550DF4F4881CB5FD04049
:10464000CD5FDE4F5881C350D140642D7B2F8F2F1B
:104650009E2F77D309F00CF411C1A092D70DB09220
:10466000D80DC092D90DD092DA0DE092DB0DF09208
:10467000DC0D0093DD0D1093DE0D50924A0E309349
:104680004B0E40934C0E50934D0E40924E0EB093F5
:104690004F0EF093500EE093510E80919E0E81309C
:1046A00099F4252DCD50DF4F3881C35FD040C550E0
:1046B000DF4F4881CB5FD0408F2F3AD30E946D05EA
:1046C00081EC9BE00E945D0D80919E0E833009F08D
:1046D000B5C02091CF0D3091D00D4091D10D5091AA
:1046E000D20D6091D30D7091D40D8091D50D909124
:1046F000D60D0E946D058BEC9BE00E945D0D209114
:10470000420E3091430E4091440E5091450E6091FF
:10471000460E7091470E8091480E9091490E0E946E
:104720006D0580ED9BE00E945D0D2091420E309161
:10473000430E4091440E5091450E6091460E70918B
:10474000470E8091480E9091490EA090CF0DB090E9
:10475000D00DC090D10DD090D20DE090D30DF0903F
:10476000D40D0091D50D1091D60DE2D2CD50DF4F72
:104770002883C35FD040C550DF4F3883CB5FD04024
:104780002A01CD5FDE4F6883C350D140CC5FDE4F3E
:104790007883C450D140CB5FDE4F8883C550D14071
:1047A000C65FDE4F9883CA50D140A12C80E1B82E5D
:1047B00095EAC92E24EDD22E38EEE32EF12C00E03E
:1047C00010E020915A0E30915B0E40915C0E50919A
:1047D0005D0E60915E0E70915F0E8091600E909103
:1047E000610E57D1AFEF98D259016A017B018C015C
:1047F000CD50DF4F2881C35FD040C550DF4F388197
:10480000CB5FD040A201CD5FDE4F6881C350D14065
:10481000CC5FDE4F7881C450D140CB5FDE4F8881C2
:10482000C550D140C65FDE4F9881CA50D1406BD28F
:104830000E946D0585ED9BE00E945D0D1092CF0DED
:104840001092D00D1092D10D1092D20D1092D30D66
:104850001092D40D1092D50D1092D60D1092420EDA
:104860001092430E1092440E1092450E1092460E76
:104870001092470E1092480E1092490E60E0CA5FE7
:10488000DE4FA881B981C650D14017968C910E9405
:104890001604B3E72B0E311CCA5FDE4FE881F981A5
:1048A000C650D140ED58FF4FCA5FDE4FF983E88311
:1048B000C650D140F3E76F0E711C03E7800E911CC8
:1048C000C85FDE4F28813981C850D1402130310581
:1048D00049F0E1E0F0E0C85FDE4FF983E883C850BB
:1048E000D140B2C80E94700295C8CF92DF92EF9279
:1048F000FF920F931F93CF93DF93E7EFFCE01382B8
:10490000128288EE93E0A0E0B0E084839583A683D2
:10491000B78383E392E09183808385EC90E0958771
:10492000848784EC90E09787868780EC90E0918B79
:10493000808B81EC90E0938B828B82EC90E0958B66
:10494000848B86EC90E0978B868B118E128E138E63
:10495000148E86E080937A0EC4E9DDE084E090E076
:104960009983888381E48A8F82E090E09C8F8B8F8B
:104970008AE090E09E8F8D8F86E090E098A38F8FE5
:1049800084E490E09AA389A361E084E00E94450456
:1049900060E08D8D0E94450461E08F8D0E9445048A
:1049A00060E08B8D0E94450461E089A10E9445046E
:1049B00085E090E09093080E8093070E82E4809348
:1049C000210E02E21EE083E090E0F80191838083F3
:1049D00084E2C82E8EE0D82E8BE090E0F601918321
:1049E000808396E2E92E9EE0F92E87E090E0F701C1
:1049F00091838083C8E2DEE085E490E09983888338
:104A000061E085E00E94450460E0F60180810E943B
:104A1000450461E0F70180810E94450460E0F801EF
:104A200080810E94450461E08881DF91CF911F91D0
:104A30000F91FF90EF90DF90CF900C944504A1E28E
:104A40001A2EAA1BBB1BFD010DC0AA1FBB1FEE1F08
:104A5000FF1FA217B307E407F50720F0A21BB30B53
:104A6000E40BF50B661F771F881F991F1A9469F7CF
:104A700060957095809590959B01AC01BD01CF012B
:104A80000895EE0FFF1F881F8BBF0790F691E02D52
:104A90001994DF93CF931F930F939A9DF02D219F2D
:104AA000F00D8B9DF00D8A9DE02DF10D039FF00D13
:104AB000029FE00DF11D4E9DE00DF11D5E9DF00D7C
:104AC0004F9DF00D7F936F93BF92AF925F934F9383
:104AD000D50143D18B01AC01D7013FD1EB01E80FE8
:104AE000F91FD6011FD02F913F91D60136D1C60FA5
:104AF000D71FE81FF91FAF91BF9114D02F913F919D
:104B00002CD1C60FD71FE81FF91FD60126D1E60FFB
:104B1000F71F9801BE01CF0111240F911F91CF9172
:104B2000DF9108951AD1460F571FC81FD91F08F4E7
:104B300031960895689401C0E894F92FF12B0AF09A
:104B400027C0A0E0B0E0E6EAF5E293C0092E0594A4
:104B50001AF479D0112392F4F0E80F26FFEFE094D5
:104B6000F09400951095B094C094D094A194BF0A8D
:104B7000CF0ADF0AEF0AFF0A0F0B1F0B13D007FC47
:104B800062D0CDB7DEB7ECE090C0689401C0E89485
:104B90008F929F92CF93DF9305D0DF91CF919F901B
:104BA0008F90089588249924F401E401B0E49F9340
:104BB000AA279A158B049C04ED05FE05CF05D007A6
:104BC000A10798F4AD2FDC2FCF2FFE2FE92D982CC5
:104BD000892E982F872F762F652F542F432F322F12
:104BE0002227B85031F7BF9127C01B2EBF91BB279A
:104BF000220F331F441F551F661F771F881F991FE1
:104C0000881C991CEE1FFF1FCC1FDD1FAA1FBB1F96
:104C10008A149B04EC05FD05CE05DF05A007B1074E
:104C200048F08A189B08EC09FD09CE09DF09A00BA2
:104C3000B10B21601A94E1F62EF49401AF01BE018C
:104C4000CD01000C089560957095809590953095F4
:104C50004095509521953F4F4F4F5F4F6F4F7F4F7E
:104C60008F4F9F4F08952F923F924F925F926F9276
:104C70007F928F929F92AF92BF92CF92DF92EF92EC
:104C8000FF920F931F93CF93DF93CDB7DEB7CA1B6D
:104C9000DB0B0FB6F894DEBF0FBECDBF19942A8888
:104CA000398848885F846E847D848C849B84AA8440
:104CB000B984C884DF80EE80FD800C811B81AA81CD
:104CC000B981CE0FD11D0FB6F894DEBF0FBECDBF98
:104CD000ED0108950F93083090F0982F872F762FCD
:104CE000652F542F432F322F22270850F4CF220F45
:104CF000331F441F551F661F771F881F991F0A9572
:104D0000B2F70F9108952A0D3B1D4C1D5D1D6E1DC0
:104D10007F1D801F911F08950024A7FD00942A0F76
:104D2000301D401D501D601D701D801D901D08957B
:104D30002A193B094C095D096E097F09800B910B0B
:104D400008950024A7FD00942A173005400550055A
:104D500060057005800590050895A29FB001B39F7E
:104D6000C001A39F700D811D1124911DB29F700D74
:104D7000811D1124911D089581E090E0F89401C3F4
:104D800091113AC2803219F089508550D0F70895B8
:104D90009111089581568A5108F4805285580895DA
:104DA000FB01DC014150504048F001900D92002081
:104DB000C9F701C01D9241505040E0F708950F938C
:104DC0001F93CF93DF93CDB7DEB72E970FB6F8942E
:104DD000DEBF0FBECDBF0E891F8986E08C831A838C
:104DE00009838FEF9FE79E838D83AE01465E5F4F01
:104DF000688D798DCE01019611D02F813885F8010B
:104E0000E20FF31F10822E960FB6F894DEBF0FBE8E
:104E1000CDBFDF91CF911F910F9108952F923F92B7
:104E20004F925F926F927F928F929F92AF92BF92BA
:104E3000CF92DF92EF92FF920F931F93CF93DF9366
:104E4000CDB7DEB72C970FB6F894DEBF0FBECDBF3F
:104E50007C016B018A01FC0117821682838181FF2C
:104E6000B0C1CE0101964C01F7019381F60193FD8B
:104E7000859193FF81916F01882309F49EC185324A
:104E800039F493FD859193FF81916F01853221F46F
:104E9000B70190E0CAD1E8CF512C312C20E020326C
:104EA000A0F48B3269F030F4803259F0833269F427
:104EB00020612CC08D3239F0803339F4216026C056
:104EC0002260246023C0286021C027FD27C030ED68
:104ED000380F3A3078F426FF06C0FAE05F9E300DB6
:104EE0001124532E13C08AE0389E300D1124332E26
:104EF00020620CC08E3221F426FD5FC1206406C002
:104F00008C3611F4206802C0883641F4F60193FD16
:104F1000859193FF81916F018111C1CF982F9F7D62
:104F20009554933028F40C5F1F4FFFE3F9830DC0B5
:104F3000833631F0833771F0833509F057C021C0D3
:104F4000F801808189830E5F1F4F44244394512CC4
:104F5000540114C03801F2E06F0E711CF801A080FA
:104F6000B18026FF03C0652D70E002C06FEF7FEFB8
:104F7000C5012C874FD12C0183012C852F77222E40
:104F800016C03801F2E06F0E711CF801A080B180EC
:104F900026FF03C0652D70E002C06FEF7FEFC501F3
:104FA0002C872DD12C012C852068222E830123FCF7
:104FB00019C0832D90E048165906A0F4B70180E28D
:104FC00090E033D13A94F5CFF50127FC859127FE87
:104FD00081915F01B70190E028D131103A94F1E05E
:104FE0004F1A51084114510479F7DEC0843611F08C
:104FF000893631F5F80127FF07C060817181828110
:1050000093810C5F1F4F08C060817181072E000CD7
:10501000880B990B0E5F1F4F2F76722E97FF09C0DA
:1050200090958095709561957F4F8F4F9F4F206829
:10503000722E2AE030E0A40130D1A82EA81843C077
:10504000853729F42F7EB22E2AE030E025C0F22FDA
:10505000F97FBF2E8F36C1F018F4883579F0ADC0D6
:10506000803719F0883721F0A8C02F2F2061B22E89
:10507000B4FE0DC08B2D8460B82E09C024FF0AC079
:105080009F2F9660B92E06C028E030E005C020E1D1
:1050900030E002C020E132E0F801B7FE07C06081D5
:1050A0007181828193810C5F1F4F06C06081718185
:1050B00080E090E00E5F1F4FA401EFD0A82EA8184B
:1050C000FB2DFF777F2E76FE0BC0372D3E7FA5147C
:1050D00050F474FE0AC072FC08C0372D3E7E05C035
:1050E000BA2C372D03C0BA2C01C0B52C34FF0DC02B
:1050F000FE01EA0DF11D8081803311F4397E09C073
:1051000032FF06C0B394B39404C0832F867809F0AD
:10511000B39433FD12C030FF06C05A2CB31418F4F8
:10512000530C5B18B32CB31460F4B70180E290E029
:105130003C877BD0B3943C85F6CFB31410F43B1876
:1051400001C0312C34FF11C0B70180E390E03C87EF
:105150006CD03C8532FF16C031FD03C088E790E07B
:1051600002C088E590E0B7010CC0832F867851F02B
:1051700031FF02C08BE201C080E237FD8DE2B70152
:1051800090E053D0A51430F4B70180E390E04DD007
:105190005A94F8CFAA94F401EA0DF11D8081B70169
:1051A00090E043D0A110F6CF332009F45DCEB701D3
:1051B00080E290E03AD03A94F7CFF7018681978168
:1051C00002C08FEF9FEF2C960FB6F894DEBF0FBE94
:1051D000CDBFDF91CF911F910F91FF90EF90DF90A6
:1051E000CF90BF90AF909F908F907F906F905F9087
:1051F0004F903F902F900895992788270895FC019C
:105200000590615070400110D8F7809590958E0FF1
:105210009F1F0895FC016150704001900110D8F764
:10522000809590958E0F9F1F08950F931F93CF9396
:10523000DF93FB01238121FD03C08FEF9FEF28C087
:1052400022FF16C0468157812481358142175307BA
:1052500044F4A081B1819D012F5F3F4F31832083B2
:105260008C93268137812F5F3F4F3783268310C071
:10527000EB01092F182F0084F185E02D1995892B5A
:10528000E1F68E819F8101969F838E83812F902FDF
:10529000DF91CF911F910F910895FA01AA2728302D
:1052A00051F1203181F1E8946F936E7F6E5F7F4FF3
:1052B0008F4F9F4FAF4FB1E03ED0B4E03CD0670F6F
:1052C000781F891F9A1FA11D680F791F8A1F911DC2
:1052D000A11D6A0F711D811D911DA11D20D009F412
:1052E00068943F912AE0269F11243019305D319354
:1052F000DEF6CF010895462F4770405D4193B3E03D
:105300000FD0C9F7F6CF462F4F70405D4A3318F0E3
:10531000495D31FD4052419302D0A9F7EACFB4E094
:10532000A6959795879577956795BA95C9F700974C
:105330006105710508959B01AC010A2E06945795ED
:10534000479537952795BA95C9F7620F731F841F44
:10535000951FA01D0895F999FECF92BD81BDF89AC1
:10536000992780B50895262FF999FECF1FBA92BDCF
:1053700081BD20BD0FB6F894FA9AF99A0FBE019636
:065380000895F894FFCF30
:105386000100000000000000303132330000000050
:1053960000000000000000000032303137303130AC
:1053A600332E31000000000000005449504C4400E8
:1053B60000000009028601D301B101C5014F024E6A
:1053C6006F20636F6E66696720666F756E642E2048
:1053D6002057726974696E672064656661756C74BE
:1053E6002E2E2E0023205441505220544943432050
:1053F60054696D657374616D70696E6720436F756E
:105406006E746572002320436F70797269676874E1
:105416002032303137204E3855522C204B395452D9
:10542600472C204E48365A2C2057413859575100A0
:105436002323232323232323232323232323232336
:1054460023232323230023205449434320436F6E01
:1054560066696775726174696F6E3A200023204D24
:105466006561737572656D656E74204D6F64653A1E
:10547600200054696D657374616D700050657269C2
:105486006F640054696D6520496E74657276616C4F
:1054960020412D3E420054696D654C616220332DDA
:1054A6006368616E6E656C004465627567002320F3
:1054B600454550524F4D2056657273696F6E3A20BE
:1054C600002C20426F6172642056657273696F6E9C
:1054D6003A20002320536F66747761726520566503
:1054E6007273696F6E3A20002320426F61726420E6
:1054F60053657269616C204E756D6265723A200063
:105506002320436C6F636B2053706565643A2000FB
:105516002320436F61727365207469636B20287062
:1055260073293A2000232043616C20506572696F0D
:1055360064733A2000232053796E634D6F64653A95
:105546002000232054696D656F75743A2000307809
:10555600252E325800232054696D652044696C61FC
:1055660074696F6E3A20002028636841292C200058
:1055760020286368422900232046495845445F5441
:10558600494D45323A200023204655444745303A96
:10559600200023205479706520616E79206368614C
:1055A60072616374657220666F7220636F6E6669DE
:1055B60067206D656E75002320004D2020204D6507
:1055C60061737572656D656E74204D6F646520201C
:1055D60020202020202000202020202020202020E5
:1055E60020202020202064656661756C742054009C
:1055F60053202020636C6F636B20537065656420B5
:1056060020284D487A2920202020202000202020F4
:105616002020202064656661756C7420313000435B
:10562600202020436F6172736520436C6F636B208B
:1056360052617465202875732920200020202020BF
:10564600202064656661756C74203130300050200E
:10565600202063616C6962726174696F6E205065A7
:1056660072696F64732020202020002020202020D3
:1056760020202020202020202064656661756C741F
:10568600203230005420202054696D656F757420D7
:105696002020202020202020202020202020202004
:1056A600003078253032580020202020202020206D
:1056B6002020202064656661756C74203078303552
:1056C600005920202073796E633A20206D6173742F
:1056D6006572202F20736C617665202020002020C3
:1056E60020202020202020202020202020646566E5
:1056F60061756C74204D00452020207472696767BF
:105706006572204564676520202020202020202007
:1057160020202000202020202020202020202020A3
:105726002064656661756C742052004420202074E4
:10573600696D652044696C6174696F6E2020202054
:10574600202020202020200020202020202020642F
:10575600656661756C742032353030004620202035
:1057660046697865642054696D65322020202020C2
:105776002020202020202020002020202020202043
:1057860020202020202064656661756C742030001E
:105796004720202066756467653020202020202061
:1057A60020202020202020202020202000522020E1
:1057B60020526573657420616C6C20746F2064657B
:1057C6006661756C742076616C7565730057202070
:1057D600205772697465206368616E67657320611E
:1057E6006E642065786974207365747570005A203C
:1057F600202044697363617264206368616E676523
:105806007320616E642065786974207365747570A1
:105816000063686F6F7365206F6E653A200053658D
:10582600747570206D6F64652E202056616C6964F6
:105836002073696E676C652D6C6574746572206380
:105846006F6D6D616E6473206172653A0020202071
:1058560054202020202054696D657374616D70207A
:105866006D6F646500202020502020202020506588
:1058760072696F64206D6F646500202020492020C6
:1058860020202074696D6520496E74657276616C9E
:1058960020412D3E42206D6F6465002020204C2063
:1058A6002020202054696D654C616220696E746504
:1058B6007276616C206D6F64650020202044202084
:1058C6002020204465627567206D6F646500456E13
:1058D600746572206D6F64653A20003F20506C65D8
:1058E60061736520656E74657220542050204920CE
:1058F6004C206F72204400436C6F636B207370659D
:1059060065642000204D487A2020283120746F20BD
:105916003136204D487A2C2064656661756C74209A
:105926003130204D487A2900456E746572206E65C7
:10593600772076616C75652028696E204D487A2936
:1059460020616E6420707265737320456E74657293
:1059560020286F72206A75737420456E74657220F4
:10596600666F72206E6F206368616E6765290043FB
:105976006F6172736520436C6F636B20526174654F
:1059860020002075732E202044656661756C742096
:1059960031303020757300456E746572206E657700
:1059A6002076616C75652028696E207573292061E3
:1059B6006E6420707265737320456E74657220285C
:1059C6006F72206A75737420456E74657220666FF7
:1059D60072206E6F206368616E6765290043616C93
:1059E6006962726174696F6E20706572696F647343
:1059F60020002043686F6F7365206F6E65206F66A9
:105A060020322C2031302C2032302C206F72203462
:105A1600302E202044656661756C74203230004556
:105A26006E746572206E65772076616C756520618F
:105A36006E6420707265737320456E7465722028DB
:105A46006F72206A75737420456E74657220666F76
:105A560072206E6F206368616E6765290054696DF8
:105A6600656F757420002043686F6F736520612031
:105A760076616C756520696E207468652072616E4A
:105A86006765203020746F203235352E202044651E
:105A96006661756C742035004D6173746572206F94
:105AA6007220536C617665200020202043686F6F5A
:105AB6007365204D206F7220532E20204465666149
:105AC600756C74206973204D004368616E6E656C59
:105AD60020202020202045646765002020204120CA
