:1000000053C100000C94FC0B0C94D10B0C94A60B68
:100010000C947B0B0C94500B0C94250B0C94FA0A4B
:100020000C94CF0A0C945A0A0C94EB090C947509A1
:100030006CC100006AC1000068C1000066C1000018
:1000400064C1000062C1000060C100005EC1000028
:100050005CC100005AC1000058C10000A9C40000E2
:1000600054C1000085C300005AC300004EC1000007
:100070004CC100004AC1000048C1000046C1000058
:1000800044C1000042C1000040C100003EC1000068
:100090003CC100003AC1000038C1000036C1000078
:1000A00034C1000032C1000030C100002EC1000088
:1000B0002CC100002AC1000028C1000026C1000098
:1000C00024C1000022C1000020C100001EC10000A8
:1000D0001CC100001AC1000018C1000016C10000B8
:1000E00014C10000B5180A1BC31A5C1BAF1B6717AD
:1000F000151D151D151D151D1F17151D151DDA19AB
:10010000151D201C8517331A151D151DF11CF81C13
:10011000A81A1A1DC302C602B502B902BF02FD0227
:10012000CA02CE02D402D802DC02E202E602EA02ED
:10013000FD02F002F402F802000021002400270072
:100140002A002D00300033000101000004010701E6
:100150000A010102102020080810204010204080D1
:10016000020102010804020101020408102040807B
:100170008040201008040201800402018040201009
:100180000804020108040201010204081020408052
:100190000102040810204080050505050705080830
:1001A0000808020202020A0A080804040404010101
:1001B0000101010101010303030303030303040716
:1001C00007070C0C0C0C0C0C0C0C020202020606AD
:1001D0000606060606060B0B0B0B0B0B0B0B0001A2
:1001E00004050503030405060405060701000100D4
:1001F00003020100000102030405060707060504C7
:1002000003020100070201000706050403020100C2
:1002100003020100000102030405060700010203B6
:100220000405060702030405060607000022002550
:100230000028002B002E00310034000201000005D0
:100240000108010B01000020002300260029002CDA
:10025000002F003200000100000301060109010027
:10026000000A0B02090C0D0E080703040100000030
:10027000000000000000000000000000000000007E
:10028000000000000000000000000012111000003B
:10029000000000000000000000000000000000005E
:1002A000000000000000B02611241FBECFEFD1E2F5
:1002B000DEBFCDBF00E00CBF20E1ACE7BDE001C078
:1002C0001D92A439B207E1F71DE0A0E0B2E0EEEF25
:1002D000F8E500E00BBF02C007900D92AC37B10704
:1002E000D9F711E0C4E5D1E000E006C0219701098B
:1002F000802FFE010E945A27C335D10780E00807EE
:10030000A9F70E9470110C947D2C7ACECF92DF92C7
:10031000EF92FF920F931F93CF93DF936C017A01BB
:100320008B01C0E0D0E0CE15DF0589F0D8016D91DA
:100330008D01D601ED91FC910190F081E02DC60177
:100340001995892B11F47E0102C02196ECCFC701CB
:10035000DF91CF911F910F91FF90EF90DF90CF90A1
:100360000895FC01918D828D981761F0828DDF01D7
:10037000A80FB11D5D968C91928D9F5F9F73928F98
:1003800090E008958FEF9FEF0895FC01918D828D8D
:10039000981731F0828DE80FF11D858D90E008955A
:1003A0008FEF9FEF0895FC01918D228D892F90E0B2
:1003B000805C9F4F821B91098F739927089584E970
:1003C0009EE0F1DF21E0892B09F420E0822F0895DF
:1003D000FC01848DDF01A80FB11DA35ABF4F2C91E2
:1003E000848D90E001968F739927848FA689B789B1
:1003F0002C93A089B1898C9180648C93938D848D8A
:10040000981306C00288F389E02D80818F7D808358
:100410000895EF92FF920F931F93CF93DF93EC0118
:1004200081E0888F9B8D8C8D981305C0E889F989B0
:10043000808185FD23C0F62E0B8D10E00F5F1F4FCE
:100440000F731127E02E8C8DE8120BC00FB607FC3E
:10045000FACFE889F989808185FFF5CFCE01B8DF31
:10046000F2CF8B8DFE01E80FF11DE35AFF4FF082B2
:100470000B8FEA89FB898081806207C0EE89FF8942
:100480006083E889F98980818064808381E090E0DD
:10049000DF91CF911F910F91FF90EF900895CF932F
:1004A000DF93EC01888D8823C1F0EA89FB89808184
:1004B00085FD05C0A889B9898C9186FD0EC00FB64F
:1004C00007FCF5CF808185FFF2CFA889B9898C918F
:1004D00085FFEDCFCE017CDFE8CFDF91CF9108958E
:1004E00080E090E0892B19F06ADF811125C080E05F
:1004F00090E0892B41F080E090E0892B21F00E9470
:10050000000081111CC080E090E0892B41F080E068
:1005100090E0892B21F00E940000811113C080E03F
:1005200090E0892BA1F080E090E0892B81F00E947F
:10053000000081110AC008950E940000D8CF0E94D7
:100540000000E1CF0E940000EACF0C940000089563
:1005500090E0FC013197E231F10508F04EC08827A8
:10056000E657FF4F8F4F0C945A27809180008F776A
:1005700003C0809180008F7D8093800008958091DA
:100580008000877FF9CF84B58F7702C084B58F7DD7
:1005900084BD08958091B0008F7703C08091B00032
:1005A0008F7D8093B0000895809190008F7707C071
:1005B000809190008F7D03C080919000877F809311
:1005C000900008958091A0008F7707C08091A000CF
:1005D0008F7D03C08091A000877F8093A000089545
:1005E000809120018F7707C0809120018F7D03C00B
:1005F00080912001877F8093200108953FB7F89470
:100600008091020E9091030EA091040EB091050E00
:1006100026B5A89B05C02F3F19F00196A11DB11D5D
:100620003FBFBA2FA92F982F8827820F911DA11D98
:10063000B11DBC01CD0142E0660F771F881F991FD5
:100640004A95D1F708958FB7F8948091FC0D8FBF2C
:1006500008958EBD00000DB407FEFDCF8EB5089540
:100660008CBD9DBD089570917C0D60917D0D509164
:100670007E0D40917F0D3091800D2091810D9091E4
:10068000820D8091830DE7ECFFE0708361835283DC
:1006900043833483258396838783089570917C0DEB
:1006A00060917D0D50917E0D40917F0D3091800DB8
:1006B0002091810D9091820D8091830DE1E3FFE007
:1006C00073A364A355A346A337A320A791A782A72A
:1006D000089520917C0D30917D0D40917E0D5091BB
:1006E0007F0D6091800D7091810D8091820D9091B0
:1006F000830DA1E00E94A52820937C0D30937D0DF1
:1007000040937E0D50937F0D6093800D7093810D0B
:100710008093820D9093830D08950E94C6281F92A6
:100720000F920FB60F9211240BB60F922F933F9397
:100730004F935F936F937F938F939F93AF93BF93E9
:10074000EF93FF9384E99EE043DEFF91EF91BF9129
:10075000AF919F918F917F916F915F914F913F9159
:100760002F910F900BBE0F900FBE0F901F901895FA
:100770001F920F920FB60F9211240BB60F922F9368
:100780008F939F93EF93FF93E091A40EF091A50EAA
:100790008081E091AA0EF091AB0E82FD12C0908193
:1007A0008091AD0E8F5F8F732091AE0E821751F046
:1007B000E091AD0EF0E0EC56F14F958F8093AD0EC9
:1007C00001C08081FF91EF919F918F912F910F90A8
:1007D0000BBE0F900FBE0F901F901895CF93DF9315
:1007E000282F30E0F901E15AFD4F8491F901EE5ACA
:1007F000FE4FD491F901E856FE4FC491CC2389F005
:100800008111A6DEEC2FF0E0EE0FFF1FEB5BFD4F3A
:10081000A591B491EC91ED2381E090E021F480E08A
:1008200002C080E090E0DF91CF9108951F93CF93B5
:10083000DF93282F30E0F901E15AFD4F8491F9014F
:10084000EE5AFE4FD491F901E856FE4FC491CC23E5
:10085000C1F0162F81117CDEEC2FF0E0EE0FFF1FB0
:10086000E55DFD4FA591B4918FB7F894111105C0C6
:100870009C91ED2FE095E92302C0EC91ED2BEC93D8
:100880008FBFDF91CF911F910895CF93DF9390E0B9
:10089000FC01EE5AFE4F2491FC01E856FE4F849174
:1008A000882361F190E0880F991FFC01E85CFE4FFE
:1008B000C591D491FC01E55DFD4FA591B491611105
:1008C00009C09FB7F8948881209582238883EC9192
:1008D0002E230BC0623061F49FB7F8943881822FC9
:1008E000809583238883EC912E2B2C939FBF06C089
:1008F0008FB7F894E8812E2B28838FBFDF91CF919B
:100900000895863308F0865390917B00282F287035
:10091000977F922B90937B008770806480937C00FC
:1009200080917A00806480937A0080917A0086FDBD
:10093000FCCF809178002091790090E0922B08956F
:100940008F929F92AF92BF92CF92DF92EF92FF92DF
:100950006B017C0153DE4B015C01C114D104E10445
:10096000F104E9F04BDEDC01CB0188199909AA09F1
:10097000BB09883E9340A105B10578F321E0C21A76
:10098000D108E108F10888EE880E83E0981EA11CCA
:10099000B11CC114D104E104F10421F7DECFFF90B2
:1009A000EF90DF90CF90BF90AF909F908F90089581
:1009B0001F920F920FB60F9211242F933F938F9394
:1009C0009F93AF93BF938091FE0D9091FF0DA091E7
:1009D000000EB091010E3091FD0D23E0230F2D3755
:1009E00020F40196A11DB11D05C026E8230F029633
:1009F000A11DB11D2093FD0D8093FE0D9093FF0D61
:100A0000A093000EB093010E8091020E9091030E00
:100A1000A091040EB091050E0196A11DB11D809309
:100A2000020E9093030EA093040EB093050EBF9197
:100A3000AF919F918F913F912F910F900FBE0F908B
:100A40001F901895FF920F931F93CF93DF931F92E0
:100A5000CDB7DEB78C01F62E80E591E0498300DE4C
:100A600060E0F801878DE2DE8F2D8064498150E0DF
:100A7000582B0CB405FC0CC05EBD00000DB407FE85
:100A8000FDCF8EB54EBD00000DB407FEFDCF0BC0EF
:100A90004EBD00000DB407FEFDCF8EB55EBD00005B
:100AA0000DB407FEFDCF8EB561E0F801878D0F9084
:100AB000DF91CF911F910F91FF90B8CE0F931F93AD
:100AC000CF93DF938C01C62F80E591E0C9DD60E014
:100AD000F801878DABDE8C2F8F71BBDD80E0B9DD37
:100AE00080E0B7DDC82F80E0B4DD6C2F70E0762F9A
:100AF0006627EB01C80FD11D61E0F801878D96DEF6
:100B00008FE090E00197F1F7BE0180E090E0DF9187
:100B1000CF911F910F9108952F923F924F925F9224
:100B20006F927F928F929F92AF92BF92CF92DF92FD
:100B3000EF92FF920F931F93CF93DF93CDB7DEB762
:100B4000C859D1090FB6F894DEBF0FBECDBFC75745
:100B5000DF4F2883C958D040C657DF4F3883CA5863
:100B6000D040C557DF4F4883CB58D040C457DF4FE4
:100B70005883CC58D040C357DF4F6883CD58D040FE
:100B8000C257DF4F7883CE58D040C157DF4F88839C
:100B9000CF58D040C057DF4F9883C059D040A12CC8
:100BA000E0E1BE2EF5EACF2EA4EDDA2EB8EEEB2E64
:100BB000F12C00E010E00E94B527CF56DF4F2883CC
:100BC000C159D040CE56DF4F3883C259D040CD56A0
:100BD000DF4F4883C359D040CC56DF4F5883C459A8
:100BE000D040CB56DF4F6883C559D040CA56DF4F3F
:100BF0007883C659D040C956DF4F8883C759D04043
:100C0000C856DF4F9883C859D0400E9462275901C7
:100C10006A017B018C01C757DF4F2881C958D0403A
:100C2000C657DF4F3881CA58D040C557DF4F48817B
:100C3000CB58D040C457DF4F5881CC58D040C35711
:100C4000DF4F6881CD58D040C257DF4F7881CE58F2
:100C5000D040C157DF4F8881CF58D040C057DF4FB9
:100C60009881C059D0400E94B12829013A014B0116
:100C70001C01A0E00E94BA2834F40E943C282901FB
:100C80003A014B011C0190E4A92E22E4B22E3FE070
:100C9000C32ED12CE12CF12C00E010E09201A30135
:100CA000B401C1010E94B527CF57DF4F2883C15837
:100CB000D040CE57DF4F3883C258D040CD57DF4F9A
:100CC0004883C358D040CC57DF4F5883C458D040D6
:100CD000CB57DF4F6883C558D040CA57DF4F788362
:100CE000C658D040C957DF4F8883C758D040C8572F
:100CF000DF4F9883C858D04005E00E948328CF5723
:100D0000DF4FA880C158D040CE57DF4FB880C258BF
:100D1000D040CD57DF4FC880C358D040CC57DF4FAD
:100D2000D880C458D040CB57DF4FE880C558D0405A
:100D3000CA57DF4FF880C658D040C957DF4F0881E7
:100D4000C758D040C857DF4F1881C858D0400E94BC
:100D5000B12859016A017B01E82F192F06E00E9492
:100D600083280E2F0E94B12803E00E948328CF57CA
:100D7000DF4FA880C158D040CE57DF4FB880C2584F
:100D8000D040CD57DF4FC880C358D040CC57DF4F3D
:100D9000D880C458D040CB57DF4FE880C558D040EA
:100DA000CA57DF4FF880C658D040C957DF4F088177
:100DB000C758D040C857DF4F1881C858D0400E944C
:100DC0009C2806E00E94832859016A017B018C015E
:100DD0009201A301B401C1010E94B128722E632EB9
:100DE000542E452E362E272EF82EE92EC757DF4FCC
:100DF0002881C958D040C657DF4F3881CA58D040E3
:100E0000C557DF4F4881CB58D040C457DF4F58817A
:100E1000CC58D040C357DF4F6881CD58D040C2571F
:100E2000DF4F7881CE58D040C157DF4F8881CF58EF
:100E3000D040C057DF4F9881C059D040A0E00E94F9
:100E4000BA2824F48CE69DE00E946511C856DF4F55
:100E50008881C859D0408F93C956DF4F9881C759B0
:100E6000D0409F93CA56DF4F8881C659D0408F9398
:100E7000CB56DF4F9881C559D0409F93CC56DF4F5A
:100E80008881C459D0408F93CD56DF4F9881C35984
:100E9000D0409F93CE56DF4F8881C259D0408F9368
:100EA000CF56DF4F9881C159D0409F938EE69DE089
:100EB0009F938F938E010F5F1F4F1F930F930E947D
:100EC000E928C8010E946511C857DF4F8881C858BA
:100ED000D0408F93C957DF4F9881C758D0409F9318
:100EE000CA57DF4F8881C658D0408F93CB57DF4F0A
:100EF0009881C558D0409F93CC57DF4F8881C45804
:100F0000D0408F93CD57DF4F9881C358D0409F93E7
:100F1000CE57DF4F8881C258D0408F93CF57DF4FD5
:100F20009881C158D0409F9383E7882E8DE0982EFA
:100F30009F928F921F930F930E94E928C8010E94ED
:100F40006511EF92FF922F923F924F925F926F92B4
:100F50007F929F928F921F930F930E94E9280FB662
:100F6000F894DEBF0FBECDBFC8010E946511C85600
:100F7000DF4F0FB6F894DEBF0FBECDBFDF91CF912C
:100F80001F910F91FF90EF90DF90CF90BF90AF90A7
:100F90009F908F907F906F905F904F903F902F9099
:100FA0000895EF92FF920F931F93CF93DF937C01ED
:100FB0008B01C0E0D0E0F80161918F01CE018E0D70
:100FC0009F1D0E94122C2196C430D105A1F784E008
:100FD00090E0DF91CF911F910F91FF90EF900895D6
:100FE000EF92FF920F931F93CF93DF938B010C5FD0
:100FF0001F4FEB017C01E61AF70AC7018C0F9D1FFA
:101000000E940A2C8993C017D107B9F784E090E0B9
:10101000DF91CF911F910F91FF90EF900895EF9284
:10102000FF920F931F93CF93DF937C018B01C0E05E
:10103000D0E0F80161918F01CE018E0D9F1D0E94BD
:10104000122C2196CD36D105A1F78DE690E0DF91E7
:10105000CF911F910F91FF90EF9008952F923F92A3
:101060004F925F926F927F928F929F92AF92BF92B8
:10107000CF92DF92EF92FF920F931F93CF93DF9364
:10108000CDB7DEB7C958D1090FB6F894DEBF0FBE91
:10109000CDBF19012A01CF57DF4F6883C158D04017
:1010A000CE57DF4F7883C258D040CD57DF4F88836B
:1010B000C358D040CC57DF4F9883C458D04020E469
:1010C000A22E32E4B32E4FE0C42ED12CE12CF12C11
:1010D00000E010E09101A2010E94B527B22FE32F9A
:1010E000F42FA52F3B014C0105E00E948328AB2E75
:1010F000BE2ECF2EDA2E730184010E94B128590131
:101100006A017B01CB57DF4F8883C558D040192F28
:1011100006E00E948328CB57DF4F0881C558D04096
:101120000E94B12803E00E948328AB2EBE2ECF2E52
:10113000DA2E730184010E949C2806E00E94832815
:1011400059016A017B018C019101A201CF57DF4F48
:101150006881C158D040CE57DF4F7881C258D04007
:10116000CD57DF4F8881C358D040CC57DF4F98818F
:10117000C458D0400E94B128AF93FF93EF93BF9320
:101180008EE69DE09F938F938E010F5F1F4F1F93FD
:101190000F93CA57DF4F2883C658D040C957DF4F37
:1011A0003883C758D040C857DF4F4883C858D0400D
:1011B000C757DF4F5883C958D0400E94E928C8015B
:1011C0000E946511C757DF4F5881C958D0405F93BF
:1011D000C857DF4F4881C858D0404F93C957DF4F99
:1011E0003881C758D0403F93CA57DF4F2881C6582F
:1011F000D0402F9383E79DE09F938F931F930F938E
:101200000E94E928C8010E9465110FB6F894DEBF5C
:101210000FBECDBFC757DF4F0FB6F894DEBF0FBE6E
:10122000CDBFDF91CF911F910F91FF90EF90DF9095
:10123000CF90BF90AF909F908F907F906F905F9076
:101240004F903F902F900895CF9384E99EE0ABD8C4
:10125000892BD9F384E99EE084D8C82F9BD48C2FA6
:10126000CF910895CF931092910E1092900ECDE0F1
:10127000EBDF2091900E3091910E2E37310524F442
:101280008A3011F08D3091F4C90101969093910E3E
:101290008093900EF901E05FF14FC083FC01E05FA5
:1012A000F14F1082029724F3CF910895883089F48A
:1012B00080E270D488E06ED48091900E9091910E6F
:1012C00018161906ACF601979093910E8093900E24
:1012D000CFCFA9014F5F5F4F5093910E4093900E77
:1012E000F901E05FF14F8083C3CF1F920F920FB6D9
:1012F0000F9211240BB60F922F933F934F935F934E
:101300006F937F938F939F93AF93BF93CF93EF93FD
:10131000FF9320910601C091FB0D9091FA0D8091F1
:10132000F90D322F309583239223892B90916D00F4
:10133000C227C923C8232093FB0DCC23C1F1C0FFD2
:1013400005C0E091E90DF091EA0D1995C1FF05C0C6
:10135000E091EB0DF091EC0D1995C2FF05C0E09105
:10136000ED0DF091EE0D1995C3FF05C0E091EF0D65
:10137000F091F00D1995C4FF05C0E091F10DF091C9
:10138000F20D1995C5FF05C0E091F30DF091F40D34
:101390001995C6FF05C0E091F50DF091F60D199570
:1013A000C7FF05C0E091F70DF091F80D1995FF9179
:1013B000EF91CF91BF91AF919F918F917F916F915D
:1013C0005F914F913F912F910F900BBE0F900FBEE9
:1013D0000F901F9018951F920F920FB60F92112425
:1013E0000BB60F922F933F934F935F936F937F931F
:1013F0008F939F93AF93BF93CF93EF93FF932091DE
:101400000301C091E80D9091E70D8091E60D322F18
:10141000309583239223892B9091E50DC227C92310
:10142000C8232093E80DCC2389F1C0FF05C0E091CB
:10143000D70DF091D80D1995C1FF05C0E091D90DD8
:10144000F091DA0D1995C2FF05C0E091DB0DF09126
:10145000DC0D1995C3FF05C0E091DD0DF091DE0DA7
:101460001995C4FF05C0E091DF0DF091E00D1995CD
:10147000C5FF05C0E091E10DF091E20D1995C6FFA1
:1014800005C0E091E30DF091E40D1995FF91EF9106
:10149000CF91BF91AF919F918F917F916F915F910C
:1014A0004F913F912F910F900BBE0F900FBE0F9059
:1014B0001F9018951F920F920FB60F9211240BB622
:1014C0000F922F933F934F935F936F937F938F93DD
:1014D0009F93AF93BF93CF93EF93FF9323B1C091AB
:1014E000D60D9091D50D8091D40D322F3095832358
:1014F0009223892B90916B00C227C923C823209384
:10150000D60DCC23C1F1C0FF05C0E091C40DF09110
:10151000C50D1995C1FF05C0E091C60DF091C70D2D
:101520001995C2FF05C0E091C80DF091C90D19953C
:10153000C3FF05C0E091CA0DF091CB0D1995C4FF12
:1015400005C0E091CC0DF091CD0D1995C5FF05C0FA
:10155000E091CE0DF091CF0D1995C6FF05C0E09139
:10156000D00DF091D10D1995C7FF05C0E091D20DB6
:10157000F091D30D1995FF91EF91CF91BF91AF915C
:101580009F918F917F916F915F914F913F912F919B
:101590000F900BBE0F900FBE0F901F9018951F92CB
:1015A0000F920FB60F9211240BB60F922F933F9309
:1015B0004F935F936F937F938F939F93AF93BF935B
:1015C000EF93FF93E091C20DF091C30D1995FF9138
:1015D000EF91BF91AF919F918F917F916F915F91AB
:1015E0004F913F912F910F900BBE0F900FBE0F9018
:1015F0001F9018951F920F920FB60F9211240BB6E1
:101600000F922F933F934F935F936F937F938F939B
:101610009F93AF93BF93EF93FF93E091C00DF09131
:10162000C10D1995FF91EF91BF91AF919F918F914E
:101630007F916F915F914F913F912F910F900BBED2
:101640000F900FBE0F901F9018951F920F920FB61C
:101650000F9211240BB60F922F933F934F935F93EA
:101660006F937F938F939F93AF93BF93EF93FF936A
:10167000E091BE0DF091BF0D1995FF91EF91BF91D3
:10168000AF919F918F917F916F915F914F913F911A
:101690002F910F900BBE0F900FBE0F901F901895BB
:1016A0001F920F920FB60F9211240BB60F922F9329
:1016B0003F934F935F936F937F938F939F93AF93DA
:1016C000BF93EF93FF93E091BC0DF091BD0D199581
:1016D000FF91EF91BF91AF919F918F917F916F910A
:1016E0005F914F913F912F910F900BBE0F900FBEC6
:1016F0000F901F9018951F920F920FB60F92112402
:101700000BB60F922F933F934F935F936F937F93FB
:101710008F939F93AF93BF93EF93FF93E091BA0D95
:10172000F091BB0D1995FF91EF91BF91AF919F91F2
:101730008F917F916F915F914F913F912F910F907A
:101740000BBE0F900FBE0F901F9018951F920F9217
:101750000FB60F9211240BB60F922F933F934F9316
:101760005F936F937F938F939F93AF93BF93EF9309
:10177000FF93E091B80DF091B90D1995FF91EF919C
:10178000BF91AF919F918F917F916F915F914F9199
:101790003F912F910F900BBE0F900FBE0F901F9097
:1017A00018951F920F920FB60F9211240BB60F923D
:1017B0002F933F934F935F936F937F938F939F9359
:1017C000AF93BF93EF93FF93E091B60DF091B70DF8
:1017D0001995FF91EF91BF91AF919F918F917F915B
:1017E0006F915F914F913F912F910F900BBE0F9092
:1017F0000FBE0F901F9018951F920F920FB60F9269
:1018000011240BB60F922F933F934F935F936F93D7
:101810007F938F939F93AF93BF93EF93FF93E09149
:10182000B40DF091B50D1995FF91EF91BF91AF9166
:101830009F918F917F916F915F914F913F912F91E8
:101840000F900BBE0F900FBE0F901F901895542F46
:101850008F779EEF980F923008F4B6C095EB980FF3
:10186000923008F4B1C09EEE980F943008F4ACC0EA
:10187000282F30E0F901863438F0E45BFE4F849184
:10188000433009F063C115C0EE5AFE4F8491F9014F
:10189000E856FE4F9491433011F04130B9F4923044
:1018A00031F44091D50D482B4093D50D0FC09A309F
:1018B00031F49091E70D982B9093E70D4AC19B303E
:1018C00029F44091FA0D482B4093FA0D4FEF450F44
:1018D0004230B8F4923031F44091D40D482B40930B
:1018E000D40D0FC09A3031F44091E60D482B40934F
:1018F000E60D07C09B3029F44091F90D482B409329
:10190000F90DF901E252FE4FA4919230C1F4B0E01A
:10191000AA0FBB1FAC53B24F6D937C93E9E4F2E086
:10192000A591B4919C919093D60D2BE630E0309325
:10193000B30D2093B20D9091680091603BC09A3036
:1019400001F5B0E0AA0FBB1FA952B24F6D937C9373
:10195000E9E5F2E0A591B4919C919093E80D2CE615
:1019600030E03093B30D2093B20D909168009260F7
:10197000909368009091E50D982B9093E50D880F5A
:101980001BC09B30C9F4B0E0AA0FBB1FA751B24FD8
:101990006D937C93EBE5F2E0A591B4919C919093CB
:1019A000FB0D2DE630E03093B30D2093B20D9091F6
:1019B0006800946090936800A091B20DB091B30D4F
:1019C000EC918E2B8C9308959FB7F894833109F492
:1019D00064C0E0F4833009F48CC0823109F473C030
:1019E000823009F0B1C07093BD0D6093BC0DEC98CE
:1019F00080916A008C7F80936A0080916A00452FF5
:101A0000482B40936A00E49AEC9A9EC08531E9F035
:101A100070F18B3409F483C08C3409F095C0709355
:101A2000C30D6093C20DEF9880916A008F7380930D
:101A30006A0080916A0020E4529FA0011124482B83
:101A400040936A00E79AEF9A7FC07093B50D609358
:101A5000B40DE898809169008C7F80936900409173
:101A60006900452B40936900E09AE89A6DC0709335
:101A7000B70D6093B60DE99880916900837F8093DC
:101A800069008091690024E0529FA0011124482B35
:101A900040936900E19AE99A57C07093B90D609339
:101AA000B80DEA98809169008F7C809369008091DD
:101AB000690020E1529FA0011124482B4093690046
:101AC000E29AEA9A41C07093BB0D6093BA0DEB980D
:101AD000809169008F73809369008091690020E490
:101AE000529FA0011124482B40936900E39AEB9A7E
:101AF0002BC07093BF0D6093BE0DED9880916A006E
:101B0000837F80936A0080916A0024E0529FA00145
:101B10001124482B40936A00E59AED9A15C0709302
:101B2000C10D6093C00DEE9880916A008F7C809308
:101B30006A0080916A0020E1529FA0011124482B85
:101B400040936A00E69AEE9A9FBF0895413009F4E7
:101B5000B0CE9AE0BBCE009769F0FC010190002066
:101B6000E9F73197AF01481B590BBC0184E99EE0AE
:101B70000C94860180E090E0089589E79DE0EBCF2A
:101B8000CF93DF93E8DFEC01F8DF8C0F9D1FDF912F
:101B9000CF910895E091940EF091950E0190F0810F
:101BA000E02D682F84E99EE019948091920E909127
:101BB000930E2091900E3091910E82179307ACF402
:101BC000FC01E05FF14F8081E5DF8091920E909102
:101BD000930E9C012F5F3F4F3093930E2093920EF4
:101BE000FC01E05FF14F808108952ECB2F923F9250
:101BF0004F925F926F927F928F929F92AF92BF921D
:101C0000CF92DF92EF92FF920F931F93CF93DF93C8
:101C1000CDB7DEB72E970FB6F894DEBF0FBECDBF9F
:101C20009A83898310928C1010928D1010928E10CE
:101C300010928F101092901010929110109292109A
:101C400010929310109284101092851010928610AA
:101C500010928710109288101092891010928A109A
:101C600010928B101092080E1092090E10920A0E0C
:101C700010920B0E10920C0E10920D0E10920E0E72
:101C800010920F0E81E080930002109201021092D8
:101C900002021092030210920402109205021092A6
:101CA0000602109207021092070E1092060E7DDFB8
:101CB000182F082E000C990B0E94CA28892BB9F7FF
:101CC0001B3219F472DF182F09C01D3239F46DDF91
:101CD000182F81E090E09C878B8702C01C861B86B2
:101CE000EE24E394F12C103339F45FDF182FF092D7
:101CF000070EE092060EF7CF812F012E000C990BF4
:101D0000C0970A9708F057C022242394312CE12F62
:101D1000012E000CFF0BF097EA30F10508F048C0E7
:101D20003092070E2092060E20918C1030918D106B
:101D300040918E1050918F10609190107091911081
:101D4000809192109091931001E00E9483282901C4
:101D50003A014B01B82FA92F02E00E9483285901B4
:101D60006A017B018C019201A301B4018B2F9A2F90
:101D70000E949C281F2F110F110B5F01C12ED12E25
:101D8000E12EF12E012F0E949C2820938C1030937D
:101D90008D1040938E1050938F106093901070931D
:101DA00091108093921090939310FFDE182FAFCF75
:101DB0001E861D8610C01E3299F4F7DE182F1E866F
:101DC0001D86103341F4AD85BE851197BE87AD8762
:101DD000ECDE182FF6CF1E3229F4E7DE182F02C0F2
:101DE0001E861D8688248394912CE12F012E000CE1
:101DF000FF0BF097EA30F10508F04DC09092070E06
:101E00008092060E20918C1030918D1040918E1092
:101E100050918F106091901070919110809192105C
:101E20009091931001E00E94832819012A013B013F
:101E3000B82FA92F02E00E94832859016A017B0173
:101E40008C019101A201B3018B2F9A2F0E949C2833
:101E50001F2F110F110B5F01C12ED12EE12EF12E7C
:101E6000012F0E949C2820938C1030938D1040935A
:101E70008E1050938F1060939010709391108093F8
:101E8000921090939310ED85FE853197FE87ED8734
:101E90008CDE182FAACF1F7D153489F586DE8B3294
:101EA00011F483DE06C08D3221F47FDE01E010E004
:101EB00002C000E010E0803311F477DEFCCFE12CAB
:101EC000F12C9AE0D92E082E000C990BC0978A307D
:101ED000910550F4DE9C9001DF9C300D11247901B6
:101EE000E80EF91E62DEEFCF012B19F0F194E194B8
:101EF000F1088D859E858E0D9F1D9E878D87809113
:101F0000060E9091070E892B09F455C180908C1014
:101F100090908D1090918E109B83A0918F10AC8328
:101F2000B0919010BD83E0919110EE83609092107B
:101F300070909310809284109092851090938610E8
:101F4000A0938710B0938810E093891060928A1054
:101F500070928B108D859E8597FF8CC0309000020B
:101F600020900102909102029F83A0910302A88712
:101F7000B0910402B987E0910502EA875090060209
:101F800040900702232D322D4F81588569857A852F
:101F9000852D942D01E00E94832819012A01B62F76
:101FA000A72FF82FE92F02E00E94832859016A0128
:101FB0007B018C019101A2016B2F7A2F8F2F9E2F15
:101FC0000E949C28322E232E4F83588769877A8758
:101FD000582E492E8D859E8501969E878D87892B4B
:101FE00089F630920002209201024093020250933F
:101FF000030260930402709305025092060240921D
:102000000702A32CB22CC42ED52EE62EF72E052DBA
:10201000142D94014B815C816D817E81C3010E94EE
:10202000B3272093080E3093090E40930A0E509365
:102030000B0E60930C0E70930D0E80930E0E90930A
:102040000F0E94014B815C816D817E81C3010E94E2
:10205000B5272093841030938510409386105093B9
:102060008710609388107093891080938A109093E2
:102070008B103EC08D859E85892BD1F1E0E0F0E08C
:1020800094014B815C816D817E81C30101E00E94DE
:10209000832829013A014B01B82FA92F02E00E94A1
:1020A000832859016A017B018C019201A301B401CB
:1020B0008B2F9A2F0E949C2849014B835C836D8350
:1020C0007E833C013196AD85BE85EA17FB07C1F6DC
:1020D000209384109092851040938610509387101F
:1020E000609388107093891060928A1070928B10A0
:1020F000AB85BC85AB2B09F444C020918410309192
:1021000085104091861050918710609188107091D1
:10211000891080918A1090918B100E943C28209306
:1021200084103093851040938610509387106093ED
:1021300088107093891080938A1090938B1020914F
:10214000080E3091090E40910A0E50910B0E6091CD
:102150000C0E70910D0E80910E0E90910F0E0E943C
:102160003C282093080E3093090E40930A0E50939A
:102170000B0E60930C0E70930D0E80930E0E9093C9
:102180000F0E80918410E981FA81808380918510FF
:1021900081838091861082838091871083838091D0
:1021A0008810848380918910858380918A1086832A
:1021B00080918B1087832E960FB6F894DEBF0FBEEA
:1021C000CDBFDF91CF911F910F91FF90EF90DF90E6
:1021D000CF90BF90AF909F908F907F906F905F90C7
:1021E0004F903F902F9008958F929F92AF92BF9201
:1021F0000F931F93CF93DF93CDB7DEB7A1970FB6A1
:10220000F894DEBF0FBECDBF19A2423008F44AE0F9
:102210008E010F5D1F4F842E912CA12CB12CA50196
:1022200094010E944C2CE62FB901CA0101501109FA
:10223000EA3014F4E05D01C0E95CD801EC93232B93
:10224000242B252B61F7C80186DCA1960FB6F894E4
:10225000DEBF0FBECDBFDF91CF911F910F91BF9019
:10226000AF909F908F900895CF92DF92EF92FF9260
:10227000CF93DF9397FF17C06B017C018DE28ADC5F
:10228000EC0166277727CB016C197D098E099F0920
:102290004AE0AADF8C0F9D1FDF91CF91FF90EF9056
:1022A000DF90CF9008954AE0DF91CF91FF90EF90BB
:1022B000DF90CF9099CFCF93DF93D6DFEC015DDC39
:1022C0008C0F9D1FDF91CF91089545CCCF93DF9365
:1022D00061DCEC0152DC8C0F9D1FDF91CF910895E2
:1022E000CF93DF93CDB7DEB7CF51D1400FB6F8947F
:1022F000DEBF0FBECDBF789484B5826084BD84B547
:10230000816084BD85B5826085BD85B5816085BDF0
:1023100080916E00816080936E00109281008091A8
:102320008100826080938100809181008160809330
:102330008100809180008160809380008091B10055
:1023400084608093B1008091B00081608093B00080
:1023500080919100826080939100809191008160D2
:102360008093910080919000816080939000809193
:10237000A10082608093A1008091A1008160809380
:10238000A1008091A00081608093A0008091210134
:1023900082608093210180912101816080932101DD
:1023A0008091200181608093200180917A00846077
:1023B00080937A0080917A00826080937A00809185
:1023C0007A00816080937A0080917A00806880939F
:1023D0007A001092C10060E082E10E94450461E051
:1023E0008CE00E94450461E08DE00E94450461E0BC
:1023F00084E40E94160461E085E40E941604E091E2
:10240000A40EF091A50E82E08083E091A00EF091E1
:10241000A10E1082E091A20EF091A30E80E18083C4
:102420001092AC0EE091A80EF091A90E86E0808388
:10243000E091A60EF091A70E808180618083E091EB
:10244000A60EF091A70E808188608083E091A60E91
:10245000F091A70E808180688083E091A60EF091B4
:10246000A70E80818F7D80831FB7F8948091840DA3
:10247000811127C0EDECF1E08491E7E8F1E094915F
:10248000E82FF0E0EE0FFF1FE85CFE4FA591B4913E
:10249000EC91E92321F461E085E30E94160461E0F8
:1024A00085E30E9445048CB580618CBD8CB5806449
:1024B0008CBD61E084E30E94450461E083E30E94F7
:1024C00045048091840D8F5F8093840D1FBFBE01F2
:1024D00062597F4F80EF9FE00E94F0078E010F5FEF
:1024E0001F4FB80184EF9FE00E94F007E2968CAD89
:1024F0009DADAEADBFADE2978F3F2FEF9207A20724
:10250000B20759F489819A81AB81BC818F3F9F4F7B
:10251000AF4FBF4F09F087C00EC0892B8A2B8B2B82
:1025200009F081C089819A81AB81BC81892B8A2B7A
:102530008B2B09F078C082E392E022DB86E30E94D5
:102540008104BC01990F880B990B611571058105F8
:10255000910511F00E94012C0E94FE2B2FEF3FEFFE
:1025600040E050E00E94202CE2966CAF7DAF8EAF31
:102570009FAFE29789E30E948104BC01990F880B09
:10258000990B611571058105910511F00E94012CCF
:102590000E94FE2B2FEF3FEF40E050E00E94202CE6
:1025A00069837A838B839C83BE0162597F4F80EF5E
:1025B0009FE00E94D107B80184EF9FE00E94D107FD
:1025C0008C818F938B818F938A818F9389818F9355
:1025D000E2968FADE2978F93E1968FADE1978F935F
:1025E000E0968FADE0978F93AF968FADAF978F93B7
:1025F00087E592E09F938F9385E89DE09F938F936B
:102600000E94E9288AEB93E060DE85E89DE0B8DA75
:102610006CE47DE180E090E00E94A0040FB6F894A5
:10262000DEBF0FBECDBF8C818F938B818F938A814C
:102630008F9389818F93E2968FADE2978F93E19686
:102640008FADE1978F93E0968FADE0978F93AF9624
:102650008FADAF978F9387E592E09F938F9385E837
:102660009DE09F938F930E94E92880E090E00E9474
:102670000A2C0FB6F894DEBF0FBECDBF883009F428
:10268000CFC082E692E07CDA88E0898341E150E0C5
:102690006CE072E0CE0102960E94DA2884E48B8B13
:1026A00041E150E065E87DE0CE0144960E94DA28E1
:1026B0001DA21EA280E88FA386E988A788E989A7C2
:1026C0001AA61BA61CA61DA61EA61FA681EE88ABD9
:1026D00085EF89AB85E08AAB1BAA1CAA1DAA1EAA9E
:1026E00084E190E098AF8FAB85E090E09AAF89AF3E
:1026F0008DE48BAF82E58CAF8DAF94EC9EAF89E01B
:102700008FAF21961FAE219722961FAE2297239658
:102710001FAE239724961FAE249725961FAE2597AC
:1027200026961FAE269727969FAF279728968FAF9E
:10273000289729961FAE29972A961FAE2A972B967F
:102740001FAE2B972C961FAE2C972D961FAE2D9754
:102750002E961FAE2E972F961FAE2F9760961FAE08
:10276000609761961FAE619762961FAE62976396FF
:102770001FAE639764961FAE649765961FAE65970C
:1027800066961FAE669767961FAE679768961FAEF0
:10279000689769961FAE69976A961FAE6A976B969F
:1027A0001FAE6B976C961FAE6C976D961FAE6D97B4
:1027B0006E961FAE6E976F961FAE6F97A0961FAE68
:1027C000A097A1961FAEA197A2961FAEA297A3961F
:1027D0001FAEA397A4961FAEA497A5961FAEA5976C
:1027E000A6961FAEA697A7961FAEA797A8961FAE50
:1027F000A897A9961FAEA997AA961FAEAA97AB96BF
:102800001FAEAB97AC961FAEAC97AD961FAEAD9713
:10281000AE961FAEAE97B80180E090E00E940F0820
:10282000B7E1CB2EB0E1DB2EE12CF12CC7010E94E9
:102830000A2CD6018D936D01BFEFEB1AFB0AEDE672
:10284000EE16F10499F780913B1080939F0D95D976
:1028500087E892E095D988EA92E092D98ED983ED03
:1028600092E08ED989EE92E08BD98DE6E7E1F0E136
:10287000DE01A259BF4F01900D928A95E1F780E0E9
:1028800093E023DDCE56DF4F9881C259D04092307D
:1028900081F038F4992351F09130A1F486E293E06D
:1028A00010C0933049F0943051F00CC085E193E0B2
:1028B00008C08FE193E005C089E393E061D98BE420
:1028C00093E05ED981E593E000DDCD56DF4F88814E
:1028D000C359D040882321F05DD984E693E005C038
:1028E00083E793E0F2DC87E693E04AD988E793E058
:1028F000ECDC80E090E00E940A2C682F70E080E021
:1029000090E04AE071DC8BE893E0DFDCC058DF4FF9
:102910008881C058D040DADC8DE993E0D6DC8CE0C9
:1029200092E02ED982EB93E0D0DC8EE690E08C0F23
:102930009D1F439625D98AEC93E0C7DCCC56DF4F28
:102940002881C459D040CB56DF4F3881C559D0407B
:10295000CA56DF4F4881C659D040C956DF4F58810B
:10296000C759D040C856DF4F6881C859D040C756B4
:10297000DF4F7881C959D040C656DF4F8881CA5988
:10298000D040C556DF4F9881CB59D0400E942E08C9
:102990008AED93E0F5D88FED93E097DCC456DF4FD6
:1029A0002881CC59D040C356DF4F3881CD59D04013
:1029B000C256DF4F4881CE59D040C156DF4F5881B3
:1029C000CF59D040C056DF4F6881C05AD040CF5554
:1029D000DF4F7881C15AD040CE55DF4F8881C25A2F
:1029E000D040CD55DF4F9881C35AD0400E942E0869
:1029F0008FEE93E0C5D885EF93E067DCCC55DF4FD1
:102A000068817981C45AD040072E000C880B990B3D
:102A10002BDCB3D885E094E058DCC855DF4F8881C3
:102A2000C85AD04053DC82E194E04FDCC955DF4FF7
:102A30008881C75AD0408F93CA55DF4F8881C65AC4
:102A4000D0408F938EE194E09F938F931F930F93C9
:102A50000E94E928C80194D885E294E036DCEEE6CD
:102A6000F0E0EC0FFD1FFD96608171818281938102
:102A7000FBDB87E394E029DCCD54DF4F688179816B
:102A80008A819B81C35BD040EFDB80E494E078D8FF
:102A900087E494E01ADCC554DF4F688179818A812C
:102AA0009B81CB5BD040E0DB87E394E00EDCCD5331
:102AB000DF4F688179818A819B81C35CD040D4DB00
:102AC00080E494E05DD887E594E0FFDBC553DF4FF9
:102AD000688179818A819B81CB5CD040C5DB87E3AB
:102AE00094E0F3DBCD52DF4F688179818A819B814D
:102AF000C35DD040B9DB80E494E042D883ED92E03E
:102B00003FD882E694E03CD887E894E0DEDB0F9083
:102B10000F900F900F900F900F9007E010E06AEF6A
:102B200070E080E090E00E94A0048EE233D884E957
:102B30009EE00E94D301892B11F011E02FC06AEFB3
:102B400070E080E090E00E94A0048EE223D884E947
:102B50009EE00E94D301892B81F76AEF70E080E04C
:102B600090E00E94A0048EE215D884E99EE00E94C5
:102B7000D301892B11F76AEF70E080E090E00E94AA
:102B8000A0048EE207D884E99EE00E94D301892B3D
:102B9000A1F60150110909F0C2CF10E084E99EE0CE
:102BA0000E94D301892B29F084E99EE00E94B101A3
:102BB000F5CF112309F43EC78E0105511F4FCD50AB
:102BC000DF4F19830883C35FD0401E011BED210E28
:102BD000311C0E94BD0D0E94BD0D8AE894E075DB9A
:102BE000E0913B10E53028F4F0E0E35EFD4F80819A
:102BF00001C08FE30E94CA0D87EA94E00E94C00DD5
:102C000080EC94E062DB80913C10882329F00E94E4
:102C1000CA0D8DED94E005C08FE398E056DB81EEA0
:102C200094E00E94C00D8AEF94E04FDB20913D10AC
:102C300030913E1040913F105091401060914110F2
:102C40007091421080914310909144100E942E0880
:102C500087E195E00E94C00D89E295E036DB209186
:102C600045103091461040914710509148106091A6
:102C7000491070914A1080914B1090914C100E9415
:102C80002E0886E495E00E94C00D88E595E01DDBE6
:102C900060914D1070914E10072E000C880B990B0F
:102CA000E3DA85E795E00E94C00D8EE895E00DDB44
:102CB00080914F1090915010092E000CAA0BBB0B65
:102CC000BF93AF939F938F93ABEAB5E0BF93AF935E
:102CD000CC50DF4FF881C45FD040FF93CD50DF4F21
:102CE0000881C35FD0400F930E94E928CE0185512F
:102CF0009F4FEBDA82EB95E00E94C00D8BEC95E0E4
:102D0000E4DA809151100E94CA0D88EE95E00E948D
:102D1000C00D81E096E0D9DA809152100E94CA0D70
:102D200080E20E94CA0D809153100E94CA0D8EE16C
:102D300096E00E94C00D85E396E0C7DA60915410DA
:102D40007091551080915610909157108DDA80E255
:102D50000E94CA0D60915C1070915D1080915E10B0
:102D600090915F1081DA82E596E00E94C00D86E6C0
:102D700096E0ABDA609164107091651080916610F6
:102D80009091671071DA80E20E94CA0D60916C1018
:102D900070916D1080916E1090916F1065DA83E8DC
:102DA00096E00E94C00D8AE996E08FDA6091741077
:102DB00070917510809176109091771055DA80E2BD
:102DC0000E94CA0D60917C1070917D1080917E10E0
:102DD00090917F1049DA83E896E00E94C00D0E942E
:102DE000BD0D87EB96E00E94C00D87ED96E00E9436
:102DF000C00D88EF96E00E94C00D8BE197E00E9425
:102E0000C00D0E942409082E000C990B0E94D228A4
:102E10000FB6F894DEBF0FBECDBF082E000C990B85
:102E2000AA0BBB0BFC01E354F109E831F10508F0F2
:102E3000FCC58827EE58FF4F8F4F0C945A2788E225
:102E400097E00E94C00D0E94BD0D87E597E00E94AB
:102E5000C00D8FE697E00E94C00D84E897E00E94C5
:102E6000C00D85EA97E00E94C00D84EC97E00E94B7
:102E7000C00D0E94BD0D88ED97E027DA0E9424095D
:102E8000082E000C990B0E94D2288C349105A1F0D9
:102E900044F484349105A1F08934910599F481E0DA
:102EA0000CC08035910531F08435910559F41092AC
:102EB0003B108FCE82E001C083E080933B1089CE2F
:102EC00084E0FBCF85EE97E00E94C00DD7CF81E074
:102ED00098E0FBD980913C10882319F00E94CA0D1C
:102EE00003C08FE398E0F1D981E198E00E94C00D22
:102EF0000E942409082E000C990B0E94D2288032CF
:102F000009F480E080933C1064CE85E498E0DDD93C
:102F100020913D1030913E1040913F105091401053
:102F20006091411070914210809143109091441033
:102F30000E942E0882E598E00E94C00D86E798E086
:102F40000E94C00D0E9432091092930E1092920EB0
:102F5000C1010E94F60DD1015C9011966C90119701
:102F600012967C90129713968C90139714969C90BF
:102F700014971596BC91F1014680F781CB50DF4F35
:102F8000F883C55FD040252D362D472D582D692D4E
:102F90007B2F842D9F2FAFEF0E94A528AFE00E94CA
:102FA000BA2811F008F015CE252D362D472D582DB5
:102FB000692D7B2F842D9F2F05E00E948328A52C4F
:102FC000B62CC72CD82CE92CFB2E042D1F2F0E94C9
:102FD000B12859016A017B01A82F192F06E00E9430
:102FE00083280A2F0E94B12803E00E948328A52C81
:102FF000B62CC72CD82CE92CFB2E042D1F2F0E9499
:103000009C2806E00E948328422ECB50DF4F388355
:10301000C55FD040C75FDE4F4883C950D140C35021
:10302000DF4F5883CD5FD040CB5FDE4F6883C55004
:10303000D140CA5FDE4F7883C650D140C95FDE4FB2
:103040008883C750D140C85FDE4F9883C850D140B5
:103050009090080EB091090EA0910A0EF0910B0EFF
:10306000E0910C0E70900D0E60900E0E50900F0EB1
:10307000292D3B2F4A2F5F2F6E2F772D862D952DD3
:1030800005E00E948328A92CBB2ECA2EDF2EEE2E2F
:10309000F72C062D152D0E94B12859016A017B01DC
:1030A000882E192F06E00E948328082D0E94B1283F
:1030B00003E00E948328A92CBB2ECA2EDF2EEE2E01
:1030C000F72C062D152D0E949C2806E00E948328CF
:1030D000A0900002B0900102C0900202D0900302C2
:1030E000E0900402F09005020091060210910702A0
:1030F0000E94B52759016A017B018C01242DCB5018
:10310000DF4F3881C55FD040C75FDE4F4881C9506F
:10311000D140C350DF4F5881CD5FD040CB5FDE4FF1
:103120006881C550D140CA5FDE4F7881C650D1401A
:10313000C95FDE4F8881C750D140C85FDE4F98819C
:10314000C850D1400E949C2820933D1030933E10DF
:1031500040933F1050934010609341107093421081
:10316000809343109093441034CD8DEB98E0ADD80C
:1031700020914510309146104091471050914810D1
:103180006091491070914A1080914B1090914C10B1
:103190000E942E0880ED98E00E94C00D85EE98E018
:1031A0000E94C00D0E9432091092930E1092920E4E
:1031B000C1010E94F60DD1015C9011966C9011979F
:1031C00012967C90129713968C90139714969C905D
:1031D00014971596BC91F1014680F781CB50DF4FD3
:1031E000F883C55FD040252D362D472D582D692DEC
:1031F0007B2F842D9F2FA0E00E94BA2809F00CF4A9
:10320000E8CC05E00E948328A52CB62CC72CD82C2E
:10321000E92CFB2E042D1F2F0E94B12859016A01B1
:103220007B01A82F192F06E00E9483280A2F0E94F5
:10323000B12803E00E948328A52CB62CC72CD82CDB
:10324000E92CFB2E042D1F2F0E949C2806E00E94D3
:103250008328422ECB50DF4F3883C55FD040C75FF5
:10326000DE4F4883C950D140C350DF4F5883CD5FF4
:10327000D040CB5FDE4F6883C550D140CA5FDE4F80
:103280007883C650D140C95FDE4F8883C750D14094
:10329000C85FDE4F9883C850D1409090080EB0911F
:1032A000090EA0910A0EF0910B0EE0910C0E709099
:1032B0000D0E60900E0E50900F0E292D3B2F4A2FB1
:1032C0005F2F6E2F772D862D952D05E00E94832888
:1032D000A92CBB2ECA2EDF2EEE2EF72C062D152D77
:1032E0000E94B12859016A017B01882E192F06E03E
:1032F0000E948328082D0E94B12803E00E948328A1
:10330000A92CBB2ECA2EDF2EEE2EF72C062D152D46
:103310000E949C2806E00E948328A0900002B090A2
:103320000102C0900202D0900302E0900402F090EB
:10333000050200910602109107020E94B52759016B
:103340006A017B018C01242DCB50DF4F3881C55F92
:10335000D040C75FDE4F4881C950D140C350DF4FD6
:103360005881CD5FD040CB5FDE4F6881C550D140E2
:10337000CA5FDE4F7881C650D140C95FDE4F888179
:10338000C750D140C85FDE4F9881C850D1400E94DD
:103390009C2820934510309346104093471050933B
:1033A00048106093491070934A1080934B1090938B
:1033B0004C100FCC8BE299E00E94651160914D108A
:1033C00070914E10072E000C880B990B0E9434113F
:1033D00080E499E00E94C00D8DE699E00E94C00D46
:1033E0000E9432091092930E1092920EC1010E9417
:1033F000F60D8091060E9091070E892B09F4E9CB0A
:10340000D101FC911196EC9111971296DC901297D4
:103410001396EC9013971496FC90149715960C91B4
:10342000159716961C9116971796CC902F2F277FDD
:103430003E2F4D2D5E2D6F2D702F812F9C2DA2E0E4
:103440000E94BA2851F02F2FA4E10E94BA2829F037
:10345000A8E20E94BA2809F0BCCBCF0190934D108E
:10346000E0934E10B6CB80914F1090915010092EE2
:10347000000CAA0BBB0BBF93AF939F938F93ABEA48
:10348000B5E0BF93AF933F922F920E94E9288BEA59
:1034900099E00E946511C1010E94651184EB99E0D9
:1034A0000E94C00D8DE699E00E94C00D0E94320975
:1034B0001092930E1092920ECE018D519F4F0E944A
:1034C000F60D0FB6F894DEBF0FBECDBF8091060E8D
:1034D0009091070E892B09F47CCBCD51DF4FF881F9
:1034E000C35ED040CC51DF4FE881C45ED040CB51A9
:1034F000DF4F4881C55ED040CA51DF4F5881C65E5C
:10350000D040C951DF4F6881C75ED040C851DF4FFE
:103510007881C85ED0402F2F3E2FC751DF4F888162
:10352000C95ED040C651DF4F9881CA5ED0402F3F60
:10353000310541055105610571058105910511F0C0
:1035400008F047CBCF0190934F108093501041CBA0
:1035500086EE99E00E946511809151100E94CA0D7B
:1035600087EF99E00E94C00D0E942409082E000CEC
:10357000990B0E94D2288D3419F0833509F029CB9C
:103580008093511026CB87E19AE00E94C00D89E21A
:103590009AE00E946511809152100E9466118BE39F
:1035A0009AE00E946511809153100E9466118DE48B
:1035B0009AE00E94C00D0E943209E0E1FEE09F0106
:1035C00020513E40790181918032C9F3082E000CD0
:1035D000990B0E94D228813419F400E010E005C054
:1035E000823409F0F6CA01E010E0F701EF5EF14F16
:1035F00081918032E9F3082E000C990B0E94D228A9
:10360000823519F0863409F0E4CAF801E95EFF4E0C
:1036100083AFDFCA83E99AE00E94C00D86EB9AE08F
:103620000E94651160915410709155108091561050
:10363000909157100E945B1189EC9AE00E946511ED
:1036400060915C1070915D1080915E1090915F10A0
:103650000E945B118CED9AE00E94C00D0E9424092B
:10366000082E000C990B0E94D228813419F400E036
:1036700010E004C0823471F701E010E084EF9AE0BA
:103680000E94C00D0E9432091092930E1092920E69
:10369000C1010E94F60D8091060E9091070E892BB4
:1036A00009F497CAF801A3E0EE0FFF1FAA95E1F70E
:1036B000E95EFF4EFD96A5C08EE19BE00E94C00D25
:1036C00087E39BE00E946511609164107091651022
:1036D00080916610909167100E945B1188E49BE0D6
:1036E0000E94651160916C1070916D1080916E1048
:1036F00090916F100E945B118CED9AE00E94C00DBA
:103700000E942409082E000C990B0E94D2288134B3
:1037100019F400E010E004C0823471F701E010E019
:1037200089E59BE00E94C00D0E9432091092930E21
:103730001092920EC1010E94F60D8091060E90919A
:10374000070E892B09F445CAE3E0000F111FEA9523
:10375000E1F7095E1F4EF801E35BFF4F52C08EE7B1
:103760009BE00E94C00D83E99BE00E94651160917F
:1037700074107091751080917610909177100E945E
:103780005B1184EA9BE00E94651160917C1070914E
:103790007D1080917E1090917F100E945B118CEDC6
:1037A0009AE00E94C00D0E942409082E000C990B7B
:1037B0000E94D228813419F400E010E004C0823461
:1037C00071F701E010E085EB9BE00E94C00D0E94C4
:1037D00032091092930E1092920EC1010E94F60DC2
:1037E0008091060E9091070E892B09F4F2C973E0BF
:1037F000000F111F7A95E1F7095E1F4EF801E35A99
:10380000FF4FD1018C91808311968C911197818308
:1038100012968C911297828313968C9113978383BF
:1038200014968C911497848315968C9115978583A3
:1038300016968C911697868317968C918783C9C9A3
:1038400088E0898341E150E06CE072E0CE010296AD
:103850000E94DA2884E48B8B41E150E065E87DE04A
:10386000CE0144960E94DA281DA21EA280E88FA3F2
:1038700086E988A788E989A71AA61BA61CA61DA603
:103880001EA61FA681EE88AB85EF89AB85E08AABCB
:103890001BAA1CAA1DAA1EAA84E190E098AF8FABB8
:1038A00085E090E09AAF89AF8DE48BAF82E58CAF75
:1038B0008DAF94EC9EAF89E08FAF21961FAE21971C
:1038C00022961FAE229723961FAE239724961FAEF3
:1038D000249725961FAE259726961FAE26972796E6
:1038E0009FAF279728968FAF289729961FAE2997C5
:1038F0002A961FAE2A972B961FAE2B972C961FAE9B
:103900002C972D961FAE2D972E961FAE2E972F9685
:103910001FAE2F9760961FAE609761961FAE61979E
:1039200062961FAE629763961FAE639764961FAE52
:10393000649765961FAE659766961FAE6697679605
:103940001FAE679768961FAE689769961FAE699716
:103950006A961FAE6A976B961FAE6B976C961FAEFA
:103960006C976D961FAE6D976E961FAE6E976F96A5
:103970001FAE6F97A0961FAEA097A1961FAEA197FE
:10398000A2961FAEA297A3961FAEA397A4961FAEB2
:10399000A497A5961FAEA597A6961FAEA697A79625
:1039A0001FAEA797A8961FAEA897A9961FAEA99776
:1039B000AA961FAEAA97AB961FAEAB97AC961FAE5A
:1039C000AC97AD961FAEAD97AE961FAEAE978DE697
:1039D000FE013196A7E1B0E101900D928A95E1F7E1
:1039E000F8C867E170E180E090E00E940F0822C013
:1039F0008BE79DE00E94C00D85ED9BE00E94C00D0D
:103A000000E010E06FEFC8010E94122C0F5F1F4F03
:103A10000115B0E11B07B1F784E09CE00E94C00DE6
:103A20008BE79DE00E94C00D05C081E49CE00E94F0
:103A3000C00DCFC880913B1080939E0DA0903D108B
:103A4000B0903E10C0903F10D0904010E0904110D8
:103A5000F09042100091431010914410A092960DE6
:103A6000B092970DC092980DD092990DE0929A0D58
:103A7000F0929B0D00939C0D10939D0D20E030E182
:103A800045EA54ED68EE70E080E090E00E94B527D2
:103A90002093A20D3093A30D4093A40D5093A50D38
:103AA0006093A60D7093A70D8093A80D9093A90D18
:103AB000809145108093AA0D809146108093AB0DA4
:103AC000809147108093AC0D809148108093AD0D8C
:103AD000809149108093AE0D80914A108093AF0D74
:103AE00080914B108093B00D80914C108093B10D5C
:103AF000A0904D10B0904E10B092A10DA092A00DCC
:103B000044E5E42E40E1F42E51E3C52E5FE0D52ECE
:103B100004E81FE0812C912C63E7762EF8011082D7
:103B20001182128213821482158216821782789C67
:103B3000D001799CB00D1124AF5CB04FFD01B3965C
:103B400093961C921182128213821482158216821D
:103B50001782D6019B961C929B979C961C929C97D1
:103B60009D961C929D979E961C929E979F961C9246
:103B70009F97D0961C92D097D1961C92D197D296AF
:103B80001C92D297DB961C92F601FB961182128250
:103B900013821482158216821782F7017081618167
:103BA000528143813481258196818781F8E0EF0E2F
:103BB000F11CD80118967C93189719966C93199755
:103BC0001A965C931A971B964C931B971C963C93E2
:103BD0001C971D962C931D971E969C931E971F96BF
:103BE0008C931F97F701808550968C935097818511
:103BF00051968C935197828552968C9352978385D8
:103C000053968C935397848554968C9354978585BB
:103C100055968C935597868556968C93569787859F
:103C200057968C935797808D58968C935897818D83
:103C300059968C935997828D5A968C935A97838D67
:103C40005B968C935B97848D5C968C935C97858D4B
:103C50005D968C935D97868D5E968C935E97878D2F
:103C60005F968C9360E0D6018C910E94160465E00B
:103C700070E080E090E00E94A00461E0F6018081A5
:103C80000E94160465E070E080E090E00E94A004CD
:103C9000FAE0AF16B10459F074F044E1A416B1048F
:103CA00041F058E2A516B10431F440EC05C040E4FF
:103CB00003C040E801C040E0416021E082E1C25E13
:103CC000DE4F2883CE51D140C15EDE4F4883CF51B5
:103CD000D1400E94EE03C25EDE4F2881CE51D1401A
:103CE000C15EDE4F4881CF51D140892B31F722236D
:103CF00011F020E0E3CF61E0C6010E94220544E01C
:103D000063E0C6010E94220540914F1066E0C601A3
:103D10000E94220540E067E0C6010E94220543E8B8
:103D200060E0C6010E94220563E7C60ED11C0D5853
:103D30001F4F8A94892821F088248394912CEECEF9
:103D4000809151108D3409F042C061E08EE30E94F1
:103D5000450460E08EE30E94160468EE73E080E0A4
:103D600090E00E94A00482E10E94EE0301E0892B12
:103D700009F400E092E0E92EF12C10E02FE0C22ED1
:103D8000D12C82E10E94EE0380179107D9F4C6017D
:103D90000197F1F783E3E816F1049CF79FEFE91A26
:103DA000F90AA2E3EA16F10461F78BE79DE00E94AD
:103DB000C00D8BE79DE00E94C00D85E49CE00E9451
:103DC000C00DDFCF61E08EE30E9416040CC08BE7CC
:103DD0009DE00E94C00D8BE79DE00E94C00D8FE624
:103DE0009CE00E94C00D8EE30E94EE03892BD9F364
:103DF00010927C0D10927D0D10927E0D10927F0D11
:103E00001092800D1092810D1092820D1092830DF0
:103E100042E069E673E082E10E94270C43E06EE431
:103E200073E082E00E94270C43E063E373E083E0E9
:103E30000E94270C60E08EE30E94160460E08EE38F
:103E40000E9445048BE79DE00E94C00D8BE79DE03A
:103E50000E94C00D80913B10823091F038F488238D
:103E600061F08130A1F48DEA9CE00FC0833059F0FD
:103E7000843069F48EE09DE008C087E99CE005C0CD
:103E80008BEC9CE002C08EED9CE00E94C00D60E0D7
:103E900084E40E94160460E085E40E941604FE019A
:103EA000E552FF4FCD50DF4FF983E883C35FD04029
:103EB000BCE66B2EBFE07B2E1BE4812E1FE0912E13
:103EC00001E3402E0FE0502E84E8282E8FE0382E9C
:103ED000C75FDE4F19821882C950D140D2015D966A
:103EE0008C910E94EE03892B09F06FC561E0F4010B
:103EF00087810E941604D40151968C91519759964E
:103F00008C93599752968C9152975A968C935A97B4
:103F100053968C9153975B968C935B9754968C91A8
:103F200054975C968C935C9755968C9155975D96BB
:103F30008C935D9756968C9156975E968C935E9770
:103F400057968C9157975F968C935F9758968C9164
:103F5000589790968C9360E1C2010E945E05F20131
:103F6000628373838483958362E1C2010E945E054C
:103F7000D20116966D937D938D939C93199761E171
:103F8000C2010E945E05F20166877787808B918B64
:103F90006BE1C2010E945E05D20152966D937D9342
:103FA0008D939C9355976CE1C2010E945E05C350AE
:103FB000DF4F688379838A839B83CD5FD040F20192
:103FC000668B778B808F918FF091A20DCB5FDE4F48
:103FD000F883C550D1400091A30DCA5FDE4F08831E
:103FE000C650D1401091A40DC95FDE4F1883C75051
:103FF000D1402091A50DC85FDE4F2883C850D14025
:104000003091A60DC55FDE4F3883CB50D140409133
:10401000A70DC45FDE4F4883CC50D1405091A80D0E
:10402000C35FDE4F5883CD50D1406091A90DC25F70
:10403000DE4F6883CE50D140F20186859785A089F6
:10404000B1898C019D0140E050E0BA01CB50DF4FB7
:104050008883C55FD040CA50DF4F1883C65FD04009
:10406000C950DF4F2883C75FD040C850DF4F388327
:10407000C85FD040C750DF4F4883C95FD040C650AB
:10408000DF4F5883CA5FD040C550DF4F6883CB5F96
:10409000D040C450DF4F7883CC5FD040CB5FDE4F41
:1040A000A880C550D140CA5FDE4FB880C650D1400D
:1040B000C95FDE4FC880C750D140C85FDE4FD8808F
:1040C000C850D140C55FDE4FE880CB50D140C45FBF
:1040D000DE4FF880CC50D140C35FDE4F0881CD5019
:1040E000D140C25FDE4F1881CE50D140CB50DF4F60
:1040F0002881C55FD040CA50DF4F3881C65FD040AD
:10410000C950DF4F4881C75FD040C850DF4F58814A
:10411000C85FD04060E070E080E090E0D3D6D1018D
:104120005896AC9058975996BC9059975A96CC90FF
:104130005A975B96DC905B975C96EC905C975D96EB
:10414000FC905D975E960C915E975F961C910E9425
:10415000B128C15FDE4F2883CF50D140C05FDE4F12
:104160003883C051D140CF5EDE4F4883C151D1402A
:10417000CE5EDE4F5883C251D140CD5EDE4F6883A4
:10418000C351D140CC5EDE4F7883C451D140CB5E69
:10419000DE4F8883C551D140CA5EDE4F9883C65139
:1041A000D140F20182899389A489B589C350DF4F38
:1041B000088119812A813B81CD5FD040081B190BF2
:1041C0002A0B3B0B40E050E0BA01CB50DF4F088395
:1041D000C55FD040CA50DF4F1883C65FD040C9507A
:1041E000DF4F2883C75FD040C850DF4F3883C85F98
:1041F000D040C750DF4F4883C95FD040C650DF4F23
:104200005883CA5FD040C550DF4F6883CB5FD04032
:10421000C450DF4F7883CC5FD04020E432E44FE0DD
:1042200050E060E070E080E090E0D1011896AC9042
:1042300018971996BC9019971A96CC901A971B96B6
:10424000DC901B971C96EC901C971D96FC901D977C
:104250001E960C911E971F961C9183D759016A01D7
:104260007B018C01CB50DF4F2881C55FD040CA5005
:10427000DF4F3881C65FD040C950DF4F4881C75FEC
:10428000D040C850DF4F5881C85FD04060E070E038
:1042900080E090E017D6E091A00DF091A10D31974C
:1042A0001F2F110F110B5F01C12ED12EE12EF12E08
:1042B000012F5BD6C350DF4F2883CD5FD040C95E4E
:1042C000DE4F3883C751D140C85EDE4F4883C851A6
:1042D000D140C75EDE4F5883C951D140C65EDE4F24
:1042E0006883CA51D140C55EDE4F7883CB51D1403F
:1042F000C45EDE4F8883CC51D140C35EDE4F9883CD
:10430000CD51D140F1011089B1890289F3886489C6
:104310007589212F3B2F402F5F2D86899789A0E03B
:1043200029D761F0D20116961C93169717963C93E5
:10433000179718960C9318971996FC92D20112961B
:104340000D911D912D913C911597CB50DF4F088316
:1043500019832A833B83C55FD040A12C40E1B42E52
:1043600055EAC52E64EDD62E78EEE72EF12C00E04E
:1043700010E0CB5FDE4F2881C550D140CA5FDE4FD1
:104380003881C650D140C95FDE4F4881C750D14007
:10439000C85FDE4F5881C850D140C55FDE4F68818D
:1043A000CB50D140C45FDE4F7881CC50D140C35F49
:1043B000DE4F8881CD50D140C25FDE4F9881CE5014
:1043C000D14080D5C350DF4FA880CD5FD040C95EBB
:1043D000DE4FB880C751D140C85EDE4FC880C8519B
:1043E000D140C75EDE4FD880C951D140C65EDE4F96
:1043F000E880CA51D140C55EDE4FF880CB51D14034
:10440000C45EDE4F0881CC51D140C35EDE4F1881BF
:10441000CD51D140AAD5CB5FDE4F2883C550D140C6
:10442000CA5FDE4F3883C650D140C95FDE4F488334
:10443000C750D140C85FDE4F5883C850D140B62F17
:10444000A72FC55FDE4F8883CB50D140C45FDE4FBE
:104450009883CC50D140CB50DF4F288139814A819D
:104460005B81C55FD04059016A01F20146815781E5
:10447000608571859A01AB0160E070E0CB01C350AB
:10448000DF4F2883CD5FD040C250DF4F3883CE5FEF
:10449000D040C150DF4F4883CF5FD040C050DF4F86
:1044A0005883C050D140CF5FDE4F6883C150D140A8
:1044B000CE5FDE4F7883C250D140CD5FDE4F888320
:1044C000C350D140CC5FDE4F9883C450D14095019A
:1044D000A60160E070E080E090E0C350DF4FA8806C
:1044E000CD5FD040C250DF4FB880CE5FD040C150CA
:1044F000DF4FC880CF5FD040C050DF4FD880C05062
:10450000D140E12CF12C00E010E02BD659016A01DA
:104510007B018C01CB5FDE4F2881C550D140CA5F43
:10452000DE4F3881C650D140C95FDE4F4881C75049
:10453000D140C85FDE4F5881C850D1406B2F7A2FD1
:10454000C55FDE4F8881CB50D140C45FDE4F98817C
:10455000CC50D140B7D4E0E4AE2EF2E4BF2EAFE0B1
:10456000CA2ED12CE12CF12C00E010E0FED4590130
:104570006A017B018C01C15FDE4F2881CF50D140A1
:10458000C05FDE4F3881C051D140CF5EDE4F4881E1
:10459000C151D140CE5EDE4F5881C251D140CD5E77
:1045A000DE4F6881C351D140CC5EDE4F7881C4516B
:1045B000D140CB5EDE4F8881C551D140CA5EDE4F0F
:1045C0009881C651D140B8D559016A017B018C014F
:1045D00080913B10843009F0DAC0C850DF4F588119
:1045E000C85FD0405F93C950DF4F6881C75FD0403C
:1045F0006F93CA50DF4F7881C65FD0407F93CB5016
:10460000DF4F8881C55FD0408F93A3E4BDE0BF93A7
:10461000AF93CC50DF4FF881C45FD040FF93CD50B3
:10462000DF4F2881C35FD0402F93D3D5CE01855271
:104630009F4F0E946511D20119968C9119978F9303
:1046400018968C9118978F9317968C9117978F9334
:1046500016968C918F93A3E4BDE0BF93AF93CC509B
:10466000DF4FF881C45FD040FF93CD50DF4F2881EA
:10467000C35FD0402F93ADD5CE0185529F4F0E948E
:104680006511D20151968C9151978F9350968C91D0
:1046900050978F931F968C911F978F931E968C9196
:1046A0008F93A3E4BDE0BF93AF93CC50DF4FF8816D
:1046B000C45FD040FF93CD50DF4F2881C35FD0400F
:1046C0002F9387D5CE0185529F4F0E946511D2014D
:1046D00055968C9155978F9354968C9154978F93B0
:1046E00053968C9153978F9352968C918F93A3E40A
:1046F000BDE0BF93AF93CC50DF4FF881C45FD04093
:10470000FF93CD50DF4F2881C35FD0402F9361D5F9
:104710000FB6F894DEBF0FBECDBFCE0185529F4FBE
:104720000E946511D20159968C9159978F93589692
:104730008C9158978F9357968C9157978F93569645
:104740008C918F93A3E4BDE0BF93AF93CC50DF4F28
:10475000F881C45FD040FF93CD50DF4F2881C35F05
:10476000D0402F9336D5CE0185529F4F0E946511C0
:104770009501A601B701C8010E948C0585EB96E062
:104780000E9465110FB6F894DEBF0FBECDBFD401F5
:104790005196AC9251975296BC9252975396CC92A6
:1047A00053975496DC9254975596EC92559756969B
:1047B000FC92569757960C93579758961C9343E83C
:1047C00060E0C2010E942205F10120813181428115
:1047D00053816481758186819781A1E0B6D420835D
:1047E0003183428353836483758386839783809167
:1047F0003B10843019F523E7C75FDE4F088119812C
:10480000C950D140209FD001219FB00D1124AF5C31
:10481000B04FFD01B39693965C9141813281238123
:104820008481858186818781652F742F832F922FC4
:104830000E94341185EB96E00E94651163E7C75F23
:10484000DE4F48815981C950D140649FD001659F96
:10485000B00D1124AF5CB04FFD01B39693962C912F
:104860003181428153816481758186819781A090D5
:10487000AA0DB090AB0DC090AC0DD090AD0DE090F6
:10488000AE0DF090AF0D0091B00D1091B10D1AD397
:10489000D4015196AC9051975296BC905297539632
:1048A000CC9053975496DC9054975596EC9055972E
:1048B0005696FC90569757960C91579758961C9180
:1048C00050D4F301208331834283538364837583FF
:1048D00086839783A084B184C284D384E484F584DE
:1048E000068517853ED4208B318B428B538B648B8E
:1048F000758B868B978B80913C108823A9F084E977
:104900009EE00E94D301181619060CF058C084E9E5
:104910009EE00E94B10120913C10022E000C330B4E
:104920008217930709F04BC080913B108B7F49F5AC
:10493000D301DC901196EC9011971296FC9012978F
:1049400013960C91139714961C9114971596BC917D
:10495000F301C680B7802D2D3E2D4F2D502F612F96
:104960007B2F8C2D9B2DA0E005D459F054F00E9494
:104970008C0589E49DE00E946511D4018C910E9410
:10498000661180913B10823009F440C0A0906C0FFA
:10499000B0906D0FC0906E0FD0906F0FE090700FC1
:1049A000F090710F0091720F1091730F9501A60195
:1049B000B701C801A1E0DED311F00CF06FC060E0D8
:1049C000D40117968C910E941604B3E74B0E511C2C
:1049D000E3E72E0E311CF3E76F0E711C03E7800E28
:1049E000911CC75FDE4F28813981C950D1402130E9
:1049F000310549F001E010E0C75FDE4F19830883FD
:104A0000C950D1406BCA0E94700252CAF101208184
:104A10003181428153816481758186819781A2E0D1
:104A2000A9D309F00CF4B2CFD3012C9111963C918B
:104A3000119712964C91129713965C9113971496B6
:104A40006C91149715967C91159716968C911697E4
:104A500017969C9117971896AC9018971996BC903A
:104A600019971A96CC901A971B96DC901B971C9658
:104A7000EC901C971D96FC901D971E960C911E970E
:104A80001F961C916ED30E948C0589E49DE00E94C4
:104A90006511F40180810E94661178CFF091DF0FDB
:104AA000CB50DF4FF883C55FD040B091E00FC350CB
:104AB000DF4FB883CD5FD040E091E10FCB5FDE4F99
:104AC000E883C550D140F091E20FCA5FDE4FF88312
:104AD000C650D140B091E30FC95FDE4FB883C750D5
:104AE000D140B091E40FF091E50FE091E60FCB508B
:104AF000DF4F2881C55FD040C350DF4F3881CD5F85
:104B0000D040CB5FDE4F4881C550D140CA5FDE4FF9
:104B10005881C650D140C95FDE4F6881C750D1402F
:104B20007B2F8F2F9E2F26D309F00CF448CFA09215
:104B3000740FB092750FC092760FD092770FE092FB
:104B4000780FF092790F00937A0F10937B0F2093D8
:104B5000E70F3093E80F4093E90F5093EA0F60930B
:104B6000EB0FB093EC0FF093ED0FE093EE0F80910D
:104B70003B10813041F48F2FF4D20E948C058DE4DC
:104B80009DE00E94C00D80913B10833009F0C7C0AA
:104B900020916C0F30916D0F40916E0F50916F0FFF
:104BA0006091700F7091710F8091720F9091730FDF
:104BB0000E948C0587E59DE00E94C00D2091DF0FCB
:104BC0003091E00F4091E10F5091E20F6091E30FBF
:104BD0007091E40F8091E50F9091E60F0E948C0593
:104BE0008CE59DE00E94C00D2091DF0F3091E00F19
:104BF0004091E10F5091E20F6091E30F7091E40F4B
:104C00008091E50F9091E60FA0906C0FB0906D0F22
:104C1000C0906E0FD0906F0FE090700FF090710FFA
:104C20000091720F1091730F9CD2CB50DF4F2883ED
:104C3000C55FD040C350DF4F3883CD5FD040CB5FDE
:104C4000DE4F4883C550D140CA5FDE4F5883C650FF
:104C5000D140C95FDE4F6883C750D140C85FDE4F87
:104C60007883C850D140C55FDE4F8883CB50D14098
:104C7000C45FDE4F9883CC50D140A12C80E1B82E88
:104C800095EAC92E24EDD22E38EEE32EF12C00E069
:104C900010E02091F70F3091F80F4091F90F5091EB
:104CA000FA0F6091FB0F7091FC0F8091FD0F9091B6
:104CB000FE0F08D1AFEF49D259016A017B018C0187
:104CC000CB50DF4F2881C55FD040C350DF4F3881C4
:104CD000CD5FD040CB5FDE4F4881C550D140CA5F29
:104CE000DE4F5881C650D140C95FDE4F6881C75042
:104CF000D140C85FDE4F7881C850D140C55FDE4FDC
:104D00008881CB50D140C45FDE4F9881CC50D140D8
:104D100013D20E948C0581E69DE00E94C00D109286
:104D20006C0F10926D0F10926E0F10926F0F109209
:104D3000700F1092710F1092720F1092730F1092E9
:104D4000DF0F1092E00F1092E10F1092E20F10921D
:104D5000E30F1092E40F1092E50F1092E60F2FCEA2
:104D6000CF92DF92EF92FF920F931F93CF93DF9337
:104D7000E4E9FEE01382128288EE93E0A0E0B0E066
:104D800084839583A683B78386E292E091838083B0
:104D900085EC90E09587848784EC90E09787868700
:104DA00080EC90E0918B808B81EC90E0938B828BF8
:104DB00082EC90E0958B848B86EC90E0978B868BD1
:104DC000118E128E138E148E88E080931710C1E31B
:104DD000DFE084E090E09983888381E48A8F82E039
:104DE00090E09C8F8B8F8AE090E09E8F8D8F86E085
:104DF00090E098A38F8F84E490E09AA389A361E068
:104E000084E00E94450460E08D8D0E94450461E0CD
:104E10008F8D0E94450460E08B8D0E94450461E007
:104E200089A10E94450485E090E09093A50F8093AE
:104E3000A40F82E48093BE0F0FEB1FE083E090E0AD
:104E4000F8019183808381ECC82E8FE0D82E8BE00F
:104E500090E0F6019183808393ECE92E9FE0F92E98
:104E600087E090E0F70191838083C5ECDFE085E483
:104E700090E09983888361E085E00E94450460E0CA
:104E8000F60180810E94450461E0F70180810E9463
:104E9000450460E0F80180810E94450461E088815A
:104EA000DF91CF911F910F91FF90EF90DF90CF9006
:104EB0000C944504EE0FFF1F881F8BBF0790F691DF
:104EC000E02D1994DF93CF931F930F939A9DF02DAC
:104ED000219FF00D8B9DF00D8A9DE02DF10D039F1C
:104EE000F00D029FE00DF11D4E9DE00DF11D5E9D48
:104EF000F00D4F9DF00D7F936F93BF92AF925F9334
:104F00004F93D501EBD48B01AC01D701E7D4EB0172
:104F1000E80FF91FD6011FD02F913F91D601DED4A3
:104F2000C60FD71FE81FF91FAF91BF9114D02F9163
:104F30003F91D4D4C60FD71FE81FF91FD601CED496
:104F4000E60FF71F9801BE01CF0111240F911F91A9
:104F5000CF91DF910895C2D4460F571FC81FD91FA4
:104F600008F431960895689401C0E894F92FF12B64
:104F70000AF027C0A0E0B0E0EFEBF7E293C0092E03
:104F800005941AF479D0112392F4F0E80F26FFEF7C
:104F9000E094F09400951095B094C094D094A194AE
:104FA000BF0ACF0ADF0AEF0AFF0A0F0B1F0B13D04D
:104FB00007FC62D0CDB7DEB7ECE090C0689401C0CA
:104FC000E8948F929F92CF93DF9305D0DF91CF919A
:104FD0009F908F90089588249924F401E401B0E40F
:104FE0009F93AA279A158B049C04ED05FE05CF0517
:104FF000D007A10798F4AD2FDC2FCF2FFE2FE92D7E
:10500000982C892E982F872F762F652F542F432F7A
:10501000322F2227B85031F7BF9127C01B2EBF91E6
:10502000BB27220F331F441F551F661F771F881F82
:10503000991F881C991CEE1FFF1FCC1FDD1FAA1F84
:10504000BB1F8A149B04EC05FD05CE05DF05A007F8
:10505000B10748F08A189B08EC09FD09CE09DF0961
:10506000A00BB10B21601A94E1F62EF49401AF016C
:10507000BE01CD01000C08956095709580959095C6
:1050800030954095509521953F4F4F4F5F4F6F4F53
:105090007F4F8F4F9F4F08952F923F924F925F9275
:1050A0006F927F928F929F92AF92BF92CF92DF9238
:1050B000EF92FF920F931F93CF93DF93CDB7DEB79D
:1050C000CA1BDB0B0FB6F894DEBF0FBECDBF199421
:1050D0002A88398848885F846E847D848C849B8488
:1050E000AA84B984C884DF80EE80FD800C811B8196
:1050F000AA81B981CE0FD11D0FB6F894DEBF0FBEC5
:10510000CDBFED0108950F93083090F0982F872FB1
:10511000762F652F542F432F322F22270850F4CF9C
:10512000220F331F441F551F661F771F881F991FAB
:105130000A95B2F70F9108952A0D3B1D4C1D5D1D78
:105140006E1D7F1D801F911F08950024A7FD0094F0
:105150002A0F301D401D501D601D701D801D901DAB
:1051600008952A193B094C095D096E097F09800BD6
:10517000910B08950024A7FD00942A1730054005DF
:1051800050056005700580059005089581E090E068
:10519000F894B3C391113AC2803219F08950855006
:1051A000D0F708959111089581568A5108F48052DC
:1051B00085580895FB01DC014150504048F00190B2
:1051C0000D920020C9F701C01D9241505040E0F7F8
:1051D00008950F931F93CF93DF93CDB7DEB72E972C
:1051E0000FB6F894DEBF0FBECDBF0E891F8986E0D3
:1051F0008C831A8309838FEF9FE79E838D83AE0193
:10520000465E5F4F688D798DCE01019611D02F815A
:105210003885F801E20FF31F10822E960FB6F8942E
:10522000DEBF0FBECDBFDF91CF911F910F910895CB
:105230002F923F924F925F926F927F928F929F92A6
:10524000AF92BF92CF92DF92EF92FF920F931F9394
:10525000CF93DF93CDB7DEB72C970FB6F894DEBFB0
:105260000FBECDBF7C016B018A01FC011782168243
:10527000838181FFB0C1CE0101964C01F70193817A
:10528000F60193FD859193FF81916F01882309F4C5
:105290009EC1853239F493FD859193FF81916F0111
:1052A000853221F4B70190E0CAD1E8CF512C312CDE
:1052B00020E02032A0F48B3269F030F4803259F0D3
:1052C000833269F420612CC08D3239F0803339F497
:1052D000216026C02260246023C0286021C027FDF1
:1052E00027C030ED380F3A3078F426FF06C0FAE0D8
:1052F0005F9E300D1124532E13C08AE0389E300D6E
:105300001124332E20620CC08E3221F426FD5FC1A1
:10531000206406C08C3611F4206802C0883641F43F
:10532000F60193FD859193FF81916F018111C1CFAA
:10533000982F9F7D9554933028F40C5F1F4FFFE307
:10534000F9830DC0833631F0833771F0833509F06E
:1053500057C021C0F801808189830E5F1F4F44240C
:105360004394512C540114C03801F2E06F0E711CAB
:10537000F801A080B18026FF03C0652D70E002C057
:105380006FEF7FEFC5012C874FD12C0183012C8556
:105390002F77222E16C03801F2E06F0E711CF80133
:1053A000A080B18026FF03C0652D70E002C06FEFC2
:1053B0007FEFC5012C872DD12C012C852068222E52
:1053C000830123FC19C0832D90E048165906A0F4F0
:1053D000B70180E290E033D13A94F5CFF50127FC94
:1053E000859127FE81915F01B70190E028D13110AE
:1053F0003A94F1E04F1A51084114510479F7DEC094
:10540000843611F0893631F5F80127FF07C0608135
:105410007181828193810C5F1F4F08C0608171810F
:10542000072E000C880B990B0E5F1F4F2F76722EE4
:1054300097FF09C090958095709561957F4F8F4F2C
:105440009F4F2068722E2AE030E0A40130D1A82EB0
:10545000A81843C0853729F42F7EB22E2AE030E009
:1054600025C0F22FF97FBF2E8F36C1F018F4883592
:1054700079F0ADC0803719F0883721F0A8C02F2F00
:105480002061B22EB4FE0DC08B2D8460B82E09C0F1
:1054900024FF0AC09F2F9660B92E06C028E030E096
:1054A00005C020E130E002C020E132E0F801B7FEA3
:1054B00007C060817181828193810C5F1F4F06C09C
:1054C0006081718180E090E00E5F1F4FA401EFD0FA
:1054D000A82EA818FB2DFF777F2E76FE0BC0372D48
:1054E0003E7FA51450F474FE0AC072FC08C0372D2C
:1054F0003E7E05C0BA2C372D03C0BA2C01C0B52C96
:1055000034FF0DC0FE01EA0DF11D8081803311F4DE
:10551000397E09C032FF06C0B394B39404C0832F10
:10552000867809F0B39433FD12C030FF06C05A2CC0
:10553000B31418F4530C5B18B32CB31460F4B70114
:1055400080E290E03C877BD0B3943C85F6CFB314E7
:1055500010F43B1801C0312C34FF11C0B70180E3B7
:1055600090E03C876CD03C8532FF16C031FD03C013
:1055700088E790E002C088E590E0B7010CC0832F77
:10558000867851F031FF02C08BE201C080E237FD26
:105590008DE2B70190E053D0A51430F4B70180E359
:1055A00090E04DD05A94F8CFAA94F401EA0DF11D81
:1055B0008081B70190E043D0A110F6CF332009F4E9
:1055C0005DCEB70180E290E03AD03A94F7CFF70190
:1055D0008681978102C08FEF9FEF2C960FB6F894CB
:1055E000DEBF0FBECDBFDF91CF911F910F91FF9016
:1055F000EF90DF90CF90BF90AF909F908F907F9073
:105600006F905F904F903F902F9008959927882733
:105610000895FC010590615070400110D8F7809505
:1056200090958E0F9F1F0895FC016150704001906E
:105630000110D8F7809590958E0F9F1F08950F93B6
:105640001F93CF93DF93FB01238121FD03C08FEFD5
:105650009FEF28C022FF16C04681578124813581E3
:105660004217530744F4A081B1819D012F5F3F4F42
:10567000318320838C93268137812F5F3F4F37837F
:10568000268310C0EB01092F182F0084F185E02D2F
:105690001995892BE1F68E819F8101969F838E83D8
:1056A000812F902FDF91CF911F910F910895FA01D3
:1056B000AA27283051F1203181F1E8946F936E7F51
:1056C0006E5F7F4F8F4F9F4FAF4FB1E03ED0B4E042
:1056D0003CD0670F781F891F9A1FA11D680F791F83
:1056E0008A1F911DA11D6A0F711D811D911DA11D94
:1056F00020D009F468943F912AE0269F11243019A4
:10570000305D3193DEF6CF010895462F4770405D3E
:105710004193B3E00FD0C9F7F6CF462F4F70405DED
:105720004A3318F0495D31FD4052419302D0A9F748
:10573000EACFB4E0A6959795879577956795BA9542
:10574000C9F700976105710508959B01AC010A2E08
:1057500006945795479537952795BA95C9F7620FDF
:10576000731F841F951FA01D08958F929F92AF9263
:10577000BF92CF92DF92EF92FF92CF93DF93EC0133
:10578000688179818A819B81611571058105910507
:1057900021F464E279ED8BE597E02DE133EF41E010
:1057A00050E04ED049015A019B01AC01A7EAB1E497
:1057B00063D06B017C01ACEEB4EFA501940168D01D
:1057C000DC01CB018C0D9D1DAE1DBF1DB7FF03C0BD
:1057D0000197A109B04888839983AA83BB83BC0140
:1057E000CD019F77DF91CF91FF90EF90DF90CF9029
:1057F000BF90AF909F908F900895B7CF88E092E0D0
:10580000B4CF609308027093090280930A029093C8
:105810000B020895F999FECF92BD81BDF89A9927A0
:1058200080B50895262FF999FECF1FBA92BD81BD8C
:1058300020BD0FB6F894FA9AF99A0FBE0196089512
:10584000052E97FB16F400940FD057FD05D024D0F9
:1058500007FC02D046F408C050954095309521953C
:105860003F4F4F4F5F4F089590958095709561958C
:105870007F4F8F4F9F4F089531D0A59F900DB49FBC
:10588000900DA49F800D911D11240895B7FFF4CFB2
:10589000F3DF821B930B0895A1E21A2EAA1BBB1BF8
:1058A000FD010DC0AA1FBB1FEE1FFF1FA217B307EC
:1058B000E407F50720F0A21BB30BE40BF50B661F02
:1058C000771F881F991F1A9469F7609570958095C6
:1058D00090959B01AC01BD01CF010895A29FB0013D
:1058E000B39FC001A39F700D811D1124911DB29F14
:0E58F000700D811D1124911D0895F894FFCFB5
:1058FE0001000000000000000100000032303137CE
:10590E00303231332E310000000000000054495077
:10591E004C440000000009028601D301B101C5010B
:10592E004F024E6F2073657269616C206E756D62E9
:10593E00657220666F756E642E2E2E206D616B69FA
:10594E006E67206F6E65002530346C582530346CD0
:10595E0058004E6F20636F6E66696720666F756EB6
:10596E00642E202057726974696E672064656661C3
:10597E00756C742E2E2E0023205441505220544903
:10598E0043432054696D657374616D70696E672051
:10599E00436F756E746572002320436F7079726960
:1059AE006768742032303137204E3855522C204BD8
:1059BE00395452562C204E48365A2C2057413859BD
:1059CE00575100232323232323232323232323235A
:1059DE00232323232323232300232054494343201B
:1059EE00436F6E66696775726174696F6E3A2000F7
:1059FE0023204D6561737572656D656E74204D6FF4
:105A0E0064653A200054696D657374616D70005061
:105A1E006572696F640054696D6520496E746572B4
:105A2E0076616C20412D3E420054696D654C616279
:105A3E0020332D6368616E6E656C00446562756718
:105A4E00002320506F6C6C20436861726163746533
:105A5E00723A200020202020202020646566617587
:105A6E006C74206E6F6E65002320454550524F4D6D
:105A7E002056657273696F6E3A20002C20426F615A
:105A8E0072642056657273696F6E3A20002320533C
:105A9E006F6674776172652056657273696F6E3AC0
:105AAE0020002320426F6172642053657269616C1D
:105ABE00204E756D6265723A20002320436C6F6331
:105ACE006B2053706565643A2000204D487A0023A0
