:1000000029C100000C9413100C94E80F0C94BD0F40
:100010000C94920F0C94670F0C943C0F0C94110FDE
:100020000C94E60E0C94710E0C94020E0C948C0D34
:1000300042C1000040C100003EC100003CC10000C0
:100040003AC1000038C1000036C1000034C10000D0
:1000500032C1000030C100002EC100000C94420DDE
:100060002AC100000C940C0D0C94E20C24C1000079
:1000700022C1000020C100001EC100001CC1000000
:100080001AC1000018C1000016C1000014C1000010
:1000900012C1000010C100000EC100000CC1000020
:1000A0000AC1000008C1000006C1000004C1000030
:1000B00002C1000000C10000FEC00000FCC0000042
:1000C000FAC00000F8C00000F6C00000F4C0000054
:1000D000F2C00000F0C00000EEC00000ECC0000064
:1000E000EAC0000000010405050303040506040539
:1000F00006070100010003020100000102030405DC
:1001000006070706050403020100070201000706AF
:1001100005040302010003020100000102030405BB
:10012000060700010203040506070203040506068C
:100130000700002200250028002B002E003100348B
:100140000002010000050108010B0100002000234E
:1001500000260029002C002F0032000001000003BF
:10016000010601090100000A0B02090C0D0E080727
:100170000304010000000000000000000000000077
:10018000000000000000000000000000000000006F
:10019000001211100000000000000000000000002C
:1001A000000000000000000000000000002100240A
:1001B0000027002A002D0030003300010100000458
:1001C0000107010A01010210202008081020401038
:1001D000204080020102010804020101020408100B
:1001E0002040808040201008040201800402018029
:1001F0004020100804020108040201010204081052
:1002000020408001020408102040800505050507F4
:100210000508080808020202020A0A080804040481
:1002200004010101010101010103030303030303AD
:1002300003040707070C0C0C0C0C0C0C0C0202023C
:100240000206060606060606060B0B0B0B0B0B0B2F
:100250000B003E1011241FBECFEFD1E2DEBFCDBF99
:1002600000E00CBF1FE0A0E0B2E0E0E1F1E600E05A
:100270000BBF02C007900D92AE33B107D9F722E150
:10028000AEE3BFE001C01D92A538B207E1F711E06F
:10029000CAE2D1E000E006C021970109802FFE01EB
:1002A0000E944C2CC932D10780E00807A9F70E94B0
:1002B000E8100C948630A4CE20916810222361F0BF
:1002C0002FB7F89430916810313049F43DB3309332
:1002D00067103DB33DBB2FBF8CBD9DBD08952093DE
:1002E0006710FACF2091BD0F3091BE0F4091BF0F24
:1002F0005091C00F6091C10F7091C20F8091C30FD8
:100300009091C40FA1E00E947D2D2093BD0F3093EA
:10031000BE0F4093BF0F5093C00F6093C10F7093F7
:10032000C20F8093C30F9093C40F08957091BD0FB7
:100330006091BE0F5091BF0F4091C00F3091C10F1F
:100340002091C20F9091C30F8091C40FE6E0F1E1BC
:1003500073876487558746873787208B918B828B7D
:1003600008957091BD0F6091BE0F5091BF0F4091E5
:10037000C00F3091C10F2091C20F9091C30F809197
:10038000C40FEFE8F1E170836183528343833483C8
:100390002583968387830895AF92BF92CF92DF9291
:1003A000EF92FF920F931F93CF93DF936C017B012A
:1003B0008B01040F151FEB015E01AE18BF08C017BB
:1003C000D10759F06991D601ED91FC910190F0812E
:1003D000E02DC6011995892B79F7C501DF91CF91E1
:1003E0001F910F91FF90EF90DF90CF90BF90AF9053
:1003F0000895FC01538D448D252F30E0842F90E02B
:10040000821B930B541710F0CF960895019708950F
:10041000FC01918D828D981761F0A28DAE0FBF2FD8
:10042000B11D5D968C91928D9F5F9F73928F90E02E
:1004300008958FEF9FEF0895FC01918D828D98179D
:1004400031F0828DE80FF11D858D90E008958FEFDA
:100450009FEF0895FC01918D228D892F90E0805CA3
:100460009F4F821B91098F739927089589E690E128
:10047000F1DF21E0892B09F420E0822F0895FC01AF
:10048000A48DA80FB92FB11DA35ABF4F2C91848DF5
:1004900090E001968F739927848FA689B7892C9352
:1004A000A089B1898C91837080648C93938D848DA5
:1004B000981306C00288F389E02D80818F7D8083A8
:1004C0000895EF92FF920F931F93CF93DF93EC0168
:1004D00081E0888F9B8D8C8D98131AC0E889F989EB
:1004E000808185FF15C09FB7F894EE89FF896083EE
:1004F000E889F98980818370806480839FBF81E06F
:1005000090E0DF91CF911F910F91FF90EF900895B0
:10051000F62E0B8D10E00F5F1F4F0F731127E02E8B
:100520008C8D8E110BC00FB607FCFACFE889F989C4
:10053000808185FFF5CFCE01A2DFF2CFEB8DEC0FEE
:10054000FD2FF11DE35AFF4FF0829FB7F8940B8FF8
:10055000EA89FB8980818062D0CF682F89E690E1AB
:10056000B0CFCF93DF93EC01888D8823B1F0AA89B7
:10057000BB89E889F9898C9185FD03C0808186FD5E
:100580000CC00FB607FCF7CF8C9185FFF2CF8081AE
:1005900085FFEDCFCE0173DFEACFDF91CF910895D4
:1005A00080E090E0892B21F061DF81110E94000042
:1005B00080E090E0892B49F080E090E0892B29F0E1
:1005C0000E94000081110E94000080E090E0892BD1
:1005D00049F080E090E0892B29F00E940000811111
:1005E0000E94000080E090E0892B49F080E090E0DC
:1005F000892B29F00E94000081110C9400000895BD
:100600008150823108F05AC0E82FF0E08827E45F7B
:10061000FC4F8F4F0C944C2C2C0330031E032403EF
:1006200028035E03330339033D03430347034B03AE
:10063000510355035E0359035F03630380918000F8
:100640008F77809380000895809180008F7DF9CF0F
:1006500080918000877FF5CF84B58F7784BD089522
:1006600084B58F7DFBCF8091B0008F778093B000F1
:1006700008958091B0008F7DF9CF809190008F77A1
:10068000809390000895809190008F7DF9CF8091A4
:100690009000877FF5CF8091A0008F778093A00096
:1006A00008958091A0008F7DF9CF8091A000877F71
:1006B000F5CF809120018F7780932001089580915C
:1006C00020018F7DF9CF80912001877FF5CFCF93D7
:1006D000DF93282F30E0F901EB59FE4F8491F901A7
:1006E000EB53FE4FD491F901E55FFD4FC491CC234C
:1006F00099F0811185DFEC2FF0E0EE0FFF1FE55B35
:10070000FE4FA591B491EC91ED2381E090E009F4C6
:1007100080E0DF91CF91089580E090E0FACF1F93C1
:10072000CF93DF93282F30E0F901EB59FE4F8491EE
:10073000F901EB53FE4FD491F901E55FFD4FC491F0
:10074000CC23A1F0162F81115BDFEC2FF0E0EE0F30
:10075000FF1FEF5CFE4FA591B4918FB7F894EC9119
:10076000111108C0D095DE23DC938FBFDF91CF91AC
:100770001F910895DE2BF8CFCF93DF9390E0FC011B
:10078000EB53FE4F2491855F9D4FFC01849188239C
:10079000D1F090E0880F991FFC01E555FE4FA5911F
:1007A000B491FC01EF5CFE4FC591D49161110EC074
:1007B0009FB7F8948C91E22FE0958E238C9328813B
:1007C000E223E8839FBFDF91CF9108958FB7F8941C
:1007D000EC91E22BEC938FBFF6CF90917B00977F4B
:1007E00090937B008653806480937C0080917A0094
:1007F000806480937A0080917A0086FDFCCF80919E
:1008000078009091790008953FB7F89480918D0F0A
:1008100090918E0FA0918F0FB091900F26B5A89B4D
:1008200005C02F3F19F00196A11DB11D3FBFBA2F82
:10083000A92F982F8827BC01CD01620F711D811D42
:10084000911D42E0660F771F881F991F4A95D1F7C7
:1008500008958F929F92AF92BF92CF92DF92EF92C4
:10086000FF924B015C01D0DF6B017C01CDDF6C1985
:100870007D098E099F09683E734081059105B0F39B
:1008800021E0821A9108A108B10888EEC80E83E021
:10089000D81EE11CF11C81149104A104B10431F7AC
:1008A000FF90EF90DF90CF90BF90AF909F908F9090
:1008B00008959FB7F89420916810809167102130B7
:1008C00019F48DBB9FBF08958FBF08950F931F9399
:1008D000CF93DF938C01C62FD42F80E591E0ECDC21
:1008E00060E0F80187811BDFC064CD27DC27CD27BE
:1008F0000CB405FC19C0DEBD00000DB407FEFDCF31
:100900008EB5CEBD00000DB407FEFDCF8EB561E003
:10091000F801878104DF80916810882389F0DF91D6
:10092000CF911F910F91C5CFCEBD00000DB407FE32
:10093000FDCF8EB5DEBD00000DB407FEFDCFE6CFC6
:10094000DF91CF911F910F9108958EBD00000DB4DE
:1009500007FEFDCF8EB508950F931F93CF93DF93BE
:100960008C01C62F80E591E0A7DC60E0F80187816B
:10097000D6DE8C2FEADF80E0E8DF80E0E6DFC82FFC
:1009800080E0E3DF6C2F70E0762F6627EB01C80F65
:10099000D11D61E0F8018781C2DE8091681081116C
:1009A00088DF8FE090E00197F1F7BE0190E080E0F2
:1009B000DF91CF911F910F910895CF9389E690E138
:1009C00049DD892BD9F389E690E122DDC82FC5DD09
:1009D0008C2FCF9108951F93CF93DF9310926410C3
:1009E000109263101DE0E9DFC0916310D091641094
:1009F000CE37D10524F48A3011F08D3099F4CE0130
:100A000001969093641080936310CD51D04F18835A
:100A1000FC01ED51F04F108202972CF3DF91CF9142
:100A20001F910895883069F480E297DD88E095DDB4
:100A30001C161D06C4F62197D0936410C093631052
:100A4000D2CF9E012F5F3F4F3093641020936310ED
:100A5000CD51D04F8883C7CF9EEF980F923008F4C6
:100A6000A5C09EEE980F943008F4A0C090E0FC0161
:100A7000EB53FE4F2491FC01E55FFD4F3491433071
:100A800009F038C0323031F54091610F422B40936C
:100A9000610F8C519F4FFC01A491323009F043C08B
:100AA000B0E0AA0FBB1FA05BB04F6D937C93EFE447
:100AB000F1E0A591B4918C918093620F8BE690E068
:100AC00090933F0F80933E0F8091680081608093E8
:100AD00068004AC03A3031F44091730F422B409382
:100AE000730FD7CF3B30A9F64091860F422B40932E
:100AF000860FCFCF323031F44091600F422B4093BC
:100B0000600FC7CF3A3031F44091720F422B4093BF
:100B1000720FBFCF3B3009F0BCCF4091850F422B05
:100B20004093850FB6CF3A3039F5B0E0AA0FBB1F1E
:100B3000AD59B04F6D937C93EFE5F1E0A591B49181
:100B40008C918093740F8CE690E090933F0F80938C
:100B50003E0F809168008260809368008091710FE1
:100B6000822B8093710F220FA0913E0FB0913F0F07
:100B7000EC912E2B2C9308953B30B1F7B0E0AA0FE7
:100B8000BB1FAB58B04F6D937C93E1E6F1E0A591AC
:100B9000B4918C918093870F8DE690E090933F0FF6
:100BA00080933E0F80916800846091CF9FB7F89446
:100BB000833069F18231A1F0823039F57093490FA9
:100BC0006093480FEC9880916A008C7F80936A0054
:100BD00080916A00482B40936A00E49AEC9A15C011
:100BE0007093470F6093460FEB98809169008F7365
:100BF0008093690080916900F0E44F9FA001112467
:100C0000482B40936900E39AEB9A9FBF0895709335
:100C10004B0F60934A0FED9880916A00837F809319
:100C20006A0080916A0024E0429FA0011124482BB1
:100C300040936A00E59AED9AE8CFFC01019000200C
:100C4000E9F73197AF01481B590BBC0189E690E1E8
:100C5000A3CB84E392E0F1CFCF93DF937EDCEC0172
:100C6000F8DF8C0F9D1FDF91CF9108958F929F9297
:100C7000AF92BF920F931F93CF93DF93CDB7DEB7A1
:100C8000A1970FB6F894DEBF0FBECDBF19A24230B8
:100C900008F44AE08E010F5D1F4F842E912CB12C79
:100CA000A12CA50194010E94EF2BE62FB901CA01E6
:100CB000EA30ECF4E05DD801EE938D01232B242B78
:100CC000252B79F790E080E0109711F0CD01B5DF8A
:100CD000A1960FB6F894DEBF0FBECDBFDF91CF91C6
:100CE0001F910F91BF90AF909F908F900895E95CF6
:100CF000E2CFCF93DF93D0E0C0E0009711F09DDF0B
:100D0000EC01A7DF8C0F9D1FDF91CF91089595CF48
:100D1000CF92DF92EF92FF92CF93DF9397FF17C0AE
:100D20006B017C018DE219DCEC0166277727CB0192
:100D30006C197D098E099F094AE098DF8C0F9D1F71
:100D4000DF91CF91FF90EF90DF90CF9008954AE030
:100D5000DF91CF91FF90EF90DF90CF9087CFCF932F
:100D6000DF93D6DFEC0175DF8C0F9D1FDF91CF91F4
:100D700008950F931F93CF93DF93C0916510D09187
:100D800066108091631090916410C817D90794F48D
:100D90008E010D51104FF8018081DFDB2196D09339
:100DA0006610C0936510F8018081DF91CF911F918B
:100DB0000F910895DF91CF911F910F91FECD2F924A
:100DC0003F924F925F926F927F928F929F92AF92DB
:100DD000BF92CF92DF92EF92FF920F931F93CF9328
:100DE000DF93CDB7DEB72E970FB6F894DEBF0FBEF8
:100DF000CDBF9A8389831092DB0F1092DC0F109283
:100E0000DD0F1092DE0F1092DF0F1092E00F1092A4
:100E1000E10F1092E20F1092D30F1092D40F1092A4
:100E2000D50F1092D60F1092D70F1092D80F1092A4
:100E3000D90F1092DA0F1092CB0F1092CC0F1092A4
:100E4000CD0F1092CE0F1092CF0F1092D00F1092A4
:100E5000D10F1092D20F81E0809300021092010214
:100E600010920202109203021092040210920502E4
:100E700010920602109207021092CA0F1092C90F28
:100E800078DF182F082E000C990B0E94952B3C013F
:100E9000892BB1F71B3229F46CDF182F1C861B86B7
:100EA00008C01D32D9F765DF182F81E090E09C87DC
:100EB0008B87103349F45DDF182FE1E0F0E0F09309
:100EC000CA0FE093C90FF5CF812F012E000C990BAB
:100ED000C09788248394912C0A9788F01E3209F4D5
:100EE00056C01E861D861F7D153409F0D4C041DF13
:100EF0008B3209F0B1C03DDF10E000E0B3C0812FBC
:100F0000012E000C990BC0979E878D870A9708F0D9
:100F10004CC09092CA0F8092C90F5AE0A52EB12CF6
:100F2000C12CD12CE12CF12C00E010E02091DB0F42
:100F30003091DC0F4091DD0F5091DE0F6091DF0F9B
:100F40007091E00F8091E10F9091E20F0E94542C7C
:100F50001E85110F110BAD84BE84C12ED12EE12E42
:100F6000F12E012F0E94742D2093DB0F3093DC0FA4
:100F70004093DD0F5093DE0F6093DF0F7093E00F0F
:100F80008093E10F9093E20FF4DE182FB8CFF1DEDB
:100F9000182F1E861D86103351F4ED85FE8531977E
:100FA000FE87ED87E6DE182FF6CF1E861D861E32E1
:100FB00011F4DFDE182F44244394512C812E012E8E
:100FC000000C9908F0E38F1A91088AE088169104C2
:100FD00008F089CF5092CA0F4092C90F3AE0A32E71
:100FE000B12CC12CD12CE12CF12C00E010E020918F
:100FF000DB0F3091DC0F4091DD0F5091DE0F6091DF
:10100000DF0F7091E00F8091E10F9091E20F0E944D
:10101000542C192D110F110B5401C12ED12EE12E7C
:10102000F12E012F0E94742D2093DB0F3093DC0FE3
:101030004093DD0F5093DE0F6093DF0F7093E00F4E
:101040008093E10F9093E20FED85FE853197FE8747
:10105000ED878FDE182FB2CF8D3209F04DCF89DEAC
:1010600001E010E0803311F484DEFCCF912C812C60
:101070002AE0522E082E000C990BC0978A30910559
:1010800008F431C1012B09F038C18D859E85880D8A
:10109000991D9E878D878091C90F9091CA0F892BCA
:1010A00009F408C14090DB0F5090DC0F8090DD0FF9
:1010B0009090DE0F9091DF0F9B83E091E00FEC8327
:1010C0002090E10F3090E20F4092D30F5092D40F56
:1010D0008092D50F9092D60F9093D70FE093D80FB0
:1010E0002092D90F3092DA0F8D859E8597FF09C126
:1010F000909100029D83E0910102EE83F091020243
:10110000FF83809103028887909104029987E09180
:101110000502EA8770900602609007029AE0A92E05
:10112000B12CC12CD12CE12CF12C00E010E02D8150
:101130003E814F81588569857A85872D962D0E943D
:10114000542C2D833E834F83588769877A87782E66
:10115000692E8D859E8501969E878D87892BF1F658
:101160002093000230930102E42F40930202F52FF6
:1011700050930302862F60930402972F7093050209
:10118000709206026092070259016F017C01072DDF
:10119000162D9201A4016B817C81C1010E94A42CB7
:1011A0002093CB0F3093CC0F4093CD0F5093CE0FA5
:1011B0006093CF0F7093D00F8093D10F9093D20F85
:1011C0009201A4016B817C81C1010E94A62C209315
:1011D000D30F3093D40F4093D50F5093D60F609315
:1011E000D70F7093D80F8093D90F9093DA0F8B8518
:1011F0009C85892B09F444C02091D30F3091D40FE2
:101200004091D50F5091D60F6091D70F7091D80FA4
:101210008091D90F9091DA0F0E942D2D2093D30F3A
:101220003093D40F4093D50F5093D60F6093D70FC0
:101230007093D80F8093D90F9093DA0F2091CB0F32
:101240003091CC0F4091CD0F5091CE0F6091CF0FC8
:101250007091D00F8091D10F9091D20F0E942D2DBF
:101260002093CB0F3093CC0F4093CD0F5093CE0FE4
:101270006093CF0F7093D00F8093D10F9093D20FC4
:101280008091D30FE981FA8180838091D40F81838B
:101290008091D50F82838091D60F83838091D70F61
:1012A00084838091D80F85838091D90F8683809124
:1012B000DA0F87832E960FB6F894DEBF0FBECDBF30
:1012C000DF91CF911F910F91FF90EF90DF90CF9022
:1012D000BF90AF909F908F907F906F905F904F9056
:1012E0003F902F900895589C9001599C300D1124E7
:1012F0004C01820E931E3DDDBDCE919481949108E8
:10130000C4CEED85FE85EF2B09F471CF8AE0A82EBF
:10131000B12CC12CD12CE12CF12C00E010E0920179
:10132000A4016B817C81C1010E94542C29014A01D6
:101330006B837C831C01FFEF6F1A7F0A8D859E856E
:101340008615970519F74092D30F5092D40F8092CB
:10135000D50F9092D60F6093D70F7093D80F20922D
:10136000D90F3092DA0F43CF2F923F924F925F9274
:101370006F927F928F929F92AF92BF92CF92DF92A5
:10138000EF92FF920F931F93CF93DF93CDB7DEB70A
:10139000C859D1090FB6F894DEBF0FBECDBFCF57E5
:1013A000DF4F2883C158D040CE57DF4F3883C25813
:1013B000D040CD57DF4F4883C358D040CC57DF4F84
:1013C0005883C458D040CB57DF4F6883C558D040AE
:1013D000CA57DF4F7883C658D040C957DF4F88833C
:1013E000C758D040C857DF4F9883C858D040A12C69
:1013F0002F3FEFE03E07E5EA4E07E4ED5E07E8EE3B
:101400006E0771058105910509F00CF4C5C110E165
:10141000B12E05EAC02EE4EDDE2EF8EEEF2EF12C13
:1014200000E010E00E94A62CC757DF4F2883C95860
:10143000D040C657DF4F3883CA58D040C557DF4F1A
:101440004883CB58D040C457DF4F5883CC58D04046
:10145000C357DF4F6883CD58D040C257DF4F7883E2
:10146000CE58D040C157DF4F8883CF58D040C057A7
:10147000DF4F9883C059D040A12C40E1B42E55EAEB
:10148000C52E64EDD62E78EEE72EF12C00E010E0AC
:10149000C757DF4F2881C958D040C657DF4F388122
:1014A000CA58D040C557DF4F4881CB58D040C457A9
:1014B000DF4F5881CC58D040C357DF4F6881CD589B
:1014C000D040C257DF4F7881CE58D040C157DF4F50
:1014D0008881CF58D040C057DF4F9881C059D04045
:1014E0000E94542C59016A017B018C01CF57DF4FB8
:1014F0002881C158D040CE57DF4F3881C258D040E4
:10150000CD57DF4F4881C358D040CC57DF4F58816B
:10151000C458D040CB57DF4F6881C558D040CA5718
:10152000DF4F7881C658D040C957DF4F8881C758F0
:10153000D040C857DF4F9881C858D0400E94892DAD
:1015400029013A014B011C01A0E00E949B2D34F4BB
:101550000E942D2D29013A014B011C0190E4A92E76
:1015600022E4B22E3FE0C32ED12CE12CF12C00E07E
:1015700010E09201A301B401C1010E94A62CCF5634
:10158000DF4F2883C159D040CE56DF4F3883C25930
:10159000D040CD56DF4F4883C359D040CC56DF4FA3
:1015A0005883C459D040CB56DF4F6883C559D040CB
:1015B000CA56DF4F7883C659D040C956DF4F88835B
:1015C000C759D040C856DF4F9883C859D0409201C0
:1015D000A301B401C1010E94A42C722E632E542ECB
:1015E000452E362E272EF82EE92ECF57DF4F288195
:1015F000C158D040CE57DF4F3881C258D040CD5768
:10160000DF4F4881C358D040CC57DF4F5881C45872
:10161000D040CB57DF4F6881C558D040CA57DF4F05
:101620007881C658D040C957DF4F8881C758D0400D
:10163000C857DF4F9881C858D040A0E00E949B2D2A
:101640001CF487E392E063DBC057DF4F8881C05909
:10165000D0408F93C157DF4F9881CF58D0409F9390
:10166000C257DF4FE881CE58D040EF93C357DF4FCA
:101670008881CD58D0408F93C457DF4F9881CC5884
:10168000D0409F93C557DF4FE881CB58D040EF93B0
:10169000C657DF4F8881CA58D0408F93C757DF4F56
:1016A0009881C958D0409F9389E392E09F938F938C
:1016B0008E010F5F1F4F1F930F930E94BE2DC80115
:1016C00026DBC856DF4FE881C859D040EF93C95692
:1016D000DF4F8881C759D0408F93CA56DF4F98811A
:1016E000C659D0409F93CB56DF4FE881C559D040B3
:1016F000EF93CC56DF4F8881C459D0408F93CD569D
:10170000DF4F9881C359D0409F93CE56DF4FE88179
:10171000C259D040EF93CF56DF4F8881C159D04096
:101720008F938EE3882E82E0982E9F928F921F9344
:101730000F930E94BE2DC801EADAEF92FF922F921A
:101740003F924F925F926F927F929F928F921F93E0
:101750000F930E94BE2D0FB6F894DEBF0FBECDBF13
:10176000C801D5DAC856DF4F0FB6F894DEBF0FBEFA
:10177000CDBFDF91CF911F910F91FF90EF90DF9040
:10178000CF90BF90AF909F908F907F906F905F9021
:101790004F903F902F900895E0EFBE2EFAE5CF2EA8
:1017A000ABE2DA2EB7E1EB2EFF24FA940FEF1FEF36
:1017B000CF57DF4F2881C158D040CE57DF4F3881F7
:1017C000C258D040CD57DF4F4881C358D040CC5786
:1017D000DF4F5881C458D040CB57DF4F6881C55880
:1017E000D040CA57DF4F7881C658D040C957DF4F25
:1017F0008881C758D040C857DF4F9881C858D0401B
:1018000011CE2F923F924F925F926F927F928F9262
:101810009F92AF92BF92CF92DF92EF92FF920F937F
:101820001F93CF93DF93CDB7DEB7C258D1090FB660
:10183000F894DEBF0FBECDBF19012A013B01CF577F
:10184000DF4F8883C158D040CE57DF4F9883C258AE
:10185000D04020E4A22E32E4B32E4FE0C42ED12C8F
:10186000E12CF12C00E010E09101A2010E94A62CD5
:101870005F934F933F932F9389E392E09F938F93CE
:10188000CE0101964C019F938F930E94BE2DC401FF
:101890003EDA9101A201B301CF57DF4F8881C158D1
:1018A000D040CE57DF4F9881C258D0400E94A42C20
:1018B0005F934F933F932F938EE392E09F938F9389
:1018C0009F928F920E94BE2DC40121DA0FB6F89428
:1018D000DEBF0FBECDBFCE57DF4F0FB6F894DEBFD1
:1018E0000FBECDBFDF91CF911F910F91FF90EF9071
:1018F000DF90CF90BF90AF909F908F907F906F9030
:101900005F904F903F902F900895EF92FF920F932A
:101910001F93CF93DF937C018B01D0E0C0E0F801EF
:1019200061918F01C7018C0F9D1F0E94D22B2196C0
:10193000C430D105A1F784E090E0DF91CF911F91F1
:101940000F91FF90EF900895EF92FF920F931F93E6
:10195000CF93DF937C018B01D0E0C0E0F80161916F
:101960008F01C7018C0F9D1F0E94D22B2196CF376C
:10197000D105A1F78FE790E0DF91CF911F910F91F3
:10198000FF90EF900895EF92FF920F931F93CF93E4
:10199000DF938B010C5F1F4FEB017C01E61AF70A06
:1019A000C7018C0F9D1F0E94CA2B8993C017D107B6
:1019B000B9F784E090E0DF91CF911F910F91FF90F4
:1019C000EF9008951F920F920FB60F9211240BB64D
:1019D0000F922F933F934F935F936F937F938F93C8
:1019E0009F93AF93BF93EF93FF9389E690E10E949B
:1019F0003F02FF91EF91BF91AF919F918F917F91A6
:101A00006F915F914F913F912F910F900BBE0F906F
:101A10000FBE0F901F9018951F920F920FB60F9246
:101A200011240BB60F922F938F939F93EF93FF93F5
:101A3000E0917910F0917A108081E0917F10F0911F
:101A4000801082FD1DC09081809182108F5F8F7306
:101A500020918310821741F0E0918210F0E0E75965
:101A6000FF4E958F80938210FF91EF919F918F9100
:101A70002F910F900BBE0F900FBE0F901F901895D7
:101A80008081F2CF1F920F920FB60F9211242F93E5
:101A90003F938F939F93AF93BF938091890F9091C2
:101AA0008A0FA0918B0FB0918C0F3091880F23E09B
:101AB000230F2D3758F50196A11DB11D2093880FD6
:101AC0008093890F90938A0FA0938B0FB0938C0F04
:101AD00080918D0F90918E0FA0918F0FB091900FEC
:101AE0000196A11DB11D80938D0F90938E0FA09331
:101AF0008F0FB093900FBF91AF919F918F913F91B6
:101B00002F910F900FBE0F901F90189526E8230F6E
:101B10000296A11DB11DD2CF1F920F920FB60F9248
:101B200011240BB60F922F933F934F935F936F93B4
:101B30007F938F939F93AF93BF93CF93EF93FF9335
:101B400090910601C091870F8091860F3091850F8B
:101B5000292F209523238923822B20916D00C927CB
:101B6000C223C8239093870FCC23C1F1C0FF05C0C7
:101B7000E091750FF091760F1995C1FF05C0E091C6
:101B8000770FF091780F1995C2FF05C0E091790F9A
:101B9000F0917A0F1995C3FF05C0E0917B0FF0918A
:101BA0007C0F1995C4FF05C0E0917D0FF0917E0F69
:101BB0001995C5FF05C0E0917F0FF091800F199531
:101BC000C6FF05C0E091810FF091820F1995C7FF04
:101BD00005C0E091830FF091840F1995FF91EF916B
:101BE000CF91BF91AF919F918F917F916F915F91B5
:101BF0004F913F912F910F900BBE0F900FBE0F9002
:101C00001F9018951F920F920FB60F9211240BB6CA
:101C10000F922F933F934F935F936F937F938F9385
:101C20009F93AF93BF93CF93EF93FF939091030153
:101C3000C091740F8091730F3091720F292F2095EE
:101C400023238923822B2091710FC927C223C82304
:101C50009093740FCC2389F1C0FF05C0E091630F0E
:101C6000F091640F1995C1FF05C0E091650FF091E7
:101C7000660F1995C2FF05C0E091670FF091680FDC
:101C80001995C3FF05C0E091690FF0916A0F19958E
:101C9000C4FF05C0E0916B0FF0916C0F1995C5FF63
:101CA00005C0E0916D0FF0916E0F1995C6FF05C04C
:101CB000E0916F0FF091700F1995FF91EF91CF9117
:101CC000BF91AF919F918F917F916F915F914F9154
:101CD0003F912F910F900BBE0F900FBE0F901F9052
:101CE00018951F920F920FB60F9211240BB60F92F8
:101CF0002F933F934F935F936F937F938F939F9314
:101D0000AF93BF93CF93EF93FF9393B1C091620FC3
:101D10008091610F3091600F292F20952323892313
:101D2000822B20916B00C927C223C8239093620F96
:101D3000CC23C1F1C0FF05C0E091500FF091510FCD
:101D40001995C1FF05C0E091520FF091530F1995FD
:101D5000C2FF05C0E091540FF091550F1995C3FFD4
:101D600005C0E091560FF091570F1995C4FF05C0BB
:101D7000E091580FF091590F1995C5FF05C0E091FA
:101D80005A0FF0915B0F1995C6FF05C0E0915C0FEB
:101D9000F0915D0F1995C7FF05C0E0915E0FF091BE
:101DA0005F0F1995FF91EF91CF91BF91AF919F91E7
:101DB0008F917F916F915F914F913F912F910F90F4
:101DC0000BBE0F900FBE0F901F9018951F920F9291
:101DD0000FB60F9211240BB60F922F933F934F9390
:101DE0005F936F937F938F939F93AF93BF93EF9383
:101DF000FF93E0914E0FF0914F0F1995FF91EF91E6
:101E0000BF91AF919F918F917F916F915F914F9112
:101E10003F912F910F900BBE0F900FBE0F901F9010
:101E200018951F920F920FB60F9211240BB60F92B6
:101E30002F933F934F935F936F937F938F939F93D2
:101E4000AF93BF93EF93FF93E0914C0FF0914D0F41
:101E50001995FF91EF91BF91AF919F918F917F91D4
:101E60006F915F914F913F912F910F900BBE0F900B
:101E70000FBE0F901F9018951F920F920FB60F92E2
:101E800011240BB60F922F933F934F935F936F9351
:101E90007F938F939F93AF93BF93EF93FF93E091C3
:101EA0004A0FF0914B0F1995FF91EF91BF91AF91B0
:101EB0009F918F917F916F915F914F913F912F9162
:101EC0000F900BBE0F900FBE0F901F9018951F9292
:101ED0000F920FB60F9211240BB60F922F933F93D0
:101EE0004F935F936F937F938F939F93AF93BF9322
:101EF000EF93FF93E091480FF091490F1995FF91EF
:101F0000EF91BF91AF919F918F917F916F915F9171
:101F10004F913F912F910F900BBE0F900FBE0F90DE
:101F20001F9018951F920F920FB60F9211240BB6A7
:101F30000F922F933F934F935F936F937F938F9362
:101F40009F93AF93BF93EF93FF93E091460FF09170
:101F5000470F1995FF91EF91BF91AF919F918F918D
:101F60007F916F915F914F913F912F910F900BBE99
:101F70000F900FBE0F901F9018951F920F920FB6E3
:101F80000F9211240BB60F922F933F934F935F93B1
:101F90006F937F938F939F93AF93BF93EF93FF9331
:101FA000E091440FF091450F1995FF91EF91BF918A
:101FB000AF919F918F917F916F915F914F913F91E1
:101FC0002F910F900BBE0F900FBE0F901F90189582
:101FD0001F920F920FB60F9211240BB60F922F93F0
:101FE0003F934F935F936F937F938F939F93AF93A1
:101FF000BF93EF93FF93E091420FF091430F199538
:10200000FF91EF91BF91AF919F918F917F916F91D0
:102010005F914F913F912F910F900BBE0F900FBE8C
:102020000F901F9018951F920F920FB60F921124C8
:102030000BB60F922F933F934F935F936F937F93C2
:102040008F939F93AF93BF93EF93FF93E091400FD4
:10205000F091410F1995FF91EF91BF91AF919F9131
:102060008F917F916F915F914F913F912F910F9041
:102070000BBE0F900FBE0F901F901895CF92DF925E
:10208000EF92FF920F931F93CF93DF93E9E6F0E176
:102090001382128288EE93E0A0E0B0E084839583FF
:1020A000A683B78386E292E09183808385EC90E0FB
:1020B0009587848784EC90E09787868780EC90E012
:1020C000918B808B81EC90E0938B828B82EC90E003
:1020D000958B848B86EC90E0978B868B118E128E7D
:1020E000138E148E89E080930212C6E0D1E184E061
:1020F00090E09983888380E38A8382E090E09C83E8
:102100008B838AE090E09E838D8386E090E09887C1
:102110008F8384E490E09A87898761E084E00E945D
:10212000BC0360E08D810E94BC0361E08F810E944E
:10213000BC0360E08B810E94BC0361E089850E9442
:10214000BC0385E090E0909385118093841181E336
:102150008093861107E811E183E090E0F801918314
:10216000808389E8C82E81E1D82E8BE090E0F601CB
:10217000918380839BE8E92E91E1F92E87E090E03E
:10218000F70191838083CDE8D1E185E490E09983E4
:10219000888361E085E00E94BC0360E0F6018081F5
:1021A0000E94BC0361E0F70180810E94BC0360E0F3
:1021B000F80180810E94BC0361E08881DF91CF91AA
:1021C0001F910F91FF90EF90DF90CF900C94BC0384
:1021D000CF93DF93CDB7DEB7C05CD1400FB6F89494
:1021E000DEBF0FBECDBF789484B5826084BD84B558
:1021F000816084BD85B5826085BD85B5816085BD02
:1022000080916E00816080936E00109281008091B9
:102210008100826080938100809181008160809341
:102220008100809180008160809380008091B10066
:1022300084608093B1008091B00081608093B00091
:1022400080919100826080939100809191008160E3
:1022500080939100809190008160809390008091A4
:10226000A10082608093A1008091A1008160809391
:10227000A1008091A00081608093A0008091210145
:1022800082608093210180912101816080932101EE
:102290008091200181608093200180917A00846088
:1022A00080937A0080917A00826080937A00809196
:1022B0007A00816080937A0080917A0080688093B0
:1022C0007A001092C1002E010FEF400E511C9201B6
:1022D0002F5F3F4FC154DE4F39832883CF5BD140FE
:1022E00040E850E04C0F5D1F4D5E5F4FC855DE4F1C
:1022F00059834883C85AD14060E082E10E94BC0300
:1023000061E08CE00E94BC0361E08DE00E94BC03B0
:1023100061E082E40E94BC0361E083E40E94BC03AC
:1023200061E081E40E94BC03809108018064809395
:102330000801809108018061809308018091080163
:102340008068809308018091080180628093080171
:1023500089E690E10E94B102E0917B10F0917C103F
:1023600080818F7E8083E0917B10F0917C10808152
:10237000877F8083E0917B10F0917C1080818F7744
:102380008083E0917B10F0917C1080818F7D808331
:102390008091831080938210E0917910F0917A10EF
:1023A00082E08083E0917510F09176101082E091C8
:1023B0007710F091781080E1808310928110E09185
:1023C0007D10F0917E1086E08083E0917B10F0918B
:1023D0007C10808180618083E0917B10F0917C1083
:1023E000808188608083E0917B10F0917C108081F7
:1023F00080688083E0917B10F0917C1080818F7DDC
:1024000080839FB7F8948091910F882319F08150B1
:102410008093910F8091910F811105C08CB58F7BB6
:102420008CBD109268109FBF1FB7F8948091910FD8
:10243000811127C0E0E4F2E08491EAEFF1E09491A9
:10244000E82FF0E0EE0FFF1FE555FE4FA591B49188
:10245000EC91E92321F461E085E30E948F0361E0C0
:1024600085E30E94BC038CB580618CBD8CB5806413
:102470008CBD61E084E30E94BC0361E083E30E94C1
:10248000BC038091910F8F5F8093910F1FBFBE019E
:1024900062587E4F80EF9FE076DAB20184EF9FE0D2
:1024A00072DAC258DE4F88819981AA81BB81CE57EA
:1024B000D1408F3F5FEF9507A507B50709F092C0A0
:1024C000F20180819181A281B3818F3F9F4FAF4FF5
:1024D000BF4F09F095C084E492E00E94790686E33C
:1024E0000E94ED03BC01990F880B990B61157105D2
:1024F0008105910511F00E94612A0E94152A2FEF93
:102500003FEF40E050E00E94112CC258DE4F68833C
:1025100079838A839B83CE57D14089E30E94ED0360
:10252000BC01990F880B990B611571058105910507
:1025300011F00E94612A0E94152A2FEF3FEF40E020
:1025400050E00E94112CD2016D937D938D939C934A
:102550001397BE0162587E4F80EF9FE0D6D9B2013B
:1025600084EF9FE0D2D9F20183818F9382818F9390
:1025700081818F9380818F93CF57DE4F8881C1589F
:10258000D1408F93C058DE4F8881C058D1408F937F
:10259000C158DE4F8881CF57D1408F93C258DE4F4C
:1025A0008881CE57D1408F9389E692E09F938F9395
:1025B00082E99FE09F938F930E94BE2D82EC93E06F
:1025C0000E94870682E99FE00E9479066CE47DE123
:1025D00080E090E00E9429040FB6F894DEBF0FBEA1
:1025E000CDBF0EC0892B8A2B8B2B51F4F201808139
:1025F0009181A281B381892B8A2B8B2B09F46BCF1C
:10260000D20113968C9113978F9312968C911297F7
:102610008F9311968C9111978F938C918F93CF57A5
:10262000DE4F8881C158D1408F93C058DE4F8881DA
:10263000C058D1408F93C158DE4F8881CF57D140C9
:102640008F93C258DE4F8881CE57D1408F9389E651
:1026500092E09F938F9382E99FE09F938F930E94D4
:10266000BE2D90E080E00E94CA2B0FB6F894DEBF2A
:102670000FBECDBF893009F4A0C184E792E00E946B
:10268000790619E0D2011C9341E150E06CE072E060
:10269000C154DE4F88819981CF5BD1400E94AF2D1C
:1026A00084E4F201828B41E150E062E97FE0C20103
:1026B00043960E94AF2DD20194961C9294979596C2
:1026C0001C92959780E896968C93969786E99796B4
:1026D0008C93979788E998968C93989799961C92E3
:1026E00099979A961C929A979B961C929B979C9668
:1026F0001C929C979D961C929D979E961C929E97CD
:1027000081EE9F968C939F9785EFD0968C93D09770
:1027100085E0D1968C93D197D2961C92D297D3967E
:102720001C92D397D4961C92D497D5961C92D59789
:1027300084E190E0D7969C938E93D69785E090E0C5
:10274000D9969C938E93D8978DE4DA968C93DA97EA
:1027500081E4DD968C93DD9782E4DE968C93DE97A0
:10276000DF961C92F201FF9611821282138214826C
:10277000158216821782CA5BDE4F1882C654D1407A
:10278000C95BDE4F1882C754D140C85BDE4F188248
:10279000C854D140C75BDE4F1882C954D140C65BD4
:1027A000DE4F1882CA54D140C55BDE4F1882CB542D
:1027B000D140C45BDE4F1882CC54D140C35BDE4FA6
:1027C0001882CD54D14082E5F20183AF84AF84EC0E
:1027D000C25BDE4F8883CE54D140C15BDE4F18838D
:1027E000CF54D140C05BDE4F1882C055D140CF5A84
:1027F000DE4F1882C155D140CE5ADE4F1882C255E5
:10280000D140CD5ADE4F1882C355D140CC5ADE4F4D
:102810001882C455D140CB5ADE4F1882C555D140DD
:10282000CA5ADE4F8883C655D140C95ADE4F188335
:10283000C755D140C85ADE4F1882C855D140C75A33
:10284000DE4F1882C955D140C65ADE4F1882CA558C
:10285000D140C55ADE4F1882CB55D140C45ADE4F05
:102860001882CC55D140C35ADE4F1882CD55D14085
:10287000C25ADE4F1882CE55D140C15ADE4F18825F
:10288000CF55D140C05ADE4F1882C056D140CF59E3
:10289000DE4F1882C156D140CE59DE4F1882C25643
:1028A000D140CD59DE4F1882C356D140CC59DE4FAE
:1028B0001882C456D140CB59DE4F1882C556D1403C
:1028C000CA59DE4F1882C656D140C959DE4F188208
:1028D000C756D140C859DE4F1882C856D140C75993
:1028E000DE4F1882C956D140C659DE4F1882CA56EB
:1028F000D140C559DE4F1882CB56D140C459DE4F66
:102900001882CC56D140C359DE4F1882CD56D140E3
:10291000C259DE4F1882CE56D140C159DE4F1882BF
:10292000CF56D140C059DE4F1882C057D140CF5842
:10293000DE4F1882C157D140CE58DE4F1882C257A1
:10294000D140CD58DE4F1882C357D140CC58DE4F0E
:102950001882C457D140CB58DE4F1882C557D1409A
:10296000CA58DE4F1882C657D140C958DE4F188268
:10297000C757D140C858DE4F1882C857D140C758F2
:10298000DE4F1882C957D140C658DE4F1882CA5749
:10299000D140C558DE4F1882CB57D140C458DE4FC6
:1029A0001882CC57D140C358DE4F1882CD57D14042
:1029B000B20190E080E00E94A40C52E0E52E52E1CA
:1029C000F52E10E000E0C8010E94CA2BD7018D93BC
:1029D0007D010F5F1F4F0F371105A9F70E942906D0
:1029E00089E992E00E9479068AEB92E00E947906DA
:1029F0000E9429068AEE92E00E94790680E093E028
:102A00000E9479068FE7E2E0F2E1DE01A058BF4FB5
:102A100001900D928A95E1F787E193E00E94870685
:102A2000CC55DF4F8881C45AD040823009F4F6C1BA
:102A300008F0E7C1882309F4ECC1813009F4F1C141
:102A400088E693E00E948706CB55DF4F8881C55A00
:102A5000D040882309F4EDC10E942C0680E893E061
:102A60000E94870690E080E00E94CA2B682F70E0E9
:102A700090E080E04AE00E94360683E993E00E94FD
:102A80008706CE56DF4F8881C259D0400E942C065F
:102A900085EA93E00E9487068CE092E00E94790626
:102AA0008AEB93E00E948706C855DE4F88819981A2
:102AB000C85AD1400E94790682ED93E00E948706B1
:102AC000CA55DF4F2881C65AD040C955DF4F3881DB
:102AD000C75AD040C855DF4F4881C85AD040C75563
:102AE000DF4F5881C95AD040C655DF4F6881CA5A56
:102AF000D040C555DF4F7881CB5AD040C455DF4F09
:102B00008881CC5AD040C355DF4F9881CD5AD040F0
:102B10000E94010C82EE93E00E94790687EE93E01A
:102B20000E948706C255DF4F2881CE5AD040C1553A
:102B3000DF4F3881CF5AD040C055DF4F4881C05B4E
:102B4000D040CF54DF4F5881C15BD040CE54DF4FCF
:102B50006881C25BD040CD54DF4F7881C35BD040E9
:102B6000CC54DF4F8881C45BD040CB54DF4F988179
:102B7000C55BD0400E94010C87EF93E00E9479066C
:102B80008DEF93E00E948706CA54DF4F68817981F8
:102B9000C65BD040072E000C880B990B0E9488065C
:102BA0000E9429068DE094E00E948706C654DF4FFC
:102BB0008881CA5BD0400E942C068AE194E00E9482
:102BC0008706C354DF4F8881CD5BD0400E94AD02A1
:102BD00087E294E00E948706C254DF4F8881CE5B73
:102BE000D0400E942C0689E294E00E948706E0E82B
:102BF000F0E0EC0FFD1FFF9660817181828193816F
:102C00000E94880687E394E00E948706C953DF4F3D
:102C1000688179818A819B81C75CD0400E94880647
:102C200080E494E00E94790687E494E00E9487069D
:102C3000C754DF4F8881C95BD0408F93C854DF4FA2
:102C40008881C85BD0408F9383E594E09F938F93F6
:102C50005F924F920E94BE2DC2010E9479068AE5C2
:102C600094E00E948706C554DF4F8881CB5BD0403B
:102C70000E94AD0287E394E00E948706C454DF4FB0
:102C80008881CC5BD0400E94AD0280E494E00E9439
:102C900079068BE694E00E948706C153DF4F688176
:102CA00079818A819B81CF5CD0400E94880687E32E
:102CB00094E00E948706C952DF4F688179818A813A
:102CC0009B81C75DD0400E94880680E494E00E940A
:102CD00079068DE794E00E948706C152DF4F688134
:102CE00079818A819B81CF5DD0400E94880687E3ED
:102CF00094E00E948706C951DF4F688179818A81FB
:102D00009B81C75ED0400E94880680E494E00E94C8
:102D100079068DE894E00E948706C151DF4F6881F3
:102D200079818A819B81CF5ED0400E94880687E3AB
:102D300094E00E948706C950DF4F688179818A81BB
:102D40009B81C75FD0400E94880680E494E00E9487
:102D500079068AEE92E00E94790688E994E00E9462
:102D600079068DEB94E00E9487060F900F900F90EC
:102D70000F900F900F9007E010E06AEF70E080E096
:102D800090E00E9429048EE20E94AD0289E690E163
:102D90000E942A02892B09F051C06AEF70E080E09E
:102DA00090E00E9429048EE20E94AD0289E690E143
:102DB0000E942A02892B09F041C06AEF70E080E08E
:102DC00090E00E9429048EE20E94AD0289E690E123
:102DD0000E942A02892B91F56AEF70E080E090E072
:102DE0000E9429048EE20E94AD0289E690E10E94D1
:102DF0002A02892B19F50150110909F0BECF10E004
:102E00001EC0833089F0843009F01ACE82E693E048
:102E100002C08CE293E00E94790612CE86E393E032
:102E2000FACF8DE393E0F7CF80E593E00E94790637
:102E3000EDCF8BE793E00E94790610CE11E089E692
:102E400090E10E942A02C256DE4F99838883CE59B0
:102E5000D140892B29F089E690E10E940802EFCF4A
:102E6000112309F4F4C7FE01EA57FE4FC257DE4FA3
:102E7000F983E883CE58D1400E9429060E94290692
:102E800080EC94E00E948706E09126128FE3E53003
:102E900020F4F0E0E35EFD4F80810E942C0681EF7C
:102EA00094E00E94870680912712882309F445C187
:102EB0000E942C0682E295E00E948706209128124B
:102EC0003091291240912A1250912B1260912C12AC
:102ED00070912D1280912E1290912F120E94010C50
:102EE0000E94290683E595E00E9487062091301212
:102EF000309131124091321250913312609134125C
:102F00007091351280913612909137120E94010C07
:102F10000E94290684E895E00E9487066091381295
:102F200070913912072E000C880B990B0E94AF0686
:102F300085EB95E00E94870680913A1290913B12B2
:102F4000092E000CAA0BBB0BBF93AF939F938F93DB
:102F500046EEA42E45E0B42EBF92AF92C157DE4F8D
:102F6000D880CF58D140DF92C257DE4FE880CE588C
:102F7000D140EF920E94BE2DCE018A579E4F0E94F3
:102F800079068DEE95E00E94870680913C120E94A2
:102F9000AD020E9429068EE196E00E94870680918C
:102FA0003F120E94AD028FE20E94AD02809140125A
:102FB0000E942C068FE496E00E94870660914112E1
:102FC0007091421280914312909144120E9488069F
:102FD00080E20E94AD026091491270914A12809184
:102FE0004B1290914C120E94AF0680E896E00E942E
:102FF000870680913D120E94AD0280E20E94AD02E0
:1030000080913E120E942C0681EB96E00E9487067A
:1030100060915112709152128091531290915412FA
:103020000E94880680E20E94AD0260915912709160
:103030005A1280915B1290915C120E94AF0682EE50
:1030400096E00E94870660916112709162128091F1
:103050006312909164120E94880680E20E94AD0281
:103060006091691270916A1280916B1290916C124A
:103070000E94AF0683E197E00E948706609171127B
:103080007091721280917312909174120E9488064E
:1030900080E20E94AD026091791270917A12809163
:1030A0007B1290917C120E94AF060E94290684E454
:1030B00097E00E94790684E697E00E94790686E709
:1030C00097E00E94790689E997E00E9479060E94BC
:1030D000DD04082E000C990B0E94A72D182F0E94CA
:1030E00029060FB6F894DEBF0FBECDBFEDEBE10FA2
:1030F000E83110F00C94E5200E2E000CFF0B882711
:10310000EB57F74E8F4F0C944C2C1D1ADD1C971C5F
:10311000431DA91DF418E520E520E520E520A218AF
:10312000021C311C191BE5200F1E1419721BE5200F
:10313000E520191FCE20E71B271F87ED98E00E948E
:103140007906B8CE86EA97E00E9479060E942906A1
:1031500083ED97E00E9479068BEE97E00E94790656
:1031600080E098E00E94790681E298E00E9479066A
:1031700080E498E00E94790684E598E00E94790650
:103180000E9429068EE698E00E9487060E94DD04D0
:10319000082E000C990B0E94A72D8C34910501F18B
:1031A0005CF484349105F1F089349105B9F08BE732
:1031B00098E00E947906EACF8035910559F0843570
:1031C000910529F08E34910591F785E004C01092A5
:1031D000261252CE82E0809326124ECE81E0FBCFA3
:1031E00083E0F9CF84E0F7CF89E998E00E94870671
:1031F00080912712882399F00E94AD0289EA98E015
:103200000E9479060E94DD04082E000C990B0E9492
:10321000A72D803209F480E0809327122DCE87ED10
:1032200098E00E948706EACF8DED98E00E9487061D
:10323000209128123091291240912A1250912B127C
:1032400060912C1270912D1280912E1290912F125C
:103250000E94010C8AEE98E00E9479068EE099E0C7
:103260000E9479060E94EB0410926610109265107D
:10327000C2010E94DF06D201BC91C057DE4FB88365
:10328000C059D140F201F181CE56DE4FF883C259C8
:10329000D140D20112962C90129713963C9013971E
:1032A00014966C90149715967C90159716968C90A2
:1032B000169717969C90C057DE4F2881C059D14071
:1032C0003F2FA101B301C401AFEF0E947D2DAFE0FC
:1032D0000E949B2D11F008F0CFCD10E4A12E02E446
:1032E000B02E8FE0C82ED12CE12CF12C00E010E0A4
:1032F0002091CB0F3091CC0F4091CD0F5091CE0F3C
:103300006091CF0F7091D00F8091D10F9091D20F1B
:103310000E94542CA0900002B0900102C0900202C2
:10332000D0900302E0900402F090050200910602A2
:10333000109107020E94A62CC656DE4F2883CA5958
:10334000D140C056DE4F3883C05AD140CF55DE4FF2
:103350004883C15AD140CE55DE4F5883C25AD1401E
:10336000CD55DE4F6883C35AD140CC55DE4F7883AC
:10337000C45AD140CB55DE4F8883C55AD140CA5577
:10338000DE4F9883C65AD14090E4A92E22E4B22E93
:103390003FE0C32ED12CE12CF12C00E010E0C0570F
:1033A000DE4F2881C059D140CE56DE4F3881C259F8
:1033B000D140A101B301C4010E94542C59016A01FA
:1033C0007B018C01C656DE4F2881CA59D140C056B8
:1033D000DE4F3881C05AD140CF55DE4F4881C15AA7
:1033E000D140CE55DE4F5881C25AD140CD55DE4F27
:1033F0006881C35AD140CC55DE4F7881C45AD14040
:10340000CB55DE4F8881C55AD140CA55DE4F9881D1
:10341000C65AD1400E94742D20932812309329124D
:1034200040932A1250932B1260932C1270932D12FA
:1034300080932E1290932F121FCD85E599E00E9464
:103440008706209130123091311240913212509102
:10345000331260913412709135128091361290912E
:1034600037120E94010C88E699E00E9479068DE7E8
:1034700099E00E9479060E94EB0410926610109267
:103480006510C2010E94DF06F201F081C057DE4FD5
:10349000F883C059D140D2011196BC91CE56DE4F6F
:1034A000B883C259D140F201228033806480758094
:1034B00086809780C057DE4F2881C059D1403B2F6E
:1034C000A101B301C401A0E00E949B2D09F00CF4FE
:1034D000D3CC60E4A62E72E4B72EEFE0CE2ED12C32
:1034E000E12CF12C00E010E02091CB0F3091CC0FBB
:1034F0004091CD0F5091CE0F6091CF0F7091D00FB2
:103500008091D10F9091D20F0E94542CA090000274
:10351000B0900102C0900202D0900302E090040239
:10352000F090050200910602109107020E94A62C5D
:10353000C656DE4F2883CA59D140C056DE4F388365
:10354000C05AD140CF55DE4F4883C15AD140CE55E5
:10355000DE4F5883C25AD140CD55DE4F6883C35ADF
:10356000D140CC55DE4F7883C45AD140CB55DE4F85
:103570008883C55AD140CA55DE4F9883C65AD14078
:10358000F0E4AF2EA2E4BA2EBFE0CB2ED12CE12C7A
:10359000F12C00E010E0C057DE4F2881C059D14027
:1035A000CE56DE4F3881C259D140A101B301C401CA
:1035B0000E94542C59016A017B018C01C656DE4FD2
:1035C0002881CA59D140C056DE4F3881C05AD140F7
:1035D000CF55DE4F4881C15AD140CE55DE4F58817C
:1035E000C25AD140CD55DE4F6881C35AD140CC5527
:1035F000DE4F7881C45AD140CB55DE4F8881C55A01
:10360000D140CA55DE4F9881C65AD1400E94742DD0
:103610002093301230933112409332125093331270
:103620006093341270933512809336129093371250
:1036300023CC83EC99E00E94870660913812709148
:103640003912072E000C880B990B0E94880688ED12
:1036500099E00E94790685E09AE00E9479060E942E
:10366000EB041092661010926510C2010E94DF06F2
:103670008091C90F9091CA0F892B09F4FDCBD2011B
:10368000FC911196EC9111971296DC90129713967B
:10369000EC9013971496FC90149715960C9115972F
:1036A00016961C9116971796CC902F2F277F3E2F9A
:1036B0004D2D5E2D6F2D702F812F9C2DA2E00E942D
:1036C0009B2D51F02F2FA4E10E949B2D29F0A8E201
:1036D0000E949B2D09F0D0CBCF0190933812E0933C
:1036E0003912CACB80913A1290913B12092E000CEC
:1036F000AA0BBB0BBF93AF939F938F93E6EEF5E0BE
:10370000FF93EF935F924F920E94BE2D83E49AE065
:103710000E948706C2010E9487068CE49AE00E94FC
:10372000790685E09AE00E9479060E94EB041092E7
:10373000661010926510CE0182589E4F0E94DF06DF
:103740000FB6F894DEBF0FBECDBF8091C90F909128
:10375000CA0F892B09F490CBC258DE4FF881CE579F
:10376000D140C158DE4FE881CF57D140C058DE4F1D
:103770004881C058D140CF57DE4F5881C158D14001
:10378000CE57DE4F6881C258D140CD57DE4F788189
:10379000C358D1402F2F3E2FCC57DE4F8881C458BD
:1037A000D140CB57DE4F9881C558D1402F3F3105CE
:1037B00041055105610571058105910511F008F07C
:1037C0005BCBCF0190933A1280933B1255CB8EE79F
:1037D0009AE00E94870680913C120E94AD028FE819
:1037E0009AE00E9479060E94DD04082E000C990BD5
:1037F0000E94A72D8D3419F0833509F03DCB8093BD
:103800003C123ACB80E290E0D2018D939C938FEAF8
:103810009AE00E94870680913F120E94AD0287E2E3
:1038200094E00E948706809140120E942C068EEB45
:103830009AE00E9479060E94EB04B20183EE9FE0B9
:103840000E949D2B8C01B20190E080E00E949D2B94
:10385000F801218120933F12DC018C91809340126A
:103860000BCB80E290E0F2019183808385E19BE0C5
:103870000E9487066091411270914212809143121A
:10388000909144120E94880687E294E00E94870685
:103890006091491270914A1280914B1290914C1292
:1038A0000E94AF068DE29BE00E9479060E94EB0425
:1038B000B20183EE9FE00E949D2B7C01B20190E05B
:1038C00080E00E949D2B8C014AE050E070E060E0B7
:1038D000C7010E946A2A4B015C014AE050E070E097
:1038E00060E0C8010E946A2A8092411290924212BE
:1038F000A0924312B09244121092451210924612B6
:1039000010924712109248128B019C016093491249
:1039100010934A1280934B1230934C1210924D1216
:1039200010924E1210924F1210925012A5CA80E2BD
:1039300090E0D2018D939C938CE99BE00E948706D6
:1039400080913D120E94AD0287E294E00E948706BA
:1039500080913E120E942C068AEA9BE00E94790622
:103960000E94EB04B20183EE9FE00E949D2BFC01BC
:103970008181082E000C990B0E94A72D8C01B201A9
:1039800090E080E00E949D2BDC018C91082E000CC1
:10399000990B0E94A72D0235110519F00634110567
:1039A00011F400933D128235910521F08634910582
:1039B00009F062CA80933E125FCA80E290E0F20191
:1039C0009183808386E19CE00E948706609151127A
:1039D0007091521280915312909154120E94880655
:1039E00087E294E00E9487066091591270915A1202
:1039F00080915B1290915C120E94AF0685E29CE080
:103A00000E9479060E94EB04B20183EE9FE00E94BF
:103A10009D2B7C01B20190E080E00E949D2B8C01E7
:103A20004AE050E070E060E0C7010E946A2A4B0162
:103A30005C014AE050E070E060E0C8010E946A2A40
:103A40008092511290925212A0925312B09254123C
:103A5000109255121092561210925712109258123C
:103A60008B019C016093591210935A1280935B1240
:103A700030935C1210925D1210925E1210925F12DF
:103A800010926012F9C980E290E0D2018D939C936C
:103A90008BE99CE00E94870660916112709162122E
:103AA00080916312909164120E94880687E294E0EC
:103AB0000E9487066091691270916A1280916B1260
:103AC00090916C120E94AF0687EA9CE00E947906F2
:103AD0000E94EB04B20183EE9FE00E949D2B7C01CB
:103AE000B20190E080E00E949D2B8C014AE050E002
:103AF00070E060E0C7010E946A2A4B015C014AE065
:103B000050E070E060E0C8010E946A2A8092611271
:103B100090926212A0926312B09264121092651297
:103B20001092661210926712109268128B019C011B
:103B30006093691210936A1280936B1230936C1227
:103B400010926D1210926E1210926F1210927012EB
:103B500093C980E290E0F2019183808388E19DE047
:103B60000E94870660917112709172128091731297
:103B7000909174120E94880687E294E00E94870662
:103B80006091791270917A1280917B1290917C12DF
:103B90000E94AF0680E29DE00E9479060E94EB043D
:103BA000B20183EE9FE00E949D2B7C01B20190E068
:103BB00080E00E949D2B8C014AE050E070E060E0C4
:103BC000C7010E946A2A4B015C014AE050E070E0A4
:103BD00060E0C8010E946A2A80927112909272126B
:103BE000A0927312B0927412109275121092761203
:103BF00010927712109278128B019C0160937912C7
:103C000010937A1280937B1230937C1210927D1263
:103C100010927E1210927F12109280122DC919E01C
:103C2000198341E150E06CE072E0CE0102960E94FF
:103C3000AF2D84E48B8B41E150E062E97FE0CE015F
:103C400044960E94AF2D1DA21EA280E88FA386E994
:103C500088A788E989A71AA61BA61CA61DA61EA6CA
:103C60001FA681EE88AB85EF89AB85E08AAB1BAAE6
:103C70001CAA1DAA1EAA84E190E098AF8FAB85E034
:103C800090E09AAF89AF8DE48BAF81E48EAF82E490
:103C90008FAF21961FAE219722961FAE22972396B3
:103CA0001FAE239724961FAE249725961FAE259707
:103CB00026961FAE269727961FAE279728961FAEEB
:103CC000289729961FAE29972A961FAE2A972B96DA
:103CD0001FAE2B972C961FAE2C972D961FAE2D97AF
:103CE0002E961FAE2E972F961FAE2F9760961FAE63
:103CF000609782E58CAF8DAF84EC61968FAF619752
:103D000062961FAF629763961FAE639764961FAE6D
:103D1000649765961FAE659766961FAE6697679621
:103D20001FAE679768961FAE689769968FAF6997C1
:103D30006A961FAF6A976B961FAE6B976C961FAE15
:103D40006C976D961FAE6D976E961FAE6E976F96C1
:103D50001FAE6F97A0961FAEA097A1961FAEA1971A
:103D6000A2961FAEA297A3961FAEA397A4961FAECE
:103D7000A497A5961FAEA597A6961FAEA697A79641
:103D80001FAEA797A8961FAEA897A9961FAEA99792
:103D9000AA961FAEAA97AB961FAEAB97AC961FAE76
:103DA000AC97AD961FAEAD97AE961FAEAE97AF96E1
:103DB0001FAEAF97E0961FAEE097E1961FAEE1977A
:103DC000E2961FAEE297E3961FAEE397E4961FAE2E
:103DD000E497E5961FAEE597E6961FAEE697E79661
:103DE0001FAEE797E8961FAEE897E9961FAEE997F2
:103DF000EA961FAEEA97EB961FAEEB97EC961FAED6
:103E0000EC97ED961FAEED97EE961FAEEE97EF9600
:103E10001FAEEF97C158DF4F1882CF57D0408FE7C2
:103E2000FE013196A2E0B2E101900D928A95E1F790
:103E300023C88DE89DE00E94790662E072E190E07F
:103E400080E00E94A40C8AEA9DE00E947906A0907E
:103E50002812B0902912C0902A12D0902B12E09014
:103E60002C12F0902D1200912E1210912F1220E0A2
:103E700030E145EA54ED68EE70E080E090E00E94A9
:103E8000A62C2093A50F3093A60F4093A70F509315
:103E9000A80F6093A90F7093AA0F8093AB0F909314
:103EA000AC0F809130128093AD0F809131128093CE
:103EB000AE0F809132128093AF0F809133128093B6
:103EC000B00F809134128093B10F8091351280939E
:103ED000B20F809136128093B30F80913712809386
:103EE000B40FA0903812B0903912C057DE4FB9828B
:103EF000A882C059D140B092A40FA092A30F0FE3A3
:103F000012E1CE56DE4F19830883C259D14031E405
:103F1000632E32E1732E49E5842E41E1942E56E062
:103F2000252E51E1352ED4011C9211961C92119729
:103F300012961C92129713961C92139714961C9229
:103F4000149715961C92159716961C92169717960D
:103F50001C922EE7A22EC256DE4FE881F981CE597F
:103F6000D140AE9ED001AF9EB00D1124AA5FBE4ECF
:103F7000FD013B961B961C921182128213821482C1
:103F8000158216821782D1019B961C929B979C9654
:103F90001C929C979D961C929D979E961C929E9714
:103FA0009F961C929F97D0961C92D097D1961C9268
:103FB000D197D2961C92D297DB961C92F101FB9678
:103FC0001182128213821482158216821782CE56B3
:103FD000DE4FE881F981C259D1408191CE56DE4F42
:103FE000F983E883C259D140D40198968C9398976D
:103FF000F301208131814281538164817581868101
:104000009781F8E06F0E711C18962C9318971996EB
:104010003C9319971A964C931A971B965C931B978F
:104020001C966C931C971D967C931D971E968C93E3
:104030001E971F969C93D3011896EC91D40150962D
:10404000EC93D3011996EC91D4015196EC93D301E2
:104050001A96EC91D4015296EC93D3011B96EC91F5
:10406000D4015396EC93D3011C96EC91D401549651
:10407000EC93D3011D96EC91D4015596EC93D301AA
:104080001E96EC91D4015696EC93D3011F96EC91B9
:10409000D4015796EC93D3015896EC91D4015896DD
:1040A000EC93D3015996EC91D4015996EC93D3013A
:1040B0005A96EC91D4015A96EC93D3015B96EC910D
:1040C000D4015B96EC93D3015C96EC91D4015C96A1
:1040D000EC93D3015D96EC91D4015D96EC93D30102
:1040E0005E96EC91D4015E96EC93D3015F96EC91D1
:1040F000D4015F96EC935F97F301A0A4B1A4C2A48E
:10410000D3A4E4A4F5A406A517A50E94742D909647
:104110002C93909791963C93919792964C9392976B
:1041200093965C93939794966C93949795967C93BF
:10413000959796968C93969797969C9360E0D1016D
:104140008C910E948F0365E070E080E090E00E9417
:10415000290461E0F10180810E948F0365E070E035
:1041600080E090E00E942904C057DE4F0881198149
:10417000C059D1400A30110509F449C0ACF50230EC
:10418000110509F452C0C955DE4F8881C75AD14084
:104190008160D4019A968C9311E050C086E392E03E
:1041A0000E94790685EC9DE00E94790610E000E00F
:1041B0006FEFC8010E94D22B0F5F1F4F0115F0E176
:1041C0001F07B1F784EF9DE040CE8EEF9DE00E9487
:1041D00079060C943C1721E030E0C256DE4F39835B
:1041E0002883CE59D1409FCEC057DE4F28813981D8
:1041F000C059D1402431310589F02832310519F6F2
:1042000050ECC955DE4F5883C75AD140BCCF30E47B
:10421000C955DE4F3883C75AD140B5CF40E8C9559C
:10422000DE4F4883C75AD140AECFC955DE4F188202
:10423000C75AD140A8CF112339F010E082E10E9483
:104240006703892BC1F3A8CFF40142A561E0C10146
:104250000E94660444E063E0C1010E94660440914C
:104260003A1266E0C1010E94660440E067E0C101C5
:104270000E946604D10112968C91803309F062C0CD
:1042800080913D1248E0863409F040E04368F40133
:1042900041A760E0C1010E946604FEE72F0E311CB9
:1042A0000EE7800E911CC256DE4F28813981CE590F
:1042B000D1402130310509F08ECF80913C128D34F0
:1042C00009F0C0C560ED77E080E090E00E9429042D
:1042D00061E08EE30E94BC0360E08EE30E948F03E6
:1042E00068EE73E080E090E00E94290482E10E9481
:1042F000670321E0892B09F420E002E010E0E22EC0
:10430000F12C9FE0C92ED12C82E10E9467038E150B
:104310009F05F1F4C6010197F1F703331105A4F7E6
:104320000F5F1F4F0233110579F786E392E00E9479
:10433000790686E392E00E94790682E09EE00E9480
:104340007906E2CF813309F0A0CF80913E129ACF57
:1043500061E08EE30E948F038EE30E946703892B46
:10436000D9F31092BD0F1092BE0F1092BF0F109292
:10437000C00F1092C10F1092C20F1092C30F109273
:10438000C40F42E062E771E082E10E942C0543E045
:1043900066E971E082E00E942C0543E061EB71E088
:1043A00083E00E942C0560E08EE30E948F0360E0B2
:1043B0008EE30E94BC0386E392E00E94790686E3C6
:1043C00092E00E94790680912612823009F457C546
:1043D00008F045C5882309F44AC5813009F44CC565
:1043E000809108018F7B80930801809108018F7E66
:1043F00080930801809108018F7780930801809154
:1044000008018F7D8093080180910801877F809348
:10441000080189E690E10E940802839709F4A3C786
:104420000E9404040091C50F1091C60F2091C70F80
:104430003091C80F601B710B820B930B6B3F7105A2
:104440008105910508F453C00E9404046093C50FD0
:104450007093C60F8093C70F9093C80F2091BD0F24
:104460003091BE0F4091BF0F5091C00F6091C10FAE
:104470007091C20F8091C30F9091C40FA090B50F9F
:10448000B090B60FC090B70FD090B80FE090B90FB2
:10449000F090BA0F0091BB0F1091BC0F0E94922DAB
:1044A00009F4F3C480910801886080930801709139
:1044B000BD0F6091BE0F5091BF0F4091C00F309162
:1044C000C10F2091C20F9091C30F8091C40F7093C0
:1044D000B50F6093B60F5093B70F4093B80F30935A
:1044E000B90F2093BA0F9093BB0F8093BC0F86E057
:1044F000282E81E1382EC256DE4F19821882CE59FD
:10450000D140D10115968C910E946703892B09F047
:1045100083C4C256DE4FE881F981CE59D1408091E3
:104520000801EF2B09F0B7C48064809308018091E3
:104530000801806180930801D1019B968C919B9723
:10454000D3968C93D3979C968C919C97D4968C936E
:10455000D4979D968C919D97D5968C93D5979E9642
:104560008C919E97D6968C93D6979F968C919F9779
:10457000D7968C93D797D0968C91D097D8968C93CA
:10458000D897D1968C91D197D9968C93D997D2966A
:104590008C91D297DA968C933101BBE36B0E711C30
:1045A000F10173ADD30111966C91119712965C9144
:1045B000129713964C91139714963C911497159655
:1045C0002C91159716969C91169717968C91ED5BEA
:1045D000FF4FC057DE4FF983E883C059D140708345
:1045E000618352834383348325839683878360E189
:1045F000C1010E94AC04D10153966D937D938D93BC
:104600009C93569762E1C1010E94AC04F101678B53
:10461000708F818F928F61E1C1010E94AC04D10142
:104620005F966D937D938D939C9392976BE1C101FF
:104630000E94AC04F10163A374A385A396A36CE16B
:10464000C1010E94AC04C656DE4F688379838A8319
:104650009B83CA59D140D10197966D937D938D93D9
:104660009C939A97B091A50FC056DE4FB883C05A5D
:10467000D140E091A60FCF55DE4FE883C15AD1401B
:10468000F091A70FCE55DE4FF883C25AD140A090CB
:10469000A80FCD55DE4FA882C35AD140B090A90FC4
:1046A000CC55DE4FB882C45AD140C090AA0FCB552A
:1046B000DE4FC882C55AD1408090AB0F9090AC0FAE
:1046C000F101878D90A1A1A1B2A15C016D01E12C46
:1046D000F12C8701CE56DE4F8883C259D140CD568A
:1046E000DE4FB882C359D140CC56DE4FA883C4599F
:1046F000D140CB56DE4FD882C559D140CA56DE4F85
:10470000E882C659D140C956DE4FF882C759D14018
:10471000C856DE4F0883C859D140C756DE4F1883AC
:10472000C959D140C056DE4FA880C05AD140CF559C
:10473000DE4FB880C15AD140CE55DE4FC880C25A34
:10474000D140CD55DE4FD880C35AD140CC55DE4F35
:10475000E880C45AD140CB55DE4FF880C55AD140CD
:104760008401CE56DE4F2881C259D140CD56DE4F4E
:104770003881C359D140CC56DE4F4881C459D1400D
:10478000CB56DE4F5881C559D14060E070E080E0E3
:1047900090E00E94542CF101ED58FF4FA080B180B1
:1047A000C280D380E480F580068117810E94892D24
:1047B000CA55DE4F2883C65AD140C655DE4F3883CE
:1047C000CA5AD140C555DE4F4883CB5AD140C45553
:1047D000DE4F5883CC5AD140C355DE4F6883CD5A43
:1047E000D140C255DE4F7883CE5AD140C155DE4FFD
:1047F0008883CF5AD140C055DE4F9883C05BD140EB
:1048000020E432E44FE050E060E070E080E090E0CF
:104810007097A080B180C280D380E480F58006814B
:1048200017810E94892DD1019396CD90DD90ED9056
:10483000FC90969787017601C656DE4FA880B98016
:10484000CA80DB80CA59D140AE18BF08C00AD10A5D
:1048500076016701E12CF12C8701CE56DE4FA8824C
:10486000C259D140CD56DE4FB882C359D140CC5643
:10487000DE4FC882C459D140CB56DE4FD882C559CD
:10488000D140CA56DE4FE882C659D140C956DE4FE4
:10489000F882C759D140C856DE4F0883C859D14065
:1048A000C756DE4F1883C959D140E12CF12C00E0E6
:1048B00010E0FAD7E091A30FF091A40F31971F2FCA
:1048C000110F110B5F01C12ED12EE12EF12E012F00
:1048D0000E94A62CC656DE4F2883CA59D140CF5419
:1048E000DE4F3883C15BD140CE54DE4F4883C25B7C
:1048F000D140CD54DE4F5883C35BD140CC54DE4F02
:104900006883C45BD140CB54DE4F7883C55BD14014
:10491000CA54DE4F8883C65BD140C954DE4F9883AA
:10492000C75BD140F101E559FF4FF0800181128151
:10493000B381648175812F2D302F412F5B2F8681AC
:104940009781A0E00E949B2D61F0D1015796FC92C7
:10495000579758960C93589759961C9359975A966F
:104960005C93F10183899489A589B6895C016D0105
:104970002789308D418D528DBA01AB0160E070E026
:10498000CB01CE56DE4F2883C259D140CD56DE4FE3
:104990003883C359D140CC56DE4F4883C459D140E7
:1049A000CB56DE4F5883C559D140CA56DE4F688377
:1049B000C659D140C956DE4F7883C759D140C85631
:1049C000DE4F8883C859D140C756DE4F9883C959F6
:1049D000D1409501A60160E070E080E090E0CE5605
:1049E000DE4FA880C259D140CD56DE4FB880C359A2
:1049F000D140CC56DE4FC880C459D140CB56DE4F93
:104A0000D880C559D140E12CF12C00E010E00E9483
:104A1000892DCE56DE4F2883C259D140C854DE4F6F
:104A20003883C85BD140C754DE4F4883C95BD1404F
:104A3000C654DE4F5883CA5BD140C554DE4F6883ED
:104A4000CB5BD140C454DE4F7883CC5BD140C354A0
:104A5000DE4F8883CD5BD140C254DE4F9883CE5B5E
:104A6000D140A12C60E1B62E75EAC72EE4EDDE2E12
:104A7000F8EEEF2EC056DE4F2881C05AD140CF55F8
:104A8000DE4F3881C15AD140CE55DE4F4881C25ADF
:104A9000D140CD55DE4F5881C35AD140CC55DE4F61
:104AA0006881C45AD140CB55DE4F7881C55AD14078
:104AB000C401FAD6C656DE4FA880CA59D140CF5499
:104AC000DE4FB880C15BD140CE54DE4FC880C25BA0
:104AD000D140CD54DE4FD880C35BD140CC54DE4FA3
:104AE000E880C45BD140CB54DE4FF880C55BD14039
:104AF000CA54DE4F0881C65BD140C954DE4F1881CD
:104B0000C75BD14023D759016A017B018C01CE5686
:104B1000DE4F2881C259D140C854DE4F3881C85B6E
:104B2000D140C754DE4F4881C95BD140C654DE4FE7
:104B30005881CA5BD140C554DE4F6881CB5BD14000
:104B4000C454DE4F7881CC5BD140C354DE4F8881A2
:104B5000CD5BD140C254DE4F9881CE5BD140A4D60C
:104B6000A0E4AA2EB2E4BB2E1FE0C12ED12CE12C72
:104B7000F12C00E010E0EAD6CA55DE4FA880C65AF4
:104B8000D140C655DE4FB880CA5AD140C555DE4F18
:104B9000C880CB5AD140C455DE4FD880CC5AD140C2
:104BA000C355DE4FE880CD5AD140C255DE4FF88064
:104BB000CE5AD140C155DE4F0881CF5AD140C055A1
:104BC000DE4F1881C05BD1408FD7CE56DE4F288391
:104BD000C259D140C656DE4F3883CA59D140C0565B
:104BE000DE4F4883C05AD140CF55DE4F5883C15A5B
:104BF000D140CE55DE4F6883C25AD140CD55DE4FED
:104C00007883C35AD1404C01D1019B962C939B973A
:104C10009C963C939C979D964C939D979E965C93F7
:104C20009E979F966C939F97D0967C93D097D196A2
:104C30008C93D197D2969C920EE7A02EC256DE4F4F
:104C4000E881F981CE59D140AE9ED001AF9EB00D22
:104C50001124AA5FBE4EFD013B961B962C9131811B
:104C6000428153816481758186819781A090AD0FC7
:104C7000B090AE0FC090AF0FD090B00FE090B10FDA
:104C8000F090B20F0091B30F1091B40F0DD6CE5625
:104C9000DE4FA880C259D140C656DE4FB880CA59EF
:104CA000D140C056DE4FC880C05AD140CF55DE4FEC
:104CB000D880C15AD140CE55DE4FE880C25AD1408B
:104CC000CD55DE4FF880C35AD140840122D7F1017F
:104CD000E55AFF4FA080B180C280D380E480F58088
:104CE0000681178116D7D3012C9311963C93119707
:104CF00012964C93129713965C93139714966C9399
:104D0000149715967C93159716968C93169717966D
:104D10009C934101BBE48B0E911CC057DE4FE88190
:104D2000F981C059D140A080B180C280D380E48095
:104D3000F58006811781EDD6D4012C9311963C9312
:104D4000119712964C93129713965C93139714969F
:104D50006C93149715967C93159716968C931697CB
:104D600017969C9381010D5A1F4FF80120813181C4
:104D7000428153816481758186819781A1E0BDD68E
:104D8000208331834283538364837583868397832F
:104D9000B996408160E0C1010E946604D8012C915F
:104DA00011963C91119712964C91129713965C9123
:104DB000139714966C91149715967C9115971696E7
:104DC0008C91169717969C91A2E0B5D691F08CF035
:104DD0008091271281114EC180912612823009F4F0
:104DE000DBC108F05FC0882309F45AC1813009F49F
:104DF0006DC1C256DE4F28813981CE59D140809194
:104E00000801232B09F0C1C28F7B80930801809198
:104E100008018F7E809308013EE7230E311CC256A5
:104E2000DE4F48815981CE59D1404130510509F4B6
:104E3000F0CA61E070E0C256DE4F79836883CE59D4
:104E4000D1405FCB86E392E00E94790686E392E050
:104E50000E9479068CE29EE00E9479067DCA83302A
:104E600089F0843009F0BCCA8BEC9EE002C084E576
:104E70009EE00E947906B4CA8AE69EE0FACF88E8EE
:104E80009EE0F7CF8BE99EE0F4CF80910801877F09
:104E9000809308012CCB80688093080180910801E1
:104EA000806248CB843009F48EC108F0A2CFD09044
:104EB0004111E0904211F090431100914411109182
:104EC0004511B0914611F0914711E09148112D2DF7
:104ED0003E2D4F2D502F612F7B2F8F2F9E2FA1E026
:104EE0002AD609F00CF485CF2091BF113091C01162
:104EF0004091C1115091C2116091C3117091C411C0
:104F00008091C5119091C61116D609F00CF471CF9D
:104F10002D2D3E2D4F2D502F612F7B2F8F2F9E2F0C
:104F20000E94B40982E497E00E9487068091811173
:104F30000E942C062091BF113091C0114091C111E7
:104F40005091C2116091C3117091C4118091C5112B
:104F50009091C6110E94B40982E497E00E948706EE
:104F60008091FF110E942C062091BF113091C01139
:104F70004091C1115091C2116091C3117091C4113F
:104F80008091C5119091C611A0904111B09042112D
:104F9000C0904311D0904411E0904511F09046111B
:104FA0000091471110914811B4D5C057DE4F2883A6
:104FB000C059D140CE56DE4F3883C259D140C65673
:104FC000DE4F4883CA59D140C056DE4F5883C05A7D
:104FD000D1403B014C01A12C20E1B22E35EAC32E79
:104FE00044EDD42E58EEE52EF12C00E010E0209197
:104FF000D7113091D8114091D9115091DA116091A7
:10500000DB117091DC118091DD119091DE114CD497
:10501000AFEF73D559016A017B018C01C057DE4F98
:105020002881C059D140CE56DE4F3881C259D14077
:10503000C656DE4F4881CA59D140C056DE4F58810E
:10504000C05AD140B301C4014FD50E94B4098EE0CB
:105050009FE00E9487068091FF110E94AD0287E3C6
:1050600092E00E948706809181110E94AD0285E442
:1050700094E06FC089E690E10E942A021816190692
:105080000CF0B7CE89E690E10E9408022091271229
:10509000022E000C330B8217930709F0AACE9CCE88
:1050A000F301208131814281538164817581868140
:1050B00097810E94B40980E09FE00E948706F10179
:1050C000E558FF4F80810E942C0693CEA09041119D
:1050D000B0904211C0904311D0904411E09045111E
:1050E000F090461100914711109148119501A601C9
:1050F000B701C801A1E01FD509F00CF47ACEF091F8
:10510000BF11C057DE4FF883C059D1406090C01125
:105110007090C1118090C2119090C311B091C411D0
:10512000F091C511E091C611C057DE4F2881C059DA
:10513000D140362D472D582D692D7B2F8F2F9E2F37
:10514000FAD409F00CF455CEE4D40E94B40984E0FA
:105150009FE00E9479061092411110924211109224
:105160004311109244111092451110924611109261
:105170004711109248111092BF111092C011109255
:10518000C1111092C2111092C3111092C411109249
:10519000C5111092C6112DCED4012C9111963C91BF
:1051A000119712964C91129713965C91139714963F
:1051B0006C91149715967C91159716968C9116976D
:1051C00017969C9176CFF10186898F9385898F936D
:1051D00084898F9383898F9384E1A82E8FE0B82EE2
:1051E000BF92AF925F924F92C9D4C2010E948706CC
:1051F000D1015A968C915A978F9359968C915997C1
:105200008F9358968C9158978F9357968C918F9334
:10521000BF92AF925F924F92B1D4C2010E948706B3
:10522000F10182A18F9381A18F9380A18F93878DAC
:105230008F93BF92AF925F924F92A0D4C2010E940F
:105240008706D10196968C9196978F9395968C911F
:1052500095978F9394968C9194978F9393968C9126
:105260008F93BF92AF925F924F9288D40FB6F8940B
:10527000DEBF0FBECDBFC2010E948706D1019A9644
:105280008C919A978F9399968C9199978F939896E2
:105290008C9198978F9397968C918F93BF92AF92A2
:1052A0005F924F926BD4C2010E9487069EE7A92E9F
:1052B000C256DE4FE881F981CE59D140AE9ED00171
:1052C000AF9EB00D1124AA5FBE4EFD013B961B960A
:1052D0005C914181328123818481858186818781AE
:1052E000652F742F832F922F0E94880682E497E007
:1052F0000E948706D1019B962C919B979C963C918E
:105300009C979D964C919D979E965C919E979F969B
:105310006C919F97D0967C91D097D1968C91D19794
:10532000D2969C910E94B40982E497E00E9487067D
:10533000F3012081318142815381648175818681AD
:1053400097810E94B40980E09FE00E948706F101E6
:10535000E558FF4F80810E942C060FB6F894DEBFFF
:105360000FBECDBF46CD0E9429068AE19FE00E9474
:1053700079060E94290664E670E080E090E00E94D1
:1053800029040E94D0020C947C118F77809308012D
:10539000809108018F7D3ECD8F929F92AF92BF92F8
:1053A000CF92DF92EF92FF92CF93DF93EC0168816F
:1053B00079818A819B81611571058105910521F4AF
:1053C00064E279ED8BE597E02DE133EF41E050E0C9
:1053D00028D249015A019B01AC01A7EAB1E43DD2B0
:1053E0006B017C01ACEEB4EFA501940142D2C60E74
:1053F000D71EE81EF91EF7FE06C081E0C81AD108C4
:10540000E10880E8F80AC882D982EA82FB82C701F3
:10541000B6019F77DF91CF91FF90EF90DF90CF9013
:10542000BF90AF909F908F9008958F929F92AF9270
:10543000BF92CF92DF92EF92FF926091080270913B
:10544000090280910A0290910B0261157105810594
:10545000910521F464E279ED8BE597E02DE133EFDE
:1054600041E050E0DED149015A019B01AC01A7EABD
:10547000B1E4F3D16B017C01ACEEB4EFA501940172
:10548000F8D1C60ED71EE81EF91EF7FE06C081E051
:10549000C81AD108E10880E8F80AC0920802D09240
:1054A0000902E0920A02F0920B02C701B6019F774F
:1054B000FF90EF90DF90CF90BF90AF909F908F9034
:1054C0000895609308027093090280930A029093F2
:1054D0000B0208953F924F925F926F927F928F924C
:1054E0009F92AF92BF92CF92DF92EF92FF920F9373
:1054F0001F93CF93DF935C016B017A0161157105F6
:1055000019F0FB0191838083E114F10451F0C7018C
:105510000297839730F040E030E020E090E06AC0EE
:105520005E01E5012196F5011081812F90E0FDD00B
:10553000892BB1F71D3201F52196F501118101E0AA
:10554000E114F10409F4E4C0F0E1EF16F10409F00C
:1055500088C0103359F488818F7D883509F07CC06C
:10556000198122960260F0E1EF2EF12C812C912C12
:10557000A12C88E0B82E91C01B3221F4E5012296BF
:10558000F501118100E0DCCFEAE0EE16F10409F448
:10559000C5C0F0E1EF16F10409F073C0E7CF78E081
:1055A000E72EF12C812C912CA12C60E1B62E75C038
:1055B00021E0ABC0302F3170C114D10431F022236F
:1055C00071F12197F601D183C08327FF2EC060E0DF
:1055D00070E080E090E8311104C06FEF7FEF8FEF53
:1055E0009FE722E230E03093841220938312462F0B
:1055F000372F282F642F732F822FDF91CF911F9188
:105600000F91FF90EF90DF90CF90BF90AF909F9061
:105610008F907F906F905F904F903F90089501FF23
:1056200004C02297F601D183C083332341F09095C3
:105630008095709561957F4F8F4F9F4FD8CF97FF83
:10564000D6CF82E290E090938412809383126FEF22
:105650007FEF8FEF9FE7CBCF10E3E114F10409F464
:105660009ECF28E0E216F10409F49CCF0CF08CCF19
:10567000812C912CA12CE0E4BE2E82E0E816F104EE
:1056800061F060E070E080E090E897010F2C000C82
:10569000440B550BA4D049015A0120E060E070E0B2
:1056A000CB0127010F2C000C66087708FE0150ED96
:1056B000352E310E39E0331570F43FEB310F49ECE4
:1056C000342E3A3138F03FE9310F3A3108F072CFD9
:1056D00039EA332E310E3E141F040CF06BCF27FD38
:1056E00014C086169706A806B90670F0A3019201A9
:1056F00067D0630D711D811D911D6130710581059C
:1057000020E8920708F454CF2FEF21961081CECFD6
:10571000103309F420CF2AE0E22EF12C9CEC892EE4
:10572000982CA82C9CE0B92EB8CF911130C08032B3
:1057300019F089508550D0F7089541E852E100C032
:10574000FA01A191B081009719F41097E1F0CD0111
:10575000DC01CD010D90002011F4C00113C0FB014C
:105760002191222319F02015D9F7F3CFFB012191C4
:10577000201519F41E92119606C02223C1F70D9030
:105780000020A1F7D001FA01A193B08308959927D1
:1057900088270895F999FECF92BD81BDF89A99277F
:1057A00080B50895262FF999FECF1FBA92BD81BD0D
:1057B00020BD0FB6F894FA9AF99A0FBE0196089593
:1057C000DB018F939F9349D0BF91AF91A29F800D32
:1057D000911DA39F900DB29F900D11240895A1E2F9
:1057E0001A2EAA1BBB1BFD010DC0AA1FBB1FEE1F5B
:1057F000FF1FA217B307E407F50720F0A21BB30BA6
:10580000E40BF50B661F771F881F991F1A9469F721
:1058100060957095809590959B01AC01BD01CF017D
:105820000895052E97FB16F400940FD057FD05D070
:10583000D6DF07FC02D046F408C05095409530955D
:1058400021953F4F4F4F5F4F0895909580957095EC
:1058500061957F4F8F4F9F4F08950FD0A59F900D5B
:10586000B49F900DA49F800D911D11240895B7FF42
:10587000F4CFF3DF821B930B0895A29FB001B39F77
:10588000C001A39F700D811D1124911DB29F700D49
:10589000811D1124911D0895EE0FFF1F881F8BBFDE
:1058A0000790F691E02D1994DF93CF931F930F93F8
:1058B0009A9DF02D219FF00D8B9DF00D8A9DE02D7E
:1058C000F10D039FF00D029FE00DF11D4E9DE00DC7
:1058D000F11D5E9DF00D4F9DF00D7F936F93BF9274
:1058E000AF925F934F93D501C8DF8B01AC01D70115
:1058F000C4DFEB01E80FF91FD6011ED02F913F91B5
:10590000D601BBDFC60FD71FE81FF91FAF91BF91AC
:1059100013D02F913F91B1DFC60FD71FE81FF91F9A
:10592000D601ABDFE60FF71F9801BE01CF010F9143
:105930001F91CF91DF910895A0DF460F571FC81F19
:10594000D91F08F431960895689401C0E894F92F9E
:10595000F12B0AF027C0A0E0B0E0E0EBFCE293C03E
:10596000092E05941AF479D0112392F4F0E80F2649
:10597000FFEFE094F09400951095B094C094D0940B
:10598000A194BF0ACF0ADF0AEF0AFF0A0F0B1F0B11
:1059900013D007FC62D0CDB7DEB7ECE090C06894BE
:1059A00001C0E8948F929F92CF93DF9305D0DF914F
:1059B000CF919F908F90089588249924F401E40159
:1059C000B0E49F93AA279A158B049C04ED05FE056D
:1059D000CF05D007A10798F4AD2FDC2FCF2FFE2FD6
:1059E000E92D982C892E982F872F762F652F542FED
:1059F000432F322F2227B85031F7BF9127C01B2EDB
:105A0000BF91BB27220F331F441F551F661F771FEF
:105A1000881F991F881C991CEE1FFF1FCC1FDD1FBC
:105A2000AA1FBB1F8A149B04EC05FD05CE05DF05EC
:105A3000A007B10748F08A189B08EC09FD09CE09B8
:105A4000DF09A00BB10B21601A94E1F62EF494014A
:105A5000AF01BE01CD01000C089560957095809551
:105A6000909530954095509521953F4F4F4F5F4F02
:105A70006F4F7F4F8F4F9F4F08952F923F924F92BE
:105A80005F926F927F928F929F92AF92BF92CF92CE
:105A9000DF92EF92FF920F931F93CF93DF93CDB7D7
:105AA000DEB7CA1BDB0B0FB6F894DEBF0FBECDBF4F
:105AB00019942A88398848885F846E847D848C8410
:105AC0009B84AA84B984C884DF80EE80FD800C8129
:105AD0001B81AA81B981CE0FD11D0FB6F894DEBF0C
